{
  "contractName": "Customizer",
  "abi": [
    {
      "inputs": [
        {
          "internalType": "contract IERC721",
          "name": "callingContract",
          "type": "IERC721"
        },
        {
          "internalType": "uint256",
          "name": "tokenId",
          "type": "uint256"
        }
      ],
      "name": "safeOwnerOf",
      "outputs": [
        {
          "internalType": "address",
          "name": "",
          "type": "address"
        }
      ],
      "stateMutability": "view",
      "type": "function",
      "constant": true
    },
    {
      "inputs": [
        {
          "internalType": "contract IERC721",
          "name": "callingContract",
          "type": "IERC721"
        },
        {
          "internalType": "address",
          "name": "ogColorContractAddress",
          "type": "address"
        },
        {
          "internalType": "uint256",
          "name": "tokenId",
          "type": "uint256"
        }
      ],
      "name": "getColors",
      "outputs": [
        {
          "internalType": "string",
          "name": "backColor",
          "type": "string"
        },
        {
          "internalType": "string",
          "name": "frameColor",
          "type": "string"
        },
        {
          "internalType": "string",
          "name": "digitColor",
          "type": "string"
        },
        {
          "internalType": "string",
          "name": "slugColor",
          "type": "string"
        }
      ],
      "stateMutability": "view",
      "type": "function",
      "constant": true
    },
    {
      "inputs": [
        {
          "internalType": "contract IERC721",
          "name": "callingContract",
          "type": "IERC721"
        },
        {
          "internalType": "address",
          "name": "gotTokenContractAddress",
          "type": "address"
        },
        {
          "internalType": "address[]",
          "name": "supportedCollections",
          "type": "address[]"
        },
        {
          "internalType": "uint256",
          "name": "tokenId",
          "type": "uint256"
        }
      ],
      "name": "getOwnedSupportedCollection",
      "outputs": [
        {
          "internalType": "address",
          "name": "",
          "type": "address"
        }
      ],
      "stateMutability": "view",
      "type": "function",
      "constant": true
    },
    {
      "inputs": [
        {
          "internalType": "contract IERC721",
          "name": "callingContract",
          "type": "IERC721"
        },
        {
          "internalType": "uint16",
          "name": "desiredCount",
          "type": "uint16"
        },
        {
          "internalType": "uint256",
          "name": "minValue",
          "type": "uint256"
        },
        {
          "internalType": "uint256",
          "name": "maxValue",
          "type": "uint256"
        },
        {
          "internalType": "uint256",
          "name": "seed",
          "type": "uint256"
        }
      ],
      "name": "suggestFreeIds",
      "outputs": [
        {
          "internalType": "uint256[]",
          "name": "",
          "type": "uint256[]"
        }
      ],
      "stateMutability": "view",
      "type": "function",
      "constant": true
    },
    {
      "inputs": [
        {
          "internalType": "uint256",
          "name": "seed",
          "type": "uint256"
        },
        {
          "internalType": "uint256",
          "name": "maxValue",
          "type": "uint256"
        }
      ],
      "name": "random",
      "outputs": [
        {
          "internalType": "uint256",
          "name": "",
          "type": "uint256"
        }
      ],
      "stateMutability": "view",
      "type": "function",
      "constant": true
    }
  ],
  "bytecode": "0x6117a5610053600b82828239805160001a607314610046577f4e487b7100000000000000000000000000000000000000000000000000000000600052600060045260246000fd5b30600052607381538281f3fe73000000000000000000000000000000000000000030146080604052600436106100615760003560e01c80633f962c8a146100665780637308eca4146100965780637af8c19b146100c6578063a9dd1225146100f6578063bda93c9a14610126575b600080fd5b610080600480360381019061007b9190610d79565b610159565b60405161008d919061116d565b60405180910390f35b6100b060048036038101906100ab9190610c38565b6101fa565b6040516100bd919061116d565b60405180910390f35b6100e060048036038101906100db9190610d02565b6103ee565b6040516100ed91906111ef565b60405180910390f35b610110600480360381019061010b9190610e78565b610761565b60405161011d91906112d2565b60405180910390f35b610140600480360381019061013b9190610cb3565b6107a4565b6040516101509493929190611211565b60405180910390f35b600080600090508373ffffffffffffffffffffffffffffffffffffffff16636352211e846040518263ffffffff1660e01b815260040161019991906112ed565b60206040518083038186803b1580156101b157600080fd5b505afa9250505080156101e257506040513d601f19601f820116820180604052508101906101df9190610bce565b60015b6101eb576101f0565b809150505b8091505092915050565b60008073ffffffffffffffffffffffffffffffffffffffff168473ffffffffffffffffffffffffffffffffffffffff16141561023957600090506103e6565b60006102458684610159565b9050600073ffffffffffffffffffffffffffffffffffffffff168173ffffffffffffffffffffffffffffffffffffffff1614156102865760009150506103e6565b606060008690508073ffffffffffffffffffffffffffffffffffffffff1663d00e7bbe8488886040518463ffffffff1660e01b81526004016102ca93929190611188565b60006040518083038186803b1580156102e257600080fd5b505afa92505050801561031857506040513d6000823e3d601f19601f820116820180604052508101906103159190610bf7565b60015b61032857600093505050506103e6565b8092505060005b82518110156103dd57828181518110610371577f4e487b7100000000000000000000000000000000000000000000000000000000600052603260045260246000fd5b6020026020010151156103ca578681815181106103b7577f4e487b7100000000000000000000000000000000000000000000000000000000600052603260045260246000fd5b60200260200101519450505050506103e6565b80806103d5906115da565b91505061032f565b50600093505050505b949350505050565b606060008561ffff161180156104085750600b8561ffff16105b610447576040517f08c379a000000000000000000000000000000000000000000000000000000000815260040161043e906112b2565b60405180910390fd5b600084101561048b576040517f08c379a000000000000000000000000000000000000000000000000000000000815260040161048290611272565b60405180910390fd5b60008311801561049a57508383115b6104d9576040517f08c379a00000000000000000000000000000000000000000000000000000000081526004016104d090611292565b60405180910390fd5b60008561ffff1667ffffffffffffffff81111561051f577f4e487b7100000000000000000000000000000000000000000000000000000000600052604160045260246000fd5b60405190808252806020026020018201604052801561054d5781602001602082028036833780820191505090505b50905060008060005b8861ffff168161ffff16101561067357600061058d878580610577906115af565b965061ffff166105879190611460565b89610761565b90508881101580156105d45750600073ffffffffffffffffffffffffffffffffffffffff166105bc8c83610159565b73ffffffffffffffffffffffffffffffffffffffff16145b1561064c57808584806105e6906115af565b955061ffff1681518110610623577f4e487b7100000000000000000000000000000000000000000000000000000000600052603260045260246000fd5b6020026020010181815250508961ffff168361ffff161061064b578495505050505050610758565b5b60648461ffff16111561065f5750610673565b50808061066b906115af565b915050610556565b506000905060008690505b8781111561075057600073ffffffffffffffffffffffffffffffffffffffff166106a88b83610159565b73ffffffffffffffffffffffffffffffffffffffff16141561073d576001816106d191906114b6565b848361ffff168151811061070e577f4e487b7100000000000000000000000000000000000000000000000000000000600052603260045260246000fd5b6020026020010181815250508180610725906115af565b9250508861ffff168261ffff161061073c57610750565b5b808061074890611585565b91505061067e565b508293505050505b95945050505050565b60008144428560405160200161077993929190611130565b6040516020818303038152906040528051906020012060001c61079c919061162d565b905092915050565b60608060608060006107b68887610159565b9050600073ffffffffffffffffffffffffffffffffffffffff168173ffffffffffffffffffffffffffffffffffffffff16146108d157600073ffffffffffffffffffffffffffffffffffffffff168773ffffffffffffffffffffffffffffffffffffffff16146108d05760008790508073ffffffffffffffffffffffffffffffffffffffff1663116e85bf83896040518363ffffffff1660e01b81526004016108609291906111c6565b60006040518083038186803b15801561087857600080fd5b505afa9250505080156108ae57506040513d6000823e3d601f19601f820116820180604052508101906108ab9190610db5565b60015b6108b7576108ce565b8383838399509950995099505050505050506109b3565b505b5b6040518060400160405280600781526020017f23464646464646000000000000000000000000000000000000000000000000008152506040518060400160405280600781526020017f23303030303030000000000000000000000000000000000000000000000000008152506040518060400160405280600781526020017f23303030303030000000000000000000000000000000000000000000000000008152506040518060400160405280600781526020017f23464646464646000000000000000000000000000000000000000000000000008152509450945094509450505b93509350935093565b60006109cf6109ca84611339565b611308565b905080838252602082019050828560208602820111156109ee57600080fd5b60005b85811015610a1e5781610a048882610ad2565b8452602084019350602083019250506001810190506109f1565b5050509392505050565b6000610a3b610a3684611365565b611308565b90508083825260208201905082856020860282011115610a5a57600080fd5b60005b85811015610a8a5781610a708882610b50565b845260208401935060208301925050600181019050610a5d565b5050509392505050565b6000610aa7610aa284611391565b611308565b905082815260208101848484011115610abf57600080fd5b610aca848285611552565b509392505050565b600081359050610ae1816116fc565b92915050565b600081519050610af6816116fc565b92915050565b600082601f830112610b0d57600080fd5b8135610b1d8482602086016109bc565b91505092915050565b600082601f830112610b3757600080fd5b8151610b47848260208601610a28565b91505092915050565b600081519050610b5f81611713565b92915050565b600081359050610b748161172a565b92915050565b600082601f830112610b8b57600080fd5b8151610b9b848260208601610a94565b91505092915050565b600081359050610bb381611741565b92915050565b600081359050610bc881611758565b92915050565b600060208284031215610be057600080fd5b6000610bee84828501610ae7565b91505092915050565b600060208284031215610c0957600080fd5b600082015167ffffffffffffffff811115610c2357600080fd5b610c2f84828501610b26565b91505092915050565b60008060008060808587031215610c4e57600080fd5b6000610c5c87828801610b65565b9450506020610c6d87828801610ad2565b935050604085013567ffffffffffffffff811115610c8a57600080fd5b610c9687828801610afc565b9250506060610ca787828801610bb9565b91505092959194509250565b600080600060608486031215610cc857600080fd5b6000610cd686828701610b65565b9350506020610ce786828701610ad2565b9250506040610cf886828701610bb9565b9150509250925092565b600080600080600060a08688031215610d1a57600080fd5b6000610d2888828901610b65565b9550506020610d3988828901610ba4565b9450506040610d4a88828901610bb9565b9350506060610d5b88828901610bb9565b9250506080610d6c88828901610bb9565b9150509295509295909350565b60008060408385031215610d8c57600080fd5b6000610d9a85828601610b65565b9250506020610dab85828601610bb9565b9150509250929050565b60008060008060808587031215610dcb57600080fd5b600085015167ffffffffffffffff811115610de557600080fd5b610df187828801610b7a565b945050602085015167ffffffffffffffff811115610e0e57600080fd5b610e1a87828801610b7a565b935050604085015167ffffffffffffffff811115610e3757600080fd5b610e4387828801610b7a565b925050606085015167ffffffffffffffff811115610e6057600080fd5b610e6c87828801610b7a565b91505092959194509250565b60008060408385031215610e8b57600080fd5b6000610e9985828601610bb9565b9250506020610eaa85828601610bb9565b9150509250929050565b6000610ec08383610ee4565b60208301905092915050565b6000610ed8838361110a565b60208301905092915050565b610eed816114ea565b82525050565b610efc816114ea565b82525050565b610f0b816114ea565b82525050565b6000610f1c826113e1565b610f26818561141c565b9350610f31836113c1565b8060005b83811015610f62578151610f498882610eb4565b9750610f5483611402565b925050600181019050610f35565b5085935050505092915050565b6000610f7a826113ec565b610f84818561142d565b9350610f8f836113d1565b8060005b83811015610fc0578151610fa78882610ecc565b9750610fb28361140f565b925050600181019050610f93565b5085935050505092915050565b6000610fd8826113f7565b610fe2818561144f565b9350610ff2818560208601611552565b610ffb816116eb565b840191505092915050565b6000611013601e8361143e565b91507f4d696e2076616c756520746f6f206c6f77206f7220746f6f206c6172676500006000830152602082019050919050565b6000611053601e8361143e565b91507f4d61782076616c756520746f6f206c6f77206f7220746f6f206c6172676500006000830152602082019050919050565b600061109360228361143e565b91507f4465736972656420636f756e7420746f6f206c6f77206f7220746f6f206c617260008301527f67650000000000000000000000000000000000000000000000000000000000006020830152604082019050919050565b6110f581611548565b82525050565b61110481611548565b82525050565b61111381611548565b82525050565b61112a61112582611548565b611623565b82525050565b600061113c8286611119565b60208201915061114c8285611119565b60208201915061115c8284611119565b602082019150819050949350505050565b60006020820190506111826000830184610f02565b92915050565b600060608201905061119d6000830186610ef3565b81810360208301526111af8185610f11565b90506111be60408301846110ec565b949350505050565b60006040820190506111db6000830185610ef3565b6111e860208301846110ec565b9392505050565b600060208201905081810360008301526112098184610f6f565b905092915050565b6000608082019050818103600083015261122b8187610fcd565b9050818103602083015261123f8186610fcd565b905081810360408301526112538185610fcd565b905081810360608301526112678184610fcd565b905095945050505050565b6000602082019050818103600083015261128b81611006565b9050919050565b600060208201905081810360008301526112ab81611046565b9050919050565b600060208201905081810360008301526112cb81611086565b9050919050565b60006020820190506112e760008301846110fb565b92915050565b600060208201905061130260008301846110ec565b92915050565b6000604051905081810181811067ffffffffffffffff8211171561132f5761132e6116bc565b5b8060405250919050565b600067ffffffffffffffff821115611354576113536116bc565b5b602082029050602081019050919050565b600067ffffffffffffffff8211156113805761137f6116bc565b5b602082029050602081019050919050565b600067ffffffffffffffff8211156113ac576113ab6116bc565b5b601f19601f8301169050602081019050919050565b6000819050602082019050919050565b6000819050602082019050919050565b600081519050919050565b600081519050919050565b600081519050919050565b6000602082019050919050565b6000602082019050919050565b600082825260208201905092915050565b600082825260208201905092915050565b600082825260208201905092915050565b600082825260208201905092915050565b600061146b82611548565b915061147683611548565b9250827fffffffffffffffffffffffffffffffffffffffffffffffffffffffffffffffff038211156114ab576114aa61165e565b5b828201905092915050565b60006114c182611548565b91506114cc83611548565b9250828210156114df576114de61165e565b5b828203905092915050565b60006114f582611528565b9050919050565b60008115159050919050565b6000611513826114ea565b9050919050565b600061ffff82169050919050565b600073ffffffffffffffffffffffffffffffffffffffff82169050919050565b6000819050919050565b60005b83811015611570578082015181840152602081019050611555565b8381111561157f576000848401525b50505050565b600061159082611548565b915060008214156115a4576115a361165e565b5b600182039050919050565b60006115ba8261151a565b915061ffff8214156115cf576115ce61165e565b5b600182019050919050565b60006115e582611548565b91507fffffffffffffffffffffffffffffffffffffffffffffffffffffffffffffffff8214156116185761161761165e565b5b600182019050919050565b6000819050919050565b600061163882611548565b915061164383611548565b9250826116535761165261168d565b5b828206905092915050565b7f4e487b7100000000000000000000000000000000000000000000000000000000600052601160045260246000fd5b7f4e487b7100000000000000000000000000000000000000000000000000000000600052601260045260246000fd5b7f4e487b7100000000000000000000000000000000000000000000000000000000600052604160045260246000fd5b6000601f19601f8301169050919050565b611705816114ea565b811461171057600080fd5b50565b61171c816114fc565b811461172757600080fd5b50565b61173381611508565b811461173e57600080fd5b50565b61174a8161151a565b811461175557600080fd5b50565b61176181611548565b811461176c57600080fd5b5056fea26469706673582212202f75cfd9642cff7aa672a94fe65675a26a5fcb15a8da9ef44bbd59735dca63ca64736f6c63430008000033",
  "immutableReferences": {},
  "source": "// SPDX-License-Identifier: MIT\r\n\r\npragma solidity 0.8.0;\r\n\r\nimport \"@openzeppelin/contracts/token/ERC721/IERC721.sol\";\r\nimport \"../interfaces/GotTokenInterface.sol\";\r\nimport \"../interfaces/OGColorInterface.sol\";\r\n\r\nlibrary Customizer {\r\n    \r\n    function safeOwnerOf(IERC721 callingContract, uint256 tokenId) public view returns (address) {\r\n        \r\n        address ownerOfToken = address(0);\r\n                \r\n        try callingContract.ownerOf(tokenId) returns (address a) {\r\n            ownerOfToken = a;\r\n        }\r\n        catch { }\r\n\r\n        return ownerOfToken;\r\n    }\r\n\r\n    function getColors(IERC721 callingContract, address ogColorContractAddress, uint256 tokenId) external view returns (string memory backColor, string memory frameColor, string memory digitColor, string memory slugColor) {\r\n\r\n        address ownerOfToken = safeOwnerOf(callingContract, tokenId);\r\n        if (ownerOfToken != address(0)) {\r\n            if (ogColorContractAddress != address(0)) {\r\n                OGColorInterface ogColorContract = OGColorInterface(ogColorContractAddress);\r\n                try ogColorContract.getColors(ownerOfToken, tokenId) returns (string memory extBackColor, string memory extFrameColor, string memory extDigitColor, string memory extSlugColor) {\r\n                    return (extBackColor, extFrameColor, extDigitColor, extSlugColor);\r\n                }\r\n                catch { }\r\n            }\r\n        }\r\n        \r\n        return (\"#FFFFFF\", \"#000000\", \"#000000\", \"#FFFFFF\");\r\n    }\r\n    \r\n    function getOwnedSupportedCollection(IERC721 callingContract, address gotTokenContractAddress, address[] memory supportedCollections, uint256 tokenId) external view returns (address) {\r\n        \r\n        if (gotTokenContractAddress == address(0))\r\n            return address(0);\r\n        \r\n        address ownerOfToken = safeOwnerOf(callingContract, tokenId);\r\n        if (ownerOfToken == address(0))\r\n            return address(0);\r\n    \r\n        bool[] memory ownsTokens;\r\n        \r\n        GotTokenInterface gotTokenContract = GotTokenInterface(gotTokenContractAddress);        \r\n        try gotTokenContract.ownsTokenOfContracts(ownerOfToken, supportedCollections, tokenId) returns (bool[] memory returnValue) {\r\n            ownsTokens = returnValue;\r\n        }\r\n        catch { return address(0); }\r\n\r\n        // find the first contract which is owned\r\n        for (uint256 i = 0; i < ownsTokens.length; i++) {\r\n            if (ownsTokens[i])\r\n                return supportedCollections[i];\r\n        }\r\n\r\n        return address(0);\r\n    }\r\n\r\n    function suggestFreeIds(IERC721 callingContract, uint16 desiredCount, uint256 minValue, uint256 maxValue, uint256 seed) public view returns (uint256[] memory) {\r\n        require(desiredCount > 0 && desiredCount < 11, \"Desired count too low or too large\");\r\n        require(minValue >= 0, \"Min value too low or too large\");\r\n        require(maxValue > 0 && maxValue > minValue, \"Max value too low or too large\");\r\n\r\n        uint256[] memory freeIds = new uint256[](desiredCount);\r\n        uint16 approach = 0;\r\n        uint16 count = 0;\r\n        \r\n        // try to find some random free ids\r\n        for (uint16 i = 0; i < desiredCount; i++) {\r\n\r\n            uint256 rnd = random(approach++ + seed, maxValue);\r\n            if (rnd >= minValue && safeOwnerOf(callingContract, rnd) == address(0)) {\r\n                freeIds[count++] = rnd;\r\n                if (count >= desiredCount) {\r\n                    return freeIds;\r\n                }\r\n            }\r\n\r\n            // if we have a lot of minted tokens, it might get hard to find random numbers, so stop\r\n            if (approach > 100)\r\n                break;\r\n        }\r\n\r\n        // we tried so hard and got so far - but we did not find random free ids, so take free ones sequentially\r\n        count = 0;\r\n        // https://ethereum.stackexchange.com/questions/63653/why-i-cannot-loop-through-array-backwards-in-solidity/63654\r\n        for (uint256 id = maxValue; id > minValue; id--) {\r\n            if (safeOwnerOf(callingContract, id) == address(0)) {\r\n                freeIds[count] = id - 1;\r\n                count++;\r\n                if (count >= desiredCount) {\r\n                    break;\r\n                }\r\n            }\r\n        }\r\n\r\n        return freeIds;\r\n    }\r\n\r\n    /**\r\n    * @dev I am aware that these are only pseudo random numbers and that they can be predicted.\r\n    * However, exploiting this method won't get an attacker much benefit as these random numbers\r\n    * are just used to suggest some free token ids to mint.\r\n    * Anyone can choose his favorite ids while minting.\r\n    */\r\n    function random(uint256 seed, uint256 maxValue) public view returns (uint256) {\r\n        return uint256(keccak256(abi.encodePacked(block.difficulty, block.timestamp, seed))) % maxValue;      \r\n    }\r\n}\r\n",
  "sourcePath": "D:\\Develop\\GitHub\\OG+\\src\\contracts\\libs\\Customizer.sol",
  "compiler": {
    "name": "solc",
    "version": "0.8.0+commit.c7dfd78e.Emscripten.clang"
  },
  "schemaVersion": "3.4.3",
  "updatedAt": "2022-01-03T18:10:29.260Z",
  "networkType": "ethereum",
  "devdoc": {
    "kind": "dev",
    "methods": {
      "random(uint256,uint256)": {
        "details": "I am aware that these are only pseudo random numbers and that they can be predicted. However, exploiting this method won't get an attacker much benefit as these random numbers are just used to suggest some free token ids to mint. Anyone can choose his favorite ids while minting."
      }
    },
    "version": 1
  },
  "userdoc": {
    "kind": "user",
    "methods": {},
    "version": 1
  }
}