{
  "contractName": "Customizer",
  "abi": [
    {
      "inputs": [
        {
          "internalType": "contract IERC721",
          "name": "callingContract",
          "type": "IERC721"
        },
        {
          "internalType": "uint256",
          "name": "tokenId",
          "type": "uint256"
        }
      ],
      "name": "safeOwnerOf",
      "outputs": [
        {
          "internalType": "address",
          "name": "",
          "type": "address"
        }
      ],
      "stateMutability": "view",
      "type": "function"
    },
    {
      "inputs": [
        {
          "internalType": "contract IERC721",
          "name": "callingContract",
          "type": "IERC721"
        },
        {
          "internalType": "address",
          "name": "ogColorContractAddress",
          "type": "address"
        },
        {
          "internalType": "uint256",
          "name": "tokenId",
          "type": "uint256"
        }
      ],
      "name": "getColors",
      "outputs": [
        {
          "internalType": "string",
          "name": "backColor",
          "type": "string"
        },
        {
          "internalType": "string",
          "name": "frameColor",
          "type": "string"
        },
        {
          "internalType": "string",
          "name": "digitColor",
          "type": "string"
        },
        {
          "internalType": "string",
          "name": "slugColor",
          "type": "string"
        }
      ],
      "stateMutability": "view",
      "type": "function"
    },
    {
      "inputs": [
        {
          "internalType": "contract IERC721",
          "name": "callingContract",
          "type": "IERC721"
        },
        {
          "internalType": "address",
          "name": "gotTokenContractAddress",
          "type": "address"
        },
        {
          "internalType": "address[]",
          "name": "supportedCollections",
          "type": "address[]"
        },
        {
          "internalType": "uint256",
          "name": "tokenId",
          "type": "uint256"
        }
      ],
      "name": "getOwnedSupportedCollection",
      "outputs": [
        {
          "internalType": "address",
          "name": "",
          "type": "address"
        }
      ],
      "stateMutability": "view",
      "type": "function"
    }
  ],
  "bytecode": "0x610f57610053600b82828239805160001a607314610046577f4e487b7100000000000000000000000000000000000000000000000000000000600052600060045260246000fd5b30600052607381538281f3fe730000000000000000000000000000000000000000301460806040526004361061004b5760003560e01c80633f962c8a146100505780637308eca414610080578063bda93c9a146100b0575b600080fd5b61006a600480360381019061006591906108f3565b6100e3565b6040516100779190610b43565b60405180910390f35b61009a60048036038101906100959190610829565b610184565b6040516100a79190610b43565b60405180910390f35b6100ca60048036038101906100c591906108a4565b6103aa565b6040516100da9493929190610bc5565b60405180910390f35b600080600090508373ffffffffffffffffffffffffffffffffffffffff16636352211e846040518263ffffffff1660e01b81526004016101239190610c46565b60206040518083038186803b15801561013b57600080fd5b505afa92505050801561016c57506040513d601f19601f8201168201806040525081019061016991906107bf565b60015b6101755761017a565b809150505b8091505092915050565b60008073ffffffffffffffffffffffffffffffffffffffff168473ffffffffffffffffffffffffffffffffffffffff1614156101f5576040517f08c379a00000000000000000000000000000000000000000000000000000000081526004016101ec90610c26565b60405180910390fd5b600061020186846100e3565b9050600073ffffffffffffffffffffffffffffffffffffffff168173ffffffffffffffffffffffffffffffffffffffff1614156102425760009150506103a2565b606060008690508073ffffffffffffffffffffffffffffffffffffffff1663d00e7bbe8488886040518463ffffffff1660e01b815260040161028693929190610b5e565b60006040518083038186803b15801561029e57600080fd5b505afa9250505080156102d457506040513d6000823e3d601f19601f820116820180604052508101906102d191906107e8565b60015b6102e457600093505050506103a2565b8092505060005b82518110156103995782818151811061032d577f4e487b7100000000000000000000000000000000000000000000000000000000600052603260045260246000fd5b60200260200101511561038657868181518110610373577f4e487b7100000000000000000000000000000000000000000000000000000000600052603260045260246000fd5b60200260200101519450505050506103a2565b808061039190610e0d565b9150506102eb565b50600093505050505b949350505050565b60608060608060006103bc88876100e3565b9050600073ffffffffffffffffffffffffffffffffffffffff168173ffffffffffffffffffffffffffffffffffffffff16146104d757600073ffffffffffffffffffffffffffffffffffffffff168773ffffffffffffffffffffffffffffffffffffffff16146104d65760008790508073ffffffffffffffffffffffffffffffffffffffff1663116e85bf83896040518363ffffffff1660e01b8152600401610466929190610b9c565b60006040518083038186803b15801561047e57600080fd5b505afa9250505080156104b457506040513d6000823e3d601f19601f820116820180604052508101906104b1919061092f565b60015b6104bd576104d4565b8383838399509950995099505050505050506105b9565b505b5b6040518060400160405280600781526020017f23464646464646000000000000000000000000000000000000000000000000008152506040518060400160405280600781526020017f23303030303030000000000000000000000000000000000000000000000000008152506040518060400160405280600781526020017f23303030303030000000000000000000000000000000000000000000000000008152506040518060400160405280600781526020017f23464646464646000000000000000000000000000000000000000000000000008152509450945094509450505b93509350935093565b60006105d56105d084610c92565b610c61565b905080838252602082019050828560208602820111156105f457600080fd5b60005b85811015610624578161060a88826106d8565b8452602084019350602083019250506001810190506105f7565b5050509392505050565b600061064161063c84610cbe565b610c61565b9050808382526020820190508285602086028201111561066057600080fd5b60005b8581101561069057816106768882610756565b845260208401935060208301925050600181019050610663565b5050509392505050565b60006106ad6106a884610cea565b610c61565b9050828152602081018484840111156106c557600080fd5b6106d0848285610dda565b509392505050565b6000813590506106e781610ec5565b92915050565b6000815190506106fc81610ec5565b92915050565b600082601f83011261071357600080fd5b81356107238482602086016105c2565b91505092915050565b600082601f83011261073d57600080fd5b815161074d84826020860161062e565b91505092915050565b60008151905061076581610edc565b92915050565b60008135905061077a81610ef3565b92915050565b600082601f83011261079157600080fd5b81516107a184826020860161069a565b91505092915050565b6000813590506107b981610f0a565b92915050565b6000602082840312156107d157600080fd5b60006107df848285016106ed565b91505092915050565b6000602082840312156107fa57600080fd5b600082015167ffffffffffffffff81111561081457600080fd5b6108208482850161072c565b91505092915050565b6000806000806080858703121561083f57600080fd5b600061084d8782880161076b565b945050602061085e878288016106d8565b935050604085013567ffffffffffffffff81111561087b57600080fd5b61088787828801610702565b9250506060610898878288016107aa565b91505092959194509250565b6000806000606084860312156108b957600080fd5b60006108c78682870161076b565b93505060206108d8868287016106d8565b92505060406108e9868287016107aa565b9150509250925092565b6000806040838503121561090657600080fd5b60006109148582860161076b565b9250506020610925858286016107aa565b9150509250929050565b6000806000806080858703121561094557600080fd5b600085015167ffffffffffffffff81111561095f57600080fd5b61096b87828801610780565b945050602085015167ffffffffffffffff81111561098857600080fd5b61099487828801610780565b935050604085015167ffffffffffffffff8111156109b157600080fd5b6109bd87828801610780565b925050606085015167ffffffffffffffff8111156109da57600080fd5b6109e687828801610780565b91505092959194509250565b60006109fe8383610a0a565b60208301905092915050565b610a1381610d80565b82525050565b610a2281610d80565b82525050565b610a3181610d80565b82525050565b6000610a4282610d2a565b610a4c8185610d4d565b9350610a5783610d1a565b8060005b83811015610a88578151610a6f88826109f2565b9750610a7a83610d40565b925050600181019050610a5b565b5085935050505092915050565b6000610aa082610d35565b610aaa8185610d6f565b9350610aba818560208601610dda565b610ac381610eb4565b840191505092915050565b6000610adb602183610d5e565b91507f476f74546f6b656e20636f6e74726163742061646472657373206e6f7420736560008301527f74000000000000000000000000000000000000000000000000000000000000006020830152604082019050919050565b610b3d81610dd0565b82525050565b6000602082019050610b586000830184610a28565b92915050565b6000606082019050610b736000830186610a19565b8181036020830152610b858185610a37565b9050610b946040830184610b34565b949350505050565b6000604082019050610bb16000830185610a19565b610bbe6020830184610b34565b9392505050565b60006080820190508181036000830152610bdf8187610a95565b90508181036020830152610bf38186610a95565b90508181036040830152610c078185610a95565b90508181036060830152610c1b8184610a95565b905095945050505050565b60006020820190508181036000830152610c3f81610ace565b9050919050565b6000602082019050610c5b6000830184610b34565b92915050565b6000604051905081810181811067ffffffffffffffff82111715610c8857610c87610e85565b5b8060405250919050565b600067ffffffffffffffff821115610cad57610cac610e85565b5b602082029050602081019050919050565b600067ffffffffffffffff821115610cd957610cd8610e85565b5b602082029050602081019050919050565b600067ffffffffffffffff821115610d0557610d04610e85565b5b601f19601f8301169050602081019050919050565b6000819050602082019050919050565b600081519050919050565b600081519050919050565b6000602082019050919050565b600082825260208201905092915050565b600082825260208201905092915050565b600082825260208201905092915050565b6000610d8b82610db0565b9050919050565b60008115159050919050565b6000610da982610d80565b9050919050565b600073ffffffffffffffffffffffffffffffffffffffff82169050919050565b6000819050919050565b60005b83811015610df8578082015181840152602081019050610ddd565b83811115610e07576000848401525b50505050565b6000610e1882610dd0565b91507fffffffffffffffffffffffffffffffffffffffffffffffffffffffffffffffff821415610e4b57610e4a610e56565b5b600182019050919050565b7f4e487b7100000000000000000000000000000000000000000000000000000000600052601160045260246000fd5b7f4e487b7100000000000000000000000000000000000000000000000000000000600052604160045260246000fd5b6000601f19601f8301169050919050565b610ece81610d80565b8114610ed957600080fd5b50565b610ee581610d92565b8114610ef057600080fd5b50565b610efc81610d9e565b8114610f0757600080fd5b50565b610f1381610dd0565b8114610f1e57600080fd5b5056fea2646970667358221220b3e3ef14969c4a8ea74172fcba6af9021598303a32a20f30ea88abbe0c29cee264736f6c63430008000033",
  "immutableReferences": {},
  "source": "// SPDX-License-Identifier: MIT\r\n\r\npragma solidity 0.8.0;\r\n\r\nimport \"@openzeppelin/contracts/token/ERC721/IERC721.sol\";\r\nimport \"../interfaces/GotTokenInterface.sol\";\r\nimport \"../interfaces/OGColorInterface.sol\";\r\n\r\nlibrary Customizer {\r\n    \r\n    function safeOwnerOf(IERC721 callingContract, uint256 tokenId) public view returns (address) {\r\n        \r\n        address ownerOfToken = address(0);\r\n                \r\n        try callingContract.ownerOf(tokenId) returns (address a) {\r\n            ownerOfToken = a;\r\n        }\r\n        catch { }\r\n\r\n        return ownerOfToken;\r\n    }\r\n\r\n    function getColors(IERC721 callingContract, address ogColorContractAddress, uint256 tokenId) external view returns (string memory backColor, string memory frameColor, string memory digitColor, string memory slugColor) {\r\n\r\n        address ownerOfToken = safeOwnerOf(callingContract, tokenId);\r\n        if (ownerOfToken != address(0)) {\r\n            if (ogColorContractAddress != address(0)) {\r\n                OGColorInterface ogColorContract = OGColorInterface(ogColorContractAddress);\r\n                try ogColorContract.getColors(ownerOfToken, tokenId) returns (string memory extBackColor, string memory extFrameColor, string memory extDigitColor, string memory extSlugColor) {\r\n                    return (extBackColor, extFrameColor, extDigitColor, extSlugColor);\r\n                }\r\n                catch { }\r\n            }\r\n        }\r\n        \r\n        return (\"#FFFFFF\", \"#000000\", \"#000000\", \"#FFFFFF\");\r\n    }\r\n    \r\n    function getOwnedSupportedCollection(IERC721 callingContract, address gotTokenContractAddress, address[] memory supportedCollections, uint256 tokenId) external view returns (address) {\r\n        require(gotTokenContractAddress != address(0), \"GotToken contract address not set\");\r\n        \r\n        address ownerOfToken = safeOwnerOf(callingContract, tokenId);\r\n        if (ownerOfToken == address(0))\r\n            return address(0);\r\n    \r\n        bool[] memory ownsTokens;\r\n        \r\n        GotTokenInterface gotTokenContract = GotTokenInterface(gotTokenContractAddress);        \r\n        try gotTokenContract.ownsTokenOfContracts(ownerOfToken, supportedCollections, tokenId) returns (bool[] memory returnValue) {\r\n            ownsTokens = returnValue;\r\n        }\r\n        catch { return address(0); }\r\n\r\n        // find the first contract which is owned\r\n        for (uint256 i = 0; i < ownsTokens.length; i++) {\r\n            if (ownsTokens[i])\r\n                return supportedCollections[i];\r\n        }\r\n\r\n        return address(0);\r\n    }\r\n}\r\n",
  "sourcePath": "D:\\Develop\\GitHub\\OG+\\src\\contracts\\libs\\Customizer.sol",
  "compiler": {
    "name": "solc",
    "version": "0.8.0+commit.c7dfd78e.Emscripten.clang"
  },
  "schemaVersion": "3.4.3",
  "updatedAt": "2021-12-20T20:14:07.758Z",
  "devdoc": {
    "kind": "dev",
    "methods": {},
    "version": 1
  },
  "userdoc": {
    "kind": "user",
    "methods": {},
    "version": 1
  }
}