{
  "contractName": "Customizer",
  "abi": [
    {
      "inputs": [
        {
          "internalType": "contract IERC721",
          "name": "callingContract",
          "type": "IERC721"
        },
        {
          "internalType": "uint256",
          "name": "tokenId",
          "type": "uint256"
        }
      ],
      "name": "safeOwnerOf",
      "outputs": [
        {
          "internalType": "address",
          "name": "",
          "type": "address"
        }
      ],
      "stateMutability": "view",
      "type": "function",
      "constant": true
    },
    {
      "inputs": [
        {
          "internalType": "contract IERC721",
          "name": "callingContract",
          "type": "IERC721"
        },
        {
          "internalType": "address",
          "name": "ogColorContractAddress",
          "type": "address"
        },
        {
          "internalType": "uint256",
          "name": "tokenId",
          "type": "uint256"
        }
      ],
      "name": "getColors",
      "outputs": [
        {
          "internalType": "string",
          "name": "back",
          "type": "string"
        },
        {
          "internalType": "string",
          "name": "frame",
          "type": "string"
        },
        {
          "internalType": "string",
          "name": "digit",
          "type": "string"
        },
        {
          "internalType": "string",
          "name": "slug",
          "type": "string"
        }
      ],
      "stateMutability": "view",
      "type": "function",
      "constant": true
    },
    {
      "inputs": [
        {
          "internalType": "contract IERC721",
          "name": "callingContract",
          "type": "IERC721"
        },
        {
          "internalType": "address",
          "name": "ogColorContractAddress",
          "type": "address"
        },
        {
          "internalType": "uint256",
          "name": "tokenId",
          "type": "uint256"
        }
      ],
      "name": "getColorAttributes",
      "outputs": [
        {
          "internalType": "string",
          "name": "",
          "type": "string"
        }
      ],
      "stateMutability": "view",
      "type": "function",
      "constant": true
    },
    {
      "inputs": [
        {
          "internalType": "contract IERC721",
          "name": "callingContract",
          "type": "IERC721"
        },
        {
          "internalType": "address",
          "name": "gotTokenContractAddress",
          "type": "address"
        },
        {
          "internalType": "address[]",
          "name": "supportedCollections",
          "type": "address[]"
        },
        {
          "internalType": "uint256",
          "name": "tokenId",
          "type": "uint256"
        }
      ],
      "name": "getOwnedSupportedCollection",
      "outputs": [
        {
          "internalType": "address",
          "name": "",
          "type": "address"
        }
      ],
      "stateMutability": "view",
      "type": "function",
      "constant": true
    },
    {
      "inputs": [
        {
          "internalType": "contract IERC721",
          "name": "callingContract",
          "type": "IERC721"
        },
        {
          "internalType": "uint16",
          "name": "desiredCount",
          "type": "uint16"
        },
        {
          "internalType": "uint256",
          "name": "minValue",
          "type": "uint256"
        },
        {
          "internalType": "uint256",
          "name": "maxValue",
          "type": "uint256"
        },
        {
          "internalType": "uint256",
          "name": "seed",
          "type": "uint256"
        }
      ],
      "name": "suggestFreeIds",
      "outputs": [
        {
          "internalType": "uint256[]",
          "name": "",
          "type": "uint256[]"
        }
      ],
      "stateMutability": "view",
      "type": "function",
      "constant": true
    },
    {
      "inputs": [
        {
          "internalType": "uint256",
          "name": "seed",
          "type": "uint256"
        },
        {
          "internalType": "uint256",
          "name": "maxValue",
          "type": "uint256"
        }
      ],
      "name": "random",
      "outputs": [
        {
          "internalType": "uint256",
          "name": "",
          "type": "uint256"
        }
      ],
      "stateMutability": "view",
      "type": "function",
      "constant": true
    }
  ],
  "bytecode": "0x611a25610053600b82828239805160001a607314610046577f4e487b7100000000000000000000000000000000000000000000000000000000600052600060045260246000fd5b30600052607381538281f3fe730000000000000000000000000000000000000000301460806040526004361061006c5760003560e01c80633f962c8a146100715780637308eca4146100a15780637af8c19b146100d1578063a9dd122514610101578063bda93c9a14610131578063eac15a4b14610164575b600080fd5b61008b60048036038101906100869190610e78565b610194565b60405161009891906112ad565b60405180910390f35b6100bb60048036038101906100b69190610d37565b610235565b6040516100c891906112ad565b60405180910390f35b6100eb60048036038101906100e69190610e01565b610429565b6040516100f8919061132f565b60405180910390f35b61011b60048036038101906101169190610fb8565b61079c565b6040516101289190611434565b60405180910390f35b61014b60048036038101906101469190610db2565b6107df565b60405161015b9493929190611373565b60405180910390f35b61017e60048036038101906101799190610db2565b610983565b60405161018b9190611351565b60405180910390f35b600080600090508373ffffffffffffffffffffffffffffffffffffffff16636352211e846040518263ffffffff1660e01b81526004016101d4919061144f565b60206040518083038186803b1580156101ec57600080fd5b505afa92505050801561021d57506040513d601f19601f8201168201806040525081019061021a9190610ccd565b60015b6102265761022b565b809150505b8091505092915050565b60008073ffffffffffffffffffffffffffffffffffffffff168473ffffffffffffffffffffffffffffffffffffffff1614156102745760009050610421565b60006102808684610194565b9050600073ffffffffffffffffffffffffffffffffffffffff168173ffffffffffffffffffffffffffffffffffffffff1614156102c1576000915050610421565b606060008690508073ffffffffffffffffffffffffffffffffffffffff1663d00e7bbe8488886040518463ffffffff1660e01b8152600401610305939291906112c8565b60006040518083038186803b15801561031d57600080fd5b505afa92505050801561035357506040513d6000823e3d601f19601f820116820180604052508101906103509190610cf6565b60015b6103635760009350505050610421565b8092505060005b8251811015610418578281815181106103ac577f4e487b7100000000000000000000000000000000000000000000000000000000600052603260045260246000fd5b602002602001015115610405578681815181106103f2577f4e487b7100000000000000000000000000000000000000000000000000000000600052603260045260246000fd5b6020026020010151945050505050610421565b80806104109061173c565b91505061036a565b50600093505050505b949350505050565b606060008561ffff161180156104435750600b8561ffff16105b610482576040517f08c379a000000000000000000000000000000000000000000000000000000000815260040161047990611414565b60405180910390fd5b60008410156104c6576040517f08c379a00000000000000000000000000000000000000000000000000000000081526004016104bd906113d4565b60405180910390fd5b6000831180156104d557508383115b610514576040517f08c379a000000000000000000000000000000000000000000000000000000000815260040161050b906113f4565b60405180910390fd5b60008561ffff1667ffffffffffffffff81111561055a577f4e487b7100000000000000000000000000000000000000000000000000000000600052604160045260246000fd5b6040519080825280602002602001820160405280156105885781602001602082028036833780820191505090505b50905060008060005b8861ffff168161ffff1610156106ae5760006105c88785806105b290611711565b965061ffff166105c291906115c2565b8961079c565b905088811015801561060f5750600073ffffffffffffffffffffffffffffffffffffffff166105f78c83610194565b73ffffffffffffffffffffffffffffffffffffffff16145b15610687578085848061062190611711565b955061ffff168151811061065e577f4e487b7100000000000000000000000000000000000000000000000000000000600052603260045260246000fd5b6020026020010181815250508961ffff168361ffff1610610686578495505050505050610793565b5b60648461ffff16111561069a57506106ae565b5080806106a690611711565b915050610591565b506000905060008690505b8781111561078b57600073ffffffffffffffffffffffffffffffffffffffff166106e38b83610194565b73ffffffffffffffffffffffffffffffffffffffff1614156107785760018161070c9190611618565b848361ffff1681518110610749577f4e487b7100000000000000000000000000000000000000000000000000000000600052603260045260246000fd5b602002602001018181525050818061076090611711565b9250508861ffff168261ffff16106107775761078b565b5b8080610783906116e7565b9150506106b9565b508293505050505b95945050505050565b6000814442856040516020016107b493929190611270565b6040516020818303038152906040528051906020012060001c6107d7919061178f565b905092915050565b60608060608060006107f18887610194565b9050600073ffffffffffffffffffffffffffffffffffffffff168173ffffffffffffffffffffffffffffffffffffffff161461090c57600073ffffffffffffffffffffffffffffffffffffffff168773ffffffffffffffffffffffffffffffffffffffff161461090b5760008790508073ffffffffffffffffffffffffffffffffffffffff1663116e85bf83896040518363ffffffff1660e01b815260040161089b929190611306565b60006040518083038186803b1580156108b357600080fd5b505afa9250505080156108e957506040513d6000823e3d601f19601f820116820180604052508101906108e69190610ef5565b60015b6108f257610909565b83838383995099509950995050505050505061097a565b505b5b60405180608001604052806047815260200161191960479139604051806080016040528060488152602001611960604891396040518060800160405280604881526020016119a8604891396040518060800160405280604781526020016118d2604791399450945094509450505b93509350935093565b606060006109918584610194565b9050600073ffffffffffffffffffffffffffffffffffffffff168173ffffffffffffffffffffffffffffffffffffffff1614610aa057600073ffffffffffffffffffffffffffffffffffffffff168473ffffffffffffffffffffffffffffffffffffffff1614610a9f5760008490508073ffffffffffffffffffffffffffffffffffffffff16639f55f8d183866040518363ffffffff1660e01b8152600401610a3b929190611306565b60006040518083038186803b158015610a5357600080fd5b505afa925050508015610a8957506040513d6000823e3d601f19601f82011682018060405250810190610a869190610eb4565b60015b610a9257610a9d565b809350505050610ab4565b505b5b604051806020016040528060008152509150505b9392505050565b6000610ace610ac98461149b565b61146a565b90508083825260208201905082856020860282011115610aed57600080fd5b60005b85811015610b1d5781610b038882610bd1565b845260208401935060208301925050600181019050610af0565b5050509392505050565b6000610b3a610b35846114c7565b61146a565b90508083825260208201905082856020860282011115610b5957600080fd5b60005b85811015610b895781610b6f8882610c4f565b845260208401935060208301925050600181019050610b5c565b5050509392505050565b6000610ba6610ba1846114f3565b61146a565b905082815260208101848484011115610bbe57600080fd5b610bc98482856116b4565b509392505050565b600081359050610be08161185e565b92915050565b600081519050610bf58161185e565b92915050565b600082601f830112610c0c57600080fd5b8135610c1c848260208601610abb565b91505092915050565b600082601f830112610c3657600080fd5b8151610c46848260208601610b27565b91505092915050565b600081519050610c5e81611875565b92915050565b600081359050610c738161188c565b92915050565b600082601f830112610c8a57600080fd5b8151610c9a848260208601610b93565b91505092915050565b600081359050610cb2816118a3565b92915050565b600081359050610cc7816118ba565b92915050565b600060208284031215610cdf57600080fd5b6000610ced84828501610be6565b91505092915050565b600060208284031215610d0857600080fd5b600082015167ffffffffffffffff811115610d2257600080fd5b610d2e84828501610c25565b91505092915050565b60008060008060808587031215610d4d57600080fd5b6000610d5b87828801610c64565b9450506020610d6c87828801610bd1565b935050604085013567ffffffffffffffff811115610d8957600080fd5b610d9587828801610bfb565b9250506060610da687828801610cb8565b91505092959194509250565b600080600060608486031215610dc757600080fd5b6000610dd586828701610c64565b9350506020610de686828701610bd1565b9250506040610df786828701610cb8565b9150509250925092565b600080600080600060a08688031215610e1957600080fd5b6000610e2788828901610c64565b9550506020610e3888828901610ca3565b9450506040610e4988828901610cb8565b9350506060610e5a88828901610cb8565b9250506080610e6b88828901610cb8565b9150509295509295909350565b60008060408385031215610e8b57600080fd5b6000610e9985828601610c64565b9250506020610eaa85828601610cb8565b9150509250929050565b600060208284031215610ec657600080fd5b600082015167ffffffffffffffff811115610ee057600080fd5b610eec84828501610c79565b91505092915050565b60008060008060808587031215610f0b57600080fd5b600085015167ffffffffffffffff811115610f2557600080fd5b610f3187828801610c79565b945050602085015167ffffffffffffffff811115610f4e57600080fd5b610f5a87828801610c79565b935050604085015167ffffffffffffffff811115610f7757600080fd5b610f8387828801610c79565b925050606085015167ffffffffffffffff811115610fa057600080fd5b610fac87828801610c79565b91505092959194509250565b60008060408385031215610fcb57600080fd5b6000610fd985828601610cb8565b9250506020610fea85828601610cb8565b9150509250929050565b60006110008383611024565b60208301905092915050565b6000611018838361124a565b60208301905092915050565b61102d8161164c565b82525050565b61103c8161164c565b82525050565b61104b8161164c565b82525050565b600061105c82611543565b611066818561157e565b935061107183611523565b8060005b838110156110a25781516110898882610ff4565b975061109483611564565b925050600181019050611075565b5085935050505092915050565b60006110ba8261154e565b6110c4818561158f565b93506110cf83611533565b8060005b838110156111005781516110e7888261100c565b97506110f283611571565b9250506001810190506110d3565b5085935050505092915050565b600061111882611559565b61112281856115b1565b93506111328185602086016116b4565b61113b8161184d565b840191505092915050565b6000611153601e836115a0565b91507f4d696e2076616c756520746f6f206c6f77206f7220746f6f206c6172676500006000830152602082019050919050565b6000611193601e836115a0565b91507f4d61782076616c756520746f6f206c6f77206f7220746f6f206c6172676500006000830152602082019050919050565b60006111d36022836115a0565b91507f4465736972656420636f756e7420746f6f206c6f77206f7220746f6f206c617260008301527f67650000000000000000000000000000000000000000000000000000000000006020830152604082019050919050565b611235816116aa565b82525050565b611244816116aa565b82525050565b611253816116aa565b82525050565b61126a611265826116aa565b611785565b82525050565b600061127c8286611259565b60208201915061128c8285611259565b60208201915061129c8284611259565b602082019150819050949350505050565b60006020820190506112c26000830184611042565b92915050565b60006060820190506112dd6000830186611033565b81810360208301526112ef8185611051565b90506112fe604083018461122c565b949350505050565b600060408201905061131b6000830185611033565b611328602083018461122c565b9392505050565b6000602082019050818103600083015261134981846110af565b905092915050565b6000602082019050818103600083015261136b818461110d565b905092915050565b6000608082019050818103600083015261138d818761110d565b905081810360208301526113a1818661110d565b905081810360408301526113b5818561110d565b905081810360608301526113c9818461110d565b905095945050505050565b600060208201905081810360008301526113ed81611146565b9050919050565b6000602082019050818103600083015261140d81611186565b9050919050565b6000602082019050818103600083015261142d816111c6565b9050919050565b6000602082019050611449600083018461123b565b92915050565b6000602082019050611464600083018461122c565b92915050565b6000604051905081810181811067ffffffffffffffff821117156114915761149061181e565b5b8060405250919050565b600067ffffffffffffffff8211156114b6576114b561181e565b5b602082029050602081019050919050565b600067ffffffffffffffff8211156114e2576114e161181e565b5b602082029050602081019050919050565b600067ffffffffffffffff82111561150e5761150d61181e565b5b601f19601f8301169050602081019050919050565b6000819050602082019050919050565b6000819050602082019050919050565b600081519050919050565b600081519050919050565b600081519050919050565b6000602082019050919050565b6000602082019050919050565b600082825260208201905092915050565b600082825260208201905092915050565b600082825260208201905092915050565b600082825260208201905092915050565b60006115cd826116aa565b91506115d8836116aa565b9250827fffffffffffffffffffffffffffffffffffffffffffffffffffffffffffffffff0382111561160d5761160c6117c0565b5b828201905092915050565b6000611623826116aa565b915061162e836116aa565b925082821015611641576116406117c0565b5b828203905092915050565b60006116578261168a565b9050919050565b60008115159050919050565b60006116758261164c565b9050919050565b600061ffff82169050919050565b600073ffffffffffffffffffffffffffffffffffffffff82169050919050565b6000819050919050565b60005b838110156116d25780820151818401526020810190506116b7565b838111156116e1576000848401525b50505050565b60006116f2826116aa565b91506000821415611706576117056117c0565b5b600182039050919050565b600061171c8261167c565b915061ffff821415611731576117306117c0565b5b600182019050919050565b6000611747826116aa565b91507fffffffffffffffffffffffffffffffffffffffffffffffffffffffffffffffff82141561177a576117796117c0565b5b600182019050919050565b6000819050919050565b600061179a826116aa565b91506117a5836116aa565b9250826117b5576117b46117ef565b5b828206905092915050565b7f4e487b7100000000000000000000000000000000000000000000000000000000600052601160045260246000fd5b7f4e487b7100000000000000000000000000000000000000000000000000000000600052601260045260246000fd5b7f4e487b7100000000000000000000000000000000000000000000000000000000600052604160045260246000fd5b6000601f19601f8301169050919050565b6118678161164c565b811461187257600080fd5b50565b61187e8161165e565b811461188957600080fd5b50565b6118958161166a565b81146118a057600080fd5b50565b6118ac8161167c565b81146118b757600080fd5b50565b6118c3816116aa565b81146118ce57600080fd5b5056fe3c6c696e6561724772616469656e742069643d27736c7567273e3c73746f702073746f702d636f6c6f723d2723464646464646272f3e3c2f6c696e6561724772616469656e743e3c6c696e6561724772616469656e742069643d276261636b273e3c73746f702073746f702d636f6c6f723d2723464646464646272f3e3c2f6c696e6561724772616469656e743e3c6c696e6561724772616469656e742069643d276672616d65273e3c73746f702073746f702d636f6c6f723d2723303030303030272f3e3c2f6c696e6561724772616469656e743e3c6c696e6561724772616469656e742069643d276469676974273e3c73746f702073746f702d636f6c6f723d2723303030303030272f3e3c2f6c696e6561724772616469656e743ea26469706673582212206517ae3aadbe55ba49363bbc9288110bb296f73a10e2dfdef6738c07b7f75ea964736f6c63430008000033",
  "immutableReferences": {},
  "source": "// SPDX-License-Identifier: MIT\r\n\r\npragma solidity 0.8.0;\r\n\r\nimport \"@openzeppelin/contracts/token/ERC721/IERC721.sol\";\r\nimport \"../interfaces/GotTokenInterface.sol\";\r\nimport \"../interfaces/OGColorInterface.sol\";\r\n\r\nlibrary Customizer {\r\n    \r\n    function safeOwnerOf(IERC721 callingContract, uint256 tokenId) public view returns (address) {\r\n        \r\n        address ownerOfToken = address(0);\r\n                \r\n        try callingContract.ownerOf(tokenId) returns (address a) {\r\n            ownerOfToken = a;\r\n        }\r\n        catch { }\r\n\r\n        return ownerOfToken;\r\n    }\r\n\r\n    function getColors(IERC721 callingContract, address ogColorContractAddress, uint256 tokenId) external view returns (string memory back, string memory frame, string memory digit, string memory slug) {\r\n\r\n        address ownerOfToken = safeOwnerOf(callingContract, tokenId);\r\n        if (ownerOfToken != address(0)) {\r\n            if (ogColorContractAddress != address(0)) {\r\n                OGColorInterface ogColorContract = OGColorInterface(ogColorContractAddress);\r\n                try ogColorContract.getColors(ownerOfToken, tokenId) returns (string memory extBack, string memory extFrame, string memory extDigit, string memory extSlug) {\r\n                    return (extBack, extFrame, extDigit, extSlug);\r\n                }\r\n                catch { }\r\n            }\r\n        }\r\n        \r\n        return (\"<linearGradient id='back'><stop stop-color='#FFFFFF'/></linearGradient>\",\r\n                \"<linearGradient id='frame'><stop stop-color='#000000'/></linearGradient>\",\r\n                \"<linearGradient id='digit'><stop stop-color='#000000'/></linearGradient>\",\r\n                \"<linearGradient id='slug'><stop stop-color='#FFFFFF'/></linearGradient>\");\r\n    }\r\n\r\n    function getColorAttributes(IERC721 callingContract, address ogColorContractAddress, uint256 tokenId) external view returns (string memory) {\r\n\r\n        address ownerOfToken = safeOwnerOf(callingContract, tokenId);\r\n        if (ownerOfToken != address(0)) {\r\n            if (ogColorContractAddress != address(0)) {\r\n                OGColorInterface ogColorContract = OGColorInterface(ogColorContractAddress);\r\n                try ogColorContract.getOgAttributes(ownerOfToken, tokenId) returns (string memory extAttributes) {\r\n                    return extAttributes;\r\n                }\r\n                catch { }\r\n            }\r\n        }\r\n        \r\n        return \"\";\r\n    }\r\n    \r\n    function getOwnedSupportedCollection(IERC721 callingContract, address gotTokenContractAddress, address[] memory supportedCollections, uint256 tokenId) external view returns (address) {\r\n        \r\n        if (gotTokenContractAddress == address(0))\r\n            return address(0);\r\n        \r\n        address ownerOfToken = safeOwnerOf(callingContract, tokenId);\r\n        if (ownerOfToken == address(0))\r\n            return address(0);\r\n    \r\n        bool[] memory ownsTokens;\r\n        \r\n        GotTokenInterface gotTokenContract = GotTokenInterface(gotTokenContractAddress);        \r\n        try gotTokenContract.ownsTokenOfContracts(ownerOfToken, supportedCollections, tokenId) returns (bool[] memory returnValue) {\r\n            ownsTokens = returnValue;\r\n        }\r\n        catch { return address(0); }\r\n\r\n        // find the first contract which is owned\r\n        for (uint256 i = 0; i < ownsTokens.length; i++) {\r\n            if (ownsTokens[i])\r\n                return supportedCollections[i];\r\n        }\r\n\r\n        return address(0);\r\n    }\r\n\r\n    function suggestFreeIds(IERC721 callingContract, uint16 desiredCount, uint256 minValue, uint256 maxValue, uint256 seed) public view returns (uint256[] memory) {\r\n        require(desiredCount > 0 && desiredCount < 11, \"Desired count too low or too large\");\r\n        require(minValue >= 0, \"Min value too low or too large\");\r\n        require(maxValue > 0 && maxValue > minValue, \"Max value too low or too large\");\r\n\r\n        uint256[] memory freeIds = new uint256[](desiredCount);\r\n        uint16 approach = 0;\r\n        uint16 count = 0;\r\n        \r\n        // try to find some random free ids\r\n        for (uint16 i = 0; i < desiredCount; i++) {\r\n\r\n            uint256 rnd = random(approach++ + seed, maxValue);\r\n            if (rnd >= minValue && safeOwnerOf(callingContract, rnd) == address(0)) {\r\n                freeIds[count++] = rnd;\r\n                if (count >= desiredCount) {\r\n                    return freeIds;\r\n                }\r\n            }\r\n\r\n            // if we have a lot of minted tokens, it might get hard to find random numbers, so stop\r\n            if (approach > 100)\r\n                break;\r\n        }\r\n\r\n        // we tried so hard and got so far - but we did not find random free ids, so take free ones sequentially\r\n        count = 0;\r\n        // https://ethereum.stackexchange.com/questions/63653/why-i-cannot-loop-through-array-backwards-in-solidity/63654\r\n        for (uint256 id = maxValue; id > minValue; id--) {\r\n            if (safeOwnerOf(callingContract, id) == address(0)) {\r\n                freeIds[count] = id - 1;\r\n                count++;\r\n                if (count >= desiredCount) {\r\n                    break;\r\n                }\r\n            }\r\n        }\r\n\r\n        return freeIds;\r\n    }\r\n\r\n    /**\r\n    * @dev I am aware that these are only pseudo random numbers and that they can be predicted.\r\n    * However, exploiting this method won't get an attacker much benefit as these random numbers\r\n    * are just used to suggest some free token ids to mint.\r\n    * Anyone can choose his favorite ids while minting.\r\n    */\r\n    function random(uint256 seed, uint256 maxValue) public view returns (uint256) {\r\n        return uint256(keccak256(abi.encodePacked(block.difficulty, block.timestamp, seed))) % maxValue;      \r\n    }\r\n}\r\n",
  "sourcePath": "D:\\Develop\\GitHub\\OG+\\src\\contracts\\libs\\Customizer.sol",
  "compiler": {
    "name": "solc",
    "version": "0.8.0+commit.c7dfd78e.Emscripten.clang"
  },
  "schemaVersion": "3.4.3",
  "updatedAt": "2022-01-09T22:43:04.286Z",
  "networkType": "ethereum",
  "devdoc": {
    "kind": "dev",
    "methods": {
      "random(uint256,uint256)": {
        "details": "I am aware that these are only pseudo random numbers and that they can be predicted. However, exploiting this method won't get an attacker much benefit as these random numbers are just used to suggest some free token ids to mint. Anyone can choose his favorite ids while minting."
      }
    },
    "version": 1
  },
  "userdoc": {
    "kind": "user",
    "methods": {},
    "version": 1
  }
}