{
  "contractName": "Customizer",
  "abi": [
    {
      "inputs": [
        {
          "internalType": "contract IERC721",
          "name": "callingContract",
          "type": "IERC721"
        },
        {
          "internalType": "uint256",
          "name": "tokenId",
          "type": "uint256"
        }
      ],
      "name": "safeOwnerOf",
      "outputs": [
        {
          "internalType": "address",
          "name": "",
          "type": "address"
        }
      ],
      "stateMutability": "view",
      "type": "function",
      "constant": true
    },
    {
      "inputs": [
        {
          "internalType": "contract IERC721",
          "name": "callingContract",
          "type": "IERC721"
        },
        {
          "internalType": "address",
          "name": "ogColorContractAddress",
          "type": "address"
        },
        {
          "internalType": "uint256",
          "name": "tokenId",
          "type": "uint256"
        }
      ],
      "name": "getColors",
      "outputs": [
        {
          "internalType": "string",
          "name": "backColor",
          "type": "string"
        },
        {
          "internalType": "string",
          "name": "frameColor",
          "type": "string"
        },
        {
          "internalType": "string",
          "name": "digitColor",
          "type": "string"
        },
        {
          "internalType": "string",
          "name": "slugColor",
          "type": "string"
        }
      ],
      "stateMutability": "view",
      "type": "function",
      "constant": true
    },
    {
      "inputs": [
        {
          "internalType": "contract IERC721",
          "name": "callingContract",
          "type": "IERC721"
        },
        {
          "internalType": "address",
          "name": "gotTokenContractAddress",
          "type": "address"
        },
        {
          "internalType": "address[]",
          "name": "supportedCollections",
          "type": "address[]"
        },
        {
          "internalType": "uint256",
          "name": "tokenId",
          "type": "uint256"
        }
      ],
      "name": "getOwnedSupportedCollection",
      "outputs": [
        {
          "internalType": "address",
          "name": "",
          "type": "address"
        }
      ],
      "stateMutability": "view",
      "type": "function",
      "constant": true
    }
  ],
  "bytecode": "0x610e8e610053600b82828239805160001a607314610046577f4e487b7100000000000000000000000000000000000000000000000000000000600052600060045260246000fd5b30600052607381538281f3fe730000000000000000000000000000000000000000301460806040526004361061004b5760003560e01c80633f962c8a146100505780637308eca414610080578063bda93c9a146100b0575b600080fd5b61006a600480360381019061006591906108c1565b6100e3565b6040516100779190610aab565b60405180910390f35b61009a600480360381019061009591906107f7565b610184565b6040516100a79190610aab565b60405180910390f35b6100ca60048036038101906100c59190610872565b610378565b6040516100da9493929190610b2d565b60405180910390f35b600080600090508373ffffffffffffffffffffffffffffffffffffffff16636352211e846040518263ffffffff1660e01b81526004016101239190610b8e565b60206040518083038186803b15801561013b57600080fd5b505afa92505050801561016c57506040513d601f19601f82011682018060405250810190610169919061078d565b60015b6101755761017a565b809150505b8091505092915050565b60008073ffffffffffffffffffffffffffffffffffffffff168473ffffffffffffffffffffffffffffffffffffffff1614156101c35760009050610370565b60006101cf86846100e3565b9050600073ffffffffffffffffffffffffffffffffffffffff168173ffffffffffffffffffffffffffffffffffffffff161415610210576000915050610370565b606060008690508073ffffffffffffffffffffffffffffffffffffffff1663d00e7bbe8488886040518463ffffffff1660e01b815260040161025493929190610ac6565b60006040518083038186803b15801561026c57600080fd5b505afa9250505080156102a257506040513d6000823e3d601f19601f8201168201806040525081019061029f91906107b6565b60015b6102b25760009350505050610370565b8092505060005b8251811015610367578281815181106102fb577f4e487b7100000000000000000000000000000000000000000000000000000000600052603260045260246000fd5b60200260200101511561035457868181518110610341577f4e487b7100000000000000000000000000000000000000000000000000000000600052603260045260246000fd5b6020026020010151945050505050610370565b808061035f90610d44565b9150506102b9565b50600093505050505b949350505050565b606080606080600061038a88876100e3565b9050600073ffffffffffffffffffffffffffffffffffffffff168173ffffffffffffffffffffffffffffffffffffffff16146104a557600073ffffffffffffffffffffffffffffffffffffffff168773ffffffffffffffffffffffffffffffffffffffff16146104a45760008790508073ffffffffffffffffffffffffffffffffffffffff1663116e85bf83896040518363ffffffff1660e01b8152600401610434929190610b04565b60006040518083038186803b15801561044c57600080fd5b505afa92505050801561048257506040513d6000823e3d601f19601f8201168201806040525081019061047f91906108fd565b60015b61048b576104a2565b838383839950995099509950505050505050610587565b505b5b6040518060400160405280600781526020017f23464646464646000000000000000000000000000000000000000000000000008152506040518060400160405280600781526020017f23303030303030000000000000000000000000000000000000000000000000008152506040518060400160405280600781526020017f23303030303030000000000000000000000000000000000000000000000000008152506040518060400160405280600781526020017f23464646464646000000000000000000000000000000000000000000000000008152509450945094509450505b93509350935093565b60006105a361059e84610bda565b610ba9565b905080838252602082019050828560208602820111156105c257600080fd5b60005b858110156105f257816105d888826106a6565b8452602084019350602083019250506001810190506105c5565b5050509392505050565b600061060f61060a84610c06565b610ba9565b9050808382526020820190508285602086028201111561062e57600080fd5b60005b8581101561065e57816106448882610724565b845260208401935060208301925050600181019050610631565b5050509392505050565b600061067b61067684610c32565b610ba9565b90508281526020810184848401111561069357600080fd5b61069e848285610d11565b509392505050565b6000813590506106b581610dfc565b92915050565b6000815190506106ca81610dfc565b92915050565b600082601f8301126106e157600080fd5b81356106f1848260208601610590565b91505092915050565b600082601f83011261070b57600080fd5b815161071b8482602086016105fc565b91505092915050565b60008151905061073381610e13565b92915050565b60008135905061074881610e2a565b92915050565b600082601f83011261075f57600080fd5b815161076f848260208601610668565b91505092915050565b60008135905061078781610e41565b92915050565b60006020828403121561079f57600080fd5b60006107ad848285016106bb565b91505092915050565b6000602082840312156107c857600080fd5b600082015167ffffffffffffffff8111156107e257600080fd5b6107ee848285016106fa565b91505092915050565b6000806000806080858703121561080d57600080fd5b600061081b87828801610739565b945050602061082c878288016106a6565b935050604085013567ffffffffffffffff81111561084957600080fd5b610855878288016106d0565b925050606061086687828801610778565b91505092959194509250565b60008060006060848603121561088757600080fd5b600061089586828701610739565b93505060206108a6868287016106a6565b92505060406108b786828701610778565b9150509250925092565b600080604083850312156108d457600080fd5b60006108e285828601610739565b92505060206108f385828601610778565b9150509250929050565b6000806000806080858703121561091357600080fd5b600085015167ffffffffffffffff81111561092d57600080fd5b6109398782880161074e565b945050602085015167ffffffffffffffff81111561095657600080fd5b6109628782880161074e565b935050604085015167ffffffffffffffff81111561097f57600080fd5b61098b8782880161074e565b925050606085015167ffffffffffffffff8111156109a857600080fd5b6109b48782880161074e565b91505092959194509250565b60006109cc83836109d8565b60208301905092915050565b6109e181610cb7565b82525050565b6109f081610cb7565b82525050565b6109ff81610cb7565b82525050565b6000610a1082610c72565b610a1a8185610c95565b9350610a2583610c62565b8060005b83811015610a56578151610a3d88826109c0565b9750610a4883610c88565b925050600181019050610a29565b5085935050505092915050565b6000610a6e82610c7d565b610a788185610ca6565b9350610a88818560208601610d11565b610a9181610deb565b840191505092915050565b610aa581610d07565b82525050565b6000602082019050610ac060008301846109f6565b92915050565b6000606082019050610adb60008301866109e7565b8181036020830152610aed8185610a05565b9050610afc6040830184610a9c565b949350505050565b6000604082019050610b1960008301856109e7565b610b266020830184610a9c565b9392505050565b60006080820190508181036000830152610b478187610a63565b90508181036020830152610b5b8186610a63565b90508181036040830152610b6f8185610a63565b90508181036060830152610b838184610a63565b905095945050505050565b6000602082019050610ba36000830184610a9c565b92915050565b6000604051905081810181811067ffffffffffffffff82111715610bd057610bcf610dbc565b5b8060405250919050565b600067ffffffffffffffff821115610bf557610bf4610dbc565b5b602082029050602081019050919050565b600067ffffffffffffffff821115610c2157610c20610dbc565b5b602082029050602081019050919050565b600067ffffffffffffffff821115610c4d57610c4c610dbc565b5b601f19601f8301169050602081019050919050565b6000819050602082019050919050565b600081519050919050565b600081519050919050565b6000602082019050919050565b600082825260208201905092915050565b600082825260208201905092915050565b6000610cc282610ce7565b9050919050565b60008115159050919050565b6000610ce082610cb7565b9050919050565b600073ffffffffffffffffffffffffffffffffffffffff82169050919050565b6000819050919050565b60005b83811015610d2f578082015181840152602081019050610d14565b83811115610d3e576000848401525b50505050565b6000610d4f82610d07565b91507fffffffffffffffffffffffffffffffffffffffffffffffffffffffffffffffff821415610d8257610d81610d8d565b5b600182019050919050565b7f4e487b7100000000000000000000000000000000000000000000000000000000600052601160045260246000fd5b7f4e487b7100000000000000000000000000000000000000000000000000000000600052604160045260246000fd5b6000601f19601f8301169050919050565b610e0581610cb7565b8114610e1057600080fd5b50565b610e1c81610cc9565b8114610e2757600080fd5b50565b610e3381610cd5565b8114610e3e57600080fd5b50565b610e4a81610d07565b8114610e5557600080fd5b5056fea2646970667358221220263e6b8f581cffb35f29a52bac66a87a1416d39cd54438bce1aaafd3117bcde264736f6c63430008000033",
  "immutableReferences": {},
  "source": "// SPDX-License-Identifier: MIT\r\n\r\npragma solidity 0.8.0;\r\n\r\nimport \"@openzeppelin/contracts/token/ERC721/IERC721.sol\";\r\nimport \"../interfaces/GotTokenInterface.sol\";\r\nimport \"../interfaces/OGColorInterface.sol\";\r\n\r\nlibrary Customizer {\r\n    \r\n    function safeOwnerOf(IERC721 callingContract, uint256 tokenId) public view returns (address) {\r\n        \r\n        address ownerOfToken = address(0);\r\n                \r\n        try callingContract.ownerOf(tokenId) returns (address a) {\r\n            ownerOfToken = a;\r\n        }\r\n        catch { }\r\n\r\n        return ownerOfToken;\r\n    }\r\n\r\n    function getColors(IERC721 callingContract, address ogColorContractAddress, uint256 tokenId) external view returns (string memory backColor, string memory frameColor, string memory digitColor, string memory slugColor) {\r\n\r\n        address ownerOfToken = safeOwnerOf(callingContract, tokenId);\r\n        if (ownerOfToken != address(0)) {\r\n            if (ogColorContractAddress != address(0)) {\r\n                OGColorInterface ogColorContract = OGColorInterface(ogColorContractAddress);\r\n                try ogColorContract.getColors(ownerOfToken, tokenId) returns (string memory extBackColor, string memory extFrameColor, string memory extDigitColor, string memory extSlugColor) {\r\n                    return (extBackColor, extFrameColor, extDigitColor, extSlugColor);\r\n                }\r\n                catch { }\r\n            }\r\n        }\r\n        \r\n        return (\"#FFFFFF\", \"#000000\", \"#000000\", \"#FFFFFF\");\r\n    }\r\n    \r\n    function getOwnedSupportedCollection(IERC721 callingContract, address gotTokenContractAddress, address[] memory supportedCollections, uint256 tokenId) external view returns (address) {\r\n        \r\n        if (gotTokenContractAddress == address(0))\r\n            return address(0);\r\n        \r\n        address ownerOfToken = safeOwnerOf(callingContract, tokenId);\r\n        if (ownerOfToken == address(0))\r\n            return address(0);\r\n    \r\n        bool[] memory ownsTokens;\r\n        \r\n        GotTokenInterface gotTokenContract = GotTokenInterface(gotTokenContractAddress);        \r\n        try gotTokenContract.ownsTokenOfContracts(ownerOfToken, supportedCollections, tokenId) returns (bool[] memory returnValue) {\r\n            ownsTokens = returnValue;\r\n        }\r\n        catch { return address(0); }\r\n\r\n        // find the first contract which is owned\r\n        for (uint256 i = 0; i < ownsTokens.length; i++) {\r\n            if (ownsTokens[i])\r\n                return supportedCollections[i];\r\n        }\r\n\r\n        return address(0);\r\n    }\r\n}\r\n",
  "sourcePath": "D:\\Develop\\GitHub\\OG+\\src\\contracts\\libs\\Customizer.sol",
  "compiler": {
    "name": "solc",
    "version": "0.8.0+commit.c7dfd78e.Emscripten.clang"
  },
  "schemaVersion": "3.4.3",
  "updatedAt": "2021-12-20T23:42:47.224Z",
  "networkType": "ethereum",
  "devdoc": {
    "kind": "dev",
    "methods": {},
    "version": 1
  },
  "userdoc": {
    "kind": "user",
    "methods": {},
    "version": 1
  }
}