{
  "contractName": "Customizer",
  "abi": [
    {
      "inputs": [
        {
          "internalType": "contract IERC721",
          "name": "callingContract",
          "type": "IERC721"
        },
        {
          "internalType": "uint256",
          "name": "tokenId",
          "type": "uint256"
        }
      ],
      "name": "safeOwnerOf",
      "outputs": [
        {
          "internalType": "address",
          "name": "",
          "type": "address"
        }
      ],
      "stateMutability": "view",
      "type": "function",
      "constant": true
    },
    {
      "inputs": [
        {
          "internalType": "contract IERC721",
          "name": "callingContract",
          "type": "IERC721"
        },
        {
          "internalType": "address",
          "name": "ogColorContractAddress",
          "type": "address"
        },
        {
          "internalType": "uint256",
          "name": "tokenId",
          "type": "uint256"
        }
      ],
      "name": "getColors",
      "outputs": [
        {
          "internalType": "string",
          "name": "back",
          "type": "string"
        },
        {
          "internalType": "string",
          "name": "frame",
          "type": "string"
        },
        {
          "internalType": "string",
          "name": "digit",
          "type": "string"
        },
        {
          "internalType": "string",
          "name": "slug",
          "type": "string"
        }
      ],
      "stateMutability": "view",
      "type": "function",
      "constant": true
    },
    {
      "inputs": [
        {
          "internalType": "contract IERC721",
          "name": "callingContract",
          "type": "IERC721"
        },
        {
          "internalType": "address",
          "name": "ogColorContractAddress",
          "type": "address"
        },
        {
          "internalType": "uint256",
          "name": "tokenId",
          "type": "uint256"
        }
      ],
      "name": "getColorAttributes",
      "outputs": [
        {
          "internalType": "string",
          "name": "",
          "type": "string"
        }
      ],
      "stateMutability": "view",
      "type": "function",
      "constant": true
    },
    {
      "inputs": [
        {
          "internalType": "contract IERC721",
          "name": "callingContract",
          "type": "IERC721"
        },
        {
          "internalType": "address",
          "name": "gotTokenContractAddress",
          "type": "address"
        },
        {
          "internalType": "address[]",
          "name": "supportedCollections",
          "type": "address[]"
        },
        {
          "internalType": "uint256",
          "name": "tokenId",
          "type": "uint256"
        }
      ],
      "name": "getOwnedSupportedCollection",
      "outputs": [
        {
          "internalType": "address",
          "name": "",
          "type": "address"
        }
      ],
      "stateMutability": "view",
      "type": "function",
      "constant": true
    }
  ],
  "bytecode": "0x61110e610053600b82828239805160001a607314610046577f4e487b7100000000000000000000000000000000000000000000000000000000600052600060045260246000fd5b30600052607381538281f3fe73000000000000000000000000000000000000000030146080604052600436106100565760003560e01c80633f962c8a1461005b5780637308eca41461008b578063bda93c9a146100bb578063eac15a4b146100ee575b600080fd5b610075600480360381019061007091906109c0565b61011e565b6040516100829190610beb565b60405180910390f35b6100a560048036038101906100a091906108f6565b6101bf565b6040516100b29190610beb565b60405180910390f35b6100d560048036038101906100d09190610971565b6103b3565b6040516100e59493929190610c8f565b60405180910390f35b61010860048036038101906101039190610971565b610557565b6040516101159190610c6d565b60405180910390f35b600080600090508373ffffffffffffffffffffffffffffffffffffffff16636352211e846040518263ffffffff1660e01b815260040161015e9190610cf0565b60206040518083038186803b15801561017657600080fd5b505afa9250505080156101a757506040513d601f19601f820116820180604052508101906101a4919061088c565b60015b6101b0576101b5565b809150505b8091505092915050565b60008073ffffffffffffffffffffffffffffffffffffffff168473ffffffffffffffffffffffffffffffffffffffff1614156101fe57600090506103ab565b600061020a868461011e565b9050600073ffffffffffffffffffffffffffffffffffffffff168173ffffffffffffffffffffffffffffffffffffffff16141561024b5760009150506103ab565b606060008690508073ffffffffffffffffffffffffffffffffffffffff1663d00e7bbe8488886040518463ffffffff1660e01b815260040161028f93929190610c06565b60006040518083038186803b1580156102a757600080fd5b505afa9250505080156102dd57506040513d6000823e3d601f19601f820116820180604052508101906102da91906108b5565b60015b6102ed57600093505050506103ab565b8092505060005b82518110156103a257828181518110610336577f4e487b7100000000000000000000000000000000000000000000000000000000600052603260045260246000fd5b60200260200101511561038f5786818151811061037c577f4e487b7100000000000000000000000000000000000000000000000000000000600052603260045260246000fd5b60200260200101519450505050506103ab565b808061039a90610ea6565b9150506102f4565b50600093505050505b949350505050565b60608060608060006103c5888761011e565b9050600073ffffffffffffffffffffffffffffffffffffffff168173ffffffffffffffffffffffffffffffffffffffff16146104e057600073ffffffffffffffffffffffffffffffffffffffff168773ffffffffffffffffffffffffffffffffffffffff16146104df5760008790508073ffffffffffffffffffffffffffffffffffffffff1663116e85bf83896040518363ffffffff1660e01b815260040161046f929190610c44565b60006040518083038186803b15801561048757600080fd5b505afa9250505080156104bd57506040513d6000823e3d601f19601f820116820180604052508101906104ba9190610a3d565b60015b6104c6576104dd565b83838383995099509950995050505050505061054e565b505b5b604051806080016040528060478152602001611002604791396040518060800160405280604881526020016110496048913960405180608001604052806048815260200161109160489139604051806080016040528060478152602001610fbb604791399450945094509450505b93509350935093565b60606000610565858461011e565b9050600073ffffffffffffffffffffffffffffffffffffffff168173ffffffffffffffffffffffffffffffffffffffff161461067457600073ffffffffffffffffffffffffffffffffffffffff168473ffffffffffffffffffffffffffffffffffffffff16146106735760008490508073ffffffffffffffffffffffffffffffffffffffff16639f55f8d183866040518363ffffffff1660e01b815260040161060f929190610c44565b60006040518083038186803b15801561062757600080fd5b505afa92505050801561065d57506040513d6000823e3d601f19601f8201168201806040525081019061065a91906109fc565b60015b61066657610671565b809350505050610688565b505b5b604051806020016040528060008152509150505b9392505050565b60006106a261069d84610d3c565b610d0b565b905080838252602082019050828560208602820111156106c157600080fd5b60005b858110156106f157816106d788826107a5565b8452602084019350602083019250506001810190506106c4565b5050509392505050565b600061070e61070984610d68565b610d0b565b9050808382526020820190508285602086028201111561072d57600080fd5b60005b8581101561075d57816107438882610823565b845260208401935060208301925050600181019050610730565b5050509392505050565b600061077a61077584610d94565b610d0b565b90508281526020810184848401111561079257600080fd5b61079d848285610e73565b509392505050565b6000813590506107b481610f5e565b92915050565b6000815190506107c981610f5e565b92915050565b600082601f8301126107e057600080fd5b81356107f084826020860161068f565b91505092915050565b600082601f83011261080a57600080fd5b815161081a8482602086016106fb565b91505092915050565b60008151905061083281610f75565b92915050565b60008135905061084781610f8c565b92915050565b600082601f83011261085e57600080fd5b815161086e848260208601610767565b91505092915050565b60008135905061088681610fa3565b92915050565b60006020828403121561089e57600080fd5b60006108ac848285016107ba565b91505092915050565b6000602082840312156108c757600080fd5b600082015167ffffffffffffffff8111156108e157600080fd5b6108ed848285016107f9565b91505092915050565b6000806000806080858703121561090c57600080fd5b600061091a87828801610838565b945050602061092b878288016107a5565b935050604085013567ffffffffffffffff81111561094857600080fd5b610954878288016107cf565b925050606061096587828801610877565b91505092959194509250565b60008060006060848603121561098657600080fd5b600061099486828701610838565b93505060206109a5868287016107a5565b92505060406109b686828701610877565b9150509250925092565b600080604083850312156109d357600080fd5b60006109e185828601610838565b92505060206109f285828601610877565b9150509250929050565b600060208284031215610a0e57600080fd5b600082015167ffffffffffffffff811115610a2857600080fd5b610a348482850161084d565b91505092915050565b60008060008060808587031215610a5357600080fd5b600085015167ffffffffffffffff811115610a6d57600080fd5b610a798782880161084d565b945050602085015167ffffffffffffffff811115610a9657600080fd5b610aa28782880161084d565b935050604085015167ffffffffffffffff811115610abf57600080fd5b610acb8782880161084d565b925050606085015167ffffffffffffffff811115610ae857600080fd5b610af48782880161084d565b91505092959194509250565b6000610b0c8383610b18565b60208301905092915050565b610b2181610e19565b82525050565b610b3081610e19565b82525050565b610b3f81610e19565b82525050565b6000610b5082610dd4565b610b5a8185610df7565b9350610b6583610dc4565b8060005b83811015610b96578151610b7d8882610b00565b9750610b8883610dea565b925050600181019050610b69565b5085935050505092915050565b6000610bae82610ddf565b610bb88185610e08565b9350610bc8818560208601610e73565b610bd181610f4d565b840191505092915050565b610be581610e69565b82525050565b6000602082019050610c006000830184610b36565b92915050565b6000606082019050610c1b6000830186610b27565b8181036020830152610c2d8185610b45565b9050610c3c6040830184610bdc565b949350505050565b6000604082019050610c596000830185610b27565b610c666020830184610bdc565b9392505050565b60006020820190508181036000830152610c878184610ba3565b905092915050565b60006080820190508181036000830152610ca98187610ba3565b90508181036020830152610cbd8186610ba3565b90508181036040830152610cd18185610ba3565b90508181036060830152610ce58184610ba3565b905095945050505050565b6000602082019050610d056000830184610bdc565b92915050565b6000604051905081810181811067ffffffffffffffff82111715610d3257610d31610f1e565b5b8060405250919050565b600067ffffffffffffffff821115610d5757610d56610f1e565b5b602082029050602081019050919050565b600067ffffffffffffffff821115610d8357610d82610f1e565b5b602082029050602081019050919050565b600067ffffffffffffffff821115610daf57610dae610f1e565b5b601f19601f8301169050602081019050919050565b6000819050602082019050919050565b600081519050919050565b600081519050919050565b6000602082019050919050565b600082825260208201905092915050565b600082825260208201905092915050565b6000610e2482610e49565b9050919050565b60008115159050919050565b6000610e4282610e19565b9050919050565b600073ffffffffffffffffffffffffffffffffffffffff82169050919050565b6000819050919050565b60005b83811015610e91578082015181840152602081019050610e76565b83811115610ea0576000848401525b50505050565b6000610eb182610e69565b91507fffffffffffffffffffffffffffffffffffffffffffffffffffffffffffffffff821415610ee457610ee3610eef565b5b600182019050919050565b7f4e487b7100000000000000000000000000000000000000000000000000000000600052601160045260246000fd5b7f4e487b7100000000000000000000000000000000000000000000000000000000600052604160045260246000fd5b6000601f19601f8301169050919050565b610f6781610e19565b8114610f7257600080fd5b50565b610f7e81610e2b565b8114610f8957600080fd5b50565b610f9581610e37565b8114610fa057600080fd5b50565b610fac81610e69565b8114610fb757600080fd5b5056fe3c6c696e6561724772616469656e742069643d27736c7567273e3c73746f702073746f702d636f6c6f723d2723464646464646272f3e3c2f6c696e6561724772616469656e743e3c6c696e6561724772616469656e742069643d276261636b273e3c73746f702073746f702d636f6c6f723d2723464646464646272f3e3c2f6c696e6561724772616469656e743e3c6c696e6561724772616469656e742069643d276672616d65273e3c73746f702073746f702d636f6c6f723d2723303030303030272f3e3c2f6c696e6561724772616469656e743e3c6c696e6561724772616469656e742069643d276469676974273e3c73746f702073746f702d636f6c6f723d2723303030303030272f3e3c2f6c696e6561724772616469656e743ea2646970667358221220780f3cfcd5c3a93d1d73b8e20879e16868638c2aab4c1b97fa5070c34558a2df64736f6c63430008000033",
  "immutableReferences": {},
  "source": "// SPDX-License-Identifier: MIT\r\n\r\npragma solidity 0.8.0;\r\n\r\nimport \"@openzeppelin/contracts/token/ERC721/IERC721.sol\";\r\nimport \"../interfaces/GotTokenInterface.sol\";\r\nimport \"../interfaces/OGColorInterface.sol\";\r\n\r\nlibrary Customizer {\r\n    \r\n    function safeOwnerOf(IERC721 callingContract, uint256 tokenId) public view returns (address) {\r\n        \r\n        address ownerOfToken = address(0);\r\n                \r\n        try callingContract.ownerOf(tokenId) returns (address a) {\r\n            ownerOfToken = a;\r\n        }\r\n        catch { }\r\n\r\n        return ownerOfToken;\r\n    }\r\n\r\n    function getColors(IERC721 callingContract, address ogColorContractAddress, uint256 tokenId) external view returns (string memory back, string memory frame, string memory digit, string memory slug) {\r\n\r\n        address ownerOfToken = safeOwnerOf(callingContract, tokenId);\r\n        if (ownerOfToken != address(0)) {\r\n            if (ogColorContractAddress != address(0)) {\r\n                OGColorInterface ogColorContract = OGColorInterface(ogColorContractAddress);\r\n                try ogColorContract.getColors(ownerOfToken, tokenId) returns (string memory extBack, string memory extFrame, string memory extDigit, string memory extSlug) {\r\n                    return (extBack, extFrame, extDigit, extSlug);\r\n                }\r\n                catch { }\r\n            }\r\n        }\r\n        \r\n        return (\"<linearGradient id='back'><stop stop-color='#FFFFFF'/></linearGradient>\",\r\n                \"<linearGradient id='frame'><stop stop-color='#000000'/></linearGradient>\",\r\n                \"<linearGradient id='digit'><stop stop-color='#000000'/></linearGradient>\",\r\n                \"<linearGradient id='slug'><stop stop-color='#FFFFFF'/></linearGradient>\");\r\n    }\r\n\r\n    function getColorAttributes(IERC721 callingContract, address ogColorContractAddress, uint256 tokenId) external view returns (string memory) {\r\n\r\n        address ownerOfToken = safeOwnerOf(callingContract, tokenId);\r\n        if (ownerOfToken != address(0)) {\r\n            if (ogColorContractAddress != address(0)) {\r\n                OGColorInterface ogColorContract = OGColorInterface(ogColorContractAddress);\r\n                try ogColorContract.getOgAttributes(ownerOfToken, tokenId) returns (string memory extAttributes) {\r\n                    return extAttributes;\r\n                }\r\n                catch { }\r\n            }\r\n        }\r\n        \r\n        return \"\";\r\n    }\r\n    \r\n    function getOwnedSupportedCollection(IERC721 callingContract, address gotTokenContractAddress, address[] memory supportedCollections, uint256 tokenId) external view returns (address) {\r\n        \r\n        if (gotTokenContractAddress == address(0))\r\n            return address(0);\r\n        \r\n        address ownerOfToken = safeOwnerOf(callingContract, tokenId);\r\n        if (ownerOfToken == address(0))\r\n            return address(0);\r\n    \r\n        bool[] memory ownsTokens;\r\n        \r\n        GotTokenInterface gotTokenContract = GotTokenInterface(gotTokenContractAddress);        \r\n        try gotTokenContract.ownsTokenOfContracts(ownerOfToken, supportedCollections, tokenId) returns (bool[] memory returnValue) {\r\n            ownsTokens = returnValue;\r\n        }\r\n        catch { return address(0); }\r\n\r\n        // find the first contract which is owned\r\n        for (uint256 i = 0; i < ownsTokens.length; i++) {\r\n            if (ownsTokens[i])\r\n                return supportedCollections[i];\r\n        }\r\n\r\n        return address(0);\r\n    }\r\n}\r\n",
  "sourcePath": "D:\\Develop\\GitHub\\OG+\\src\\contracts\\libs\\Customizer.sol",
  "compiler": {
    "name": "solc",
    "version": "0.8.0+commit.c7dfd78e.Emscripten.clang"
  },
  "schemaVersion": "3.4.3",
  "updatedAt": "2022-01-29T16:32:42.557Z",
  "networkType": "ethereum",
  "devdoc": {
    "kind": "dev",
    "methods": {},
    "version": 1
  },
  "userdoc": {
    "kind": "user",
    "methods": {},
    "version": 1
  }
}