{
  "contractName": "DigitsPaths",
  "abi": [
    {
      "inputs": [
        {
          "internalType": "uint256",
          "name": "tokenId",
          "type": "uint256"
        }
      ],
      "name": "generate",
      "outputs": [
        {
          "internalType": "string",
          "name": "",
          "type": "string"
        }
      ],
      "stateMutability": "pure",
      "type": "function",
      "constant": true
    },
    {
      "inputs": [
        {
          "internalType": "uint256",
          "name": "tokenId",
          "type": "uint256"
        }
      ],
      "name": "getSmallDigitWidth",
      "outputs": [
        {
          "internalType": "uint16",
          "name": "",
          "type": "uint16"
        }
      ],
      "stateMutability": "pure",
      "type": "function",
      "constant": true
    }
  ],
  "bytecode": "0x61384d610053600b82828239805160001a607314610046577f4e487b7100000000000000000000000000000000000000000000000000000000600052600060045260246000fd5b30600052607381538281f3fe73000000000000000000000000000000000000000030146080604052600436106100405760003560e01c806342a4228c146100455780634a7dd52314610075575b600080fd5b61005f600480360381019061005a9190610eec565b6100a5565b60405161006c91906111b5565b60405180910390f35b61008f600480360381019061008a9190610eec565b6101bf565b60405161009c9190611173565b60405180910390f35b60008082101580156100b8575060098211155b6100f7576040517f08c379a00000000000000000000000000000000000000000000000000000000081526004016100ee90611195565b60405180910390fd5b600082141561010a576106a390506101ba565b600182141561011d5761035390506101ba565b6002821415610130576105c690506101ba565b6003821415610143576105ce90506101ba565b60048214156101565761069690506101ba565b6005821415610169576105cc90506101ba565b600682141561017c5761062f90506101ba565b600782141561018f5761061d90506101ba565b60088214156101a25761060190506101ba565b60098214156101b55761062b90506101ba565b600090505b919050565b6060600082101580156101d4575061270f8211155b610213576040517f08c379a000000000000000000000000000000000000000000000000000000000815260040161020a90611195565b60405180910390fd5b6009821161022b576102248261023c565b9050610237565b61023482610459565b90505b919050565b606060008210158015610250575060098211155b61028f576040517f08c379a000000000000000000000000000000000000000000000000000000000815260040161028690611195565b60405180910390fd5b60008214156102bb576040518061020001604052806101db8152602001611b966101db91399050610454565b60018214156102e4576040518060c0016040528060a081526020016135b260a091399050610454565b6002821415610310576040518061020001604052806101db81526020016123c16101db91399050610454565b600382141561033c5760405180610240016040528061020d81526020016121b461020d91399050610454565b600482141561036857604051806101800160405280610143815260200161280a61014391399050610454565b60058214156103945760405180610240016040528061020f8152602001612cf761020f91399050610454565b60068214156103c057604051806102a0016040528061026e815260200161259c61026e91399050610454565b60078214156103e9576040518060e0016040528060b2815260200161151360b291399050610454565b600882141561041557604051806103c0016040528061038f815260200161322361038f91399050610454565b600982141561044157604051806102a001604052806102738152602001611d7161027391399050610454565b6040518060200160405280600081525090505b919050565b6060600a821015801561046e575061270f8211155b6104ad576040517f08c379a00000000000000000000000000000000000000000000000000000000081526004016104a490611195565b60405180910390fd5b60006104b8836109ee565b90506000815167ffffffffffffffff8111156104fd577f4e487b7100000000000000000000000000000000000000000000000000000000600052604160045260246000fd5b60405190808252806020026020018201604052801561053057816020015b606081526020019060019003908161051b5790505b50905060005b82518161ffff1610156107085760006030848361ffff1681518110610584577f4e487b7100000000000000000000000000000000000000000000000000000000600052603260045260246000fd5b602001015160f81c60f81b60f81c60ff1661059f9190611334565b90506000806000806105b2885187610b9b565b93509350935093506000600a60026105cd8861ffff166100a5565b600a866105da91906112f8565b6105e49190611334565b6105ee9190611296565b600a876105fb91906112f8565b6106059190611208565b61060f9190611296565b90506000600a60026107f6600a8661062791906112f8565b6106319190611334565b61063b9190611296565b600a8761064891906112f8565b6106529190611208565b61065c9190611296565b905061066b8261ffff166109ee565b6106788261ffff166109ee565b6106858961ffff16610cba565b60405160200161069793929190611121565b604051602081830303815290604052898961ffff16815181106106e3577f4e487b7100000000000000000000000000000000000000000000000000000000600052603260045260246000fd5b6020026020010181905250505050505050508080610700906113e7565b915050610536565b506002825114156107c0578060008151811061074d577f4e487b7100000000000000000000000000000000000000000000000000000000600052603260045260246000fd5b60200260200101518160018151811061078f577f4e487b7100000000000000000000000000000000000000000000000000000000600052603260045260246000fd5b60200260200101516040516020016107a892919061108e565b604051602081830303815290604052925050506109e9565b6003825114156108ba5780600081518110610804577f4e487b7100000000000000000000000000000000000000000000000000000000600052603260045260246000fd5b602002602001015181600181518110610846577f4e487b7100000000000000000000000000000000000000000000000000000000600052603260045260246000fd5b602002602001015182600281518110610888577f4e487b7100000000000000000000000000000000000000000000000000000000600052603260045260246000fd5b60200260200101516040516020016108a2939291906110b2565b604051602081830303815290604052925050506109e9565b806000815181106108f4577f4e487b7100000000000000000000000000000000000000000000000000000000600052603260045260246000fd5b602002602001015181600181518110610936577f4e487b7100000000000000000000000000000000000000000000000000000000600052603260045260246000fd5b602002602001015182600281518110610978577f4e487b7100000000000000000000000000000000000000000000000000000000600052603260045260246000fd5b6020026020010151836003815181106109ba577f4e487b7100000000000000000000000000000000000000000000000000000000600052603260045260246000fd5b60200260200101516040516020016109d594939291906110e3565b604051602081830303815290604052925050505b919050565b60606000821415610a36576040518060400160405280600181526020017f30000000000000000000000000000000000000000000000000000000000000008152509050610b96565b600082905060005b60008214610a68578080610a5190611412565b915050600a82610a6191906112c7565b9150610a3e565b60008167ffffffffffffffff811115610aaa577f4e487b7100000000000000000000000000000000000000000000000000000000600052604160045260246000fd5b6040519080825280601f01601f191660200182016040528015610adc5781602001600182028036833780820191505090505b5090505b60008514610b8f57600182610af59190611368565b9150600a85610b04919061145b565b6030610b109190611240565b60f81b818381518110610b4c577f4e487b7100000000000000000000000000000000000000000000000000000000600052603260045260246000fd5b60200101907effffffffffffffffffffffffffffffffffffffffffffffffffffffffffffff1916908160001a905350600a85610b8891906112c7565b9450610ae0565b8093505050505b919050565b60008060008060008060008060028a1415610bdc5760008961ffff1614610bc4576101ea610bc7565b60d25b935060c8925061012c91506102589050610ca1565b60038a1415610c3b5760028961ffff1614610bf85760d2610bfc565b6101ea5b935060008961ffff1614610c12576101ea610c15565b60d25b925060008961ffff1614610c2b5761012c610c2f565b6102445b915061012c9050610ca0565b60048a1415610c9f5760008961ffff161480610c5b575060028961ffff16145b610c67576101ea610c6a565b60d25b935060008961ffff161480610c83575060018961ffff16145b610c8f576101ea610c92565b60d25b925061012c915061012c90505b5b5b8383838397509750975097505050505092959194509250565b606060008210158015610cce575060098211155b610d0d576040517f08c379a0000000000000000000000000000000000000000000000000000000008152600401610d0490611195565b60405180910390fd5b6000821415610d3957604051806101c0016040528061019e81526020016117d861019e91399050610ed2565b6001821415610d62576040518060a00160405280607281526020016115c5607291399050610ed2565b6002821415610d8e57604051806101c00160405280610194815260200161294d61019491399050610ed2565b6003821415610dba576040518061020001604052806101d08152602001611fe46101d091399050610ed2565b6004821415610de65760405180610140016040528061011f815260200161163761011f91399050610ed2565b6005821415610e12576040518061020001604052806101c681526020016136526101c691399050610ed2565b6006821415610e3e57604051806102400160405280610220815260200161197661022091399050610ed2565b6007821415610e67576040518060c0016040528060828152602001611756608291399050610ed2565b6008821415610e935760405180610340016040528061031d8152602001612f0661031d91399050610ed2565b6009821415610ebf576040518061024001604052806102168152602001612ae161021691399050610ed2565b6040518060200160405280600081525090505b919050565b600081359050610ee6816114fb565b92915050565b600060208284031215610efe57600080fd5b6000610f0c84828501610ed7565b91505092915050565b6000610f20826111d0565b610f2a81856111ec565b9350610f3a8185602086016113b4565b610f43816114ea565b840191505092915050565b6000610f59826111d0565b610f6381856111fd565b9350610f738185602086016113b4565b80840191505092915050565b6000610f8c601b836111fd565b91507f3c70617468207472616e73666f726d3d277472616e736c6174652800000000006000830152601b82019050919050565b6000610fcc6010836111db565b91507f546f6b656e20496420696e76616c6964000000000000000000000000000000006000830152602082019050919050565b600061100c6002836111fd565b91507f2c200000000000000000000000000000000000000000000000000000000000006000830152600282019050919050565b600061104c6003836111fd565b91507f29272000000000000000000000000000000000000000000000000000000000006000830152600382019050919050565b6110888161139c565b82525050565b600061109a8285610f4e565b91506110a68284610f4e565b91508190509392505050565b60006110be8286610f4e565b91506110ca8285610f4e565b91506110d68284610f4e565b9150819050949350505050565b60006110ef8287610f4e565b91506110fb8286610f4e565b91506111078285610f4e565b91506111138284610f4e565b915081905095945050505050565b600061112c82610f7f565b91506111388286610f4e565b915061114382610fff565b915061114f8285610f4e565b915061115a8261103f565b91506111668284610f4e565b9150819050949350505050565b6000602082019050818103600083015261118d8184610f15565b905092915050565b600060208201905081810360008301526111ae81610fbf565b9050919050565b60006020820190506111ca600083018461107f565b92915050565b600081519050919050565b600082825260208201905092915050565b600082825260208201905092915050565b600081905092915050565b60006112138261139c565b915061121e8361139c565b92508261ffff038211156112355761123461148c565b5b828201905092915050565b600061124b826113aa565b9150611256836113aa565b9250827fffffffffffffffffffffffffffffffffffffffffffffffffffffffffffffffff0382111561128b5761128a61148c565b5b828201905092915050565b60006112a18261139c565b91506112ac8361139c565b9250826112bc576112bb6114bb565b5b828204905092915050565b60006112d2826113aa565b91506112dd836113aa565b9250826112ed576112ec6114bb565b5b828204905092915050565b60006113038261139c565b915061130e8361139c565b92508161ffff04831182151516156113295761132861148c565b5b828202905092915050565b600061133f8261139c565b915061134a8361139c565b92508282101561135d5761135c61148c565b5b828203905092915050565b6000611373826113aa565b915061137e836113aa565b9250828210156113915761139061148c565b5b828203905092915050565b600061ffff82169050919050565b6000819050919050565b60005b838110156113d25780820151818401526020810190506113b7565b838111156113e1576000848401525b50505050565b60006113f28261139c565b915061ffff8214156114075761140661148c565b5b600182019050919050565b600061141d826113aa565b91507fffffffffffffffffffffffffffffffffffffffffffffffffffffffffffffffff8214156114505761144f61148c565b5b600182019050919050565b6000611466826113aa565b9150611471836113aa565b925082611481576114806114bb565b5b828206905092915050565b7f4e487b7100000000000000000000000000000000000000000000000000000000600052601160045260246000fd5b7f4e487b7100000000000000000000000000000000000000000000000000000000600052601260045260246000fd5b6000601f19601f8301169050919050565b611504816113aa565b811461150f57600080fd5b5056fe3c7061746820643d27204d203337392e393332203334322e35204c203337392e393332203431362e353135204c203531302e323732203431362e353135204c203431332e373134203635382e333735204c203530322e383134203635382e333735204c203632322e353134203335342e383232204c203632322e353134203334322e35204c203337392e393332203334322e35205a20272066696c6c3d2775726c28236469676974436f6c6f722927202f3e643d27204d20302030204c20302034362e313932204c2033302e32312034362e313932204c2033302e3231203230332e383332204c2038352e3131203230332e383332204c2038352e31312030204c20302030205a20272066696c6c3d2775726c28236469676974436f6c6f722927202f3e643d27204d203136382e363434203132312e353339204c203135302e323236203132312e353339204c203135302e3232362037362e363437204c203131332e3439392037362e363437204c203130312e353435203132312e353339204c2036382e393434203132312e353339204c203131392e34332030204c2036352e3239372030204c2030203135372e323432204c2030203136372e3231204c2039372e383532203136372e3231204c2039372e383532203230332e383332204c203135302e323239203230332e383332204c203135302e323239203136372e3231204c203136382e363437203136372e3231204c203136382e363434203132312e353339205a20272066696c6c3d2775726c28236469676974436f6c6f722927202f3e643d27204d20302030204c20302034372e373534204c2038342e3039342034372e373534204c2032312e373936203230332e38204c2037392e323833203230332e38204c203135362e35313220372e3935204c203135362e3531322030204c20302030205a20272066696c6c3d2775726c28236469676974436f6c6f722927202f3e643d27204d2038342e393435203230332e3833322043203133362e353234203230332e383332203136392e383931203136332e393035203136392e383931203130312e3931372043203136392e3839312033392e3736203133362e36393320302038342e393435203020432033332e313934203020302033392e37362030203130312e39313720432030203136332e3930352033332e333634203230332e3833322038342e393435203230332e383332205a20204d2038342e393435203135372e35393920432036342e353031203135372e3539392035332e313938203133372e3636382035332e313938203130312e39313720432035332e3139382036362e3136342036342e3530312034362e3233332038342e3934352034362e3233332043203130352e3232312034362e323333203131362e3638392036362e333333203131362e363839203130322e3038342043203131362e363839203133372e383337203130352e3339203135372e3539392038342e393435203135372e353939205a20272066696c6c3d2775726c28236469676974436f6c6f722927202f3e643d27204d2039302e3539332036342e38343520432038362e3038322036342e3834352038312e3730392036352e3135372037372e3431332036352e38313320432039302e3535342034332e383531203130332e3831312032312e393739203131362e3932342030204c2035392e3339372030204c2032322e3738322036312e373231204320362e3039382038392e3636312030203130392e3837332030203133302e32393520432030203137332e3736332033322e323935203230332e382037392e333033203230332e382043203132362e303438203230332e38203135382e3236203137332e373138203135382e3236203133302e3034312043203135382e32362039312e353339203133302e3435372036342e3834352039302e3539332036342e383435204c2039302e3539332036342e383435205a20204d2037392e3133203135382e30343420432036322e393931203135382e3034342035312e33203134362e3639382035312e33203133302e30343120432035312e33203131332e3231332036322e393931203130312e3734312037392e3133203130312e37343120432039352e343339203130312e373431203130362e393539203131332e323133203130362e393539203133302e3034312043203130362e393539203134362e3639382039352e343339203135382e3034342037392e3133203135382e303434205a20272066696c6c3d2775726c28236469676974436f6c6f722927202f3e3c7061746820643d27204d203439382e393433203636352e3639372043203538322e383939203636352e363937203633372e323131203630302e373037203633372e323131203439392e3830382043203633372e323131203339382e363333203538332e313735203333332e393134203439382e393433203333332e3931342043203431342e373037203333332e393134203336302e363735203339382e363333203336302e363735203439392e3830382043203336302e363735203630302e373037203431342e393832203636352e363937203439382e393433203636352e363937205a20204d203439382e393433203539302e3434332043203436352e363635203539302e343433203434372e32363820353538203434372e323638203439392e3830382043203434372e323638203434312e363131203436352e363635203430392e313639203439382e393433203430392e3136392043203533312e393436203430392e313639203535302e363134203434312e383837203535302e363134203530302e3037392043203535302e363134203535382e323736203533322e323232203539302e343433203439382e393433203539302e343433205a20272066696c6c3d2775726c28236469676974436f6c6f722927202f3e3c7061746820643d27204d203439352e323736203333382e3933392043203432312e313438203333382e393339203337302e303636203338362e363433203337302e303636203435352e3930382043203337302e303636203531362e393634203431342e313536203535392e323936203437372e333733203535392e3239362043203438342e353232203535392e323936203439312e343537203535382e383032203439382e323634203535372e3736322043203437372e333932203539322e363531203435362e313336203632382e313035203433352e333431203636322e383735204c203532362e353639203636322e383735204c203538342e393039203536342e3235312043203631312e313632203531392e393433203632312e303337203438372e3839203632312e303337203435352e3530342043203632312e303337203338362e353732203536392e383233203333382e393339203439352e323736203333382e393339204c203439352e323736203333382e393339205a20204d203439352e353532203530312e3333322043203436382e3332203530312e333332203434392e3233203438322e383634203434392e3233203435352e3930382043203434392e3233203432392e323138203436382e3332203431302e393534203439352e353532203431302e3935342043203532322e353133203431302e393534203534312e383734203432392e323138203534312e383734203435352e3930382043203534312e383734203438322e383634203532322e353133203530312e333332203439352e353532203530312e333332205a20272066696c6c3d2775726c28236469676974436f6c6f722927202f3e643d27204d203130312e3731322037332e313633204c203134312e3720392e313532204c203134312e372030204c20352030204c20352034352e3431204c2037312e3836352034352e3431204c2033392e3432342039382e373434204c2033392e343234203130392e383436204c2037312e333335203130392e38343620432038362e383338203130392e3834362039362e373333203131382e3837382039362e373333203133332e343420432039362e373333203134382038372e313836203135382e3032342037332e353637203135382e30323420432036302e343637203135382e3032342035312e373334203134382e3639322035312e313335203133342e363438204c2030203133342e363438204320312e313938203137352e3838382033302e363239203230332e3833322037332e343431203230332e3833322043203131372e313532203230332e383332203134382e353531203137342e383138203134382e353531203133342e3330332043203134382e353531203130332e3435203133302e3237372038302e333239203130312e3731352037332e313633204c203130312e3731322037332e313633205a20272066696c6c3d2775726c28236469676974436f6c6f722927202f3e3c7061746820643d27204d203534312e3636203435352e303035204c203630352e303633203335332e353131204c203630352e30363320333339204c203338382e33313520333339204c203338382e333135203431312e303031204c203439342e333335203431312e303031204c203434322e383938203439352e353635204c203434322e383938203531332e313638204c203439332e343935203531332e3136382043203531382e303736203531332e313638203533332e373635203532372e343839203533332e373635203535302e3537392043203533332e373635203537332e363634203531382e363237203538392e353538203439372e303334203538392e3535382043203437362e323632203538392e353538203436322e343136203537342e373632203436312e343636203535322e343934204c203338302e333838203535322e3439342043203338322e323838203631372e383832203432382e393532203636322e3139203439362e383334203636322e31392043203536362e313431203636322e3139203631352e393236203631362e313836203631352e393236203535312e3934372043203631352e393236203530332e303237203538362e393531203436362e333636203534312e363635203435352e303035204c203534312e3636203435352e303035205a20272066696c6c3d2775726c28236469676974436f6c6f722927202f3e3c7061746820643d27204d203532342e373132203538372e3435382043203539322e323731203530392e323032203630362e393737203437382e363838203630362e393737203433382e39342043203630362e393737203337392e363336203536302e373132203333382e343339203439332e373039203333382e3433392043203432342e353439203333382e343339203338322e363837203338302e363537203338322e363837203434342e353236204c203338322e363837203435302e333638204c203436362e313837203435302e333638204c203436362e313837203434342e3236352043203436362e313837203432352e3235203437362e393938203431332e3239203439342e3733203431332e32392043203531302e393038203431332e3239203532322e313934203432342e373735203532322e313934203434312e3930342043203532322e313934203436392e303232203530342e3639203439332e323437203337372e353935203634332e313437204c203337372e353935203636322e333735204c203631322e3533203636322e333735204c203631322e3533203538372e343538204c203532342e373132203538372e343538205a20272066696c6c3d2775726c28236469676974436f6c6f722927202f3e3c7061746820643d27204d203532302e383535203434302e3333332043203531332e373031203434302e333333203530362e373636203434302e383237203439392e393535203434312e3836372043203532302e373933203430372e3034203534312e383136203337322e333535203536322e363132203333372e35204c203437312e333833203333372e35204c203431332e333139203433352e3337382043203338362e383632203437392e363836203337372e313931203531312e373339203337372e313931203534342e3132352043203337372e313931203631332e303537203432382e343035203636302e3639203530322e393532203636302e36392043203537372e3038203636302e3639203632382e313632203631322e393836203632382e313632203534332e3732312043203632382e313632203438322e363635203538342e303732203434302e333333203532302e383535203434302e333333204c203532302e383535203434302e333333205a20204d203530322e363736203538382e3132392043203437372e303833203538382e313239203435382e353434203537302e313336203435382e353434203534332e3732312043203435382e353434203531372e303336203437372e303833203439382e383433203530322e363736203439382e3834332043203532382e3534203439382e383433203534362e383039203531372e303336203534362e383039203534332e3732312043203534362e383039203537302e313336203532382e3534203538382e313239203530322e363736203538382e313239205a20272066696c6c3d2775726c28236469676974436f6c6f722927202f3e3c7061746820643d27204d203632362e353536203533312e383437204c203539382e303134203533312e383437204c203539382e303134203436322e323738204c203534312e303939203436322e323738204c203532322e353734203533312e383437204c203437322e303533203533312e383437204c203535302e3239203334332e35204c203436362e343031203334332e35204c203336352e323131203538372e313735204c203336352e323131203630322e363232204c203531362e383531203630322e363232204c203531362e383531203635392e333735204c203539382e303139203635392e333735204c203539382e303139203630322e363232204c203632362e353631203630322e363232204c203632362e353536203533312e383437205a20272066696c6c3d2775726c28236469676974436f6c6f722927202f3e643d27204d2039322e353534203135362e3636372043203133352e303536203130372e343333203134342e3330382038382e323336203134342e3330382036332e3232392043203134342e3330382032352e393138203131352e32303220302037332e303439203020432032392e353339203020332e3230332032362e35363120332e3230332036362e373433204c20332e3230332037302e343139204c2035352e3733352037302e343139204c2035352e3733352036362e35373920432035352e3733352035342e3631362036322e3533362034372e3039312037332e3639322034372e30393120432038332e38372034372e3039312039302e39372035342e3331372039302e39372036352e30393320432039302e39372038322e3135342037392e3935382039372e3339352030203139312e373033204c2030203230332e38204c203134372e383031203230332e38204c203134372e383031203135362e363637204c2039322e353534203135362e363637205a20272066696c6c3d2775726c28236469676974436f6c6f722927202f3e643d27204d2037382e373837203020432033322e313432203020302033302e30313720302037332e36303120432030203131322e30322032372e373433203133382e3635372036372e353232203133382e36353720432037322e3032203133382e3635372037362e333834203133382e3334362038302e363637203133372e36393120432036372e353334203135392e3634352035342e313538203138312e3935342034312e303733203230332e383332204c2039382e343737203230332e383332204c203133352e313837203134312e3737342043203135312e373036203131332e383934203135372e39322039332e373235203135372e39322037332e3334372043203135372e39322032392e393732203132352e36393420302037382e3738372030204c2037382e3738372030205a20204d2037382e3936203130322e31383420432036312e383235203130322e3138342034392e3831332039302e3536332034392e3831332037332e36303120432034392e3831332035362e3830362036312e3832352034352e3331342037382e39362034352e33313420432039352e3932352034352e333134203130382e3130372035362e383036203130382e3130372037332e3630312043203130382e3130372039302e3536332039352e393235203130322e3138342037382e3936203130322e313834205a20272066696c6c3d2775726c28236469676974436f6c6f722927202f3e3c7061746820643d27204d203439372e363033203434362e353339204c203436382e3231203434362e353339204c203437322e313931203431302e343936204c203539342e333134203431302e343936204c203539342e333134203333382e343935204c203430372e303335203333382e343935204c203338392e333839203530332e313633204c203339372e3435203531332e353939204c203439352e373631203531332e3539392043203531382e393232203531332e353939203533342e383135203532392e303839203533342e383135203535312e3737352043203533342e383135203537332e313634203531392e363732203538392e303538203439382e39203538392e3035382043203437372e363534203538392e303538203436322e353832203537332e373135203436322e353832203535322e323639204c203338312e353631203535322e3236392043203338312e353631203631362e333635203433302e303638203636312e3639203439382e39203636312e36392043203536372e3739203636312e3639203631362e393736203631352e393437203631362e393736203535312e37382043203631362e393736203438392e383434203536382e333431203434362e353438203439372e363038203434362e353438204c203439372e363033203434362e353339205a20272066696c6c3d2775726c28236469676974436f6c6f722927202f3e643d27204d203132372e3835332039362e3339332043203134312e3437382038352e353733203134382e33392037322e323231203134382e33392035362e3438332043203134382e33392032322e383339203131392e37353820302037362e393439203020432033342e313338203020352e3333392032332e30303920352e3333392035362e343836204320352e3333392037322e3034352031322e3232322038352e3335312032352e3739312039362e3336204320382e333634203130372e3431392030203132322e33352030203134312e38383120432030203137382e3832372033302e3937203230332e382037362e373833203230332e382043203132322e353936203230332e38203135332e373335203137382e363538203135332e373335203134312e3837382043203135332e373335203132322e343739203134352e3233203130372e353539203132372e3835362039362e3339204c203132372e3835332039362e333933205a20204d2037362e3935322033382e36333520432039302e3131322033382e3633352039392e3035382034362e3832372039392e3035382035382e30363420432039392e3035382036392e3330342039302e3131322037372e3439362037362e3935322037372e34393620432036332e3739322037372e3439362035342e36382036392e3330342035342e36382035382e30363420432035342e36382034362e3832372036332e3739322033382e3633352037362e3935322033382e363335205a20204d2037362e393532203136332e33363420432036312e323431203136332e3336342035302e383334203135332e3838312035302e383334203134302e32353920432035302e383334203132362e3633372036312e323431203131372e3135312037362e393532203131372e31353120432039322e363633203131372e313531203130322e393031203132362e363337203130322e393031203134302e3235392043203130322e393031203135332e3838312039322e363633203136332e3336342037362e393532203136332e333634205a20272066696c6c3d2775726c28236469676974436f6c6f722927202f3e3c7061746820643d27204d203538312e393738203439312e3130392043203630342e313232203437332e353234203631352e333536203435312e383231203631352e333536203432362e3234322043203631352e333536203337312e3536203536382e3832203333342e343339203439392e323432203333342e3433392043203432392e363539203333342e343339203338322e383533203337312e383336203338322e383533203432362e3234372043203338322e383533203435312e353336203339342e303339203437332e313633203431362e303933203439312e3035362043203338372e373639203530392e3033203337342e313735203533332e323938203337342e313735203536352e3034322043203337342e313735203632352e303932203432342e3531203636352e3638203439382e393731203636352e36382043203537332e343332203636352e3638203632342e303434203632342e383136203632342e303434203536352e3033372043203632342e303434203533332e353037203631302e323231203530392e323538203538312e393832203439312e313034204c203538312e393738203439312e313039205a20204d203439392e323437203339372e3233342043203532302e363336203339372e323334203533352e313736203431302e353438203533352e313736203432382e3831322043203533352e313736203434372e303831203532302e363336203436302e333935203439392e323437203436302e3339352043203437372e383538203436302e333935203436332e303437203434372e303831203436332e303437203432382e3831322043203436332e303437203431302e353438203437372e383538203339372e323334203439392e323437203339372e323334205a20204d203439392e323437203539392e3935392043203437332e373131203539392e393539203435362e373936203538342e353436203435362e373936203536322e3430362043203435362e373936203534302e323636203437332e373131203532342e383438203439392e323437203532342e3834382043203532342e373833203532342e383438203534312e343232203534302e323636203534312e343232203536322e3430362043203534312e343232203538342e353436203532342e373833203539392e393539203439392e323437203539392e393539205a20272066696c6c3d2775726c28236469676974436f6c6f722927202f3e3c7061746820643d27204d203432332e353337203334332e35204c203432332e353337203431352e303832204c203437302e333632203431352e303832204c203437302e333632203635392e333735204c203535352e343539203635392e333735204c203535352e343539203334332e35204c203432332e353337203334332e35205a20272066696c6c3d2775726c28236469676974436f6c6f722927202f3e643d27204d2037332e3137342036382e3133204c2035342e3633392036382e3133204c2035372e3134392034352e343032204c203133342e3135372034352e343032204c203133342e3135372030204c2031362e3036342030204c20342e393336203130332e383336204c2031302e303139203131302e343137204c2037322e303132203131302e34313720432038362e363137203131302e3431372039362e363339203132302e3138352039362e363339203133342e343920432039362e363339203134372e3937372038372e3039203135382037332e3939322031353820432036302e353934203135382035312e3039203134382e3332352035312e3039203133342e383031204c2030203133342e38303120432030203137352e3231392033302e353838203230332e382037332e393932203230332e382043203131372e343332203230332e38203134382e343438203137342e393536203134382e343438203133342e3439332043203134382e3434382039352e343338203131372e3737392036382e3133362037332e3137372036382e313336204c2037332e3137342036382e3133205a20272066696c6c3d2775726c28236469676974436f6c6f722927202f3ea2646970667358221220489ce54d71a7b1227401b9200f2dc231bcb4cfcd669a952a6863361edb2e0f4264736f6c63430008000033",
  "immutableReferences": {},
  "source": "// SPDX-License-Identifier: MIT\r\n\r\npragma solidity ^0.8.0;\r\n\r\nimport \"@openzeppelin/contracts/token/ERC721/ERC721.sol\";\r\nimport \"@openzeppelin/contracts/token/ERC721/extensions/ERC721Enumerable.sol\";\r\nimport \"@openzeppelin/contracts/token/ERC20/ERC20.sol\";\r\nimport \"@openzeppelin/contracts/security/ReentrancyGuard.sol\";\r\nimport \"@openzeppelin/contracts/access/Ownable.sol\";\r\n\r\naddress constant CryptoPunksContractMainnet = 0x3C6D0C0d7c818474A93a8A271e0BBdb2e52E71d8;\r\naddress constant BoredApesContractMainnet = 0xBC4CA0EdA7647A8aB7C2061c2E118A18a936f13D; \r\naddress constant CoolCatsContractMainnet = 0x1A92f7381B9F03921564a437210bB9396471050C; \r\naddress constant CrypToadzContractMainnet = 0x1CB1A5e65610AEFF2551A50f76a87a7d3fB649C6;\r\naddress constant MetaHeroCoreContractMainnet = 0xFb10b1717C92e9cc2d634080c3c337808408D9E1;\r\naddress constant MetaHeroGenerativeContractMainnet = 0x6dc6001535e15b9def7b0f6A20a2111dFA9454E2;\r\n\r\nlibrary Stringify {\r\n\r\n    function that(uint256 value) internal pure returns (string memory) {\r\n    // Inspired by OraclizeAPI's implementation - MIT license\r\n    // https://github.com/oraclize/ethereum-api/blob/b42146b063c7d6ee1358846c198246239e9360e8/oraclizeAPI_0.4.25.sol\r\n\r\n        if (value == 0) {\r\n            return \"0\";\r\n        }\r\n        uint256 temp = value;\r\n        uint256 digits;\r\n        while (temp != 0) {\r\n            digits++;\r\n            temp /= 10;\r\n        }\r\n        bytes memory buffer = new bytes(digits);\r\n        while (value != 0) {\r\n            digits -= 1;\r\n            buffer[digits] = bytes1(uint8(48 + uint256(value % 10)));\r\n            value /= 10;\r\n        }\r\n        return string(buffer);\r\n    }\r\n\r\n}\r\n\r\n/// @title Base64\r\n/// @author Brecht Devos - <brecht@loopring.org>\r\n/// @notice Provides functions for encoding/decoding base64\r\nlibrary Base64 {\r\n    string internal constant TABLE_ENCODE = 'ABCDEFGHIJKLMNOPQRSTUVWXYZabcdefghijklmnopqrstuvwxyz0123456789+/';\r\n    bytes  internal constant TABLE_DECODE = hex\"0000000000000000000000000000000000000000000000000000000000000000\"\r\n                                            hex\"00000000000000000000003e0000003f3435363738393a3b3c3d000000000000\"\r\n                                            hex\"00000102030405060708090a0b0c0d0e0f101112131415161718190000000000\"\r\n                                            hex\"001a1b1c1d1e1f202122232425262728292a2b2c2d2e2f303132330000000000\";\r\n\r\n    function encode(bytes memory data) internal pure returns (string memory) {\r\n        if (data.length == 0) return '';\r\n\r\n        // load the table into memory\r\n        string memory table = TABLE_ENCODE;\r\n\r\n        // multiply by 4/3 rounded up\r\n        uint256 encodedLen = 4 * ((data.length + 2) / 3);\r\n\r\n        // add some extra buffer at the end required for the writing\r\n        string memory result = new string(encodedLen + 32);\r\n\r\n        assembly {\r\n            // set the actual output length\r\n            mstore(result, encodedLen)\r\n\r\n            // prepare the lookup table\r\n            let tablePtr := add(table, 1)\r\n\r\n            // input ptr\r\n            let dataPtr := data\r\n            let endPtr := add(dataPtr, mload(data))\r\n\r\n            // result ptr, jump over length\r\n            let resultPtr := add(result, 32)\r\n\r\n            // run over the input, 3 bytes at a time\r\n            for {} lt(dataPtr, endPtr) {}\r\n            {\r\n                // read 3 bytes\r\n                dataPtr := add(dataPtr, 3)\r\n                let input := mload(dataPtr)\r\n\r\n                // write 4 characters\r\n                mstore8(resultPtr, mload(add(tablePtr, and(shr(18, input), 0x3F))))\r\n                resultPtr := add(resultPtr, 1)\r\n                mstore8(resultPtr, mload(add(tablePtr, and(shr(12, input), 0x3F))))\r\n                resultPtr := add(resultPtr, 1)\r\n                mstore8(resultPtr, mload(add(tablePtr, and(shr( 6, input), 0x3F))))\r\n                resultPtr := add(resultPtr, 1)\r\n                mstore8(resultPtr, mload(add(tablePtr, and(        input,  0x3F))))\r\n                resultPtr := add(resultPtr, 1)\r\n            }\r\n\r\n            // padding with '='\r\n            switch mod(mload(data), 3)\r\n            case 1 { mstore(sub(resultPtr, 2), shl(240, 0x3d3d)) }\r\n            case 2 { mstore(sub(resultPtr, 1), shl(248, 0x3d)) }\r\n        }\r\n\r\n        return result;\r\n    }\r\n\r\n    function decode(string memory _data) internal pure returns (bytes memory) {\r\n        bytes memory data = bytes(_data);\r\n\r\n        if (data.length == 0) return new bytes(0);\r\n        require(data.length % 4 == 0, \"invalid base64 decoder input\");\r\n\r\n        // load the table into memory\r\n        bytes memory table = TABLE_DECODE;\r\n\r\n        // every 4 characters represent 3 bytes\r\n        uint256 decodedLen = (data.length / 4) * 3;\r\n\r\n        // add some extra buffer at the end required for the writing\r\n        bytes memory result = new bytes(decodedLen + 32);\r\n\r\n        assembly {\r\n            // padding with '='\r\n            let lastBytes := mload(add(data, mload(data)))\r\n            if eq(and(lastBytes, 0xFF), 0x3d) {\r\n                decodedLen := sub(decodedLen, 1)\r\n                if eq(and(lastBytes, 0xFFFF), 0x3d3d) {\r\n                    decodedLen := sub(decodedLen, 1)\r\n                }\r\n            }\r\n\r\n            // set the actual output length\r\n            mstore(result, decodedLen)\r\n\r\n            // prepare the lookup table\r\n            let tablePtr := add(table, 1)\r\n\r\n            // input ptr\r\n            let dataPtr := data\r\n            let endPtr := add(dataPtr, mload(data))\r\n\r\n            // result ptr, jump over length\r\n            let resultPtr := add(result, 32)\r\n\r\n            // run over the input, 4 characters at a time\r\n            for {} lt(dataPtr, endPtr) {}\r\n            {\r\n               // read 4 characters\r\n               dataPtr := add(dataPtr, 4)\r\n               let input := mload(dataPtr)\r\n\r\n               // write 3 bytes\r\n               let output := add(\r\n                   add(\r\n                       shl(18, and(mload(add(tablePtr, and(shr(24, input), 0xFF))), 0xFF)),\r\n                       shl(12, and(mload(add(tablePtr, and(shr(16, input), 0xFF))), 0xFF))),\r\n                   add(\r\n                       shl( 6, and(mload(add(tablePtr, and(shr( 8, input), 0xFF))), 0xFF)),\r\n                               and(mload(add(tablePtr, and(        input , 0xFF))), 0xFF)\r\n                    )\r\n                )\r\n                mstore(resultPtr, shl(232, output))\r\n                resultPtr := add(resultPtr, 3)\r\n            }\r\n        }\r\n\r\n        return result;\r\n    }\r\n}\r\n\r\nlibrary DigitsPaths {\r\n    \r\n    uint16 constant private smallheight = 2038; // needs div /10\r\n\r\n    function generate(uint256 tokenId) public pure returns (string memory) {\r\n        require(tokenId >= 0 && tokenId <= 9999, \"Token Id invalid\");\r\n        \r\n        if (tokenId <= 9)\r\n            return generateSingleDigit(tokenId);\r\n        else         \r\n            return generateMultiDigits(tokenId);\r\n    }\r\n\r\n    function generateSingleDigit(uint256 tokenId) private pure returns (string memory) {\r\n        require(tokenId >= 0 && tokenId <= 9, \"Token Id invalid\");\r\n        \r\n        if (tokenId == 0)\r\n            return \"<path d=' M 498.943 665.697 C 582.899 665.697 637.211 600.707 637.211 499.808 C 637.211 398.633 583.175 333.914 498.943 333.914 C 414.707 333.914 360.675 398.633 360.675 499.808 C 360.675 600.707 414.982 665.697 498.943 665.697 Z  M 498.943 590.443 C 465.665 590.443 447.268 558 447.268 499.808 C 447.268 441.611 465.665 409.169 498.943 409.169 C 531.946 409.169 550.614 441.887 550.614 500.079 C 550.614 558.276 532.222 590.443 498.943 590.443 Z ' fill='url(#digitColor)' />\";\r\n    \r\n        if (tokenId == 1)\r\n            return \"<path d=' M 423.537 343.5 L 423.537 415.082 L 470.362 415.082 L 470.362 659.375 L 555.459 659.375 L 555.459 343.5 L 423.537 343.5 Z ' fill='url(#digitColor)' />\";\r\n            \r\n        if (tokenId == 2)\r\n            return \"<path d=' M 524.712 587.458 C 592.271 509.202 606.977 478.688 606.977 438.94 C 606.977 379.636 560.712 338.439 493.709 338.439 C 424.549 338.439 382.687 380.657 382.687 444.526 L 382.687 450.368 L 466.187 450.368 L 466.187 444.265 C 466.187 425.25 476.998 413.29 494.73 413.29 C 510.908 413.29 522.194 424.775 522.194 441.904 C 522.194 469.022 504.69 493.247 377.595 643.147 L 377.595 662.375 L 612.53 662.375 L 612.53 587.458 L 524.712 587.458 Z ' fill='url(#digitColor)' />\";\r\n            \r\n        if (tokenId == 3)\r\n            return \"<path d=' M 541.66 455.005 L 605.063 353.511 L 605.063 339 L 388.315 339 L 388.315 411.001 L 494.335 411.001 L 442.898 495.565 L 442.898 513.168 L 493.495 513.168 C 518.076 513.168 533.765 527.489 533.765 550.579 C 533.765 573.664 518.627 589.558 497.034 589.558 C 476.262 589.558 462.416 574.762 461.466 552.494 L 380.388 552.494 C 382.288 617.882 428.952 662.19 496.834 662.19 C 566.141 662.19 615.926 616.186 615.926 551.947 C 615.926 503.027 586.951 466.366 541.665 455.005 L 541.66 455.005 Z ' fill='url(#digitColor)' />\";\r\n            \r\n        if (tokenId == 4)\r\n            return \"<path d=' M 626.556 531.847 L 598.014 531.847 L 598.014 462.278 L 541.099 462.278 L 522.574 531.847 L 472.053 531.847 L 550.29 343.5 L 466.401 343.5 L 365.211 587.175 L 365.211 602.622 L 516.851 602.622 L 516.851 659.375 L 598.019 659.375 L 598.019 602.622 L 626.561 602.622 L 626.556 531.847 Z ' fill='url(#digitColor)' />\";\r\n            \r\n        if (tokenId == 5)\r\n           return \"<path d=' M 497.603 446.539 L 468.21 446.539 L 472.191 410.496 L 594.314 410.496 L 594.314 338.495 L 407.035 338.495 L 389.389 503.163 L 397.45 513.599 L 495.761 513.599 C 518.922 513.599 534.815 529.089 534.815 551.775 C 534.815 573.164 519.672 589.058 498.9 589.058 C 477.654 589.058 462.582 573.715 462.582 552.269 L 381.561 552.269 C 381.561 616.365 430.068 661.69 498.9 661.69 C 567.79 661.69 616.976 615.947 616.976 551.78 C 616.976 489.844 568.341 446.548 497.608 446.548 L 497.603 446.539 Z ' fill='url(#digitColor)' />\";\r\n            \r\n        if (tokenId == 6)\r\n            return \"<path d=' M 520.855 440.333 C 513.701 440.333 506.766 440.827 499.955 441.867 C 520.793 407.04 541.816 372.355 562.612 337.5 L 471.383 337.5 L 413.319 435.378 C 386.862 479.686 377.191 511.739 377.191 544.125 C 377.191 613.057 428.405 660.69 502.952 660.69 C 577.08 660.69 628.162 612.986 628.162 543.721 C 628.162 482.665 584.072 440.333 520.855 440.333 L 520.855 440.333 Z  M 502.676 588.129 C 477.083 588.129 458.544 570.136 458.544 543.721 C 458.544 517.036 477.083 498.843 502.676 498.843 C 528.54 498.843 546.809 517.036 546.809 543.721 C 546.809 570.136 528.54 588.129 502.676 588.129 Z ' fill='url(#digitColor)' />\";\r\n            \r\n        if (tokenId == 7)\r\n            return \"<path d=' M 379.932 342.5 L 379.932 416.515 L 510.272 416.515 L 413.714 658.375 L 502.814 658.375 L 622.514 354.822 L 622.514 342.5 L 379.932 342.5 Z ' fill='url(#digitColor)' />\";\r\n            \r\n        if (tokenId == 8)\r\n            return \"<path d=' M 581.978 491.109 C 604.122 473.524 615.356 451.821 615.356 426.242 C 615.356 371.56 568.82 334.439 499.242 334.439 C 429.659 334.439 382.853 371.836 382.853 426.247 C 382.853 451.536 394.039 473.163 416.093 491.056 C 387.769 509.03 374.175 533.298 374.175 565.042 C 374.175 625.092 424.51 665.68 498.971 665.68 C 573.432 665.68 624.044 624.816 624.044 565.037 C 624.044 533.507 610.221 509.258 581.982 491.104 L 581.978 491.109 Z  M 499.247 397.234 C 520.636 397.234 535.176 410.548 535.176 428.812 C 535.176 447.081 520.636 460.395 499.247 460.395 C 477.858 460.395 463.047 447.081 463.047 428.812 C 463.047 410.548 477.858 397.234 499.247 397.234 Z  M 499.247 599.959 C 473.711 599.959 456.796 584.546 456.796 562.406 C 456.796 540.266 473.711 524.848 499.247 524.848 C 524.783 524.848 541.422 540.266 541.422 562.406 C 541.422 584.546 524.783 599.959 499.247 599.959 Z ' fill='url(#digitColor)' />\";\r\n            \r\n        if (tokenId == 9)\r\n            return \"<path d=' M 495.276 338.939 C 421.148 338.939 370.066 386.643 370.066 455.908 C 370.066 516.964 414.156 559.296 477.373 559.296 C 484.522 559.296 491.457 558.802 498.264 557.762 C 477.392 592.651 456.136 628.105 435.341 662.875 L 526.569 662.875 L 584.909 564.251 C 611.162 519.943 621.037 487.89 621.037 455.504 C 621.037 386.572 569.823 338.939 495.276 338.939 L 495.276 338.939 Z  M 495.552 501.332 C 468.32 501.332 449.23 482.864 449.23 455.908 C 449.23 429.218 468.32 410.954 495.552 410.954 C 522.513 410.954 541.874 429.218 541.874 455.908 C 541.874 482.864 522.513 501.332 495.552 501.332 Z ' fill='url(#digitColor)' />\";\r\n\r\n        return \"\";\r\n    }\r\n    \r\n    function generateMultiDigits(uint256 tokenId) private pure returns (string memory) {\r\n        require(tokenId >= 10 && tokenId <= 9999, \"Token Id invalid\");\r\n        \r\n        bytes memory stringBytes = bytes(Stringify.that(tokenId));\r\n        \r\n        string[] memory parts = new string[](stringBytes.length);\r\n        \r\n        for (uint16 i = 0; i < stringBytes.length; i++)\r\n        {\r\n            uint16 number = uint16(uint8(stringBytes[i])) - 48; // charIndex - 48 is the numeric value\r\n\r\n            (uint16 rectX, uint16 rectY, uint16 rectWidth, uint16 rectHeight) = getSmallDigitBounds(stringBytes.length, i);\r\n            \r\n            uint16 offsetX = ((rectX * 10) + (((rectWidth * 10) - getSmallDigitWidth(number) /* is x10 */) / 2)) / 10;\r\n            uint16 offsetY = ((rectY * 10) + (((rectHeight * 10) - smallheight /* is x10 */) / 2)) / 10;\r\n\r\n            parts[i] = string(abi.encodePacked(\"<path transform='translate(\", Stringify.that(offsetX), \", \", Stringify.that(offsetY), \")' \", getSmallDigitPath(number)));\r\n        }\r\n        \r\n        if (stringBytes.length == 2) \r\n            return string(abi.encodePacked(parts[0], parts[1]));\r\n        else if (stringBytes.length == 3)\r\n            return string(abi.encodePacked(parts[0], parts[1], parts[2]));\r\n        else\r\n            return string(abi.encodePacked(parts[0], parts[1], parts[2], parts[3]));\r\n    }\r\n\r\n\r\n    function getSmallDigitBounds(uint256 numberDigitCount, uint16 currentIndex) private pure returns (uint16 x, uint16 y, uint16 width, uint16 height) {\r\n\r\n        uint16 rectX = 0;\r\n        uint16 rectY = 0;\r\n        uint16 rectWidth = 0;\r\n        uint16 rectHeight = 0;\r\n        \r\n        if (numberDigitCount == 2) \r\n        {\r\n            rectX = currentIndex == 0 ? 210 : 490;\r\n            rectY = 200;\r\n            rectWidth = 300; // don't change the width, lets overlap them to center the paths perfectly\r\n            rectHeight = 600;\r\n        }\r\n        else if (numberDigitCount == 3)            \r\n        {\r\n            rectX = currentIndex == 2 ? 490 : 210;\r\n            rectY = currentIndex == 0 ? 210 : 490;\r\n            rectWidth = currentIndex == 0 ? 580 : 300; // to center, we need to change the width of the upper rect, don't change it of the lower two rects, let's overlap them to center the paths perfectly\r\n            rectHeight = 300;\r\n        }\r\n        else if (numberDigitCount == 4)            \r\n        {\r\n            rectX = (currentIndex == 0 || currentIndex == 2) ? 210 : 490;\r\n            rectY = (currentIndex == 0 || currentIndex == 1) ? 210 : 490;\r\n            rectWidth = 300;\r\n            rectHeight = 300;\r\n        }\r\n        \r\n        return (rectX, rectY, rectWidth, rectHeight);\r\n    }\r\n\r\n    // needs to be prefixed to be like: \"<path transform='translate(%ox%, %oy%)' \";\r\n    function getSmallDigitPath(uint256 tokenId) private pure returns (string memory) {\r\n        require(tokenId >= 0 && tokenId <= 9, \"Token Id invalid\");\r\n\r\n        if (tokenId == 0)\r\n            return \"d=' M 84.945 203.832 C 136.524 203.832 169.891 163.905 169.891 101.917 C 169.891 39.76 136.693 0 84.945 0 C 33.194 0 0 39.76 0 101.917 C 0 163.905 33.364 203.832 84.945 203.832 Z  M 84.945 157.599 C 64.501 157.599 53.198 137.668 53.198 101.917 C 53.198 66.164 64.501 46.233 84.945 46.233 C 105.221 46.233 116.689 66.333 116.689 102.084 C 116.689 137.837 105.39 157.599 84.945 157.599 Z ' fill='url(#digitColor)' />\";\r\n    \r\n        if (tokenId == 1)\r\n            return \"d=' M 0 0 L 0 46.192 L 30.21 46.192 L 30.21 203.832 L 85.11 203.832 L 85.11 0 L 0 0 Z ' fill='url(#digitColor)' />\";\r\n            \r\n        if (tokenId == 2)\r\n            return \"d=' M 92.554 156.667 C 135.056 107.433 144.308 88.236 144.308 63.229 C 144.308 25.918 115.202 0 73.049 0 C 29.539 0 3.203 26.561 3.203 66.743 L 3.203 70.419 L 55.735 70.419 L 55.735 66.579 C 55.735 54.616 62.536 47.091 73.692 47.091 C 83.87 47.091 90.97 54.317 90.97 65.093 C 90.97 82.154 79.958 97.395 0 191.703 L 0 203.8 L 147.801 203.8 L 147.801 156.667 L 92.554 156.667 Z ' fill='url(#digitColor)' />\";\r\n            \r\n        if (tokenId == 3)\r\n            return \"d=' M 101.712 73.163 L 141.7 9.152 L 141.7 0 L 5 0 L 5 45.41 L 71.865 45.41 L 39.424 98.744 L 39.424 109.846 L 71.335 109.846 C 86.838 109.846 96.733 118.878 96.733 133.44 C 96.733 148 87.186 158.024 73.567 158.024 C 60.467 158.024 51.734 148.692 51.135 134.648 L 0 134.648 C 1.198 175.888 30.629 203.832 73.441 203.832 C 117.152 203.832 148.551 174.818 148.551 134.303 C 148.551 103.45 130.277 80.329 101.715 73.163 L 101.712 73.163 Z ' fill='url(#digitColor)' />\";\r\n            \r\n        if (tokenId == 4)\r\n            return \"d=' M 168.644 121.539 L 150.226 121.539 L 150.226 76.647 L 113.499 76.647 L 101.545 121.539 L 68.944 121.539 L 119.43 0 L 65.297 0 L 0 157.242 L 0 167.21 L 97.852 167.21 L 97.852 203.832 L 150.229 203.832 L 150.229 167.21 L 168.647 167.21 L 168.644 121.539 Z ' fill='url(#digitColor)' />\";\r\n            \r\n        if (tokenId == 5)\r\n            return \"d=' M 73.174 68.13 L 54.639 68.13 L 57.149 45.402 L 134.157 45.402 L 134.157 0 L 16.064 0 L 4.936 103.836 L 10.019 110.417 L 72.012 110.417 C 86.617 110.417 96.639 120.185 96.639 134.49 C 96.639 147.977 87.09 158 73.992 158 C 60.594 158 51.09 148.325 51.09 134.801 L 0 134.801 C 0 175.219 30.588 203.8 73.992 203.8 C 117.432 203.8 148.448 174.956 148.448 134.493 C 148.448 95.438 117.779 68.136 73.177 68.136 L 73.174 68.13 Z ' fill='url(#digitColor)' />\";\r\n            \r\n        if (tokenId == 6)\r\n            return \"d=' M 90.593 64.845 C 86.082 64.845 81.709 65.157 77.413 65.813 C 90.554 43.851 103.811 21.979 116.924 0 L 59.397 0 L 22.782 61.721 C 6.098 89.661 0 109.873 0 130.295 C 0 173.763 32.295 203.8 79.303 203.8 C 126.048 203.8 158.26 173.718 158.26 130.041 C 158.26 91.539 130.457 64.845 90.593 64.845 L 90.593 64.845 Z  M 79.13 158.044 C 62.991 158.044 51.3 146.698 51.3 130.041 C 51.3 113.213 62.991 101.741 79.13 101.741 C 95.439 101.741 106.959 113.213 106.959 130.041 C 106.959 146.698 95.439 158.044 79.13 158.044 Z ' fill='url(#digitColor)' />\";\r\n            \r\n        if (tokenId == 7)\r\n            return \"d=' M 0 0 L 0 47.754 L 84.094 47.754 L 21.796 203.8 L 79.283 203.8 L 156.512 7.95 L 156.512 0 L 0 0 Z ' fill='url(#digitColor)' />\";\r\n            \r\n        if (tokenId == 8)\r\n            return \"d=' M 127.853 96.393 C 141.478 85.573 148.39 72.221 148.39 56.483 C 148.39 22.839 119.758 0 76.949 0 C 34.138 0 5.339 23.009 5.339 56.486 C 5.339 72.045 12.222 85.351 25.791 96.36 C 8.364 107.419 0 122.35 0 141.881 C 0 178.827 30.97 203.8 76.783 203.8 C 122.596 203.8 153.735 178.658 153.735 141.878 C 153.735 122.479 145.23 107.559 127.856 96.39 L 127.853 96.393 Z  M 76.952 38.635 C 90.112 38.635 99.058 46.827 99.058 58.064 C 99.058 69.304 90.112 77.496 76.952 77.496 C 63.792 77.496 54.68 69.304 54.68 58.064 C 54.68 46.827 63.792 38.635 76.952 38.635 Z  M 76.952 163.364 C 61.241 163.364 50.834 153.881 50.834 140.259 C 50.834 126.637 61.241 117.151 76.952 117.151 C 92.663 117.151 102.901 126.637 102.901 140.259 C 102.901 153.881 92.663 163.364 76.952 163.364 Z ' fill='url(#digitColor)' />\";\r\n            \r\n        if (tokenId == 9)\r\n            return \"d=' M 78.787 0 C 32.142 0 0 30.017 0 73.601 C 0 112.02 27.743 138.657 67.522 138.657 C 72.02 138.657 76.384 138.346 80.667 137.691 C 67.534 159.645 54.158 181.954 41.073 203.832 L 98.477 203.832 L 135.187 141.774 C 151.706 113.894 157.92 93.725 157.92 73.347 C 157.92 29.972 125.694 0 78.787 0 L 78.787 0 Z  M 78.96 102.184 C 61.825 102.184 49.813 90.563 49.813 73.601 C 49.813 56.806 61.825 45.314 78.96 45.314 C 95.925 45.314 108.107 56.806 108.107 73.601 C 108.107 90.563 95.925 102.184 78.96 102.184 Z ' fill='url(#digitColor)' />\";\r\n            \r\n        return \"\";\r\n    }\r\n    \r\n    // needs div /10\r\n    function getSmallDigitWidth(uint256 tokenId) public pure returns (uint16) {\r\n        require(tokenId >= 0 && tokenId <= 9, \"Token Id invalid\");\r\n\r\n        if (tokenId == 0)\r\n            return 1699;\r\n    \r\n        if (tokenId == 1)\r\n            return 851;\r\n            \r\n        if (tokenId == 2)\r\n            return 1478;\r\n            \r\n        if (tokenId == 3)\r\n            return 1486;\r\n            \r\n        if (tokenId == 4)\r\n            return 1686;\r\n            \r\n        if (tokenId == 5)\r\n            return 1484;\r\n            \r\n        if (tokenId == 6)\r\n            return 1583;\r\n            \r\n        if (tokenId == 7)\r\n            return 1565;\r\n            \r\n        if (tokenId == 8)\r\n            return 1537;\r\n            \r\n        if (tokenId == 9)\r\n            return 1579;\r\n            \r\n        return 0;\r\n    }\r\n}\r\n\r\n/**\r\n * @title Owner\r\n * @dev Set & change owner\r\n */\r\ncontract OG is ERC721Enumerable, ReentrancyGuard, Ownable {\r\n\r\n    address[] _supportedCollections;\r\n    mapping(address => string) private _supportedCollectionSlugs;\r\n    mapping(string => address) private _knownContractAddresses;\r\n\r\n\r\n    constructor() ERC721(\"OG\", \"OG\") Ownable() {\r\n        \r\n        _knownContractAddresses[\"gottoken\"] = address(0);\r\n        _knownContractAddresses[\"ogcolor\"] = address(0);\r\n    }\r\n\r\n    function addSupportedCollection(address contractAddress) public onlyOwner {\r\n         _supportedCollections.push(contractAddress);\r\n    }\r\n    \r\n    function getSupportedCollections() public view returns (address[] memory) {\r\n        return _supportedCollections;\r\n    }\r\n    \r\n    function setSupportedCollectionSlug(address contractAddress, string calldata base64EncodedSvgSlug) public onlyOwner {\r\n        _supportedCollectionSlugs[contractAddress] = string(Base64.decode(base64EncodedSvgSlug));\r\n    }\r\n\r\n    function setKnownContractAddresses(address gotTokenAddress, address ogColorAddress) public onlyOwner {\r\n        _knownContractAddresses[\"gottoken\"] = gotTokenAddress;\r\n        _knownContractAddresses[\"ogcolor\"] = ogColorAddress;\r\n    }\r\n    \r\n    function getKnownContractAddress(string calldata name) public view onlyOwner returns (address) {\r\n        return _knownContractAddresses[name];\r\n    }\r\n    \r\n    function _safeOwnerOf(uint256 tokenId) public view returns (address) {\r\n        \r\n        address ownerOfToken = address(0);\r\n                \r\n        try this.ownerOf(tokenId) returns (address a) {\r\n            ownerOfToken = a;\r\n        }\r\n        catch { }\r\n\r\n        return ownerOfToken;\r\n    }\r\n    \r\n    function getOwnedSupportedCollection(uint256 tokenId) public view returns (address) {\r\n        require(_knownContractAddresses[\"gottoken\"] != address(0), \"GotToken contract address not set\");\r\n        \r\n        address ownerOfToken = _safeOwnerOf(tokenId);\r\n        if (ownerOfToken == address(0))\r\n            return address(0);\r\n    \r\n        bool[] memory ownsTokens;\r\n        \r\n        GotTokenInterface gotTokenContract = GotTokenInterface(_knownContractAddresses[\"gottoken\"]);        \r\n        try gotTokenContract.ownsTokenOfContracts(ownerOfToken, _supportedCollections, tokenId) returns (bool[] memory returnValue) {\r\n            ownsTokens = returnValue;\r\n        }\r\n        catch { return address(0); }\r\n\r\n        // find the first contract which is owned\r\n        for (uint256 i = 0; i < ownsTokens.length; i++) {\r\n            if (ownsTokens[i])\r\n                return _supportedCollections[i];\r\n        }\r\n\r\n        return address(0);\r\n    }\r\n\r\n    function getColors(uint256 tokenId) public view returns (string memory backColor, string memory frameColor, string memory digitColor, string memory slugColor) {\r\n\r\n        address ownerOfToken = _safeOwnerOf(tokenId);\r\n        if (ownerOfToken != address(0)) {\r\n            if (_knownContractAddresses[\"ogcolor\"] != address(0)) {\r\n                OGColorInterface ogColorContract = OGColorInterface(_knownContractAddresses[\"ogcolor\"]);\r\n                try ogColorContract.getColors(ownerOfToken, tokenId) returns (string memory extBackColor, string memory extFrameColor, string memory extDigitColor, string memory extSlugColor) {\r\n                    return (extBackColor, extFrameColor, extDigitColor, extSlugColor);\r\n                }\r\n                catch { }\r\n            }\r\n        }\r\n        \r\n        return (\"#ffffff\", \"#000000\", \"#000000\", \"#ffffff\");\r\n    }\r\n\r\n    function renderSvg(uint256 tokenId) public virtual view returns (string memory) {\r\n        require(tokenId >= 0 && tokenId <= 9999, \"Token Id invalid\");\r\n        \r\n        (string memory backColor, string memory frameColor, string memory digitColor, string memory slugColor) = getColors(tokenId);\r\n        \r\n        address supportedCollection = getOwnedSupportedCollection(tokenId);\r\n        bool hasCollection = supportedCollection != address(0);\r\n\r\n        string[10] memory parts;\r\n\r\n        parts[0] = \"<svg xmlns='http://www.w3.org/2000/svg' width='1000' height='1000'>\";\r\n        \r\n        parts[1] = string(abi.encodePacked(\r\n            \"<defs>\"\r\n            \"<linearGradient id='backColor'><stop stop-color='\", backColor, \"'/></linearGradient>\", \r\n            \"<linearGradient id='frameColor'><stop stop-color='\", frameColor, \"'/></linearGradient>\",\r\n            \"<linearGradient id='digitColor'><stop stop-color='\", digitColor, \"'/></linearGradient>\",\r\n            \"<linearGradient id='slugColor'><stop stop-color='\", slugColor, \"'/></linearGradient>\",\r\n            \"</defs>\"));\r\n        \r\n        parts[2] = \"<mask id='_mask'>\";\r\n        \r\n        if (hasCollection)\r\n            parts[3] = \"<path id='path-0' d='M 504.28 105.614 C 804.145 105.541 991.639 430.111 841.768 689.836 C 691.898 949.563 317.067 949.655 167.072 690 C 26.805 447.185 181.324 140.169 459.907 108.16 Z' style='fill: none;'/>\";\r\n        else\r\n            parts[3] = \"\";\r\n            \r\n        parts[4] = string(abi.encodePacked(\"<circle cx='500' cy='500' r='450' fill='#ffffff' stroke='none' />\")); // don't apply colors here\r\n        parts[5] = \"</mask>\";\r\n        parts[6] = string(abi.encodePacked(\"<circle cx='500' cy='500' r='450' fill='url(#backColor)' mask='url(#_mask)' stroke-width='130' stroke='url(#frameColor)' stroke-linejoin='miter' stroke-linecap='square' stroke-miterlimit='3' />\"));\r\n        parts[7] = DigitsPaths.generate(tokenId);\r\n          \r\n        if (hasCollection)  \r\n            parts[8] = _supportedCollectionSlugs[supportedCollection];\r\n        else\r\n            parts[8] = \"\";\r\n            \r\n        parts[9] = \"</svg>\";\r\n        \r\n        return string(abi.encodePacked(parts[0], parts[1], parts[2], parts[3], parts[4], parts[5], parts[6], parts[7], parts[8], parts[9]));\r\n    }\r\n    \r\n    function tokenURI(uint256 tokenId) override public view returns (string memory) {\r\n        require(tokenId >= 0 && tokenId <= 9999, \"Token Id invalid\");\r\n    \r\n        string memory json = Base64.encode(bytes(string(abi.encodePacked('{\"name\": \"OG #', Stringify.that(tokenId), '\", \"description\": \"Crypto Natives.\", \"image\": \"data:image/svg+xml;base64,', Base64.encode(bytes(renderSvg(tokenId))), '\"}'))));\r\n        return string(abi.encodePacked('data:application/json;base64,', json));\r\n    }\r\n    \r\n    function claim(uint16 tokenId) public nonReentrant {\r\n        require(tokenId >= 0 && tokenId <= 9999, \"Token Id invalid\");\r\n        _safeMint(_msgSender(), tokenId);\r\n    }\r\n    \r\n}\r\n\r\n/**\r\n * The interface to access the GotToken contract to check of an address owns a given token of a given contract\r\n */\r\ninterface GotTokenInterface {\r\n    function ownsTokenOfContract(address possibleOwner, address contractAddress, uint256 tokenId) external view returns (bool);\r\n    function ownsTokenOfContracts(address possibleOwner, address[] calldata upToTenContractAddresses, uint256 tokenId) external view returns (bool[] memory);\r\n}\r\n\r\n\r\n/**\r\n * The interface to access the OGColor contract to get the colors to render the SVG\r\n */\r\ninterface OGColorInterface {\r\n    function getColors(address forAddress, uint256 tokenId) external view returns (string memory backColor, string memory frameColor, string memory digitColor, string memory slugColor);\r\n}",
  "sourcePath": "D:\\Develop\\GitHub\\OG+\\src\\contracts\\OG.sol",
  "compiler": {
    "name": "solc",
    "version": "0.8.0+commit.c7dfd78e.Emscripten.clang"
  },
  "schemaVersion": "3.4.3",
  "updatedAt": "2021-11-27T22:48:55.755Z",
  "networkType": "ethereum",
  "devdoc": {
    "kind": "dev",
    "methods": {},
    "version": 1
  },
  "userdoc": {
    "kind": "user",
    "methods": {},
    "version": 1
  }
}