{
  "contractName": "Digits",
  "abi": [
    {
      "inputs": [
        {
          "internalType": "uint256",
          "name": "tokenId",
          "type": "uint256"
        }
      ],
      "name": "getDigitWidth",
      "outputs": [
        {
          "internalType": "uint16",
          "name": "",
          "type": "uint16"
        }
      ],
      "stateMutability": "pure",
      "type": "function",
      "constant": true
    },
    {
      "inputs": [
        {
          "internalType": "uint16",
          "name": "number",
          "type": "uint16"
        },
        {
          "internalType": "uint256",
          "name": "numberDigitCount",
          "type": "uint256"
        },
        {
          "internalType": "uint16",
          "name": "scaleFactorTimesTen",
          "type": "uint16"
        },
        {
          "internalType": "uint16",
          "name": "currentIndex",
          "type": "uint16"
        }
      ],
      "name": "getDigitBounds",
      "outputs": [
        {
          "internalType": "uint16",
          "name": "x",
          "type": "uint16"
        },
        {
          "internalType": "uint16",
          "name": "y",
          "type": "uint16"
        }
      ],
      "stateMutability": "pure",
      "type": "function",
      "constant": true
    },
    {
      "inputs": [
        {
          "internalType": "uint256",
          "name": "tokenId",
          "type": "uint256"
        }
      ],
      "name": "generateDigits",
      "outputs": [
        {
          "internalType": "string",
          "name": "",
          "type": "string"
        }
      ],
      "stateMutability": "pure",
      "type": "function",
      "constant": true
    }
  ],
  "bytecode": "0x612804610053600b82828239805160001a607314610046577f4e487b7100000000000000000000000000000000000000000000000000000000600052600060045260246000fd5b30600052607381538281f3fe730000000000000000000000000000000000000000301460806040526004361061004b5760003560e01c80639c77036714610050578063ccd07e8d14610080578063f1fb19db146100b1575b600080fd5b61006a60048036038101906100659190610ef8565b6100e1565b6040516100779190611293565b60405180910390f35b61009a60048036038101906100959190610e95565b6101fb565b6040516100a89291906112ae565b60405180910390f35b6100cb60048036038101906100c69190610ef8565b6104ed565b6040516100d89190611251565b60405180910390f35b60008082101580156100f4575060098211155b610133576040517f08c379a000000000000000000000000000000000000000000000000000000000815260040161012a90611273565b60405180910390fd5b600082141561014657610b2f90506101f6565b60018214156101595761079890506101f6565b600282141561016c576109bb90506101f6565b600382141561017f576109c790506101f6565b600482141561019257610b1a90506101f6565b60058214156101a5576109c690506101f6565b60068214156101b857610a6b90506101f6565b60078214156101cb57610a4e90506101f6565b60088214156101de57610a1f90506101f6565b60098214156101f157610a6590506101f6565b600090505b919050565b6000806000606485610d6b61021091906113ff565b61021a919061139d565b9050600060648661022e8a61ffff166100e1565b61023891906113ff565b610242919061139d565b90506000603290506000602890506000606489610bb861026291906113ff565b61026c919061139d565b905060006002858361027e919061143b565b610288919061139d565b905060018b14156102d0576002856103e86102a3919061143b565b6102ad919061139d565b97506002866103e86102bf919061143b565b6102c9919061139d565b96506104de565b60028b141561034f57601e935060008961ffff16146103075783816101f56102f8919061130f565b610302919061130f565b61032c565b8381866101f4610317919061143b565b610321919061143b565b61032b919061143b565b5b97506002866103e861033e919061143b565b610348919061139d565b96506104dd565b60038b14156104275760008961ffff161415610386576002856103e8610375919061143b565b61037f919061139d565b97506103d8565b60018961ffff16146103b05783816101f56103a1919061130f565b6103ab919061130f565b6103d5565b8381866101f46103c0919061143b565b6103ca919061143b565b6103d4919061143b565b5b97505b60008961ffff16146103f757826101f56103f2919061130f565b610411565b82866101f4610406919061143b565b610410919061143b565b5b9650600f87610420919061143b565b96506104dc565b60048b14156104db5760008961ffff161480610447575060028961ffff16145b6104695783816101f561045a919061130f565b610464919061130f565b61048e565b8381866101f4610479919061143b565b610483919061143b565b61048d919061143b565b5b975060008961ffff1614806104a7575060018961ffff16145b6104be57826101f56104b9919061130f565b6104d8565b82866101f46104cd919061143b565b6104d7919061143b565b5b96505b5b5b5b50505050505094509492505050565b606060008210158015610502575061270f8211155b610541576040517f08c379a000000000000000000000000000000000000000000000000000000000815260040161053890611273565b60405180910390fd5b600061054c83610a6e565b90506000815167ffffffffffffffff811115610591577f4e487b7100000000000000000000000000000000000000000000000000000000600052604160045260246000fd5b6040519080825280602002602001820160405280156105c457816020015b60608152602001906001900390816105af5790505b50905060005b82518161ffff1610156107335760006030848361ffff1681518110610618577f4e487b7100000000000000000000000000000000000000000000000000000000600052603260045260246000fd5b602001015160f81c60f81b60f81c60ff16610633919061143b565b905060006106418551610c1b565b905060008061065384885185886101fb565b9150915060006106668461ffff16610a6e565b60405160200161067691906111ad565b60405160208183030381529060405290506106948361ffff16610a6e565b6106a18361ffff16610a6e565b82836106b08961ffff16610c4b565b6040516020016106c49594939291906111cf565b604051602081830303815290604052878761ffff1681518110610710577f4e487b7100000000000000000000000000000000000000000000000000000000600052603260045260246000fd5b60200260200101819052505050505050808061072b906114ee565b9150506105ca565b506001825114156107895780600081518110610778577f4e487b7100000000000000000000000000000000000000000000000000000000600052603260045260246000fd5b602002602001015192505050610a69565b60028251141561084057806000815181106107cd577f4e487b7100000000000000000000000000000000000000000000000000000000600052603260045260246000fd5b60200260200101518160018151811061080f577f4e487b7100000000000000000000000000000000000000000000000000000000600052603260045260246000fd5b602002602001015160405160200161082892919061111a565b60405160208183030381529060405292505050610a69565b60038251141561093a5780600081518110610884577f4e487b7100000000000000000000000000000000000000000000000000000000600052603260045260246000fd5b6020026020010151816001815181106108c6577f4e487b7100000000000000000000000000000000000000000000000000000000600052603260045260246000fd5b602002602001015182600281518110610908577f4e487b7100000000000000000000000000000000000000000000000000000000600052603260045260246000fd5b60200260200101516040516020016109229392919061113e565b60405160208183030381529060405292505050610a69565b80600081518110610974577f4e487b7100000000000000000000000000000000000000000000000000000000600052603260045260246000fd5b6020026020010151816001815181106109b6577f4e487b7100000000000000000000000000000000000000000000000000000000600052603260045260246000fd5b6020026020010151826002815181106109f8577f4e487b7100000000000000000000000000000000000000000000000000000000600052603260045260246000fd5b602002602001015183600381518110610a3a577f4e487b7100000000000000000000000000000000000000000000000000000000600052603260045260246000fd5b6020026020010151604051602001610a55949392919061116f565b604051602081830303815290604052925050505b919050565b60606000821415610ab6576040518060400160405280600181526020017f30000000000000000000000000000000000000000000000000000000000000008152509050610c16565b600082905060005b60008214610ae8578080610ad190611519565b915050600a82610ae191906113ce565b9150610abe565b60008167ffffffffffffffff811115610b2a577f4e487b7100000000000000000000000000000000000000000000000000000000600052604160045260246000fd5b6040519080825280601f01601f191660200182016040528015610b5c5781602001600182028036833780820191505090505b5090505b60008514610c0f57600182610b75919061146f565b9150600a85610b849190611562565b6030610b909190611347565b60f81b818381518110610bcc577f4e487b7100000000000000000000000000000000000000000000000000000000600052603260045260246000fd5b60200101907effffffffffffffffffffffffffffffffffffffffffffffffffffffffffffff1916908160001a905350600a85610c0891906113ce565b9450610b60565b8093505050505b919050565b60006001821415610c2f5760099050610c46565b6002821415610c415760079050610c46565b600690505b919050565b606060008210158015610c5f575060098211155b610c9e576040517f08c379a0000000000000000000000000000000000000000000000000000000008152600401610c9590611273565b60405180910390fd5b6000821415610cca57604051806101c0016040528061019d815260200161197e61019d91399050610e66565b6001821415610cf657604051806101600160405280610139815260200161246861013991399050610e66565b6002821415610d2257604051806101e001604052806101a281526020016117dc6101a291399050610e66565b6003821415610d4e576040518061022001604052806101e88152602001611b1b6101e891399050610e66565b6004821415610d7a5760405180610160016040528061012581526020016116b761012591399050610e66565b6005821415610da6576040518061022001604052806101e881526020016122806101e891399050610e66565b6006821415610dd2576040518061026001604052806102408152602001611d0361024091399050610e66565b6007821415610dfb576040518060c0016040528060868152602001611631608691399050610e66565b6008821415610e275760405180610360016040528061033d8152602001611f4361033d91399050610e66565b6009821415610e535760405180610260016040528061022e81526020016125a161022e91399050610e66565b6040518060200160405280600081525090505b919050565b600081359050610e7a81611602565b92915050565b600081359050610e8f81611619565b92915050565b60008060008060808587031215610eab57600080fd5b6000610eb987828801610e6b565b9450506020610eca87828801610e80565b9350506040610edb87828801610e6b565b9250506060610eec87828801610e6b565b91505092959194509250565b600060208284031215610f0a57600080fd5b6000610f1884828501610e80565b91505092915050565b6000610f2c826112d7565b610f3681856112f3565b9350610f468185602086016114bb565b610f4f816115f1565b840191505092915050565b6000610f65826112d7565b610f6f8185611304565b9350610f7f8185602086016114bb565b80840191505092915050565b6000610f98600883611304565b91507f29207363616c65280000000000000000000000000000000000000000000000006000830152600882019050919050565b6000610fd8600283611304565b91507f302e0000000000000000000000000000000000000000000000000000000000006000830152600282019050919050565b6000611018601b83611304565b91507f3c70617468207472616e73666f726d3d277472616e736c6174652800000000006000830152601b82019050919050565b60006110586010836112e2565b91507f546f6b656e20496420696e76616c6964000000000000000000000000000000006000830152602082019050919050565b6000611098600283611304565b91507f2c200000000000000000000000000000000000000000000000000000000000006000830152600282019050919050565b60006110d8600383611304565b91507f29272000000000000000000000000000000000000000000000000000000000006000830152600382019050919050565b611114816114a3565b82525050565b60006111268285610f5a565b91506111328284610f5a565b91508190509392505050565b600061114a8286610f5a565b91506111568285610f5a565b91506111628284610f5a565b9150819050949350505050565b600061117b8287610f5a565b91506111878286610f5a565b91506111938285610f5a565b915061119f8284610f5a565b915081905095945050505050565b60006111b882610fcb565b91506111c48284610f5a565b915081905092915050565b60006111da8261100b565b91506111e68288610f5a565b91506111f18261108b565b91506111fd8287610f5a565b915061120882610f8b565b91506112148286610f5a565b915061121f8261108b565b915061122b8285610f5a565b9150611236826110cb565b91506112428284610f5a565b91508190509695505050505050565b6000602082019050818103600083015261126b8184610f21565b905092915050565b6000602082019050818103600083015261128c8161104b565b9050919050565b60006020820190506112a8600083018461110b565b92915050565b60006040820190506112c3600083018561110b565b6112d0602083018461110b565b9392505050565b600081519050919050565b600082825260208201905092915050565b600082825260208201905092915050565b600081905092915050565b600061131a826114a3565b9150611325836114a3565b92508261ffff0382111561133c5761133b611593565b5b828201905092915050565b6000611352826114b1565b915061135d836114b1565b9250827fffffffffffffffffffffffffffffffffffffffffffffffffffffffffffffffff0382111561139257611391611593565b5b828201905092915050565b60006113a8826114a3565b91506113b3836114a3565b9250826113c3576113c26115c2565b5b828204905092915050565b60006113d9826114b1565b91506113e4836114b1565b9250826113f4576113f36115c2565b5b828204905092915050565b600061140a826114a3565b9150611415836114a3565b92508161ffff04831182151516156114305761142f611593565b5b828202905092915050565b6000611446826114a3565b9150611451836114a3565b92508282101561146457611463611593565b5b828203905092915050565b600061147a826114b1565b9150611485836114b1565b92508282101561149857611497611593565b5b828203905092915050565b600061ffff82169050919050565b6000819050919050565b60005b838110156114d95780820151818401526020810190506114be565b838111156114e8576000848401525b50505050565b60006114f9826114a3565b915061ffff82141561150e5761150d611593565b5b600182019050919050565b6000611524826114b1565b91507fffffffffffffffffffffffffffffffffffffffffffffffffffffffffffffffff82141561155757611556611593565b5b600182019050919050565b600061156d826114b1565b9150611578836114b1565b925082611588576115876115c2565b5b828206905092915050565b7f4e487b7100000000000000000000000000000000000000000000000000000000600052601160045260246000fd5b7f4e487b7100000000000000000000000000000000000000000000000000000000600052601260045260246000fd5b6000601f19601f8301169050919050565b61160b816114a3565b811461161657600080fd5b50565b611622816114b1565b811461162d57600080fd5b5056fe643d27204d20302030204c20302038302e343837204c203134312e3733392038302e343837204c2033362e373336203334332e35204c203133332e363239203334332e35204c203236332e3739382031332e333939204c203236332e3739382030204c20302030205a20272066696c6c3d2775726c28236469676974436f6c6f722927202f3e643d27204d203238342e323031203230342e383139204c203235332e313632203230342e383139204c203235332e313632203132392e313636204c203139312e3237203132392e313636204c203137312e313235203230342e383139204c203131362e313836203230342e383139204c203230312e3236352030204c203131302e3033392030204c2030203236342e393836204c2030203238312e373834204c203136342e393031203238312e373834204c203136342e393031203334332e35204c203235332e313637203334332e35204c203235332e313637203238312e373834204c203238342e323036203238312e373834204c203238342e323031203230342e383139205a20272066696c6c3d2775726c28236469676974436f6c6f722927202f3e643d27204d203135362e303032203236342e3035382043203232372e363432203138312e303736203234332e323336203134382e373139203234332e323336203130362e35372043203234332e3233362034332e363835203139342e3137372030203132332e313237203020432034392e3739203020352e342034342e37363820352e34203131322e343934204c20352e34203131382e363839204c2039332e393433203131382e363839204c2039332e393433203131322e32313720432039332e3934332039322e303534203130352e3430372037392e333731203132342e3230392037392e3337312043203134312e3336352037392e333731203135332e3333332039312e3535203135332e333333203130392e3731332043203135332e333333203133382e343639203133342e373732203136342e3135372030203332332e313131204c2030203334332e35204c203234392e313234203334332e35204c203234392e313234203236342e303538204c203135362e303032203236342e303538205a20272066696c6c3d2775726c28236469676974436f6c6f722927202f3e643d27204d203134332e313531203334332e352043203233302e303732203334332e35203238362e333032203237362e323135203238362e333032203137312e3735322043203238362e3330322036372e303034203233302e3335372030203134332e313531203020432035352e393339203020302036372e3030342030203137312e37353220432030203237362e3231352035362e323235203334332e35203134332e313531203334332e35205a20204d203134332e313531203236352e3538382043203130382e363937203236352e3538382038392e363531203233322038392e363531203137312e37353220432038392e363531203131312e35203130382e3639372037372e393132203134332e3135312037372e3931322043203137372e3331392037372e393132203139362e363436203131312e373835203139362e363436203137322e3033332043203139362e363436203233322e323835203137372e363035203236352e353838203134332e313531203236352e353838205a20272066696c6c3d2775726c28236469676974436f6c6f722927202f3e643d27204d203137312e343037203132332e323934204c203233382e3739342031352e343233204c203233382e3739342030204c20382e3432362030204c20382e3432362037362e353235204c203132312e3130382037362e353235204c2036362e343338203136362e343034204c2036362e343338203138352e313133204c203132302e323135203138352e3131332043203134362e333431203138352e313133203136332e303136203230302e333335203136332e303136203232342e3837352043203136332e303136203234392e343131203134362e393237203236362e333033203132332e393736203236362e3330332043203130312e383939203236362e3330332038372e313833203235302e3537372038362e313733203232362e3931204c2030203232362e3931204320322e303139203239362e3430382035312e363136203334332e35203132332e373634203334332e352043203139372e343237203334332e35203235302e3334203239342e363035203235302e3334203232362e3332392043203235302e3334203137342e333335203231392e353434203133352e3337203137312e343132203132332e323934204c203137312e343037203132332e323934205a20272066696c6c3d2775726c28236469676974436f6c6f722927202f3e643d27204d203135322e363932203130392e3239352043203134352e303839203130392e323935203133372e373138203130392e3832203133302e343739203131302e3932362043203135322e3632362037332e3931203137342e3937312033372e303436203139372e3037332030204c203130302e3131322030204c2033382e333939203130342e30323920432031302e323739203135312e3132322030203138352e3138392030203231392e363120432030203239322e3837342035342e343333203334332e35203133332e363634203334332e352043203231322e343531203334332e35203236362e373433203239322e373938203236362e373433203231392e3138312043203236362e373433203135342e323837203231392e383832203130392e323935203135322e363932203130392e323935204c203135322e363932203130392e323935205a20204d203133332e333731203236362e3337392043203130362e3137203236362e3337392038362e343636203234372e3235352038362e343636203231392e31383120432038362e343636203139302e383138203130362e3137203137312e343832203133332e333731203137312e3438322043203136302e3836203137312e343832203138302e323737203139302e383138203138302e323737203231392e3138312043203138302e323737203234372e323535203136302e3836203236362e333739203133332e333731203236362e333739205a20272066696c6c3d2775726c28236469676974436f6c6f722927202f3e643d27204d203231352e343933203136322e3436372043203233382e343538203134342e323332203235302e313037203132312e373236203235302e3130372039352e3230312043203235302e3130372033382e343935203230312e3834392030203132392e363936203020432035372e353338203020382e3939392033382e37383120382e3939392039352e323036204320382e393939203132312e3433312032302e36203134332e3835382034332e3437203136322e34313320432031342e303938203138312e3035322030203230362e3231382030203233392e31333720432030203330312e3430392035322e313939203334332e35203132392e343135203334332e352043203230362e363332203334332e35203235392e313136203330312e313233203235392e313136203233392e3133322043203235392e313136203230362e343335203234342e373832203138312e323839203231352e343938203136322e343632204c203231352e343933203136322e343637205a20204d203132392e3730312036352e3131392043203135312e3838322036352e313139203136362e39362037382e393236203136362e39362039372e3836362043203136362e3936203131362e3831203135312e383832203133302e363137203132392e373031203133302e3631372043203130372e3532203133302e3631372039322e313632203131362e38312039322e3136322039372e38363620432039322e3136322037382e393236203130372e35322036352e313139203132392e3730312036352e313139205a20204d203132392e373031203237352e3334372043203130332e3232203237352e3334372038352e363739203235392e3336332038352e363739203233362e34303320432038352e363739203231332e343434203130332e3232203139372e343535203132392e373031203139372e3435352043203135362e313832203139372e343535203137332e343337203231332e343434203137332e343337203233362e3430332043203137332e343337203235392e333633203135362e313832203237352e333437203132392e373031203237352e333437205a20272066696c6c3d2775726c28236469676974436f6c6f722927202f3e643d27204d203132332e333333203131342e383332204c2039322e303933203131342e383332204c2039362e3332342037362e353234204c203232362e3131392037362e353234204c203232362e3131392030204c2032372e3037352030204c20382e3332203137352e303134204c2031362e383837203138362e313035204c203132312e333734203138362e3130352043203134352e3939203138362e313035203136322e383832203230322e353638203136322e383832203232362e3637392043203136322e383832203234392e343132203134362e373838203236362e333034203132342e373131203236362e3330342043203130322e3133203236362e3330342038362e313131203234392e3939382038362e313131203232372e323034204c2030203232372e32303420432030203239352e3332382035312e353535203334332e35203132342e373131203334332e352043203139372e393239203334332e35203235302e323035203239342e383834203235302e323035203232362e3638342043203235302e323035203136302e383538203139382e353134203131342e383432203132332e333338203131342e383432204c203132332e333333203131342e383332205a20272066696c6c3d2775726c28236469676974436f6c6f722927202f3e643d27204d20302030204c20302037372e383433204c2035302e3932312037372e383433204c2035302e393231203334332e35204c203134332e343539203334332e35204c203134332e3435392030204c20302030205a20204d2030203334332e35204c2030203236352e363537204c2035302e393231203236352e363537204c2035302e3932312030204c203134332e3435392030204c203134332e343539203334332e35204c2030203334332e35205a20204d203139342e3338203334332e35204c203139342e3338203236352e363537204c203134332e343539203236352e363537204c203134332e3435392030204c2035302e3932312030204c2035302e393231203334332e35204c203139342e3338203334332e35205a20272066696c6c3d2775726c28236469676974436f6c6f722927202f3e643d27204d203133322e373732203020432035342e313637203020302035302e3538352030203132342e30333320432030203138382e3737372034362e373532203233332e363636203131332e373838203233332e3636362043203132312e333639203233332e363636203132382e373232203233332e313432203133352e3934203233322e3033392043203131332e383038203236392e3033352039312e323638203330362e36332036392e323137203334332e35204c203136352e393535203334332e35204c203232372e383138203233382e3931392043203235352e363537203139312e393335203236362e313238203135372e393436203236362e313238203132332e3630352043203236362e3132382035302e3531203231312e3832312030203133322e3737322030204c203133322e3737322030205a20204d203133332e303634203137322e3230312043203130342e313838203137322e3230312038332e393435203135322e3631372038332e393435203132342e30333320432038332e3934352039352e373331203130342e3138382037362e333634203133332e3036342037362e3336342043203136312e3635342037362e333634203138322e3138342039352e373331203138322e313834203132342e3033332043203138322e313834203135322e363137203136312e363534203137322e323031203133332e303634203137322e323031205a20272066696c6c3d2775726c28236469676974436f6c6f722927202f3ea26469706673582212201186ddcbde069219a1a6dde3a8c042be38be3f7a95369ca0708158d7c1cf861564736f6c63430008000033",
  "immutableReferences": {},
  "source": "// SPDX-License-Identifier: MIT\r\n\r\npragma solidity 0.8.0;\r\n\r\nimport '@openzeppelin/contracts/utils/Strings.sol';\r\n\r\nlibrary Digits {\r\n \r\n    uint16 constant private _digitheight = 3435; // needs div /10 // 4er-2061 * 0.6 3er evtl *.8\r\n\r\n    // needs to be prefixed to be like: \"<path transform='translate(%x%, %y%) scale(%x%, %y%)' \";\r\n    function getDigitPath(uint256 tokenId) private pure returns (string memory) {\r\n        require(tokenId >= 0 && tokenId <= 9, \"Token Id invalid\");\r\n        \r\n        if (tokenId == 0)\r\n            return \"d=' M 143.151 343.5 C 230.072 343.5 286.302 276.215 286.302 171.752 C 286.302 67.004 230.357 0 143.151 0 C 55.939 0 0 67.004 0 171.752 C 0 276.215 56.225 343.5 143.151 343.5 Z  M 143.151 265.588 C 108.697 265.588 89.651 232 89.651 171.752 C 89.651 111.5 108.697 77.912 143.151 77.912 C 177.319 77.912 196.646 111.785 196.646 172.033 C 196.646 232.285 177.605 265.588 143.151 265.588 Z ' fill='url(#digitColor)' />\";\r\n    \r\n        if (tokenId == 1)\r\n            return \"d=' M 0 0 L 0 77.843 L 50.921 77.843 L 50.921 343.5 L 143.459 343.5 L 143.459 0 L 0 0 Z  M 0 343.5 L 0 265.657 L 50.921 265.657 L 50.921 0 L 143.459 0 L 143.459 343.5 L 0 343.5 Z  M 194.38 343.5 L 194.38 265.657 L 143.459 265.657 L 143.459 0 L 50.921 0 L 50.921 343.5 L 194.38 343.5 Z ' fill='url(#digitColor)' />\";\r\n            \r\n        if (tokenId == 2)\r\n            return \"d=' M 156.002 264.058 C 227.642 181.076 243.236 148.719 243.236 106.57 C 243.236 43.685 194.177 0 123.127 0 C 49.79 0 5.4 44.768 5.4 112.494 L 5.4 118.689 L 93.943 118.689 L 93.943 112.217 C 93.943 92.054 105.407 79.371 124.209 79.371 C 141.365 79.371 153.333 91.55 153.333 109.713 C 153.333 138.469 134.772 164.157 0 323.111 L 0 343.5 L 249.124 343.5 L 249.124 264.058 L 156.002 264.058 Z ' fill='url(#digitColor)' />\";\r\n            \r\n        if (tokenId == 3)\r\n            return \"d=' M 171.407 123.294 L 238.794 15.423 L 238.794 0 L 8.426 0 L 8.426 76.525 L 121.108 76.525 L 66.438 166.404 L 66.438 185.113 L 120.215 185.113 C 146.341 185.113 163.016 200.335 163.016 224.875 C 163.016 249.411 146.927 266.303 123.976 266.303 C 101.899 266.303 87.183 250.577 86.173 226.91 L 0 226.91 C 2.019 296.408 51.616 343.5 123.764 343.5 C 197.427 343.5 250.34 294.605 250.34 226.329 C 250.34 174.335 219.544 135.37 171.412 123.294 L 171.407 123.294 Z ' fill='url(#digitColor)' />\";\r\n            \r\n        if (tokenId == 4)\r\n            return \"d=' M 284.201 204.819 L 253.162 204.819 L 253.162 129.166 L 191.27 129.166 L 171.125 204.819 L 116.186 204.819 L 201.265 0 L 110.039 0 L 0 264.986 L 0 281.784 L 164.901 281.784 L 164.901 343.5 L 253.167 343.5 L 253.167 281.784 L 284.206 281.784 L 284.201 204.819 Z ' fill='url(#digitColor)' />\";\r\n            \r\n        if (tokenId == 5)\r\n           return \"d=' M 123.333 114.832 L 92.093 114.832 L 96.324 76.524 L 226.119 76.524 L 226.119 0 L 27.075 0 L 8.32 175.014 L 16.887 186.105 L 121.374 186.105 C 145.99 186.105 162.882 202.568 162.882 226.679 C 162.882 249.412 146.788 266.304 124.711 266.304 C 102.13 266.304 86.111 249.998 86.111 227.204 L 0 227.204 C 0 295.328 51.555 343.5 124.711 343.5 C 197.929 343.5 250.205 294.884 250.205 226.684 C 250.205 160.858 198.514 114.842 123.338 114.842 L 123.333 114.832 Z ' fill='url(#digitColor)' />\";\r\n            \r\n        if (tokenId == 6)\r\n            return \"d=' M 152.692 109.295 C 145.089 109.295 137.718 109.82 130.479 110.926 C 152.626 73.91 174.971 37.046 197.073 0 L 100.112 0 L 38.399 104.029 C 10.279 151.122 0 185.189 0 219.61 C 0 292.874 54.433 343.5 133.664 343.5 C 212.451 343.5 266.743 292.798 266.743 219.181 C 266.743 154.287 219.882 109.295 152.692 109.295 L 152.692 109.295 Z  M 133.371 266.379 C 106.17 266.379 86.466 247.255 86.466 219.181 C 86.466 190.818 106.17 171.482 133.371 171.482 C 160.86 171.482 180.277 190.818 180.277 219.181 C 180.277 247.255 160.86 266.379 133.371 266.379 Z ' fill='url(#digitColor)' />\";\r\n            \r\n        if (tokenId == 7)\r\n            return \"d=' M 0 0 L 0 80.487 L 141.739 80.487 L 36.736 343.5 L 133.629 343.5 L 263.798 13.399 L 263.798 0 L 0 0 Z ' fill='url(#digitColor)' />\";\r\n            \r\n        if (tokenId == 8)\r\n            return \"d=' M 215.493 162.467 C 238.458 144.232 250.107 121.726 250.107 95.201 C 250.107 38.495 201.849 0 129.696 0 C 57.538 0 8.999 38.781 8.999 95.206 C 8.999 121.431 20.6 143.858 43.47 162.413 C 14.098 181.052 0 206.218 0 239.137 C 0 301.409 52.199 343.5 129.415 343.5 C 206.632 343.5 259.116 301.123 259.116 239.132 C 259.116 206.435 244.782 181.289 215.498 162.462 L 215.493 162.467 Z  M 129.701 65.119 C 151.882 65.119 166.96 78.926 166.96 97.866 C 166.96 116.81 151.882 130.617 129.701 130.617 C 107.52 130.617 92.162 116.81 92.162 97.866 C 92.162 78.926 107.52 65.119 129.701 65.119 Z  M 129.701 275.347 C 103.22 275.347 85.679 259.363 85.679 236.403 C 85.679 213.444 103.22 197.455 129.701 197.455 C 156.182 197.455 173.437 213.444 173.437 236.403 C 173.437 259.363 156.182 275.347 129.701 275.347 Z ' fill='url(#digitColor)' />\";\r\n            \r\n        if (tokenId == 9)\r\n            return \"d=' M 132.772 0 C 54.167 0 0 50.585 0 124.033 C 0 188.777 46.752 233.666 113.788 233.666 C 121.369 233.666 128.722 233.142 135.94 232.039 C 113.808 269.035 91.268 306.63 69.217 343.5 L 165.955 343.5 L 227.818 238.919 C 255.657 191.935 266.128 157.946 266.128 123.605 C 266.128 50.51 211.821 0 132.772 0 L 132.772 0 Z  M 133.064 172.201 C 104.188 172.201 83.945 152.617 83.945 124.033 C 83.945 95.731 104.188 76.364 133.064 76.364 C 161.654 76.364 182.184 95.731 182.184 124.033 C 182.184 152.617 161.654 172.201 133.064 172.201 Z ' fill='url(#digitColor)' />\";\r\n\r\n        return \"\";\r\n    }\r\n\r\n    // needs div /10\r\n    function getDigitWidth(uint256 tokenId) public pure returns (uint16) {\r\n        require(tokenId >= 0 && tokenId <= 9, \"Token Id invalid\");\r\n\r\n        if (tokenId == 0)\r\n            return 2863;\r\n    \r\n        if (tokenId == 1)\r\n            return 1944;\r\n            \r\n        if (tokenId == 2)\r\n            return 2491;\r\n            \r\n        if (tokenId == 3)\r\n            return 2503;\r\n            \r\n        if (tokenId == 4)\r\n            return 2842;\r\n            \r\n        if (tokenId == 5)\r\n            return 2502;\r\n            \r\n        if (tokenId == 6)\r\n            return 2667;\r\n            \r\n        if (tokenId == 7)\r\n            return 2638;\r\n            \r\n        if (tokenId == 8)\r\n            return 2591;\r\n            \r\n        if (tokenId == 9)\r\n            return 2661;\r\n            \r\n        return 0;\r\n    }\r\n\r\n    function getScaleFactor(uint256 numberCharCount) private pure returns (uint16) {\r\n        \r\n        if (numberCharCount == 1)\r\n            return 9;\r\n\r\n        if (numberCharCount == 2)\r\n            return 7;\r\n        \r\n        return 6;\r\n    }\r\n\r\n    function getDigitBounds(uint16 number, uint256 numberDigitCount, uint16 scaleFactorTimesTen, uint16 currentIndex) public pure returns (uint16 x, uint16 y) {\r\n\r\n        uint16 height = (_digitheight /* is x10 */ * scaleFactorTimesTen) / 100;\r\n        uint16 width = (getDigitWidth(number) /* is x10 */ * scaleFactorTimesTen) / 100;\r\n        uint16 distanceX = 50;\r\n        uint16 distanceY = 40;\r\n        uint16 alignWidth = (3000 /* is x10 */ * scaleFactorTimesTen) / 100;\r\n        uint16 deltaX = (alignWidth - width) / 2;\r\n\r\n        if (numberDigitCount == 1) \r\n        {\r\n            x = (1000 - width) / 2;\r\n            y = (1000 - height) / 2;\r\n        }        \r\n        else if (numberDigitCount == 2) \r\n        {\r\n            distanceX = 30;\r\n            x = (currentIndex == 0) ? 500 - width - deltaX - distanceX : 501 + deltaX + distanceX;\r\n            y = (1000 - height) / 2;\r\n        }\r\n        else if (numberDigitCount == 3)            \r\n        {\r\n            if (currentIndex == 0)\r\n                x = (1000 - width) / 2;\r\n            else\r\n                x = (currentIndex == 1) ? 500 - width - deltaX - distanceX : 501 + deltaX + distanceX;\r\n            y = (currentIndex == 0) ? 500 - height - distanceY : 501 + distanceY;\r\n            y -= 15; // -15 to the top because with three chars it seems like the text is too far away from the top while mathematically it would be correct \r\n        }\r\n        else if (numberDigitCount == 4)\r\n        {\r\n            x = (currentIndex == 0 || currentIndex == 2) ? 500 - width - deltaX - distanceX : 501 + deltaX + distanceX;\r\n            y = (currentIndex == 0 || currentIndex == 1) ? 500 - height - distanceY : 501 + distanceY;\r\n        }\r\n    }\r\n\r\n    function generateDigits(uint256 tokenId) public pure returns (string memory) {\r\n        require(tokenId >= 0 && tokenId <= 9999, \"Token Id invalid\");\r\n        \r\n        bytes memory stringBytes = bytes(Strings.toString(tokenId));\r\n        \r\n        string[] memory parts = new string[](stringBytes.length);\r\n        \r\n        for (uint16 i = 0; i < stringBytes.length; i++)\r\n        {\r\n            uint16 number = uint16(uint8(stringBytes[i])) - 48; // charIndex - 48 is the numeric value\r\n\r\n            uint16 scaleFactor = getScaleFactor(stringBytes.length);\r\n            (uint16 rectX, uint16 rectY) = getDigitBounds(number, stringBytes.length, scaleFactor, i);\r\n\r\n            string memory scaleFactorString = string(abi.encodePacked(\"0.\", Strings.toString(scaleFactor)));\r\n            parts[i] = string(abi.encodePacked(\"<path transform='translate(\", Strings.toString(rectX), \", \", Strings.toString(rectY), \") scale(\", scaleFactorString, \", \", scaleFactorString, \")' \", getDigitPath(number)));\r\n        }\r\n\r\n        if (stringBytes.length == 1) \r\n            return parts[0];        \r\n        if (stringBytes.length == 2) \r\n            return string(abi.encodePacked(parts[0], parts[1]));\r\n        else if (stringBytes.length == 3)\r\n            return string(abi.encodePacked(parts[0], parts[1], parts[2]));\r\n        else\r\n            return string(abi.encodePacked(parts[0], parts[1], parts[2], parts[3]));\r\n    }\r\n}",
  "sourcePath": "D:\\Develop\\GitHub\\OG+\\src\\contracts\\libs\\Digits.sol",
  "compiler": {
    "name": "solc",
    "version": "0.8.0+commit.c7dfd78e.Emscripten.clang"
  },
  "schemaVersion": "3.4.3",
  "updatedAt": "2022-01-03T18:10:29.240Z",
  "networkType": "ethereum",
  "devdoc": {
    "kind": "dev",
    "methods": {},
    "version": 1
  },
  "userdoc": {
    "kind": "user",
    "methods": {},
    "version": 1
  }
}