{
  "contractName": "GotToken",
  "abi": [
    {
      "inputs": [
        {
          "internalType": "address",
          "name": "possibleOwner",
          "type": "address"
        },
        {
          "internalType": "address",
          "name": "contractAddress",
          "type": "address"
        },
        {
          "internalType": "uint256",
          "name": "tokenId",
          "type": "uint256"
        }
      ],
      "name": "ownsTokenOfContract",
      "outputs": [
        {
          "internalType": "bool",
          "name": "",
          "type": "bool"
        }
      ],
      "stateMutability": "view",
      "type": "function",
      "constant": true
    },
    {
      "inputs": [
        {
          "internalType": "address",
          "name": "possibleOwner",
          "type": "address"
        },
        {
          "internalType": "address",
          "name": "contractAddress",
          "type": "address"
        },
        {
          "internalType": "uint256",
          "name": "tokenId",
          "type": "uint256"
        }
      ],
      "name": "unsafeOwnsTokenOfContract",
      "outputs": [
        {
          "internalType": "bool",
          "name": "",
          "type": "bool"
        }
      ],
      "stateMutability": "view",
      "type": "function",
      "constant": true
    },
    {
      "inputs": [
        {
          "internalType": "address",
          "name": "possibleOwner",
          "type": "address"
        },
        {
          "internalType": "address[]",
          "name": "contractAddresses",
          "type": "address[]"
        },
        {
          "internalType": "uint256",
          "name": "tokenId",
          "type": "uint256"
        }
      ],
      "name": "ownsTokenOfContracts",
      "outputs": [
        {
          "internalType": "bool[]",
          "name": "",
          "type": "bool[]"
        }
      ],
      "stateMutability": "view",
      "type": "function",
      "constant": true
    }
  ],
  "bytecode": "0x608060405234801561001057600080fd5b50610934806100206000396000f3fe608060405234801561001057600080fd5b50600436106100415760003560e01c80639010729814610046578063ca04b4e614610076578063d00e7bbe146100a6575b600080fd5b610060600480360381019061005b919061059b565b6100d6565b60405161006d919061078a565b60405180910390f35b610090600480360381019061008b919061059b565b610177565b60405161009d919061078a565b60405180910390f35b6100c060048036038101906100bb91906105ea565b610362565b6040516100cd9190610768565b60405180910390f35b60003073ffffffffffffffffffffffffffffffffffffffff1663ca04b4e68585856040518463ffffffff1660e01b815260040161011593929190610731565b60206040518083038186803b15801561012d57600080fd5b505afa92505050801561015e57506040513d601f19601f8201168201806040525081019061015b9190610656565b60015b61016b5760009050610170565b809150505b9392505050565b600080733c6d0c0d7c818474a93a8a271e0bbdb2e52e71d8905060008173ffffffffffffffffffffffffffffffffffffffff168573ffffffffffffffffffffffffffffffffffffffff16141561025d5760008290508073ffffffffffffffffffffffffffffffffffffffff166358178168866040518263ffffffff1660e01b815260040161020591906107a5565b60206040518083038186803b15801561021d57600080fd5b505afa158015610231573d6000803e3d6000fd5b505050506040513d601f19601f820116820180604052508101906102559190610572565b9150506102ef565b60008590508073ffffffffffffffffffffffffffffffffffffffff16636352211e866040518263ffffffff1660e01b815260040161029b91906107a5565b60206040518083038186803b1580156102b357600080fd5b505afa1580156102c7573d6000803e3d6000fd5b505050506040513d601f19601f820116820180604052508101906102eb9190610572565b9150505b8073ffffffffffffffffffffffffffffffffffffffff168673ffffffffffffffffffffffffffffffffffffffff161480156103575750600073ffffffffffffffffffffffffffffffffffffffff168173ffffffffffffffffffffffffffffffffffffffff1614155b925050509392505050565b606060008484905067ffffffffffffffff8111156103a9577f4e487b7100000000000000000000000000000000000000000000000000000000600052604160045260246000fd5b6040519080825280602002602001820160405280156103d75781602001602082028036833780820191505090505b50905060005b8585905081101561049e5761044087878784818110610425577f4e487b7100000000000000000000000000000000000000000000000000000000600052603260045260246000fd5b905060200201602081019061043a9190610549565b866100d6565b828281518110610479577f4e487b7100000000000000000000000000000000000000000000000000000000600052603260045260246000fd5b602002602001019015159081151581525050808061049690610841565b9150506103dd565b5080915050949350505050565b6000813590506104ba816108b9565b92915050565b6000815190506104cf816108b9565b92915050565b60008083601f8401126104e757600080fd5b8235905067ffffffffffffffff81111561050057600080fd5b60208301915083602082028301111561051857600080fd5b9250929050565b60008151905061052e816108d0565b92915050565b600081359050610543816108e7565b92915050565b60006020828403121561055b57600080fd5b6000610569848285016104ab565b91505092915050565b60006020828403121561058457600080fd5b6000610592848285016104c0565b91505092915050565b6000806000606084860312156105b057600080fd5b60006105be868287016104ab565b93505060206105cf868287016104ab565b92505060406105e086828701610534565b9150509250925092565b6000806000806060858703121561060057600080fd5b600061060e878288016104ab565b945050602085013567ffffffffffffffff81111561062b57600080fd5b610637878288016104d5565b9350935050604061064a87828801610534565b91505092959194509250565b60006020828403121561066857600080fd5b60006106768482850161051f565b91505092915050565b600061068b8383610704565b60208301905092915050565b6106a0816107f9565b82525050565b60006106b1826107d0565b6106bb81856107e8565b93506106c6836107c0565b8060005b838110156106f75781516106de888261067f565b97506106e9836107db565b9250506001810190506106ca565b5085935050505092915050565b61070d8161080b565b82525050565b61071c8161080b565b82525050565b61072b81610837565b82525050565b60006060820190506107466000830186610697565b6107536020830185610697565b6107606040830184610722565b949350505050565b6000602082019050818103600083015261078281846106a6565b905092915050565b600060208201905061079f6000830184610713565b92915050565b60006020820190506107ba6000830184610722565b92915050565b6000819050602082019050919050565b600081519050919050565b6000602082019050919050565b600082825260208201905092915050565b600061080482610817565b9050919050565b60008115159050919050565b600073ffffffffffffffffffffffffffffffffffffffff82169050919050565b6000819050919050565b600061084c82610837565b91507fffffffffffffffffffffffffffffffffffffffffffffffffffffffffffffffff82141561087f5761087e61088a565b5b600182019050919050565b7f4e487b7100000000000000000000000000000000000000000000000000000000600052601160045260246000fd5b6108c2816107f9565b81146108cd57600080fd5b50565b6108d98161080b565b81146108e457600080fd5b50565b6108f081610837565b81146108fb57600080fd5b5056fea2646970667358221220d553c84dc6848df9515061017711661e319921cc27d97c8d5ff653b1fe24c5b664736f6c63430008000033",
  "immutableReferences": {},
  "source": "// SPDX-License-Identifier: MIT\r\n\r\npragma solidity ^0.8.0;\r\n\r\nimport \"@openzeppelin/contracts/token/ERC721/ERC721.sol\";\r\n\r\n/**\r\n * @title Checks if a given address owns a token from a given ERC721 contract or the CryptoPunks contract (which does not implement ERC721)\r\n * @author nfttank.eth\r\n */\r\ncontract GotToken {\r\n    \r\n    /**\r\n     * @dev Checks whether a given address (possibleOwner) owns a given token by its contract address and the token id itself.\r\n     * This method can only check contracts implementing the ERC721 standard and in addition the CryptoPunks contract\r\n     * (with a custom implementation because it does not implement the ERC721 standard).\r\n     *\r\n     * Does not throw errors but returns false if the real token owner could not be found or the token does not exist.\r\n     *\r\n     * Sample contract addresses on Mainnet\r\n     *   CryptoPunks:           0x3C6D0C0d7c818474A93a8A271e0BBdb2e52E71d8     \r\n     *   Bored Ape Yacht Club:  0xBC4CA0EdA7647A8aB7C2061c2E118A18a936f13D\r\n     *   Cool Cats:             0x1A92f7381B9F03921564a437210bB9396471050C\r\n     *   CrypToadz:             0x1CB1A5e65610AEFF2551A50f76a87a7d3fB649C6\r\n     */     \r\n    function ownsTokenOfContract(address possibleOwner, address contractAddress, uint256 tokenId) public view returns (bool) {\r\n        try this.unsafeOwnsTokenOfContract(possibleOwner, contractAddress, tokenId) returns (bool b) {\r\n            return b;\r\n        } catch { \r\n            return false; \r\n        }  \r\n    }\r\n        \r\n    /**\r\n     * @dev Checks whether a given address (possibleOwner) owns a given token by its contract address and the token id itself.\r\n     * This method can only check contracts implementing the ERC721 standard and in addition the CryptoPunks contract\r\n     * (with a custom implementation because it does not implement the ERC721 standard).\r\n     *\r\n     * Might revert execution if the contract address does not exist on the current net.\r\n     *\r\n     * Sample contract addresses on Mainnet\r\n     *   CryptoPunks:           0x3C6D0C0d7c818474A93a8A271e0BBdb2e52E71d8     \r\n     *   Bored Ape Yacht Club:  0xBC4CA0EdA7647A8aB7C2061c2E118A18a936f13D\r\n     *   Cool Cats:             0x1A92f7381B9F03921564a437210bB9396471050C\r\n     *   CrypToadz:             0x1CB1A5e65610AEFF2551A50f76a87a7d3fB649C6\r\n     */ \r\n    function unsafeOwnsTokenOfContract(address possibleOwner, address contractAddress, uint256 tokenId) public view returns (bool) {\r\n\r\n        address CryptoPunksContractMainnet = 0x3C6D0C0d7c818474A93a8A271e0BBdb2e52E71d8;\r\n        address realTokenOwner = address(0);\r\n\r\n        if (contractAddress == CryptoPunksContractMainnet) {\r\n            CryptoPunksInterface punksContract = CryptoPunksInterface(CryptoPunksContractMainnet);\r\n            realTokenOwner = punksContract.punkIndexToAddress(tokenId);\r\n        }\r\n        else {\r\n            ERC721 ercContract = ERC721(contractAddress);\r\n            realTokenOwner = ercContract.ownerOf(tokenId);\r\n        }\r\n\r\n        return possibleOwner == realTokenOwner && realTokenOwner != address(0);\r\n    }\r\n    \r\n\r\n    /**\r\n     * @dev Checks whether a given address (possibleOwner) owns a given token by given contract addresses and the token id itself.\r\n     * This method can only check contracts implementing the ERC721 standard and in addition the CryptoPunks contract\r\n     * (with a custom implementation because it does not implement the ERC721 standard).\r\n     * Does not throw errors but returns false if the real token owner could not be found or the token does not exist.\r\n     * \r\n     * Returns an array with the results at the given index of the array.\r\n     *\r\n     * Sample contract addresses on Mainnet\r\n     *   CryptoPunks:           0x3C6D0C0d7c818474A93a8A271e0BBdb2e52E71d8     \r\n     *   Bored Ape Yacht Club:  0xBC4CA0EdA7647A8aB7C2061c2E118A18a936f13D\r\n     *   Cool Cats:             0x1A92f7381B9F03921564a437210bB9396471050C\r\n     *   CrypToadz:             0x1CB1A5e65610AEFF2551A50f76a87a7d3fB649C6\r\n     */ \r\n    function ownsTokenOfContracts(address possibleOwner, address[] calldata contractAddresses, uint256 tokenId) public view returns (bool[] memory) {\r\n\r\n        bool[] memory result = new bool[](contractAddresses.length);\r\n\r\n        for (uint256 i = 0; i < contractAddresses.length; i++) {\r\n            result[i] = ownsTokenOfContract(possibleOwner, contractAddresses[i], tokenId);\r\n        }\r\n\r\n        return result;\r\n    }\r\n}\r\n\r\n/**\r\n * The CryptoPunks contract doesn't implement the ERC721 standard so we have to use this interface to call their method punkIndexToAddress()\r\n */\r\ninterface CryptoPunksInterface {\r\n    function punkIndexToAddress(uint tokenId) external view returns(address);\r\n}",
  "sourcePath": "D:\\Develop\\GitHub\\OG+\\src\\contracts\\GotToken.sol",
  "compiler": {
    "name": "solc",
    "version": "0.8.0+commit.c7dfd78e.Emscripten.clang"
  },
  "schemaVersion": "3.4.3",
  "updatedAt": "2021-11-27T22:48:55.658Z",
  "networkType": "ethereum",
  "devdoc": {
    "author": "nfttank.eth",
    "kind": "dev",
    "methods": {
      "ownsTokenOfContract(address,address,uint256)": {
        "details": "Checks whether a given address (possibleOwner) owns a given token by its contract address and the token id itself. This method can only check contracts implementing the ERC721 standard and in addition the CryptoPunks contract (with a custom implementation because it does not implement the ERC721 standard). Does not throw errors but returns false if the real token owner could not be found or the token does not exist. Sample contract addresses on Mainnet   CryptoPunks:           0x3C6D0C0d7c818474A93a8A271e0BBdb2e52E71d8        Bored Ape Yacht Club:  0xBC4CA0EdA7647A8aB7C2061c2E118A18a936f13D   Cool Cats:             0x1A92f7381B9F03921564a437210bB9396471050C   CrypToadz:             0x1CB1A5e65610AEFF2551A50f76a87a7d3fB649C6"
      },
      "ownsTokenOfContracts(address,address[],uint256)": {
        "details": "Checks whether a given address (possibleOwner) owns a given token by given contract addresses and the token id itself. This method can only check contracts implementing the ERC721 standard and in addition the CryptoPunks contract (with a custom implementation because it does not implement the ERC721 standard). Does not throw errors but returns false if the real token owner could not be found or the token does not exist.  Returns an array with the results at the given index of the array. Sample contract addresses on Mainnet   CryptoPunks:           0x3C6D0C0d7c818474A93a8A271e0BBdb2e52E71d8        Bored Ape Yacht Club:  0xBC4CA0EdA7647A8aB7C2061c2E118A18a936f13D   Cool Cats:             0x1A92f7381B9F03921564a437210bB9396471050C   CrypToadz:             0x1CB1A5e65610AEFF2551A50f76a87a7d3fB649C6"
      },
      "unsafeOwnsTokenOfContract(address,address,uint256)": {
        "details": "Checks whether a given address (possibleOwner) owns a given token by its contract address and the token id itself. This method can only check contracts implementing the ERC721 standard and in addition the CryptoPunks contract (with a custom implementation because it does not implement the ERC721 standard). Might revert execution if the contract address does not exist on the current net. Sample contract addresses on Mainnet   CryptoPunks:           0x3C6D0C0d7c818474A93a8A271e0BBdb2e52E71d8        Bored Ape Yacht Club:  0xBC4CA0EdA7647A8aB7C2061c2E118A18a936f13D   Cool Cats:             0x1A92f7381B9F03921564a437210bB9396471050C   CrypToadz:             0x1CB1A5e65610AEFF2551A50f76a87a7d3fB649C6"
      }
    },
    "title": "Checks if a given address owns a token from a given ERC721 contract or the CryptoPunks contract (which does not implement ERC721)",
    "version": 1
  },
  "userdoc": {
    "kind": "user",
    "methods": {},
    "version": 1
  }
}