{
  "contractName": "MintControl",
  "abi": [
    {
      "inputs": [
        {
          "internalType": "contract IERC721Enumerable",
          "name": "callingContract",
          "type": "IERC721Enumerable"
        },
        {
          "internalType": "uint256",
          "name": "tokenId",
          "type": "uint256"
        }
      ],
      "name": "canMint",
      "outputs": [
        {
          "internalType": "bool",
          "name": "",
          "type": "bool"
        }
      ],
      "stateMutability": "view",
      "type": "function"
    }
  ],
  "bytecode": "0x6104b1610053600b82828239805160001a607314610046577f4e487b7100000000000000000000000000000000000000000000000000000000600052600060045260246000fd5b30600052607381538281f3fe73000000000000000000000000000000000000000030146080604052600436106100355760003560e01c806317b459b41461003a575b600080fd5b610054600480360381019061004f9190610323565b61006a565b60405161006191906103a6565b60405180910390f35b6000600a82111561007e57600190506101df565b600a821115801561008f5750600182115b1561011e576113888373ffffffffffffffffffffffffffffffffffffffff166318160ddd6040518163ffffffff1660e01b815260040160206040518083038186803b1580156100dd57600080fd5b505afa1580156100f1573d6000803e3d6000fd5b505050506040513d601f19601f82011682018060405250810190610115919061035f565b101590506101df565b60018214156101d1576101328360026101e5565b801561014557506101448360036101e5565b5b801561015857506101578360046101e5565b5b801561016b575061016a8360056101e5565b5b801561017e575061017d8360066101e5565b5b801561019157506101908360076101e5565b5b80156101a457506101a38360086101e5565b5b80156101b757506101b68360096101e5565b5b80156101ca57506101c983600a6101e5565b5b90506101df565b6101dc8360016101e5565b90505b92915050565b60008073ffffffffffffffffffffffffffffffffffffffff168373ffffffffffffffffffffffffffffffffffffffff16636352211e846040518263ffffffff1660e01b815260040161023791906103c1565b60206040518083038186803b15801561024f57600080fd5b505afa158015610263573d6000803e3d6000fd5b505050506040513d601f19601f8201168201806040525081019061028791906102fa565b73ffffffffffffffffffffffffffffffffffffffff1614905092915050565b6000815190506102b581610436565b92915050565b6000813590506102ca8161044d565b92915050565b6000813590506102df81610464565b92915050565b6000815190506102f481610464565b92915050565b60006020828403121561030c57600080fd5b600061031a848285016102a6565b91505092915050565b6000806040838503121561033657600080fd5b6000610344858286016102bb565b9250506020610355858286016102d0565b9150509250929050565b60006020828403121561037157600080fd5b600061037f848285016102e5565b91505092915050565b610391816103ee565b82525050565b6103a08161042c565b82525050565b60006020820190506103bb6000830184610388565b92915050565b60006020820190506103d66000830184610397565b92915050565b60006103e78261040c565b9050919050565b60008115159050919050565b6000610405826103dc565b9050919050565b600073ffffffffffffffffffffffffffffffffffffffff82169050919050565b6000819050919050565b61043f816103dc565b811461044a57600080fd5b50565b610456816103fa565b811461046157600080fd5b50565b61046d8161042c565b811461047857600080fd5b5056fea26469706673582212202ebb464bccb8331a3bba370c5a7f412180154792d0bef51e22bae054b4b5443964736f6c63430008000033",
  "immutableReferences": {},
  "source": "// SPDX-License-Identifier: MIT\r\n\r\npragma solidity 0.8.0;\r\n\r\nimport \"@openzeppelin/contracts/token/ERC721/extensions/ERC721Enumerable.sol\";\r\n\r\nlibrary MintControl {\r\n    \r\n    function canMint(IERC721Enumerable callingContract, uint256 tokenId) public view returns (bool) {\r\n\r\n        if (tokenId > 10) {\r\n            return true;\r\n        }\r\n        else if (tokenId <= 10 && tokenId > 1) {\r\n            return callingContract.totalSupply() >= 5000;\r\n        } else if (tokenId == 1) {\r\n            return exists(callingContract, 2) &&\r\n                exists(callingContract, 3) &&\r\n                exists(callingContract, 4) &&\r\n                exists(callingContract, 5) &&\r\n                exists(callingContract, 6) &&\r\n                exists(callingContract, 7) &&\r\n                exists(callingContract, 8) &&\r\n                exists(callingContract, 9) &&\r\n                exists(callingContract, 10);\r\n        } else {\r\n            return exists(callingContract, 1);\r\n        }\r\n    }\r\n\r\n    function exists(IERC721 callingContract, uint256 tokenId) internal view returns (bool) {\r\n        return callingContract.ownerOf(tokenId) == address(0);\r\n    }\r\n}\r\n",
  "sourcePath": "D:\\Develop\\GitHub\\OG+\\src\\contracts\\libs\\MintControl.sol",
  "compiler": {
    "name": "solc",
    "version": "0.8.0+commit.c7dfd78e.Emscripten.clang"
  },
  "schemaVersion": "3.4.3",
  "updatedAt": "2021-12-28T21:16:10.132Z",
  "devdoc": {
    "kind": "dev",
    "methods": {},
    "version": 1
  },
  "userdoc": {
    "kind": "user",
    "methods": {},
    "version": 1
  }
}