{
  "contractName": "OG",
  "abi": [
    {
      "inputs": [],
      "stateMutability": "nonpayable",
      "type": "constructor"
    },
    {
      "anonymous": false,
      "inputs": [
        {
          "indexed": true,
          "internalType": "address",
          "name": "owner",
          "type": "address"
        },
        {
          "indexed": true,
          "internalType": "address",
          "name": "approved",
          "type": "address"
        },
        {
          "indexed": true,
          "internalType": "uint256",
          "name": "tokenId",
          "type": "uint256"
        }
      ],
      "name": "Approval",
      "type": "event"
    },
    {
      "anonymous": false,
      "inputs": [
        {
          "indexed": true,
          "internalType": "address",
          "name": "owner",
          "type": "address"
        },
        {
          "indexed": true,
          "internalType": "address",
          "name": "operator",
          "type": "address"
        },
        {
          "indexed": false,
          "internalType": "bool",
          "name": "approved",
          "type": "bool"
        }
      ],
      "name": "ApprovalForAll",
      "type": "event"
    },
    {
      "anonymous": false,
      "inputs": [
        {
          "indexed": true,
          "internalType": "address",
          "name": "previousOwner",
          "type": "address"
        },
        {
          "indexed": true,
          "internalType": "address",
          "name": "newOwner",
          "type": "address"
        }
      ],
      "name": "OwnershipTransferred",
      "type": "event"
    },
    {
      "anonymous": false,
      "inputs": [
        {
          "indexed": true,
          "internalType": "address",
          "name": "from",
          "type": "address"
        },
        {
          "indexed": true,
          "internalType": "address",
          "name": "to",
          "type": "address"
        },
        {
          "indexed": true,
          "internalType": "uint256",
          "name": "tokenId",
          "type": "uint256"
        }
      ],
      "name": "Transfer",
      "type": "event"
    },
    {
      "inputs": [
        {
          "internalType": "address",
          "name": "to",
          "type": "address"
        },
        {
          "internalType": "uint256",
          "name": "tokenId",
          "type": "uint256"
        }
      ],
      "name": "approve",
      "outputs": [],
      "stateMutability": "nonpayable",
      "type": "function"
    },
    {
      "inputs": [
        {
          "internalType": "address",
          "name": "owner",
          "type": "address"
        }
      ],
      "name": "balanceOf",
      "outputs": [
        {
          "internalType": "uint256",
          "name": "",
          "type": "uint256"
        }
      ],
      "stateMutability": "view",
      "type": "function",
      "constant": true
    },
    {
      "inputs": [
        {
          "internalType": "uint256",
          "name": "tokenId",
          "type": "uint256"
        }
      ],
      "name": "getApproved",
      "outputs": [
        {
          "internalType": "address",
          "name": "",
          "type": "address"
        }
      ],
      "stateMutability": "view",
      "type": "function",
      "constant": true
    },
    {
      "inputs": [
        {
          "internalType": "address",
          "name": "owner",
          "type": "address"
        },
        {
          "internalType": "address",
          "name": "operator",
          "type": "address"
        }
      ],
      "name": "isApprovedForAll",
      "outputs": [
        {
          "internalType": "bool",
          "name": "",
          "type": "bool"
        }
      ],
      "stateMutability": "view",
      "type": "function",
      "constant": true
    },
    {
      "inputs": [],
      "name": "name",
      "outputs": [
        {
          "internalType": "string",
          "name": "",
          "type": "string"
        }
      ],
      "stateMutability": "view",
      "type": "function",
      "constant": true
    },
    {
      "inputs": [],
      "name": "owner",
      "outputs": [
        {
          "internalType": "address",
          "name": "",
          "type": "address"
        }
      ],
      "stateMutability": "view",
      "type": "function",
      "constant": true
    },
    {
      "inputs": [
        {
          "internalType": "uint256",
          "name": "tokenId",
          "type": "uint256"
        }
      ],
      "name": "ownerOf",
      "outputs": [
        {
          "internalType": "address",
          "name": "",
          "type": "address"
        }
      ],
      "stateMutability": "view",
      "type": "function",
      "constant": true
    },
    {
      "inputs": [],
      "name": "renounceOwnership",
      "outputs": [],
      "stateMutability": "nonpayable",
      "type": "function"
    },
    {
      "inputs": [
        {
          "internalType": "address",
          "name": "from",
          "type": "address"
        },
        {
          "internalType": "address",
          "name": "to",
          "type": "address"
        },
        {
          "internalType": "uint256",
          "name": "tokenId",
          "type": "uint256"
        }
      ],
      "name": "safeTransferFrom",
      "outputs": [],
      "stateMutability": "nonpayable",
      "type": "function"
    },
    {
      "inputs": [
        {
          "internalType": "address",
          "name": "from",
          "type": "address"
        },
        {
          "internalType": "address",
          "name": "to",
          "type": "address"
        },
        {
          "internalType": "uint256",
          "name": "tokenId",
          "type": "uint256"
        },
        {
          "internalType": "bytes",
          "name": "_data",
          "type": "bytes"
        }
      ],
      "name": "safeTransferFrom",
      "outputs": [],
      "stateMutability": "nonpayable",
      "type": "function"
    },
    {
      "inputs": [
        {
          "internalType": "address",
          "name": "operator",
          "type": "address"
        },
        {
          "internalType": "bool",
          "name": "approved",
          "type": "bool"
        }
      ],
      "name": "setApprovalForAll",
      "outputs": [],
      "stateMutability": "nonpayable",
      "type": "function"
    },
    {
      "inputs": [
        {
          "internalType": "bytes4",
          "name": "interfaceId",
          "type": "bytes4"
        }
      ],
      "name": "supportsInterface",
      "outputs": [
        {
          "internalType": "bool",
          "name": "",
          "type": "bool"
        }
      ],
      "stateMutability": "view",
      "type": "function",
      "constant": true
    },
    {
      "inputs": [],
      "name": "symbol",
      "outputs": [
        {
          "internalType": "string",
          "name": "",
          "type": "string"
        }
      ],
      "stateMutability": "view",
      "type": "function",
      "constant": true
    },
    {
      "inputs": [
        {
          "internalType": "uint256",
          "name": "index",
          "type": "uint256"
        }
      ],
      "name": "tokenByIndex",
      "outputs": [
        {
          "internalType": "uint256",
          "name": "",
          "type": "uint256"
        }
      ],
      "stateMutability": "view",
      "type": "function",
      "constant": true
    },
    {
      "inputs": [
        {
          "internalType": "address",
          "name": "owner",
          "type": "address"
        },
        {
          "internalType": "uint256",
          "name": "index",
          "type": "uint256"
        }
      ],
      "name": "tokenOfOwnerByIndex",
      "outputs": [
        {
          "internalType": "uint256",
          "name": "",
          "type": "uint256"
        }
      ],
      "stateMutability": "view",
      "type": "function",
      "constant": true
    },
    {
      "inputs": [],
      "name": "totalSupply",
      "outputs": [
        {
          "internalType": "uint256",
          "name": "",
          "type": "uint256"
        }
      ],
      "stateMutability": "view",
      "type": "function",
      "constant": true
    },
    {
      "inputs": [
        {
          "internalType": "address",
          "name": "from",
          "type": "address"
        },
        {
          "internalType": "address",
          "name": "to",
          "type": "address"
        },
        {
          "internalType": "uint256",
          "name": "tokenId",
          "type": "uint256"
        }
      ],
      "name": "transferFrom",
      "outputs": [],
      "stateMutability": "nonpayable",
      "type": "function"
    },
    {
      "inputs": [
        {
          "internalType": "address",
          "name": "newOwner",
          "type": "address"
        }
      ],
      "name": "transferOwnership",
      "outputs": [],
      "stateMutability": "nonpayable",
      "type": "function"
    },
    {
      "inputs": [
        {
          "internalType": "bool",
          "name": "paused",
          "type": "bool"
        }
      ],
      "name": "setPaused",
      "outputs": [],
      "stateMutability": "nonpayable",
      "type": "function"
    },
    {
      "inputs": [
        {
          "internalType": "address",
          "name": "contractAddress",
          "type": "address"
        }
      ],
      "name": "addSupportedCollection",
      "outputs": [],
      "stateMutability": "nonpayable",
      "type": "function"
    },
    {
      "inputs": [],
      "name": "getSupportedCollections",
      "outputs": [
        {
          "internalType": "address[]",
          "name": "",
          "type": "address[]"
        }
      ],
      "stateMutability": "view",
      "type": "function",
      "constant": true
    },
    {
      "inputs": [],
      "name": "clearSupportedCollections",
      "outputs": [],
      "stateMutability": "nonpayable",
      "type": "function"
    },
    {
      "inputs": [
        {
          "internalType": "address",
          "name": "contractAddress",
          "type": "address"
        },
        {
          "internalType": "string",
          "name": "base64EncodedSvgSlug",
          "type": "string"
        }
      ],
      "name": "setSupportedCollectionSlug",
      "outputs": [],
      "stateMutability": "nonpayable",
      "type": "function"
    },
    {
      "inputs": [
        {
          "internalType": "uint256",
          "name": "tokenId",
          "type": "uint256"
        },
        {
          "internalType": "string",
          "name": "base64EncodedSvg",
          "type": "string"
        }
      ],
      "name": "setCustom",
      "outputs": [],
      "stateMutability": "nonpayable",
      "type": "function"
    },
    {
      "inputs": [
        {
          "internalType": "uint256",
          "name": "tokenId",
          "type": "uint256"
        }
      ],
      "name": "resetCustom",
      "outputs": [],
      "stateMutability": "nonpayable",
      "type": "function"
    },
    {
      "inputs": [
        {
          "internalType": "address",
          "name": "gotTokenAddress",
          "type": "address"
        },
        {
          "internalType": "address",
          "name": "ogColorAddress",
          "type": "address"
        }
      ],
      "name": "setTrustedContractAddresses",
      "outputs": [],
      "stateMutability": "nonpayable",
      "type": "function"
    },
    {
      "inputs": [
        {
          "internalType": "string",
          "name": "contractName",
          "type": "string"
        }
      ],
      "name": "getTrustedContractAddress",
      "outputs": [
        {
          "internalType": "address",
          "name": "",
          "type": "address"
        }
      ],
      "stateMutability": "view",
      "type": "function",
      "constant": true
    },
    {
      "inputs": [
        {
          "internalType": "uint256",
          "name": "tokenId",
          "type": "uint256"
        }
      ],
      "name": "renderSvg",
      "outputs": [
        {
          "internalType": "string",
          "name": "",
          "type": "string"
        }
      ],
      "stateMutability": "view",
      "type": "function",
      "constant": true
    },
    {
      "inputs": [
        {
          "internalType": "uint256",
          "name": "tokenId",
          "type": "uint256"
        }
      ],
      "name": "tokenURI",
      "outputs": [
        {
          "internalType": "string",
          "name": "",
          "type": "string"
        }
      ],
      "stateMutability": "view",
      "type": "function",
      "constant": true
    },
    {
      "inputs": [
        {
          "internalType": "uint16",
          "name": "tokenId",
          "type": "uint16"
        }
      ],
      "name": "mint",
      "outputs": [],
      "stateMutability": "nonpayable",
      "type": "function"
    },
    {
      "inputs": [
        {
          "internalType": "uint16[]",
          "name": "tokenIds",
          "type": "uint16[]"
        }
      ],
      "name": "mintMultiple",
      "outputs": [],
      "stateMutability": "nonpayable",
      "type": "function"
    }
  ],
  "bytecode": "0x60806040523480156200001157600080fd5b506040518060400160405280600281526020017f4f470000000000000000000000000000000000000000000000000000000000008152506040518060400160405280600281526020017f4f4700000000000000000000000000000000000000000000000000000000000081525081600090805190602001906200009692919062000262565b508060019080519060200190620000af92919062000262565b505050620000d2620000c66200019460201b60201c565b6200019c60201b60201c565b6000600c604051620000e49062000396565b908152602001604051809103902060006101000a81548173ffffffffffffffffffffffffffffffffffffffff021916908373ffffffffffffffffffffffffffffffffffffffff1602179055506000600c6040516200014290620003ad565b908152602001604051809103902060006101000a81548173ffffffffffffffffffffffffffffffffffffffff021916908373ffffffffffffffffffffffffffffffffffffffff16021790555062000434565b600033905090565b6000600a60009054906101000a900473ffffffffffffffffffffffffffffffffffffffff16905081600a60006101000a81548173ffffffffffffffffffffffffffffffffffffffff021916908373ffffffffffffffffffffffffffffffffffffffff1602179055508173ffffffffffffffffffffffffffffffffffffffff168173ffffffffffffffffffffffffffffffffffffffff167f8be0079c531659141344cd1fd0a4f28419497f9722a3daafe3b4186f6b6457e060405160405180910390a35050565b8280546200027090620003cf565b90600052602060002090601f016020900481019282620002945760008555620002e0565b82601f10620002af57805160ff1916838001178555620002e0565b82800160010185558215620002e0579182015b82811115620002df578251825591602001919060010190620002c2565b5b509050620002ef9190620002f3565b5090565b5b808211156200030e576000816000905550600101620002f4565b5090565b600062000321600883620003c4565b91507f676f74746f6b656e0000000000000000000000000000000000000000000000006000830152600882019050919050565b600062000363600783620003c4565b91507f6f67636f6c6f72000000000000000000000000000000000000000000000000006000830152600782019050919050565b6000620003a38262000312565b9150819050919050565b6000620003ba8262000354565b9150819050919050565b600081905092915050565b60006002820490506001821680620003e857607f821691505b60208210811415620003ff57620003fe62000405565b5b50919050565b7f4e487b7100000000000000000000000000000000000000000000000000000000600052602260045260246000fd5b615fe980620004446000396000f3fe608060405234801561001057600080fd5b50600436106101e55760003560e01c80636352211e1161010f578063c87b56dd116100a2578063f2fde38b11610071578063f2fde38b14610578578063f73f622514610594578063fb397aff146105b0578063fd5ad319146105cc576101e5565b8063c87b56dd146104de578063cfa45e8a1461050e578063e985e9c51461053e578063edd39ab51461056e576101e5565b806395d89b41116100de57806395d89b411461046c578063a22cb4651461048a578063b88d4fde146104a6578063bbe4926c146104c2576101e5565b80636352211e146103e457806370a0823114610414578063715018a6146104445780638da5cb5b1461044e576101e5565b806323b872dd116101875780634ce36200116101565780634ce36200146103605780634e2e46d71461037c5780634f6ccce71461039857806353321817146103c8576101e5565b806323b872dd146102dc57806323cf0a22146102f85780632f745c591461031457806342842e0e14610344576101e5565b8063095ea7b3116101c3578063095ea7b31461026857806316c38b3c1461028457806317dd5a48146102a057806318160ddd146102be576101e5565b806301ffc9a7146101ea57806306fdde031461021a578063081812fc14610238575b600080fd5b61020460048036038101906101ff919061410e565b6105fc565b60405161021191906154b3565b60405180910390f35b610222610676565b60405161022f9190615551565b60405180910390f35b610252600480360381019061024d91906142d2565b610708565b60405161025f919061542a565b60405180910390f35b610282600480360381019061027d9190614064565b61078d565b005b61029e600480360381019061029991906140e5565b6108a5565b005b6102a861093e565b6040516102b59190615491565b60405180910390f35b6102c6610a48565b6040516102d3919061580e565b60405180910390f35b6102f660048036038101906102f19190613f06565b610a55565b005b610312600480360381019061030d91906142a9565b610ab5565b005b61032e60048036038101906103299190614064565b610b77565b60405161033b919061580e565b60405180910390f35b61035e60048036038101906103599190613f06565b610c1c565b005b61037a600480360381019061037591906142d2565b610c3c565b005b61039660048036038101906103919190613e78565b610cda565b005b6103b260048036038101906103ad91906142d2565b610dbc565b6040516103bf919061580e565b60405180910390f35b6103e260048036038101906103dd919061400c565b610e53565b005b6103fe60048036038101906103f991906142d2565b610f74565b60405161040b919061542a565b60405180910390f35b61042e60048036038101906104299190613e78565b611026565b60405161043b919061580e565b60405180910390f35b61044c6110de565b005b610456611166565b604051610463919061542a565b60405180910390f35b610474611190565b6040516104819190615551565b60405180910390f35b6104a4600480360381019061049f9190613fd0565b611222565b005b6104c060048036038101906104bb9190613f55565b611238565b005b6104dc60048036038101906104d791906142fb565b61129a565b005b6104f860048036038101906104f391906142d2565b61138f565b6040516105059190615551565b60405180910390f35b61052860048036038101906105239190614160565b611451565b604051610535919061542a565b60405180910390f35b61055860048036038101906105539190613eca565b611518565b60405161056591906154b3565b60405180910390f35b6105766115ac565b005b610592600480360381019061058d9190613e78565b611638565b005b6105ae60048036038101906105a991906140a0565b611730565b005b6105ca60048036038101906105c59190613eca565b6119b2565b005b6105e660048036038101906105e191906142d2565b611ae8565b6040516105f39190615551565b60405180910390f35b60007f780e9d63000000000000000000000000000000000000000000000000000000007bffffffffffffffffffffffffffffffffffffffffffffffffffffffff1916827bffffffffffffffffffffffffffffffffffffffffffffffffffffffff1916148061066f575061066e826124fe565b5b9050919050565b60606000805461068590615b91565b80601f01602080910402602001604051908101604052809291908181526020018280546106b190615b91565b80156106fe5780601f106106d3576101008083540402835291602001916106fe565b820191906000526020600020905b8154815290600101906020018083116106e157829003601f168201915b5050505050905090565b6000610713826125e0565b610752576040517f08c379a0000000000000000000000000000000000000000000000000000000008152600401610749906156d3565b60405180910390fd5b6004600083815260200190815260200160002060009054906101000a900473ffffffffffffffffffffffffffffffffffffffff169050919050565b600061079882610f74565b90508073ffffffffffffffffffffffffffffffffffffffff168373ffffffffffffffffffffffffffffffffffffffff161415610809576040517f08c379a000000000000000000000000000000000000000000000000000000000815260040161080090615753565b60405180910390fd5b8073ffffffffffffffffffffffffffffffffffffffff1661082861264c565b73ffffffffffffffffffffffffffffffffffffffff16148061085757506108568161085161264c565b611518565b5b610896576040517f08c379a000000000000000000000000000000000000000000000000000000000815260040161088d90615653565b60405180910390fd5b6108a08383612654565b505050565b6108ad61264c565b73ffffffffffffffffffffffffffffffffffffffff166108cb611166565b73ffffffffffffffffffffffffffffffffffffffff1614610921576040517f08c379a0000000000000000000000000000000000000000000000000000000008152600401610918906156f3565b60405180910390fd5b80600f60006101000a81548160ff02191690831515021790555050565b606061094861264c565b73ffffffffffffffffffffffffffffffffffffffff16610966611166565b73ffffffffffffffffffffffffffffffffffffffff16146109bc576040517f08c379a00000000000000000000000000000000000000000000000000000000081526004016109b3906156f3565b60405180910390fd5b600e805480602002602001604051908101604052809291908181526020018280548015610a3e57602002820191906000526020600020905b8160009054906101000a900473ffffffffffffffffffffffffffffffffffffffff1673ffffffffffffffffffffffffffffffffffffffff16815260200190600101908083116109f4575b5050505050905090565b6000600880549050905090565b610a66610a6061264c565b8261270d565b610aa5576040517f08c379a0000000000000000000000000000000000000000000000000000000008152600401610a9c90615793565b60405180910390fd5b610ab08383836127eb565b505050565b60008161ffff1610158015610ad0575061270f8161ffff1611155b610b0f576040517f08c379a0000000000000000000000000000000000000000000000000000000008152600401610b0690615733565b60405180910390fd5b600f60009054906101000a900460ff1615610b5f576040517f08c379a0000000000000000000000000000000000000000000000000000000008152600401610b56906157b3565b60405180910390fd5b610b74610b6a61264c565b8261ffff16612a47565b50565b6000610b8283611026565b8210610bc3576040517f08c379a0000000000000000000000000000000000000000000000000000000008152600401610bba90615573565b60405180910390fd5b600660008473ffffffffffffffffffffffffffffffffffffffff1673ffffffffffffffffffffffffffffffffffffffff168152602001908152602001600020600083815260200190815260200160002054905092915050565b610c3783838360405180602001604052806000815250611238565b505050565b610c4461264c565b73ffffffffffffffffffffffffffffffffffffffff16610c62611166565b73ffffffffffffffffffffffffffffffffffffffff1614610cb8576040517f08c379a0000000000000000000000000000000000000000000000000000000008152600401610caf906156f3565b60405180910390fd5b600d60008281526020019081526020016000206000610cd79190613b55565b50565b610ce261264c565b73ffffffffffffffffffffffffffffffffffffffff16610d00611166565b73ffffffffffffffffffffffffffffffffffffffff1614610d56576040517f08c379a0000000000000000000000000000000000000000000000000000000008152600401610d4d906156f3565b60405180910390fd5b600e819080600181540180825580915050600190039060005260206000200160009091909190916101000a81548173ffffffffffffffffffffffffffffffffffffffff021916908373ffffffffffffffffffffffffffffffffffffffff16021790555050565b6000610dc6610a48565b8210610e07576040517f08c379a0000000000000000000000000000000000000000000000000000000008152600401610dfe906157d3565b60405180910390fd5b60088281548110610e41577f4e487b7100000000000000000000000000000000000000000000000000000000600052603260045260246000fd5b90600052602060002001549050919050565b610e5b61264c565b73ffffffffffffffffffffffffffffffffffffffff16610e79611166565b73ffffffffffffffffffffffffffffffffffffffff1614610ecf576040517f08c379a0000000000000000000000000000000000000000000000000000000008152600401610ec6906156f3565b60405180910390fd5b610f1c82828080601f016020809104026020016040519081016040528093929190818152602001838380828437600081840152601f19601f82011690508083019250505050505050612a65565b600b60008573ffffffffffffffffffffffffffffffffffffffff1673ffffffffffffffffffffffffffffffffffffffff1681526020019081526020016000209080519060200190610f6e929190613b95565b50505050565b6000806002600084815260200190815260200160002060009054906101000a900473ffffffffffffffffffffffffffffffffffffffff169050600073ffffffffffffffffffffffffffffffffffffffff168173ffffffffffffffffffffffffffffffffffffffff16141561101d576040517f08c379a000000000000000000000000000000000000000000000000000000000815260040161101490615693565b60405180910390fd5b80915050919050565b60008073ffffffffffffffffffffffffffffffffffffffff168273ffffffffffffffffffffffffffffffffffffffff161415611097576040517f08c379a000000000000000000000000000000000000000000000000000000000815260040161108e90615673565b60405180910390fd5b600360008373ffffffffffffffffffffffffffffffffffffffff1673ffffffffffffffffffffffffffffffffffffffff168152602001908152602001600020549050919050565b6110e661264c565b73ffffffffffffffffffffffffffffffffffffffff16611104611166565b73ffffffffffffffffffffffffffffffffffffffff161461115a576040517f08c379a0000000000000000000000000000000000000000000000000000000008152600401611151906156f3565b60405180910390fd5b6111646000612cac565b565b6000600a60009054906101000a900473ffffffffffffffffffffffffffffffffffffffff16905090565b60606001805461119f90615b91565b80601f01602080910402602001604051908101604052809291908181526020018280546111cb90615b91565b80156112185780601f106111ed57610100808354040283529160200191611218565b820191906000526020600020905b8154815290600101906020018083116111fb57829003601f168201915b5050505050905090565b61123461122d61264c565b8383612d72565b5050565b61124961124361264c565b8361270d565b611288576040517f08c379a000000000000000000000000000000000000000000000000000000000815260040161127f90615793565b60405180910390fd5b61129484848484612edf565b50505050565b6112a261264c565b73ffffffffffffffffffffffffffffffffffffffff166112c0611166565b73ffffffffffffffffffffffffffffffffffffffff1614611316576040517f08c379a000000000000000000000000000000000000000000000000000000000815260040161130d906156f3565b60405180910390fd5b61136382828080601f016020809104026020016040519081016040528093929190818152602001838380828437600081840152601f19601f82011690508083019250505050505050612a65565b600d60008581526020019081526020016000209080519060200190611389929190613b95565b50505050565b6060600082101580156113a4575061270f8211155b6113e3576040517f08c379a00000000000000000000000000000000000000000000000000000000081526004016113da90615733565b60405180910390fd5b60006114276113f184612f3b565b6114026113fd86611ae8565b6130e8565b604051602001611413929190615370565b6040516020818303038152906040526130e8565b90508060405160200161143a9190615321565b604051602081830303815290604052915050919050565b600061145b61264c565b73ffffffffffffffffffffffffffffffffffffffff16611479611166565b73ffffffffffffffffffffffffffffffffffffffff16146114cf576040517f08c379a00000000000000000000000000000000000000000000000000000000081526004016114c6906156f3565b60405180910390fd5b600c83836040516114e1929190615257565b908152602001604051809103902060009054906101000a900473ffffffffffffffffffffffffffffffffffffffff16905092915050565b6000600560008473ffffffffffffffffffffffffffffffffffffffff1673ffffffffffffffffffffffffffffffffffffffff16815260200190815260200160002060008373ffffffffffffffffffffffffffffffffffffffff1673ffffffffffffffffffffffffffffffffffffffff16815260200190815260200160002060009054906101000a900460ff16905092915050565b6115b461264c565b73ffffffffffffffffffffffffffffffffffffffff166115d2611166565b73ffffffffffffffffffffffffffffffffffffffff1614611628576040517f08c379a000000000000000000000000000000000000000000000000000000000815260040161161f906156f3565b60405180910390fd5b600e60006116369190613c1b565b565b61164061264c565b73ffffffffffffffffffffffffffffffffffffffff1661165e611166565b73ffffffffffffffffffffffffffffffffffffffff16146116b4576040517f08c379a00000000000000000000000000000000000000000000000000000000081526004016116ab906156f3565b60405180910390fd5b600073ffffffffffffffffffffffffffffffffffffffff168173ffffffffffffffffffffffffffffffffffffffff161415611724576040517f08c379a000000000000000000000000000000000000000000000000000000000815260040161171b906155b3565b60405180910390fd5b61172d81612cac565b50565b600f60009054906101000a900460ff1615611780576040517f08c379a0000000000000000000000000000000000000000000000000000000008152600401611777906157b3565b60405180910390fd5b60005b828290508161ffff16101561192157600083838361ffff168181106117d1577f4e487b7100000000000000000000000000000000000000000000000000000000600052603260045260246000fd5b90506020020160208101906117e691906142a9565b61ffff161015801561184f575061270f83838361ffff16818110611833577f4e487b7100000000000000000000000000000000000000000000000000000000600052603260045260246000fd5b905060200201602081019061184891906142a9565b61ffff1611155b6118ad84848461ffff1681811061188f577f4e487b7100000000000000000000000000000000000000000000000000000000600052603260045260246000fd5b90506020020160208101906118a491906142a9565b61ffff16612f3b565b6040516020016118bd9190615343565b6040516020818303038152906040529061190d576040517f08c379a00000000000000000000000000000000000000000000000000000000081526004016119049190615551565b60405180910390fd5b50808061191990615bdd565b915050611783565b5060005b828290508161ffff1610156119ad5761199a61193f61264c565b84848461ffff1681811061197c577f4e487b7100000000000000000000000000000000000000000000000000000000600052603260045260246000fd5b905060200201602081019061199191906142a9565b61ffff16612a47565b80806119a590615bdd565b915050611925565b505050565b6119ba61264c565b73ffffffffffffffffffffffffffffffffffffffff166119d8611166565b73ffffffffffffffffffffffffffffffffffffffff1614611a2e576040517f08c379a0000000000000000000000000000000000000000000000000000000008152600401611a25906156f3565b60405180910390fd5b81600c604051611a3d906152e2565b908152602001604051809103902060006101000a81548173ffffffffffffffffffffffffffffffffffffffff021916908373ffffffffffffffffffffffffffffffffffffffff16021790555080600c604051611a989061530c565b908152602001604051809103902060006101000a81548173ffffffffffffffffffffffffffffffffffffffff021916908373ffffffffffffffffffffffffffffffffffffffff1602179055505050565b606060008210158015611afd575061270f8211155b611b3c576040517f08c379a0000000000000000000000000000000000000000000000000000000008152600401611b3390615733565b60405180910390fd5b60008060008073__Customizer____________________________63bda93c9a30600c604051611b6b9061530c565b908152602001604051809103902060009054906101000a900473ffffffffffffffffffffffffffffffffffffffff16896040518463ffffffff1660e01b8152600401611bb99392919061551a565b60006040518083038186803b158015611bd157600080fd5b505af4158015611be5573d6000803e3d6000fd5b505050506040513d6000823e3d601f19601f82011682018060405250810190611c0e91906141e6565b9350935093509350600073__Customizer____________________________637308eca430600c604051611c41906152e2565b908152602001604051809103902060009054906101000a900473ffffffffffffffffffffffffffffffffffffffff16600e8b6040518563ffffffff1660e01b8152600401611c9294939291906154ce565b60206040518083038186803b158015611caa57600080fd5b505af4158015611cbe573d6000803e3d6000fd5b505050506040513d601f19601f82011682018060405250810190611ce29190613ea1565b905060008073ffffffffffffffffffffffffffffffffffffffff168273ffffffffffffffffffffffffffffffffffffffff1614159050611d20613c3c565b604051806080016040528060438152602001615de36043913981600060088110611d73577f4e487b7100000000000000000000000000000000000000000000000000000000600052603260045260246000fd5b602002018190525086868686604051602001611d9294939291906153b5565b60405160208183030381529060405281600160088110611ddb577f4e487b7100000000000000000000000000000000000000000000000000000000600052603260045260246000fd5b60200201819052506040518060400160405280601181526020017f3c6d61736b2069643d275f6d61736b273e00000000000000000000000000000081525081600260088110611e53577f4e487b7100000000000000000000000000000000000000000000000000000000600052603260045260246000fd5b60200201819052508115611ec25760405180610100016040528060ce8152602001615e6660ce913981600360088110611eb5577f4e487b7100000000000000000000000000000000000000000000000000000000600052603260045260246000fd5b6020020181905250611f15565b6040518060200160405280600081525081600360088110611f0c577f4e487b7100000000000000000000000000000000000000000000000000000000600052603260045260246000fd5b60200201819052505b604051602001611f24906152f7565b60405160208183030381529060405281600460088110611f6d577f4e487b7100000000000000000000000000000000000000000000000000000000600052603260045260246000fd5b60200201819052506000600d60008b81526020019081526020016000208054611f9590615b91565b80601f0160208091040260200160405190810160405280929190818152602001828054611fc190615b91565b801561200e5780601f10611fe35761010080835404028352916020019161200e565b820191906000526020600020905b815481529060010190602001808311611ff157829003601f168201915b505050505090506000815114156120ae5773__Digits________________________________63f1fb19db8b6040518263ffffffff1660e01b815260040161205691906157f3565b60006040518083038186803b15801561206e57600080fd5b505af4158015612082573d6000803e3d6000fd5b505050506040513d6000823e3d601f19601f820116820180604052508101906120ab91906141a5565b90505b80826005600881106120e9577f4e487b7100000000000000000000000000000000000000000000000000000000600052603260045260246000fd5b6020020181905250821561220657600b60008573ffffffffffffffffffffffffffffffffffffffff1673ffffffffffffffffffffffffffffffffffffffff168152602001908152602001600020805461214190615b91565b80601f016020809104026020016040519081016040528092919081815260200182805461216d90615b91565b80156121ba5780601f1061218f576101008083540402835291602001916121ba565b820191906000526020600020905b81548152906001019060200180831161219d57829003601f168201915b5050505050826006600881106121f9577f4e487b7100000000000000000000000000000000000000000000000000000000600052603260045260246000fd5b6020020181905250612259565b6040518060200160405280600081525082600660088110612250577f4e487b7100000000000000000000000000000000000000000000000000000000600052603260045260246000fd5b60200201819052505b6040518060400160405280600681526020017f3c2f7376673e0000000000000000000000000000000000000000000000000000815250826007600881106122c9577f4e487b7100000000000000000000000000000000000000000000000000000000600052603260045260246000fd5b60200201819052508160006008811061230b577f4e487b7100000000000000000000000000000000000000000000000000000000600052603260045260246000fd5b60200201518260016008811061234a577f4e487b7100000000000000000000000000000000000000000000000000000000600052603260045260246000fd5b602002015183600260088110612389577f4e487b7100000000000000000000000000000000000000000000000000000000600052603260045260246000fd5b6020020151846003600881106123c8577f4e487b7100000000000000000000000000000000000000000000000000000000600052603260045260246000fd5b602002015185600460088110612407577f4e487b7100000000000000000000000000000000000000000000000000000000600052603260045260246000fd5b602002015186600560088110612446577f4e487b7100000000000000000000000000000000000000000000000000000000600052603260045260246000fd5b602002015187600660088110612485577f4e487b7100000000000000000000000000000000000000000000000000000000600052603260045260246000fd5b6020020151886007600881106124c4577f4e487b7100000000000000000000000000000000000000000000000000000000600052603260045260246000fd5b60200201516040516020016124e0989796959493929190615270565b60405160208183030381529060405298505050505050505050919050565b60007f80ac58cd000000000000000000000000000000000000000000000000000000007bffffffffffffffffffffffffffffffffffffffffffffffffffffffff1916827bffffffffffffffffffffffffffffffffffffffffffffffffffffffff191614806125c957507f5b5e139f000000000000000000000000000000000000000000000000000000007bffffffffffffffffffffffffffffffffffffffffffffffffffffffff1916827bffffffffffffffffffffffffffffffffffffffffffffffffffffffff1916145b806125d957506125d882613287565b5b9050919050565b60008073ffffffffffffffffffffffffffffffffffffffff166002600084815260200190815260200160002060009054906101000a900473ffffffffffffffffffffffffffffffffffffffff1673ffffffffffffffffffffffffffffffffffffffff1614159050919050565b600033905090565b816004600083815260200190815260200160002060006101000a81548173ffffffffffffffffffffffffffffffffffffffff021916908373ffffffffffffffffffffffffffffffffffffffff160217905550808273ffffffffffffffffffffffffffffffffffffffff166126c783610f74565b73ffffffffffffffffffffffffffffffffffffffff167f8c5be1e5ebec7d5bd14f71427d1e84f3dd0314c0f7b2291e5b200ac8c7c3b92560405160405180910390a45050565b6000612718826125e0565b612757576040517f08c379a000000000000000000000000000000000000000000000000000000000815260040161274e90615633565b60405180910390fd5b600061276283610f74565b90508073ffffffffffffffffffffffffffffffffffffffff168473ffffffffffffffffffffffffffffffffffffffff1614806127d157508373ffffffffffffffffffffffffffffffffffffffff166127b984610708565b73ffffffffffffffffffffffffffffffffffffffff16145b806127e257506127e18185611518565b5b91505092915050565b8273ffffffffffffffffffffffffffffffffffffffff1661280b82610f74565b73ffffffffffffffffffffffffffffffffffffffff1614612861576040517f08c379a000000000000000000000000000000000000000000000000000000000815260040161285890615713565b60405180910390fd5b600073ffffffffffffffffffffffffffffffffffffffff168273ffffffffffffffffffffffffffffffffffffffff1614156128d1576040517f08c379a00000000000000000000000000000000000000000000000000000000081526004016128c8906155f3565b60405180910390fd5b6128dc8383836132f1565b6128e7600082612654565b6001600360008573ffffffffffffffffffffffffffffffffffffffff1673ffffffffffffffffffffffffffffffffffffffff16815260200190815260200160002060008282546129379190615a55565b925050819055506001600360008473ffffffffffffffffffffffffffffffffffffffff1673ffffffffffffffffffffffffffffffffffffffff168152602001908152602001600020600082825461298e9190615974565b92505081905550816002600083815260200190815260200160002060006101000a81548173ffffffffffffffffffffffffffffffffffffffff021916908373ffffffffffffffffffffffffffffffffffffffff160217905550808273ffffffffffffffffffffffffffffffffffffffff168473ffffffffffffffffffffffffffffffffffffffff167fddf252ad1be2c89b69c2b068fc378daa952ba7f163c4a11628f55a4df523b3ef60405160405180910390a4505050565b612a61828260405180602001604052806000815250613405565b5050565b60606000829050600081511415612af257600067ffffffffffffffff811115612ab7577f4e487b7100000000000000000000000000000000000000000000000000000000600052604160045260246000fd5b6040519080825280601f01601f191660200182016040528015612ae95781602001600182028036833780820191505090505b50915050612ca7565b600060048251612b029190615c51565b14612b42576040517f08c379a0000000000000000000000000000000000000000000000000000000008152600401612b3990615773565b60405180910390fd5b60006040518060a0016040528060808152602001615f346080913990506000600360048451612b7191906159ca565b612b7b91906159fb565b90506000602082612b8c9190615974565b67ffffffffffffffff811115612bcb577f4e487b7100000000000000000000000000000000000000000000000000000000600052604160045260246000fd5b6040519080825280601f01601f191660200182016040528015612bfd5781602001600182028036833780820191505090505b5090508351840151603d60ff82161415612c2d57600183039250613d3d61ffff82161415612c2c576001830392505b5b828252600184018586518101602085015b81831015612c9a57600483019250825160ff8082168601511660ff808360081c168701511660061b0160ff808360101c1687015116600c1b60ff808460181c168801511660121b01018060e81b83526003830192505050612c3e565b5050505050809450505050505b919050565b6000600a60009054906101000a900473ffffffffffffffffffffffffffffffffffffffff16905081600a60006101000a81548173ffffffffffffffffffffffffffffffffffffffff021916908373ffffffffffffffffffffffffffffffffffffffff1602179055508173ffffffffffffffffffffffffffffffffffffffff168173ffffffffffffffffffffffffffffffffffffffff167f8be0079c531659141344cd1fd0a4f28419497f9722a3daafe3b4186f6b6457e060405160405180910390a35050565b8173ffffffffffffffffffffffffffffffffffffffff168373ffffffffffffffffffffffffffffffffffffffff161415612de1576040517f08c379a0000000000000000000000000000000000000000000000000000000008152600401612dd890615613565b60405180910390fd5b80600560008573ffffffffffffffffffffffffffffffffffffffff1673ffffffffffffffffffffffffffffffffffffffff16815260200190815260200160002060008473ffffffffffffffffffffffffffffffffffffffff1673ffffffffffffffffffffffffffffffffffffffff16815260200190815260200160002060006101000a81548160ff0219169083151502179055508173ffffffffffffffffffffffffffffffffffffffff168373ffffffffffffffffffffffffffffffffffffffff167f17307eab39ab6107e8899845ad3d59bd9653f200f220920489ca2b5937696c3183604051612ed291906154b3565b60405180910390a3505050565b612eea8484846127eb565b612ef684848484613460565b612f35576040517f08c379a0000000000000000000000000000000000000000000000000000000008152600401612f2c90615593565b60405180910390fd5b50505050565b60606000821415612f83576040518060400160405280600181526020017f300000000000000000000000000000000000000000000000000000000000000081525090506130e3565b600082905060005b60008214612fb5578080612f9e90615c08565b915050600a82612fae91906159ca565b9150612f8b565b60008167ffffffffffffffff811115612ff7577f4e487b7100000000000000000000000000000000000000000000000000000000600052604160045260246000fd5b6040519080825280601f01601f1916602001820160405280156130295781602001600182028036833780820191505090505b5090505b600085146130dc576001826130429190615a55565b9150600a856130519190615c51565b603061305d9190615974565b60f81b818381518110613099577f4e487b7100000000000000000000000000000000000000000000000000000000600052603260045260246000fd5b60200101907effffffffffffffffffffffffffffffffffffffffffffffffffffffffffffff1916908160001a905350600a856130d591906159ca565b945061302d565b8093505050505b919050565b606060008251141561310b57604051806020016040528060008152509050613282565b6000604051806060016040528060408152602001615e26604091399050600060036002855161313a9190615974565b61314491906159ca565b600461315091906159fb565b905060006020826131619190615974565b67ffffffffffffffff8111156131a0577f4e487b7100000000000000000000000000000000000000000000000000000000600052604160045260246000fd5b6040519080825280601f01601f1916602001820160405280156131d25781602001600182028036833780820191505090505b509050818152600183018586518101602084015b81831015613241576003830192508251603f8160121c168501518253600182019150603f81600c1c168501518253600182019150603f8160061c168501518253600182019150603f81168501518253600182019150506131e6565b60038951066001811461325b576002811461326b57613276565b613d3d60f01b6002830352613276565b603d60f81b60018303525b50505050508093505050505b919050565b60007f01ffc9a7000000000000000000000000000000000000000000000000000000007bffffffffffffffffffffffffffffffffffffffffffffffffffffffff1916827bffffffffffffffffffffffffffffffffffffffffffffffffffffffff1916149050919050565b6132fc8383836135f7565b600073ffffffffffffffffffffffffffffffffffffffff168373ffffffffffffffffffffffffffffffffffffffff16141561333f5761333a816135fc565b61337e565b8173ffffffffffffffffffffffffffffffffffffffff168373ffffffffffffffffffffffffffffffffffffffff161461337d5761337c8382613645565b5b5b600073ffffffffffffffffffffffffffffffffffffffff168273ffffffffffffffffffffffffffffffffffffffff1614156133c1576133bc816137b2565b613400565b8273ffffffffffffffffffffffffffffffffffffffff168273ffffffffffffffffffffffffffffffffffffffff16146133ff576133fe82826138f5565b5b5b505050565b61340f8383613974565b61341c6000848484613460565b61345b576040517f08c379a000000000000000000000000000000000000000000000000000000000815260040161345290615593565b60405180910390fd5b505050565b60006134818473ffffffffffffffffffffffffffffffffffffffff16613b42565b156135ea578373ffffffffffffffffffffffffffffffffffffffff1663150b7a026134aa61264c565b8786866040518563ffffffff1660e01b81526004016134cc9493929190615445565b602060405180830381600087803b1580156134e657600080fd5b505af192505050801561351757506040513d601f19601f820116820180604052508101906135149190614137565b60015b61359a573d8060008114613547576040519150601f19603f3d011682016040523d82523d6000602084013e61354c565b606091505b50600081511415613592576040517f08c379a000000000000000000000000000000000000000000000000000000000815260040161358990615593565b60405180910390fd5b805181602001fd5b63150b7a0260e01b7bffffffffffffffffffffffffffffffffffffffffffffffffffffffff1916817bffffffffffffffffffffffffffffffffffffffffffffffffffffffff1916149150506135ef565b600190505b949350505050565b505050565b6008805490506009600083815260200190815260200160002081905550600881908060018154018082558091505060019003906000526020600020016000909190919091505550565b6000600161365284611026565b61365c9190615a55565b9050600060076000848152602001908152602001600020549050818114613741576000600660008673ffffffffffffffffffffffffffffffffffffffff1673ffffffffffffffffffffffffffffffffffffffff168152602001908152602001600020600084815260200190815260200160002054905080600660008773ffffffffffffffffffffffffffffffffffffffff1673ffffffffffffffffffffffffffffffffffffffff168152602001908152602001600020600084815260200190815260200160002081905550816007600083815260200190815260200160002081905550505b6007600084815260200190815260200160002060009055600660008573ffffffffffffffffffffffffffffffffffffffff1673ffffffffffffffffffffffffffffffffffffffff16815260200190815260200160002060008381526020019081526020016000206000905550505050565b600060016008805490506137c69190615a55565b905060006009600084815260200190815260200160002054905060006008838154811061381c577f4e487b7100000000000000000000000000000000000000000000000000000000600052603260045260246000fd5b906000526020600020015490508060088381548110613864577f4e487b7100000000000000000000000000000000000000000000000000000000600052603260045260246000fd5b9060005260206000200181905550816009600083815260200190815260200160002081905550600960008581526020019081526020016000206000905560088054806138d9577f4e487b7100000000000000000000000000000000000000000000000000000000600052603160045260246000fd5b6001900381819060005260206000200160009055905550505050565b600061390083611026565b905081600660008573ffffffffffffffffffffffffffffffffffffffff1673ffffffffffffffffffffffffffffffffffffffff168152602001908152602001600020600083815260200190815260200160002081905550806007600084815260200190815260200160002081905550505050565b600073ffffffffffffffffffffffffffffffffffffffff168273ffffffffffffffffffffffffffffffffffffffff1614156139e4576040517f08c379a00000000000000000000000000000000000000000000000000000000081526004016139db906156b3565b60405180910390fd5b6139ed816125e0565b15613a2d576040517f08c379a0000000000000000000000000000000000000000000000000000000008152600401613a24906155d3565b60405180910390fd5b613a39600083836132f1565b6001600360008473ffffffffffffffffffffffffffffffffffffffff1673ffffffffffffffffffffffffffffffffffffffff1681526020019081526020016000206000828254613a899190615974565b92505081905550816002600083815260200190815260200160002060006101000a81548173ffffffffffffffffffffffffffffffffffffffff021916908373ffffffffffffffffffffffffffffffffffffffff160217905550808273ffffffffffffffffffffffffffffffffffffffff16600073ffffffffffffffffffffffffffffffffffffffff167fddf252ad1be2c89b69c2b068fc378daa952ba7f163c4a11628f55a4df523b3ef60405160405180910390a45050565b600080823b905060008111915050919050565b508054613b6190615b91565b6000825580601f10613b735750613b92565b601f016020900490600052602060002090810190613b919190613c64565b5b50565b828054613ba190615b91565b90600052602060002090601f016020900481019282613bc35760008555613c0a565b82601f10613bdc57805160ff1916838001178555613c0a565b82800160010185558215613c0a579182015b82811115613c09578251825591602001919060010190613bee565b5b509050613c179190613c64565b5090565b5080546000825590600052602060002090810190613c399190613c64565b50565b6040518061010001604052806008905b6060815260200190600190039081613c4c5790505090565b5b80821115613c7d576000816000905550600101613c65565b5090565b6000613c94613c8f8461585a565b615829565b905082815260208101848484011115613cac57600080fd5b613cb7848285615b4f565b509392505050565b6000613cd2613ccd8461588a565b615829565b905082815260208101848484011115613cea57600080fd5b613cf5848285615b5e565b509392505050565b600081359050613d0c81615d6f565b92915050565b600081519050613d2181615d6f565b92915050565b60008083601f840112613d3957600080fd5b8235905067ffffffffffffffff811115613d5257600080fd5b602083019150836020820283011115613d6a57600080fd5b9250929050565b600081359050613d8081615d86565b92915050565b600081359050613d9581615d9d565b92915050565b600081519050613daa81615d9d565b92915050565b600082601f830112613dc157600080fd5b8135613dd1848260208601613c81565b91505092915050565b60008083601f840112613dec57600080fd5b8235905067ffffffffffffffff811115613e0557600080fd5b602083019150836001820283011115613e1d57600080fd5b9250929050565b600082601f830112613e3557600080fd5b8151613e45848260208601613cbf565b91505092915050565b600081359050613e5d81615db4565b92915050565b600081359050613e7281615dcb565b92915050565b600060208284031215613e8a57600080fd5b6000613e9884828501613cfd565b91505092915050565b600060208284031215613eb357600080fd5b6000613ec184828501613d12565b91505092915050565b60008060408385031215613edd57600080fd5b6000613eeb85828601613cfd565b9250506020613efc85828601613cfd565b9150509250929050565b600080600060608486031215613f1b57600080fd5b6000613f2986828701613cfd565b9350506020613f3a86828701613cfd565b9250506040613f4b86828701613e63565b9150509250925092565b60008060008060808587031215613f6b57600080fd5b6000613f7987828801613cfd565b9450506020613f8a87828801613cfd565b9350506040613f9b87828801613e63565b925050606085013567ffffffffffffffff811115613fb857600080fd5b613fc487828801613db0565b91505092959194509250565b60008060408385031215613fe357600080fd5b6000613ff185828601613cfd565b925050602061400285828601613d71565b9150509250929050565b60008060006040848603121561402157600080fd5b600061402f86828701613cfd565b935050602084013567ffffffffffffffff81111561404c57600080fd5b61405886828701613dda565b92509250509250925092565b6000806040838503121561407757600080fd5b600061408585828601613cfd565b925050602061409685828601613e63565b9150509250929050565b600080602083850312156140b357600080fd5b600083013567ffffffffffffffff8111156140cd57600080fd5b6140d985828601613d27565b92509250509250929050565b6000602082840312156140f757600080fd5b600061410584828501613d71565b91505092915050565b60006020828403121561412057600080fd5b600061412e84828501613d86565b91505092915050565b60006020828403121561414957600080fd5b600061415784828501613d9b565b91505092915050565b6000806020838503121561417357600080fd5b600083013567ffffffffffffffff81111561418d57600080fd5b61419985828601613dda565b92509250509250929050565b6000602082840312156141b757600080fd5b600082015167ffffffffffffffff8111156141d157600080fd5b6141dd84828501613e24565b91505092915050565b600080600080608085870312156141fc57600080fd5b600085015167ffffffffffffffff81111561421657600080fd5b61422287828801613e24565b945050602085015167ffffffffffffffff81111561423f57600080fd5b61424b87828801613e24565b935050604085015167ffffffffffffffff81111561426857600080fd5b61427487828801613e24565b925050606085015167ffffffffffffffff81111561429157600080fd5b61429d87828801613e24565b91505092959194509250565b6000602082840312156142bb57600080fd5b60006142c984828501613e4e565b91505092915050565b6000602082840312156142e457600080fd5b60006142f284828501613e63565b91505092915050565b60008060006040848603121561431057600080fd5b600061431e86828701613e63565b935050602084013567ffffffffffffffff81111561433b57600080fd5b61434786828701613dda565b92509250509250925092565b600061435f8383614383565b60208301905092915050565b600061437783836143b0565b60208301905092915050565b61438c81615aa9565b82525050565b61439b81615aa9565b82525050565b6143aa81615aa9565b82525050565b6143b981615aa9565b82525050565b60006143ca826158df565b6143d48185615925565b93506143df836158ba565b8060005b838110156144105781516143f78882614353565b97506144028361590b565b9250506001810190506143e3565b5085935050505092915050565b6000614428826158ea565b6144328185615936565b935061443d836158ca565b8060005b838110156144755761445282615d3e565b61445c888261436b565b975061446783615918565b925050600181019050614441565b5085935050505092915050565b61448b81615abb565b82525050565b600061449c826158f5565b6144a68185615947565b93506144b6818560208601615b5e565b6144bf81615d51565b840191505092915050565b6144d381615b2b565b82525050565b60006144e58385615969565b93506144f2838584615b4f565b82840190509392505050565b600061450982615900565b6145138185615958565b9350614523818560208601615b5e565b61452c81615d51565b840191505092915050565b600061454282615900565b61454c8185615969565b935061455c818560208601615b5e565b80840191505092915050565b6000614575604683615969565b91507f272f3e3c2f6c696e6561724772616469656e743e3c6c696e656172477261646960008301527f656e742069643d276469676974436f6c6f72273e3c73746f702073746f702d6360208301527f6f6c6f723d2700000000000000000000000000000000000000000000000000006040830152604682019050919050565b6000614601604683615969565b91507f272f3e3c2f6c696e6561724772616469656e743e3c6c696e656172477261646960008301527f656e742069643d276672616d65436f6c6f72273e3c73746f702073746f702d6360208301527f6f6c6f723d2700000000000000000000000000000000000000000000000000006040830152604682019050919050565b600061468d602b83615958565b91507f455243373231456e756d657261626c653a206f776e657220696e646578206f7560008301527f74206f6620626f756e64730000000000000000000000000000000000000000006020830152604082019050919050565b60006146f3603283615958565b91507f4552433732313a207472616e7366657220746f206e6f6e20455243373231526560008301527f63656976657220696d706c656d656e74657200000000000000000000000000006020830152604082019050919050565b6000614759602683615958565b91507f4f776e61626c653a206e6577206f776e657220697320746865207a65726f206160008301527f64647265737300000000000000000000000000000000000000000000000000006020830152604082019050919050565b60006147bf601c83615958565b91507f4552433732313a20746f6b656e20616c7265616479206d696e746564000000006000830152602082019050919050565b60006147ff600883615969565b91507f676f74746f6b656e0000000000000000000000000000000000000000000000006000830152600882019050919050565b600061483f604583615969565b91507f272f3e3c2f6c696e6561724772616469656e743e3c6c696e656172477261646960008301527f656e742069643d27736c7567436f6c6f72273e3c73746f702073746f702d636f60208301527f6c6f723d270000000000000000000000000000000000000000000000000000006040830152604582019050919050565b60006148cb602483615958565b91507f4552433732313a207472616e7366657220746f20746865207a65726f2061646460008301527f72657373000000000000000000000000000000000000000000000000000000006020830152604082019050919050565b6000614931601983615958565b91507f4552433732313a20617070726f766520746f2063616c6c6572000000000000006000830152602082019050919050565b6000614971601b83615969565b91507f272f3e3c2f6c696e6561724772616469656e743e3c2f646566733e00000000006000830152601b82019050919050565b60006149b1602c83615958565b91507f4552433732313a206f70657261746f7220717565727920666f72206e6f6e657860008301527f697374656e7420746f6b656e00000000000000000000000000000000000000006020830152604082019050919050565b6000614a1861010983615969565b91507f3c636972636c652063783d27353030272063793d273530302720723d2734353060008301527f272066696c6c3d272346464646464627207374726f6b653d276e6f6e6527202f60208301527f3e3c2f6d61736b3e3c636972636c652063783d27353030272063793d2735303060408301527f2720723d27343530272066696c6c3d2775726c28236261636b436f6c6f72292760608301527f206d61736b3d2775726c28235f6d61736b2927207374726f6b652d776964746860808301527f3d2731333027207374726f6b653d2775726c28236672616d65436f6c6f72292760a08301527f207374726f6b652d6c696e656a6f696e3d276d6974657227207374726f6b652d60c08301527f6c696e656361703d2773717561726527207374726f6b652d6d697465726c696d60e08301527f69743d273327202f3e000000000000000000000000000000000000000000000061010083015261010982019050919050565b6000614b8a600783615969565b91507f6f67636f6c6f72000000000000000000000000000000000000000000000000006000830152600782019050919050565b6000614bca603883615958565b91507f4552433732313a20617070726f76652063616c6c6572206973206e6f74206f7760008301527f6e6572206e6f7220617070726f76656420666f7220616c6c00000000000000006020830152604082019050919050565b6000614c30602a83615958565b91507f4552433732313a2062616c616e636520717565727920666f7220746865207a6560008301527f726f2061646472657373000000000000000000000000000000000000000000006020830152604082019050919050565b6000614c96602983615958565b91507f4552433732313a206f776e657220717565727920666f72206e6f6e657869737460008301527f656e7420746f6b656e00000000000000000000000000000000000000000000006020830152604082019050919050565b6000614cfc600283615969565b91507f227d0000000000000000000000000000000000000000000000000000000000006000830152600282019050919050565b6000614d3c602083615958565b91507f4552433732313a206d696e7420746f20746865207a65726f20616464726573736000830152602082019050919050565b6000614d7c602c83615958565b91507f4552433732313a20617070726f76656420717565727920666f72206e6f6e657860008301527f697374656e7420746f6b656e00000000000000000000000000000000000000006020830152604082019050919050565b6000614de2602083615958565b91507f4f776e61626c653a2063616c6c6572206973206e6f7420746865206f776e65726000830152602082019050919050565b6000614e22602983615958565b91507f4552433732313a207472616e73666572206f6620746f6b656e2074686174206960008301527f73206e6f74206f776e00000000000000000000000000000000000000000000006020830152604082019050919050565b6000614e88601083615958565b91507f546f6b656e20496420696e76616c6964000000000000000000000000000000006000830152602082019050919050565b6000614ec8602183615958565b91507f4552433732313a20617070726f76616c20746f2063757272656e74206f776e6560008301527f72000000000000000000000000000000000000000000000000000000000000006020830152604082019050919050565b6000614f2e601c83615958565b91507f696e76616c696420626173653634206465636f64657220696e707574000000006000830152602082019050919050565b6000614f6e601d83615969565b91507f646174613a6170706c69636174696f6e2f6a736f6e3b6261736536342c0000006000830152601d82019050919050565b6000614fae603183615958565b91507f4552433732313a207472616e736665722063616c6c6572206973206e6f74206f60008301527f776e6572206e6f7220617070726f7665640000000000000000000000000000006020830152604082019050919050565b6000615014601183615958565b91507f4d696e74696e67206973207061757365640000000000000000000000000000006000830152602082019050919050565b6000615054602c83615958565b91507f455243373231456e756d657261626c653a20676c6f62616c20696e646578206f60008301527f7574206f6620626f756e647300000000000000000000000000000000000000006020830152604082019050919050565b60006150ba600883615969565b91507f20696e76616c69640000000000000000000000000000000000000000000000006000830152600882019050919050565b60006150fa600983615969565b91507f546f6b656e2049642000000000000000000000000000000000000000000000006000830152600982019050919050565b600061513a600e83615969565b91507f7b226e616d65223a20224f4720230000000000000000000000000000000000006000830152600e82019050919050565b600061517a603783615969565b91507f3c646566733e3c6c696e6561724772616469656e742069643d276261636b436f60008301527f6c6f72273e3c73746f702073746f702d636f6c6f723d270000000000000000006020830152603782019050919050565b60006151e0603a83615969565b91507f222c20226465736372697074696f6e223a2022222c2022696d616765223a202260008301527f646174613a696d6167652f7376672b786d6c3b6261736536342c0000000000006020830152603a82019050919050565b61524281615b21565b82525050565b61525181615b21565b82525050565b60006152648284866144d9565b91508190509392505050565b600061527c828b614537565b9150615288828a614537565b91506152948289614537565b91506152a08288614537565b91506152ac8287614537565b91506152b88286614537565b91506152c48285614537565b91506152d08284614537565b91508190509998505050505050505050565b60006152ed826147f2565b9150819050919050565b600061530282614a0a565b9150819050919050565b600061531782614b7d565b9150819050919050565b600061532c82614f61565b91506153388284614537565b915081905092915050565b600061534e826150ed565b915061535a8284614537565b9150615365826150ad565b915081905092915050565b600061537b8261512d565b91506153878285614537565b9150615392826151d3565b915061539e8284614537565b91506153a982614cef565b91508190509392505050565b60006153c08261516d565b91506153cc8287614537565b91506153d7826145f4565b91506153e38286614537565b91506153ee82614568565b91506153fa8285614537565b915061540582614832565b91506154118284614537565b915061541c82614964565b915081905095945050505050565b600060208201905061543f6000830184614392565b92915050565b600060808201905061545a6000830187614392565b6154676020830186614392565b6154746040830185615239565b81810360608301526154868184614491565b905095945050505050565b600060208201905081810360008301526154ab81846143bf565b905092915050565b60006020820190506154c86000830184614482565b92915050565b60006080820190506154e360008301876144ca565b6154f060208301866143a1565b8181036040830152615502818561441d565b90506155116060830184615248565b95945050505050565b600060608201905061552f60008301866144ca565b61553c60208301856143a1565b6155496040830184615248565b949350505050565b6000602082019050818103600083015261556b81846144fe565b905092915050565b6000602082019050818103600083015261558c81614680565b9050919050565b600060208201905081810360008301526155ac816146e6565b9050919050565b600060208201905081810360008301526155cc8161474c565b9050919050565b600060208201905081810360008301526155ec816147b2565b9050919050565b6000602082019050818103600083015261560c816148be565b9050919050565b6000602082019050818103600083015261562c81614924565b9050919050565b6000602082019050818103600083015261564c816149a4565b9050919050565b6000602082019050818103600083015261566c81614bbd565b9050919050565b6000602082019050818103600083015261568c81614c23565b9050919050565b600060208201905081810360008301526156ac81614c89565b9050919050565b600060208201905081810360008301526156cc81614d2f565b9050919050565b600060208201905081810360008301526156ec81614d6f565b9050919050565b6000602082019050818103600083015261570c81614dd5565b9050919050565b6000602082019050818103600083015261572c81614e15565b9050919050565b6000602082019050818103600083015261574c81614e7b565b9050919050565b6000602082019050818103600083015261576c81614ebb565b9050919050565b6000602082019050818103600083015261578c81614f21565b9050919050565b600060208201905081810360008301526157ac81614fa1565b9050919050565b600060208201905081810360008301526157cc81615007565b9050919050565b600060208201905081810360008301526157ec81615047565b9050919050565b60006020820190506158086000830184615248565b92915050565b60006020820190506158236000830184615239565b92915050565b6000604051905081810181811067ffffffffffffffff821117156158505761584f615d0f565b5b8060405250919050565b600067ffffffffffffffff82111561587557615874615d0f565b5b601f19601f8301169050602081019050919050565b600067ffffffffffffffff8211156158a5576158a4615d0f565b5b601f19601f8301169050602081019050919050565b6000819050602082019050919050565b60008190508160005260206000209050919050565b600081519050919050565b600081549050919050565b600081519050919050565b600081519050919050565b6000602082019050919050565b6000600182019050919050565b600082825260208201905092915050565b600082825260208201905092915050565b600082825260208201905092915050565b600082825260208201905092915050565b600081905092915050565b600061597f82615b21565b915061598a83615b21565b9250827fffffffffffffffffffffffffffffffffffffffffffffffffffffffffffffffff038211156159bf576159be615c82565b5b828201905092915050565b60006159d582615b21565b91506159e083615b21565b9250826159f0576159ef615cb1565b5b828204905092915050565b6000615a0682615b21565b9150615a1183615b21565b9250817fffffffffffffffffffffffffffffffffffffffffffffffffffffffffffffffff0483118215151615615a4a57615a49615c82565b5b828202905092915050565b6000615a6082615b21565b9150615a6b83615b21565b925082821015615a7e57615a7d615c82565b5b828203905092915050565b600073ffffffffffffffffffffffffffffffffffffffff82169050919050565b6000615ab482615b01565b9050919050565b60008115159050919050565b60007fffffffff0000000000000000000000000000000000000000000000000000000082169050919050565b600061ffff82169050919050565b600073ffffffffffffffffffffffffffffffffffffffff82169050919050565b6000819050919050565b6000615b3682615b3d565b9050919050565b6000615b4882615b01565b9050919050565b82818337600083830152505050565b60005b83811015615b7c578082015181840152602081019050615b61565b83811115615b8b576000848401525b50505050565b60006002820490506001821680615ba957607f821691505b60208210811415615bbd57615bbc615ce0565b5b50919050565b6000615bd6615bd183615d62565b615a89565b9050919050565b6000615be882615af3565b915061ffff821415615bfd57615bfc615c82565b5b600182019050919050565b6000615c1382615b21565b91507fffffffffffffffffffffffffffffffffffffffffffffffffffffffffffffffff821415615c4657615c45615c82565b5b600182019050919050565b6000615c5c82615b21565b9150615c6783615b21565b925082615c7757615c76615cb1565b5b828206905092915050565b7f4e487b7100000000000000000000000000000000000000000000000000000000600052601160045260246000fd5b7f4e487b7100000000000000000000000000000000000000000000000000000000600052601260045260246000fd5b7f4e487b7100000000000000000000000000000000000000000000000000000000600052602260045260246000fd5b7f4e487b7100000000000000000000000000000000000000000000000000000000600052604160045260246000fd5b6000615d4a8254615bc3565b9050919050565b6000601f19601f8301169050919050565b60008160001c9050919050565b615d7881615aa9565b8114615d8357600080fd5b50565b615d8f81615abb565b8114615d9a57600080fd5b50565b615da681615ac7565b8114615db157600080fd5b50565b615dbd81615af3565b8114615dc857600080fd5b50565b615dd481615b21565b8114615ddf57600080fd5b5056fe3c73766720786d6c6e733d27687474703a2f2f7777772e77332e6f72672f323030302f737667272077696474683d273130303027206865696768743d2731303030273e4142434445464748494a4b4c4d4e4f505152535455565758595a6162636465666768696a6b6c6d6e6f707172737475767778797a303132333435363738392b2f3c706174682069643d27706174682d302720643d274d203530342e3238203130352e3631342043203830342e313435203130352e353431203939312e363339203433302e313131203834312e373638203638392e3833362043203639312e383938203934392e353633203331372e303637203934392e363535203136372e3037322036393020432032362e383035203434372e313835203138312e333234203134302e313639203435392e393037203130382e3136205a27207374796c653d2766696c6c3a206e6f6e653b272f3e000000000000000000000000000000000000000000000000000000000000000000000000000000000000003e0000003f3435363738393a3b3c3d00000000000000000102030405060708090a0b0c0d0e0f101112131415161718190000000000001a1b1c1d1e1f202122232425262728292a2b2c2d2e2f303132330000000000a26469706673582212208e5062b4ef79856ac4d0b87d67bc224eb541b7c953f6d10673ceaf4f3dfc9d1464736f6c63430008000033",
  "immutableReferences": {},
  "source": "/*\r\n\r\n     OOOOOOOOO                  GGGGGGGGGGGGG\r\n   OO:::::::::OO             GGG::::::::::::G\r\n OO:::::::::::::OO         GG:::::::::::::::G\r\nO:::::::OOO:::::::O       G:::::GGGGGGGG::::G\r\nO::::::O   O::::::O      G:::::G       GGGGGG\r\nO:::::O     O:::::O     G:::::G              \r\nO:::::O     O:::::O     G:::::G              \r\nO:::::O     O:::::O     G:::::G    GGGGGGGGGG\r\nO:::::O     O:::::O     G:::::G    G::::::::G\r\nO:::::O     O:::::O     G:::::G    GGGGG::::G\r\nO:::::O     O:::::O     G:::::G        G::::G\r\nO::::::O   O::::::O      G:::::G       G::::G\r\nO:::::::OOO:::::::O       G:::::GGGGGGGG::::G\r\n OO:::::::::::::OO         GG:::::::::::::::G\r\n   OO:::::::::OO             GGG::::::GGG:::G\r\n     OOOOOOOOO                  GGGGGG   GGGG\r\n     \r\n*/\r\n\r\n// SPDX-License-Identifier: MIT\r\n\r\npragma solidity 0.8.0;\r\n\r\nimport \"@openzeppelin/contracts/token/ERC721/ERC721.sol\";\r\nimport \"@openzeppelin/contracts/token/ERC721/extensions/ERC721Enumerable.sol\";\r\nimport '@openzeppelin/contracts/token/ERC20/ERC20.sol';\r\nimport '@openzeppelin/contracts/access/Ownable.sol';\r\nimport '@openzeppelin/contracts/utils/Strings.sol';\r\nimport 'base64-sol/base64.sol';\r\nimport './interfaces/GotTokenInterface.sol';\r\nimport './interfaces/OGColorInterface.sol';\r\nimport './libs/Customizer.sol';\r\nimport './libs/Digits.sol';\r\n\r\n/**\r\n * @title OG\r\n * @author nfttank.eth\r\n */\r\ncontract OG is ERC721Enumerable, Ownable {\r\n\r\n    mapping(address => string) private _supportedSlugs;\r\n    mapping(string => address) private _trustedContracts;\r\n    mapping(uint256 => string) private _custom;\r\n    address[] private _supportedCollections;\r\n    bool _paused;\r\n\r\n    constructor() ERC721(\"OG\", \"OG\") Ownable() {\r\n        _trustedContracts[\"gottoken\"] = address(0);\r\n        _trustedContracts[\"ogcolor\"] = address(0);\r\n    }\r\n\r\n    function setPaused(bool paused) external onlyOwner {\r\n        _paused = paused;\r\n    }\r\n\r\n    function addSupportedCollection(address contractAddress) external onlyOwner {\r\n         _supportedCollections.push(contractAddress);\r\n    }\r\n    \r\n    function getSupportedCollections() external view onlyOwner returns (address[] memory) {\r\n        return _supportedCollections;\r\n    }\r\n\r\n    function clearSupportedCollections() external onlyOwner {\r\n         delete _supportedCollections;\r\n    }\r\n    \r\n    function setSupportedCollectionSlug(address contractAddress, string calldata base64EncodedSvgSlug) external onlyOwner {\r\n        _supportedSlugs[contractAddress] = string(Base64.decode(base64EncodedSvgSlug));\r\n    }\r\n\r\n    function setCustom(uint256 tokenId, string calldata base64EncodedSvg) external onlyOwner {\r\n        _custom[tokenId] = string(Base64.decode(base64EncodedSvg));\r\n    }\r\n\r\n    function resetCustom(uint256 tokenId) external onlyOwner {\r\n        delete _custom[tokenId];\r\n    }\r\n\r\n    function setTrustedContractAddresses(address gotTokenAddress, address ogColorAddress) external onlyOwner {\r\n        _trustedContracts[\"gottoken\"] = gotTokenAddress;\r\n        _trustedContracts[\"ogcolor\"] = ogColorAddress;\r\n    }\r\n    \r\n    function getTrustedContractAddress(string calldata contractName) external view onlyOwner returns (address) {\r\n        return _trustedContracts[contractName];\r\n    }\r\n    \r\n    function renderSvg(uint256 tokenId) public virtual view returns (string memory) {\r\n        require(tokenId >= 0 && tokenId <= 9999, \"Token Id invalid\");\r\n        \r\n        (string memory backColor, string memory frameColor, string memory digitColor, string memory slugColor)\r\n            = Customizer.getColors(this, _trustedContracts[\"ogcolor\"], tokenId);\r\n        \r\n        address supportedCollection = Customizer.getOwnedSupportedCollection(this, _trustedContracts[\"gottoken\"], _supportedCollections, tokenId);\r\n        bool hasCollection = supportedCollection != address(0);\r\n\r\n        string[8] memory parts;\r\n\r\n        parts[0] = \"<svg xmlns='http://www.w3.org/2000/svg' width='1000' height='1000'>\";\r\n        parts[1] = string(abi.encodePacked(\"<defs><linearGradient id='backColor'><stop stop-color='\", backColor, \"'/></linearGradient><linearGradient id='frameColor'><stop stop-color='\", frameColor, \"'/></linearGradient><linearGradient id='digitColor'><stop stop-color='\", digitColor, \"'/></linearGradient><linearGradient id='slugColor'><stop stop-color='\", slugColor, \"'/></linearGradient></defs>\"));\r\n        parts[2] = \"<mask id='_mask'>\";\r\n        \r\n        if (hasCollection)\r\n            parts[3] = \"<path id='path-0' d='M 504.28 105.614 C 804.145 105.541 991.639 430.111 841.768 689.836 C 691.898 949.563 317.067 949.655 167.072 690 C 26.805 447.185 181.324 140.169 459.907 108.16 Z' style='fill: none;'/>\";\r\n        else\r\n           parts[3] = \"\";\r\n            \r\n        // don't apply colors on this string, this should be kept white\r\n        parts[4] = string(abi.encodePacked(\"<circle cx='500' cy='500' r='450' fill='#FFFFFF' stroke='none' /></mask><circle cx='500' cy='500' r='450' fill='url(#backColor)' mask='url(#_mask)' stroke-width='130' stroke='url(#frameColor)' stroke-linejoin='miter' stroke-linecap='square' stroke-miterlimit='3' />\"));\r\n\r\n        string memory digits = _custom[tokenId];\r\n        if (bytes(digits).length == 0)\r\n            digits = Digits.generateDigits(tokenId);\r\n\r\n        parts[5] = digits;\r\n          \r\n        if (hasCollection)  \r\n            parts[6] = _supportedSlugs[supportedCollection];\r\n        else\r\n            parts[6] = \"\";\r\n            \r\n        parts[7] = \"</svg>\";\r\n        \r\n        return string(abi.encodePacked(parts[0], parts[1], parts[2], parts[3], parts[4], parts[5], parts[6], parts[7]));\r\n    }\r\n    \r\n    function tokenURI(uint256 tokenId) override public view returns (string memory) {\r\n        require(tokenId >= 0 && tokenId <= 9999, \"Token Id invalid\");\r\n    \r\n        string memory json = Base64.encode(bytes(string(abi.encodePacked('{\"name\": \"OG #', Strings.toString(tokenId), '\", \"description\": \"\", \"image\": \"data:image/svg+xml;base64,', Base64.encode(bytes(renderSvg(tokenId))), '\"}'))));\r\n        return string(abi.encodePacked('data:application/json;base64,', json));\r\n    }\r\n    \r\n    function mint(uint16 tokenId) public {\r\n        require(tokenId >= 0 && tokenId <= 9999, \"Token Id invalid\");\r\n        require(!_paused, \"Minting is paused\");\r\n\r\n        _safeMint(_msgSender(), tokenId);\r\n    } \r\n\r\n    function mintMultiple(uint16[] calldata tokenIds) public {\r\n        require(!_paused, \"Minting is paused\");\r\n\r\n        for (uint16 i = 0; i < tokenIds.length; i++) {\r\n           require(tokenIds[i] >= 0 && tokenIds[i] <= 9999, string(abi.encodePacked(\"Token Id \", Strings.toString(tokenIds[i]), \" invalid\"))); \r\n        }\r\n\r\n        for (uint16 i = 0; i < tokenIds.length; i++) {\r\n            _safeMint(_msgSender(), tokenIds[i]);\r\n        }\r\n    }\r\n}",
  "sourcePath": "D:\\Develop\\GitHub\\OG+\\src\\contracts\\OG.sol",
  "compiler": {
    "name": "solc",
    "version": "0.8.0+commit.c7dfd78e.Emscripten.clang"
  },
  "schemaVersion": "3.4.3",
  "updatedAt": "2021-12-20T23:42:47.239Z",
  "networkType": "ethereum",
  "devdoc": {
    "author": "nfttank.eth",
    "kind": "dev",
    "methods": {
      "approve(address,uint256)": {
        "details": "See {IERC721-approve}."
      },
      "balanceOf(address)": {
        "details": "See {IERC721-balanceOf}."
      },
      "getApproved(uint256)": {
        "details": "See {IERC721-getApproved}."
      },
      "isApprovedForAll(address,address)": {
        "details": "See {IERC721-isApprovedForAll}."
      },
      "name()": {
        "details": "See {IERC721Metadata-name}."
      },
      "owner()": {
        "details": "Returns the address of the current owner."
      },
      "ownerOf(uint256)": {
        "details": "See {IERC721-ownerOf}."
      },
      "renounceOwnership()": {
        "details": "Leaves the contract without owner. It will not be possible to call `onlyOwner` functions anymore. Can only be called by the current owner. NOTE: Renouncing ownership will leave the contract without an owner, thereby removing any functionality that is only available to the owner."
      },
      "safeTransferFrom(address,address,uint256)": {
        "details": "See {IERC721-safeTransferFrom}."
      },
      "safeTransferFrom(address,address,uint256,bytes)": {
        "details": "See {IERC721-safeTransferFrom}."
      },
      "setApprovalForAll(address,bool)": {
        "details": "See {IERC721-setApprovalForAll}."
      },
      "supportsInterface(bytes4)": {
        "details": "See {IERC165-supportsInterface}."
      },
      "symbol()": {
        "details": "See {IERC721Metadata-symbol}."
      },
      "tokenByIndex(uint256)": {
        "details": "See {IERC721Enumerable-tokenByIndex}."
      },
      "tokenOfOwnerByIndex(address,uint256)": {
        "details": "See {IERC721Enumerable-tokenOfOwnerByIndex}."
      },
      "tokenURI(uint256)": {
        "details": "See {IERC721Metadata-tokenURI}."
      },
      "totalSupply()": {
        "details": "See {IERC721Enumerable-totalSupply}."
      },
      "transferFrom(address,address,uint256)": {
        "details": "See {IERC721-transferFrom}."
      },
      "transferOwnership(address)": {
        "details": "Transfers ownership of the contract to a new account (`newOwner`). Can only be called by the current owner."
      }
    },
    "title": "OG",
    "version": 1
  },
  "userdoc": {
    "kind": "user",
    "methods": {},
    "version": 1
  }
}