{
  "contractName": "OG",
  "abi": [
    {
      "inputs": [],
      "stateMutability": "nonpayable",
      "type": "constructor"
    },
    {
      "anonymous": false,
      "inputs": [
        {
          "indexed": true,
          "internalType": "address",
          "name": "owner",
          "type": "address"
        },
        {
          "indexed": true,
          "internalType": "address",
          "name": "approved",
          "type": "address"
        },
        {
          "indexed": true,
          "internalType": "uint256",
          "name": "tokenId",
          "type": "uint256"
        }
      ],
      "name": "Approval",
      "type": "event"
    },
    {
      "anonymous": false,
      "inputs": [
        {
          "indexed": true,
          "internalType": "address",
          "name": "owner",
          "type": "address"
        },
        {
          "indexed": true,
          "internalType": "address",
          "name": "operator",
          "type": "address"
        },
        {
          "indexed": false,
          "internalType": "bool",
          "name": "approved",
          "type": "bool"
        }
      ],
      "name": "ApprovalForAll",
      "type": "event"
    },
    {
      "anonymous": false,
      "inputs": [
        {
          "indexed": true,
          "internalType": "address",
          "name": "previousOwner",
          "type": "address"
        },
        {
          "indexed": true,
          "internalType": "address",
          "name": "newOwner",
          "type": "address"
        }
      ],
      "name": "OwnershipTransferred",
      "type": "event"
    },
    {
      "anonymous": false,
      "inputs": [
        {
          "indexed": true,
          "internalType": "address",
          "name": "from",
          "type": "address"
        },
        {
          "indexed": true,
          "internalType": "address",
          "name": "to",
          "type": "address"
        },
        {
          "indexed": true,
          "internalType": "uint256",
          "name": "tokenId",
          "type": "uint256"
        }
      ],
      "name": "Transfer",
      "type": "event"
    },
    {
      "inputs": [
        {
          "internalType": "address",
          "name": "to",
          "type": "address"
        },
        {
          "internalType": "uint256",
          "name": "tokenId",
          "type": "uint256"
        }
      ],
      "name": "approve",
      "outputs": [],
      "stateMutability": "nonpayable",
      "type": "function"
    },
    {
      "inputs": [
        {
          "internalType": "address",
          "name": "owner",
          "type": "address"
        }
      ],
      "name": "balanceOf",
      "outputs": [
        {
          "internalType": "uint256",
          "name": "",
          "type": "uint256"
        }
      ],
      "stateMutability": "view",
      "type": "function"
    },
    {
      "inputs": [
        {
          "internalType": "uint256",
          "name": "tokenId",
          "type": "uint256"
        }
      ],
      "name": "getApproved",
      "outputs": [
        {
          "internalType": "address",
          "name": "",
          "type": "address"
        }
      ],
      "stateMutability": "view",
      "type": "function"
    },
    {
      "inputs": [
        {
          "internalType": "address",
          "name": "owner",
          "type": "address"
        },
        {
          "internalType": "address",
          "name": "operator",
          "type": "address"
        }
      ],
      "name": "isApprovedForAll",
      "outputs": [
        {
          "internalType": "bool",
          "name": "",
          "type": "bool"
        }
      ],
      "stateMutability": "view",
      "type": "function"
    },
    {
      "inputs": [],
      "name": "name",
      "outputs": [
        {
          "internalType": "string",
          "name": "",
          "type": "string"
        }
      ],
      "stateMutability": "view",
      "type": "function"
    },
    {
      "inputs": [],
      "name": "owner",
      "outputs": [
        {
          "internalType": "address",
          "name": "",
          "type": "address"
        }
      ],
      "stateMutability": "view",
      "type": "function"
    },
    {
      "inputs": [
        {
          "internalType": "uint256",
          "name": "tokenId",
          "type": "uint256"
        }
      ],
      "name": "ownerOf",
      "outputs": [
        {
          "internalType": "address",
          "name": "",
          "type": "address"
        }
      ],
      "stateMutability": "view",
      "type": "function"
    },
    {
      "inputs": [],
      "name": "renounceOwnership",
      "outputs": [],
      "stateMutability": "nonpayable",
      "type": "function"
    },
    {
      "inputs": [
        {
          "internalType": "address",
          "name": "from",
          "type": "address"
        },
        {
          "internalType": "address",
          "name": "to",
          "type": "address"
        },
        {
          "internalType": "uint256",
          "name": "tokenId",
          "type": "uint256"
        }
      ],
      "name": "safeTransferFrom",
      "outputs": [],
      "stateMutability": "nonpayable",
      "type": "function"
    },
    {
      "inputs": [
        {
          "internalType": "address",
          "name": "from",
          "type": "address"
        },
        {
          "internalType": "address",
          "name": "to",
          "type": "address"
        },
        {
          "internalType": "uint256",
          "name": "tokenId",
          "type": "uint256"
        },
        {
          "internalType": "bytes",
          "name": "_data",
          "type": "bytes"
        }
      ],
      "name": "safeTransferFrom",
      "outputs": [],
      "stateMutability": "nonpayable",
      "type": "function"
    },
    {
      "inputs": [
        {
          "internalType": "address",
          "name": "operator",
          "type": "address"
        },
        {
          "internalType": "bool",
          "name": "approved",
          "type": "bool"
        }
      ],
      "name": "setApprovalForAll",
      "outputs": [],
      "stateMutability": "nonpayable",
      "type": "function"
    },
    {
      "inputs": [
        {
          "internalType": "bytes4",
          "name": "interfaceId",
          "type": "bytes4"
        }
      ],
      "name": "supportsInterface",
      "outputs": [
        {
          "internalType": "bool",
          "name": "",
          "type": "bool"
        }
      ],
      "stateMutability": "view",
      "type": "function"
    },
    {
      "inputs": [],
      "name": "symbol",
      "outputs": [
        {
          "internalType": "string",
          "name": "",
          "type": "string"
        }
      ],
      "stateMutability": "view",
      "type": "function"
    },
    {
      "inputs": [
        {
          "internalType": "uint256",
          "name": "index",
          "type": "uint256"
        }
      ],
      "name": "tokenByIndex",
      "outputs": [
        {
          "internalType": "uint256",
          "name": "",
          "type": "uint256"
        }
      ],
      "stateMutability": "view",
      "type": "function"
    },
    {
      "inputs": [
        {
          "internalType": "address",
          "name": "owner",
          "type": "address"
        },
        {
          "internalType": "uint256",
          "name": "index",
          "type": "uint256"
        }
      ],
      "name": "tokenOfOwnerByIndex",
      "outputs": [
        {
          "internalType": "uint256",
          "name": "",
          "type": "uint256"
        }
      ],
      "stateMutability": "view",
      "type": "function"
    },
    {
      "inputs": [],
      "name": "totalSupply",
      "outputs": [
        {
          "internalType": "uint256",
          "name": "",
          "type": "uint256"
        }
      ],
      "stateMutability": "view",
      "type": "function"
    },
    {
      "inputs": [
        {
          "internalType": "address",
          "name": "from",
          "type": "address"
        },
        {
          "internalType": "address",
          "name": "to",
          "type": "address"
        },
        {
          "internalType": "uint256",
          "name": "tokenId",
          "type": "uint256"
        }
      ],
      "name": "transferFrom",
      "outputs": [],
      "stateMutability": "nonpayable",
      "type": "function"
    },
    {
      "inputs": [
        {
          "internalType": "address",
          "name": "newOwner",
          "type": "address"
        }
      ],
      "name": "transferOwnership",
      "outputs": [],
      "stateMutability": "nonpayable",
      "type": "function"
    },
    {
      "inputs": [
        {
          "internalType": "address",
          "name": "contractAddress",
          "type": "address"
        }
      ],
      "name": "addSupportedCollection",
      "outputs": [],
      "stateMutability": "nonpayable",
      "type": "function"
    },
    {
      "inputs": [],
      "name": "getSupportedCollections",
      "outputs": [
        {
          "internalType": "address[]",
          "name": "",
          "type": "address[]"
        }
      ],
      "stateMutability": "view",
      "type": "function"
    },
    {
      "inputs": [
        {
          "internalType": "address",
          "name": "contractAddress",
          "type": "address"
        },
        {
          "internalType": "string",
          "name": "base64EncodedSvgSlug",
          "type": "string"
        }
      ],
      "name": "setSupportedCollectionSlug",
      "outputs": [],
      "stateMutability": "nonpayable",
      "type": "function"
    },
    {
      "inputs": [
        {
          "internalType": "address",
          "name": "gotTokenAddress",
          "type": "address"
        },
        {
          "internalType": "address",
          "name": "ogColorAddress",
          "type": "address"
        }
      ],
      "name": "setKnownContractAddresses",
      "outputs": [],
      "stateMutability": "nonpayable",
      "type": "function"
    },
    {
      "inputs": [
        {
          "internalType": "string",
          "name": "name",
          "type": "string"
        }
      ],
      "name": "getKnownContractAddress",
      "outputs": [
        {
          "internalType": "address",
          "name": "",
          "type": "address"
        }
      ],
      "stateMutability": "view",
      "type": "function"
    },
    {
      "inputs": [
        {
          "internalType": "uint256",
          "name": "tokenId",
          "type": "uint256"
        }
      ],
      "name": "_safeOwnerOf",
      "outputs": [
        {
          "internalType": "address",
          "name": "",
          "type": "address"
        }
      ],
      "stateMutability": "view",
      "type": "function"
    },
    {
      "inputs": [
        {
          "internalType": "uint256",
          "name": "tokenId",
          "type": "uint256"
        }
      ],
      "name": "getOwnedSupportedCollection",
      "outputs": [
        {
          "internalType": "address",
          "name": "",
          "type": "address"
        }
      ],
      "stateMutability": "view",
      "type": "function"
    },
    {
      "inputs": [
        {
          "internalType": "uint256",
          "name": "tokenId",
          "type": "uint256"
        }
      ],
      "name": "getColors",
      "outputs": [
        {
          "internalType": "string",
          "name": "backColor",
          "type": "string"
        },
        {
          "internalType": "string",
          "name": "frameColor",
          "type": "string"
        },
        {
          "internalType": "string",
          "name": "digitColor",
          "type": "string"
        },
        {
          "internalType": "string",
          "name": "slugColor",
          "type": "string"
        }
      ],
      "stateMutability": "view",
      "type": "function"
    },
    {
      "inputs": [
        {
          "internalType": "uint256",
          "name": "tokenId",
          "type": "uint256"
        }
      ],
      "name": "renderSvg",
      "outputs": [
        {
          "internalType": "string",
          "name": "",
          "type": "string"
        }
      ],
      "stateMutability": "view",
      "type": "function"
    },
    {
      "inputs": [
        {
          "internalType": "uint256",
          "name": "tokenId",
          "type": "uint256"
        }
      ],
      "name": "tokenURI",
      "outputs": [
        {
          "internalType": "string",
          "name": "",
          "type": "string"
        }
      ],
      "stateMutability": "view",
      "type": "function"
    },
    {
      "inputs": [
        {
          "internalType": "uint16",
          "name": "tokenId",
          "type": "uint16"
        }
      ],
      "name": "claim",
      "outputs": [],
      "stateMutability": "nonpayable",
      "type": "function"
    }
  ],
  "bytecode": "0x60806040523480156200001157600080fd5b506040518060400160405280600281526020017f4f470000000000000000000000000000000000000000000000000000000000008152506040518060400160405280600281526020017f4f470000000000000000000000000000000000000000000000000000000000008152508160009080519060200190620000969291906200026a565b508060019080519060200190620000af9291906200026a565b5050506001600a81905550620000da620000ce6200019c60201b60201c565b620001a460201b60201c565b6000600e604051620000ec906200039e565b908152602001604051809103902060006101000a81548173ffffffffffffffffffffffffffffffffffffffff021916908373ffffffffffffffffffffffffffffffffffffffff1602179055506000600e6040516200014a90620003b5565b908152602001604051809103902060006101000a81548173ffffffffffffffffffffffffffffffffffffffff021916908373ffffffffffffffffffffffffffffffffffffffff1602179055506200043c565b600033905090565b6000600b60009054906101000a900473ffffffffffffffffffffffffffffffffffffffff16905081600b60006101000a81548173ffffffffffffffffffffffffffffffffffffffff021916908373ffffffffffffffffffffffffffffffffffffffff1602179055508173ffffffffffffffffffffffffffffffffffffffff168173ffffffffffffffffffffffffffffffffffffffff167f8be0079c531659141344cd1fd0a4f28419497f9722a3daafe3b4186f6b6457e060405160405180910390a35050565b8280546200027890620003d7565b90600052602060002090601f0160209004810192826200029c5760008555620002e8565b82601f10620002b757805160ff1916838001178555620002e8565b82800160010185558215620002e8579182015b82811115620002e7578251825591602001919060010190620002ca565b5b509050620002f79190620002fb565b5090565b5b8082111562000316576000816000905550600101620002fc565b5090565b600062000329600883620003cc565b91507f676f74746f6b656e0000000000000000000000000000000000000000000000006000830152600882019050919050565b60006200036b600783620003cc565b91507f6f67636f6c6f72000000000000000000000000000000000000000000000000006000830152600782019050919050565b6000620003ab826200031a565b9150819050919050565b6000620003c2826200035c565b9150819050919050565b600081905092915050565b60006002820490506001821680620003f057607f821691505b602082108114156200040757620004066200040d565b5b50919050565b7f4e487b7100000000000000000000000000000000000000000000000000000000600052602260045260246000fd5b615ef9806200044c6000396000f3fe608060405234801561001057600080fd5b50600436106101cf5760003560e01c80636352211e11610104578063b88d4fde116100a2578063edac5f3e11610071578063edac5f3e14610564578063f2fde38b14610580578063f31196821461059c578063fd5ad319146105cf576101cf565b8063b88d4fde146104b8578063c87b56dd146104d4578063ce3e46c014610504578063e985e9c514610534576101cf565b806383ac6a2f116100de57806383ac6a2f146104305780638da5cb5b1461046057806395d89b411461047e578063a22cb4651461049c576101cf565b80636352211e146103c657806370a08231146103f6578063715018a614610426576101cf565b80632f745c59116101715780634e2e46d71161014b5780634e2e46d7146103425780634f6ccce71461035e5780635139b8e81461038e57806353321817146103aa576101cf565b80632f745c59146102c657806342842e0e146102f657806347005fbd14610312576101cf565b8063095ea7b3116101ad578063095ea7b31461025257806317dd5a481461026e57806318160ddd1461028c57806323b872dd146102aa576101cf565b806301ffc9a7146101d457806306fdde0314610204578063081812fc14610222575b600080fd5b6101ee60048036038101906101e99190614045565b6105ff565b6040516101fb91906153f9565b60405180910390f35b61020c610679565b6040516102199190615414565b60405180910390f35b61023c60048036038101906102379190614209565b61070b565b6040516102499190615309565b60405180910390f35b61026c60048036038101906102679190613fc8565b610790565b005b6102766108a8565b60405161028391906153d7565b60405180910390f35b610294610936565b6040516102a19190615752565b60405180910390f35b6102c460048036038101906102bf9190613e6a565b610943565b005b6102e060048036038101906102db9190613fc8565b6109a3565b6040516102ed9190615752565b60405180910390f35b610310600480360381019061030b9190613e6a565b610a48565b005b61032c60048036038101906103279190614209565b610a68565b6040516103399190615309565b60405180910390f35b61035c60048036038101906103579190613ddc565b610d27565b005b61037860048036038101906103739190614209565b610e09565b6040516103859190615752565b60405180910390f35b6103a860048036038101906103a39190613e2e565b610ea0565b005b6103c460048036038101906103bf9190613f70565b610fd6565b005b6103e060048036038101906103db9190614209565b6110f7565b6040516103ed9190615309565b60405180910390f35b610410600480360381019061040b9190613ddc565b6111a9565b60405161041d9190615752565b60405180910390f35b61042e611261565b005b61044a60048036038101906104459190614209565b6112e9565b6040516104579190615309565b60405180910390f35b610468611389565b6040516104759190615309565b60405180910390f35b6104866113b3565b6040516104939190615414565b60405180910390f35b6104b660048036038101906104b19190613f34565b611445565b005b6104d260048036038101906104cd9190613eb9565b61145b565b005b6104ee60048036038101906104e99190614209565b6114bd565b6040516104fb9190615414565b60405180910390f35b61051e60048036038101906105199190614097565b61157f565b60405161052b9190615309565b60405180910390f35b61054e60048036038101906105499190613e2e565b611646565b60405161055b91906153f9565b60405180910390f35b61057e600480360381019061057991906141e0565b6116da565b005b61059a60048036038101906105959190613ddc565b6117a2565b005b6105b660048036038101906105b19190614209565b61189a565b6040516105c69493929190615436565b60405180910390f35b6105e960048036038101906105e49190614209565b611b27565b6040516105f69190615414565b60405180910390f35b60007f780e9d63000000000000000000000000000000000000000000000000000000007bffffffffffffffffffffffffffffffffffffffffffffffffffffffff1916827bffffffffffffffffffffffffffffffffffffffffffffffffffffffff19161480610672575061067182612462565b5b9050919050565b60606000805461068890615acc565b80601f01602080910402602001604051908101604052809291908181526020018280546106b490615acc565b80156107015780601f106106d657610100808354040283529160200191610701565b820191906000526020600020905b8154815290600101906020018083116106e457829003601f168201915b5050505050905090565b600061071682612544565b610755576040517f08c379a000000000000000000000000000000000000000000000000000000000815260040161074c90615617565b60405180910390fd5b6004600083815260200190815260200160002060009054906101000a900473ffffffffffffffffffffffffffffffffffffffff169050919050565b600061079b826110f7565b90508073ffffffffffffffffffffffffffffffffffffffff168373ffffffffffffffffffffffffffffffffffffffff16141561080c576040517f08c379a000000000000000000000000000000000000000000000000000000000815260040161080390615697565b60405180910390fd5b8073ffffffffffffffffffffffffffffffffffffffff1661082b6125b0565b73ffffffffffffffffffffffffffffffffffffffff16148061085a5750610859816108546125b0565b611646565b5b610899576040517f08c379a000000000000000000000000000000000000000000000000000000000815260040161089090615597565b60405180910390fd5b6108a383836125b8565b505050565b6060600c80548060200260200160405190810160405280929190818152602001828054801561092c57602002820191906000526020600020905b8160009054906101000a900473ffffffffffffffffffffffffffffffffffffffff1673ffffffffffffffffffffffffffffffffffffffff16815260200190600101908083116108e2575b5050505050905090565b6000600880549050905090565b61095461094e6125b0565b82612671565b610993576040517f08c379a000000000000000000000000000000000000000000000000000000000815260040161098a906156d7565b60405180910390fd5b61099e83838361274f565b505050565b60006109ae836111a9565b82106109ef576040517f08c379a00000000000000000000000000000000000000000000000000000000081526004016109e6906154b7565b60405180910390fd5b600660008473ffffffffffffffffffffffffffffffffffffffff1673ffffffffffffffffffffffffffffffffffffffff168152602001908152602001600020600083815260200190815260200160002054905092915050565b610a638383836040518060200160405280600081525061145b565b505050565b60008073ffffffffffffffffffffffffffffffffffffffff16600e604051610a8f906151c2565b908152602001604051809103902060009054906101000a900473ffffffffffffffffffffffffffffffffffffffff1673ffffffffffffffffffffffffffffffffffffffff161415610b15576040517f08c379a0000000000000000000000000000000000000000000000000000000008152600401610b0c90615497565b60405180910390fd5b6000610b20836112e9565b9050600073ffffffffffffffffffffffffffffffffffffffff168173ffffffffffffffffffffffffffffffffffffffff161415610b61576000915050610d22565b60606000600e604051610b73906151c2565b908152602001604051809103902060009054906101000a900473ffffffffffffffffffffffffffffffffffffffff1690508073ffffffffffffffffffffffffffffffffffffffff1663d00e7bbe84600c886040518463ffffffff1660e01b8152600401610be293929190615370565b60006040518083038186803b158015610bfa57600080fd5b505afa925050508015610c3057506040513d6000823e3d601f19601f82011682018060405250810190610c2d9190614004565b60015b610c405760009350505050610d22565b8092505060005b8251811015610d1957828181518110610c89577f4e487b7100000000000000000000000000000000000000000000000000000000600052603260045260246000fd5b602002602001015115610d0657600c8181548110610cd0577f4e487b7100000000000000000000000000000000000000000000000000000000600052603260045260246000fd5b9060005260206000200160009054906101000a900473ffffffffffffffffffffffffffffffffffffffff16945050505050610d22565b8080610d1190615b18565b915050610c47565b50600093505050505b919050565b610d2f6125b0565b73ffffffffffffffffffffffffffffffffffffffff16610d4d611389565b73ffffffffffffffffffffffffffffffffffffffff1614610da3576040517f08c379a0000000000000000000000000000000000000000000000000000000008152600401610d9a90615637565b60405180910390fd5b600c819080600181540180825580915050600190039060005260206000200160009091909190916101000a81548173ffffffffffffffffffffffffffffffffffffffff021916908373ffffffffffffffffffffffffffffffffffffffff16021790555050565b6000610e13610936565b8210610e54576040517f08c379a0000000000000000000000000000000000000000000000000000000008152600401610e4b906156f7565b60405180910390fd5b60088281548110610e8e577f4e487b7100000000000000000000000000000000000000000000000000000000600052603260045260246000fd5b90600052602060002001549050919050565b610ea86125b0565b73ffffffffffffffffffffffffffffffffffffffff16610ec6611389565b73ffffffffffffffffffffffffffffffffffffffff1614610f1c576040517f08c379a0000000000000000000000000000000000000000000000000000000008152600401610f1390615637565b60405180910390fd5b81600e604051610f2b906151c2565b908152602001604051809103902060006101000a81548173ffffffffffffffffffffffffffffffffffffffff021916908373ffffffffffffffffffffffffffffffffffffffff16021790555080600e604051610f86906151d7565b908152602001604051809103902060006101000a81548173ffffffffffffffffffffffffffffffffffffffff021916908373ffffffffffffffffffffffffffffffffffffffff1602179055505050565b610fde6125b0565b73ffffffffffffffffffffffffffffffffffffffff16610ffc611389565b73ffffffffffffffffffffffffffffffffffffffff1614611052576040517f08c379a000000000000000000000000000000000000000000000000000000000815260040161104990615637565b60405180910390fd5b61109f82828080601f016020809104026020016040519081016040528093929190818152602001838380828437600081840152601f19601f820116905080830192505050505050506129ab565b600d60008573ffffffffffffffffffffffffffffffffffffffff1673ffffffffffffffffffffffffffffffffffffffff16815260200190815260200160002090805190602001906110f1929190613ab9565b50505050565b6000806002600084815260200190815260200160002060009054906101000a900473ffffffffffffffffffffffffffffffffffffffff169050600073ffffffffffffffffffffffffffffffffffffffff168173ffffffffffffffffffffffffffffffffffffffff1614156111a0576040517f08c379a0000000000000000000000000000000000000000000000000000000008152600401611197906155d7565b60405180910390fd5b80915050919050565b60008073ffffffffffffffffffffffffffffffffffffffff168273ffffffffffffffffffffffffffffffffffffffff16141561121a576040517f08c379a0000000000000000000000000000000000000000000000000000000008152600401611211906155b7565b60405180910390fd5b600360008373ffffffffffffffffffffffffffffffffffffffff1673ffffffffffffffffffffffffffffffffffffffff168152602001908152602001600020549050919050565b6112696125b0565b73ffffffffffffffffffffffffffffffffffffffff16611287611389565b73ffffffffffffffffffffffffffffffffffffffff16146112dd576040517f08c379a00000000000000000000000000000000000000000000000000000000081526004016112d490615637565b60405180910390fd5b6112e76000612bf2565b565b600080600090503073ffffffffffffffffffffffffffffffffffffffff16636352211e846040518263ffffffff1660e01b81526004016113299190615752565b60206040518083038186803b15801561134157600080fd5b505afa92505050801561137257506040513d601f19601f8201168201806040525081019061136f9190613e05565b60015b61137b57611380565b809150505b80915050919050565b6000600b60009054906101000a900473ffffffffffffffffffffffffffffffffffffffff16905090565b6060600180546113c290615acc565b80601f01602080910402602001604051908101604052809291908181526020018280546113ee90615acc565b801561143b5780601f106114105761010080835404028352916020019161143b565b820191906000526020600020905b81548152906001019060200180831161141e57829003601f168201915b5050505050905090565b6114576114506125b0565b8383612cb8565b5050565b61146c6114666125b0565b83612671565b6114ab576040517f08c379a00000000000000000000000000000000000000000000000000000000081526004016114a2906156d7565b60405180910390fd5b6114b784848484612e25565b50505050565b6060600082101580156114d2575061270f8211155b611511576040517f08c379a000000000000000000000000000000000000000000000000000000000815260040161150890615677565b60405180910390fd5b600061155561151f84612e81565b61153061152b86611b27565b61302e565b604051602001611541929190615223565b60405160208183030381529060405261302e565b9050806040516020016115689190615201565b604051602081830303815290604052915050919050565b60006115896125b0565b73ffffffffffffffffffffffffffffffffffffffff166115a7611389565b73ffffffffffffffffffffffffffffffffffffffff16146115fd576040517f08c379a00000000000000000000000000000000000000000000000000000000081526004016115f490615637565b60405180910390fd5b600e838360405161160f929190615108565b908152602001604051809103902060009054906101000a900473ffffffffffffffffffffffffffffffffffffffff16905092915050565b6000600560008473ffffffffffffffffffffffffffffffffffffffff1673ffffffffffffffffffffffffffffffffffffffff16815260200190815260200160002060008373ffffffffffffffffffffffffffffffffffffffff1673ffffffffffffffffffffffffffffffffffffffff16815260200190815260200160002060009054906101000a900460ff16905092915050565b6002600a541415611720576040517f08c379a000000000000000000000000000000000000000000000000000000000815260040161171790615717565b60405180910390fd5b6002600a8190555060008161ffff1610158015611743575061270f8161ffff1611155b611782576040517f08c379a000000000000000000000000000000000000000000000000000000000815260040161177990615677565b60405180910390fd5b61179761178d6125b0565b8261ffff166131cd565b6001600a8190555050565b6117aa6125b0565b73ffffffffffffffffffffffffffffffffffffffff166117c8611389565b73ffffffffffffffffffffffffffffffffffffffff161461181e576040517f08c379a000000000000000000000000000000000000000000000000000000000815260040161181590615637565b60405180910390fd5b600073ffffffffffffffffffffffffffffffffffffffff168173ffffffffffffffffffffffffffffffffffffffff16141561188e576040517f08c379a0000000000000000000000000000000000000000000000000000000008152600401611885906154f7565b60405180910390fd5b61189781612bf2565b50565b60608060608060006118ab866112e9565b9050600073ffffffffffffffffffffffffffffffffffffffff168173ffffffffffffffffffffffffffffffffffffffff1614611a3e57600073ffffffffffffffffffffffffffffffffffffffff16600e604051611907906151d7565b908152602001604051809103902060009054906101000a900473ffffffffffffffffffffffffffffffffffffffff1673ffffffffffffffffffffffffffffffffffffffff1614611a3d576000600e604051611961906151d7565b908152602001604051809103902060009054906101000a900473ffffffffffffffffffffffffffffffffffffffff1690508073ffffffffffffffffffffffffffffffffffffffff1663116e85bf83896040518363ffffffff1660e01b81526004016119cd9291906153ae565b60006040518083038186803b1580156119e557600080fd5b505afa925050508015611a1b57506040513d6000823e3d601f19601f82011682018060405250810190611a18919061411d565b60015b611a2457611a3b565b838383839950995099509950505050505050611b20565b505b5b6040518060400160405280600781526020017f23666666666666000000000000000000000000000000000000000000000000008152506040518060400160405280600781526020017f23303030303030000000000000000000000000000000000000000000000000008152506040518060400160405280600781526020017f23303030303030000000000000000000000000000000000000000000000000008152506040518060400160405280600781526020017f23666666666666000000000000000000000000000000000000000000000000008152509450945094509450505b9193509193565b606060008210158015611b3c575061270f8211155b611b7b576040517f08c379a0000000000000000000000000000000000000000000000000000000008152600401611b7290615677565b60405180910390fd5b600080600080611b8a8661189a565b93509350935093506000611b9d87610a68565b905060008073ffffffffffffffffffffffffffffffffffffffff168273ffffffffffffffffffffffffffffffffffffffff1614159050611bdb613b3f565b604051806080016040528060438152602001615cf360439139816000600a8110611c2e577f4e487b7100000000000000000000000000000000000000000000000000000000600052603260045260246000fd5b602002018190525086868686604051602001611c4d9493929190615268565b604051602081830303815290604052816001600a8110611c96577f4e487b7100000000000000000000000000000000000000000000000000000000600052603260045260246000fd5b60200201819052506040518060400160405280601181526020017f3c6d61736b2069643d275f6d61736b273e000000000000000000000000000000815250816002600a8110611d0e577f4e487b7100000000000000000000000000000000000000000000000000000000600052603260045260246000fd5b60200201819052508115611d7d5760405180610100016040528060ce8152602001615d7660ce9139816003600a8110611d70577f4e487b7100000000000000000000000000000000000000000000000000000000600052603260045260246000fd5b6020020181905250611dd0565b60405180602001604052806000815250816003600a8110611dc7577f4e487b7100000000000000000000000000000000000000000000000000000000600052603260045260246000fd5b60200201819052505b604051602001611ddf906151ec565b604051602081830303815290604052816004600a8110611e28577f4e487b7100000000000000000000000000000000000000000000000000000000600052603260045260246000fd5b60200201819052506040518060400160405280600781526020017f3c2f6d61736b3e00000000000000000000000000000000000000000000000000815250816005600a8110611ea0577f4e487b7100000000000000000000000000000000000000000000000000000000600052603260045260246000fd5b6020020181905250604051602001611eb7906151ad565b604051602081830303815290604052816006600a8110611f00577f4e487b7100000000000000000000000000000000000000000000000000000000600052603260045260246000fd5b602002018190525073__DigitsPaths___________________________634a7dd5238a6040518263ffffffff1660e01b8152600401611f3f9190615737565b60006040518083038186803b158015611f5757600080fd5b505af4158015611f6b573d6000803e3d6000fd5b505050506040513d6000823e3d601f19601f82011682018060405250810190611f9491906140dc565b816007600a8110611fce577f4e487b7100000000000000000000000000000000000000000000000000000000600052603260045260246000fd5b602002018190525081156120eb57600d60008473ffffffffffffffffffffffffffffffffffffffff1673ffffffffffffffffffffffffffffffffffffffff168152602001908152602001600020805461202690615acc565b80601f016020809104026020016040519081016040528092919081815260200182805461205290615acc565b801561209f5780601f106120745761010080835404028352916020019161209f565b820191906000526020600020905b81548152906001019060200180831161208257829003601f168201915b5050505050816008600a81106120de577f4e487b7100000000000000000000000000000000000000000000000000000000600052603260045260246000fd5b602002018190525061213e565b60405180602001604052806000815250816008600a8110612135577f4e487b7100000000000000000000000000000000000000000000000000000000600052603260045260246000fd5b60200201819052505b6040518060400160405280600681526020017f3c2f7376673e0000000000000000000000000000000000000000000000000000815250816009600a81106121ae577f4e487b7100000000000000000000000000000000000000000000000000000000600052603260045260246000fd5b6020020181905250806000600a81106121f0577f4e487b7100000000000000000000000000000000000000000000000000000000600052603260045260246000fd5b6020020151816001600a811061222f577f4e487b7100000000000000000000000000000000000000000000000000000000600052603260045260246000fd5b6020020151826002600a811061226e577f4e487b7100000000000000000000000000000000000000000000000000000000600052603260045260246000fd5b6020020151836003600a81106122ad577f4e487b7100000000000000000000000000000000000000000000000000000000600052603260045260246000fd5b6020020151846004600a81106122ec577f4e487b7100000000000000000000000000000000000000000000000000000000600052603260045260246000fd5b6020020151856005600a811061232b577f4e487b7100000000000000000000000000000000000000000000000000000000600052603260045260246000fd5b6020020151866006600a811061236a577f4e487b7100000000000000000000000000000000000000000000000000000000600052603260045260246000fd5b6020020151876007600a81106123a9577f4e487b7100000000000000000000000000000000000000000000000000000000600052603260045260246000fd5b6020020151886008600a81106123e8577f4e487b7100000000000000000000000000000000000000000000000000000000600052603260045260246000fd5b6020020151896009600a8110612427577f4e487b7100000000000000000000000000000000000000000000000000000000600052603260045260246000fd5b60200201516040516020016124459a99989796959493929190615121565b604051602081830303815290604052975050505050505050919050565b60007f80ac58cd000000000000000000000000000000000000000000000000000000007bffffffffffffffffffffffffffffffffffffffffffffffffffffffff1916827bffffffffffffffffffffffffffffffffffffffffffffffffffffffff1916148061252d57507f5b5e139f000000000000000000000000000000000000000000000000000000007bffffffffffffffffffffffffffffffffffffffffffffffffffffffff1916827bffffffffffffffffffffffffffffffffffffffffffffffffffffffff1916145b8061253d575061253c826131eb565b5b9050919050565b60008073ffffffffffffffffffffffffffffffffffffffff166002600084815260200190815260200160002060009054906101000a900473ffffffffffffffffffffffffffffffffffffffff1673ffffffffffffffffffffffffffffffffffffffff1614159050919050565b600033905090565b816004600083815260200190815260200160002060006101000a81548173ffffffffffffffffffffffffffffffffffffffff021916908373ffffffffffffffffffffffffffffffffffffffff160217905550808273ffffffffffffffffffffffffffffffffffffffff1661262b836110f7565b73ffffffffffffffffffffffffffffffffffffffff167f8c5be1e5ebec7d5bd14f71427d1e84f3dd0314c0f7b2291e5b200ac8c7c3b92560405160405180910390a45050565b600061267c82612544565b6126bb576040517f08c379a00000000000000000000000000000000000000000000000000000000081526004016126b290615577565b60405180910390fd5b60006126c6836110f7565b90508073ffffffffffffffffffffffffffffffffffffffff168473ffffffffffffffffffffffffffffffffffffffff16148061273557508373ffffffffffffffffffffffffffffffffffffffff1661271d8461070b565b73ffffffffffffffffffffffffffffffffffffffff16145b8061274657506127458185611646565b5b91505092915050565b8273ffffffffffffffffffffffffffffffffffffffff1661276f826110f7565b73ffffffffffffffffffffffffffffffffffffffff16146127c5576040517f08c379a00000000000000000000000000000000000000000000000000000000081526004016127bc90615657565b60405180910390fd5b600073ffffffffffffffffffffffffffffffffffffffff168273ffffffffffffffffffffffffffffffffffffffff161415612835576040517f08c379a000000000000000000000000000000000000000000000000000000000815260040161282c90615537565b60405180910390fd5b612840838383613255565b61284b6000826125b8565b6001600360008573ffffffffffffffffffffffffffffffffffffffff1673ffffffffffffffffffffffffffffffffffffffff168152602001908152602001600020600082825461289b91906159b4565b925050819055506001600360008473ffffffffffffffffffffffffffffffffffffffff1673ffffffffffffffffffffffffffffffffffffffff16815260200190815260200160002060008282546128f291906158d3565b92505081905550816002600083815260200190815260200160002060006101000a81548173ffffffffffffffffffffffffffffffffffffffff021916908373ffffffffffffffffffffffffffffffffffffffff160217905550808273ffffffffffffffffffffffffffffffffffffffff168473ffffffffffffffffffffffffffffffffffffffff167fddf252ad1be2c89b69c2b068fc378daa952ba7f163c4a11628f55a4df523b3ef60405160405180910390a4505050565b60606000829050600081511415612a3857600067ffffffffffffffff8111156129fd577f4e487b7100000000000000000000000000000000000000000000000000000000600052604160045260246000fd5b6040519080825280601f01601f191660200182016040528015612a2f5781602001600182028036833780820191505090505b50915050612bed565b600060048251612a489190615b61565b14612a88576040517f08c379a0000000000000000000000000000000000000000000000000000000008152600401612a7f906156b7565b60405180910390fd5b60006040518060a0016040528060808152602001615e446080913990506000600360048451612ab79190615929565b612ac1919061595a565b90506000602082612ad291906158d3565b67ffffffffffffffff811115612b11577f4e487b7100000000000000000000000000000000000000000000000000000000600052604160045260246000fd5b6040519080825280601f01601f191660200182016040528015612b435781602001600182028036833780820191505090505b5090508351840151603d60ff82161415612b7357600183039250613d3d61ffff82161415612b72576001830392505b5b828252600184018586518101602085015b81831015612be057600483019250825160ff8082168601511660ff808360081c168701511660061b0160ff808360101c1687015116600c1b60ff808460181c168801511660121b01018060e81b83526003830192505050612b84565b5050505050809450505050505b919050565b6000600b60009054906101000a900473ffffffffffffffffffffffffffffffffffffffff16905081600b60006101000a81548173ffffffffffffffffffffffffffffffffffffffff021916908373ffffffffffffffffffffffffffffffffffffffff1602179055508173ffffffffffffffffffffffffffffffffffffffff168173ffffffffffffffffffffffffffffffffffffffff167f8be0079c531659141344cd1fd0a4f28419497f9722a3daafe3b4186f6b6457e060405160405180910390a35050565b8173ffffffffffffffffffffffffffffffffffffffff168373ffffffffffffffffffffffffffffffffffffffff161415612d27576040517f08c379a0000000000000000000000000000000000000000000000000000000008152600401612d1e90615557565b60405180910390fd5b80600560008573ffffffffffffffffffffffffffffffffffffffff1673ffffffffffffffffffffffffffffffffffffffff16815260200190815260200160002060008473ffffffffffffffffffffffffffffffffffffffff1673ffffffffffffffffffffffffffffffffffffffff16815260200190815260200160002060006101000a81548160ff0219169083151502179055508173ffffffffffffffffffffffffffffffffffffffff168373ffffffffffffffffffffffffffffffffffffffff167f17307eab39ab6107e8899845ad3d59bd9653f200f220920489ca2b5937696c3183604051612e1891906153f9565b60405180910390a3505050565b612e3084848461274f565b612e3c84848484613369565b612e7b576040517f08c379a0000000000000000000000000000000000000000000000000000000008152600401612e72906154d7565b60405180910390fd5b50505050565b60606000821415612ec9576040518060400160405280600181526020017f30000000000000000000000000000000000000000000000000000000000000008152509050613029565b600082905060005b60008214612efb578080612ee490615b18565b915050600a82612ef49190615929565b9150612ed1565b60008167ffffffffffffffff811115612f3d577f4e487b7100000000000000000000000000000000000000000000000000000000600052604160045260246000fd5b6040519080825280601f01601f191660200182016040528015612f6f5781602001600182028036833780820191505090505b5090505b6000851461302257600182612f8891906159b4565b9150600a85612f979190615b61565b6030612fa391906158d3565b60f81b818381518110612fdf577f4e487b7100000000000000000000000000000000000000000000000000000000600052603260045260246000fd5b60200101907effffffffffffffffffffffffffffffffffffffffffffffffffffffffffffff1916908160001a905350600a8561301b9190615929565b9450612f73565b8093505050505b919050565b6060600082511415613051576040518060200160405280600081525090506131c8565b6000604051806060016040528060408152602001615d36604091399050600060036002855161308091906158d3565b61308a9190615929565b6004613096919061595a565b905060006020826130a791906158d3565b67ffffffffffffffff8111156130e6577f4e487b7100000000000000000000000000000000000000000000000000000000600052604160045260246000fd5b6040519080825280601f01601f1916602001820160405280156131185781602001600182028036833780820191505090505b509050818152600183018586518101602084015b81831015613187576003830192508251603f8160121c168501518253600182019150603f81600c1c168501518253600182019150603f8160061c168501518253600182019150603f811685015182536001820191505061312c565b6003895106600181146131a157600281146131b1576131bc565b613d3d60f01b60028303526131bc565b603d60f81b60018303525b50505050508093505050505b919050565b6131e7828260405180602001604052806000815250613500565b5050565b60007f01ffc9a7000000000000000000000000000000000000000000000000000000007bffffffffffffffffffffffffffffffffffffffffffffffffffffffff1916827bffffffffffffffffffffffffffffffffffffffffffffffffffffffff1916149050919050565b61326083838361355b565b600073ffffffffffffffffffffffffffffffffffffffff168373ffffffffffffffffffffffffffffffffffffffff1614156132a35761329e81613560565b6132e2565b8173ffffffffffffffffffffffffffffffffffffffff168373ffffffffffffffffffffffffffffffffffffffff16146132e1576132e083826135a9565b5b5b600073ffffffffffffffffffffffffffffffffffffffff168273ffffffffffffffffffffffffffffffffffffffff1614156133255761332081613716565b613364565b8273ffffffffffffffffffffffffffffffffffffffff168273ffffffffffffffffffffffffffffffffffffffff1614613363576133628282613859565b5b5b505050565b600061338a8473ffffffffffffffffffffffffffffffffffffffff166138d8565b156134f3578373ffffffffffffffffffffffffffffffffffffffff1663150b7a026133b36125b0565b8786866040518563ffffffff1660e01b81526004016133d59493929190615324565b602060405180830381600087803b1580156133ef57600080fd5b505af192505050801561342057506040513d601f19601f8201168201806040525081019061341d919061406e565b60015b6134a3573d8060008114613450576040519150601f19603f3d011682016040523d82523d6000602084013e613455565b606091505b5060008151141561349b576040517f08c379a0000000000000000000000000000000000000000000000000000000008152600401613492906154d7565b60405180910390fd5b805181602001fd5b63150b7a0260e01b7bffffffffffffffffffffffffffffffffffffffffffffffffffffffff1916817bffffffffffffffffffffffffffffffffffffffffffffffffffffffff1916149150506134f8565b600190505b949350505050565b61350a83836138eb565b6135176000848484613369565b613556576040517f08c379a000000000000000000000000000000000000000000000000000000000815260040161354d906154d7565b60405180910390fd5b505050565b505050565b6008805490506009600083815260200190815260200160002081905550600881908060018154018082558091505060019003906000526020600020016000909190919091505550565b600060016135b6846111a9565b6135c091906159b4565b90506000600760008481526020019081526020016000205490508181146136a5576000600660008673ffffffffffffffffffffffffffffffffffffffff1673ffffffffffffffffffffffffffffffffffffffff168152602001908152602001600020600084815260200190815260200160002054905080600660008773ffffffffffffffffffffffffffffffffffffffff1673ffffffffffffffffffffffffffffffffffffffff168152602001908152602001600020600084815260200190815260200160002081905550816007600083815260200190815260200160002081905550505b6007600084815260200190815260200160002060009055600660008573ffffffffffffffffffffffffffffffffffffffff1673ffffffffffffffffffffffffffffffffffffffff16815260200190815260200160002060008381526020019081526020016000206000905550505050565b6000600160088054905061372a91906159b4565b9050600060096000848152602001908152602001600020549050600060088381548110613780577f4e487b7100000000000000000000000000000000000000000000000000000000600052603260045260246000fd5b9060005260206000200154905080600883815481106137c8577f4e487b7100000000000000000000000000000000000000000000000000000000600052603260045260246000fd5b90600052602060002001819055508160096000838152602001908152602001600020819055506009600085815260200190815260200160002060009055600880548061383d577f4e487b7100000000000000000000000000000000000000000000000000000000600052603160045260246000fd5b6001900381819060005260206000200160009055905550505050565b6000613864836111a9565b905081600660008573ffffffffffffffffffffffffffffffffffffffff1673ffffffffffffffffffffffffffffffffffffffff168152602001908152602001600020600083815260200190815260200160002081905550806007600084815260200190815260200160002081905550505050565b600080823b905060008111915050919050565b600073ffffffffffffffffffffffffffffffffffffffff168273ffffffffffffffffffffffffffffffffffffffff16141561395b576040517f08c379a0000000000000000000000000000000000000000000000000000000008152600401613952906155f7565b60405180910390fd5b61396481612544565b156139a4576040517f08c379a000000000000000000000000000000000000000000000000000000000815260040161399b90615517565b60405180910390fd5b6139b060008383613255565b6001600360008473ffffffffffffffffffffffffffffffffffffffff1673ffffffffffffffffffffffffffffffffffffffff1681526020019081526020016000206000828254613a0091906158d3565b92505081905550816002600083815260200190815260200160002060006101000a81548173ffffffffffffffffffffffffffffffffffffffff021916908373ffffffffffffffffffffffffffffffffffffffff160217905550808273ffffffffffffffffffffffffffffffffffffffff16600073ffffffffffffffffffffffffffffffffffffffff167fddf252ad1be2c89b69c2b068fc378daa952ba7f163c4a11628f55a4df523b3ef60405160405180910390a45050565b828054613ac590615acc565b90600052602060002090601f016020900481019282613ae75760008555613b2e565b82601f10613b0057805160ff1916838001178555613b2e565b82800160010185558215613b2e579182015b82811115613b2d578251825591602001919060010190613b12565b5b509050613b3b9190613b67565b5090565b604051806101400160405280600a905b6060815260200190600190039081613b4f5790505090565b5b80821115613b80576000816000905550600101613b68565b5090565b6000613b97613b928461579e565b61576d565b90508083825260208201905082856020860282011115613bb657600080fd5b60005b85811015613be65781613bcc8882613cd5565b845260208401935060208301925050600181019050613bb9565b5050509392505050565b6000613c03613bfe846157ca565b61576d565b905082815260208101848484011115613c1b57600080fd5b613c26848285615a8a565b509392505050565b6000613c41613c3c846157fa565b61576d565b905082815260208101848484011115613c5957600080fd5b613c64848285615a99565b509392505050565b600081359050613c7b81615c7f565b92915050565b600081519050613c9081615c7f565b92915050565b600082601f830112613ca757600080fd5b8151613cb7848260208601613b84565b91505092915050565b600081359050613ccf81615c96565b92915050565b600081519050613ce481615c96565b92915050565b600081359050613cf981615cad565b92915050565b600081519050613d0e81615cad565b92915050565b600082601f830112613d2557600080fd5b8135613d35848260208601613bf0565b91505092915050565b60008083601f840112613d5057600080fd5b8235905067ffffffffffffffff811115613d6957600080fd5b602083019150836001820283011115613d8157600080fd5b9250929050565b600082601f830112613d9957600080fd5b8151613da9848260208601613c2e565b91505092915050565b600081359050613dc181615cc4565b92915050565b600081359050613dd681615cdb565b92915050565b600060208284031215613dee57600080fd5b6000613dfc84828501613c6c565b91505092915050565b600060208284031215613e1757600080fd5b6000613e2584828501613c81565b91505092915050565b60008060408385031215613e4157600080fd5b6000613e4f85828601613c6c565b9250506020613e6085828601613c6c565b9150509250929050565b600080600060608486031215613e7f57600080fd5b6000613e8d86828701613c6c565b9350506020613e9e86828701613c6c565b9250506040613eaf86828701613dc7565b9150509250925092565b60008060008060808587031215613ecf57600080fd5b6000613edd87828801613c6c565b9450506020613eee87828801613c6c565b9350506040613eff87828801613dc7565b925050606085013567ffffffffffffffff811115613f1c57600080fd5b613f2887828801613d14565b91505092959194509250565b60008060408385031215613f4757600080fd5b6000613f5585828601613c6c565b9250506020613f6685828601613cc0565b9150509250929050565b600080600060408486031215613f8557600080fd5b6000613f9386828701613c6c565b935050602084013567ffffffffffffffff811115613fb057600080fd5b613fbc86828701613d3e565b92509250509250925092565b60008060408385031215613fdb57600080fd5b6000613fe985828601613c6c565b9250506020613ffa85828601613dc7565b9150509250929050565b60006020828403121561401657600080fd5b600082015167ffffffffffffffff81111561403057600080fd5b61403c84828501613c96565b91505092915050565b60006020828403121561405757600080fd5b600061406584828501613cea565b91505092915050565b60006020828403121561408057600080fd5b600061408e84828501613cff565b91505092915050565b600080602083850312156140aa57600080fd5b600083013567ffffffffffffffff8111156140c457600080fd5b6140d085828601613d3e565b92509250509250929050565b6000602082840312156140ee57600080fd5b600082015167ffffffffffffffff81111561410857600080fd5b61411484828501613d88565b91505092915050565b6000806000806080858703121561413357600080fd5b600085015167ffffffffffffffff81111561414d57600080fd5b61415987828801613d88565b945050602085015167ffffffffffffffff81111561417657600080fd5b61418287828801613d88565b935050604085015167ffffffffffffffff81111561419f57600080fd5b6141ab87828801613d88565b925050606085015167ffffffffffffffff8111156141c857600080fd5b6141d487828801613d88565b91505092959194509250565b6000602082840312156141f257600080fd5b600061420084828501613db2565b91505092915050565b60006020828403121561421b57600080fd5b600061422984828501613dc7565b91505092915050565b600061423e838361424a565b60208301905092915050565b61425381615a08565b82525050565b61426281615a08565b82525050565b60006142738261584f565b61427d8185615895565b93506142888361582a565b8060005b838110156142b95781516142a08882614232565b97506142ab8361587b565b92505060018101905061428c565b5085935050505092915050565b60006142d18261585a565b6142db8185615895565b93506142e68361583a565b8060005b8381101561431e576142fb82615c4e565b6143058882614232565b975061431083615888565b9250506001810190506142ea565b5085935050505092915050565b61433481615a1a565b82525050565b600061434582615865565b61434f81856158a6565b935061435f818560208601615a99565b61436881615c61565b840191505092915050565b600061437f83856158c8565b935061438c838584615a8a565b82840190509392505050565b60006143a382615870565b6143ad81856158b7565b93506143bd818560208601615a99565b6143c681615c61565b840191505092915050565b60006143dc82615870565b6143e681856158c8565b93506143f6818560208601615a99565b80840191505092915050565b600061440f6032836158c8565b91507f3c6c696e6561724772616469656e742069643d276469676974436f6c6f72273e60008301527f3c73746f702073746f702d636f6c6f723d2700000000000000000000000000006020830152603282019050919050565b600061447560c1836158c8565b91507f3c636972636c652063783d27353030272063793d273530302720723d2734353060008301527f272066696c6c3d2775726c28236261636b436f6c6f722927206d61736b3d277560208301527f726c28235f6d61736b2927207374726f6b652d77696474683d2731333027207360408301527f74726f6b653d2775726c28236672616d65436f6c6f722927207374726f6b652d60608301527f6c696e656a6f696e3d276d6974657227207374726f6b652d6c696e656361703d60808301527f2773717561726527207374726f6b652d6d697465726c696d69743d273327202f60a08301527f3e0000000000000000000000000000000000000000000000000000000000000060c083015260c182019050919050565b60006145996021836158b7565b91507f476f74546f6b656e20636f6e74726163742061646472657373206e6f7420736560008301527f74000000000000000000000000000000000000000000000000000000000000006020830152604082019050919050565b60006145ff6031836158c8565b91507f3c6c696e6561724772616469656e742069643d27736c7567436f6c6f72273e3c60008301527f73746f702073746f702d636f6c6f723d270000000000000000000000000000006020830152603182019050919050565b6000614665602b836158b7565b91507f455243373231456e756d657261626c653a206f776e657220696e646578206f7560008301527f74206f6620626f756e64730000000000000000000000000000000000000000006020830152604082019050919050565b60006146cb6032836158b7565b91507f4552433732313a207472616e7366657220746f206e6f6e20455243373231526560008301527f63656976657220696d706c656d656e74657200000000000000000000000000006020830152604082019050919050565b60006147316026836158b7565b91507f4f776e61626c653a206e6577206f776e657220697320746865207a65726f206160008301527f64647265737300000000000000000000000000000000000000000000000000006020830152604082019050919050565b6000614797601c836158b7565b91507f4552433732313a20746f6b656e20616c7265616479206d696e746564000000006000830152602082019050919050565b60006147d76008836158c8565b91507f676f74746f6b656e0000000000000000000000000000000000000000000000006000830152600882019050919050565b60006148176024836158b7565b91507f4552433732313a207472616e7366657220746f20746865207a65726f2061646460008301527f72657373000000000000000000000000000000000000000000000000000000006020830152604082019050919050565b600061487d6019836158b7565b91507f4552433732313a20617070726f766520746f2063616c6c6572000000000000006000830152602082019050919050565b60006148bd602c836158b7565b91507f4552433732313a206f70657261746f7220717565727920666f72206e6f6e657860008301527f697374656e7420746f6b656e00000000000000000000000000000000000000006020830152604082019050919050565b60006149236007836158c8565b91507f6f67636f6c6f72000000000000000000000000000000000000000000000000006000830152600782019050919050565b60006149636014836158c8565b91507f272f3e3c2f6c696e6561724772616469656e743e0000000000000000000000006000830152601482019050919050565b60006149a36038836158b7565b91507f4552433732313a20617070726f76652063616c6c6572206973206e6f74206f7760008301527f6e6572206e6f7220617070726f76656420666f7220616c6c00000000000000006020830152604082019050919050565b6000614a09602a836158b7565b91507f4552433732313a2062616c616e636520717565727920666f7220746865207a6560008301527f726f2061646472657373000000000000000000000000000000000000000000006020830152604082019050919050565b6000614a6f6049836158c8565b91507f222c20226465736372697074696f6e223a202243727970746f204e617469766560008301527f732e222c2022696d616765223a2022646174613a696d6167652f7376672b786d60208301527f6c3b6261736536342c00000000000000000000000000000000000000000000006040830152604982019050919050565b6000614afb6029836158b7565b91507f4552433732313a206f776e657220717565727920666f72206e6f6e657869737460008301527f656e7420746f6b656e00000000000000000000000000000000000000000000006020830152604082019050919050565b6000614b616002836158c8565b91507f227d0000000000000000000000000000000000000000000000000000000000006000830152600282019050919050565b6000614ba16020836158b7565b91507f4552433732313a206d696e7420746f20746865207a65726f20616464726573736000830152602082019050919050565b6000614be1602c836158b7565b91507f4552433732313a20617070726f76656420717565727920666f72206e6f6e657860008301527f697374656e7420746f6b656e00000000000000000000000000000000000000006020830152604082019050919050565b6000614c476041836158c8565b91507f3c636972636c652063783d27353030272063793d273530302720723d2734353060008301527f272066696c6c3d272366666666666627207374726f6b653d276e6f6e6527202f60208301527f3e000000000000000000000000000000000000000000000000000000000000006040830152604182019050919050565b6000614cd36020836158b7565b91507f4f776e61626c653a2063616c6c6572206973206e6f7420746865206f776e65726000830152602082019050919050565b6000614d136029836158b7565b91507f4552433732313a207472616e73666572206f6620746f6b656e2074686174206960008301527f73206e6f74206f776e00000000000000000000000000000000000000000000006020830152604082019050919050565b6000614d796010836158b7565b91507f546f6b656e20496420696e76616c6964000000000000000000000000000000006000830152602082019050919050565b6000614db96021836158b7565b91507f4552433732313a20617070726f76616c20746f2063757272656e74206f776e6560008301527f72000000000000000000000000000000000000000000000000000000000000006020830152604082019050919050565b6000614e1f601c836158b7565b91507f696e76616c696420626173653634206465636f64657220696e707574000000006000830152602082019050919050565b6000614e5f601d836158c8565b91507f646174613a6170706c69636174696f6e2f6a736f6e3b6261736536342c0000006000830152601d82019050919050565b6000614e9f6007836158c8565b91507f3c2f646566733e000000000000000000000000000000000000000000000000006000830152600782019050919050565b6000614edf6031836158b7565b91507f4552433732313a207472616e736665722063616c6c6572206973206e6f74206f60008301527f776e6572206e6f7220617070726f7665640000000000000000000000000000006020830152604082019050919050565b6000614f45602c836158b7565b91507f455243373231456e756d657261626c653a20676c6f62616c20696e646578206f60008301527f7574206f6620626f756e647300000000000000000000000000000000000000006020830152604082019050919050565b6000614fab600e836158c8565b91507f7b226e616d65223a20224f4720230000000000000000000000000000000000006000830152600e82019050919050565b6000614feb6032836158c8565b91507f3c6c696e6561724772616469656e742069643d276672616d65436f6c6f72273e60008301527f3c73746f702073746f702d636f6c6f723d2700000000000000000000000000006020830152603282019050919050565b60006150516037836158c8565b91507f3c646566733e3c6c696e6561724772616469656e742069643d276261636b436f60008301527f6c6f72273e3c73746f702073746f702d636f6c6f723d270000000000000000006020830152603782019050919050565b60006150b7601f836158b7565b91507f5265656e7472616e637947756172643a207265656e7472616e742063616c6c006000830152602082019050919050565b6150f381615a80565b82525050565b61510281615a80565b82525050565b6000615115828486614373565b91508190509392505050565b600061512d828d6143d1565b9150615139828c6143d1565b9150615145828b6143d1565b9150615151828a6143d1565b915061515d82896143d1565b915061516982886143d1565b915061517582876143d1565b915061518182866143d1565b915061518d82856143d1565b915061519982846143d1565b91508190509b9a5050505050505050505050565b60006151b882614468565b9150819050919050565b60006151cd826147ca565b9150819050919050565b60006151e282614916565b9150819050919050565b60006151f782614c3a565b9150819050919050565b600061520c82614e52565b915061521882846143d1565b915081905092915050565b600061522e82614f9e565b915061523a82856143d1565b915061524582614a62565b915061525182846143d1565b915061525c82614b54565b91508190509392505050565b600061527382615044565b915061527f82876143d1565b915061528a82614956565b915061529582614fde565b91506152a182866143d1565b91506152ac82614956565b91506152b782614402565b91506152c382856143d1565b91506152ce82614956565b91506152d9826145f2565b91506152e582846143d1565b91506152f082614956565b91506152fb82614e92565b915081905095945050505050565b600060208201905061531e6000830184614259565b92915050565b60006080820190506153396000830187614259565b6153466020830186614259565b61535360408301856150ea565b8181036060830152615365818461433a565b905095945050505050565b60006060820190506153856000830186614259565b818103602083015261539781856142c6565b90506153a660408301846150ea565b949350505050565b60006040820190506153c36000830185614259565b6153d060208301846150ea565b9392505050565b600060208201905081810360008301526153f18184614268565b905092915050565b600060208201905061540e600083018461432b565b92915050565b6000602082019050818103600083015261542e8184614398565b905092915050565b600060808201905081810360008301526154508187614398565b905081810360208301526154648186614398565b905081810360408301526154788185614398565b9050818103606083015261548c8184614398565b905095945050505050565b600060208201905081810360008301526154b08161458c565b9050919050565b600060208201905081810360008301526154d081614658565b9050919050565b600060208201905081810360008301526154f0816146be565b9050919050565b6000602082019050818103600083015261551081614724565b9050919050565b600060208201905081810360008301526155308161478a565b9050919050565b600060208201905081810360008301526155508161480a565b9050919050565b6000602082019050818103600083015261557081614870565b9050919050565b60006020820190508181036000830152615590816148b0565b9050919050565b600060208201905081810360008301526155b081614996565b9050919050565b600060208201905081810360008301526155d0816149fc565b9050919050565b600060208201905081810360008301526155f081614aee565b9050919050565b6000602082019050818103600083015261561081614b94565b9050919050565b6000602082019050818103600083015261563081614bd4565b9050919050565b6000602082019050818103600083015261565081614cc6565b9050919050565b6000602082019050818103600083015261567081614d06565b9050919050565b6000602082019050818103600083015261569081614d6c565b9050919050565b600060208201905081810360008301526156b081614dac565b9050919050565b600060208201905081810360008301526156d081614e12565b9050919050565b600060208201905081810360008301526156f081614ed2565b9050919050565b6000602082019050818103600083015261571081614f38565b9050919050565b60006020820190508181036000830152615730816150aa565b9050919050565b600060208201905061574c60008301846150f9565b92915050565b600060208201905061576760008301846150ea565b92915050565b6000604051905081810181811067ffffffffffffffff8211171561579457615793615c1f565b5b8060405250919050565b600067ffffffffffffffff8211156157b9576157b8615c1f565b5b602082029050602081019050919050565b600067ffffffffffffffff8211156157e5576157e4615c1f565b5b601f19601f8301169050602081019050919050565b600067ffffffffffffffff82111561581557615814615c1f565b5b601f19601f8301169050602081019050919050565b6000819050602082019050919050565b60008190508160005260206000209050919050565b600081519050919050565b600081549050919050565b600081519050919050565b600081519050919050565b6000602082019050919050565b6000600182019050919050565b600082825260208201905092915050565b600082825260208201905092915050565b600082825260208201905092915050565b600081905092915050565b60006158de82615a80565b91506158e983615a80565b9250827fffffffffffffffffffffffffffffffffffffffffffffffffffffffffffffffff0382111561591e5761591d615b92565b5b828201905092915050565b600061593482615a80565b915061593f83615a80565b92508261594f5761594e615bc1565b5b828204905092915050565b600061596582615a80565b915061597083615a80565b9250817fffffffffffffffffffffffffffffffffffffffffffffffffffffffffffffffff04831182151516156159a9576159a8615b92565b5b828202905092915050565b60006159bf82615a80565b91506159ca83615a80565b9250828210156159dd576159dc615b92565b5b828203905092915050565b600073ffffffffffffffffffffffffffffffffffffffff82169050919050565b6000615a1382615a60565b9050919050565b60008115159050919050565b60007fffffffff0000000000000000000000000000000000000000000000000000000082169050919050565b600061ffff82169050919050565b600073ffffffffffffffffffffffffffffffffffffffff82169050919050565b6000819050919050565b82818337600083830152505050565b60005b83811015615ab7578082015181840152602081019050615a9c565b83811115615ac6576000848401525b50505050565b60006002820490506001821680615ae457607f821691505b60208210811415615af857615af7615bf0565b5b50919050565b6000615b11615b0c83615c72565b6159e8565b9050919050565b6000615b2382615a80565b91507fffffffffffffffffffffffffffffffffffffffffffffffffffffffffffffffff821415615b5657615b55615b92565b5b600182019050919050565b6000615b6c82615a80565b9150615b7783615a80565b925082615b8757615b86615bc1565b5b828206905092915050565b7f4e487b7100000000000000000000000000000000000000000000000000000000600052601160045260246000fd5b7f4e487b7100000000000000000000000000000000000000000000000000000000600052601260045260246000fd5b7f4e487b7100000000000000000000000000000000000000000000000000000000600052602260045260246000fd5b7f4e487b7100000000000000000000000000000000000000000000000000000000600052604160045260246000fd5b6000615c5a8254615afe565b9050919050565b6000601f19601f8301169050919050565b60008160001c9050919050565b615c8881615a08565b8114615c9357600080fd5b50565b615c9f81615a1a565b8114615caa57600080fd5b50565b615cb681615a26565b8114615cc157600080fd5b50565b615ccd81615a52565b8114615cd857600080fd5b50565b615ce481615a80565b8114615cef57600080fd5b5056fe3c73766720786d6c6e733d27687474703a2f2f7777772e77332e6f72672f323030302f737667272077696474683d273130303027206865696768743d2731303030273e4142434445464748494a4b4c4d4e4f505152535455565758595a6162636465666768696a6b6c6d6e6f707172737475767778797a303132333435363738392b2f3c706174682069643d27706174682d302720643d274d203530342e3238203130352e3631342043203830342e313435203130352e353431203939312e363339203433302e313131203834312e373638203638392e3833362043203639312e383938203934392e353633203331372e303637203934392e363535203136372e3037322036393020432032362e383035203434372e313835203138312e333234203134302e313639203435392e393037203130382e3136205a27207374796c653d2766696c6c3a206e6f6e653b272f3e000000000000000000000000000000000000000000000000000000000000000000000000000000000000003e0000003f3435363738393a3b3c3d00000000000000000102030405060708090a0b0c0d0e0f101112131415161718190000000000001a1b1c1d1e1f202122232425262728292a2b2c2d2e2f303132330000000000a26469706673582212208c4c5a12d0e12676636959e158c5f8a8ae9a949a4ec7cb7d868b92d3b6f5991064736f6c63430008000033",
  "immutableReferences": {},
  "source": "// SPDX-License-Identifier: MIT\r\n\r\npragma solidity ^0.8.0;\r\n\r\nimport \"@openzeppelin/contracts/token/ERC721/ERC721.sol\";\r\nimport \"@openzeppelin/contracts/token/ERC721/extensions/ERC721Enumerable.sol\";\r\nimport \"@openzeppelin/contracts/token/ERC20/ERC20.sol\";\r\nimport \"@openzeppelin/contracts/security/ReentrancyGuard.sol\";\r\nimport \"@openzeppelin/contracts/access/Ownable.sol\";\r\n\r\naddress constant CryptoPunksContractMainnet = 0x3C6D0C0d7c818474A93a8A271e0BBdb2e52E71d8;\r\naddress constant BoredApesContractMainnet = 0xBC4CA0EdA7647A8aB7C2061c2E118A18a936f13D; \r\naddress constant CoolCatsContractMainnet = 0x1A92f7381B9F03921564a437210bB9396471050C; \r\naddress constant CrypToadzContractMainnet = 0x1CB1A5e65610AEFF2551A50f76a87a7d3fB649C6;\r\naddress constant MetaHeroCoreContractMainnet = 0xFb10b1717C92e9cc2d634080c3c337808408D9E1;\r\naddress constant MetaHeroGenerativeContractMainnet = 0x6dc6001535e15b9def7b0f6A20a2111dFA9454E2;\r\n\r\nlibrary Stringify {\r\n\r\n    function that(uint256 value) internal pure returns (string memory) {\r\n    // Inspired by OraclizeAPI's implementation - MIT license\r\n    // https://github.com/oraclize/ethereum-api/blob/b42146b063c7d6ee1358846c198246239e9360e8/oraclizeAPI_0.4.25.sol\r\n\r\n        if (value == 0) {\r\n            return \"0\";\r\n        }\r\n        uint256 temp = value;\r\n        uint256 digits;\r\n        while (temp != 0) {\r\n            digits++;\r\n            temp /= 10;\r\n        }\r\n        bytes memory buffer = new bytes(digits);\r\n        while (value != 0) {\r\n            digits -= 1;\r\n            buffer[digits] = bytes1(uint8(48 + uint256(value % 10)));\r\n            value /= 10;\r\n        }\r\n        return string(buffer);\r\n    }\r\n\r\n}\r\n\r\n/// @title Base64\r\n/// @author Brecht Devos - <brecht@loopring.org>\r\n/// @notice Provides functions for encoding/decoding base64\r\nlibrary Base64 {\r\n    string internal constant TABLE_ENCODE = 'ABCDEFGHIJKLMNOPQRSTUVWXYZabcdefghijklmnopqrstuvwxyz0123456789+/';\r\n    bytes  internal constant TABLE_DECODE = hex\"0000000000000000000000000000000000000000000000000000000000000000\"\r\n                                            hex\"00000000000000000000003e0000003f3435363738393a3b3c3d000000000000\"\r\n                                            hex\"00000102030405060708090a0b0c0d0e0f101112131415161718190000000000\"\r\n                                            hex\"001a1b1c1d1e1f202122232425262728292a2b2c2d2e2f303132330000000000\";\r\n\r\n    function encode(bytes memory data) internal pure returns (string memory) {\r\n        if (data.length == 0) return '';\r\n\r\n        // load the table into memory\r\n        string memory table = TABLE_ENCODE;\r\n\r\n        // multiply by 4/3 rounded up\r\n        uint256 encodedLen = 4 * ((data.length + 2) / 3);\r\n\r\n        // add some extra buffer at the end required for the writing\r\n        string memory result = new string(encodedLen + 32);\r\n\r\n        assembly {\r\n            // set the actual output length\r\n            mstore(result, encodedLen)\r\n\r\n            // prepare the lookup table\r\n            let tablePtr := add(table, 1)\r\n\r\n            // input ptr\r\n            let dataPtr := data\r\n            let endPtr := add(dataPtr, mload(data))\r\n\r\n            // result ptr, jump over length\r\n            let resultPtr := add(result, 32)\r\n\r\n            // run over the input, 3 bytes at a time\r\n            for {} lt(dataPtr, endPtr) {}\r\n            {\r\n                // read 3 bytes\r\n                dataPtr := add(dataPtr, 3)\r\n                let input := mload(dataPtr)\r\n\r\n                // write 4 characters\r\n                mstore8(resultPtr, mload(add(tablePtr, and(shr(18, input), 0x3F))))\r\n                resultPtr := add(resultPtr, 1)\r\n                mstore8(resultPtr, mload(add(tablePtr, and(shr(12, input), 0x3F))))\r\n                resultPtr := add(resultPtr, 1)\r\n                mstore8(resultPtr, mload(add(tablePtr, and(shr( 6, input), 0x3F))))\r\n                resultPtr := add(resultPtr, 1)\r\n                mstore8(resultPtr, mload(add(tablePtr, and(        input,  0x3F))))\r\n                resultPtr := add(resultPtr, 1)\r\n            }\r\n\r\n            // padding with '='\r\n            switch mod(mload(data), 3)\r\n            case 1 { mstore(sub(resultPtr, 2), shl(240, 0x3d3d)) }\r\n            case 2 { mstore(sub(resultPtr, 1), shl(248, 0x3d)) }\r\n        }\r\n\r\n        return result;\r\n    }\r\n\r\n    function decode(string memory _data) internal pure returns (bytes memory) {\r\n        bytes memory data = bytes(_data);\r\n\r\n        if (data.length == 0) return new bytes(0);\r\n        require(data.length % 4 == 0, \"invalid base64 decoder input\");\r\n\r\n        // load the table into memory\r\n        bytes memory table = TABLE_DECODE;\r\n\r\n        // every 4 characters represent 3 bytes\r\n        uint256 decodedLen = (data.length / 4) * 3;\r\n\r\n        // add some extra buffer at the end required for the writing\r\n        bytes memory result = new bytes(decodedLen + 32);\r\n\r\n        assembly {\r\n            // padding with '='\r\n            let lastBytes := mload(add(data, mload(data)))\r\n            if eq(and(lastBytes, 0xFF), 0x3d) {\r\n                decodedLen := sub(decodedLen, 1)\r\n                if eq(and(lastBytes, 0xFFFF), 0x3d3d) {\r\n                    decodedLen := sub(decodedLen, 1)\r\n                }\r\n            }\r\n\r\n            // set the actual output length\r\n            mstore(result, decodedLen)\r\n\r\n            // prepare the lookup table\r\n            let tablePtr := add(table, 1)\r\n\r\n            // input ptr\r\n            let dataPtr := data\r\n            let endPtr := add(dataPtr, mload(data))\r\n\r\n            // result ptr, jump over length\r\n            let resultPtr := add(result, 32)\r\n\r\n            // run over the input, 4 characters at a time\r\n            for {} lt(dataPtr, endPtr) {}\r\n            {\r\n               // read 4 characters\r\n               dataPtr := add(dataPtr, 4)\r\n               let input := mload(dataPtr)\r\n\r\n               // write 3 bytes\r\n               let output := add(\r\n                   add(\r\n                       shl(18, and(mload(add(tablePtr, and(shr(24, input), 0xFF))), 0xFF)),\r\n                       shl(12, and(mload(add(tablePtr, and(shr(16, input), 0xFF))), 0xFF))),\r\n                   add(\r\n                       shl( 6, and(mload(add(tablePtr, and(shr( 8, input), 0xFF))), 0xFF)),\r\n                               and(mload(add(tablePtr, and(        input , 0xFF))), 0xFF)\r\n                    )\r\n                )\r\n                mstore(resultPtr, shl(232, output))\r\n                resultPtr := add(resultPtr, 3)\r\n            }\r\n        }\r\n\r\n        return result;\r\n    }\r\n}\r\n\r\nlibrary DigitsPaths {\r\n    \r\n    uint16 constant private smallheight = 2038; // needs div /10\r\n\r\n    function generate(uint256 tokenId) public pure returns (string memory) {\r\n        require(tokenId >= 0 && tokenId <= 9999, \"Token Id invalid\");\r\n        \r\n        if (tokenId <= 9)\r\n            return generateSingleDigit(tokenId);\r\n        else         \r\n            return generateMultiDigits(tokenId);\r\n    }\r\n\r\n    function generateSingleDigit(uint256 tokenId) private pure returns (string memory) {\r\n        require(tokenId >= 0 && tokenId <= 9, \"Token Id invalid\");\r\n        \r\n        if (tokenId == 0)\r\n            return \"<path d=' M 498.943 665.697 C 582.899 665.697 637.211 600.707 637.211 499.808 C 637.211 398.633 583.175 333.914 498.943 333.914 C 414.707 333.914 360.675 398.633 360.675 499.808 C 360.675 600.707 414.982 665.697 498.943 665.697 Z  M 498.943 590.443 C 465.665 590.443 447.268 558 447.268 499.808 C 447.268 441.611 465.665 409.169 498.943 409.169 C 531.946 409.169 550.614 441.887 550.614 500.079 C 550.614 558.276 532.222 590.443 498.943 590.443 Z ' fill='url(#digitColor)' />\";\r\n    \r\n        if (tokenId == 1)\r\n            return \"<path d=' M 423.537 343.5 L 423.537 415.082 L 470.362 415.082 L 470.362 659.375 L 555.459 659.375 L 555.459 343.5 L 423.537 343.5 Z ' fill='url(#digitColor)' />\";\r\n            \r\n        if (tokenId == 2)\r\n            return \"<path d=' M 524.712 587.458 C 592.271 509.202 606.977 478.688 606.977 438.94 C 606.977 379.636 560.712 338.439 493.709 338.439 C 424.549 338.439 382.687 380.657 382.687 444.526 L 382.687 450.368 L 466.187 450.368 L 466.187 444.265 C 466.187 425.25 476.998 413.29 494.73 413.29 C 510.908 413.29 522.194 424.775 522.194 441.904 C 522.194 469.022 504.69 493.247 377.595 643.147 L 377.595 662.375 L 612.53 662.375 L 612.53 587.458 L 524.712 587.458 Z ' fill='url(#digitColor)' />\";\r\n            \r\n        if (tokenId == 3)\r\n            return \"<path d=' M 541.66 455.005 L 605.063 353.511 L 605.063 339 L 388.315 339 L 388.315 411.001 L 494.335 411.001 L 442.898 495.565 L 442.898 513.168 L 493.495 513.168 C 518.076 513.168 533.765 527.489 533.765 550.579 C 533.765 573.664 518.627 589.558 497.034 589.558 C 476.262 589.558 462.416 574.762 461.466 552.494 L 380.388 552.494 C 382.288 617.882 428.952 662.19 496.834 662.19 C 566.141 662.19 615.926 616.186 615.926 551.947 C 615.926 503.027 586.951 466.366 541.665 455.005 L 541.66 455.005 Z ' fill='url(#digitColor)' />\";\r\n            \r\n        if (tokenId == 4)\r\n            return \"<path d=' M 626.556 531.847 L 598.014 531.847 L 598.014 462.278 L 541.099 462.278 L 522.574 531.847 L 472.053 531.847 L 550.29 343.5 L 466.401 343.5 L 365.211 587.175 L 365.211 602.622 L 516.851 602.622 L 516.851 659.375 L 598.019 659.375 L 598.019 602.622 L 626.561 602.622 L 626.556 531.847 Z ' fill='url(#digitColor)' />\";\r\n            \r\n        if (tokenId == 5)\r\n           return \"<path d=' M 497.603 446.539 L 468.21 446.539 L 472.191 410.496 L 594.314 410.496 L 594.314 338.495 L 407.035 338.495 L 389.389 503.163 L 397.45 513.599 L 495.761 513.599 C 518.922 513.599 534.815 529.089 534.815 551.775 C 534.815 573.164 519.672 589.058 498.9 589.058 C 477.654 589.058 462.582 573.715 462.582 552.269 L 381.561 552.269 C 381.561 616.365 430.068 661.69 498.9 661.69 C 567.79 661.69 616.976 615.947 616.976 551.78 C 616.976 489.844 568.341 446.548 497.608 446.548 L 497.603 446.539 Z ' fill='url(#digitColor)' />\";\r\n            \r\n        if (tokenId == 6)\r\n            return \"<path d=' M 520.855 440.333 C 513.701 440.333 506.766 440.827 499.955 441.867 C 520.793 407.04 541.816 372.355 562.612 337.5 L 471.383 337.5 L 413.319 435.378 C 386.862 479.686 377.191 511.739 377.191 544.125 C 377.191 613.057 428.405 660.69 502.952 660.69 C 577.08 660.69 628.162 612.986 628.162 543.721 C 628.162 482.665 584.072 440.333 520.855 440.333 L 520.855 440.333 Z  M 502.676 588.129 C 477.083 588.129 458.544 570.136 458.544 543.721 C 458.544 517.036 477.083 498.843 502.676 498.843 C 528.54 498.843 546.809 517.036 546.809 543.721 C 546.809 570.136 528.54 588.129 502.676 588.129 Z ' fill='url(#digitColor)' />\";\r\n            \r\n        if (tokenId == 7)\r\n            return \"<path d=' M 379.932 342.5 L 379.932 416.515 L 510.272 416.515 L 413.714 658.375 L 502.814 658.375 L 622.514 354.822 L 622.514 342.5 L 379.932 342.5 Z ' fill='url(#digitColor)' />\";\r\n            \r\n        if (tokenId == 8)\r\n            return \"<path d=' M 581.978 491.109 C 604.122 473.524 615.356 451.821 615.356 426.242 C 615.356 371.56 568.82 334.439 499.242 334.439 C 429.659 334.439 382.853 371.836 382.853 426.247 C 382.853 451.536 394.039 473.163 416.093 491.056 C 387.769 509.03 374.175 533.298 374.175 565.042 C 374.175 625.092 424.51 665.68 498.971 665.68 C 573.432 665.68 624.044 624.816 624.044 565.037 C 624.044 533.507 610.221 509.258 581.982 491.104 L 581.978 491.109 Z  M 499.247 397.234 C 520.636 397.234 535.176 410.548 535.176 428.812 C 535.176 447.081 520.636 460.395 499.247 460.395 C 477.858 460.395 463.047 447.081 463.047 428.812 C 463.047 410.548 477.858 397.234 499.247 397.234 Z  M 499.247 599.959 C 473.711 599.959 456.796 584.546 456.796 562.406 C 456.796 540.266 473.711 524.848 499.247 524.848 C 524.783 524.848 541.422 540.266 541.422 562.406 C 541.422 584.546 524.783 599.959 499.247 599.959 Z ' fill='url(#digitColor)' />\";\r\n            \r\n        if (tokenId == 9)\r\n            return \"<path d=' M 495.276 338.939 C 421.148 338.939 370.066 386.643 370.066 455.908 C 370.066 516.964 414.156 559.296 477.373 559.296 C 484.522 559.296 491.457 558.802 498.264 557.762 C 477.392 592.651 456.136 628.105 435.341 662.875 L 526.569 662.875 L 584.909 564.251 C 611.162 519.943 621.037 487.89 621.037 455.504 C 621.037 386.572 569.823 338.939 495.276 338.939 L 495.276 338.939 Z  M 495.552 501.332 C 468.32 501.332 449.23 482.864 449.23 455.908 C 449.23 429.218 468.32 410.954 495.552 410.954 C 522.513 410.954 541.874 429.218 541.874 455.908 C 541.874 482.864 522.513 501.332 495.552 501.332 Z ' fill='url(#digitColor)' />\";\r\n\r\n        return \"\";\r\n    }\r\n    \r\n    function generateMultiDigits(uint256 tokenId) private pure returns (string memory) {\r\n        require(tokenId >= 10 && tokenId <= 9999, \"Token Id invalid\");\r\n        \r\n        bytes memory stringBytes = bytes(Stringify.that(tokenId));\r\n        \r\n        string[] memory parts = new string[](stringBytes.length);\r\n        \r\n        for (uint16 i = 0; i < stringBytes.length; i++)\r\n        {\r\n            uint16 number = uint16(uint8(stringBytes[i])) - 48; // charIndex - 48 is the numeric value\r\n\r\n            (uint16 rectX, uint16 rectY, uint16 rectWidth, uint16 rectHeight) = getSmallDigitBounds(stringBytes.length, i);\r\n            \r\n            uint16 offsetX = ((rectX * 10) + (((rectWidth * 10) - getSmallDigitWidth(number) /* is x10 */) / 2)) / 10;\r\n            uint16 offsetY = ((rectY * 10) + (((rectHeight * 10) - smallheight /* is x10 */) / 2)) / 10;\r\n\r\n            parts[i] = string(abi.encodePacked(\"<path transform='translate(\", Stringify.that(offsetX), \", \", Stringify.that(offsetY), \")' \", getSmallDigitPath(number)));\r\n        }\r\n        \r\n        if (stringBytes.length == 2) \r\n            return string(abi.encodePacked(parts[0], parts[1]));\r\n        else if (stringBytes.length == 3)\r\n            return string(abi.encodePacked(parts[0], parts[1], parts[2]));\r\n        else\r\n            return string(abi.encodePacked(parts[0], parts[1], parts[2], parts[3]));\r\n    }\r\n\r\n\r\n    function getSmallDigitBounds(uint256 numberDigitCount, uint16 currentIndex) private pure returns (uint16 x, uint16 y, uint16 width, uint16 height) {\r\n\r\n        uint16 rectX = 0;\r\n        uint16 rectY = 0;\r\n        uint16 rectWidth = 0;\r\n        uint16 rectHeight = 0;\r\n        \r\n        if (numberDigitCount == 2) \r\n        {\r\n            rectX = currentIndex == 0 ? 210 : 490;\r\n            rectY = 200;\r\n            rectWidth = 300; // don't change the width, lets overlap them to center the paths perfectly\r\n            rectHeight = 600;\r\n        }\r\n        else if (numberDigitCount == 3)            \r\n        {\r\n            rectX = currentIndex == 2 ? 490 : 210;\r\n            rectY = currentIndex == 0 ? 210 : 490;\r\n            rectWidth = currentIndex == 0 ? 580 : 300; // to center, we need to change the width of the upper rect, don't change it of the lower two rects, let's overlap them to center the paths perfectly\r\n            rectHeight = 300;\r\n        }\r\n        else if (numberDigitCount == 4)            \r\n        {\r\n            rectX = (currentIndex == 0 || currentIndex == 2) ? 210 : 490;\r\n            rectY = (currentIndex == 0 || currentIndex == 1) ? 210 : 490;\r\n            rectWidth = 300;\r\n            rectHeight = 300;\r\n        }\r\n        \r\n        return (rectX, rectY, rectWidth, rectHeight);\r\n    }\r\n\r\n    // needs to be prefixed to be like: \"<path transform='translate(%ox%, %oy%)' \";\r\n    function getSmallDigitPath(uint256 tokenId) private pure returns (string memory) {\r\n        require(tokenId >= 0 && tokenId <= 9, \"Token Id invalid\");\r\n\r\n        if (tokenId == 0)\r\n            return \"d=' M 84.945 203.832 C 136.524 203.832 169.891 163.905 169.891 101.917 C 169.891 39.76 136.693 0 84.945 0 C 33.194 0 0 39.76 0 101.917 C 0 163.905 33.364 203.832 84.945 203.832 Z  M 84.945 157.599 C 64.501 157.599 53.198 137.668 53.198 101.917 C 53.198 66.164 64.501 46.233 84.945 46.233 C 105.221 46.233 116.689 66.333 116.689 102.084 C 116.689 137.837 105.39 157.599 84.945 157.599 Z ' fill='url(#digitColor)' />\";\r\n    \r\n        if (tokenId == 1)\r\n            return \"d=' M 0 0 L 0 46.192 L 30.21 46.192 L 30.21 203.832 L 85.11 203.832 L 85.11 0 L 0 0 Z ' fill='url(#digitColor)' />\";\r\n            \r\n        if (tokenId == 2)\r\n            return \"d=' M 92.554 156.667 C 135.056 107.433 144.308 88.236 144.308 63.229 C 144.308 25.918 115.202 0 73.049 0 C 29.539 0 3.203 26.561 3.203 66.743 L 3.203 70.419 L 55.735 70.419 L 55.735 66.579 C 55.735 54.616 62.536 47.091 73.692 47.091 C 83.87 47.091 90.97 54.317 90.97 65.093 C 90.97 82.154 79.958 97.395 0 191.703 L 0 203.8 L 147.801 203.8 L 147.801 156.667 L 92.554 156.667 Z ' fill='url(#digitColor)' />\";\r\n            \r\n        if (tokenId == 3)\r\n            return \"d=' M 101.712 73.163 L 141.7 9.152 L 141.7 0 L 5 0 L 5 45.41 L 71.865 45.41 L 39.424 98.744 L 39.424 109.846 L 71.335 109.846 C 86.838 109.846 96.733 118.878 96.733 133.44 C 96.733 148 87.186 158.024 73.567 158.024 C 60.467 158.024 51.734 148.692 51.135 134.648 L 0 134.648 C 1.198 175.888 30.629 203.832 73.441 203.832 C 117.152 203.832 148.551 174.818 148.551 134.303 C 148.551 103.45 130.277 80.329 101.715 73.163 L 101.712 73.163 Z ' fill='url(#digitColor)' />\";\r\n            \r\n        if (tokenId == 4)\r\n            return \"d=' M 168.644 121.539 L 150.226 121.539 L 150.226 76.647 L 113.499 76.647 L 101.545 121.539 L 68.944 121.539 L 119.43 0 L 65.297 0 L 0 157.242 L 0 167.21 L 97.852 167.21 L 97.852 203.832 L 150.229 203.832 L 150.229 167.21 L 168.647 167.21 L 168.644 121.539 Z ' fill='url(#digitColor)' />\";\r\n            \r\n        if (tokenId == 5)\r\n            return \"d=' M 73.174 68.13 L 54.639 68.13 L 57.149 45.402 L 134.157 45.402 L 134.157 0 L 16.064 0 L 4.936 103.836 L 10.019 110.417 L 72.012 110.417 C 86.617 110.417 96.639 120.185 96.639 134.49 C 96.639 147.977 87.09 158 73.992 158 C 60.594 158 51.09 148.325 51.09 134.801 L 0 134.801 C 0 175.219 30.588 203.8 73.992 203.8 C 117.432 203.8 148.448 174.956 148.448 134.493 C 148.448 95.438 117.779 68.136 73.177 68.136 L 73.174 68.13 Z ' fill='url(#digitColor)' />\";\r\n            \r\n        if (tokenId == 6)\r\n            return \"d=' M 90.593 64.845 C 86.082 64.845 81.709 65.157 77.413 65.813 C 90.554 43.851 103.811 21.979 116.924 0 L 59.397 0 L 22.782 61.721 C 6.098 89.661 0 109.873 0 130.295 C 0 173.763 32.295 203.8 79.303 203.8 C 126.048 203.8 158.26 173.718 158.26 130.041 C 158.26 91.539 130.457 64.845 90.593 64.845 L 90.593 64.845 Z  M 79.13 158.044 C 62.991 158.044 51.3 146.698 51.3 130.041 C 51.3 113.213 62.991 101.741 79.13 101.741 C 95.439 101.741 106.959 113.213 106.959 130.041 C 106.959 146.698 95.439 158.044 79.13 158.044 Z ' fill='url(#digitColor)' />\";\r\n            \r\n        if (tokenId == 7)\r\n            return \"d=' M 0 0 L 0 47.754 L 84.094 47.754 L 21.796 203.8 L 79.283 203.8 L 156.512 7.95 L 156.512 0 L 0 0 Z ' fill='url(#digitColor)' />\";\r\n            \r\n        if (tokenId == 8)\r\n            return \"d=' M 127.853 96.393 C 141.478 85.573 148.39 72.221 148.39 56.483 C 148.39 22.839 119.758 0 76.949 0 C 34.138 0 5.339 23.009 5.339 56.486 C 5.339 72.045 12.222 85.351 25.791 96.36 C 8.364 107.419 0 122.35 0 141.881 C 0 178.827 30.97 203.8 76.783 203.8 C 122.596 203.8 153.735 178.658 153.735 141.878 C 153.735 122.479 145.23 107.559 127.856 96.39 L 127.853 96.393 Z  M 76.952 38.635 C 90.112 38.635 99.058 46.827 99.058 58.064 C 99.058 69.304 90.112 77.496 76.952 77.496 C 63.792 77.496 54.68 69.304 54.68 58.064 C 54.68 46.827 63.792 38.635 76.952 38.635 Z  M 76.952 163.364 C 61.241 163.364 50.834 153.881 50.834 140.259 C 50.834 126.637 61.241 117.151 76.952 117.151 C 92.663 117.151 102.901 126.637 102.901 140.259 C 102.901 153.881 92.663 163.364 76.952 163.364 Z ' fill='url(#digitColor)' />\";\r\n            \r\n        if (tokenId == 9)\r\n            return \"d=' M 78.787 0 C 32.142 0 0 30.017 0 73.601 C 0 112.02 27.743 138.657 67.522 138.657 C 72.02 138.657 76.384 138.346 80.667 137.691 C 67.534 159.645 54.158 181.954 41.073 203.832 L 98.477 203.832 L 135.187 141.774 C 151.706 113.894 157.92 93.725 157.92 73.347 C 157.92 29.972 125.694 0 78.787 0 L 78.787 0 Z  M 78.96 102.184 C 61.825 102.184 49.813 90.563 49.813 73.601 C 49.813 56.806 61.825 45.314 78.96 45.314 C 95.925 45.314 108.107 56.806 108.107 73.601 C 108.107 90.563 95.925 102.184 78.96 102.184 Z ' fill='url(#digitColor)' />\";\r\n            \r\n        return \"\";\r\n    }\r\n    \r\n    // needs div /10\r\n    function getSmallDigitWidth(uint256 tokenId) public pure returns (uint16) {\r\n        require(tokenId >= 0 && tokenId <= 9, \"Token Id invalid\");\r\n\r\n        if (tokenId == 0)\r\n            return 1699;\r\n    \r\n        if (tokenId == 1)\r\n            return 851;\r\n            \r\n        if (tokenId == 2)\r\n            return 1478;\r\n            \r\n        if (tokenId == 3)\r\n            return 1486;\r\n            \r\n        if (tokenId == 4)\r\n            return 1686;\r\n            \r\n        if (tokenId == 5)\r\n            return 1484;\r\n            \r\n        if (tokenId == 6)\r\n            return 1583;\r\n            \r\n        if (tokenId == 7)\r\n            return 1565;\r\n            \r\n        if (tokenId == 8)\r\n            return 1537;\r\n            \r\n        if (tokenId == 9)\r\n            return 1579;\r\n            \r\n        return 0;\r\n    }\r\n}\r\n\r\n/**\r\n * @title Owner\r\n * @dev Set & change owner\r\n */\r\ncontract OG is ERC721Enumerable, ReentrancyGuard, Ownable {\r\n\r\n    address[] _supportedCollections;\r\n    mapping(address => string) private _supportedCollectionSlugs;\r\n    mapping(string => address) private _knownContractAddresses;\r\n\r\n\r\n    constructor() ERC721(\"OG\", \"OG\") Ownable() {\r\n        \r\n        _knownContractAddresses[\"gottoken\"] = address(0);\r\n        _knownContractAddresses[\"ogcolor\"] = address(0);\r\n    }\r\n\r\n    function addSupportedCollection(address contractAddress) public onlyOwner {\r\n         _supportedCollections.push(contractAddress);\r\n    }\r\n    \r\n    function getSupportedCollections() public view returns (address[] memory) {\r\n        return _supportedCollections;\r\n    }\r\n    \r\n    function setSupportedCollectionSlug(address contractAddress, string calldata base64EncodedSvgSlug) public onlyOwner {\r\n        _supportedCollectionSlugs[contractAddress] = string(Base64.decode(base64EncodedSvgSlug));\r\n    }\r\n\r\n    function setKnownContractAddresses(address gotTokenAddress, address ogColorAddress) public onlyOwner {\r\n        _knownContractAddresses[\"gottoken\"] = gotTokenAddress;\r\n        _knownContractAddresses[\"ogcolor\"] = ogColorAddress;\r\n    }\r\n    \r\n    function getKnownContractAddress(string calldata name) public view onlyOwner returns (address) {\r\n        return _knownContractAddresses[name];\r\n    }\r\n    \r\n    function _safeOwnerOf(uint256 tokenId) public view returns (address) {\r\n        \r\n        address ownerOfToken = address(0);\r\n                \r\n        try this.ownerOf(tokenId) returns (address a) {\r\n            ownerOfToken = a;\r\n        }\r\n        catch { }\r\n\r\n        return ownerOfToken;\r\n    }\r\n    \r\n    function getOwnedSupportedCollection(uint256 tokenId) public view returns (address) {\r\n        require(_knownContractAddresses[\"gottoken\"] != address(0), \"GotToken contract address not set\");\r\n        \r\n        address ownerOfToken = _safeOwnerOf(tokenId);\r\n        if (ownerOfToken == address(0))\r\n            return address(0);\r\n    \r\n        bool[] memory ownsTokens;\r\n        \r\n        GotTokenInterface gotTokenContract = GotTokenInterface(_knownContractAddresses[\"gottoken\"]);        \r\n        try gotTokenContract.ownsTokenOfContracts(ownerOfToken, _supportedCollections, tokenId) returns (bool[] memory returnValue) {\r\n            ownsTokens = returnValue;\r\n        }\r\n        catch { return address(0); }\r\n\r\n        // find the first contract which is owned\r\n        for (uint256 i = 0; i < ownsTokens.length; i++) {\r\n            if (ownsTokens[i])\r\n                return _supportedCollections[i];\r\n        }\r\n\r\n        return address(0);\r\n    }\r\n\r\n    function getColors(uint256 tokenId) public view returns (string memory backColor, string memory frameColor, string memory digitColor, string memory slugColor) {\r\n\r\n        address ownerOfToken = _safeOwnerOf(tokenId);\r\n        if (ownerOfToken != address(0)) {\r\n            if (_knownContractAddresses[\"ogcolor\"] != address(0)) {\r\n                OGColorInterface ogColorContract = OGColorInterface(_knownContractAddresses[\"ogcolor\"]);\r\n                try ogColorContract.getColors(ownerOfToken, tokenId) returns (string memory extBackColor, string memory extFrameColor, string memory extDigitColor, string memory extSlugColor) {\r\n                    return (extBackColor, extFrameColor, extDigitColor, extSlugColor);\r\n                }\r\n                catch { }\r\n            }\r\n        }\r\n        \r\n        return (\"#ffffff\", \"#000000\", \"#000000\", \"#ffffff\");\r\n    }\r\n\r\n    function renderSvg(uint256 tokenId) public virtual view returns (string memory) {\r\n        require(tokenId >= 0 && tokenId <= 9999, \"Token Id invalid\");\r\n        \r\n        (string memory backColor, string memory frameColor, string memory digitColor, string memory slugColor) = getColors(tokenId);\r\n        \r\n        address supportedCollection = getOwnedSupportedCollection(tokenId);\r\n        bool hasCollection = supportedCollection != address(0);\r\n\r\n        string[10] memory parts;\r\n\r\n        parts[0] = \"<svg xmlns='http://www.w3.org/2000/svg' width='1000' height='1000'>\";\r\n        \r\n        parts[1] = string(abi.encodePacked(\r\n            \"<defs>\"\r\n            \"<linearGradient id='backColor'><stop stop-color='\", backColor, \"'/></linearGradient>\", \r\n            \"<linearGradient id='frameColor'><stop stop-color='\", frameColor, \"'/></linearGradient>\",\r\n            \"<linearGradient id='digitColor'><stop stop-color='\", digitColor, \"'/></linearGradient>\",\r\n            \"<linearGradient id='slugColor'><stop stop-color='\", slugColor, \"'/></linearGradient>\",\r\n            \"</defs>\"));\r\n        \r\n        parts[2] = \"<mask id='_mask'>\";\r\n        \r\n        if (hasCollection)\r\n            parts[3] = \"<path id='path-0' d='M 504.28 105.614 C 804.145 105.541 991.639 430.111 841.768 689.836 C 691.898 949.563 317.067 949.655 167.072 690 C 26.805 447.185 181.324 140.169 459.907 108.16 Z' style='fill: none;'/>\";\r\n        else\r\n            parts[3] = \"\";\r\n            \r\n        parts[4] = string(abi.encodePacked(\"<circle cx='500' cy='500' r='450' fill='#ffffff' stroke='none' />\")); // don't apply colors here\r\n        parts[5] = \"</mask>\";\r\n        parts[6] = string(abi.encodePacked(\"<circle cx='500' cy='500' r='450' fill='url(#backColor)' mask='url(#_mask)' stroke-width='130' stroke='url(#frameColor)' stroke-linejoin='miter' stroke-linecap='square' stroke-miterlimit='3' />\"));\r\n        parts[7] = DigitsPaths.generate(tokenId);\r\n          \r\n        if (hasCollection)  \r\n            parts[8] = _supportedCollectionSlugs[supportedCollection];\r\n        else\r\n            parts[8] = \"\";\r\n            \r\n        parts[9] = \"</svg>\";\r\n        \r\n        return string(abi.encodePacked(parts[0], parts[1], parts[2], parts[3], parts[4], parts[5], parts[6], parts[7], parts[8], parts[9]));\r\n    }\r\n    \r\n    function tokenURI(uint256 tokenId) override public view returns (string memory) {\r\n        require(tokenId >= 0 && tokenId <= 9999, \"Token Id invalid\");\r\n    \r\n        string memory json = Base64.encode(bytes(string(abi.encodePacked('{\"name\": \"OG #', Stringify.that(tokenId), '\", \"description\": \"Crypto Natives.\", \"image\": \"data:image/svg+xml;base64,', Base64.encode(bytes(renderSvg(tokenId))), '\"}'))));\r\n        return string(abi.encodePacked('data:application/json;base64,', json));\r\n    }\r\n    \r\n    function claim(uint16 tokenId) public nonReentrant {\r\n        require(tokenId >= 0 && tokenId <= 9999, \"Token Id invalid\");\r\n        _safeMint(_msgSender(), tokenId);\r\n    }\r\n    \r\n}\r\n\r\n/**\r\n * The interface to access the GotToken contract to check of an address owns a given token of a given contract\r\n */\r\ninterface GotTokenInterface {\r\n    function ownsTokenOfContract(address possibleOwner, address contractAddress, uint256 tokenId) external view returns (bool);\r\n    function ownsTokenOfContracts(address possibleOwner, address[] calldata upToTenContractAddresses, uint256 tokenId) external view returns (bool[] memory);\r\n}\r\n\r\n\r\n/**\r\n * The interface to access the OGColor contract to get the colors to render the SVG\r\n */\r\ninterface OGColorInterface {\r\n    function getColors(address forAddress, uint256 tokenId) external view returns (string memory backColor, string memory frameColor, string memory digitColor, string memory slugColor);\r\n}",
  "sourcePath": "D:\\Develop\\GitHub\\OG+\\src\\contracts\\OG.sol",
  "compiler": {
    "name": "solc",
    "version": "0.8.0+commit.c7dfd78e.Emscripten.clang"
  },
  "schemaVersion": "3.4.3",
  "updatedAt": "2021-11-27T21:59:34.896Z",
  "devdoc": {
    "details": "Set & change owner",
    "kind": "dev",
    "methods": {
      "approve(address,uint256)": {
        "details": "See {IERC721-approve}."
      },
      "balanceOf(address)": {
        "details": "See {IERC721-balanceOf}."
      },
      "getApproved(uint256)": {
        "details": "See {IERC721-getApproved}."
      },
      "isApprovedForAll(address,address)": {
        "details": "See {IERC721-isApprovedForAll}."
      },
      "name()": {
        "details": "See {IERC721Metadata-name}."
      },
      "owner()": {
        "details": "Returns the address of the current owner."
      },
      "ownerOf(uint256)": {
        "details": "See {IERC721-ownerOf}."
      },
      "renounceOwnership()": {
        "details": "Leaves the contract without owner. It will not be possible to call `onlyOwner` functions anymore. Can only be called by the current owner. NOTE: Renouncing ownership will leave the contract without an owner, thereby removing any functionality that is only available to the owner."
      },
      "safeTransferFrom(address,address,uint256)": {
        "details": "See {IERC721-safeTransferFrom}."
      },
      "safeTransferFrom(address,address,uint256,bytes)": {
        "details": "See {IERC721-safeTransferFrom}."
      },
      "setApprovalForAll(address,bool)": {
        "details": "See {IERC721-setApprovalForAll}."
      },
      "supportsInterface(bytes4)": {
        "details": "See {IERC165-supportsInterface}."
      },
      "symbol()": {
        "details": "See {IERC721Metadata-symbol}."
      },
      "tokenByIndex(uint256)": {
        "details": "See {IERC721Enumerable-tokenByIndex}."
      },
      "tokenOfOwnerByIndex(address,uint256)": {
        "details": "See {IERC721Enumerable-tokenOfOwnerByIndex}."
      },
      "tokenURI(uint256)": {
        "details": "See {IERC721Metadata-tokenURI}."
      },
      "totalSupply()": {
        "details": "See {IERC721Enumerable-totalSupply}."
      },
      "transferFrom(address,address,uint256)": {
        "details": "See {IERC721-transferFrom}."
      },
      "transferOwnership(address)": {
        "details": "Transfers ownership of the contract to a new account (`newOwner`). Can only be called by the current owner."
      }
    },
    "title": "Owner",
    "version": 1
  },
  "userdoc": {
    "kind": "user",
    "methods": {},
    "version": 1
  }
}