{
  "contractName": "OG",
  "abi": [
    {
      "inputs": [],
      "stateMutability": "nonpayable",
      "type": "constructor"
    },
    {
      "anonymous": false,
      "inputs": [
        {
          "indexed": true,
          "internalType": "address",
          "name": "owner",
          "type": "address"
        },
        {
          "indexed": true,
          "internalType": "address",
          "name": "approved",
          "type": "address"
        },
        {
          "indexed": true,
          "internalType": "uint256",
          "name": "tokenId",
          "type": "uint256"
        }
      ],
      "name": "Approval",
      "type": "event"
    },
    {
      "anonymous": false,
      "inputs": [
        {
          "indexed": true,
          "internalType": "address",
          "name": "owner",
          "type": "address"
        },
        {
          "indexed": true,
          "internalType": "address",
          "name": "operator",
          "type": "address"
        },
        {
          "indexed": false,
          "internalType": "bool",
          "name": "approved",
          "type": "bool"
        }
      ],
      "name": "ApprovalForAll",
      "type": "event"
    },
    {
      "anonymous": false,
      "inputs": [
        {
          "indexed": true,
          "internalType": "address",
          "name": "previousOwner",
          "type": "address"
        },
        {
          "indexed": true,
          "internalType": "address",
          "name": "newOwner",
          "type": "address"
        }
      ],
      "name": "OwnershipTransferred",
      "type": "event"
    },
    {
      "anonymous": false,
      "inputs": [
        {
          "indexed": true,
          "internalType": "address",
          "name": "from",
          "type": "address"
        },
        {
          "indexed": true,
          "internalType": "address",
          "name": "to",
          "type": "address"
        },
        {
          "indexed": true,
          "internalType": "uint256",
          "name": "tokenId",
          "type": "uint256"
        }
      ],
      "name": "Transfer",
      "type": "event"
    },
    {
      "inputs": [
        {
          "internalType": "address",
          "name": "to",
          "type": "address"
        },
        {
          "internalType": "uint256",
          "name": "tokenId",
          "type": "uint256"
        }
      ],
      "name": "approve",
      "outputs": [],
      "stateMutability": "nonpayable",
      "type": "function"
    },
    {
      "inputs": [
        {
          "internalType": "address",
          "name": "owner",
          "type": "address"
        }
      ],
      "name": "balanceOf",
      "outputs": [
        {
          "internalType": "uint256",
          "name": "",
          "type": "uint256"
        }
      ],
      "stateMutability": "view",
      "type": "function",
      "constant": true
    },
    {
      "inputs": [
        {
          "internalType": "uint256",
          "name": "tokenId",
          "type": "uint256"
        }
      ],
      "name": "getApproved",
      "outputs": [
        {
          "internalType": "address",
          "name": "",
          "type": "address"
        }
      ],
      "stateMutability": "view",
      "type": "function",
      "constant": true
    },
    {
      "inputs": [
        {
          "internalType": "address",
          "name": "owner",
          "type": "address"
        },
        {
          "internalType": "address",
          "name": "operator",
          "type": "address"
        }
      ],
      "name": "isApprovedForAll",
      "outputs": [
        {
          "internalType": "bool",
          "name": "",
          "type": "bool"
        }
      ],
      "stateMutability": "view",
      "type": "function",
      "constant": true
    },
    {
      "inputs": [],
      "name": "name",
      "outputs": [
        {
          "internalType": "string",
          "name": "",
          "type": "string"
        }
      ],
      "stateMutability": "view",
      "type": "function",
      "constant": true
    },
    {
      "inputs": [],
      "name": "owner",
      "outputs": [
        {
          "internalType": "address",
          "name": "",
          "type": "address"
        }
      ],
      "stateMutability": "view",
      "type": "function",
      "constant": true
    },
    {
      "inputs": [
        {
          "internalType": "uint256",
          "name": "tokenId",
          "type": "uint256"
        }
      ],
      "name": "ownerOf",
      "outputs": [
        {
          "internalType": "address",
          "name": "",
          "type": "address"
        }
      ],
      "stateMutability": "view",
      "type": "function",
      "constant": true
    },
    {
      "inputs": [],
      "name": "renounceOwnership",
      "outputs": [],
      "stateMutability": "nonpayable",
      "type": "function"
    },
    {
      "inputs": [
        {
          "internalType": "address",
          "name": "from",
          "type": "address"
        },
        {
          "internalType": "address",
          "name": "to",
          "type": "address"
        },
        {
          "internalType": "uint256",
          "name": "tokenId",
          "type": "uint256"
        }
      ],
      "name": "safeTransferFrom",
      "outputs": [],
      "stateMutability": "nonpayable",
      "type": "function"
    },
    {
      "inputs": [
        {
          "internalType": "address",
          "name": "from",
          "type": "address"
        },
        {
          "internalType": "address",
          "name": "to",
          "type": "address"
        },
        {
          "internalType": "uint256",
          "name": "tokenId",
          "type": "uint256"
        },
        {
          "internalType": "bytes",
          "name": "_data",
          "type": "bytes"
        }
      ],
      "name": "safeTransferFrom",
      "outputs": [],
      "stateMutability": "nonpayable",
      "type": "function"
    },
    {
      "inputs": [
        {
          "internalType": "address",
          "name": "operator",
          "type": "address"
        },
        {
          "internalType": "bool",
          "name": "approved",
          "type": "bool"
        }
      ],
      "name": "setApprovalForAll",
      "outputs": [],
      "stateMutability": "nonpayable",
      "type": "function"
    },
    {
      "inputs": [
        {
          "internalType": "bytes4",
          "name": "interfaceId",
          "type": "bytes4"
        }
      ],
      "name": "supportsInterface",
      "outputs": [
        {
          "internalType": "bool",
          "name": "",
          "type": "bool"
        }
      ],
      "stateMutability": "view",
      "type": "function",
      "constant": true
    },
    {
      "inputs": [],
      "name": "symbol",
      "outputs": [
        {
          "internalType": "string",
          "name": "",
          "type": "string"
        }
      ],
      "stateMutability": "view",
      "type": "function",
      "constant": true
    },
    {
      "inputs": [
        {
          "internalType": "uint256",
          "name": "index",
          "type": "uint256"
        }
      ],
      "name": "tokenByIndex",
      "outputs": [
        {
          "internalType": "uint256",
          "name": "",
          "type": "uint256"
        }
      ],
      "stateMutability": "view",
      "type": "function",
      "constant": true
    },
    {
      "inputs": [
        {
          "internalType": "address",
          "name": "owner",
          "type": "address"
        },
        {
          "internalType": "uint256",
          "name": "index",
          "type": "uint256"
        }
      ],
      "name": "tokenOfOwnerByIndex",
      "outputs": [
        {
          "internalType": "uint256",
          "name": "tokenId",
          "type": "uint256"
        }
      ],
      "stateMutability": "view",
      "type": "function",
      "constant": true
    },
    {
      "inputs": [],
      "name": "totalSupply",
      "outputs": [
        {
          "internalType": "uint256",
          "name": "",
          "type": "uint256"
        }
      ],
      "stateMutability": "view",
      "type": "function",
      "constant": true
    },
    {
      "inputs": [
        {
          "internalType": "address",
          "name": "from",
          "type": "address"
        },
        {
          "internalType": "address",
          "name": "to",
          "type": "address"
        },
        {
          "internalType": "uint256",
          "name": "tokenId",
          "type": "uint256"
        }
      ],
      "name": "transferFrom",
      "outputs": [],
      "stateMutability": "nonpayable",
      "type": "function"
    },
    {
      "inputs": [
        {
          "internalType": "address",
          "name": "newOwner",
          "type": "address"
        }
      ],
      "name": "transferOwnership",
      "outputs": [],
      "stateMutability": "nonpayable",
      "type": "function"
    },
    {
      "inputs": [
        {
          "internalType": "bool",
          "name": "paused",
          "type": "bool"
        }
      ],
      "name": "setPaused",
      "outputs": [],
      "stateMutability": "nonpayable",
      "type": "function"
    },
    {
      "inputs": [
        {
          "internalType": "address[]",
          "name": "ogDozen",
          "type": "address[]"
        },
        {
          "internalType": "uint16",
          "name": "dozenUnlockMinSupply",
          "type": "uint16"
        }
      ],
      "name": "setOgDozen",
      "outputs": [],
      "stateMutability": "nonpayable",
      "type": "function"
    },
    {
      "inputs": [
        {
          "internalType": "address",
          "name": "a",
          "type": "address"
        }
      ],
      "name": "isOgDozen",
      "outputs": [
        {
          "internalType": "bool",
          "name": "",
          "type": "bool"
        }
      ],
      "stateMutability": "view",
      "type": "function",
      "constant": true
    },
    {
      "inputs": [
        {
          "internalType": "address",
          "name": "contractAddress",
          "type": "address"
        }
      ],
      "name": "addSupportedCollection",
      "outputs": [],
      "stateMutability": "nonpayable",
      "type": "function"
    },
    {
      "inputs": [],
      "name": "clearSupportedCollections",
      "outputs": [],
      "stateMutability": "nonpayable",
      "type": "function"
    },
    {
      "inputs": [
        {
          "internalType": "address",
          "name": "contractAddress",
          "type": "address"
        },
        {
          "internalType": "string",
          "name": "base64EncodedSvgSlug",
          "type": "string"
        }
      ],
      "name": "setSupportedCollectionSlug",
      "outputs": [],
      "stateMutability": "nonpayable",
      "type": "function"
    },
    {
      "inputs": [
        {
          "internalType": "address",
          "name": "gotTokenAddress",
          "type": "address"
        },
        {
          "internalType": "address",
          "name": "ogColorAddress",
          "type": "address"
        }
      ],
      "name": "setTrustedContractAddresses",
      "outputs": [],
      "stateMutability": "nonpayable",
      "type": "function"
    },
    {
      "inputs": [
        {
          "internalType": "uint256",
          "name": "tokenId",
          "type": "uint256"
        }
      ],
      "name": "renderSvg",
      "outputs": [
        {
          "internalType": "string",
          "name": "",
          "type": "string"
        }
      ],
      "stateMutability": "view",
      "type": "function",
      "constant": true
    },
    {
      "inputs": [
        {
          "internalType": "uint256",
          "name": "tokenId",
          "type": "uint256"
        }
      ],
      "name": "tokenURI",
      "outputs": [
        {
          "internalType": "string",
          "name": "",
          "type": "string"
        }
      ],
      "stateMutability": "view",
      "type": "function",
      "constant": true
    },
    {
      "inputs": [
        {
          "internalType": "uint256[]",
          "name": "tokenIds",
          "type": "uint256[]"
        }
      ],
      "name": "mint",
      "outputs": [],
      "stateMutability": "nonpayable",
      "type": "function"
    },
    {
      "inputs": [
        {
          "internalType": "address",
          "name": "sender",
          "type": "address"
        },
        {
          "internalType": "uint256",
          "name": "tokenId",
          "type": "uint256"
        }
      ],
      "name": "canMint",
      "outputs": [
        {
          "internalType": "bool",
          "name": "",
          "type": "bool"
        }
      ],
      "stateMutability": "view",
      "type": "function",
      "constant": true
    },
    {
      "inputs": [
        {
          "internalType": "uint16",
          "name": "desiredCount",
          "type": "uint16"
        },
        {
          "internalType": "uint256",
          "name": "seed",
          "type": "uint256"
        }
      ],
      "name": "suggestFreeIds",
      "outputs": [
        {
          "internalType": "uint256[]",
          "name": "",
          "type": "uint256[]"
        }
      ],
      "stateMutability": "view",
      "type": "function",
      "constant": true
    }
  ],
  "bytecode": "0x60806040523480156200001157600080fd5b506040518060400160405280600281526020017f4f470000000000000000000000000000000000000000000000000000000000008152506040518060400160405280600281526020017f4f470000000000000000000000000000000000000000000000000000000000008152508160009080519060200190620000969291906200027d565b508060019080519060200190620000af9291906200027d565b505050620000d2620000c6620001af60201b60201c565b620001b760201b60201c565b6000600a604051620000e490620003b1565b908152602001604051809103902060006101000a81548173ffffffffffffffffffffffffffffffffffffffff021916908373ffffffffffffffffffffffffffffffffffffffff1602179055506000600a6040516200014290620003c8565b908152602001604051809103902060006101000a81548173ffffffffffffffffffffffffffffffffffffffff021916908373ffffffffffffffffffffffffffffffffffffffff1602179055506001600d60006101000a81548160ff0219169083151502179055506200044f565b600033905090565b6000600860009054906101000a900473ffffffffffffffffffffffffffffffffffffffff16905081600860006101000a81548173ffffffffffffffffffffffffffffffffffffffff021916908373ffffffffffffffffffffffffffffffffffffffff1602179055508173ffffffffffffffffffffffffffffffffffffffff168173ffffffffffffffffffffffffffffffffffffffff167f8be0079c531659141344cd1fd0a4f28419497f9722a3daafe3b4186f6b6457e060405160405180910390a35050565b8280546200028b90620003ea565b90600052602060002090601f016020900481019282620002af5760008555620002fb565b82601f10620002ca57805160ff1916838001178555620002fb565b82800160010185558215620002fb579182015b82811115620002fa578251825591602001919060010190620002dd565b5b5090506200030a91906200030e565b5090565b5b80821115620003295760008160009055506001016200030f565b5090565b60006200033c600883620003df565b91507f676f74746f6b656e0000000000000000000000000000000000000000000000006000830152600882019050919050565b60006200037e600783620003df565b91507f6f67636f6c6f72000000000000000000000000000000000000000000000000006000830152600782019050919050565b6000620003be826200032d565b9150819050919050565b6000620003d5826200036f565b9150819050919050565b600081905092915050565b600060028204905060018216806200040357607f821691505b602082108114156200041a576200041962000420565b5b50919050565b7f4e487b7100000000000000000000000000000000000000000000000000000000600052602260045260246000fd5b615f7f806200045f6000396000f3fe608060405234801561001057600080fd5b50600436106101da5760003560e01c806363cc771611610104578063bf1fe7e7116100a2578063f2fde38b11610071578063f2fde38b14610577578063f8e93ef914610593578063fb397aff146105af578063fd5ad319146105cb576101da565b8063bf1fe7e7146104dd578063c87b56dd1461050d578063e985e9c51461053d578063edd39ab51461056d576101da565b80638da5cb5b116100de5780638da5cb5b1461046957806395d89b4114610487578063a22cb465146104a5578063b88d4fde146104c1576101da565b806363cc77161461041357806370a082311461042f578063715018a61461045f576101da565b806323b872dd1161017c5780634f6ccce71161014b5780634f6ccce714610367578063506d9e2b1461039757806353321817146103c75780636352211e146103e3576101da565b806323b872dd146102e35780632f745c59146102ff57806342842e0e1461032f5780634e2e46d71461034b576101da565b8063095ea7b3116101b8578063095ea7b31461025d5780630d5e34a41461027957806316c38b3c146102a957806318160ddd146102c5576101da565b806301ffc9a7146101df57806306fdde031461020f578063081812fc1461022d575b600080fd5b6101f960048036038101906101f49190614150565b6105fb565b60405161020691906152f9565b60405180910390f35b610217610675565b60405161022491906153ea565b60405180910390f35b610247600480360381019061024291906142e2565b610707565b6040516102549190615270565b60405180910390f35b6102776004803603810190610272919061400d565b61078c565b005b610293600480360381019061028e919061400d565b6108a4565b6040516102a091906152f9565b60405180910390f35b6102c360048036038101906102be9190614127565b6109f7565b005b6102cd610a90565b6040516102da91906156e7565b60405180910390f35b6102fd60048036038101906102f89190613eaf565b610a9a565b005b6103196004803603810190610314919061400d565b610afa565b60405161032691906156e7565b60405180910390f35b61034960048036038101906103449190613eaf565b610bd0565b005b61036560048036038101906103609190613e21565b610bf0565b005b610381600480360381019061037c91906142e2565b610cd2565b60405161038e91906156e7565b60405180910390f35b6103b160048036038101906103ac91906142a6565b610d20565b6040516103be91906152d7565b60405180910390f35b6103e160048036038101906103dc9190613fb5565b610dc1565b005b6103fd60048036038101906103f891906142e2565b610ee2565b60405161040a9190615270565b60405180910390f35b61042d60048036038101906104289190614049565b610f94565b005b61044960048036038101906104449190613e21565b611044565b60405161045691906156e7565b60405180910390f35b6104676110fc565b005b610471611184565b60405161047e9190615270565b60405180910390f35b61048f6111ae565b60405161049c91906153ea565b60405180910390f35b6104bf60048036038101906104ba9190613f79565b611240565b005b6104db60048036038101906104d69190613efe565b611256565b005b6104f760048036038101906104f29190613e21565b6112b8565b60405161050491906152f9565b60405180910390f35b610527600480360381019061052291906142e2565b611395565b60405161053491906153ea565b60405180910390f35b61055760048036038101906105529190613e73565b61156b565b60405161056491906152f9565b60405180910390f35b6105756115ff565b005b610591600480360381019061058c9190613e21565b61168b565b005b6105ad60048036038101906105a891906140a1565b611783565b005b6105c960048036038101906105c49190613e73565b611a41565b005b6105e560048036038101906105e091906142e2565b611b77565b6040516105f291906153ea565b60405180910390f35b60007f780e9d63000000000000000000000000000000000000000000000000000000007bffffffffffffffffffffffffffffffffffffffffffffffffffffffff1916827bffffffffffffffffffffffffffffffffffffffffffffffffffffffff1916148061066e575061066d826124de565b5b9050919050565b60606000805461068490615ae4565b80601f01602080910402602001604051908101604052809291908181526020018280546106b090615ae4565b80156106fd5780601f106106d2576101008083540402835291602001916106fd565b820191906000526020600020905b8154815290600101906020018083116106e057829003601f168201915b5050505050905090565b6000610712826125c0565b610751576040517f08c379a00000000000000000000000000000000000000000000000000000000081526004016107489061558c565b60405180910390fd5b6004600083815260200190815260200160002060009054906101000a900473ffffffffffffffffffffffffffffffffffffffff169050919050565b600061079782610ee2565b90508073ffffffffffffffffffffffffffffffffffffffff168373ffffffffffffffffffffffffffffffffffffffff161415610808576040517f08c379a00000000000000000000000000000000000000000000000000000000081526004016107ff9061560c565b60405180910390fd5b8073ffffffffffffffffffffffffffffffffffffffff1661082761262c565b73ffffffffffffffffffffffffffffffffffffffff16148061085657506108558161085061262c565b61156b565b5b610895576040517f08c379a000000000000000000000000000000000000000000000000000000000815260040161088c9061550c565b60405180910390fd5b61089f8383612634565b505050565b6000600c8211156108b857600190506109f1565b600c82111580156108c95750600182115b1561090557600d60019054906101000a900461ffff1661ffff166108eb610a90565b101580156108fe57506108fd836112b8565b5b90506109f1565b60018214156109e45761091860026125c0565b801561092a575061092960036125c0565b5b801561093c575061093b60046125c0565b5b801561094e575061094d60056125c0565b5b8015610960575061095f60066125c0565b5b8015610972575061097160076125c0565b5b8015610984575061098360086125c0565b5b8015610996575061099560096125c0565b5b80156109a857506109a7600a6125c0565b5b80156109ba57506109b9600b6125c0565b5b80156109cc57506109cb600c6125c0565b5b80156109dd57506109dc836112b8565b5b90506109f1565b6109ee60016125c0565b90505b92915050565b6109ff61262c565b73ffffffffffffffffffffffffffffffffffffffff16610a1d611184565b73ffffffffffffffffffffffffffffffffffffffff1614610a73576040517f08c379a0000000000000000000000000000000000000000000000000000000008152600401610a6a906155ac565b60405180910390fd5b80600d60006101000a81548160ff02191690831515021790555050565b6000600754905090565b610aab610aa561262c565b826126ed565b610aea576040517f08c379a0000000000000000000000000000000000000000000000000000000008152600401610ae19061564c565b60405180910390fd5b610af58383836127cb565b505050565b6000610b0583611044565b8210610b46576040517f08c379a0000000000000000000000000000000000000000000000000000000008152600401610b3d9061542c565b60405180910390fd5b600660008473ffffffffffffffffffffffffffffffffffffffff1673ffffffffffffffffffffffffffffffffffffffff1681526020019081526020016000208281548110610bbd577f4e487b7100000000000000000000000000000000000000000000000000000000600052603260045260246000fd5b9060005260206000200154905092915050565b610beb83838360405180602001604052806000815250611256565b505050565b610bf861262c565b73ffffffffffffffffffffffffffffffffffffffff16610c16611184565b73ffffffffffffffffffffffffffffffffffffffff1614610c6c576040517f08c379a0000000000000000000000000000000000000000000000000000000008152600401610c63906155ac565b60405180910390fd5b600b819080600181540180825580915050600190039060005260206000200160009091909190916101000a81548173ffffffffffffffffffffffffffffffffffffffff021916908373ffffffffffffffffffffffffffffffffffffffff16021790555050565b60006007548210610d18576040517f08c379a0000000000000000000000000000000000000000000000000000000008152600401610d0f9061568c565b60405180910390fd5b819050919050565b606073__Customizer____________________________637af8c19b3085600d612710876040518663ffffffff1660e01b8152600401610d64959493929190615397565b60006040518083038186803b158015610d7c57600080fd5b505af4158015610d90573d6000803e3d6000fd5b505050506040513d6000823e3d601f19601f82011682018060405250810190610db991906140e6565b905092915050565b610dc961262c565b73ffffffffffffffffffffffffffffffffffffffff16610de7611184565b73ffffffffffffffffffffffffffffffffffffffff1614610e3d576040517f08c379a0000000000000000000000000000000000000000000000000000000008152600401610e34906155ac565b60405180910390fd5b610e8a82828080601f016020809104026020016040519081016040528093929190818152602001838380828437600081840152601f19601f82011690508083019250505050505050612a27565b600960008573ffffffffffffffffffffffffffffffffffffffff1673ffffffffffffffffffffffffffffffffffffffff1681526020019081526020016000209080519060200190610edc9291906139a9565b50505050565b6000806002600084815260200190815260200160002060009054906101000a900473ffffffffffffffffffffffffffffffffffffffff169050600073ffffffffffffffffffffffffffffffffffffffff168173ffffffffffffffffffffffffffffffffffffffff161415610f8b576040517f08c379a0000000000000000000000000000000000000000000000000000000008152600401610f829061554c565b60405180910390fd5b80915050919050565b610f9c61262c565b73ffffffffffffffffffffffffffffffffffffffff16610fba611184565b73ffffffffffffffffffffffffffffffffffffffff1614611010576040517f08c379a0000000000000000000000000000000000000000000000000000000008152600401611007906155ac565b60405180910390fd5b8282600c9190611021929190613a2f565b5080600d60016101000a81548161ffff021916908361ffff160217905550505050565b60008073ffffffffffffffffffffffffffffffffffffffff168273ffffffffffffffffffffffffffffffffffffffff1614156110b5576040517f08c379a00000000000000000000000000000000000000000000000000000000081526004016110ac9061552c565b60405180910390fd5b600360008373ffffffffffffffffffffffffffffffffffffffff1673ffffffffffffffffffffffffffffffffffffffff168152602001908152602001600020549050919050565b61110461262c565b73ffffffffffffffffffffffffffffffffffffffff16611122611184565b73ffffffffffffffffffffffffffffffffffffffff1614611178576040517f08c379a000000000000000000000000000000000000000000000000000000000815260040161116f906155ac565b60405180910390fd5b6111826000612c6e565b565b6000600860009054906101000a900473ffffffffffffffffffffffffffffffffffffffff16905090565b6060600180546111bd90615ae4565b80601f01602080910402602001604051908101604052809291908181526020018280546111e990615ae4565b80156112365780601f1061120b57610100808354040283529160200191611236565b820191906000526020600020905b81548152906001019060200180831161121957829003601f168201915b5050505050905090565b61125261124b61262c565b8383612d34565b5050565b61126761126161262c565b836126ed565b6112a6576040517f08c379a000000000000000000000000000000000000000000000000000000000815260040161129d9061564c565b60405180910390fd5b6112b284848484612ea1565b50505050565b600080600090505b600c805490508161ffff16101561138a57600c8161ffff168154811061130f577f4e487b7100000000000000000000000000000000000000000000000000000000600052603260045260246000fd5b9060005260206000200160009054906101000a900473ffffffffffffffffffffffffffffffffffffffff1673ffffffffffffffffffffffffffffffffffffffff168373ffffffffffffffffffffffffffffffffffffffff161415611377576001915050611390565b808061138290615b30565b9150506112c0565b50600090505b919050565b6060600082101580156113aa575061270f8211155b6113e9576040517f08c379a00000000000000000000000000000000000000000000000000000000081526004016113e0906155ec565b60405180910390fd5b600073__Customizer____________________________63eac15a4b30600a60405161141490615173565b908152602001604051809103902060009054906101000a900473ffffffffffffffffffffffffffffffffffffffff16866040518463ffffffff1660e01b815260040161146293929190615360565b60006040518083038186803b15801561147a57600080fd5b505af415801561148e573d6000803e3d6000fd5b505050506040513d6000823e3d601f19601f820116820180604052508101906114b791906141a2565b905060008151116114d757604051806020016040528060008152506114f8565b806040516020016114e8919061513c565b6040516020818303038152906040525b9050600061154061150885612efd565b8361151a61151588611b77565b6130aa565b60405160200161152c93929190615213565b6040516020818303038152906040526130aa565b9050806040516020016115539190615188565b60405160208183030381529060405292505050919050565b6000600560008473ffffffffffffffffffffffffffffffffffffffff1673ffffffffffffffffffffffffffffffffffffffff16815260200190815260200160002060008373ffffffffffffffffffffffffffffffffffffffff1673ffffffffffffffffffffffffffffffffffffffff16815260200190815260200160002060009054906101000a900460ff16905092915050565b61160761262c565b73ffffffffffffffffffffffffffffffffffffffff16611625611184565b73ffffffffffffffffffffffffffffffffffffffff161461167b576040517f08c379a0000000000000000000000000000000000000000000000000000000008152600401611672906155ac565b60405180910390fd5b600b60006116899190613acf565b565b61169361262c565b73ffffffffffffffffffffffffffffffffffffffff166116b1611184565b73ffffffffffffffffffffffffffffffffffffffff1614611707576040517f08c379a00000000000000000000000000000000000000000000000000000000081526004016116fe906155ac565b60405180910390fd5b600073ffffffffffffffffffffffffffffffffffffffff168173ffffffffffffffffffffffffffffffffffffffff161415611777576040517f08c379a000000000000000000000000000000000000000000000000000000000815260040161176e9061546c565b60405180910390fd5b61178081612c6e565b50565b600061178d61262c565b9050600061179a82611044565b9050600d60009054906101000a900460ff16156117ec576040517f08c379a00000000000000000000000000000000000000000000000000000000081526004016117e39061566c565b60405180910390fd5b600a84849050826117fd9190615879565b111561183e576040517f08c379a0000000000000000000000000000000000000000000000000000000008152600401611835906156ac565b60405180910390fd5b60005b848490508161ffff1610156119c757600085858361ffff1681811061188f577f4e487b7100000000000000000000000000000000000000000000000000000000600052603260045260246000fd5b90506020020135101580156118e9575061270f85858361ffff168181106118df577f4e487b7100000000000000000000000000000000000000000000000000000000600052603260045260246000fd5b9050602002013511155b611928576040517f08c379a000000000000000000000000000000000000000000000000000000000815260040161191f906155ec565b60405180910390fd5b6119758386868461ffff16818110611969577f4e487b7100000000000000000000000000000000000000000000000000000000600052603260045260246000fd5b905060200201356108a4565b6119b4576040517f08c379a00000000000000000000000000000000000000000000000000000000081526004016119ab9061540c565b60405180910390fd5b80806119bf90615b30565b915050611841565b5060005b848490508161ffff161015611a3a57611a278386868461ffff16818110611a1b577f4e487b7100000000000000000000000000000000000000000000000000000000600052603260045260246000fd5b90506020020135613249565b8080611a3290615b30565b9150506119cb565b5050505050565b611a4961262c565b73ffffffffffffffffffffffffffffffffffffffff16611a67611184565b73ffffffffffffffffffffffffffffffffffffffff1614611abd576040517f08c379a0000000000000000000000000000000000000000000000000000000008152600401611ab4906155ac565b60405180910390fd5b81600a604051611acc9061515e565b908152602001604051809103902060006101000a81548173ffffffffffffffffffffffffffffffffffffffff021916908373ffffffffffffffffffffffffffffffffffffffff16021790555080600a604051611b2790615173565b908152602001604051809103902060006101000a81548173ffffffffffffffffffffffffffffffffffffffff021916908373ffffffffffffffffffffffffffffffffffffffff1602179055505050565b606060008210158015611b8c575061270f8211155b611bcb576040517f08c379a0000000000000000000000000000000000000000000000000000000008152600401611bc2906155ec565b60405180910390fd5b60008060008073__Customizer____________________________63bda93c9a30600a604051611bfa90615173565b908152602001604051809103902060009054906101000a900473ffffffffffffffffffffffffffffffffffffffff16896040518463ffffffff1660e01b8152600401611c4893929190615360565b60006040518083038186803b158015611c6057600080fd5b505af4158015611c74573d6000803e3d6000fd5b505050506040513d6000823e3d601f19601f82011682018060405250810190611c9d91906141e3565b9350935093509350600073__Customizer____________________________637308eca430600a604051611cd09061515e565b908152602001604051809103902060009054906101000a900473ffffffffffffffffffffffffffffffffffffffff16600b8b6040518563ffffffff1660e01b8152600401611d219493929190615314565b60206040518083038186803b158015611d3957600080fd5b505af4158015611d4d573d6000803e3d6000fd5b505050506040513d601f19601f82011682018060405250810190611d719190613e4a565b905060008073ffffffffffffffffffffffffffffffffffffffff168273ffffffffffffffffffffffffffffffffffffffff1614159050611daf613af0565b6040518060c0016040528060868152602001615d366086913981600060088110611e02577f4e487b7100000000000000000000000000000000000000000000000000000000600052603260045260246000fd5b602002018190525086868686604051602001611e2194939291906151bf565b60405160208183030381529060405281600160088110611e6a577f4e487b7100000000000000000000000000000000000000000000000000000000600052603260045260246000fd5b60200201819052506040518060400160405280601181526020017f3c6d61736b2069643d275f6d61736b273e00000000000000000000000000000081525081600260088110611ee2577f4e487b7100000000000000000000000000000000000000000000000000000000600052603260045260246000fd5b60200201819052508115611f515760405180610100016040528060ce8152602001615dfc60ce913981600360088110611f44577f4e487b7100000000000000000000000000000000000000000000000000000000600052603260045260246000fd5b6020020181905250611fa4565b6040518060200160405280600081525081600360088110611f9b577f4e487b7100000000000000000000000000000000000000000000000000000000600052603260045260246000fd5b60200201819052505b604051602001611fb3906151aa565b60405160208183030381529060405281600460088110611ffc577f4e487b7100000000000000000000000000000000000000000000000000000000600052603260045260246000fd5b602002018190525073__Digits________________________________63f1fb19db8a6040518263ffffffff1660e01b815260040161203b91906156cc565b60006040518083038186803b15801561205357600080fd5b505af4158015612067573d6000803e3d6000fd5b505050506040513d6000823e3d601f19601f8201168201806040525081019061209091906141a2565b816005600881106120ca577f4e487b7100000000000000000000000000000000000000000000000000000000600052603260045260246000fd5b602002018190525081156121e757600960008473ffffffffffffffffffffffffffffffffffffffff1673ffffffffffffffffffffffffffffffffffffffff168152602001908152602001600020805461212290615ae4565b80601f016020809104026020016040519081016040528092919081815260200182805461214e90615ae4565b801561219b5780601f106121705761010080835404028352916020019161219b565b820191906000526020600020905b81548152906001019060200180831161217e57829003601f168201915b5050505050816006600881106121da577f4e487b7100000000000000000000000000000000000000000000000000000000600052603260045260246000fd5b602002018190525061223a565b6040518060200160405280600081525081600660088110612231577f4e487b7100000000000000000000000000000000000000000000000000000000600052603260045260246000fd5b60200201819052505b6040518060400160405280600681526020017f3c2f7376673e0000000000000000000000000000000000000000000000000000815250816007600881106122aa577f4e487b7100000000000000000000000000000000000000000000000000000000600052603260045260246000fd5b6020020181905250806000600881106122ec577f4e487b7100000000000000000000000000000000000000000000000000000000600052603260045260246000fd5b60200201518160016008811061232b577f4e487b7100000000000000000000000000000000000000000000000000000000600052603260045260246000fd5b60200201518260026008811061236a577f4e487b7100000000000000000000000000000000000000000000000000000000600052603260045260246000fd5b6020020151836003600881106123a9577f4e487b7100000000000000000000000000000000000000000000000000000000600052603260045260246000fd5b6020020151846004600881106123e8577f4e487b7100000000000000000000000000000000000000000000000000000000600052603260045260246000fd5b602002015185600560088110612427577f4e487b7100000000000000000000000000000000000000000000000000000000600052603260045260246000fd5b602002015186600660088110612466577f4e487b7100000000000000000000000000000000000000000000000000000000600052603260045260246000fd5b6020020151876007600881106124a5577f4e487b7100000000000000000000000000000000000000000000000000000000600052603260045260246000fd5b60200201516040516020016124c19897969594939291906150ca565b604051602081830303815290604052975050505050505050919050565b60007f80ac58cd000000000000000000000000000000000000000000000000000000007bffffffffffffffffffffffffffffffffffffffffffffffffffffffff1916827bffffffffffffffffffffffffffffffffffffffffffffffffffffffff191614806125a957507f5b5e139f000000000000000000000000000000000000000000000000000000007bffffffffffffffffffffffffffffffffffffffffffffffffffffffff1916827bffffffffffffffffffffffffffffffffffffffffffffffffffffffff1916145b806125b957506125b882613267565b5b9050919050565b60008073ffffffffffffffffffffffffffffffffffffffff166002600084815260200190815260200160002060009054906101000a900473ffffffffffffffffffffffffffffffffffffffff1673ffffffffffffffffffffffffffffffffffffffff1614159050919050565b600033905090565b816004600083815260200190815260200160002060006101000a81548173ffffffffffffffffffffffffffffffffffffffff021916908373ffffffffffffffffffffffffffffffffffffffff160217905550808273ffffffffffffffffffffffffffffffffffffffff166126a783610ee2565b73ffffffffffffffffffffffffffffffffffffffff167f8c5be1e5ebec7d5bd14f71427d1e84f3dd0314c0f7b2291e5b200ac8c7c3b92560405160405180910390a45050565b60006126f8826125c0565b612737576040517f08c379a000000000000000000000000000000000000000000000000000000000815260040161272e906154ec565b60405180910390fd5b600061274283610ee2565b90508073ffffffffffffffffffffffffffffffffffffffff168473ffffffffffffffffffffffffffffffffffffffff1614806127b157508373ffffffffffffffffffffffffffffffffffffffff1661279984610707565b73ffffffffffffffffffffffffffffffffffffffff16145b806127c257506127c1818561156b565b5b91505092915050565b8273ffffffffffffffffffffffffffffffffffffffff166127eb82610ee2565b73ffffffffffffffffffffffffffffffffffffffff1614612841576040517f08c379a0000000000000000000000000000000000000000000000000000000008152600401612838906155cc565b60405180910390fd5b600073ffffffffffffffffffffffffffffffffffffffff168273ffffffffffffffffffffffffffffffffffffffff1614156128b1576040517f08c379a00000000000000000000000000000000000000000000000000000000081526004016128a8906154ac565b60405180910390fd5b6128bc8383836132d1565b6128c7600082612634565b6001600360008573ffffffffffffffffffffffffffffffffffffffff1673ffffffffffffffffffffffffffffffffffffffff1681526020019081526020016000206000828254612917919061595a565b925050819055506001600360008473ffffffffffffffffffffffffffffffffffffffff1673ffffffffffffffffffffffffffffffffffffffff168152602001908152602001600020600082825461296e9190615879565b92505081905550816002600083815260200190815260200160002060006101000a81548173ffffffffffffffffffffffffffffffffffffffff021916908373ffffffffffffffffffffffffffffffffffffffff160217905550808273ffffffffffffffffffffffffffffffffffffffff168473ffffffffffffffffffffffffffffffffffffffff167fddf252ad1be2c89b69c2b068fc378daa952ba7f163c4a11628f55a4df523b3ef60405160405180910390a4505050565b60606000829050600081511415612ab457600067ffffffffffffffff811115612a79577f4e487b7100000000000000000000000000000000000000000000000000000000600052604160045260246000fd5b6040519080825280601f01601f191660200182016040528015612aab5781602001600182028036833780820191505090505b50915050612c69565b600060048251612ac49190615ba4565b14612b04576040517f08c379a0000000000000000000000000000000000000000000000000000000008152600401612afb9061562c565b60405180910390fd5b60006040518060a0016040528060808152602001615eca6080913990506000600360048451612b3391906158cf565b612b3d9190615900565b90506000602082612b4e9190615879565b67ffffffffffffffff811115612b8d577f4e487b7100000000000000000000000000000000000000000000000000000000600052604160045260246000fd5b6040519080825280601f01601f191660200182016040528015612bbf5781602001600182028036833780820191505090505b5090508351840151603d60ff82161415612bef57600183039250613d3d61ffff82161415612bee576001830392505b5b828252600184018586518101602085015b81831015612c5c57600483019250825160ff8082168601511660ff808360081c168701511660061b0160ff808360101c1687015116600c1b60ff808460181c168801511660121b01018060e81b83526003830192505050612c00565b5050505050809450505050505b919050565b6000600860009054906101000a900473ffffffffffffffffffffffffffffffffffffffff16905081600860006101000a81548173ffffffffffffffffffffffffffffffffffffffff021916908373ffffffffffffffffffffffffffffffffffffffff1602179055508173ffffffffffffffffffffffffffffffffffffffff168173ffffffffffffffffffffffffffffffffffffffff167f8be0079c531659141344cd1fd0a4f28419497f9722a3daafe3b4186f6b6457e060405160405180910390a35050565b8173ffffffffffffffffffffffffffffffffffffffff168373ffffffffffffffffffffffffffffffffffffffff161415612da3576040517f08c379a0000000000000000000000000000000000000000000000000000000008152600401612d9a906154cc565b60405180910390fd5b80600560008573ffffffffffffffffffffffffffffffffffffffff1673ffffffffffffffffffffffffffffffffffffffff16815260200190815260200160002060008473ffffffffffffffffffffffffffffffffffffffff1673ffffffffffffffffffffffffffffffffffffffff16815260200190815260200160002060006101000a81548160ff0219169083151502179055508173ffffffffffffffffffffffffffffffffffffffff168373ffffffffffffffffffffffffffffffffffffffff167f17307eab39ab6107e8899845ad3d59bd9653f200f220920489ca2b5937696c3183604051612e9491906152f9565b60405180910390a3505050565b612eac8484846127cb565b612eb8848484846135d6565b612ef7576040517f08c379a0000000000000000000000000000000000000000000000000000000008152600401612eee9061544c565b60405180910390fd5b50505050565b60606000821415612f45576040518060400160405280600181526020017f300000000000000000000000000000000000000000000000000000000000000081525090506130a5565b600082905060005b60008214612f77578080612f6090615b5b565b915050600a82612f7091906158cf565b9150612f4d565b60008167ffffffffffffffff811115612fb9577f4e487b7100000000000000000000000000000000000000000000000000000000600052604160045260246000fd5b6040519080825280601f01601f191660200182016040528015612feb5781602001600182028036833780820191505090505b5090505b6000851461309e57600182613004919061595a565b9150600a856130139190615ba4565b603061301f9190615879565b60f81b81838151811061305b577f4e487b7100000000000000000000000000000000000000000000000000000000600052603260045260246000fd5b60200101907effffffffffffffffffffffffffffffffffffffffffffffffffffffffffffff1916908160001a905350600a8561309791906158cf565b9450612fef565b8093505050505b919050565b60606000825114156130cd57604051806020016040528060008152509050613244565b6000604051806060016040528060408152602001615dbc60409139905060006003600285516130fc9190615879565b61310691906158cf565b60046131129190615900565b905060006020826131239190615879565b67ffffffffffffffff811115613162577f4e487b7100000000000000000000000000000000000000000000000000000000600052604160045260246000fd5b6040519080825280601f01601f1916602001820160405280156131945781602001600182028036833780820191505090505b509050818152600183018586518101602084015b81831015613203576003830192508251603f8160121c168501518253600182019150603f81600c1c168501518253600182019150603f8160061c168501518253600182019150603f81168501518253600182019150506131a8565b60038951066001811461321d576002811461322d57613238565b613d3d60f01b6002830352613238565b603d60f81b60018303525b50505050508093505050505b919050565b61326382826040518060200160405280600081525061376d565b5050565b60007f01ffc9a7000000000000000000000000000000000000000000000000000000007bffffffffffffffffffffffffffffffffffffffffffffffffffffffff1916827bffffffffffffffffffffffffffffffffffffffffffffffffffffffff1916149050919050565b60008073ffffffffffffffffffffffffffffffffffffffff168473ffffffffffffffffffffffffffffffffffffffff1614905060008073ffffffffffffffffffffffffffffffffffffffff168473ffffffffffffffffffffffffffffffffffffffff16148061336d575061dead73ffffffffffffffffffffffffffffffffffffffff168473ffffffffffffffffffffffffffffffffffffffff16145b905081613520576000600660008773ffffffffffffffffffffffffffffffffffffffff1673ffffffffffffffffffffffffffffffffffffffff168152602001908152602001600020905060005b81805490508161ffff16101561351d5784828261ffff1681548110613408577f4e487b7100000000000000000000000000000000000000000000000000000000600052603260045260246000fd5b9060005260206000200154141561350a57816001838054905061342b919061595a565b81548110613462577f4e487b7100000000000000000000000000000000000000000000000000000000600052603260045260246000fd5b9060005260206000200154828261ffff16815481106134aa577f4e487b7100000000000000000000000000000000000000000000000000000000600052603260045260246000fd5b9060005260206000200181905550818054806134ef577f4e487b7100000000000000000000000000000000000000000000000000000000600052603160045260246000fd5b6001900381819060005260206000200160009055905561351d565b808061351590615b30565b9150506133ba565b50505b8061358c57600660008573ffffffffffffffffffffffffffffffffffffffff1673ffffffffffffffffffffffffffffffffffffffff1681526020019081526020016000208390806001815401808255809150506001900390600052602060002001600090919091909150555b81156135af57600760008154809291906135a590615b5b565b91905055506135cf565b80156135ce57600760008154809291906135c890615aba565b91905055505b5b5050505050565b60006135f78473ffffffffffffffffffffffffffffffffffffffff166137c8565b15613760578373ffffffffffffffffffffffffffffffffffffffff1663150b7a0261362061262c565b8786866040518563ffffffff1660e01b8152600401613642949392919061528b565b602060405180830381600087803b15801561365c57600080fd5b505af192505050801561368d57506040513d601f19601f8201168201806040525081019061368a9190614179565b60015b613710573d80600081146136bd576040519150601f19603f3d011682016040523d82523d6000602084013e6136c2565b606091505b50600081511415613708576040517f08c379a00000000000000000000000000000000000000000000000000000000081526004016136ff9061544c565b60405180910390fd5b805181602001fd5b63150b7a0260e01b7bffffffffffffffffffffffffffffffffffffffffffffffffffffffff1916817bffffffffffffffffffffffffffffffffffffffffffffffffffffffff191614915050613765565b600190505b949350505050565b61377783836137db565b61378460008484846135d6565b6137c3576040517f08c379a00000000000000000000000000000000000000000000000000000000081526004016137ba9061544c565b60405180910390fd5b505050565b600080823b905060008111915050919050565b600073ffffffffffffffffffffffffffffffffffffffff168273ffffffffffffffffffffffffffffffffffffffff16141561384b576040517f08c379a00000000000000000000000000000000000000000000000000000000081526004016138429061556c565b60405180910390fd5b613854816125c0565b15613894576040517f08c379a000000000000000000000000000000000000000000000000000000000815260040161388b9061548c565b60405180910390fd5b6138a0600083836132d1565b6001600360008473ffffffffffffffffffffffffffffffffffffffff1673ffffffffffffffffffffffffffffffffffffffff16815260200190815260200160002060008282546138f09190615879565b92505081905550816002600083815260200190815260200160002060006101000a81548173ffffffffffffffffffffffffffffffffffffffff021916908373ffffffffffffffffffffffffffffffffffffffff160217905550808273ffffffffffffffffffffffffffffffffffffffff16600073ffffffffffffffffffffffffffffffffffffffff167fddf252ad1be2c89b69c2b068fc378daa952ba7f163c4a11628f55a4df523b3ef60405160405180910390a45050565b8280546139b590615ae4565b90600052602060002090601f0160209004810192826139d75760008555613a1e565b82601f106139f057805160ff1916838001178555613a1e565b82800160010185558215613a1e579182015b82811115613a1d578251825591602001919060010190613a02565b5b509050613a2b9190613b18565b5090565b828054828255906000526020600020908101928215613abe579160200282015b82811115613abd57823573ffffffffffffffffffffffffffffffffffffffff168260006101000a81548173ffffffffffffffffffffffffffffffffffffffff021916908373ffffffffffffffffffffffffffffffffffffffff16021790555091602001919060010190613a4f565b5b509050613acb9190613b18565b5090565b5080546000825590600052602060002090810190613aed9190613b18565b50565b6040518061010001604052806008905b6060815260200190600190039081613b005790505090565b5b80821115613b31576000816000905550600101613b19565b5090565b6000613b48613b4384615733565b615702565b90508083825260208201905082856020860282011115613b6757600080fd5b60005b85811015613b975781613b7d8882613e0c565b845260208401935060208301925050600181019050613b6a565b5050509392505050565b6000613bb4613baf8461575f565b615702565b905082815260208101848484011115613bcc57600080fd5b613bd7848285615a78565b509392505050565b6000613bf2613bed8461578f565b615702565b905082815260208101848484011115613c0a57600080fd5b613c15848285615a87565b509392505050565b600081359050613c2c81615cc2565b92915050565b600081519050613c4181615cc2565b92915050565b60008083601f840112613c5957600080fd5b8235905067ffffffffffffffff811115613c7257600080fd5b602083019150836020820283011115613c8a57600080fd5b9250929050565b60008083601f840112613ca357600080fd5b8235905067ffffffffffffffff811115613cbc57600080fd5b602083019150836020820283011115613cd457600080fd5b9250929050565b600082601f830112613cec57600080fd5b8151613cfc848260208601613b35565b91505092915050565b600081359050613d1481615cd9565b92915050565b600081359050613d2981615cf0565b92915050565b600081519050613d3e81615cf0565b92915050565b600082601f830112613d5557600080fd5b8135613d65848260208601613ba1565b91505092915050565b60008083601f840112613d8057600080fd5b8235905067ffffffffffffffff811115613d9957600080fd5b602083019150836001820283011115613db157600080fd5b9250929050565b600082601f830112613dc957600080fd5b8151613dd9848260208601613bdf565b91505092915050565b600081359050613df181615d07565b92915050565b600081359050613e0681615d1e565b92915050565b600081519050613e1b81615d1e565b92915050565b600060208284031215613e3357600080fd5b6000613e4184828501613c1d565b91505092915050565b600060208284031215613e5c57600080fd5b6000613e6a84828501613c32565b91505092915050565b60008060408385031215613e8657600080fd5b6000613e9485828601613c1d565b9250506020613ea585828601613c1d565b9150509250929050565b600080600060608486031215613ec457600080fd5b6000613ed286828701613c1d565b9350506020613ee386828701613c1d565b9250506040613ef486828701613df7565b9150509250925092565b60008060008060808587031215613f1457600080fd5b6000613f2287828801613c1d565b9450506020613f3387828801613c1d565b9350506040613f4487828801613df7565b925050606085013567ffffffffffffffff811115613f6157600080fd5b613f6d87828801613d44565b91505092959194509250565b60008060408385031215613f8c57600080fd5b6000613f9a85828601613c1d565b9250506020613fab85828601613d05565b9150509250929050565b600080600060408486031215613fca57600080fd5b6000613fd886828701613c1d565b935050602084013567ffffffffffffffff811115613ff557600080fd5b61400186828701613d6e565b92509250509250925092565b6000806040838503121561402057600080fd5b600061402e85828601613c1d565b925050602061403f85828601613df7565b9150509250929050565b60008060006040848603121561405e57600080fd5b600084013567ffffffffffffffff81111561407857600080fd5b61408486828701613c47565b9350935050602061409786828701613de2565b9150509250925092565b600080602083850312156140b457600080fd5b600083013567ffffffffffffffff8111156140ce57600080fd5b6140da85828601613c91565b92509250509250929050565b6000602082840312156140f857600080fd5b600082015167ffffffffffffffff81111561411257600080fd5b61411e84828501613cdb565b91505092915050565b60006020828403121561413957600080fd5b600061414784828501613d05565b91505092915050565b60006020828403121561416257600080fd5b600061417084828501613d1a565b91505092915050565b60006020828403121561418b57600080fd5b600061419984828501613d2f565b91505092915050565b6000602082840312156141b457600080fd5b600082015167ffffffffffffffff8111156141ce57600080fd5b6141da84828501613db8565b91505092915050565b600080600080608085870312156141f957600080fd5b600085015167ffffffffffffffff81111561421357600080fd5b61421f87828801613db8565b945050602085015167ffffffffffffffff81111561423c57600080fd5b61424887828801613db8565b935050604085015167ffffffffffffffff81111561426557600080fd5b61427187828801613db8565b925050606085015167ffffffffffffffff81111561428e57600080fd5b61429a87828801613db8565b91505092959194509250565b600080604083850312156142b957600080fd5b60006142c785828601613de2565b92505060206142d885828601613df7565b9150509250929050565b6000602082840312156142f457600080fd5b600061430284828501613df7565b91505092915050565b60006143178383614359565b60208301905092915050565b600061432f838361509d565b60208301905092915050565b614344816159ae565b82525050565b614353816159ae565b82525050565b614362816159ae565b82525050565b6000614373826157e4565b61437d818561582a565b9350614388836157bf565b8060005b838110156143c05761439d82615c91565b6143a7888261430b565b97506143b283615810565b92505060018101905061438c565b5085935050505092915050565b60006143d8826157ef565b6143e2818561583b565b93506143ed836157d4565b8060005b8381101561441e5781516144058882614323565b97506144108361581d565b9250506001810190506143f1565b5085935050505092915050565b614434816159c0565b82525050565b6000614445826157fa565b61444f818561584c565b935061445f818560208601615a87565b61446881615ca4565b840191505092915050565b61447c81615a30565b82525050565b61448b81615a54565b82525050565b61449a81615a66565b82525050565b60006144ab82615805565b6144b5818561585d565b93506144c5818560208601615a87565b6144ce81615ca4565b840191505092915050565b60006144e482615805565b6144ee818561586e565b93506144fe818560208601615a87565b80840191505092915050565b600061451760148361585d565b91507f43616e2774206d696e7420746f6b656e207965740000000000000000000000006000830152602082019050919050565b600061455760168361586e565b91507f222c20226465736372697074696f6e223a202222202c000000000000000000006000830152601682019050919050565b6000614597602b8361585d565b91507f455243373231456e756d657261626c653a206f776e657220696e646578206f7560008301527f74206f6620626f756e64730000000000000000000000000000000000000000006020830152604082019050919050565b60006145fd60328361585d565b91507f4552433732313a207472616e7366657220746f206e6f6e20455243373231526560008301527f63656976657220696d706c656d656e74657200000000000000000000000000006020830152604082019050919050565b600061466360268361585d565b91507f4f776e61626c653a206e6577206f776e657220697320746865207a65726f206160008301527f64647265737300000000000000000000000000000000000000000000000000006020830152604082019050919050565b60006146c9601c8361585d565b91507f4552433732313a20746f6b656e20616c7265616479206d696e746564000000006000830152602082019050919050565b600061470960088361586e565b91507f676f74746f6b656e0000000000000000000000000000000000000000000000006000830152600882019050919050565b600061474960248361585d565b91507f4552433732313a207472616e7366657220746f20746865207a65726f2061646460008301527f72657373000000000000000000000000000000000000000000000000000000006020830152604082019050919050565b60006147af60198361585d565b91507f4552433732313a20617070726f766520746f2063616c6c6572000000000000006000830152602082019050919050565b60006147ef60258361586e565b91507f2022696d616765223a2022646174613a696d6167652f7376672b786d6c3b626160008301527f736536342c0000000000000000000000000000000000000000000000000000006020830152602582019050919050565b6000614855602c8361585d565b91507f4552433732313a206f70657261746f7220717565727920666f72206e6f6e657860008301527f697374656e7420746f6b656e00000000000000000000000000000000000000006020830152604082019050919050565b60006148bb60078361586e565b91507f6f67636f6c6f72000000000000000000000000000000000000000000000000006000830152600782019050919050565b60006148fb60388361585d565b91507f4552433732313a20617070726f76652063616c6c6572206973206e6f74206f7760008301527f6e6572206e6f7220617070726f76656420666f7220616c6c00000000000000006020830152604082019050919050565b6000614961602a8361585d565b91507f4552433732313a2062616c616e636520717565727920666f7220746865207a6560008301527f726f2061646472657373000000000000000000000000000000000000000000006020830152604082019050919050565b60006149c760298361585d565b91507f4552433732313a206f776e657220717565727920666f72206e6f6e657869737460008301527f656e7420746f6b656e00000000000000000000000000000000000000000000006020830152604082019050919050565b6000614a2d60028361586e565b91507f227d0000000000000000000000000000000000000000000000000000000000006000830152600282019050919050565b6000614a6d60208361585d565b91507f4552433732313a206d696e7420746f20746865207a65726f20616464726573736000830152602082019050919050565b6000614aad602c8361585d565b91507f4552433732313a20617070726f76656420717565727920666f72206e6f6e657860008301527f697374656e7420746f6b656e00000000000000000000000000000000000000006020830152604082019050919050565b6000614b1360208361585d565b91507f4f776e61626c653a2063616c6c6572206973206e6f7420746865206f776e65726000830152602082019050919050565b6000614b5360298361585d565b91507f4552433732313a207472616e73666572206f6620746f6b656e2074686174206960008301527f73206e6f74206f776e00000000000000000000000000000000000000000000006020830152604082019050919050565b6000614bb960108361585d565b91507f546f6b656e20496420696e76616c6964000000000000000000000000000000006000830152602082019050919050565b6000614bf960218361585d565b91507f4552433732313a20617070726f76616c20746f2063757272656e74206f776e6560008301527f72000000000000000000000000000000000000000000000000000000000000006020830152604082019050919050565b6000614c5f601c8361585d565b91507f696e76616c696420626173653634206465636f64657220696e707574000000006000830152602082019050919050565b6000614c9f60028361586e565b91507f2c200000000000000000000000000000000000000000000000000000000000006000830152600282019050919050565b6000614cdf601d8361586e565b91507f646174613a6170706c69636174696f6e2f6a736f6e3b6261736536342c0000006000830152601d82019050919050565b6000614d1f60078361586e565b91507f3c2f646566733e000000000000000000000000000000000000000000000000006000830152600782019050919050565b6000614d5f60ff8361586e565b91507f3c636972636c652063783d27353030272063793d273530302720723d2734353060008301527f272066696c6c3d272346464646464627207374726f6b653d276e6f6e6527202f60208301527f3e3c2f6d61736b3e3c636972636c652063783d27353030272063793d2735303060408301527f2720723d27343530272066696c6c3d2775726c28236261636b2927206d61736b60608301527f3d2775726c28235f6d61736b2927207374726f6b652d77696474683d2731333060808301527f27207374726f6b653d2775726c28236672616d652927207374726f6b652d6c6960a08301527f6e656a6f696e3d276d6974657227207374726f6b652d6c696e656361703d277360c08301527f717561726527207374726f6b652d6d697465726c696d69743d273327202f3e0060e083015260ff82019050919050565b6000614ea960318361585d565b91507f4552433732313a207472616e736665722063616c6c6572206973206e6f74206f60008301527f776e6572206e6f7220617070726f7665640000000000000000000000000000006020830152604082019050919050565b6000614f0f60118361585d565b91507f4d696e74696e67206973207061757365640000000000000000000000000000006000830152602082019050919050565b6000614f4f60068361586e565b91507f3c646566733e00000000000000000000000000000000000000000000000000006000830152600682019050919050565b6000614f8f602c8361585d565b91507f455243373231456e756d657261626c653a20676c6f62616c20696e646578206f60008301527f7574206f6620626f756e647300000000000000000000000000000000000000006020830152604082019050919050565b6000614ff560288361585d565b91507f4d696e74696e67206973206c696d6974656420746f206d61782e20313020706560008301527f722077616c6c65740000000000000000000000000000000000000000000000006020830152604082019050919050565b600061505b600e8361586e565b91507f7b226e616d65223a20224f4720230000000000000000000000000000000000006000830152600e82019050919050565b615097816159f8565b82525050565b6150a681615a26565b82525050565b6150b581615a26565b82525050565b6150c481615a26565b82525050565b60006150d6828b6144d9565b91506150e2828a6144d9565b91506150ee82896144d9565b91506150fa82886144d9565b915061510682876144d9565b915061511282866144d9565b915061511e82856144d9565b915061512a82846144d9565b91508190509998505050505050505050565b600061514882846144d9565b915061515382614c92565b915081905092915050565b6000615169826146fc565b9150819050919050565b600061517e826148ae565b9150819050919050565b600061519382614cd2565b915061519f82846144d9565b915081905092915050565b60006151b582614d52565b9150819050919050565b60006151ca82614f42565b91506151d682876144d9565b91506151e282866144d9565b91506151ee82856144d9565b91506151fa82846144d9565b915061520582614d12565b915081905095945050505050565b600061521e8261504e565b915061522a82866144d9565b91506152358261454a565b915061524182856144d9565b915061524c826147e2565b915061525882846144d9565b915061526382614a20565b9150819050949350505050565b6000602082019050615285600083018461433b565b92915050565b60006080820190506152a0600083018761433b565b6152ad602083018661433b565b6152ba60408301856150ac565b81810360608301526152cc818461443a565b905095945050505050565b600060208201905081810360008301526152f181846143cd565b905092915050565b600060208201905061530e600083018461442b565b92915050565b60006080820190506153296000830187614473565b615336602083018661434a565b81810360408301526153488185614368565b905061535760608301846150bb565b95945050505050565b60006060820190506153756000830186614473565b615382602083018561434a565b61538f60408301846150bb565b949350505050565b600060a0820190506153ac6000830188614473565b6153b9602083018761508e565b6153c66040830186614491565b6153d36060830185614482565b6153e060808301846150bb565b9695505050505050565b6000602082019050818103600083015261540481846144a0565b905092915050565b600060208201905081810360008301526154258161450a565b9050919050565b600060208201905081810360008301526154458161458a565b9050919050565b60006020820190508181036000830152615465816145f0565b9050919050565b6000602082019050818103600083015261548581614656565b9050919050565b600060208201905081810360008301526154a5816146bc565b9050919050565b600060208201905081810360008301526154c58161473c565b9050919050565b600060208201905081810360008301526154e5816147a2565b9050919050565b6000602082019050818103600083015261550581614848565b9050919050565b60006020820190508181036000830152615525816148ee565b9050919050565b6000602082019050818103600083015261554581614954565b9050919050565b60006020820190508181036000830152615565816149ba565b9050919050565b6000602082019050818103600083015261558581614a60565b9050919050565b600060208201905081810360008301526155a581614aa0565b9050919050565b600060208201905081810360008301526155c581614b06565b9050919050565b600060208201905081810360008301526155e581614b46565b9050919050565b6000602082019050818103600083015261560581614bac565b9050919050565b6000602082019050818103600083015261562581614bec565b9050919050565b6000602082019050818103600083015261564581614c52565b9050919050565b6000602082019050818103600083015261566581614e9c565b9050919050565b6000602082019050818103600083015261568581614f02565b9050919050565b600060208201905081810360008301526156a581614f82565b9050919050565b600060208201905081810360008301526156c581614fe8565b9050919050565b60006020820190506156e160008301846150bb565b92915050565b60006020820190506156fc60008301846150ac565b92915050565b6000604051905081810181811067ffffffffffffffff8211171561572957615728615c62565b5b8060405250919050565b600067ffffffffffffffff82111561574e5761574d615c62565b5b602082029050602081019050919050565b600067ffffffffffffffff82111561577a57615779615c62565b5b601f19601f8301169050602081019050919050565b600067ffffffffffffffff8211156157aa576157a9615c62565b5b601f19601f8301169050602081019050919050565b60008190508160005260206000209050919050565b6000819050602082019050919050565b600081549050919050565b600081519050919050565b600081519050919050565b600081519050919050565b6000600182019050919050565b6000602082019050919050565b600082825260208201905092915050565b600082825260208201905092915050565b600082825260208201905092915050565b600082825260208201905092915050565b600081905092915050565b600061588482615a26565b915061588f83615a26565b9250827fffffffffffffffffffffffffffffffffffffffffffffffffffffffffffffffff038211156158c4576158c3615bd5565b5b828201905092915050565b60006158da82615a26565b91506158e583615a26565b9250826158f5576158f4615c04565b5b828204905092915050565b600061590b82615a26565b915061591683615a26565b9250817fffffffffffffffffffffffffffffffffffffffffffffffffffffffffffffffff048311821515161561594f5761594e615bd5565b5b828202905092915050565b600061596582615a26565b915061597083615a26565b92508282101561598357615982615bd5565b5b828203905092915050565b600073ffffffffffffffffffffffffffffffffffffffff82169050919050565b60006159b982615a06565b9050919050565b60008115159050919050565b60007fffffffff0000000000000000000000000000000000000000000000000000000082169050919050565b600061ffff82169050919050565b600073ffffffffffffffffffffffffffffffffffffffff82169050919050565b6000819050919050565b6000615a3b82615a42565b9050919050565b6000615a4d82615a06565b9050919050565b6000615a5f82615a26565b9050919050565b6000615a7182615a26565b9050919050565b82818337600083830152505050565b60005b83811015615aa5578082015181840152602081019050615a8a565b83811115615ab4576000848401525b50505050565b6000615ac582615a26565b91506000821415615ad957615ad8615bd5565b5b600182039050919050565b60006002820490506001821680615afc57607f821691505b60208210811415615b1057615b0f615c33565b5b50919050565b6000615b29615b2483615cb5565b61598e565b9050919050565b6000615b3b826159f8565b915061ffff821415615b5057615b4f615bd5565b5b600182019050919050565b6000615b6682615a26565b91507fffffffffffffffffffffffffffffffffffffffffffffffffffffffffffffffff821415615b9957615b98615bd5565b5b600182019050919050565b6000615baf82615a26565b9150615bba83615a26565b925082615bca57615bc9615c04565b5b828206905092915050565b7f4e487b7100000000000000000000000000000000000000000000000000000000600052601160045260246000fd5b7f4e487b7100000000000000000000000000000000000000000000000000000000600052601260045260246000fd5b7f4e487b7100000000000000000000000000000000000000000000000000000000600052602260045260246000fd5b7f4e487b7100000000000000000000000000000000000000000000000000000000600052604160045260246000fd5b6000615c9d8254615b16565b9050919050565b6000601f19601f8301169050919050565b60008160001c9050919050565b615ccb816159ae565b8114615cd657600080fd5b50565b615ce2816159c0565b8114615ced57600080fd5b50565b615cf9816159cc565b8114615d0457600080fd5b50565b615d10816159f8565b8114615d1b57600080fd5b50565b615d2781615a26565b8114615d3257600080fd5b5056fe3c73766720786d6c6e733d27687474703a2f2f7777772e77332e6f72672f323030302f7376672720786d6c6e733a786c696e6b3d27687474703a2f2f7777772e77332e6f72672f313939392f786c696e6b272077696474683d273130303027206865696768743d2731303030272076696577426f783d2730203020313030302031303030273e4142434445464748494a4b4c4d4e4f505152535455565758595a6162636465666768696a6b6c6d6e6f707172737475767778797a303132333435363738392b2f3c706174682069643d27706174682d302720643d274d203530342e3238203130352e3631342043203830342e313435203130352e353431203939312e363339203433302e313131203834312e373638203638392e3833362043203639312e383938203934392e353633203331372e303637203934392e363535203136372e3037322036393020432032362e383035203434372e313835203138312e333234203134302e313639203435392e393037203130382e3136205a27207374796c653d2766696c6c3a206e6f6e653b272f3e000000000000000000000000000000000000000000000000000000000000000000000000000000000000003e0000003f3435363738393a3b3c3d00000000000000000102030405060708090a0b0c0d0e0f101112131415161718190000000000001a1b1c1d1e1f202122232425262728292a2b2c2d2e2f303132330000000000a2646970667358221220317a586686f70c6cf1abc8fbbbc50aa21188dd633368b5f9cb1f577136a8e32264736f6c63430008000033",
  "immutableReferences": {},
  "source": "/*\r\n\r\n     OOOOOOOOO                  GGGGGGGGGGGGG\r\n   OO:::::::::OO             GGG::::::::::::G\r\n OO:::::::::::::OO         GG:::::::::::::::G\r\nO:::::::OOO:::::::O       G:::::GGGGGGGG::::G\r\nO::::::O   O::::::O      G:::::G       GGGGGG\r\nO:::::O     O:::::O     G:::::G              \r\nO:::::O     O:::::O     G:::::G              \r\nO:::::O     O:::::O     G:::::G    GGGGGGGGGG\r\nO:::::O     O:::::O     G:::::G    G::::::::G\r\nO:::::O     O:::::O     G:::::G    GGGGG::::G\r\nO:::::O     O:::::O     G:::::G        G::::G\r\nO::::::O   O::::::O      G:::::G       G::::G\r\nO:::::::OOO:::::::O       G:::::GGGGGGGG::::G\r\n OO:::::::::::::OO         GG:::::::::::::::G\r\n   OO:::::::::OO             GGG::::::GGG:::G\r\n     OOOOOOOOO                  GGGGGG   GGGG\r\n     \r\n*/\r\n\r\n// SPDX-License-Identifier: MIT\r\n\r\npragma solidity 0.8.0;\r\n\r\nimport \"@openzeppelin/contracts/token/ERC721/ERC721.sol\";\r\nimport \"@openzeppelin/contracts/token/ERC721/extensions/ERC721Enumerable.sol\";\r\nimport '@openzeppelin/contracts/token/ERC20/ERC20.sol';\r\nimport '@openzeppelin/contracts/access/Ownable.sol';\r\nimport '@openzeppelin/contracts/utils/Strings.sol';\r\nimport 'base64-sol/base64.sol';\r\nimport './interfaces/GotTokenInterface.sol';\r\nimport './interfaces/OGColorInterface.sol';\r\nimport './libs/Customizer.sol';\r\nimport './libs/Digits.sol';\r\nimport './ERC/HumbleERC721Enumerable.sol';\r\n\r\n/**\r\n * @title OG\r\n * @author nfttank.eth\r\n */\r\ncontract OG is HumbleERC721Enumerable, Ownable {\r\n\r\n    mapping(address => string) private _supportedSlugs;\r\n    mapping(string => address) private _trustedContracts;\r\n    address[] private _supportedCollections;\r\n    address[] private _ogDozen;\r\n    bool private _paused;\r\n    uint16 private _dozenUnlockMinSupply;\r\n\r\n    constructor() ERC721(\"OG\", \"OG\") Ownable() {\r\n        _trustedContracts[\"gottoken\"] = address(0);\r\n        _trustedContracts[\"ogcolor\"] = address(0);\r\n        _paused = true;\r\n    }\r\n\r\n    function setPaused(bool paused) external onlyOwner {\r\n        _paused = paused;\r\n    }\r\n\r\n    function setOgDozen(address[] calldata ogDozen, uint16 dozenUnlockMinSupply) external onlyOwner {\r\n         _ogDozen = ogDozen;\r\n         _dozenUnlockMinSupply = dozenUnlockMinSupply;\r\n    }\r\n\r\n    function isOgDozen(address a) public view returns (bool) {\r\n        for (uint16 i = 0; i < _ogDozen.length; i++) {\r\n            if (a == _ogDozen[i]) {\r\n                return true;\r\n            }\r\n        }\r\n\r\n        return false;\r\n    }\r\n\r\n    function addSupportedCollection(address contractAddress) external onlyOwner {\r\n         _supportedCollections.push(contractAddress);\r\n    }\r\n\r\n    function clearSupportedCollections() external onlyOwner {\r\n         delete _supportedCollections;\r\n    }\r\n    \r\n    function setSupportedCollectionSlug(address contractAddress, string calldata base64EncodedSvgSlug) external onlyOwner {\r\n        _supportedSlugs[contractAddress] = string(Base64.decode(base64EncodedSvgSlug));\r\n    }\r\n\r\n    function setTrustedContractAddresses(address gotTokenAddress, address ogColorAddress) external onlyOwner {\r\n        _trustedContracts[\"gottoken\"] = gotTokenAddress;\r\n        _trustedContracts[\"ogcolor\"] = ogColorAddress;\r\n    }\r\n    \r\n    function renderSvg(uint256 tokenId) public virtual view returns (string memory) {\r\n        require(tokenId >= 0 && tokenId <= 9999, \"Token Id invalid\");\r\n        \r\n        (string memory back, string memory frame, string memory digit, string memory slug)\r\n            = Customizer.getColors(this, _trustedContracts[\"ogcolor\"], tokenId);\r\n        \r\n        address supportedCollection = Customizer.getOwnedSupportedCollection(this, _trustedContracts[\"gottoken\"], _supportedCollections, tokenId);\r\n        bool hasCollection = supportedCollection != address(0);\r\n\r\n        string[8] memory parts;\r\n\r\n        parts[0] = \"<svg xmlns='http://www.w3.org/2000/svg' xmlns:xlink='http://www.w3.org/1999/xlink' width='1000' height='1000' viewBox='0 0 1000 1000'>\";\r\n        \r\n        // OGColor delivers whole definitions like <linearGradient id='back'><stop stop-color='#FFAAFF'/></linearGradient>\r\n        parts[1] = string(abi.encodePacked(\"<defs>\", back, frame, digit, slug, \"</defs>\"));\r\n        parts[2] = \"<mask id='_mask'>\";\r\n        \r\n        if (hasCollection)\r\n            parts[3] = \"<path id='path-0' d='M 504.28 105.614 C 804.145 105.541 991.639 430.111 841.768 689.836 C 691.898 949.563 317.067 949.655 167.072 690 C 26.805 447.185 181.324 140.169 459.907 108.16 Z' style='fill: none;'/>\";\r\n        else\r\n           parts[3] = \"\";\r\n            \r\n        // don't apply colors on this string, this should be kept white\r\n        parts[4] = string(abi.encodePacked(\"<circle cx='500' cy='500' r='450' fill='#FFFFFF' stroke='none' /></mask><circle cx='500' cy='500' r='450' fill='url(#back)' mask='url(#_mask)' stroke-width='130' stroke='url(#frame)' stroke-linejoin='miter' stroke-linecap='square' stroke-miterlimit='3' />\"));\r\n\r\n        parts[5] = Digits.generateDigits(tokenId);\r\n          \r\n        if (hasCollection)  \r\n            parts[6] = _supportedSlugs[supportedCollection];\r\n        else\r\n            parts[6] = \"\";\r\n            \r\n        parts[7] = \"</svg>\";\r\n        \r\n        return string(abi.encodePacked(parts[0], parts[1], parts[2], parts[3], parts[4], parts[5], parts[6], parts[7]));\r\n    }\r\n    \r\n    function tokenURI(uint256 tokenId) override public view returns (string memory) {\r\n        require(tokenId >= 0 && tokenId <= 9999, \"Token Id invalid\");\r\n    \r\n        string memory attributes = Customizer.getColorAttributes(this, _trustedContracts[\"ogcolor\"], tokenId);\r\n        attributes = bytes(attributes).length > 0 ? string(abi.encodePacked(attributes, \", \")) : \"\";\r\n        string memory json = Base64.encode(bytes(string(abi.encodePacked('{\"name\": \"OG #', Strings.toString(tokenId), '\", \"description\": \"\" ,', attributes, ' \"image\": \"data:image/svg+xml;base64,', Base64.encode(bytes(renderSvg(tokenId))), '\"}'))));\r\n        return string(abi.encodePacked('data:application/json;base64,', json));\r\n    }\r\n\r\n    function mint(uint256[] calldata tokenIds) public {\r\n\r\n        address sender = _msgSender();\r\n        uint256 senderBalance = balanceOf(sender);\r\n\r\n        require(!_paused, \"Minting is paused\");\r\n        require(senderBalance + tokenIds.length <= 10, \"Minting is limited to max. 10 per wallet\");\r\n\r\n        for (uint16 i = 0; i < tokenIds.length; i++) {\r\n            require(tokenIds[i] >= 0 && tokenIds[i] <= 9999, \"Token Id invalid\");\r\n            require(canMint(sender, tokenIds[i]), \"Can't mint token yet\");\r\n        }\r\n\r\n        for (uint16 i = 0; i < tokenIds.length; i++) {\r\n            _safeMint(sender, tokenIds[i]);\r\n        }\r\n    }\r\n\r\n    function canMint(address sender, uint256 tokenId) public view returns (bool) {\r\n\r\n        if (tokenId > 12) {\r\n            return true;\r\n        }\r\n        else if (tokenId <= 12 && tokenId > 1) {\r\n            return totalSupply() >= _dozenUnlockMinSupply && isOgDozen(sender);\r\n        } else if (tokenId == 1) {\r\n            return  _exists(2) &&\r\n                    _exists(3) &&\r\n                    _exists(4) &&\r\n                    _exists(5) &&\r\n                    _exists(6) &&\r\n                    _exists(7) &&\r\n                    _exists(8) &&\r\n                    _exists(9) &&\r\n                    _exists(10) &&\r\n                    _exists(11) &&\r\n                    _exists(12) &&\r\n                    isOgDozen(sender);\r\n        } else {\r\n            return _exists(1);\r\n        }\r\n    }\r\n\r\n    function suggestFreeIds(uint16 desiredCount, uint256 seed) public view returns (uint256[] memory) {\r\n        return Customizer.suggestFreeIds(this, desiredCount, 13, 10000, seed);\r\n    }\r\n}",
  "sourcePath": "D:\\Develop\\GitHub\\OG+\\src\\contracts\\OG.sol",
  "compiler": {
    "name": "solc",
    "version": "0.8.0+commit.c7dfd78e.Emscripten.clang"
  },
  "schemaVersion": "3.4.3",
  "updatedAt": "2022-01-10T20:47:59.894Z",
  "networkType": "ethereum",
  "devdoc": {
    "author": "nfttank.eth",
    "kind": "dev",
    "methods": {
      "approve(address,uint256)": {
        "details": "See {IERC721-approve}."
      },
      "balanceOf(address)": {
        "details": "See {IERC721-balanceOf}."
      },
      "getApproved(uint256)": {
        "details": "See {IERC721-getApproved}."
      },
      "isApprovedForAll(address,address)": {
        "details": "See {IERC721-isApprovedForAll}."
      },
      "name()": {
        "details": "See {IERC721Metadata-name}."
      },
      "owner()": {
        "details": "Returns the address of the current owner."
      },
      "ownerOf(uint256)": {
        "details": "See {IERC721-ownerOf}."
      },
      "renounceOwnership()": {
        "details": "Leaves the contract without owner. It will not be possible to call `onlyOwner` functions anymore. Can only be called by the current owner. NOTE: Renouncing ownership will leave the contract without an owner, thereby removing any functionality that is only available to the owner."
      },
      "safeTransferFrom(address,address,uint256)": {
        "details": "See {IERC721-safeTransferFrom}."
      },
      "safeTransferFrom(address,address,uint256,bytes)": {
        "details": "See {IERC721-safeTransferFrom}."
      },
      "setApprovalForAll(address,bool)": {
        "details": "See {IERC721-setApprovalForAll}."
      },
      "supportsInterface(bytes4)": {
        "details": "See {IERC165-supportsInterface}."
      },
      "symbol()": {
        "details": "See {IERC721Metadata-symbol}."
      },
      "tokenByIndex(uint256)": {
        "details": "See {IERC721Enumerable-tokenByIndex}."
      },
      "tokenOfOwnerByIndex(address,uint256)": {
        "details": "See {IERC721Enumerable-tokenOfOwnerByIndex}."
      },
      "tokenURI(uint256)": {
        "details": "See {IERC721Metadata-tokenURI}."
      },
      "totalSupply()": {
        "details": "See {IERC721Enumerable-totalSupply}."
      },
      "transferFrom(address,address,uint256)": {
        "details": "See {IERC721-transferFrom}."
      },
      "transferOwnership(address)": {
        "details": "Transfers ownership of the contract to a new account (`newOwner`). Can only be called by the current owner."
      }
    },
    "title": "OG",
    "version": 1
  },
  "userdoc": {
    "kind": "user",
    "methods": {},
    "version": 1
  }
}