{
  "contractName": "OG",
  "abi": [
    {
      "inputs": [],
      "stateMutability": "nonpayable",
      "type": "constructor"
    },
    {
      "anonymous": false,
      "inputs": [
        {
          "indexed": true,
          "internalType": "address",
          "name": "owner",
          "type": "address"
        },
        {
          "indexed": true,
          "internalType": "address",
          "name": "approved",
          "type": "address"
        },
        {
          "indexed": true,
          "internalType": "uint256",
          "name": "tokenId",
          "type": "uint256"
        }
      ],
      "name": "Approval",
      "type": "event"
    },
    {
      "anonymous": false,
      "inputs": [
        {
          "indexed": true,
          "internalType": "address",
          "name": "owner",
          "type": "address"
        },
        {
          "indexed": true,
          "internalType": "address",
          "name": "operator",
          "type": "address"
        },
        {
          "indexed": false,
          "internalType": "bool",
          "name": "approved",
          "type": "bool"
        }
      ],
      "name": "ApprovalForAll",
      "type": "event"
    },
    {
      "anonymous": false,
      "inputs": [
        {
          "indexed": true,
          "internalType": "address",
          "name": "previousOwner",
          "type": "address"
        },
        {
          "indexed": true,
          "internalType": "address",
          "name": "newOwner",
          "type": "address"
        }
      ],
      "name": "OwnershipTransferred",
      "type": "event"
    },
    {
      "anonymous": false,
      "inputs": [
        {
          "indexed": true,
          "internalType": "address",
          "name": "from",
          "type": "address"
        },
        {
          "indexed": true,
          "internalType": "address",
          "name": "to",
          "type": "address"
        },
        {
          "indexed": true,
          "internalType": "uint256",
          "name": "tokenId",
          "type": "uint256"
        }
      ],
      "name": "Transfer",
      "type": "event"
    },
    {
      "inputs": [
        {
          "internalType": "address",
          "name": "to",
          "type": "address"
        },
        {
          "internalType": "uint256",
          "name": "tokenId",
          "type": "uint256"
        }
      ],
      "name": "approve",
      "outputs": [],
      "stateMutability": "nonpayable",
      "type": "function"
    },
    {
      "inputs": [
        {
          "internalType": "address",
          "name": "owner",
          "type": "address"
        }
      ],
      "name": "balanceOf",
      "outputs": [
        {
          "internalType": "uint256",
          "name": "",
          "type": "uint256"
        }
      ],
      "stateMutability": "view",
      "type": "function",
      "constant": true
    },
    {
      "inputs": [
        {
          "internalType": "uint256",
          "name": "tokenId",
          "type": "uint256"
        }
      ],
      "name": "getApproved",
      "outputs": [
        {
          "internalType": "address",
          "name": "",
          "type": "address"
        }
      ],
      "stateMutability": "view",
      "type": "function",
      "constant": true
    },
    {
      "inputs": [
        {
          "internalType": "address",
          "name": "owner",
          "type": "address"
        },
        {
          "internalType": "address",
          "name": "operator",
          "type": "address"
        }
      ],
      "name": "isApprovedForAll",
      "outputs": [
        {
          "internalType": "bool",
          "name": "",
          "type": "bool"
        }
      ],
      "stateMutability": "view",
      "type": "function",
      "constant": true
    },
    {
      "inputs": [],
      "name": "name",
      "outputs": [
        {
          "internalType": "string",
          "name": "",
          "type": "string"
        }
      ],
      "stateMutability": "view",
      "type": "function",
      "constant": true
    },
    {
      "inputs": [],
      "name": "owner",
      "outputs": [
        {
          "internalType": "address",
          "name": "",
          "type": "address"
        }
      ],
      "stateMutability": "view",
      "type": "function",
      "constant": true
    },
    {
      "inputs": [
        {
          "internalType": "uint256",
          "name": "tokenId",
          "type": "uint256"
        }
      ],
      "name": "ownerOf",
      "outputs": [
        {
          "internalType": "address",
          "name": "",
          "type": "address"
        }
      ],
      "stateMutability": "view",
      "type": "function",
      "constant": true
    },
    {
      "inputs": [],
      "name": "renounceOwnership",
      "outputs": [],
      "stateMutability": "nonpayable",
      "type": "function"
    },
    {
      "inputs": [
        {
          "internalType": "address",
          "name": "from",
          "type": "address"
        },
        {
          "internalType": "address",
          "name": "to",
          "type": "address"
        },
        {
          "internalType": "uint256",
          "name": "tokenId",
          "type": "uint256"
        }
      ],
      "name": "safeTransferFrom",
      "outputs": [],
      "stateMutability": "nonpayable",
      "type": "function"
    },
    {
      "inputs": [
        {
          "internalType": "address",
          "name": "from",
          "type": "address"
        },
        {
          "internalType": "address",
          "name": "to",
          "type": "address"
        },
        {
          "internalType": "uint256",
          "name": "tokenId",
          "type": "uint256"
        },
        {
          "internalType": "bytes",
          "name": "_data",
          "type": "bytes"
        }
      ],
      "name": "safeTransferFrom",
      "outputs": [],
      "stateMutability": "nonpayable",
      "type": "function"
    },
    {
      "inputs": [
        {
          "internalType": "address",
          "name": "operator",
          "type": "address"
        },
        {
          "internalType": "bool",
          "name": "approved",
          "type": "bool"
        }
      ],
      "name": "setApprovalForAll",
      "outputs": [],
      "stateMutability": "nonpayable",
      "type": "function"
    },
    {
      "inputs": [
        {
          "internalType": "bytes4",
          "name": "interfaceId",
          "type": "bytes4"
        }
      ],
      "name": "supportsInterface",
      "outputs": [
        {
          "internalType": "bool",
          "name": "",
          "type": "bool"
        }
      ],
      "stateMutability": "view",
      "type": "function",
      "constant": true
    },
    {
      "inputs": [],
      "name": "symbol",
      "outputs": [
        {
          "internalType": "string",
          "name": "",
          "type": "string"
        }
      ],
      "stateMutability": "view",
      "type": "function",
      "constant": true
    },
    {
      "inputs": [
        {
          "internalType": "uint256",
          "name": "index",
          "type": "uint256"
        }
      ],
      "name": "tokenByIndex",
      "outputs": [
        {
          "internalType": "uint256",
          "name": "",
          "type": "uint256"
        }
      ],
      "stateMutability": "view",
      "type": "function",
      "constant": true
    },
    {
      "inputs": [
        {
          "internalType": "address",
          "name": "owner",
          "type": "address"
        },
        {
          "internalType": "uint256",
          "name": "index",
          "type": "uint256"
        }
      ],
      "name": "tokenOfOwnerByIndex",
      "outputs": [
        {
          "internalType": "uint256",
          "name": "tokenId",
          "type": "uint256"
        }
      ],
      "stateMutability": "view",
      "type": "function",
      "constant": true
    },
    {
      "inputs": [],
      "name": "totalSupply",
      "outputs": [
        {
          "internalType": "uint256",
          "name": "",
          "type": "uint256"
        }
      ],
      "stateMutability": "view",
      "type": "function",
      "constant": true
    },
    {
      "inputs": [
        {
          "internalType": "address",
          "name": "from",
          "type": "address"
        },
        {
          "internalType": "address",
          "name": "to",
          "type": "address"
        },
        {
          "internalType": "uint256",
          "name": "tokenId",
          "type": "uint256"
        }
      ],
      "name": "transferFrom",
      "outputs": [],
      "stateMutability": "nonpayable",
      "type": "function"
    },
    {
      "inputs": [
        {
          "internalType": "address",
          "name": "newOwner",
          "type": "address"
        }
      ],
      "name": "transferOwnership",
      "outputs": [],
      "stateMutability": "nonpayable",
      "type": "function"
    },
    {
      "inputs": [
        {
          "internalType": "bool",
          "name": "paused",
          "type": "bool"
        }
      ],
      "name": "setPaused",
      "outputs": [],
      "stateMutability": "nonpayable",
      "type": "function"
    },
    {
      "inputs": [
        {
          "internalType": "address[]",
          "name": "ogDozen",
          "type": "address[]"
        },
        {
          "internalType": "uint16",
          "name": "dozenUnlockMinSupply",
          "type": "uint16"
        }
      ],
      "name": "setOgDozen",
      "outputs": [],
      "stateMutability": "nonpayable",
      "type": "function"
    },
    {
      "inputs": [
        {
          "internalType": "address",
          "name": "a",
          "type": "address"
        }
      ],
      "name": "isOgDozen",
      "outputs": [
        {
          "internalType": "bool",
          "name": "",
          "type": "bool"
        }
      ],
      "stateMutability": "view",
      "type": "function",
      "constant": true
    },
    {
      "inputs": [
        {
          "internalType": "address",
          "name": "contractAddress",
          "type": "address"
        }
      ],
      "name": "addSupportedCollection",
      "outputs": [],
      "stateMutability": "nonpayable",
      "type": "function"
    },
    {
      "inputs": [],
      "name": "clearSupportedCollections",
      "outputs": [],
      "stateMutability": "nonpayable",
      "type": "function"
    },
    {
      "inputs": [
        {
          "internalType": "address",
          "name": "contractAddress",
          "type": "address"
        },
        {
          "internalType": "string",
          "name": "base64EncodedSvgSlug",
          "type": "string"
        }
      ],
      "name": "setSupportedCollectionSlug",
      "outputs": [],
      "stateMutability": "nonpayable",
      "type": "function"
    },
    {
      "inputs": [
        {
          "internalType": "address",
          "name": "gotTokenAddress",
          "type": "address"
        },
        {
          "internalType": "address",
          "name": "ogColorAddress",
          "type": "address"
        }
      ],
      "name": "setTrustedContractAddresses",
      "outputs": [],
      "stateMutability": "nonpayable",
      "type": "function"
    },
    {
      "inputs": [
        {
          "internalType": "uint256",
          "name": "tokenId",
          "type": "uint256"
        }
      ],
      "name": "renderSvg",
      "outputs": [
        {
          "internalType": "string",
          "name": "",
          "type": "string"
        }
      ],
      "stateMutability": "view",
      "type": "function",
      "constant": true
    },
    {
      "inputs": [
        {
          "internalType": "uint256",
          "name": "tokenId",
          "type": "uint256"
        }
      ],
      "name": "tokenURI",
      "outputs": [
        {
          "internalType": "string",
          "name": "",
          "type": "string"
        }
      ],
      "stateMutability": "view",
      "type": "function",
      "constant": true
    },
    {
      "inputs": [
        {
          "internalType": "uint256[]",
          "name": "tokenIds",
          "type": "uint256[]"
        }
      ],
      "name": "mint",
      "outputs": [],
      "stateMutability": "nonpayable",
      "type": "function"
    },
    {
      "inputs": [
        {
          "internalType": "address",
          "name": "sender",
          "type": "address"
        },
        {
          "internalType": "uint256",
          "name": "tokenId",
          "type": "uint256"
        }
      ],
      "name": "canMint",
      "outputs": [
        {
          "internalType": "bool",
          "name": "",
          "type": "bool"
        }
      ],
      "stateMutability": "view",
      "type": "function",
      "constant": true
    },
    {
      "inputs": [
        {
          "internalType": "uint16",
          "name": "desiredCount",
          "type": "uint16"
        },
        {
          "internalType": "uint256",
          "name": "seed",
          "type": "uint256"
        }
      ],
      "name": "suggestFreeIds",
      "outputs": [
        {
          "internalType": "uint256[]",
          "name": "",
          "type": "uint256[]"
        }
      ],
      "stateMutability": "view",
      "type": "function",
      "constant": true
    }
  ],
  "bytecode": "0x60806040523480156200001157600080fd5b506040518060400160405280600281526020017f4f470000000000000000000000000000000000000000000000000000000000008152506040518060400160405280600281526020017f4f470000000000000000000000000000000000000000000000000000000000008152508160009080519060200190620000969291906200027d565b508060019080519060200190620000af9291906200027d565b505050620000d2620000c6620001af60201b60201c565b620001b760201b60201c565b6000600a604051620000e490620003b1565b908152602001604051809103902060006101000a81548173ffffffffffffffffffffffffffffffffffffffff021916908373ffffffffffffffffffffffffffffffffffffffff1602179055506000600a6040516200014290620003c8565b908152602001604051809103902060006101000a81548173ffffffffffffffffffffffffffffffffffffffff021916908373ffffffffffffffffffffffffffffffffffffffff1602179055506001600d60006101000a81548160ff0219169083151502179055506200044f565b600033905090565b6000600860009054906101000a900473ffffffffffffffffffffffffffffffffffffffff16905081600860006101000a81548173ffffffffffffffffffffffffffffffffffffffff021916908373ffffffffffffffffffffffffffffffffffffffff1602179055508173ffffffffffffffffffffffffffffffffffffffff168173ffffffffffffffffffffffffffffffffffffffff167f8be0079c531659141344cd1fd0a4f28419497f9722a3daafe3b4186f6b6457e060405160405180910390a35050565b8280546200028b90620003ea565b90600052602060002090601f016020900481019282620002af5760008555620002fb565b82601f10620002ca57805160ff1916838001178555620002fb565b82800160010185558215620002fb579182015b82811115620002fa578251825591602001919060010190620002dd565b5b5090506200030a91906200030e565b5090565b5b80821115620003295760008160009055506001016200030f565b5090565b60006200033c600883620003df565b91507f676f74746f6b656e0000000000000000000000000000000000000000000000006000830152600882019050919050565b60006200037e600783620003df565b91507f6f67636f6c6f72000000000000000000000000000000000000000000000000006000830152600782019050919050565b6000620003be826200032d565b9150819050919050565b6000620003d5826200036f565b9150819050919050565b600081905092915050565b600060028204905060018216806200040357607f821691505b602082108114156200041a576200041962000420565b5b50919050565b7f4e487b7100000000000000000000000000000000000000000000000000000000600052602260045260246000fd5b615f9a806200045f6000396000f3fe608060405234801561001057600080fd5b50600436106101da5760003560e01c806363cc771611610104578063bf1fe7e7116100a2578063f2fde38b11610071578063f2fde38b14610577578063f8e93ef914610593578063fb397aff146105af578063fd5ad319146105cb576101da565b8063bf1fe7e7146104dd578063c87b56dd1461050d578063e985e9c51461053d578063edd39ab51461056d576101da565b80638da5cb5b116100de5780638da5cb5b1461046957806395d89b4114610487578063a22cb465146104a5578063b88d4fde146104c1576101da565b806363cc77161461041357806370a082311461042f578063715018a61461045f576101da565b806323b872dd1161017c5780634f6ccce71161014b5780634f6ccce714610367578063506d9e2b1461039757806353321817146103c75780636352211e146103e3576101da565b806323b872dd146102e35780632f745c59146102ff57806342842e0e1461032f5780634e2e46d71461034b576101da565b8063095ea7b3116101b8578063095ea7b31461025d5780630d5e34a41461027957806316c38b3c146102a957806318160ddd146102c5576101da565b806301ffc9a7146101df57806306fdde031461020f578063081812fc1461022d575b600080fd5b6101f960048036038101906101f4919061403c565b6105fb565b604051610206919061533f565b60405180910390f35b610217610675565b6040516102249190615430565b60405180910390f35b610247600480360381019061024291906141ce565b610707565b60405161025491906152b6565b60405180910390f35b61027760048036038101906102729190613ef9565b61078c565b005b610293600480360381019061028e9190613ef9565b6108a4565b6040516102a0919061533f565b60405180910390f35b6102c360048036038101906102be9190614013565b6109f7565b005b6102cd610a90565b6040516102da919061572d565b60405180910390f35b6102fd60048036038101906102f89190613d9b565b610a9a565b005b61031960048036038101906103149190613ef9565b610afa565b604051610326919061572d565b60405180910390f35b61034960048036038101906103449190613d9b565b610bd0565b005b61036560048036038101906103609190613d0d565b610bf0565b005b610381600480360381019061037c91906141ce565b610cd2565b60405161038e919061572d565b60405180910390f35b6103b160048036038101906103ac9190614192565b610d20565b6040516103be919061531d565b60405180910390f35b6103e160048036038101906103dc9190613ea1565b610dc1565b005b6103fd60048036038101906103f891906141ce565b610ee2565b60405161040a91906152b6565b60405180910390f35b61042d60048036038101906104289190613f35565b610f94565b005b61044960048036038101906104449190613d0d565b611044565b604051610456919061572d565b60405180910390f35b6104676110fc565b005b610471611184565b60405161047e91906152b6565b60405180910390f35b61048f6111ae565b60405161049c9190615430565b60405180910390f35b6104bf60048036038101906104ba9190613e65565b611240565b005b6104db60048036038101906104d69190613dea565b611256565b005b6104f760048036038101906104f29190613d0d565b6112b8565b604051610504919061533f565b60405180910390f35b610527600480360381019061052291906141ce565b611395565b6040516105349190615430565b60405180910390f35b61055760048036038101906105529190613d5f565b611457565b604051610564919061533f565b60405180910390f35b6105756114eb565b005b610591600480360381019061058c9190613d0d565b611577565b005b6105ad60048036038101906105a89190613f8d565b61166f565b005b6105c960048036038101906105c49190613d5f565b61192d565b005b6105e560048036038101906105e091906141ce565b611a63565b6040516105f29190615430565b60405180910390f35b60007f780e9d63000000000000000000000000000000000000000000000000000000007bffffffffffffffffffffffffffffffffffffffffffffffffffffffff1916827bffffffffffffffffffffffffffffffffffffffffffffffffffffffff1916148061066e575061066d826123ca565b5b9050919050565b60606000805461068490615b2a565b80601f01602080910402602001604051908101604052809291908181526020018280546106b090615b2a565b80156106fd5780601f106106d2576101008083540402835291602001916106fd565b820191906000526020600020905b8154815290600101906020018083116106e057829003601f168201915b5050505050905090565b6000610712826124ac565b610751576040517f08c379a0000000000000000000000000000000000000000000000000000000008152600401610748906155d2565b60405180910390fd5b6004600083815260200190815260200160002060009054906101000a900473ffffffffffffffffffffffffffffffffffffffff169050919050565b600061079782610ee2565b90508073ffffffffffffffffffffffffffffffffffffffff168373ffffffffffffffffffffffffffffffffffffffff161415610808576040517f08c379a00000000000000000000000000000000000000000000000000000000081526004016107ff90615652565b60405180910390fd5b8073ffffffffffffffffffffffffffffffffffffffff16610827612518565b73ffffffffffffffffffffffffffffffffffffffff161480610856575061085581610850612518565b611457565b5b610895576040517f08c379a000000000000000000000000000000000000000000000000000000000815260040161088c90615552565b60405180910390fd5b61089f8383612520565b505050565b6000600c8211156108b857600190506109f1565b600c82111580156108c95750600182115b1561090557600d60019054906101000a900461ffff1661ffff166108eb610a90565b101580156108fe57506108fd836112b8565b5b90506109f1565b60018214156109e45761091860026124ac565b801561092a575061092960036124ac565b5b801561093c575061093b60046124ac565b5b801561094e575061094d60056124ac565b5b8015610960575061095f60066124ac565b5b8015610972575061097160076124ac565b5b8015610984575061098360086124ac565b5b8015610996575061099560096124ac565b5b80156109a857506109a7600a6124ac565b5b80156109ba57506109b9600b6124ac565b5b80156109cc57506109cb600c6124ac565b5b80156109dd57506109dc836112b8565b5b90506109f1565b6109ee60016124ac565b90505b92915050565b6109ff612518565b73ffffffffffffffffffffffffffffffffffffffff16610a1d611184565b73ffffffffffffffffffffffffffffffffffffffff1614610a73576040517f08c379a0000000000000000000000000000000000000000000000000000000008152600401610a6a906155f2565b60405180910390fd5b80600d60006101000a81548160ff02191690831515021790555050565b6000600754905090565b610aab610aa5612518565b826125d9565b610aea576040517f08c379a0000000000000000000000000000000000000000000000000000000008152600401610ae190615692565b60405180910390fd5b610af58383836126b7565b505050565b6000610b0583611044565b8210610b46576040517f08c379a0000000000000000000000000000000000000000000000000000000008152600401610b3d90615472565b60405180910390fd5b600660008473ffffffffffffffffffffffffffffffffffffffff1673ffffffffffffffffffffffffffffffffffffffff1681526020019081526020016000208281548110610bbd577f4e487b7100000000000000000000000000000000000000000000000000000000600052603260045260246000fd5b9060005260206000200154905092915050565b610beb83838360405180602001604052806000815250611256565b505050565b610bf8612518565b73ffffffffffffffffffffffffffffffffffffffff16610c16611184565b73ffffffffffffffffffffffffffffffffffffffff1614610c6c576040517f08c379a0000000000000000000000000000000000000000000000000000000008152600401610c63906155f2565b60405180910390fd5b600b819080600181540180825580915050600190039060005260206000200160009091909190916101000a81548173ffffffffffffffffffffffffffffffffffffffff021916908373ffffffffffffffffffffffffffffffffffffffff16021790555050565b60006007548210610d18576040517f08c379a0000000000000000000000000000000000000000000000000000000008152600401610d0f906156d2565b60405180910390fd5b819050919050565b606073__Customizer____________________________637af8c19b3085600d612710876040518663ffffffff1660e01b8152600401610d649594939291906153dd565b60006040518083038186803b158015610d7c57600080fd5b505af4158015610d90573d6000803e3d6000fd5b505050506040513d6000823e3d601f19601f82011682018060405250810190610db99190613fd2565b905092915050565b610dc9612518565b73ffffffffffffffffffffffffffffffffffffffff16610de7611184565b73ffffffffffffffffffffffffffffffffffffffff1614610e3d576040517f08c379a0000000000000000000000000000000000000000000000000000000008152600401610e34906155f2565b60405180910390fd5b610e8a82828080601f016020809104026020016040519081016040528093929190818152602001838380828437600081840152601f19601f82011690508083019250505050505050612913565b600960008573ffffffffffffffffffffffffffffffffffffffff1673ffffffffffffffffffffffffffffffffffffffff1681526020019081526020016000209080519060200190610edc929190613895565b50505050565b6000806002600084815260200190815260200160002060009054906101000a900473ffffffffffffffffffffffffffffffffffffffff169050600073ffffffffffffffffffffffffffffffffffffffff168173ffffffffffffffffffffffffffffffffffffffff161415610f8b576040517f08c379a0000000000000000000000000000000000000000000000000000000008152600401610f8290615592565b60405180910390fd5b80915050919050565b610f9c612518565b73ffffffffffffffffffffffffffffffffffffffff16610fba611184565b73ffffffffffffffffffffffffffffffffffffffff1614611010576040517f08c379a0000000000000000000000000000000000000000000000000000000008152600401611007906155f2565b60405180910390fd5b8282600c919061102192919061391b565b5080600d60016101000a81548161ffff021916908361ffff160217905550505050565b60008073ffffffffffffffffffffffffffffffffffffffff168273ffffffffffffffffffffffffffffffffffffffff1614156110b5576040517f08c379a00000000000000000000000000000000000000000000000000000000081526004016110ac90615572565b60405180910390fd5b600360008373ffffffffffffffffffffffffffffffffffffffff1673ffffffffffffffffffffffffffffffffffffffff168152602001908152602001600020549050919050565b611104612518565b73ffffffffffffffffffffffffffffffffffffffff16611122611184565b73ffffffffffffffffffffffffffffffffffffffff1614611178576040517f08c379a000000000000000000000000000000000000000000000000000000000815260040161116f906155f2565b60405180910390fd5b6111826000612b5a565b565b6000600860009054906101000a900473ffffffffffffffffffffffffffffffffffffffff16905090565b6060600180546111bd90615b2a565b80601f01602080910402602001604051908101604052809291908181526020018280546111e990615b2a565b80156112365780601f1061120b57610100808354040283529160200191611236565b820191906000526020600020905b81548152906001019060200180831161121957829003601f168201915b5050505050905090565b61125261124b612518565b8383612c20565b5050565b611267611261612518565b836125d9565b6112a6576040517f08c379a000000000000000000000000000000000000000000000000000000000815260040161129d90615692565b60405180910390fd5b6112b284848484612d8d565b50505050565b600080600090505b600c805490508161ffff16101561138a57600c8161ffff168154811061130f577f4e487b7100000000000000000000000000000000000000000000000000000000600052603260045260246000fd5b9060005260206000200160009054906101000a900473ffffffffffffffffffffffffffffffffffffffff1673ffffffffffffffffffffffffffffffffffffffff168373ffffffffffffffffffffffffffffffffffffffff161415611377576001915050611390565b808061138290615b76565b9150506112c0565b50600090505b919050565b6060600082101580156113aa575061270f8211155b6113e9576040517f08c379a00000000000000000000000000000000000000000000000000000000081526004016113e090615632565b60405180910390fd5b600061142d6113f784612de9565b61140861140386611a63565b612f96565b6040516020016114199291906151fc565b604051602081830303815290604052612f96565b90508060405160200161144091906151da565b604051602081830303815290604052915050919050565b6000600560008473ffffffffffffffffffffffffffffffffffffffff1673ffffffffffffffffffffffffffffffffffffffff16815260200190815260200160002060008373ffffffffffffffffffffffffffffffffffffffff1673ffffffffffffffffffffffffffffffffffffffff16815260200190815260200160002060009054906101000a900460ff16905092915050565b6114f3612518565b73ffffffffffffffffffffffffffffffffffffffff16611511611184565b73ffffffffffffffffffffffffffffffffffffffff1614611567576040517f08c379a000000000000000000000000000000000000000000000000000000000815260040161155e906155f2565b60405180910390fd5b600b600061157591906139bb565b565b61157f612518565b73ffffffffffffffffffffffffffffffffffffffff1661159d611184565b73ffffffffffffffffffffffffffffffffffffffff16146115f3576040517f08c379a00000000000000000000000000000000000000000000000000000000081526004016115ea906155f2565b60405180910390fd5b600073ffffffffffffffffffffffffffffffffffffffff168173ffffffffffffffffffffffffffffffffffffffff161415611663576040517f08c379a000000000000000000000000000000000000000000000000000000000815260040161165a906154b2565b60405180910390fd5b61166c81612b5a565b50565b6000611679612518565b9050600061168682611044565b9050600d60009054906101000a900460ff16156116d8576040517f08c379a00000000000000000000000000000000000000000000000000000000081526004016116cf906156b2565b60405180910390fd5b600a84849050826116e991906158bf565b111561172a576040517f08c379a0000000000000000000000000000000000000000000000000000000008152600401611721906156f2565b60405180910390fd5b60005b848490508161ffff1610156118b357600085858361ffff1681811061177b577f4e487b7100000000000000000000000000000000000000000000000000000000600052603260045260246000fd5b90506020020135101580156117d5575061270f85858361ffff168181106117cb577f4e487b7100000000000000000000000000000000000000000000000000000000600052603260045260246000fd5b9050602002013511155b611814576040517f08c379a000000000000000000000000000000000000000000000000000000000815260040161180b90615632565b60405180910390fd5b6118618386868461ffff16818110611855577f4e487b7100000000000000000000000000000000000000000000000000000000600052603260045260246000fd5b905060200201356108a4565b6118a0576040517f08c379a000000000000000000000000000000000000000000000000000000000815260040161189790615452565b60405180910390fd5b80806118ab90615b76565b91505061172d565b5060005b848490508161ffff161015611926576119138386868461ffff16818110611907577f4e487b7100000000000000000000000000000000000000000000000000000000600052603260045260246000fd5b90506020020135613135565b808061191e90615b76565b9150506118b7565b5050505050565b611935612518565b73ffffffffffffffffffffffffffffffffffffffff16611953611184565b73ffffffffffffffffffffffffffffffffffffffff16146119a9576040517f08c379a00000000000000000000000000000000000000000000000000000000081526004016119a0906155f2565b60405180910390fd5b81600a6040516119b89061519b565b908152602001604051809103902060006101000a81548173ffffffffffffffffffffffffffffffffffffffff021916908373ffffffffffffffffffffffffffffffffffffffff16021790555080600a604051611a13906151c5565b908152602001604051809103902060006101000a81548173ffffffffffffffffffffffffffffffffffffffff021916908373ffffffffffffffffffffffffffffffffffffffff1602179055505050565b606060008210158015611a78575061270f8211155b611ab7576040517f08c379a0000000000000000000000000000000000000000000000000000000008152600401611aae90615632565b60405180910390fd5b60008060008073__Customizer____________________________63bda93c9a30600a604051611ae6906151c5565b908152602001604051809103902060009054906101000a900473ffffffffffffffffffffffffffffffffffffffff16896040518463ffffffff1660e01b8152600401611b34939291906153a6565b60006040518083038186803b158015611b4c57600080fd5b505af4158015611b60573d6000803e3d6000fd5b505050506040513d6000823e3d601f19601f82011682018060405250810190611b8991906140cf565b9350935093509350600073__Customizer____________________________637308eca430600a604051611bbc9061519b565b908152602001604051809103902060009054906101000a900473ffffffffffffffffffffffffffffffffffffffff16600b8b6040518563ffffffff1660e01b8152600401611c0d949392919061535a565b60206040518083038186803b158015611c2557600080fd5b505af4158015611c39573d6000803e3d6000fd5b505050506040513d601f19601f82011682018060405250810190611c5d9190613d36565b905060008073ffffffffffffffffffffffffffffffffffffffff168273ffffffffffffffffffffffffffffffffffffffff1614159050611c9b6139dc565b6040518060800160405280605b8152602001615f0a605b913981600060088110611cee577f4e487b7100000000000000000000000000000000000000000000000000000000600052603260045260246000fd5b602002018190525086868686604051602001611d0d9493929190615241565b60405160208183030381529060405281600160088110611d56577f4e487b7100000000000000000000000000000000000000000000000000000000600052603260045260246000fd5b60200201819052506040518060400160405280601181526020017f3c6d61736b2069643d275f6d61736b273e00000000000000000000000000000081525081600260088110611dce577f4e487b7100000000000000000000000000000000000000000000000000000000600052603260045260246000fd5b60200201819052508115611e3d5760405180610100016040528060ce8152602001615dbc60ce913981600360088110611e30577f4e487b7100000000000000000000000000000000000000000000000000000000600052603260045260246000fd5b6020020181905250611e90565b6040518060200160405280600081525081600360088110611e87577f4e487b7100000000000000000000000000000000000000000000000000000000600052603260045260246000fd5b60200201819052505b604051602001611e9f906151b0565b60405160208183030381529060405281600460088110611ee8577f4e487b7100000000000000000000000000000000000000000000000000000000600052603260045260246000fd5b602002018190525073__Digits________________________________63f1fb19db8a6040518263ffffffff1660e01b8152600401611f279190615712565b60006040518083038186803b158015611f3f57600080fd5b505af4158015611f53573d6000803e3d6000fd5b505050506040513d6000823e3d601f19601f82011682018060405250810190611f7c919061408e565b81600560088110611fb6577f4e487b7100000000000000000000000000000000000000000000000000000000600052603260045260246000fd5b602002018190525081156120d357600960008473ffffffffffffffffffffffffffffffffffffffff1673ffffffffffffffffffffffffffffffffffffffff168152602001908152602001600020805461200e90615b2a565b80601f016020809104026020016040519081016040528092919081815260200182805461203a90615b2a565b80156120875780601f1061205c57610100808354040283529160200191612087565b820191906000526020600020905b81548152906001019060200180831161206a57829003601f168201915b5050505050816006600881106120c6577f4e487b7100000000000000000000000000000000000000000000000000000000600052603260045260246000fd5b6020020181905250612126565b604051806020016040528060008152508160066008811061211d577f4e487b7100000000000000000000000000000000000000000000000000000000600052603260045260246000fd5b60200201819052505b6040518060400160405280600681526020017f3c2f7376673e000000000000000000000000000000000000000000000000000081525081600760088110612196577f4e487b7100000000000000000000000000000000000000000000000000000000600052603260045260246000fd5b6020020181905250806000600881106121d8577f4e487b7100000000000000000000000000000000000000000000000000000000600052603260045260246000fd5b602002015181600160088110612217577f4e487b7100000000000000000000000000000000000000000000000000000000600052603260045260246000fd5b602002015182600260088110612256577f4e487b7100000000000000000000000000000000000000000000000000000000600052603260045260246000fd5b602002015183600360088110612295577f4e487b7100000000000000000000000000000000000000000000000000000000600052603260045260246000fd5b6020020151846004600881106122d4577f4e487b7100000000000000000000000000000000000000000000000000000000600052603260045260246000fd5b602002015185600560088110612313577f4e487b7100000000000000000000000000000000000000000000000000000000600052603260045260246000fd5b602002015186600660088110612352577f4e487b7100000000000000000000000000000000000000000000000000000000600052603260045260246000fd5b602002015187600760088110612391577f4e487b7100000000000000000000000000000000000000000000000000000000600052603260045260246000fd5b60200201516040516020016123ad989796959493929190615129565b604051602081830303815290604052975050505050505050919050565b60007f80ac58cd000000000000000000000000000000000000000000000000000000007bffffffffffffffffffffffffffffffffffffffffffffffffffffffff1916827bffffffffffffffffffffffffffffffffffffffffffffffffffffffff1916148061249557507f5b5e139f000000000000000000000000000000000000000000000000000000007bffffffffffffffffffffffffffffffffffffffffffffffffffffffff1916827bffffffffffffffffffffffffffffffffffffffffffffffffffffffff1916145b806124a557506124a482613153565b5b9050919050565b60008073ffffffffffffffffffffffffffffffffffffffff166002600084815260200190815260200160002060009054906101000a900473ffffffffffffffffffffffffffffffffffffffff1673ffffffffffffffffffffffffffffffffffffffff1614159050919050565b600033905090565b816004600083815260200190815260200160002060006101000a81548173ffffffffffffffffffffffffffffffffffffffff021916908373ffffffffffffffffffffffffffffffffffffffff160217905550808273ffffffffffffffffffffffffffffffffffffffff1661259383610ee2565b73ffffffffffffffffffffffffffffffffffffffff167f8c5be1e5ebec7d5bd14f71427d1e84f3dd0314c0f7b2291e5b200ac8c7c3b92560405160405180910390a45050565b60006125e4826124ac565b612623576040517f08c379a000000000000000000000000000000000000000000000000000000000815260040161261a90615532565b60405180910390fd5b600061262e83610ee2565b90508073ffffffffffffffffffffffffffffffffffffffff168473ffffffffffffffffffffffffffffffffffffffff16148061269d57508373ffffffffffffffffffffffffffffffffffffffff1661268584610707565b73ffffffffffffffffffffffffffffffffffffffff16145b806126ae57506126ad8185611457565b5b91505092915050565b8273ffffffffffffffffffffffffffffffffffffffff166126d782610ee2565b73ffffffffffffffffffffffffffffffffffffffff161461272d576040517f08c379a000000000000000000000000000000000000000000000000000000000815260040161272490615612565b60405180910390fd5b600073ffffffffffffffffffffffffffffffffffffffff168273ffffffffffffffffffffffffffffffffffffffff16141561279d576040517f08c379a0000000000000000000000000000000000000000000000000000000008152600401612794906154f2565b60405180910390fd5b6127a88383836131bd565b6127b3600082612520565b6001600360008573ffffffffffffffffffffffffffffffffffffffff1673ffffffffffffffffffffffffffffffffffffffff168152602001908152602001600020600082825461280391906159a0565b925050819055506001600360008473ffffffffffffffffffffffffffffffffffffffff1673ffffffffffffffffffffffffffffffffffffffff168152602001908152602001600020600082825461285a91906158bf565b92505081905550816002600083815260200190815260200160002060006101000a81548173ffffffffffffffffffffffffffffffffffffffff021916908373ffffffffffffffffffffffffffffffffffffffff160217905550808273ffffffffffffffffffffffffffffffffffffffff168473ffffffffffffffffffffffffffffffffffffffff167fddf252ad1be2c89b69c2b068fc378daa952ba7f163c4a11628f55a4df523b3ef60405160405180910390a4505050565b606060008290506000815114156129a057600067ffffffffffffffff811115612965577f4e487b7100000000000000000000000000000000000000000000000000000000600052604160045260246000fd5b6040519080825280601f01601f1916602001820160405280156129975781602001600182028036833780820191505090505b50915050612b55565b6000600482516129b09190615bea565b146129f0576040517f08c379a00000000000000000000000000000000000000000000000000000000081526004016129e790615672565b60405180910390fd5b60006040518060a0016040528060808152602001615e8a6080913990506000600360048451612a1f9190615915565b612a299190615946565b90506000602082612a3a91906158bf565b67ffffffffffffffff811115612a79577f4e487b7100000000000000000000000000000000000000000000000000000000600052604160045260246000fd5b6040519080825280601f01601f191660200182016040528015612aab5781602001600182028036833780820191505090505b5090508351840151603d60ff82161415612adb57600183039250613d3d61ffff82161415612ada576001830392505b5b828252600184018586518101602085015b81831015612b4857600483019250825160ff8082168601511660ff808360081c168701511660061b0160ff808360101c1687015116600c1b60ff808460181c168801511660121b01018060e81b83526003830192505050612aec565b5050505050809450505050505b919050565b6000600860009054906101000a900473ffffffffffffffffffffffffffffffffffffffff16905081600860006101000a81548173ffffffffffffffffffffffffffffffffffffffff021916908373ffffffffffffffffffffffffffffffffffffffff1602179055508173ffffffffffffffffffffffffffffffffffffffff168173ffffffffffffffffffffffffffffffffffffffff167f8be0079c531659141344cd1fd0a4f28419497f9722a3daafe3b4186f6b6457e060405160405180910390a35050565b8173ffffffffffffffffffffffffffffffffffffffff168373ffffffffffffffffffffffffffffffffffffffff161415612c8f576040517f08c379a0000000000000000000000000000000000000000000000000000000008152600401612c8690615512565b60405180910390fd5b80600560008573ffffffffffffffffffffffffffffffffffffffff1673ffffffffffffffffffffffffffffffffffffffff16815260200190815260200160002060008473ffffffffffffffffffffffffffffffffffffffff1673ffffffffffffffffffffffffffffffffffffffff16815260200190815260200160002060006101000a81548160ff0219169083151502179055508173ffffffffffffffffffffffffffffffffffffffff168373ffffffffffffffffffffffffffffffffffffffff167f17307eab39ab6107e8899845ad3d59bd9653f200f220920489ca2b5937696c3183604051612d80919061533f565b60405180910390a3505050565b612d988484846126b7565b612da4848484846134c2565b612de3576040517f08c379a0000000000000000000000000000000000000000000000000000000008152600401612dda90615492565b60405180910390fd5b50505050565b60606000821415612e31576040518060400160405280600181526020017f30000000000000000000000000000000000000000000000000000000000000008152509050612f91565b600082905060005b60008214612e63578080612e4c90615ba1565b915050600a82612e5c9190615915565b9150612e39565b60008167ffffffffffffffff811115612ea5577f4e487b7100000000000000000000000000000000000000000000000000000000600052604160045260246000fd5b6040519080825280601f01601f191660200182016040528015612ed75781602001600182028036833780820191505090505b5090505b60008514612f8a57600182612ef091906159a0565b9150600a85612eff9190615bea565b6030612f0b91906158bf565b60f81b818381518110612f47577f4e487b7100000000000000000000000000000000000000000000000000000000600052603260045260246000fd5b60200101907effffffffffffffffffffffffffffffffffffffffffffffffffffffffffffff1916908160001a905350600a85612f839190615915565b9450612edb565b8093505050505b919050565b6060600082511415612fb957604051806020016040528060008152509050613130565b6000604051806060016040528060408152602001615d7c6040913990506000600360028551612fe891906158bf565b612ff29190615915565b6004612ffe9190615946565b9050600060208261300f91906158bf565b67ffffffffffffffff81111561304e577f4e487b7100000000000000000000000000000000000000000000000000000000600052604160045260246000fd5b6040519080825280601f01601f1916602001820160405280156130805781602001600182028036833780820191505090505b509050818152600183018586518101602084015b818310156130ef576003830192508251603f8160121c168501518253600182019150603f81600c1c168501518253600182019150603f8160061c168501518253600182019150603f8116850151825360018201915050613094565b600389510660018114613109576002811461311957613124565b613d3d60f01b6002830352613124565b603d60f81b60018303525b50505050508093505050505b919050565b61314f828260405180602001604052806000815250613659565b5050565b60007f01ffc9a7000000000000000000000000000000000000000000000000000000007bffffffffffffffffffffffffffffffffffffffffffffffffffffffff1916827bffffffffffffffffffffffffffffffffffffffffffffffffffffffff1916149050919050565b60008073ffffffffffffffffffffffffffffffffffffffff168473ffffffffffffffffffffffffffffffffffffffff1614905060008073ffffffffffffffffffffffffffffffffffffffff168473ffffffffffffffffffffffffffffffffffffffff161480613259575061dead73ffffffffffffffffffffffffffffffffffffffff168473ffffffffffffffffffffffffffffffffffffffff16145b90508161340c576000600660008773ffffffffffffffffffffffffffffffffffffffff1673ffffffffffffffffffffffffffffffffffffffff168152602001908152602001600020905060005b81805490508161ffff1610156134095784828261ffff16815481106132f4577f4e487b7100000000000000000000000000000000000000000000000000000000600052603260045260246000fd5b906000526020600020015414156133f657816001838054905061331791906159a0565b8154811061334e577f4e487b7100000000000000000000000000000000000000000000000000000000600052603260045260246000fd5b9060005260206000200154828261ffff1681548110613396577f4e487b7100000000000000000000000000000000000000000000000000000000600052603260045260246000fd5b9060005260206000200181905550818054806133db577f4e487b7100000000000000000000000000000000000000000000000000000000600052603160045260246000fd5b60019003818190600052602060002001600090559055613409565b808061340190615b76565b9150506132a6565b50505b8061347857600660008573ffffffffffffffffffffffffffffffffffffffff1673ffffffffffffffffffffffffffffffffffffffff1681526020019081526020016000208390806001815401808255809150506001900390600052602060002001600090919091909150555b811561349b576007600081548092919061349190615ba1565b91905055506134bb565b80156134ba57600760008154809291906134b490615b00565b91905055505b5b5050505050565b60006134e38473ffffffffffffffffffffffffffffffffffffffff166136b4565b1561364c578373ffffffffffffffffffffffffffffffffffffffff1663150b7a0261350c612518565b8786866040518563ffffffff1660e01b815260040161352e94939291906152d1565b602060405180830381600087803b15801561354857600080fd5b505af192505050801561357957506040513d601f19601f820116820180604052508101906135769190614065565b60015b6135fc573d80600081146135a9576040519150601f19603f3d011682016040523d82523d6000602084013e6135ae565b606091505b506000815114156135f4576040517f08c379a00000000000000000000000000000000000000000000000000000000081526004016135eb90615492565b60405180910390fd5b805181602001fd5b63150b7a0260e01b7bffffffffffffffffffffffffffffffffffffffffffffffffffffffff1916817bffffffffffffffffffffffffffffffffffffffffffffffffffffffff191614915050613651565b600190505b949350505050565b61366383836136c7565b61367060008484846134c2565b6136af576040517f08c379a00000000000000000000000000000000000000000000000000000000081526004016136a690615492565b60405180910390fd5b505050565b600080823b905060008111915050919050565b600073ffffffffffffffffffffffffffffffffffffffff168273ffffffffffffffffffffffffffffffffffffffff161415613737576040517f08c379a000000000000000000000000000000000000000000000000000000000815260040161372e906155b2565b60405180910390fd5b613740816124ac565b15613780576040517f08c379a0000000000000000000000000000000000000000000000000000000008152600401613777906154d2565b60405180910390fd5b61378c600083836131bd565b6001600360008473ffffffffffffffffffffffffffffffffffffffff1673ffffffffffffffffffffffffffffffffffffffff16815260200190815260200160002060008282546137dc91906158bf565b92505081905550816002600083815260200190815260200160002060006101000a81548173ffffffffffffffffffffffffffffffffffffffff021916908373ffffffffffffffffffffffffffffffffffffffff160217905550808273ffffffffffffffffffffffffffffffffffffffff16600073ffffffffffffffffffffffffffffffffffffffff167fddf252ad1be2c89b69c2b068fc378daa952ba7f163c4a11628f55a4df523b3ef60405160405180910390a45050565b8280546138a190615b2a565b90600052602060002090601f0160209004810192826138c3576000855561390a565b82601f106138dc57805160ff191683800117855561390a565b8280016001018555821561390a579182015b828111156139095782518255916020019190600101906138ee565b5b5090506139179190613a04565b5090565b8280548282559060005260206000209081019282156139aa579160200282015b828111156139a957823573ffffffffffffffffffffffffffffffffffffffff168260006101000a81548173ffffffffffffffffffffffffffffffffffffffff021916908373ffffffffffffffffffffffffffffffffffffffff1602179055509160200191906001019061393b565b5b5090506139b79190613a04565b5090565b50805460008255906000526020600020908101906139d99190613a04565b50565b6040518061010001604052806008905b60608152602001906001900390816139ec5790505090565b5b80821115613a1d576000816000905550600101613a05565b5090565b6000613a34613a2f84615779565b615748565b90508083825260208201905082856020860282011115613a5357600080fd5b60005b85811015613a835781613a698882613cf8565b845260208401935060208301925050600181019050613a56565b5050509392505050565b6000613aa0613a9b846157a5565b615748565b905082815260208101848484011115613ab857600080fd5b613ac3848285615abe565b509392505050565b6000613ade613ad9846157d5565b615748565b905082815260208101848484011115613af657600080fd5b613b01848285615acd565b509392505050565b600081359050613b1881615d08565b92915050565b600081519050613b2d81615d08565b92915050565b60008083601f840112613b4557600080fd5b8235905067ffffffffffffffff811115613b5e57600080fd5b602083019150836020820283011115613b7657600080fd5b9250929050565b60008083601f840112613b8f57600080fd5b8235905067ffffffffffffffff811115613ba857600080fd5b602083019150836020820283011115613bc057600080fd5b9250929050565b600082601f830112613bd857600080fd5b8151613be8848260208601613a21565b91505092915050565b600081359050613c0081615d1f565b92915050565b600081359050613c1581615d36565b92915050565b600081519050613c2a81615d36565b92915050565b600082601f830112613c4157600080fd5b8135613c51848260208601613a8d565b91505092915050565b60008083601f840112613c6c57600080fd5b8235905067ffffffffffffffff811115613c8557600080fd5b602083019150836001820283011115613c9d57600080fd5b9250929050565b600082601f830112613cb557600080fd5b8151613cc5848260208601613acb565b91505092915050565b600081359050613cdd81615d4d565b92915050565b600081359050613cf281615d64565b92915050565b600081519050613d0781615d64565b92915050565b600060208284031215613d1f57600080fd5b6000613d2d84828501613b09565b91505092915050565b600060208284031215613d4857600080fd5b6000613d5684828501613b1e565b91505092915050565b60008060408385031215613d7257600080fd5b6000613d8085828601613b09565b9250506020613d9185828601613b09565b9150509250929050565b600080600060608486031215613db057600080fd5b6000613dbe86828701613b09565b9350506020613dcf86828701613b09565b9250506040613de086828701613ce3565b9150509250925092565b60008060008060808587031215613e0057600080fd5b6000613e0e87828801613b09565b9450506020613e1f87828801613b09565b9350506040613e3087828801613ce3565b925050606085013567ffffffffffffffff811115613e4d57600080fd5b613e5987828801613c30565b91505092959194509250565b60008060408385031215613e7857600080fd5b6000613e8685828601613b09565b9250506020613e9785828601613bf1565b9150509250929050565b600080600060408486031215613eb657600080fd5b6000613ec486828701613b09565b935050602084013567ffffffffffffffff811115613ee157600080fd5b613eed86828701613c5a565b92509250509250925092565b60008060408385031215613f0c57600080fd5b6000613f1a85828601613b09565b9250506020613f2b85828601613ce3565b9150509250929050565b600080600060408486031215613f4a57600080fd5b600084013567ffffffffffffffff811115613f6457600080fd5b613f7086828701613b33565b93509350506020613f8386828701613cce565b9150509250925092565b60008060208385031215613fa057600080fd5b600083013567ffffffffffffffff811115613fba57600080fd5b613fc685828601613b7d565b92509250509250929050565b600060208284031215613fe457600080fd5b600082015167ffffffffffffffff811115613ffe57600080fd5b61400a84828501613bc7565b91505092915050565b60006020828403121561402557600080fd5b600061403384828501613bf1565b91505092915050565b60006020828403121561404e57600080fd5b600061405c84828501613c06565b91505092915050565b60006020828403121561407757600080fd5b600061408584828501613c1b565b91505092915050565b6000602082840312156140a057600080fd5b600082015167ffffffffffffffff8111156140ba57600080fd5b6140c684828501613ca4565b91505092915050565b600080600080608085870312156140e557600080fd5b600085015167ffffffffffffffff8111156140ff57600080fd5b61410b87828801613ca4565b945050602085015167ffffffffffffffff81111561412857600080fd5b61413487828801613ca4565b935050604085015167ffffffffffffffff81111561415157600080fd5b61415d87828801613ca4565b925050606085015167ffffffffffffffff81111561417a57600080fd5b61418687828801613ca4565b91505092959194509250565b600080604083850312156141a557600080fd5b60006141b385828601613cce565b92505060206141c485828601613ce3565b9150509250929050565b6000602082840312156141e057600080fd5b60006141ee84828501613ce3565b91505092915050565b60006142038383614245565b60208301905092915050565b600061421b83836150fc565b60208301905092915050565b614230816159f4565b82525050565b61423f816159f4565b82525050565b61424e816159f4565b82525050565b600061425f8261582a565b6142698185615870565b935061427483615805565b8060005b838110156142ac5761428982615cd7565b61429388826141f7565b975061429e83615856565b925050600181019050614278565b5085935050505092915050565b60006142c482615835565b6142ce8185615881565b93506142d98361581a565b8060005b8381101561430a5781516142f1888261420f565b97506142fc83615863565b9250506001810190506142dd565b5085935050505092915050565b61432081615a06565b82525050565b600061433182615840565b61433b8185615892565b935061434b818560208601615acd565b61435481615cea565b840191505092915050565b61436881615a76565b82525050565b61437781615a9a565b82525050565b61438681615aac565b82525050565b60006143978261584b565b6143a181856158a3565b93506143b1818560208601615acd565b6143ba81615cea565b840191505092915050565b60006143d08261584b565b6143da81856158b4565b93506143ea818560208601615acd565b80840191505092915050565b60006144036014836158a3565b91507f43616e2774206d696e7420746f6b656e207965740000000000000000000000006000830152602082019050919050565b60006144436046836158b4565b91507f272f3e3c2f6c696e6561724772616469656e743e3c6c696e656172477261646960008301527f656e742069643d276469676974436f6c6f72273e3c73746f702073746f702d6360208301527f6f6c6f723d2700000000000000000000000000000000000000000000000000006040830152604682019050919050565b60006144cf6046836158b4565b91507f272f3e3c2f6c696e6561724772616469656e743e3c6c696e656172477261646960008301527f656e742069643d276672616d65436f6c6f72273e3c73746f702073746f702d6360208301527f6f6c6f723d2700000000000000000000000000000000000000000000000000006040830152604682019050919050565b600061455b602b836158a3565b91507f455243373231456e756d657261626c653a206f776e657220696e646578206f7560008301527f74206f6620626f756e64730000000000000000000000000000000000000000006020830152604082019050919050565b60006145c16032836158a3565b91507f4552433732313a207472616e7366657220746f206e6f6e20455243373231526560008301527f63656976657220696d706c656d656e74657200000000000000000000000000006020830152604082019050919050565b60006146276026836158a3565b91507f4f776e61626c653a206e6577206f776e657220697320746865207a65726f206160008301527f64647265737300000000000000000000000000000000000000000000000000006020830152604082019050919050565b600061468d601c836158a3565b91507f4552433732313a20746f6b656e20616c7265616479206d696e746564000000006000830152602082019050919050565b60006146cd6008836158b4565b91507f676f74746f6b656e0000000000000000000000000000000000000000000000006000830152600882019050919050565b600061470d6045836158b4565b91507f272f3e3c2f6c696e6561724772616469656e743e3c6c696e656172477261646960008301527f656e742069643d27736c7567436f6c6f72273e3c73746f702073746f702d636f60208301527f6c6f723d270000000000000000000000000000000000000000000000000000006040830152604582019050919050565b60006147996024836158a3565b91507f4552433732313a207472616e7366657220746f20746865207a65726f2061646460008301527f72657373000000000000000000000000000000000000000000000000000000006020830152604082019050919050565b60006147ff6019836158a3565b91507f4552433732313a20617070726f766520746f2063616c6c6572000000000000006000830152602082019050919050565b600061483f601b836158b4565b91507f272f3e3c2f6c696e6561724772616469656e743e3c2f646566733e00000000006000830152601b82019050919050565b600061487f602c836158a3565b91507f4552433732313a206f70657261746f7220717565727920666f72206e6f6e657860008301527f697374656e7420746f6b656e00000000000000000000000000000000000000006020830152604082019050919050565b60006148e6610109836158b4565b91507f3c636972636c652063783d27353030272063793d273530302720723d2734353060008301527f272066696c6c3d272346464646464627207374726f6b653d276e6f6e6527202f60208301527f3e3c2f6d61736b3e3c636972636c652063783d27353030272063793d2735303060408301527f2720723d27343530272066696c6c3d2775726c28236261636b436f6c6f72292760608301527f206d61736b3d2775726c28235f6d61736b2927207374726f6b652d776964746860808301527f3d2731333027207374726f6b653d2775726c28236672616d65436f6c6f72292760a08301527f207374726f6b652d6c696e656a6f696e3d276d6974657227207374726f6b652d60c08301527f6c696e656361703d2773717561726527207374726f6b652d6d697465726c696d60e08301527f69743d273327202f3e000000000000000000000000000000000000000000000061010083015261010982019050919050565b6000614a586007836158b4565b91507f6f67636f6c6f72000000000000000000000000000000000000000000000000006000830152600782019050919050565b6000614a986038836158a3565b91507f4552433732313a20617070726f76652063616c6c6572206973206e6f74206f7760008301527f6e6572206e6f7220617070726f76656420666f7220616c6c00000000000000006020830152604082019050919050565b6000614afe602a836158a3565b91507f4552433732313a2062616c616e636520717565727920666f7220746865207a6560008301527f726f2061646472657373000000000000000000000000000000000000000000006020830152604082019050919050565b6000614b646029836158a3565b91507f4552433732313a206f776e657220717565727920666f72206e6f6e657869737460008301527f656e7420746f6b656e00000000000000000000000000000000000000000000006020830152604082019050919050565b6000614bca6002836158b4565b91507f227d0000000000000000000000000000000000000000000000000000000000006000830152600282019050919050565b6000614c0a6020836158a3565b91507f4552433732313a206d696e7420746f20746865207a65726f20616464726573736000830152602082019050919050565b6000614c4a602c836158a3565b91507f4552433732313a20617070726f76656420717565727920666f72206e6f6e657860008301527f697374656e7420746f6b656e00000000000000000000000000000000000000006020830152604082019050919050565b6000614cb06020836158a3565b91507f4f776e61626c653a2063616c6c6572206973206e6f7420746865206f776e65726000830152602082019050919050565b6000614cf06029836158a3565b91507f4552433732313a207472616e73666572206f6620746f6b656e2074686174206960008301527f73206e6f74206f776e00000000000000000000000000000000000000000000006020830152604082019050919050565b6000614d566010836158a3565b91507f546f6b656e20496420696e76616c6964000000000000000000000000000000006000830152602082019050919050565b6000614d966021836158a3565b91507f4552433732313a20617070726f76616c20746f2063757272656e74206f776e6560008301527f72000000000000000000000000000000000000000000000000000000000000006020830152604082019050919050565b6000614dfc601c836158a3565b91507f696e76616c696420626173653634206465636f64657220696e707574000000006000830152602082019050919050565b6000614e3c601d836158b4565b91507f646174613a6170706c69636174696f6e2f6a736f6e3b6261736536342c0000006000830152601d82019050919050565b6000614e7c6031836158a3565b91507f4552433732313a207472616e736665722063616c6c6572206973206e6f74206f60008301527f776e6572206e6f7220617070726f7665640000000000000000000000000000006020830152604082019050919050565b6000614ee26011836158a3565b91507f4d696e74696e67206973207061757365640000000000000000000000000000006000830152602082019050919050565b6000614f22602c836158a3565b91507f455243373231456e756d657261626c653a20676c6f62616c20696e646578206f60008301527f7574206f6620626f756e647300000000000000000000000000000000000000006020830152604082019050919050565b6000614f886028836158a3565b91507f4d696e74696e67206973206c696d6974656420746f206d61782e20313020706560008301527f722077616c6c65740000000000000000000000000000000000000000000000006020830152604082019050919050565b6000614fee600e836158b4565b91507f7b226e616d65223a20224f4720230000000000000000000000000000000000006000830152600e82019050919050565b600061502e6037836158b4565b91507f3c646566733e3c6c696e6561724772616469656e742069643d276261636b436f60008301527f6c6f72273e3c73746f702073746f702d636f6c6f723d270000000000000000006020830152603782019050919050565b6000615094603a836158b4565b91507f222c20226465736372697074696f6e223a2022222c2022696d616765223a202260008301527f646174613a696d6167652f7376672b786d6c3b6261736536342c0000000000006020830152603a82019050919050565b6150f681615a3e565b82525050565b61510581615a6c565b82525050565b61511481615a6c565b82525050565b61512381615a6c565b82525050565b6000615135828b6143c5565b9150615141828a6143c5565b915061514d82896143c5565b915061515982886143c5565b915061516582876143c5565b915061517182866143c5565b915061517d82856143c5565b915061518982846143c5565b91508190509998505050505050505050565b60006151a6826146c0565b9150819050919050565b60006151bb826148d8565b9150819050919050565b60006151d082614a4b565b9150819050919050565b60006151e582614e2f565b91506151f182846143c5565b915081905092915050565b600061520782614fe1565b915061521382856143c5565b915061521e82615087565b915061522a82846143c5565b915061523582614bbd565b91508190509392505050565b600061524c82615021565b915061525882876143c5565b9150615263826144c2565b915061526f82866143c5565b915061527a82614436565b915061528682856143c5565b915061529182614700565b915061529d82846143c5565b91506152a882614832565b915081905095945050505050565b60006020820190506152cb6000830184614227565b92915050565b60006080820190506152e66000830187614227565b6152f36020830186614227565b615300604083018561510b565b81810360608301526153128184614326565b905095945050505050565b6000602082019050818103600083015261533781846142b9565b905092915050565b60006020820190506153546000830184614317565b92915050565b600060808201905061536f600083018761435f565b61537c6020830186614236565b818103604083015261538e8185614254565b905061539d606083018461511a565b95945050505050565b60006060820190506153bb600083018661435f565b6153c86020830185614236565b6153d5604083018461511a565b949350505050565b600060a0820190506153f2600083018861435f565b6153ff60208301876150ed565b61540c604083018661437d565b615419606083018561436e565b615426608083018461511a565b9695505050505050565b6000602082019050818103600083015261544a818461438c565b905092915050565b6000602082019050818103600083015261546b816143f6565b9050919050565b6000602082019050818103600083015261548b8161454e565b9050919050565b600060208201905081810360008301526154ab816145b4565b9050919050565b600060208201905081810360008301526154cb8161461a565b9050919050565b600060208201905081810360008301526154eb81614680565b9050919050565b6000602082019050818103600083015261550b8161478c565b9050919050565b6000602082019050818103600083015261552b816147f2565b9050919050565b6000602082019050818103600083015261554b81614872565b9050919050565b6000602082019050818103600083015261556b81614a8b565b9050919050565b6000602082019050818103600083015261558b81614af1565b9050919050565b600060208201905081810360008301526155ab81614b57565b9050919050565b600060208201905081810360008301526155cb81614bfd565b9050919050565b600060208201905081810360008301526155eb81614c3d565b9050919050565b6000602082019050818103600083015261560b81614ca3565b9050919050565b6000602082019050818103600083015261562b81614ce3565b9050919050565b6000602082019050818103600083015261564b81614d49565b9050919050565b6000602082019050818103600083015261566b81614d89565b9050919050565b6000602082019050818103600083015261568b81614def565b9050919050565b600060208201905081810360008301526156ab81614e6f565b9050919050565b600060208201905081810360008301526156cb81614ed5565b9050919050565b600060208201905081810360008301526156eb81614f15565b9050919050565b6000602082019050818103600083015261570b81614f7b565b9050919050565b6000602082019050615727600083018461511a565b92915050565b6000602082019050615742600083018461510b565b92915050565b6000604051905081810181811067ffffffffffffffff8211171561576f5761576e615ca8565b5b8060405250919050565b600067ffffffffffffffff82111561579457615793615ca8565b5b602082029050602081019050919050565b600067ffffffffffffffff8211156157c0576157bf615ca8565b5b601f19601f8301169050602081019050919050565b600067ffffffffffffffff8211156157f0576157ef615ca8565b5b601f19601f8301169050602081019050919050565b60008190508160005260206000209050919050565b6000819050602082019050919050565b600081549050919050565b600081519050919050565b600081519050919050565b600081519050919050565b6000600182019050919050565b6000602082019050919050565b600082825260208201905092915050565b600082825260208201905092915050565b600082825260208201905092915050565b600082825260208201905092915050565b600081905092915050565b60006158ca82615a6c565b91506158d583615a6c565b9250827fffffffffffffffffffffffffffffffffffffffffffffffffffffffffffffffff0382111561590a57615909615c1b565b5b828201905092915050565b600061592082615a6c565b915061592b83615a6c565b92508261593b5761593a615c4a565b5b828204905092915050565b600061595182615a6c565b915061595c83615a6c565b9250817fffffffffffffffffffffffffffffffffffffffffffffffffffffffffffffffff048311821515161561599557615994615c1b565b5b828202905092915050565b60006159ab82615a6c565b91506159b683615a6c565b9250828210156159c9576159c8615c1b565b5b828203905092915050565b600073ffffffffffffffffffffffffffffffffffffffff82169050919050565b60006159ff82615a4c565b9050919050565b60008115159050919050565b60007fffffffff0000000000000000000000000000000000000000000000000000000082169050919050565b600061ffff82169050919050565b600073ffffffffffffffffffffffffffffffffffffffff82169050919050565b6000819050919050565b6000615a8182615a88565b9050919050565b6000615a9382615a4c565b9050919050565b6000615aa582615a6c565b9050919050565b6000615ab782615a6c565b9050919050565b82818337600083830152505050565b60005b83811015615aeb578082015181840152602081019050615ad0565b83811115615afa576000848401525b50505050565b6000615b0b82615a6c565b91506000821415615b1f57615b1e615c1b565b5b600182039050919050565b60006002820490506001821680615b4257607f821691505b60208210811415615b5657615b55615c79565b5b50919050565b6000615b6f615b6a83615cfb565b6159d4565b9050919050565b6000615b8182615a3e565b915061ffff821415615b9657615b95615c1b565b5b600182019050919050565b6000615bac82615a6c565b91507fffffffffffffffffffffffffffffffffffffffffffffffffffffffffffffffff821415615bdf57615bde615c1b565b5b600182019050919050565b6000615bf582615a6c565b9150615c0083615a6c565b925082615c1057615c0f615c4a565b5b828206905092915050565b7f4e487b7100000000000000000000000000000000000000000000000000000000600052601160045260246000fd5b7f4e487b7100000000000000000000000000000000000000000000000000000000600052601260045260246000fd5b7f4e487b7100000000000000000000000000000000000000000000000000000000600052602260045260246000fd5b7f4e487b7100000000000000000000000000000000000000000000000000000000600052604160045260246000fd5b6000615ce38254615b5c565b9050919050565b6000601f19601f8301169050919050565b60008160001c9050919050565b615d11816159f4565b8114615d1c57600080fd5b50565b615d2881615a06565b8114615d3357600080fd5b50565b615d3f81615a12565b8114615d4a57600080fd5b50565b615d5681615a3e565b8114615d6157600080fd5b50565b615d6d81615a6c565b8114615d7857600080fd5b5056fe4142434445464748494a4b4c4d4e4f505152535455565758595a6162636465666768696a6b6c6d6e6f707172737475767778797a303132333435363738392b2f3c706174682069643d27706174682d302720643d274d203530342e3238203130352e3631342043203830342e313435203130352e353431203939312e363339203433302e313131203834312e373638203638392e3833362043203639312e383938203934392e353633203331372e303637203934392e363535203136372e3037322036393020432032362e383035203434372e313835203138312e333234203134302e313639203435392e393037203130382e3136205a27207374796c653d2766696c6c3a206e6f6e653b272f3e000000000000000000000000000000000000000000000000000000000000000000000000000000000000003e0000003f3435363738393a3b3c3d00000000000000000102030405060708090a0b0c0d0e0f101112131415161718190000000000001a1b1c1d1e1f202122232425262728292a2b2c2d2e2f3031323300000000003c73766720786d6c6e733d27687474703a2f2f7777772e77332e6f72672f323030302f737667272077696474683d273130303027206865696768743d2731303030272076696577426f783d2730203020313030302031303030273ea2646970667358221220ea568099c0743abce4ad0c183eb8220b642b9f56478cab18228b76f57599841a64736f6c63430008000033",
  "immutableReferences": {},
  "source": "/*\r\n\r\n     OOOOOOOOO                  GGGGGGGGGGGGG\r\n   OO:::::::::OO             GGG::::::::::::G\r\n OO:::::::::::::OO         GG:::::::::::::::G\r\nO:::::::OOO:::::::O       G:::::GGGGGGGG::::G\r\nO::::::O   O::::::O      G:::::G       GGGGGG\r\nO:::::O     O:::::O     G:::::G              \r\nO:::::O     O:::::O     G:::::G              \r\nO:::::O     O:::::O     G:::::G    GGGGGGGGGG\r\nO:::::O     O:::::O     G:::::G    G::::::::G\r\nO:::::O     O:::::O     G:::::G    GGGGG::::G\r\nO:::::O     O:::::O     G:::::G        G::::G\r\nO::::::O   O::::::O      G:::::G       G::::G\r\nO:::::::OOO:::::::O       G:::::GGGGGGGG::::G\r\n OO:::::::::::::OO         GG:::::::::::::::G\r\n   OO:::::::::OO             GGG::::::GGG:::G\r\n     OOOOOOOOO                  GGGGGG   GGGG\r\n     \r\n*/\r\n\r\n// SPDX-License-Identifier: MIT\r\n\r\npragma solidity 0.8.0;\r\n\r\nimport \"@openzeppelin/contracts/token/ERC721/ERC721.sol\";\r\nimport \"@openzeppelin/contracts/token/ERC721/extensions/ERC721Enumerable.sol\";\r\nimport '@openzeppelin/contracts/token/ERC20/ERC20.sol';\r\nimport '@openzeppelin/contracts/access/Ownable.sol';\r\nimport '@openzeppelin/contracts/utils/Strings.sol';\r\nimport 'base64-sol/base64.sol';\r\nimport './interfaces/GotTokenInterface.sol';\r\nimport './interfaces/OGColorInterface.sol';\r\nimport './libs/Customizer.sol';\r\nimport './libs/Digits.sol';\r\nimport './ERC/HumbleERC721Enumerable.sol';\r\n\r\n/**\r\n * @title OG\r\n * @author nfttank.eth\r\n */\r\ncontract OG is HumbleERC721Enumerable, Ownable {\r\n\r\n    mapping(address => string) private _supportedSlugs;\r\n    mapping(string => address) private _trustedContracts;\r\n    address[] private _supportedCollections;\r\n    address[] private _ogDozen;\r\n    bool private _paused;\r\n    uint16 private _dozenUnlockMinSupply;\r\n\r\n    constructor() ERC721(\"OG\", \"OG\") Ownable() {\r\n        _trustedContracts[\"gottoken\"] = address(0);\r\n        _trustedContracts[\"ogcolor\"] = address(0);\r\n        _paused = true;\r\n    }\r\n\r\n    function setPaused(bool paused) external onlyOwner {\r\n        _paused = paused;\r\n    }\r\n\r\n    function setOgDozen(address[] calldata ogDozen, uint16 dozenUnlockMinSupply) external onlyOwner {\r\n         _ogDozen = ogDozen;\r\n         _dozenUnlockMinSupply = dozenUnlockMinSupply;\r\n    }\r\n\r\n    function isOgDozen(address a) public view returns (bool) {\r\n        for (uint16 i = 0; i < _ogDozen.length; i++) {\r\n            if (a == _ogDozen[i]) {\r\n                return true;\r\n            }\r\n        }\r\n\r\n        return false;\r\n    }\r\n\r\n    function addSupportedCollection(address contractAddress) external onlyOwner {\r\n         _supportedCollections.push(contractAddress);\r\n    }\r\n\r\n    function clearSupportedCollections() external onlyOwner {\r\n         delete _supportedCollections;\r\n    }\r\n    \r\n    function setSupportedCollectionSlug(address contractAddress, string calldata base64EncodedSvgSlug) external onlyOwner {\r\n        _supportedSlugs[contractAddress] = string(Base64.decode(base64EncodedSvgSlug));\r\n    }\r\n\r\n    function setTrustedContractAddresses(address gotTokenAddress, address ogColorAddress) external onlyOwner {\r\n        _trustedContracts[\"gottoken\"] = gotTokenAddress;\r\n        _trustedContracts[\"ogcolor\"] = ogColorAddress;\r\n    }\r\n    \r\n    function renderSvg(uint256 tokenId) public virtual view returns (string memory) {\r\n        require(tokenId >= 0 && tokenId <= 9999, \"Token Id invalid\");\r\n        \r\n        (string memory backColor, string memory frameColor, string memory digitColor, string memory slugColor)\r\n            = Customizer.getColors(this, _trustedContracts[\"ogcolor\"], tokenId);\r\n        \r\n        address supportedCollection = Customizer.getOwnedSupportedCollection(this, _trustedContracts[\"gottoken\"], _supportedCollections, tokenId);\r\n        bool hasCollection = supportedCollection != address(0);\r\n\r\n        string[8] memory parts;\r\n\r\n        parts[0] = \"<svg xmlns='http://www.w3.org/2000/svg' width='1000' height='1000' viewBox='0 0 1000 1000'>\";\r\n        parts[1] = string(abi.encodePacked(\"<defs><linearGradient id='backColor'><stop stop-color='\", backColor, \"'/></linearGradient><linearGradient id='frameColor'><stop stop-color='\", frameColor, \"'/></linearGradient><linearGradient id='digitColor'><stop stop-color='\", digitColor, \"'/></linearGradient><linearGradient id='slugColor'><stop stop-color='\", slugColor, \"'/></linearGradient></defs>\"));\r\n        parts[2] = \"<mask id='_mask'>\";\r\n        \r\n        if (hasCollection)\r\n            parts[3] = \"<path id='path-0' d='M 504.28 105.614 C 804.145 105.541 991.639 430.111 841.768 689.836 C 691.898 949.563 317.067 949.655 167.072 690 C 26.805 447.185 181.324 140.169 459.907 108.16 Z' style='fill: none;'/>\";\r\n        else\r\n           parts[3] = \"\";\r\n            \r\n        // don't apply colors on this string, this should be kept white\r\n        parts[4] = string(abi.encodePacked(\"<circle cx='500' cy='500' r='450' fill='#FFFFFF' stroke='none' /></mask><circle cx='500' cy='500' r='450' fill='url(#backColor)' mask='url(#_mask)' stroke-width='130' stroke='url(#frameColor)' stroke-linejoin='miter' stroke-linecap='square' stroke-miterlimit='3' />\"));\r\n\r\n        parts[5] = Digits.generateDigits(tokenId);\r\n          \r\n        if (hasCollection)  \r\n            parts[6] = _supportedSlugs[supportedCollection];\r\n        else\r\n            parts[6] = \"\";\r\n            \r\n        parts[7] = \"</svg>\";\r\n        \r\n        return string(abi.encodePacked(parts[0], parts[1], parts[2], parts[3], parts[4], parts[5], parts[6], parts[7]));\r\n    }\r\n    \r\n    function tokenURI(uint256 tokenId) override public view returns (string memory) {\r\n        require(tokenId >= 0 && tokenId <= 9999, \"Token Id invalid\");\r\n    \r\n        string memory json = Base64.encode(bytes(string(abi.encodePacked('{\"name\": \"OG #', Strings.toString(tokenId), '\", \"description\": \"\", \"image\": \"data:image/svg+xml;base64,', Base64.encode(bytes(renderSvg(tokenId))), '\"}'))));\r\n        return string(abi.encodePacked('data:application/json;base64,', json));\r\n    }\r\n\r\n    function mint(uint256[] calldata tokenIds) public {\r\n\r\n        address sender = _msgSender();\r\n        uint256 senderBalance = balanceOf(sender);\r\n\r\n        require(!_paused, \"Minting is paused\");\r\n        require(senderBalance + tokenIds.length <= 10, \"Minting is limited to max. 10 per wallet\");\r\n\r\n        for (uint16 i = 0; i < tokenIds.length; i++) {\r\n            require(tokenIds[i] >= 0 && tokenIds[i] <= 9999, \"Token Id invalid\");\r\n            require(canMint(sender, tokenIds[i]), \"Can't mint token yet\");\r\n        }\r\n\r\n        for (uint16 i = 0; i < tokenIds.length; i++) {\r\n            _safeMint(sender, tokenIds[i]);\r\n        }\r\n    }\r\n\r\n    function canMint(address sender, uint256 tokenId) public view returns (bool) {\r\n\r\n        if (tokenId > 12) {\r\n            return true;\r\n        }\r\n        else if (tokenId <= 12 && tokenId > 1) {\r\n            return totalSupply() >= _dozenUnlockMinSupply && isOgDozen(sender);\r\n        } else if (tokenId == 1) {\r\n            return  _exists(2) &&\r\n                    _exists(3) &&\r\n                    _exists(4) &&\r\n                    _exists(5) &&\r\n                    _exists(6) &&\r\n                    _exists(7) &&\r\n                    _exists(8) &&\r\n                    _exists(9) &&\r\n                    _exists(10) &&\r\n                    _exists(11) &&\r\n                    _exists(12) &&\r\n                    isOgDozen(sender);\r\n        } else {\r\n            return _exists(1);\r\n        }\r\n    }\r\n\r\n    function suggestFreeIds(uint16 desiredCount, uint256 seed) public view returns (uint256[] memory) {\r\n        return Customizer.suggestFreeIds(this, desiredCount, 13, 10000, seed);\r\n    }\r\n}",
  "sourcePath": "D:\\Develop\\GitHub\\OG+\\src\\contracts\\OG.sol",
  "compiler": {
    "name": "solc",
    "version": "0.8.0+commit.c7dfd78e.Emscripten.clang"
  },
  "schemaVersion": "3.4.3",
  "updatedAt": "2022-01-03T18:10:29.290Z",
  "networkType": "ethereum",
  "devdoc": {
    "author": "nfttank.eth",
    "kind": "dev",
    "methods": {
      "approve(address,uint256)": {
        "details": "See {IERC721-approve}."
      },
      "balanceOf(address)": {
        "details": "See {IERC721-balanceOf}."
      },
      "getApproved(uint256)": {
        "details": "See {IERC721-getApproved}."
      },
      "isApprovedForAll(address,address)": {
        "details": "See {IERC721-isApprovedForAll}."
      },
      "name()": {
        "details": "See {IERC721Metadata-name}."
      },
      "owner()": {
        "details": "Returns the address of the current owner."
      },
      "ownerOf(uint256)": {
        "details": "See {IERC721-ownerOf}."
      },
      "renounceOwnership()": {
        "details": "Leaves the contract without owner. It will not be possible to call `onlyOwner` functions anymore. Can only be called by the current owner. NOTE: Renouncing ownership will leave the contract without an owner, thereby removing any functionality that is only available to the owner."
      },
      "safeTransferFrom(address,address,uint256)": {
        "details": "See {IERC721-safeTransferFrom}."
      },
      "safeTransferFrom(address,address,uint256,bytes)": {
        "details": "See {IERC721-safeTransferFrom}."
      },
      "setApprovalForAll(address,bool)": {
        "details": "See {IERC721-setApprovalForAll}."
      },
      "supportsInterface(bytes4)": {
        "details": "See {IERC165-supportsInterface}."
      },
      "symbol()": {
        "details": "See {IERC721Metadata-symbol}."
      },
      "tokenByIndex(uint256)": {
        "details": "See {IERC721Enumerable-tokenByIndex}."
      },
      "tokenOfOwnerByIndex(address,uint256)": {
        "details": "See {IERC721Enumerable-tokenOfOwnerByIndex}."
      },
      "tokenURI(uint256)": {
        "details": "See {IERC721Metadata-tokenURI}."
      },
      "totalSupply()": {
        "details": "See {IERC721Enumerable-totalSupply}."
      },
      "transferFrom(address,address,uint256)": {
        "details": "See {IERC721-transferFrom}."
      },
      "transferOwnership(address)": {
        "details": "Transfers ownership of the contract to a new account (`newOwner`). Can only be called by the current owner."
      }
    },
    "title": "OG",
    "version": 1
  },
  "userdoc": {
    "kind": "user",
    "methods": {},
    "version": 1
  }
}