{
  "contractName": "OG",
  "abi": [
    {
      "inputs": [],
      "stateMutability": "nonpayable",
      "type": "constructor"
    },
    {
      "anonymous": false,
      "inputs": [
        {
          "indexed": true,
          "internalType": "address",
          "name": "owner",
          "type": "address"
        },
        {
          "indexed": true,
          "internalType": "address",
          "name": "approved",
          "type": "address"
        },
        {
          "indexed": true,
          "internalType": "uint256",
          "name": "tokenId",
          "type": "uint256"
        }
      ],
      "name": "Approval",
      "type": "event"
    },
    {
      "anonymous": false,
      "inputs": [
        {
          "indexed": true,
          "internalType": "address",
          "name": "owner",
          "type": "address"
        },
        {
          "indexed": true,
          "internalType": "address",
          "name": "operator",
          "type": "address"
        },
        {
          "indexed": false,
          "internalType": "bool",
          "name": "approved",
          "type": "bool"
        }
      ],
      "name": "ApprovalForAll",
      "type": "event"
    },
    {
      "anonymous": false,
      "inputs": [
        {
          "indexed": true,
          "internalType": "address",
          "name": "previousOwner",
          "type": "address"
        },
        {
          "indexed": true,
          "internalType": "address",
          "name": "newOwner",
          "type": "address"
        }
      ],
      "name": "OwnershipTransferred",
      "type": "event"
    },
    {
      "anonymous": false,
      "inputs": [
        {
          "indexed": true,
          "internalType": "address",
          "name": "from",
          "type": "address"
        },
        {
          "indexed": true,
          "internalType": "address",
          "name": "to",
          "type": "address"
        },
        {
          "indexed": true,
          "internalType": "uint256",
          "name": "tokenId",
          "type": "uint256"
        }
      ],
      "name": "Transfer",
      "type": "event"
    },
    {
      "inputs": [
        {
          "internalType": "address",
          "name": "to",
          "type": "address"
        },
        {
          "internalType": "uint256",
          "name": "tokenId",
          "type": "uint256"
        }
      ],
      "name": "approve",
      "outputs": [],
      "stateMutability": "nonpayable",
      "type": "function"
    },
    {
      "inputs": [
        {
          "internalType": "address",
          "name": "owner",
          "type": "address"
        }
      ],
      "name": "balanceOf",
      "outputs": [
        {
          "internalType": "uint256",
          "name": "",
          "type": "uint256"
        }
      ],
      "stateMutability": "view",
      "type": "function",
      "constant": true
    },
    {
      "inputs": [
        {
          "internalType": "uint256",
          "name": "tokenId",
          "type": "uint256"
        }
      ],
      "name": "getApproved",
      "outputs": [
        {
          "internalType": "address",
          "name": "",
          "type": "address"
        }
      ],
      "stateMutability": "view",
      "type": "function",
      "constant": true
    },
    {
      "inputs": [
        {
          "internalType": "address",
          "name": "owner",
          "type": "address"
        },
        {
          "internalType": "address",
          "name": "operator",
          "type": "address"
        }
      ],
      "name": "isApprovedForAll",
      "outputs": [
        {
          "internalType": "bool",
          "name": "",
          "type": "bool"
        }
      ],
      "stateMutability": "view",
      "type": "function",
      "constant": true
    },
    {
      "inputs": [],
      "name": "name",
      "outputs": [
        {
          "internalType": "string",
          "name": "",
          "type": "string"
        }
      ],
      "stateMutability": "view",
      "type": "function",
      "constant": true
    },
    {
      "inputs": [],
      "name": "owner",
      "outputs": [
        {
          "internalType": "address",
          "name": "",
          "type": "address"
        }
      ],
      "stateMutability": "view",
      "type": "function",
      "constant": true
    },
    {
      "inputs": [
        {
          "internalType": "uint256",
          "name": "tokenId",
          "type": "uint256"
        }
      ],
      "name": "ownerOf",
      "outputs": [
        {
          "internalType": "address",
          "name": "",
          "type": "address"
        }
      ],
      "stateMutability": "view",
      "type": "function",
      "constant": true
    },
    {
      "inputs": [],
      "name": "renounceOwnership",
      "outputs": [],
      "stateMutability": "nonpayable",
      "type": "function"
    },
    {
      "inputs": [
        {
          "internalType": "address",
          "name": "from",
          "type": "address"
        },
        {
          "internalType": "address",
          "name": "to",
          "type": "address"
        },
        {
          "internalType": "uint256",
          "name": "tokenId",
          "type": "uint256"
        }
      ],
      "name": "safeTransferFrom",
      "outputs": [],
      "stateMutability": "nonpayable",
      "type": "function"
    },
    {
      "inputs": [
        {
          "internalType": "address",
          "name": "from",
          "type": "address"
        },
        {
          "internalType": "address",
          "name": "to",
          "type": "address"
        },
        {
          "internalType": "uint256",
          "name": "tokenId",
          "type": "uint256"
        },
        {
          "internalType": "bytes",
          "name": "_data",
          "type": "bytes"
        }
      ],
      "name": "safeTransferFrom",
      "outputs": [],
      "stateMutability": "nonpayable",
      "type": "function"
    },
    {
      "inputs": [
        {
          "internalType": "address",
          "name": "operator",
          "type": "address"
        },
        {
          "internalType": "bool",
          "name": "approved",
          "type": "bool"
        }
      ],
      "name": "setApprovalForAll",
      "outputs": [],
      "stateMutability": "nonpayable",
      "type": "function"
    },
    {
      "inputs": [
        {
          "internalType": "bytes4",
          "name": "interfaceId",
          "type": "bytes4"
        }
      ],
      "name": "supportsInterface",
      "outputs": [
        {
          "internalType": "bool",
          "name": "",
          "type": "bool"
        }
      ],
      "stateMutability": "view",
      "type": "function",
      "constant": true
    },
    {
      "inputs": [],
      "name": "symbol",
      "outputs": [
        {
          "internalType": "string",
          "name": "",
          "type": "string"
        }
      ],
      "stateMutability": "view",
      "type": "function",
      "constant": true
    },
    {
      "inputs": [
        {
          "internalType": "uint256",
          "name": "index",
          "type": "uint256"
        }
      ],
      "name": "tokenByIndex",
      "outputs": [
        {
          "internalType": "uint256",
          "name": "",
          "type": "uint256"
        }
      ],
      "stateMutability": "view",
      "type": "function",
      "constant": true
    },
    {
      "inputs": [
        {
          "internalType": "address",
          "name": "owner",
          "type": "address"
        },
        {
          "internalType": "uint256",
          "name": "index",
          "type": "uint256"
        }
      ],
      "name": "tokenOfOwnerByIndex",
      "outputs": [
        {
          "internalType": "uint256",
          "name": "tokenId",
          "type": "uint256"
        }
      ],
      "stateMutability": "view",
      "type": "function",
      "constant": true
    },
    {
      "inputs": [],
      "name": "totalSupply",
      "outputs": [
        {
          "internalType": "uint256",
          "name": "",
          "type": "uint256"
        }
      ],
      "stateMutability": "view",
      "type": "function",
      "constant": true
    },
    {
      "inputs": [
        {
          "internalType": "address",
          "name": "from",
          "type": "address"
        },
        {
          "internalType": "address",
          "name": "to",
          "type": "address"
        },
        {
          "internalType": "uint256",
          "name": "tokenId",
          "type": "uint256"
        }
      ],
      "name": "transferFrom",
      "outputs": [],
      "stateMutability": "nonpayable",
      "type": "function"
    },
    {
      "inputs": [
        {
          "internalType": "address",
          "name": "newOwner",
          "type": "address"
        }
      ],
      "name": "transferOwnership",
      "outputs": [],
      "stateMutability": "nonpayable",
      "type": "function"
    },
    {
      "inputs": [
        {
          "internalType": "bool",
          "name": "paused",
          "type": "bool"
        }
      ],
      "name": "setPaused",
      "outputs": [],
      "stateMutability": "nonpayable",
      "type": "function"
    },
    {
      "inputs": [
        {
          "internalType": "uint16",
          "name": "unlockSupply",
          "type": "uint16"
        }
      ],
      "name": "setUnlockSupply",
      "outputs": [],
      "stateMutability": "nonpayable",
      "type": "function"
    },
    {
      "inputs": [
        {
          "internalType": "address",
          "name": "contractAddress",
          "type": "address"
        }
      ],
      "name": "addSupportedCollection",
      "outputs": [],
      "stateMutability": "nonpayable",
      "type": "function"
    },
    {
      "inputs": [],
      "name": "clearSupportedCollections",
      "outputs": [],
      "stateMutability": "nonpayable",
      "type": "function"
    },
    {
      "inputs": [
        {
          "internalType": "address",
          "name": "contractAddress",
          "type": "address"
        },
        {
          "internalType": "string",
          "name": "svgSlug",
          "type": "string"
        }
      ],
      "name": "setSupportedCollectionSlug",
      "outputs": [],
      "stateMutability": "nonpayable",
      "type": "function"
    },
    {
      "inputs": [
        {
          "internalType": "address",
          "name": "contractAddress",
          "type": "address"
        },
        {
          "internalType": "string",
          "name": "base64EncodedSvgSlug",
          "type": "string"
        }
      ],
      "name": "setSupportedCollectionSlugBase64",
      "outputs": [],
      "stateMutability": "nonpayable",
      "type": "function"
    },
    {
      "inputs": [
        {
          "internalType": "address",
          "name": "gotTokenAddress",
          "type": "address"
        },
        {
          "internalType": "address",
          "name": "ogColorAddress",
          "type": "address"
        }
      ],
      "name": "setTrustedContractAddresses",
      "outputs": [],
      "stateMutability": "nonpayable",
      "type": "function"
    },
    {
      "inputs": [
        {
          "internalType": "uint256",
          "name": "tokenId",
          "type": "uint256"
        }
      ],
      "name": "renderSvg",
      "outputs": [
        {
          "internalType": "string",
          "name": "",
          "type": "string"
        }
      ],
      "stateMutability": "view",
      "type": "function",
      "constant": true
    },
    {
      "inputs": [
        {
          "internalType": "uint256",
          "name": "tokenId",
          "type": "uint256"
        }
      ],
      "name": "tokenURI",
      "outputs": [
        {
          "internalType": "string",
          "name": "",
          "type": "string"
        }
      ],
      "stateMutability": "view",
      "type": "function",
      "constant": true
    },
    {
      "inputs": [
        {
          "internalType": "uint16",
          "name": "count",
          "type": "uint16"
        }
      ],
      "name": "mint",
      "outputs": [],
      "stateMutability": "nonpayable",
      "type": "function"
    },
    {
      "inputs": [],
      "name": "mintOgDozen",
      "outputs": [],
      "stateMutability": "nonpayable",
      "type": "function"
    },
    {
      "inputs": [
        {
          "internalType": "uint256",
          "name": "tokenId",
          "type": "uint256"
        }
      ],
      "name": "exists",
      "outputs": [
        {
          "internalType": "bool",
          "name": "",
          "type": "bool"
        }
      ],
      "stateMutability": "view",
      "type": "function",
      "constant": true
    },
    {
      "inputs": [],
      "name": "canMintOgDozen",
      "outputs": [
        {
          "internalType": "bool",
          "name": "",
          "type": "bool"
        }
      ],
      "stateMutability": "view",
      "type": "function",
      "constant": true
    }
  ],
  "bytecode": "0x6080604052600c600d55600d600e553480156200001b57600080fd5b506040518060400160405280600281526020017f4f470000000000000000000000000000000000000000000000000000000000008152506040518060400160405280600281526020017f4f470000000000000000000000000000000000000000000000000000000000008152508160009080519060200190620000a0929190620002a6565b508060019080519060200190620000b9929190620002a6565b505050620000dc620000d0620001d860201b60201c565b620001e060201b60201c565b6000600a604051620000ee90620003da565b908152602001604051809103902060006101000a81548173ffffffffffffffffffffffffffffffffffffffff021916908373ffffffffffffffffffffffffffffffffffffffff1602179055506000600a6040516200014c90620003f1565b908152602001604051809103902060006101000a81548173ffffffffffffffffffffffffffffffffffffffff021916908373ffffffffffffffffffffffffffffffffffffffff1602179055506001600c60006101000a81548160ff021916908315150217905550611388600c60016101000a81548161ffff021916908361ffff16021790555062000478565b600033905090565b6000600860009054906101000a900473ffffffffffffffffffffffffffffffffffffffff16905081600860006101000a81548173ffffffffffffffffffffffffffffffffffffffff021916908373ffffffffffffffffffffffffffffffffffffffff1602179055508173ffffffffffffffffffffffffffffffffffffffff168173ffffffffffffffffffffffffffffffffffffffff167f8be0079c531659141344cd1fd0a4f28419497f9722a3daafe3b4186f6b6457e060405160405180910390a35050565b828054620002b49062000413565b90600052602060002090601f016020900481019282620002d8576000855562000324565b82601f10620002f357805160ff191683800117855562000324565b8280016001018555821562000324579182015b828111156200032357825182559160200191906001019062000306565b5b50905062000333919062000337565b5090565b5b808211156200035257600081600090555060010162000338565b5090565b60006200036560088362000408565b91507f676f74746f6b656e0000000000000000000000000000000000000000000000006000830152600882019050919050565b6000620003a760078362000408565b91507f6f67636f6c6f72000000000000000000000000000000000000000000000000006000830152600782019050919050565b6000620003e78262000356565b9150819050919050565b6000620003fe8262000398565b9150819050919050565b600081905092915050565b600060028204905060018216806200042c57607f821691505b6020821081141562000443576200044262000449565b5b50919050565b7f4e487b7100000000000000000000000000000000000000000000000000000000600052602260045260246000fd5b615bb280620004886000396000f3fe608060405234801561001057600080fd5b50600436106101e55760003560e01c8063533218171161010f578063b88d4fde116100a2578063edd39ab511610071578063edd39ab514610578578063f2fde38b14610582578063fb397aff1461059e578063fd5ad319146105ba576101e5565b8063b88d4fde146104e0578063c87b56dd146104fc578063cffd082c1461052c578063e985e9c514610548576101e5565b806373565370116100de578063735653701461046a5780638da5cb5b1461048857806395d89b41146104a6578063a22cb465146104c4576101e5565b806353321817146103e45780636352211e1461040057806370a0823114610430578063715018a614610460576101e5565b806323b872dd1161018757806342842e0e1161015657806342842e0e1461034c5780634e2e46d7146103685780634f558e79146103845780634f6ccce7146103b4576101e5565b806323b872dd146102da57806323cf0a22146102f65780632546ae7e146103125780632f745c591461031c576101e5565b8063081812fc116101c3578063081812fc14610254578063095ea7b31461028457806316c38b3c146102a057806318160ddd146102bc576101e5565b806301ffc9a7146101ea5780630557a8ef1461021a57806306fdde0314610236575b600080fd5b61020460048036038101906101ff9190613e14565b6105ea565b6040516102119190614fc8565b60405180910390f35b610234600480360381019061022f9190613f6a565b610664565b005b61023e610700565b60405161024b9190615066565b60405180910390f35b61026e60048036038101906102699190613f93565b610792565b60405161027b9190614f61565b60405180910390f35b61029e60048036038101906102999190613daf565b610817565b005b6102ba60048036038101906102b59190613deb565b61092f565b005b6102c46109c8565b6040516102d191906153a3565b60405180910390f35b6102f460048036038101906102ef9190613c51565b6109d2565b005b610310600480360381019061030b9190613f6a565b610a32565b005b61031a610c1b565b005b61033660048036038101906103319190613daf565b610dc6565b60405161034391906153a3565b60405180910390f35b61036660048036038101906103619190613c51565b610e9c565b005b610382600480360381019061037d9190613bc3565b610ebc565b005b61039e60048036038101906103999190613f93565b610f9e565b6040516103ab9190614fc8565b60405180910390f35b6103ce60048036038101906103c99190613f93565b610fb0565b6040516103db91906153a3565b60405180910390f35b6103fe60048036038101906103f99190613d57565b610ffe565b005b61041a60048036038101906104159190613f93565b6110ce565b6040516104279190614f61565b60405180910390f35b61044a60048036038101906104459190613bc3565b611180565b60405161045791906153a3565b60405180910390f35b610468611238565b005b6104726112c0565b60405161047f9190614fc8565b60405180910390f35b6104906112f9565b60405161049d9190614f61565b60405180910390f35b6104ae611323565b6040516104bb9190615066565b60405180910390f35b6104de60048036038101906104d99190613d1b565b6113b5565b005b6104fa60048036038101906104f59190613ca0565b6113cb565b005b61051660048036038101906105119190613f93565b61142d565b6040516105239190615066565b60405180910390f35b61054660048036038101906105419190613d57565b611603565b005b610562600480360381019061055d9190613c15565b611724565b60405161056f9190614fc8565b60405180910390f35b6105806117b8565b005b61059c60048036038101906105979190613bc3565b611844565b005b6105b860048036038101906105b39190613c15565b61193c565b005b6105d460048036038101906105cf9190613f93565b611a72565b6040516105e19190615066565b60405180910390f35b60007f780e9d63000000000000000000000000000000000000000000000000000000007bffffffffffffffffffffffffffffffffffffffffffffffffffffffff1916827bffffffffffffffffffffffffffffffffffffffffffffffffffffffff1916148061065d575061065c826123d9565b5b9050919050565b61066c6124bb565b73ffffffffffffffffffffffffffffffffffffffff1661068a6112f9565b73ffffffffffffffffffffffffffffffffffffffff16146106e0576040517f08c379a00000000000000000000000000000000000000000000000000000000081526004016106d790615248565b60405180910390fd5b80600c60016101000a81548161ffff021916908361ffff16021790555050565b60606000805461070f90615717565b80601f016020809104026020016040519081016040528092919081815260200182805461073b90615717565b80156107885780601f1061075d57610100808354040283529160200191610788565b820191906000526020600020905b81548152906001019060200180831161076b57829003601f168201915b5050505050905090565b600061079d826124c3565b6107dc576040517f08c379a00000000000000000000000000000000000000000000000000000000081526004016107d390615228565b60405180910390fd5b6004600083815260200190815260200160002060009054906101000a900473ffffffffffffffffffffffffffffffffffffffff169050919050565b6000610822826110ce565b90508073ffffffffffffffffffffffffffffffffffffffff168373ffffffffffffffffffffffffffffffffffffffff161415610893576040517f08c379a000000000000000000000000000000000000000000000000000000000815260040161088a906152a8565b60405180910390fd5b8073ffffffffffffffffffffffffffffffffffffffff166108b26124bb565b73ffffffffffffffffffffffffffffffffffffffff1614806108e157506108e0816108db6124bb565b611724565b5b610920576040517f08c379a000000000000000000000000000000000000000000000000000000000815260040161091790615188565b60405180910390fd5b61092a838361252f565b505050565b6109376124bb565b73ffffffffffffffffffffffffffffffffffffffff166109556112f9565b73ffffffffffffffffffffffffffffffffffffffff16146109ab576040517f08c379a00000000000000000000000000000000000000000000000000000000081526004016109a290615248565b60405180910390fd5b80600c60006101000a81548160ff02191690831515021790555050565b6000600754905090565b6109e36109dd6124bb565b826125e8565b610a22576040517f08c379a0000000000000000000000000000000000000000000000000000000008152600401610a19906152e8565b60405180910390fd5b610a2d8383836126c6565b505050565b600c60009054906101000a900460ff1615610a82576040517f08c379a0000000000000000000000000000000000000000000000000000000008152600401610a7990615308565b60405180910390fd5b61270f600d5410610ac8576040517f08c379a0000000000000000000000000000000000000000000000000000000008152600401610abf90615168565b60405180910390fd5b6000610ad26124bb565b9050610adc6112f9565b73ffffffffffffffffffffffffffffffffffffffff168173ffffffffffffffffffffffffffffffffffffffff1614610bc25760008261ffff16118015610b275750600a8261ffff1611155b610b66576040517f08c379a0000000000000000000000000000000000000000000000000000000008152600401610b5d90615348565b60405180910390fd5b600a8261ffff16610b7683611180565b610b8091906154d0565b1115610bc1576040517f08c379a0000000000000000000000000000000000000000000000000000000008152600401610bb890615348565b60405180910390fd5b5b60005b8261ffff168161ffff161015610c16576000600d60008154610be69061578e565b919050819055905061270f8111610c0257610c018382612922565b5b508080610c0e90615763565b915050610bc5565b505050565b600c60009054906101000a900460ff1615610c6b576040517f08c379a0000000000000000000000000000000000000000000000000000000008152600401610c6290615308565b60405180910390fd5b610c736112c0565b610cb2576040517f08c379a0000000000000000000000000000000000000000000000000000000008152600401610ca9906151a8565b60405180910390fd5b6001600e54118015610cc75750600d600e5411155b610d06576040517f08c379a0000000000000000000000000000000000000000000000000000000008152600401610cfd90615368565b60405180910390fd5b6000610d106124bb565b9050610d1a6112f9565b73ffffffffffffffffffffffffffffffffffffffff168173ffffffffffffffffffffffffffffffffffffffff1614610da557600a6001610d5983611180565b610d6391906154d0565b1115610da4576040517f08c379a0000000000000000000000000000000000000000000000000000000008152600401610d9b90615348565b60405180910390fd5b5b610dc381600e60008154610db8906156ed565b919050819055612922565b50565b6000610dd183611180565b8210610e12576040517f08c379a0000000000000000000000000000000000000000000000000000000008152600401610e0990615088565b60405180910390fd5b600660008473ffffffffffffffffffffffffffffffffffffffff1673ffffffffffffffffffffffffffffffffffffffff1681526020019081526020016000208281548110610e89577f4e487b7100000000000000000000000000000000000000000000000000000000600052603260045260246000fd5b9060005260206000200154905092915050565b610eb7838383604051806020016040528060008152506113cb565b505050565b610ec46124bb565b73ffffffffffffffffffffffffffffffffffffffff16610ee26112f9565b73ffffffffffffffffffffffffffffffffffffffff1614610f38576040517f08c379a0000000000000000000000000000000000000000000000000000000008152600401610f2f90615248565b60405180910390fd5b600b819080600181540180825580915050600190039060005260206000200160009091909190916101000a81548173ffffffffffffffffffffffffffffffffffffffff021916908373ffffffffffffffffffffffffffffffffffffffff16021790555050565b6000610fa9826124c3565b9050919050565b60006007548210610ff6576040517f08c379a0000000000000000000000000000000000000000000000000000000008152600401610fed90615328565b60405180910390fd5b819050919050565b6110066124bb565b73ffffffffffffffffffffffffffffffffffffffff166110246112f9565b73ffffffffffffffffffffffffffffffffffffffff161461107a576040517f08c379a000000000000000000000000000000000000000000000000000000000815260040161107190615248565b60405180910390fd5b8181600960008673ffffffffffffffffffffffffffffffffffffffff1673ffffffffffffffffffffffffffffffffffffffff16815260200190815260200160002091906110c89291906138a4565b50505050565b6000806002600084815260200190815260200160002060009054906101000a900473ffffffffffffffffffffffffffffffffffffffff169050600073ffffffffffffffffffffffffffffffffffffffff168173ffffffffffffffffffffffffffffffffffffffff161415611177576040517f08c379a000000000000000000000000000000000000000000000000000000000815260040161116e906151e8565b60405180910390fd5b80915050919050565b60008073ffffffffffffffffffffffffffffffffffffffff168273ffffffffffffffffffffffffffffffffffffffff1614156111f1576040517f08c379a00000000000000000000000000000000000000000000000000000000081526004016111e8906151c8565b60405180910390fd5b600360008373ffffffffffffffffffffffffffffffffffffffff1673ffffffffffffffffffffffffffffffffffffffff168152602001908152602001600020549050919050565b6112406124bb565b73ffffffffffffffffffffffffffffffffffffffff1661125e6112f9565b73ffffffffffffffffffffffffffffffffffffffff16146112b4576040517f08c379a00000000000000000000000000000000000000000000000000000000081526004016112ab90615248565b60405180910390fd5b6112be6000612940565b565b6000600c60019054906101000a900461ffff1661ffff166112df6109c8565b101580156112f457506112f260016124c3565b155b905090565b6000600860009054906101000a900473ffffffffffffffffffffffffffffffffffffffff16905090565b60606001805461133290615717565b80601f016020809104026020016040519081016040528092919081815260200182805461135e90615717565b80156113ab5780601f10611380576101008083540402835291602001916113ab565b820191906000526020600020905b81548152906001019060200180831161138e57829003601f168201915b5050505050905090565b6113c76113c06124bb565b8383612a06565b5050565b6113dc6113d66124bb565b836125e8565b61141b576040517f08c379a0000000000000000000000000000000000000000000000000000000008152600401611412906152e8565b60405180910390fd5b61142784848484612b73565b50505050565b606060008210158015611442575061270f8211155b611481576040517f08c379a000000000000000000000000000000000000000000000000000000000815260040161147890615288565b60405180910390fd5b600073__Customizer____________________________63eac15a4b30600a6040516114ac90614e64565b908152602001604051809103902060009054906101000a900473ffffffffffffffffffffffffffffffffffffffff16866040518463ffffffff1660e01b81526004016114fa9392919061502f565b60006040518083038186803b15801561151257600080fd5b505af4158015611526573d6000803e3d6000fd5b505050506040513d6000823e3d601f19601f8201168201806040525081019061154f9190613e66565b9050600081511161156f5760405180602001604052806000815250611590565b806040516020016115809190614e2d565b6040516020818303038152906040525b905060006115d86115a085612bcf565b836115b26115ad88611a72565b612d7c565b6040516020016115c493929190614f04565b604051602081830303815290604052612d7c565b9050806040516020016115eb9190614e79565b60405160208183030381529060405292505050919050565b61160b6124bb565b73ffffffffffffffffffffffffffffffffffffffff166116296112f9565b73ffffffffffffffffffffffffffffffffffffffff161461167f576040517f08c379a000000000000000000000000000000000000000000000000000000000815260040161167690615248565b60405180910390fd5b6116cc82828080601f016020809104026020016040519081016040528093929190818152602001838380828437600081840152601f19601f82011690508083019250505050505050612f1b565b600960008573ffffffffffffffffffffffffffffffffffffffff1673ffffffffffffffffffffffffffffffffffffffff168152602001908152602001600020908051906020019061171e92919061392a565b50505050565b6000600560008473ffffffffffffffffffffffffffffffffffffffff1673ffffffffffffffffffffffffffffffffffffffff16815260200190815260200160002060008373ffffffffffffffffffffffffffffffffffffffff1673ffffffffffffffffffffffffffffffffffffffff16815260200190815260200160002060009054906101000a900460ff16905092915050565b6117c06124bb565b73ffffffffffffffffffffffffffffffffffffffff166117de6112f9565b73ffffffffffffffffffffffffffffffffffffffff1614611834576040517f08c379a000000000000000000000000000000000000000000000000000000000815260040161182b90615248565b60405180910390fd5b600b600061184291906139b0565b565b61184c6124bb565b73ffffffffffffffffffffffffffffffffffffffff1661186a6112f9565b73ffffffffffffffffffffffffffffffffffffffff16146118c0576040517f08c379a00000000000000000000000000000000000000000000000000000000081526004016118b790615248565b60405180910390fd5b600073ffffffffffffffffffffffffffffffffffffffff168173ffffffffffffffffffffffffffffffffffffffff161415611930576040517f08c379a0000000000000000000000000000000000000000000000000000000008152600401611927906150c8565b60405180910390fd5b61193981612940565b50565b6119446124bb565b73ffffffffffffffffffffffffffffffffffffffff166119626112f9565b73ffffffffffffffffffffffffffffffffffffffff16146119b8576040517f08c379a00000000000000000000000000000000000000000000000000000000081526004016119af90615248565b60405180910390fd5b81600a6040516119c790614e4f565b908152602001604051809103902060006101000a81548173ffffffffffffffffffffffffffffffffffffffff021916908373ffffffffffffffffffffffffffffffffffffffff16021790555080600a604051611a2290614e64565b908152602001604051809103902060006101000a81548173ffffffffffffffffffffffffffffffffffffffff021916908373ffffffffffffffffffffffffffffffffffffffff1602179055505050565b606060008210158015611a87575061270f8211155b611ac6576040517f08c379a0000000000000000000000000000000000000000000000000000000008152600401611abd90615288565b60405180910390fd5b60008060008073__Customizer____________________________63bda93c9a30600a604051611af590614e64565b908152602001604051809103902060009054906101000a900473ffffffffffffffffffffffffffffffffffffffff16896040518463ffffffff1660e01b8152600401611b439392919061502f565b60006040518083038186803b158015611b5b57600080fd5b505af4158015611b6f573d6000803e3d6000fd5b505050506040513d6000823e3d601f19601f82011682018060405250810190611b989190613ea7565b9350935093509350600073__Customizer____________________________637308eca430600a604051611bcb90614e4f565b908152602001604051809103902060009054906101000a900473ffffffffffffffffffffffffffffffffffffffff16600b8b6040518563ffffffff1660e01b8152600401611c1c9493929190614fe3565b60206040518083038186803b158015611c3457600080fd5b505af4158015611c48573d6000803e3d6000fd5b505050506040513d601f19601f82011682018060405250810190611c6c9190613bec565b905060008073ffffffffffffffffffffffffffffffffffffffff168273ffffffffffffffffffffffffffffffffffffffff1614159050611caa6139d1565b6040518060c00160405280608681526020016159696086913981600060088110611cfd577f4e487b7100000000000000000000000000000000000000000000000000000000600052603260045260246000fd5b602002018190525086868686604051602001611d1c9493929190614eb0565b60405160208183030381529060405281600160088110611d65577f4e487b7100000000000000000000000000000000000000000000000000000000600052603260045260246000fd5b60200201819052506040518060400160405280601181526020017f3c6d61736b2069643d275f6d61736b273e00000000000000000000000000000081525081600260088110611ddd577f4e487b7100000000000000000000000000000000000000000000000000000000600052603260045260246000fd5b60200201819052508115611e4c5760405180610100016040528060ce8152602001615a2f60ce913981600360088110611e3f577f4e487b7100000000000000000000000000000000000000000000000000000000600052603260045260246000fd5b6020020181905250611e9f565b6040518060200160405280600081525081600360088110611e96577f4e487b7100000000000000000000000000000000000000000000000000000000600052603260045260246000fd5b60200201819052505b604051602001611eae90614e9b565b60405160208183030381529060405281600460088110611ef7577f4e487b7100000000000000000000000000000000000000000000000000000000600052603260045260246000fd5b602002018190525073__Digits________________________________63f1fb19db8a6040518263ffffffff1660e01b8152600401611f369190615388565b60006040518083038186803b158015611f4e57600080fd5b505af4158015611f62573d6000803e3d6000fd5b505050506040513d6000823e3d601f19601f82011682018060405250810190611f8b9190613e66565b81600560088110611fc5577f4e487b7100000000000000000000000000000000000000000000000000000000600052603260045260246000fd5b602002018190525081156120e257600960008473ffffffffffffffffffffffffffffffffffffffff1673ffffffffffffffffffffffffffffffffffffffff168152602001908152602001600020805461201d90615717565b80601f016020809104026020016040519081016040528092919081815260200182805461204990615717565b80156120965780601f1061206b57610100808354040283529160200191612096565b820191906000526020600020905b81548152906001019060200180831161207957829003601f168201915b5050505050816006600881106120d5577f4e487b7100000000000000000000000000000000000000000000000000000000600052603260045260246000fd5b6020020181905250612135565b604051806020016040528060008152508160066008811061212c577f4e487b7100000000000000000000000000000000000000000000000000000000600052603260045260246000fd5b60200201819052505b6040518060400160405280600681526020017f3c2f7376673e0000000000000000000000000000000000000000000000000000815250816007600881106121a5577f4e487b7100000000000000000000000000000000000000000000000000000000600052603260045260246000fd5b6020020181905250806000600881106121e7577f4e487b7100000000000000000000000000000000000000000000000000000000600052603260045260246000fd5b602002015181600160088110612226577f4e487b7100000000000000000000000000000000000000000000000000000000600052603260045260246000fd5b602002015182600260088110612265577f4e487b7100000000000000000000000000000000000000000000000000000000600052603260045260246000fd5b6020020151836003600881106122a4577f4e487b7100000000000000000000000000000000000000000000000000000000600052603260045260246000fd5b6020020151846004600881106122e3577f4e487b7100000000000000000000000000000000000000000000000000000000600052603260045260246000fd5b602002015185600560088110612322577f4e487b7100000000000000000000000000000000000000000000000000000000600052603260045260246000fd5b602002015186600660088110612361577f4e487b7100000000000000000000000000000000000000000000000000000000600052603260045260246000fd5b6020020151876007600881106123a0577f4e487b7100000000000000000000000000000000000000000000000000000000600052603260045260246000fd5b60200201516040516020016123bc989796959493929190614dbb565b604051602081830303815290604052975050505050505050919050565b60007f80ac58cd000000000000000000000000000000000000000000000000000000007bffffffffffffffffffffffffffffffffffffffffffffffffffffffff1916827bffffffffffffffffffffffffffffffffffffffffffffffffffffffff191614806124a457507f5b5e139f000000000000000000000000000000000000000000000000000000007bffffffffffffffffffffffffffffffffffffffffffffffffffffffff1916827bffffffffffffffffffffffffffffffffffffffffffffffffffffffff1916145b806124b457506124b382613162565b5b9050919050565b600033905090565b60008073ffffffffffffffffffffffffffffffffffffffff166002600084815260200190815260200160002060009054906101000a900473ffffffffffffffffffffffffffffffffffffffff1673ffffffffffffffffffffffffffffffffffffffff1614159050919050565b816004600083815260200190815260200160002060006101000a81548173ffffffffffffffffffffffffffffffffffffffff021916908373ffffffffffffffffffffffffffffffffffffffff160217905550808273ffffffffffffffffffffffffffffffffffffffff166125a2836110ce565b73ffffffffffffffffffffffffffffffffffffffff167f8c5be1e5ebec7d5bd14f71427d1e84f3dd0314c0f7b2291e5b200ac8c7c3b92560405160405180910390a45050565b60006125f3826124c3565b612632576040517f08c379a000000000000000000000000000000000000000000000000000000000815260040161262990615148565b60405180910390fd5b600061263d836110ce565b90508073ffffffffffffffffffffffffffffffffffffffff168473ffffffffffffffffffffffffffffffffffffffff1614806126ac57508373ffffffffffffffffffffffffffffffffffffffff1661269484610792565b73ffffffffffffffffffffffffffffffffffffffff16145b806126bd57506126bc8185611724565b5b91505092915050565b8273ffffffffffffffffffffffffffffffffffffffff166126e6826110ce565b73ffffffffffffffffffffffffffffffffffffffff161461273c576040517f08c379a000000000000000000000000000000000000000000000000000000000815260040161273390615268565b60405180910390fd5b600073ffffffffffffffffffffffffffffffffffffffff168273ffffffffffffffffffffffffffffffffffffffff1614156127ac576040517f08c379a00000000000000000000000000000000000000000000000000000000081526004016127a390615108565b60405180910390fd5b6127b78383836131cc565b6127c260008261252f565b6001600360008573ffffffffffffffffffffffffffffffffffffffff1673ffffffffffffffffffffffffffffffffffffffff168152602001908152602001600020600082825461281291906155b1565b925050819055506001600360008473ffffffffffffffffffffffffffffffffffffffff1673ffffffffffffffffffffffffffffffffffffffff168152602001908152602001600020600082825461286991906154d0565b92505081905550816002600083815260200190815260200160002060006101000a81548173ffffffffffffffffffffffffffffffffffffffff021916908373ffffffffffffffffffffffffffffffffffffffff160217905550808273ffffffffffffffffffffffffffffffffffffffff168473ffffffffffffffffffffffffffffffffffffffff167fddf252ad1be2c89b69c2b068fc378daa952ba7f163c4a11628f55a4df523b3ef60405160405180910390a4505050565b61293c8282604051806020016040528060008152506134d1565b5050565b6000600860009054906101000a900473ffffffffffffffffffffffffffffffffffffffff16905081600860006101000a81548173ffffffffffffffffffffffffffffffffffffffff021916908373ffffffffffffffffffffffffffffffffffffffff1602179055508173ffffffffffffffffffffffffffffffffffffffff168173ffffffffffffffffffffffffffffffffffffffff167f8be0079c531659141344cd1fd0a4f28419497f9722a3daafe3b4186f6b6457e060405160405180910390a35050565b8173ffffffffffffffffffffffffffffffffffffffff168373ffffffffffffffffffffffffffffffffffffffff161415612a75576040517f08c379a0000000000000000000000000000000000000000000000000000000008152600401612a6c90615128565b60405180910390fd5b80600560008573ffffffffffffffffffffffffffffffffffffffff1673ffffffffffffffffffffffffffffffffffffffff16815260200190815260200160002060008473ffffffffffffffffffffffffffffffffffffffff1673ffffffffffffffffffffffffffffffffffffffff16815260200190815260200160002060006101000a81548160ff0219169083151502179055508173ffffffffffffffffffffffffffffffffffffffff168373ffffffffffffffffffffffffffffffffffffffff167f17307eab39ab6107e8899845ad3d59bd9653f200f220920489ca2b5937696c3183604051612b669190614fc8565b60405180910390a3505050565b612b7e8484846126c6565b612b8a8484848461352c565b612bc9576040517f08c379a0000000000000000000000000000000000000000000000000000000008152600401612bc0906150a8565b60405180910390fd5b50505050565b60606000821415612c17576040518060400160405280600181526020017f30000000000000000000000000000000000000000000000000000000000000008152509050612d77565b600082905060005b60008214612c49578080612c329061578e565b915050600a82612c429190615526565b9150612c1f565b60008167ffffffffffffffff811115612c8b577f4e487b7100000000000000000000000000000000000000000000000000000000600052604160045260246000fd5b6040519080825280601f01601f191660200182016040528015612cbd5781602001600182028036833780820191505090505b5090505b60008514612d7057600182612cd691906155b1565b9150600a85612ce591906157d7565b6030612cf191906154d0565b60f81b818381518110612d2d577f4e487b7100000000000000000000000000000000000000000000000000000000600052603260045260246000fd5b60200101907effffffffffffffffffffffffffffffffffffffffffffffffffffffffffffff1916908160001a905350600a85612d699190615526565b9450612cc1565b8093505050505b919050565b6060600082511415612d9f57604051806020016040528060008152509050612f16565b60006040518060600160405280604081526020016159ef6040913990506000600360028551612dce91906154d0565b612dd89190615526565b6004612de49190615557565b90506000602082612df591906154d0565b67ffffffffffffffff811115612e34577f4e487b7100000000000000000000000000000000000000000000000000000000600052604160045260246000fd5b6040519080825280601f01601f191660200182016040528015612e665781602001600182028036833780820191505090505b509050818152600183018586518101602084015b81831015612ed5576003830192508251603f8160121c168501518253600182019150603f81600c1c168501518253600182019150603f8160061c168501518253600182019150603f8116850151825360018201915050612e7a565b600389510660018114612eef5760028114612eff57612f0a565b613d3d60f01b6002830352612f0a565b603d60f81b60018303525b50505050508093505050505b919050565b60606000829050600081511415612fa857600067ffffffffffffffff811115612f6d577f4e487b7100000000000000000000000000000000000000000000000000000000600052604160045260246000fd5b6040519080825280601f01601f191660200182016040528015612f9f5781602001600182028036833780820191505090505b5091505061315d565b600060048251612fb891906157d7565b14612ff8576040517f08c379a0000000000000000000000000000000000000000000000000000000008152600401612fef906152c8565b60405180910390fd5b60006040518060a0016040528060808152602001615afd60809139905060006003600484516130279190615526565b6130319190615557565b9050600060208261304291906154d0565b67ffffffffffffffff811115613081577f4e487b7100000000000000000000000000000000000000000000000000000000600052604160045260246000fd5b6040519080825280601f01601f1916602001820160405280156130b35781602001600182028036833780820191505090505b5090508351840151603d60ff821614156130e357600183039250613d3d61ffff821614156130e2576001830392505b5b828252600184018586518101602085015b8183101561315057600483019250825160ff8082168601511660ff808360081c168701511660061b0160ff808360101c1687015116600c1b60ff808460181c168801511660121b01018060e81b835260038301925050506130f4565b5050505050809450505050505b919050565b60007f01ffc9a7000000000000000000000000000000000000000000000000000000007bffffffffffffffffffffffffffffffffffffffffffffffffffffffff1916827bffffffffffffffffffffffffffffffffffffffffffffffffffffffff1916149050919050565b60008073ffffffffffffffffffffffffffffffffffffffff168473ffffffffffffffffffffffffffffffffffffffff1614905060008073ffffffffffffffffffffffffffffffffffffffff168473ffffffffffffffffffffffffffffffffffffffff161480613268575061dead73ffffffffffffffffffffffffffffffffffffffff168473ffffffffffffffffffffffffffffffffffffffff16145b90508161341b576000600660008773ffffffffffffffffffffffffffffffffffffffff1673ffffffffffffffffffffffffffffffffffffffff168152602001908152602001600020905060005b81805490508161ffff1610156134185784828261ffff1681548110613303577f4e487b7100000000000000000000000000000000000000000000000000000000600052603260045260246000fd5b9060005260206000200154141561340557816001838054905061332691906155b1565b8154811061335d577f4e487b7100000000000000000000000000000000000000000000000000000000600052603260045260246000fd5b9060005260206000200154828261ffff16815481106133a5577f4e487b7100000000000000000000000000000000000000000000000000000000600052603260045260246000fd5b9060005260206000200181905550818054806133ea577f4e487b7100000000000000000000000000000000000000000000000000000000600052603160045260246000fd5b60019003818190600052602060002001600090559055613418565b808061341090615763565b9150506132b5565b50505b8061348757600660008573ffffffffffffffffffffffffffffffffffffffff1673ffffffffffffffffffffffffffffffffffffffff1681526020019081526020016000208390806001815401808255809150506001900390600052602060002001600090919091909150555b81156134aa57600760008154809291906134a09061578e565b91905055506134ca565b80156134c957600760008154809291906134c3906156ed565b91905055505b5b5050505050565b6134db83836136c3565b6134e8600084848461352c565b613527576040517f08c379a000000000000000000000000000000000000000000000000000000000815260040161351e906150a8565b60405180910390fd5b505050565b600061354d8473ffffffffffffffffffffffffffffffffffffffff16613891565b156136b6578373ffffffffffffffffffffffffffffffffffffffff1663150b7a026135766124bb565b8786866040518563ffffffff1660e01b81526004016135989493929190614f7c565b602060405180830381600087803b1580156135b257600080fd5b505af19250505080156135e357506040513d601f19601f820116820180604052508101906135e09190613e3d565b60015b613666573d8060008114613613576040519150601f19603f3d011682016040523d82523d6000602084013e613618565b606091505b5060008151141561365e576040517f08c379a0000000000000000000000000000000000000000000000000000000008152600401613655906150a8565b60405180910390fd5b805181602001fd5b63150b7a0260e01b7bffffffffffffffffffffffffffffffffffffffffffffffffffffffff1916817bffffffffffffffffffffffffffffffffffffffffffffffffffffffff1916149150506136bb565b600190505b949350505050565b600073ffffffffffffffffffffffffffffffffffffffff168273ffffffffffffffffffffffffffffffffffffffff161415613733576040517f08c379a000000000000000000000000000000000000000000000000000000000815260040161372a90615208565b60405180910390fd5b61373c816124c3565b1561377c576040517f08c379a0000000000000000000000000000000000000000000000000000000008152600401613773906150e8565b60405180910390fd5b613788600083836131cc565b6001600360008473ffffffffffffffffffffffffffffffffffffffff1673ffffffffffffffffffffffffffffffffffffffff16815260200190815260200160002060008282546137d891906154d0565b92505081905550816002600083815260200190815260200160002060006101000a81548173ffffffffffffffffffffffffffffffffffffffff021916908373ffffffffffffffffffffffffffffffffffffffff160217905550808273ffffffffffffffffffffffffffffffffffffffff16600073ffffffffffffffffffffffffffffffffffffffff167fddf252ad1be2c89b69c2b068fc378daa952ba7f163c4a11628f55a4df523b3ef60405160405180910390a45050565b600080823b905060008111915050919050565b8280546138b090615717565b90600052602060002090601f0160209004810192826138d25760008555613919565b82601f106138eb57803560ff1916838001178555613919565b82800160010185558215613919579182015b828111156139185782358255916020019190600101906138fd565b5b50905061392691906139f9565b5090565b82805461393690615717565b90600052602060002090601f016020900481019282613958576000855561399f565b82601f1061397157805160ff191683800117855561399f565b8280016001018555821561399f579182015b8281111561399e578251825591602001919060010190613983565b5b5090506139ac91906139f9565b5090565b50805460008255906000526020600020908101906139ce91906139f9565b50565b6040518061010001604052806008905b60608152602001906001900390816139e15790505090565b5b80821115613a125760008160009055506001016139fa565b5090565b6000613a29613a24846153ef565b6153be565b905082815260208101848484011115613a4157600080fd5b613a4c8482856156ab565b509392505050565b6000613a67613a628461541f565b6153be565b905082815260208101848484011115613a7f57600080fd5b613a8a8482856156ba565b509392505050565b600081359050613aa1816158f5565b92915050565b600081519050613ab6816158f5565b92915050565b600081359050613acb8161590c565b92915050565b600081359050613ae081615923565b92915050565b600081519050613af581615923565b92915050565b600082601f830112613b0c57600080fd5b8135613b1c848260208601613a16565b91505092915050565b60008083601f840112613b3757600080fd5b8235905067ffffffffffffffff811115613b5057600080fd5b602083019150836001820283011115613b6857600080fd5b9250929050565b600082601f830112613b8057600080fd5b8151613b90848260208601613a54565b91505092915050565b600081359050613ba88161593a565b92915050565b600081359050613bbd81615951565b92915050565b600060208284031215613bd557600080fd5b6000613be384828501613a92565b91505092915050565b600060208284031215613bfe57600080fd5b6000613c0c84828501613aa7565b91505092915050565b60008060408385031215613c2857600080fd5b6000613c3685828601613a92565b9250506020613c4785828601613a92565b9150509250929050565b600080600060608486031215613c6657600080fd5b6000613c7486828701613a92565b9350506020613c8586828701613a92565b9250506040613c9686828701613bae565b9150509250925092565b60008060008060808587031215613cb657600080fd5b6000613cc487828801613a92565b9450506020613cd587828801613a92565b9350506040613ce687828801613bae565b925050606085013567ffffffffffffffff811115613d0357600080fd5b613d0f87828801613afb565b91505092959194509250565b60008060408385031215613d2e57600080fd5b6000613d3c85828601613a92565b9250506020613d4d85828601613abc565b9150509250929050565b600080600060408486031215613d6c57600080fd5b6000613d7a86828701613a92565b935050602084013567ffffffffffffffff811115613d9757600080fd5b613da386828701613b25565b92509250509250925092565b60008060408385031215613dc257600080fd5b6000613dd085828601613a92565b9250506020613de185828601613bae565b9150509250929050565b600060208284031215613dfd57600080fd5b6000613e0b84828501613abc565b91505092915050565b600060208284031215613e2657600080fd5b6000613e3484828501613ad1565b91505092915050565b600060208284031215613e4f57600080fd5b6000613e5d84828501613ae6565b91505092915050565b600060208284031215613e7857600080fd5b600082015167ffffffffffffffff811115613e9257600080fd5b613e9e84828501613b6f565b91505092915050565b60008060008060808587031215613ebd57600080fd5b600085015167ffffffffffffffff811115613ed757600080fd5b613ee387828801613b6f565b945050602085015167ffffffffffffffff811115613f0057600080fd5b613f0c87828801613b6f565b935050604085015167ffffffffffffffff811115613f2957600080fd5b613f3587828801613b6f565b925050606085015167ffffffffffffffff811115613f5257600080fd5b613f5e87828801613b6f565b91505092959194509250565b600060208284031215613f7c57600080fd5b6000613f8a84828501613b99565b91505092915050565b600060208284031215613fa557600080fd5b6000613fb384828501613bae565b91505092915050565b6000613fc88383613ff2565b60208301905092915050565b613fdd81615605565b82525050565b613fec81615605565b82525050565b613ffb81615605565b82525050565b600061400c82615464565b6140168185615492565b93506140218361544f565b8060005b8381101561405957614036826158c4565b6140408882613fbc565b975061404b83615485565b925050600181019050614025565b5085935050505092915050565b61406f81615617565b82525050565b60006140808261546f565b61408a81856154a3565b935061409a8185602086016156ba565b6140a3816158d7565b840191505092915050565b6140b781615687565b82525050565b60006140c88261547a565b6140d281856154b4565b93506140e28185602086016156ba565b6140eb816158d7565b840191505092915050565b60006141018261547a565b61410b81856154c5565b935061411b8185602086016156ba565b80840191505092915050565b60006141346016836154c5565b91507f222c20226465736372697074696f6e223a202222202c000000000000000000006000830152601682019050919050565b6000614174602b836154b4565b91507f455243373231456e756d657261626c653a206f776e657220696e646578206f7560008301527f74206f6620626f756e64730000000000000000000000000000000000000000006020830152604082019050919050565b60006141da6032836154b4565b91507f4552433732313a207472616e7366657220746f206e6f6e20455243373231526560008301527f63656976657220696d706c656d656e74657200000000000000000000000000006020830152604082019050919050565b60006142406026836154b4565b91507f4f776e61626c653a206e6577206f776e657220697320746865207a65726f206160008301527f64647265737300000000000000000000000000000000000000000000000000006020830152604082019050919050565b60006142a6601c836154b4565b91507f4552433732313a20746f6b656e20616c7265616479206d696e746564000000006000830152602082019050919050565b60006142e66008836154c5565b91507f676f74746f6b656e0000000000000000000000000000000000000000000000006000830152600882019050919050565b60006143266024836154b4565b91507f4552433732313a207472616e7366657220746f20746865207a65726f2061646460008301527f72657373000000000000000000000000000000000000000000000000000000006020830152604082019050919050565b600061438c6019836154b4565b91507f4552433732313a20617070726f766520746f2063616c6c6572000000000000006000830152602082019050919050565b60006143cc6025836154c5565b91507f2022696d616765223a2022646174613a696d6167652f7376672b786d6c3b626160008301527f736536342c0000000000000000000000000000000000000000000000000000006020830152602582019050919050565b6000614432602c836154b4565b91507f4552433732313a206f70657261746f7220717565727920666f72206e6f6e657860008301527f697374656e7420746f6b656e00000000000000000000000000000000000000006020830152604082019050919050565b6000614498602a836154b4565b91507f4d6178696d756d20616d6f756e74206f662073657175656e7469616c206d696e60008301527f74732072656163686564000000000000000000000000000000000000000000006020830152604082019050919050565b60006144fe6007836154c5565b91507f6f67636f6c6f72000000000000000000000000000000000000000000000000006000830152600782019050919050565b600061453e6038836154b4565b91507f4552433732313a20617070726f76652063616c6c6572206973206e6f74206f7760008301527f6e6572206e6f7220617070726f76656420666f7220616c6c00000000000000006020830152604082019050919050565b60006145a4603f836154b4565b91507f556e6c6f636b20737570706c7920686173206e6f7420796574206265656e207260008301527f65616368656420746f206d696e74204f4720646f7a656e20746f6b656e732e006020830152604082019050919050565b600061460a602a836154b4565b91507f4552433732313a2062616c616e636520717565727920666f7220746865207a6560008301527f726f2061646472657373000000000000000000000000000000000000000000006020830152604082019050919050565b60006146706029836154b4565b91507f4552433732313a206f776e657220717565727920666f72206e6f6e657869737460008301527f656e7420746f6b656e00000000000000000000000000000000000000000000006020830152604082019050919050565b60006146d66002836154c5565b91507f227d0000000000000000000000000000000000000000000000000000000000006000830152600282019050919050565b60006147166020836154b4565b91507f4552433732313a206d696e7420746f20746865207a65726f20616464726573736000830152602082019050919050565b6000614756602c836154b4565b91507f4552433732313a20617070726f76656420717565727920666f72206e6f6e657860008301527f697374656e7420746f6b656e00000000000000000000000000000000000000006020830152604082019050919050565b60006147bc6020836154b4565b91507f4f776e61626c653a2063616c6c6572206973206e6f7420746865206f776e65726000830152602082019050919050565b60006147fc6029836154b4565b91507f4552433732313a207472616e73666572206f6620746f6b656e2074686174206960008301527f73206e6f74206f776e00000000000000000000000000000000000000000000006020830152604082019050919050565b60006148626010836154b4565b91507f546f6b656e20496420696e76616c6964000000000000000000000000000000006000830152602082019050919050565b60006148a26021836154b4565b91507f4552433732313a20617070726f76616c20746f2063757272656e74206f776e6560008301527f72000000000000000000000000000000000000000000000000000000000000006020830152604082019050919050565b6000614908601c836154b4565b91507f696e76616c696420626173653634206465636f64657220696e707574000000006000830152602082019050919050565b60006149486002836154c5565b91507f2c200000000000000000000000000000000000000000000000000000000000006000830152600282019050919050565b6000614988601d836154c5565b91507f646174613a6170706c69636174696f6e2f6a736f6e3b6261736536342c0000006000830152601d82019050919050565b60006149c86007836154c5565b91507f3c2f646566733e000000000000000000000000000000000000000000000000006000830152600782019050919050565b6000614a0860ff836154c5565b91507f3c636972636c652063783d27353030272063793d273530302720723d2734353060008301527f272066696c6c3d272346464646464627207374726f6b653d276e6f6e6527202f60208301527f3e3c2f6d61736b3e3c636972636c652063783d27353030272063793d2735303060408301527f2720723d27343530272066696c6c3d2775726c28236261636b2927206d61736b60608301527f3d2775726c28235f6d61736b2927207374726f6b652d77696474683d2731333060808301527f27207374726f6b653d2775726c28236672616d652927207374726f6b652d6c6960a08301527f6e656a6f696e3d276d6974657227207374726f6b652d6c696e656361703d277360c08301527f717561726527207374726f6b652d6d697465726c696d69743d273327202f3e0060e083015260ff82019050919050565b6000614b526031836154b4565b91507f4552433732313a207472616e736665722063616c6c6572206973206e6f74206f60008301527f776e6572206e6f7220617070726f7665640000000000000000000000000000006020830152604082019050919050565b6000614bb86011836154b4565b91507f4d696e74696e67206973207061757365640000000000000000000000000000006000830152602082019050919050565b6000614bf86006836154c5565b91507f3c646566733e00000000000000000000000000000000000000000000000000006000830152600682019050919050565b6000614c38602c836154b4565b91507f455243373231456e756d657261626c653a20676c6f62616c20696e646578206f60008301527f7574206f6620626f756e647300000000000000000000000000000000000000006020830152604082019050919050565b6000614c9e6028836154b4565b91507f4d696e74696e67206973206c696d6974656420746f206d61782e20313020706560008301527f722077616c6c65740000000000000000000000000000000000000000000000006020830152604082019050919050565b6000614d046024836154b4565b91507f4e6f204f4720646f7a656e20746f6b656e7320617661696c61626c6520616e7960008301527f6d6f7265000000000000000000000000000000000000000000000000000000006020830152604082019050919050565b6000614d6a600e836154c5565b91507f7b226e616d65223a20224f4720230000000000000000000000000000000000006000830152600e82019050919050565b614da68161567d565b82525050565b614db58161567d565b82525050565b6000614dc7828b6140f6565b9150614dd3828a6140f6565b9150614ddf82896140f6565b9150614deb82886140f6565b9150614df782876140f6565b9150614e0382866140f6565b9150614e0f82856140f6565b9150614e1b82846140f6565b91508190509998505050505050505050565b6000614e3982846140f6565b9150614e448261493b565b915081905092915050565b6000614e5a826142d9565b9150819050919050565b6000614e6f826144f1565b9150819050919050565b6000614e848261497b565b9150614e9082846140f6565b915081905092915050565b6000614ea6826149fb565b9150819050919050565b6000614ebb82614beb565b9150614ec782876140f6565b9150614ed382866140f6565b9150614edf82856140f6565b9150614eeb82846140f6565b9150614ef6826149bb565b915081905095945050505050565b6000614f0f82614d5d565b9150614f1b82866140f6565b9150614f2682614127565b9150614f3282856140f6565b9150614f3d826143bf565b9150614f4982846140f6565b9150614f54826146c9565b9150819050949350505050565b6000602082019050614f766000830184613fd4565b92915050565b6000608082019050614f916000830187613fd4565b614f9e6020830186613fd4565b614fab6040830185614d9d565b8181036060830152614fbd8184614075565b905095945050505050565b6000602082019050614fdd6000830184614066565b92915050565b6000608082019050614ff860008301876140ae565b6150056020830186613fe3565b81810360408301526150178185614001565b90506150266060830184614dac565b95945050505050565b600060608201905061504460008301866140ae565b6150516020830185613fe3565b61505e6040830184614dac565b949350505050565b6000602082019050818103600083015261508081846140bd565b905092915050565b600060208201905081810360008301526150a181614167565b9050919050565b600060208201905081810360008301526150c1816141cd565b9050919050565b600060208201905081810360008301526150e181614233565b9050919050565b6000602082019050818103600083015261510181614299565b9050919050565b6000602082019050818103600083015261512181614319565b9050919050565b600060208201905081810360008301526151418161437f565b9050919050565b6000602082019050818103600083015261516181614425565b9050919050565b600060208201905081810360008301526151818161448b565b9050919050565b600060208201905081810360008301526151a181614531565b9050919050565b600060208201905081810360008301526151c181614597565b9050919050565b600060208201905081810360008301526151e1816145fd565b9050919050565b6000602082019050818103600083015261520181614663565b9050919050565b6000602082019050818103600083015261522181614709565b9050919050565b6000602082019050818103600083015261524181614749565b9050919050565b60006020820190508181036000830152615261816147af565b9050919050565b60006020820190508181036000830152615281816147ef565b9050919050565b600060208201905081810360008301526152a181614855565b9050919050565b600060208201905081810360008301526152c181614895565b9050919050565b600060208201905081810360008301526152e1816148fb565b9050919050565b6000602082019050818103600083015261530181614b45565b9050919050565b6000602082019050818103600083015261532181614bab565b9050919050565b6000602082019050818103600083015261534181614c2b565b9050919050565b6000602082019050818103600083015261536181614c91565b9050919050565b6000602082019050818103600083015261538181614cf7565b9050919050565b600060208201905061539d6000830184614dac565b92915050565b60006020820190506153b86000830184614d9d565b92915050565b6000604051905081810181811067ffffffffffffffff821117156153e5576153e4615895565b5b8060405250919050565b600067ffffffffffffffff82111561540a57615409615895565b5b601f19601f8301169050602081019050919050565b600067ffffffffffffffff82111561543a57615439615895565b5b601f19601f8301169050602081019050919050565b60008190508160005260206000209050919050565b600081549050919050565b600081519050919050565b600081519050919050565b6000600182019050919050565b600082825260208201905092915050565b600082825260208201905092915050565b600082825260208201905092915050565b600081905092915050565b60006154db8261567d565b91506154e68361567d565b9250827fffffffffffffffffffffffffffffffffffffffffffffffffffffffffffffffff0382111561551b5761551a615808565b5b828201905092915050565b60006155318261567d565b915061553c8361567d565b92508261554c5761554b615837565b5b828204905092915050565b60006155628261567d565b915061556d8361567d565b9250817fffffffffffffffffffffffffffffffffffffffffffffffffffffffffffffffff04831182151516156155a6576155a5615808565b5b828202905092915050565b60006155bc8261567d565b91506155c78361567d565b9250828210156155da576155d9615808565b5b828203905092915050565b600073ffffffffffffffffffffffffffffffffffffffff82169050919050565b60006156108261565d565b9050919050565b60008115159050919050565b60007fffffffff0000000000000000000000000000000000000000000000000000000082169050919050565b600061ffff82169050919050565b600073ffffffffffffffffffffffffffffffffffffffff82169050919050565b6000819050919050565b600061569282615699565b9050919050565b60006156a48261565d565b9050919050565b82818337600083830152505050565b60005b838110156156d85780820151818401526020810190506156bd565b838111156156e7576000848401525b50505050565b60006156f88261567d565b9150600082141561570c5761570b615808565b5b600182039050919050565b6000600282049050600182168061572f57607f821691505b6020821081141561574357615742615866565b5b50919050565b600061575c615757836158e8565b6155e5565b9050919050565b600061576e8261564f565b915061ffff82141561578357615782615808565b5b600182019050919050565b60006157998261567d565b91507fffffffffffffffffffffffffffffffffffffffffffffffffffffffffffffffff8214156157cc576157cb615808565b5b600182019050919050565b60006157e28261567d565b91506157ed8361567d565b9250826157fd576157fc615837565b5b828206905092915050565b7f4e487b7100000000000000000000000000000000000000000000000000000000600052601160045260246000fd5b7f4e487b7100000000000000000000000000000000000000000000000000000000600052601260045260246000fd5b7f4e487b7100000000000000000000000000000000000000000000000000000000600052602260045260246000fd5b7f4e487b7100000000000000000000000000000000000000000000000000000000600052604160045260246000fd5b60006158d08254615749565b9050919050565b6000601f19601f8301169050919050565b60008160001c9050919050565b6158fe81615605565b811461590957600080fd5b50565b61591581615617565b811461592057600080fd5b50565b61592c81615623565b811461593757600080fd5b50565b6159438161564f565b811461594e57600080fd5b50565b61595a8161567d565b811461596557600080fd5b5056fe3c73766720786d6c6e733d27687474703a2f2f7777772e77332e6f72672f323030302f7376672720786d6c6e733a786c696e6b3d27687474703a2f2f7777772e77332e6f72672f313939392f786c696e6b272077696474683d273130303027206865696768743d2731303030272076696577426f783d2730203020313030302031303030273e4142434445464748494a4b4c4d4e4f505152535455565758595a6162636465666768696a6b6c6d6e6f707172737475767778797a303132333435363738392b2f3c706174682069643d27706174682d302720643d274d203530342e3238203130352e3631342043203830342e313435203130352e353431203939312e363339203433302e313131203834312e373638203638392e3833362043203639312e383938203934392e353633203331372e303637203934392e363535203136372e3037322036393020432032362e383035203434372e313835203138312e333234203134302e313639203435392e393037203130382e3136205a27207374796c653d2766696c6c3a206e6f6e653b272f3e000000000000000000000000000000000000000000000000000000000000000000000000000000000000003e0000003f3435363738393a3b3c3d00000000000000000102030405060708090a0b0c0d0e0f101112131415161718190000000000001a1b1c1d1e1f202122232425262728292a2b2c2d2e2f303132330000000000a264697066735822122008f13ca2ccc281fdc179372f07819ab783649d955038ed202cea24b5eb1e884164736f6c63430008000033",
  "immutableReferences": {},
  "source": "/*\r\n\r\n     OOOOOOOOO                  GGGGGGGGGGGGG\r\n   OO:::::::::OO             GGG::::::::::::G\r\n OO:::::::::::::OO         GG:::::::::::::::G\r\nO:::::::OOO:::::::O       G:::::GGGGGGGG::::G\r\nO::::::O   O::::::O      G:::::G       GGGGGG\r\nO:::::O     O:::::O     G:::::G              \r\nO:::::O     O:::::O     G:::::G              \r\nO:::::O     O:::::O     G:::::G    GGGGGGGGGG\r\nO:::::O     O:::::O     G:::::G    G::::::::G\r\nO:::::O     O:::::O     G:::::G    GGGGG::::G\r\nO:::::O     O:::::O     G:::::G        G::::G\r\nO::::::O   O::::::O      G:::::G       G::::G\r\nO:::::::OOO:::::::O       G:::::GGGGGGGG::::G\r\n OO:::::::::::::OO         GG:::::::::::::::G\r\n   OO:::::::::OO             GGG::::::GGG:::G\r\n     OOOOOOOOO                  GGGGGG   GGGG\r\n     \r\n*/\r\n\r\n// SPDX-License-Identifier: MIT\r\n\r\npragma solidity 0.8.0;\r\n\r\nimport \"@openzeppelin/contracts/token/ERC721/ERC721.sol\";\r\nimport \"@openzeppelin/contracts/token/ERC721/extensions/ERC721Enumerable.sol\";\r\nimport '@openzeppelin/contracts/token/ERC20/ERC20.sol';\r\nimport '@openzeppelin/contracts/access/Ownable.sol';\r\nimport '@openzeppelin/contracts/utils/Strings.sol';\r\nimport 'base64-sol/base64.sol';\r\nimport './interfaces/GotTokenInterface.sol';\r\nimport './interfaces/OGColorInterface.sol';\r\nimport './libs/Customizer.sol';\r\nimport './libs/Digits.sol';\r\nimport './ERC/HumbleERC721Enumerable.sol';\r\n\r\n/**\r\n * @title OG\r\n * @author nfttank.eth\r\n * OG is a free NFT that I made to thank the whole NFT community for the amazing time and fun I had in the space so far.\r\n * It represents 10000 unique numbers. It is a vector based, on-chain NFT that has been optimized for the lowest possible gas consumption.\r\n */\r\ncontract OG is HumbleERC721Enumerable, Ownable {\r\n\r\n    mapping(address => string) private _supportedSlugs;\r\n    mapping(string => address) private _trustedContracts;\r\n    address[] private _supportedCollections;\r\n    bool private _paused;\r\n    uint16 private _unlockSupply;\r\n    uint256 private _currentId = 12; // increases, starting with 13\r\n    uint256 private _currentDozenId = 13; // decreases, starting with 12\r\n\r\n    constructor() ERC721(\"OG\", \"OG\") Ownable() {\r\n        _trustedContracts[\"gottoken\"] = address(0);\r\n        _trustedContracts[\"ogcolor\"] = address(0);\r\n        _paused = true;\r\n        _unlockSupply = 5000;\r\n    }\r\n\r\n    function setPaused(bool paused) external onlyOwner {\r\n        _paused = paused;\r\n    }\r\n\r\n    function setUnlockSupply(uint16 unlockSupply) external onlyOwner {\r\n         _unlockSupply = unlockSupply;\r\n    }\r\n\r\n    function addSupportedCollection(address contractAddress) external onlyOwner {\r\n         _supportedCollections.push(contractAddress);\r\n    }\r\n\r\n    function clearSupportedCollections() external onlyOwner {\r\n         delete _supportedCollections;\r\n         // delete _supportedSlugs; not required as they can be overwritten with setSupportedCollectionSlug and won't be used if not tracked in _supportedCollections\r\n    }\r\n    \r\n    function setSupportedCollectionSlug(address contractAddress, string calldata svgSlug) external onlyOwner {\r\n        _supportedSlugs[contractAddress] = svgSlug;\r\n    }\r\n\r\n    function setSupportedCollectionSlugBase64(address contractAddress, string calldata base64EncodedSvgSlug) external onlyOwner {\r\n        _supportedSlugs[contractAddress] = string(Base64.decode(base64EncodedSvgSlug));\r\n    }\r\n\r\n    function setTrustedContractAddresses(address gotTokenAddress, address ogColorAddress) external onlyOwner {\r\n        _trustedContracts[\"gottoken\"] = gotTokenAddress;\r\n        _trustedContracts[\"ogcolor\"] = ogColorAddress;\r\n    }\r\n    \r\n    function renderSvg(uint256 tokenId) public virtual view returns (string memory) {\r\n        require(tokenId >= 0 && tokenId <= 9999, \"Token Id invalid\");\r\n        \r\n        (string memory back, string memory frame, string memory digit, string memory slug)\r\n            = Customizer.getColors(this, _trustedContracts[\"ogcolor\"], tokenId);\r\n        \r\n        address supportedCollection = Customizer.getOwnedSupportedCollection(this, _trustedContracts[\"gottoken\"], _supportedCollections, tokenId);\r\n        bool hasCollection = supportedCollection != address(0);\r\n\r\n        string[8] memory parts;\r\n\r\n        parts[0] = \"<svg xmlns='http://www.w3.org/2000/svg' xmlns:xlink='http://www.w3.org/1999/xlink' width='1000' height='1000' viewBox='0 0 1000 1000'>\";\r\n        \r\n        // OGColor delivers whole definitions like <linearGradient id='back'><stop stop-color='#FFAAFF'/></linearGradient>\r\n        parts[1] = string(abi.encodePacked(\"<defs>\", back, frame, digit, slug, \"</defs>\"));\r\n        parts[2] = \"<mask id='_mask'>\";\r\n        \r\n        if (hasCollection)\r\n            parts[3] = \"<path id='path-0' d='M 504.28 105.614 C 804.145 105.541 991.639 430.111 841.768 689.836 C 691.898 949.563 317.067 949.655 167.072 690 C 26.805 447.185 181.324 140.169 459.907 108.16 Z' style='fill: none;'/>\";\r\n        else\r\n            parts[3] = \"\";\r\n            \r\n        // don't apply colors on this string, this should be kept white\r\n        parts[4] = string(abi.encodePacked(\"<circle cx='500' cy='500' r='450' fill='#FFFFFF' stroke='none' /></mask><circle cx='500' cy='500' r='450' fill='url(#back)' mask='url(#_mask)' stroke-width='130' stroke='url(#frame)' stroke-linejoin='miter' stroke-linecap='square' stroke-miterlimit='3' />\"));\r\n\r\n        parts[5] = Digits.generateDigits(tokenId);\r\n          \r\n        if (hasCollection)  \r\n            parts[6] = _supportedSlugs[supportedCollection];\r\n        else\r\n            parts[6] = \"\";\r\n            \r\n        parts[7] = \"</svg>\";\r\n        \r\n        return string(abi.encodePacked(parts[0], parts[1], parts[2], parts[3], parts[4], parts[5], parts[6], parts[7]));\r\n    }\r\n    \r\n    function tokenURI(uint256 tokenId) override public view returns (string memory) {\r\n        require(tokenId >= 0 && tokenId <= 9999, \"Token Id invalid\");\r\n    \r\n        string memory attributes = Customizer.getColorAttributes(this, _trustedContracts[\"ogcolor\"], tokenId);\r\n        attributes = bytes(attributes).length > 0 ? string(abi.encodePacked(attributes, \", \")) : \"\";\r\n        string memory json = Base64.encode(bytes(string(abi.encodePacked('{\"name\": \"OG #', Strings.toString(tokenId), '\", \"description\": \"\" ,', attributes, ' \"image\": \"data:image/svg+xml;base64,', Base64.encode(bytes(renderSvg(tokenId))), '\"}'))));\r\n        return string(abi.encodePacked('data:application/json;base64,', json));\r\n    }\r\n\r\n    function mint(uint16 count) public {\r\n\r\n        require(!_paused, \"Minting is paused\");\r\n        require(_currentId < 9999, \"Maximum amount of sequential mints reached\");\r\n\r\n        address sender = _msgSender();\r\n        \r\n        if (sender != owner()) {\r\n            require(count > 0 && count <= 10, \"Minting is limited to max. 10 per wallet\");\r\n            require(balanceOf(sender) + count <= 10, \"Minting is limited to max. 10 per wallet\");\r\n        }            \r\n\r\n        for (uint16 i = 0; i < count; i++) {\r\n            uint256 newId = ++_currentId;\r\n            if (newId <= 9999) {\r\n                _safeMint(sender, newId);\r\n            }\r\n        }\r\n    }\r\n\r\n    function mintOgDozen() public {\r\n\r\n        require(!_paused, \"Minting is paused\");\r\n        require(canMintOgDozen(), \"Unlock supply has not yet been reached to mint OG dozen tokens.\");\r\n\r\n        require(_currentDozenId > 0+1 && _currentDozenId <= 12+1, \"No OG dozen tokens available anymore\");\r\n\r\n        address sender = _msgSender();\r\n        \r\n        if (sender != owner())\r\n            require(balanceOf(sender) + 1 <= 10, \"Minting is limited to max. 10 per wallet\");\r\n\r\n        _safeMint(sender, --_currentDozenId);\r\n    }\r\n\r\n    function exists(uint256 tokenId) external view returns (bool) {\r\n        return _exists(tokenId);\r\n    }\r\n\r\n    function canMintOgDozen() public view returns (bool) {\r\n        return totalSupply() >= _unlockSupply && !_exists(1);\r\n    }\r\n}",
  "sourcePath": "D:\\Develop\\GitHub\\OG+\\src\\contracts\\OG.sol",
  "compiler": {
    "name": "solc",
    "version": "0.8.0+commit.c7dfd78e.Emscripten.clang"
  },
  "schemaVersion": "3.4.3",
  "updatedAt": "2022-01-31T16:14:56.789Z",
  "networkType": "ethereum",
  "devdoc": {
    "author": "nfttank.eth OG is a free NFT that I made to thank the whole NFT community for the amazing time and fun I had in the space so far. It represents 10000 unique numbers. It is a vector based, on-chain NFT that has been optimized for the lowest possible gas consumption.",
    "kind": "dev",
    "methods": {
      "approve(address,uint256)": {
        "details": "See {IERC721-approve}."
      },
      "balanceOf(address)": {
        "details": "See {IERC721-balanceOf}."
      },
      "getApproved(uint256)": {
        "details": "See {IERC721-getApproved}."
      },
      "isApprovedForAll(address,address)": {
        "details": "See {IERC721-isApprovedForAll}."
      },
      "name()": {
        "details": "See {IERC721Metadata-name}."
      },
      "owner()": {
        "details": "Returns the address of the current owner."
      },
      "ownerOf(uint256)": {
        "details": "See {IERC721-ownerOf}."
      },
      "renounceOwnership()": {
        "details": "Leaves the contract without owner. It will not be possible to call `onlyOwner` functions anymore. Can only be called by the current owner. NOTE: Renouncing ownership will leave the contract without an owner, thereby removing any functionality that is only available to the owner."
      },
      "safeTransferFrom(address,address,uint256)": {
        "details": "See {IERC721-safeTransferFrom}."
      },
      "safeTransferFrom(address,address,uint256,bytes)": {
        "details": "See {IERC721-safeTransferFrom}."
      },
      "setApprovalForAll(address,bool)": {
        "details": "See {IERC721-setApprovalForAll}."
      },
      "supportsInterface(bytes4)": {
        "details": "See {IERC165-supportsInterface}."
      },
      "symbol()": {
        "details": "See {IERC721Metadata-symbol}."
      },
      "tokenByIndex(uint256)": {
        "details": "See {IERC721Enumerable-tokenByIndex}."
      },
      "tokenOfOwnerByIndex(address,uint256)": {
        "details": "See {IERC721Enumerable-tokenOfOwnerByIndex}."
      },
      "tokenURI(uint256)": {
        "details": "See {IERC721Metadata-tokenURI}."
      },
      "totalSupply()": {
        "details": "See {IERC721Enumerable-totalSupply}."
      },
      "transferFrom(address,address,uint256)": {
        "details": "See {IERC721-transferFrom}."
      },
      "transferOwnership(address)": {
        "details": "Transfers ownership of the contract to a new account (`newOwner`). Can only be called by the current owner."
      }
    },
    "title": "OG",
    "version": 1
  },
  "userdoc": {
    "kind": "user",
    "methods": {},
    "version": 1
  }
}