{
  "contractName": "OG",
  "abi": [
    {
      "inputs": [],
      "stateMutability": "nonpayable",
      "type": "constructor"
    },
    {
      "anonymous": false,
      "inputs": [
        {
          "indexed": true,
          "internalType": "address",
          "name": "owner",
          "type": "address"
        },
        {
          "indexed": true,
          "internalType": "address",
          "name": "approved",
          "type": "address"
        },
        {
          "indexed": true,
          "internalType": "uint256",
          "name": "tokenId",
          "type": "uint256"
        }
      ],
      "name": "Approval",
      "type": "event"
    },
    {
      "anonymous": false,
      "inputs": [
        {
          "indexed": true,
          "internalType": "address",
          "name": "owner",
          "type": "address"
        },
        {
          "indexed": true,
          "internalType": "address",
          "name": "operator",
          "type": "address"
        },
        {
          "indexed": false,
          "internalType": "bool",
          "name": "approved",
          "type": "bool"
        }
      ],
      "name": "ApprovalForAll",
      "type": "event"
    },
    {
      "anonymous": false,
      "inputs": [
        {
          "indexed": true,
          "internalType": "address",
          "name": "previousOwner",
          "type": "address"
        },
        {
          "indexed": true,
          "internalType": "address",
          "name": "newOwner",
          "type": "address"
        }
      ],
      "name": "OwnershipTransferred",
      "type": "event"
    },
    {
      "anonymous": false,
      "inputs": [
        {
          "indexed": true,
          "internalType": "address",
          "name": "from",
          "type": "address"
        },
        {
          "indexed": true,
          "internalType": "address",
          "name": "to",
          "type": "address"
        },
        {
          "indexed": true,
          "internalType": "uint256",
          "name": "tokenId",
          "type": "uint256"
        }
      ],
      "name": "Transfer",
      "type": "event"
    },
    {
      "inputs": [
        {
          "internalType": "address",
          "name": "to",
          "type": "address"
        },
        {
          "internalType": "uint256",
          "name": "tokenId",
          "type": "uint256"
        }
      ],
      "name": "approve",
      "outputs": [],
      "stateMutability": "nonpayable",
      "type": "function"
    },
    {
      "inputs": [
        {
          "internalType": "address",
          "name": "owner",
          "type": "address"
        }
      ],
      "name": "balanceOf",
      "outputs": [
        {
          "internalType": "uint256",
          "name": "",
          "type": "uint256"
        }
      ],
      "stateMutability": "view",
      "type": "function",
      "constant": true
    },
    {
      "inputs": [
        {
          "internalType": "uint256",
          "name": "tokenId",
          "type": "uint256"
        }
      ],
      "name": "getApproved",
      "outputs": [
        {
          "internalType": "address",
          "name": "",
          "type": "address"
        }
      ],
      "stateMutability": "view",
      "type": "function",
      "constant": true
    },
    {
      "inputs": [
        {
          "internalType": "address",
          "name": "owner",
          "type": "address"
        },
        {
          "internalType": "address",
          "name": "operator",
          "type": "address"
        }
      ],
      "name": "isApprovedForAll",
      "outputs": [
        {
          "internalType": "bool",
          "name": "",
          "type": "bool"
        }
      ],
      "stateMutability": "view",
      "type": "function",
      "constant": true
    },
    {
      "inputs": [],
      "name": "name",
      "outputs": [
        {
          "internalType": "string",
          "name": "",
          "type": "string"
        }
      ],
      "stateMutability": "view",
      "type": "function",
      "constant": true
    },
    {
      "inputs": [],
      "name": "owner",
      "outputs": [
        {
          "internalType": "address",
          "name": "",
          "type": "address"
        }
      ],
      "stateMutability": "view",
      "type": "function",
      "constant": true
    },
    {
      "inputs": [
        {
          "internalType": "uint256",
          "name": "tokenId",
          "type": "uint256"
        }
      ],
      "name": "ownerOf",
      "outputs": [
        {
          "internalType": "address",
          "name": "",
          "type": "address"
        }
      ],
      "stateMutability": "view",
      "type": "function",
      "constant": true
    },
    {
      "inputs": [],
      "name": "renounceOwnership",
      "outputs": [],
      "stateMutability": "nonpayable",
      "type": "function"
    },
    {
      "inputs": [
        {
          "internalType": "address",
          "name": "from",
          "type": "address"
        },
        {
          "internalType": "address",
          "name": "to",
          "type": "address"
        },
        {
          "internalType": "uint256",
          "name": "tokenId",
          "type": "uint256"
        }
      ],
      "name": "safeTransferFrom",
      "outputs": [],
      "stateMutability": "nonpayable",
      "type": "function"
    },
    {
      "inputs": [
        {
          "internalType": "address",
          "name": "from",
          "type": "address"
        },
        {
          "internalType": "address",
          "name": "to",
          "type": "address"
        },
        {
          "internalType": "uint256",
          "name": "tokenId",
          "type": "uint256"
        },
        {
          "internalType": "bytes",
          "name": "_data",
          "type": "bytes"
        }
      ],
      "name": "safeTransferFrom",
      "outputs": [],
      "stateMutability": "nonpayable",
      "type": "function"
    },
    {
      "inputs": [
        {
          "internalType": "address",
          "name": "operator",
          "type": "address"
        },
        {
          "internalType": "bool",
          "name": "approved",
          "type": "bool"
        }
      ],
      "name": "setApprovalForAll",
      "outputs": [],
      "stateMutability": "nonpayable",
      "type": "function"
    },
    {
      "inputs": [
        {
          "internalType": "bytes4",
          "name": "interfaceId",
          "type": "bytes4"
        }
      ],
      "name": "supportsInterface",
      "outputs": [
        {
          "internalType": "bool",
          "name": "",
          "type": "bool"
        }
      ],
      "stateMutability": "view",
      "type": "function",
      "constant": true
    },
    {
      "inputs": [],
      "name": "symbol",
      "outputs": [
        {
          "internalType": "string",
          "name": "",
          "type": "string"
        }
      ],
      "stateMutability": "view",
      "type": "function",
      "constant": true
    },
    {
      "inputs": [
        {
          "internalType": "uint256",
          "name": "index",
          "type": "uint256"
        }
      ],
      "name": "tokenByIndex",
      "outputs": [
        {
          "internalType": "uint256",
          "name": "",
          "type": "uint256"
        }
      ],
      "stateMutability": "view",
      "type": "function",
      "constant": true
    },
    {
      "inputs": [
        {
          "internalType": "address",
          "name": "owner",
          "type": "address"
        },
        {
          "internalType": "uint256",
          "name": "index",
          "type": "uint256"
        }
      ],
      "name": "tokenOfOwnerByIndex",
      "outputs": [
        {
          "internalType": "uint256",
          "name": "tokenId",
          "type": "uint256"
        }
      ],
      "stateMutability": "view",
      "type": "function",
      "constant": true
    },
    {
      "inputs": [],
      "name": "totalSupply",
      "outputs": [
        {
          "internalType": "uint256",
          "name": "",
          "type": "uint256"
        }
      ],
      "stateMutability": "view",
      "type": "function",
      "constant": true
    },
    {
      "inputs": [
        {
          "internalType": "address",
          "name": "from",
          "type": "address"
        },
        {
          "internalType": "address",
          "name": "to",
          "type": "address"
        },
        {
          "internalType": "uint256",
          "name": "tokenId",
          "type": "uint256"
        }
      ],
      "name": "transferFrom",
      "outputs": [],
      "stateMutability": "nonpayable",
      "type": "function"
    },
    {
      "inputs": [
        {
          "internalType": "address",
          "name": "newOwner",
          "type": "address"
        }
      ],
      "name": "transferOwnership",
      "outputs": [],
      "stateMutability": "nonpayable",
      "type": "function"
    },
    {
      "inputs": [
        {
          "internalType": "bool",
          "name": "paused",
          "type": "bool"
        }
      ],
      "name": "setPaused",
      "outputs": [],
      "stateMutability": "nonpayable",
      "type": "function"
    },
    {
      "inputs": [
        {
          "internalType": "uint16",
          "name": "unlockSupply",
          "type": "uint16"
        }
      ],
      "name": "setUnlockSupply",
      "outputs": [],
      "stateMutability": "nonpayable",
      "type": "function"
    },
    {
      "inputs": [
        {
          "internalType": "address",
          "name": "contractAddress",
          "type": "address"
        }
      ],
      "name": "addSupportedCollection",
      "outputs": [],
      "stateMutability": "nonpayable",
      "type": "function"
    },
    {
      "inputs": [],
      "name": "clearSupportedCollections",
      "outputs": [],
      "stateMutability": "nonpayable",
      "type": "function"
    },
    {
      "inputs": [
        {
          "internalType": "address",
          "name": "contractAddress",
          "type": "address"
        },
        {
          "internalType": "string",
          "name": "base64EncodedSvgSlug",
          "type": "string"
        }
      ],
      "name": "setSupportedCollectionSlug",
      "outputs": [],
      "stateMutability": "nonpayable",
      "type": "function"
    },
    {
      "inputs": [
        {
          "internalType": "address",
          "name": "gotTokenAddress",
          "type": "address"
        },
        {
          "internalType": "address",
          "name": "ogColorAddress",
          "type": "address"
        }
      ],
      "name": "setTrustedContractAddresses",
      "outputs": [],
      "stateMutability": "nonpayable",
      "type": "function"
    },
    {
      "inputs": [
        {
          "internalType": "uint256",
          "name": "tokenId",
          "type": "uint256"
        }
      ],
      "name": "renderSvg",
      "outputs": [
        {
          "internalType": "string",
          "name": "",
          "type": "string"
        }
      ],
      "stateMutability": "view",
      "type": "function",
      "constant": true
    },
    {
      "inputs": [
        {
          "internalType": "uint256",
          "name": "tokenId",
          "type": "uint256"
        }
      ],
      "name": "tokenURI",
      "outputs": [
        {
          "internalType": "string",
          "name": "",
          "type": "string"
        }
      ],
      "stateMutability": "view",
      "type": "function",
      "constant": true
    },
    {
      "inputs": [
        {
          "internalType": "uint256[]",
          "name": "tokenIds",
          "type": "uint256[]"
        }
      ],
      "name": "mint",
      "outputs": [],
      "stateMutability": "nonpayable",
      "type": "function"
    },
    {
      "inputs": [
        {
          "internalType": "uint256",
          "name": "tokenId",
          "type": "uint256"
        }
      ],
      "name": "canMint",
      "outputs": [
        {
          "internalType": "bool",
          "name": "",
          "type": "bool"
        }
      ],
      "stateMutability": "view",
      "type": "function",
      "constant": true
    },
    {
      "inputs": [
        {
          "internalType": "uint16",
          "name": "desiredCount",
          "type": "uint16"
        },
        {
          "internalType": "uint256",
          "name": "seed",
          "type": "uint256"
        }
      ],
      "name": "suggestFreeIds",
      "outputs": [
        {
          "internalType": "uint256[]",
          "name": "",
          "type": "uint256[]"
        }
      ],
      "stateMutability": "view",
      "type": "function",
      "constant": true
    },
    {
      "inputs": [
        {
          "internalType": "uint256",
          "name": "tokenId",
          "type": "uint256"
        }
      ],
      "name": "exists",
      "outputs": [
        {
          "internalType": "bool",
          "name": "",
          "type": "bool"
        }
      ],
      "stateMutability": "view",
      "type": "function",
      "constant": true
    }
  ],
  "bytecode": "0x60806040523480156200001157600080fd5b506040518060400160405280600281526020017f4f470000000000000000000000000000000000000000000000000000000000008152506040518060400160405280600281526020017f4f470000000000000000000000000000000000000000000000000000000000008152508160009080519060200190620000969291906200029c565b508060019080519060200190620000af9291906200029c565b505050620000d2620000c6620001ce60201b60201c565b620001d660201b60201c565b6000600a604051620000e490620003d0565b908152602001604051809103902060006101000a81548173ffffffffffffffffffffffffffffffffffffffff021916908373ffffffffffffffffffffffffffffffffffffffff1602179055506000600a6040516200014290620003e7565b908152602001604051809103902060006101000a81548173ffffffffffffffffffffffffffffffffffffffff021916908373ffffffffffffffffffffffffffffffffffffffff1602179055506001600c60006101000a81548160ff021916908315150217905550611388600c60016101000a81548161ffff021916908361ffff1602179055506200046e565b600033905090565b6000600860009054906101000a900473ffffffffffffffffffffffffffffffffffffffff16905081600860006101000a81548173ffffffffffffffffffffffffffffffffffffffff021916908373ffffffffffffffffffffffffffffffffffffffff1602179055508173ffffffffffffffffffffffffffffffffffffffff168173ffffffffffffffffffffffffffffffffffffffff167f8be0079c531659141344cd1fd0a4f28419497f9722a3daafe3b4186f6b6457e060405160405180910390a35050565b828054620002aa9062000409565b90600052602060002090601f016020900481019282620002ce57600085556200031a565b82601f10620002e957805160ff19168380011785556200031a565b828001600101855582156200031a579182015b8281111562000319578251825591602001919060010190620002fc565b5b5090506200032991906200032d565b5090565b5b80821115620003485760008160009055506001016200032e565b5090565b60006200035b600883620003fe565b91507f676f74746f6b656e0000000000000000000000000000000000000000000000006000830152600882019050919050565b60006200039d600783620003fe565b91507f6f67636f6c6f72000000000000000000000000000000000000000000000000006000830152600782019050919050565b6000620003dd826200034c565b9150819050919050565b6000620003f4826200038e565b9150819050919050565b600081905092915050565b600060028204905060018216806200042257607f821691505b602082108114156200043957620004386200043f565b5b50919050565b7f4e487b7100000000000000000000000000000000000000000000000000000000600052602260045260246000fd5b615d98806200047e6000396000f3fe608060405234801561001057600080fd5b50600436106101da5760003560e01c80635dd871a311610104578063b88d4fde116100a2578063f2fde38b11610071578063f2fde38b14610577578063f8e93ef914610593578063fb397aff146105af578063fd5ad319146105cb576101da565b8063b88d4fde146104f1578063c87b56dd1461050d578063e985e9c51461053d578063edd39ab51461056d576101da565b8063715018a6116100de578063715018a61461048f5780638da5cb5b1461049957806395d89b41146104b7578063a22cb465146104d5576101da565b80635dd871a3146103ff5780636352211e1461042f57806370a082311461045f576101da565b806323b872dd1161017c5780634f558e791161014b5780634f558e79146103535780634f6ccce714610383578063506d9e2b146103b357806353321817146103e3576101da565b806323b872dd146102cf5780632f745c59146102eb57806342842e0e1461031b5780634e2e46d714610337576101da565b8063081812fc116101b8578063081812fc14610249578063095ea7b31461027957806316c38b3c1461029557806318160ddd146102b1576101da565b806301ffc9a7146101df5780630557a8ef1461020f57806306fdde031461022b575b600080fd5b6101f960048036038101906101f49190613f40565b6105fb565b6040516102069190615112565b60405180910390f35b61022960048036038101906102249190614096565b610675565b005b610233610711565b6040516102409190615203565b60405180910390f35b610263600480360381019061025e91906140fb565b6107a3565b6040516102709190615089565b60405180910390f35b610293600480360381019061028e9190613e55565b610828565b005b6102af60048036038101906102aa9190613f17565b610940565b005b6102b96109d9565b6040516102c69190615500565b60405180910390f35b6102e960048036038101906102e49190613cf7565b6109e3565b005b61030560048036038101906103009190613e55565b610a43565b6040516103129190615500565b60405180910390f35b61033560048036038101906103309190613cf7565b610b19565b005b610351600480360381019061034c9190613c69565b610b39565b005b61036d600480360381019061036891906140fb565b610c1b565b60405161037a9190615112565b60405180910390f35b61039d600480360381019061039891906140fb565b610c2d565b6040516103aa9190615500565b60405180910390f35b6103cd60048036038101906103c891906140bf565b610c7b565b6040516103da91906150f0565b60405180910390f35b6103fd60048036038101906103f89190613dfd565b610d1c565b005b610419600480360381019061041491906140fb565b610e3d565b6040516104269190615112565b60405180910390f35b610449600480360381019061044491906140fb565b610f6d565b6040516104569190615089565b60405180910390f35b61047960048036038101906104749190613c69565b61101f565b6040516104869190615500565b60405180910390f35b6104976110d7565b005b6104a161115f565b6040516104ae9190615089565b60405180910390f35b6104bf611189565b6040516104cc9190615203565b60405180910390f35b6104ef60048036038101906104ea9190613dc1565b61121b565b005b61050b60048036038101906105069190613d46565b611231565b005b610527600480360381019061052291906140fb565b611293565b6040516105349190615203565b60405180910390f35b61055760048036038101906105529190613cbb565b611469565b6040516105649190615112565b60405180910390f35b6105756114fd565b005b610591600480360381019061058c9190613c69565b611589565b005b6105ad60048036038101906105a89190613e91565b611681565b005b6105c960048036038101906105c49190613cbb565b611973565b005b6105e560048036038101906105e091906140fb565b611aa9565b6040516105f29190615203565b60405180910390f35b60007f780e9d63000000000000000000000000000000000000000000000000000000007bffffffffffffffffffffffffffffffffffffffffffffffffffffffff1916827bffffffffffffffffffffffffffffffffffffffffffffffffffffffff1916148061066e575061066d82612410565b5b9050919050565b61067d6124f2565b73ffffffffffffffffffffffffffffffffffffffff1661069b61115f565b73ffffffffffffffffffffffffffffffffffffffff16146106f1576040517f08c379a00000000000000000000000000000000000000000000000000000000081526004016106e8906153c5565b60405180910390fd5b80600c60016101000a81548161ffff021916908361ffff16021790555050565b606060008054610720906158fd565b80601f016020809104026020016040519081016040528092919081815260200182805461074c906158fd565b80156107995780601f1061076e57610100808354040283529160200191610799565b820191906000526020600020905b81548152906001019060200180831161077c57829003601f168201915b5050505050905090565b60006107ae826124fa565b6107ed576040517f08c379a00000000000000000000000000000000000000000000000000000000081526004016107e4906153a5565b60405180910390fd5b6004600083815260200190815260200160002060009054906101000a900473ffffffffffffffffffffffffffffffffffffffff169050919050565b600061083382610f6d565b90508073ffffffffffffffffffffffffffffffffffffffff168373ffffffffffffffffffffffffffffffffffffffff1614156108a4576040517f08c379a000000000000000000000000000000000000000000000000000000000815260040161089b90615425565b60405180910390fd5b8073ffffffffffffffffffffffffffffffffffffffff166108c36124f2565b73ffffffffffffffffffffffffffffffffffffffff1614806108f257506108f1816108ec6124f2565b611469565b5b610931576040517f08c379a000000000000000000000000000000000000000000000000000000000815260040161092890615325565b60405180910390fd5b61093b8383612566565b505050565b6109486124f2565b73ffffffffffffffffffffffffffffffffffffffff1661096661115f565b73ffffffffffffffffffffffffffffffffffffffff16146109bc576040517f08c379a00000000000000000000000000000000000000000000000000000000081526004016109b3906153c5565b60405180910390fd5b80600c60006101000a81548160ff02191690831515021790555050565b6000600754905090565b6109f46109ee6124f2565b8261261f565b610a33576040517f08c379a0000000000000000000000000000000000000000000000000000000008152600401610a2a90615465565b60405180910390fd5b610a3e8383836126fd565b505050565b6000610a4e8361101f565b8210610a8f576040517f08c379a0000000000000000000000000000000000000000000000000000000008152600401610a8690615245565b60405180910390fd5b600660008473ffffffffffffffffffffffffffffffffffffffff1673ffffffffffffffffffffffffffffffffffffffff1681526020019081526020016000208281548110610b06577f4e487b7100000000000000000000000000000000000000000000000000000000600052603260045260246000fd5b9060005260206000200154905092915050565b610b3483838360405180602001604052806000815250611231565b505050565b610b416124f2565b73ffffffffffffffffffffffffffffffffffffffff16610b5f61115f565b73ffffffffffffffffffffffffffffffffffffffff1614610bb5576040517f08c379a0000000000000000000000000000000000000000000000000000000008152600401610bac906153c5565b60405180910390fd5b600b819080600181540180825580915050600190039060005260206000200160009091909190916101000a81548173ffffffffffffffffffffffffffffffffffffffff021916908373ffffffffffffffffffffffffffffffffffffffff16021790555050565b6000610c26826124fa565b9050919050565b60006007548210610c73576040517f08c379a0000000000000000000000000000000000000000000000000000000008152600401610c6a906154a5565b60405180910390fd5b819050919050565b606073__Customizer____________________________637af8c19b3085600d612710876040518663ffffffff1660e01b8152600401610cbf9594939291906151b0565b60006040518083038186803b158015610cd757600080fd5b505af4158015610ceb573d6000803e3d6000fd5b505050506040513d6000823e3d601f19601f82011682018060405250810190610d149190613ed6565b905092915050565b610d246124f2565b73ffffffffffffffffffffffffffffffffffffffff16610d4261115f565b73ffffffffffffffffffffffffffffffffffffffff1614610d98576040517f08c379a0000000000000000000000000000000000000000000000000000000008152600401610d8f906153c5565b60405180910390fd5b610de582828080601f016020809104026020016040519081016040528093929190818152602001838380828437600081840152601f19601f82011690508083019250505050505050612959565b600960008573ffffffffffffffffffffffffffffffffffffffff1673ffffffffffffffffffffffffffffffffffffffff1681526020019081526020016000209080519060200190610e379291906138db565b50505050565b6000600c821115610e515760019050610f68565b600c8211158015610e625750600182115b15610e8d57600c60019054906101000a900461ffff1661ffff16610e846109d9565b10159050610f68565b6001821415610f5b57610ea060026124fa565b8015610eb25750610eb160036124fa565b5b8015610ec45750610ec360046124fa565b5b8015610ed65750610ed560056124fa565b5b8015610ee85750610ee760066124fa565b5b8015610efa5750610ef960076124fa565b5b8015610f0c5750610f0b60086124fa565b5b8015610f1e5750610f1d60096124fa565b5b8015610f305750610f2f600a6124fa565b5b8015610f425750610f41600b6124fa565b5b8015610f545750610f53600c6124fa565b5b9050610f68565b610f6560016124fa565b90505b919050565b6000806002600084815260200190815260200160002060009054906101000a900473ffffffffffffffffffffffffffffffffffffffff169050600073ffffffffffffffffffffffffffffffffffffffff168173ffffffffffffffffffffffffffffffffffffffff161415611016576040517f08c379a000000000000000000000000000000000000000000000000000000000815260040161100d90615365565b60405180910390fd5b80915050919050565b60008073ffffffffffffffffffffffffffffffffffffffff168273ffffffffffffffffffffffffffffffffffffffff161415611090576040517f08c379a000000000000000000000000000000000000000000000000000000000815260040161108790615345565b60405180910390fd5b600360008373ffffffffffffffffffffffffffffffffffffffff1673ffffffffffffffffffffffffffffffffffffffff168152602001908152602001600020549050919050565b6110df6124f2565b73ffffffffffffffffffffffffffffffffffffffff166110fd61115f565b73ffffffffffffffffffffffffffffffffffffffff1614611153576040517f08c379a000000000000000000000000000000000000000000000000000000000815260040161114a906153c5565b60405180910390fd5b61115d6000612ba0565b565b6000600860009054906101000a900473ffffffffffffffffffffffffffffffffffffffff16905090565b606060018054611198906158fd565b80601f01602080910402602001604051908101604052809291908181526020018280546111c4906158fd565b80156112115780601f106111e657610100808354040283529160200191611211565b820191906000526020600020905b8154815290600101906020018083116111f457829003601f168201915b5050505050905090565b61122d6112266124f2565b8383612c66565b5050565b61124261123c6124f2565b8361261f565b611281576040517f08c379a000000000000000000000000000000000000000000000000000000000815260040161127890615465565b60405180910390fd5b61128d84848484612dd3565b50505050565b6060600082101580156112a8575061270f8211155b6112e7576040517f08c379a00000000000000000000000000000000000000000000000000000000081526004016112de90615405565b60405180910390fd5b600073__Customizer____________________________63eac15a4b30600a60405161131290614f8c565b908152602001604051809103902060009054906101000a900473ffffffffffffffffffffffffffffffffffffffff16866040518463ffffffff1660e01b815260040161136093929190615179565b60006040518083038186803b15801561137857600080fd5b505af415801561138c573d6000803e3d6000fd5b505050506040513d6000823e3d601f19601f820116820180604052508101906113b59190613f92565b905060008151116113d557604051806020016040528060008152506113f6565b806040516020016113e69190614f55565b6040516020818303038152906040525b9050600061143e61140685612e2f565b8361141861141388611aa9565b612fdc565b60405160200161142a9392919061502c565b604051602081830303815290604052612fdc565b9050806040516020016114519190614fa1565b60405160208183030381529060405292505050919050565b6000600560008473ffffffffffffffffffffffffffffffffffffffff1673ffffffffffffffffffffffffffffffffffffffff16815260200190815260200160002060008373ffffffffffffffffffffffffffffffffffffffff1673ffffffffffffffffffffffffffffffffffffffff16815260200190815260200160002060009054906101000a900460ff16905092915050565b6115056124f2565b73ffffffffffffffffffffffffffffffffffffffff1661152361115f565b73ffffffffffffffffffffffffffffffffffffffff1614611579576040517f08c379a0000000000000000000000000000000000000000000000000000000008152600401611570906153c5565b60405180910390fd5b600b60006115879190613961565b565b6115916124f2565b73ffffffffffffffffffffffffffffffffffffffff166115af61115f565b73ffffffffffffffffffffffffffffffffffffffff1614611605576040517f08c379a00000000000000000000000000000000000000000000000000000000081526004016115fc906153c5565b60405180910390fd5b600073ffffffffffffffffffffffffffffffffffffffff168173ffffffffffffffffffffffffffffffffffffffff161415611675576040517f08c379a000000000000000000000000000000000000000000000000000000000815260040161166c90615285565b60405180910390fd5b61167e81612ba0565b50565b600c60009054906101000a900460ff16156116d1576040517f08c379a00000000000000000000000000000000000000000000000000000000081526004016116c890615485565b60405180910390fd5b60006116db6124f2565b90506116e561115f565b73ffffffffffffffffffffffffffffffffffffffff168173ffffffffffffffffffffffffffffffffffffffff161461177257600a838390506117268361101f565b6117309190615692565b1115611771576040517f08c379a0000000000000000000000000000000000000000000000000000000008152600401611768906154c5565b60405180910390fd5b5b60005b838390508161ffff1610156118fa57600084848361ffff168181106117c3577f4e487b7100000000000000000000000000000000000000000000000000000000600052603260045260246000fd5b905060200201351015801561181d575061270f84848361ffff16818110611813577f4e487b7100000000000000000000000000000000000000000000000000000000600052603260045260246000fd5b9050602002013511155b61185c576040517f08c379a000000000000000000000000000000000000000000000000000000000815260040161185390615405565b60405180910390fd5b6118a884848361ffff1681811061189c577f4e487b7100000000000000000000000000000000000000000000000000000000600052603260045260246000fd5b90506020020135610e3d565b6118e7576040517f08c379a00000000000000000000000000000000000000000000000000000000081526004016118de90615225565b60405180910390fd5b80806118f290615949565b915050611775565b5060005b838390508161ffff16101561196d5761195a8285858461ffff1681811061194e577f4e487b7100000000000000000000000000000000000000000000000000000000600052603260045260246000fd5b9050602002013561317b565b808061196590615949565b9150506118fe565b50505050565b61197b6124f2565b73ffffffffffffffffffffffffffffffffffffffff1661199961115f565b73ffffffffffffffffffffffffffffffffffffffff16146119ef576040517f08c379a00000000000000000000000000000000000000000000000000000000081526004016119e6906153c5565b60405180910390fd5b81600a6040516119fe90614f77565b908152602001604051809103902060006101000a81548173ffffffffffffffffffffffffffffffffffffffff021916908373ffffffffffffffffffffffffffffffffffffffff16021790555080600a604051611a5990614f8c565b908152602001604051809103902060006101000a81548173ffffffffffffffffffffffffffffffffffffffff021916908373ffffffffffffffffffffffffffffffffffffffff1602179055505050565b606060008210158015611abe575061270f8211155b611afd576040517f08c379a0000000000000000000000000000000000000000000000000000000008152600401611af490615405565b60405180910390fd5b60008060008073__Customizer____________________________63bda93c9a30600a604051611b2c90614f8c565b908152602001604051809103902060009054906101000a900473ffffffffffffffffffffffffffffffffffffffff16896040518463ffffffff1660e01b8152600401611b7a93929190615179565b60006040518083038186803b158015611b9257600080fd5b505af4158015611ba6573d6000803e3d6000fd5b505050506040513d6000823e3d601f19601f82011682018060405250810190611bcf9190613fd3565b9350935093509350600073__Customizer____________________________637308eca430600a604051611c0290614f77565b908152602001604051809103902060009054906101000a900473ffffffffffffffffffffffffffffffffffffffff16600b8b6040518563ffffffff1660e01b8152600401611c53949392919061512d565b60206040518083038186803b158015611c6b57600080fd5b505af4158015611c7f573d6000803e3d6000fd5b505050506040513d601f19601f82011682018060405250810190611ca39190613c92565b905060008073ffffffffffffffffffffffffffffffffffffffff168273ffffffffffffffffffffffffffffffffffffffff1614159050611ce1613982565b6040518060c0016040528060868152602001615b4f6086913981600060088110611d34577f4e487b7100000000000000000000000000000000000000000000000000000000600052603260045260246000fd5b602002018190525086868686604051602001611d539493929190614fd8565b60405160208183030381529060405281600160088110611d9c577f4e487b7100000000000000000000000000000000000000000000000000000000600052603260045260246000fd5b60200201819052506040518060400160405280601181526020017f3c6d61736b2069643d275f6d61736b273e00000000000000000000000000000081525081600260088110611e14577f4e487b7100000000000000000000000000000000000000000000000000000000600052603260045260246000fd5b60200201819052508115611e835760405180610100016040528060ce8152602001615c1560ce913981600360088110611e76577f4e487b7100000000000000000000000000000000000000000000000000000000600052603260045260246000fd5b6020020181905250611ed6565b6040518060200160405280600081525081600360088110611ecd577f4e487b7100000000000000000000000000000000000000000000000000000000600052603260045260246000fd5b60200201819052505b604051602001611ee590614fc3565b60405160208183030381529060405281600460088110611f2e577f4e487b7100000000000000000000000000000000000000000000000000000000600052603260045260246000fd5b602002018190525073__Digits________________________________63f1fb19db8a6040518263ffffffff1660e01b8152600401611f6d91906154e5565b60006040518083038186803b158015611f8557600080fd5b505af4158015611f99573d6000803e3d6000fd5b505050506040513d6000823e3d601f19601f82011682018060405250810190611fc29190613f92565b81600560088110611ffc577f4e487b7100000000000000000000000000000000000000000000000000000000600052603260045260246000fd5b6020020181905250811561211957600960008473ffffffffffffffffffffffffffffffffffffffff1673ffffffffffffffffffffffffffffffffffffffff1681526020019081526020016000208054612054906158fd565b80601f0160208091040260200160405190810160405280929190818152602001828054612080906158fd565b80156120cd5780601f106120a2576101008083540402835291602001916120cd565b820191906000526020600020905b8154815290600101906020018083116120b057829003601f168201915b50505050508160066008811061210c577f4e487b7100000000000000000000000000000000000000000000000000000000600052603260045260246000fd5b602002018190525061216c565b6040518060200160405280600081525081600660088110612163577f4e487b7100000000000000000000000000000000000000000000000000000000600052603260045260246000fd5b60200201819052505b6040518060400160405280600681526020017f3c2f7376673e0000000000000000000000000000000000000000000000000000815250816007600881106121dc577f4e487b7100000000000000000000000000000000000000000000000000000000600052603260045260246000fd5b60200201819052508060006008811061221e577f4e487b7100000000000000000000000000000000000000000000000000000000600052603260045260246000fd5b60200201518160016008811061225d577f4e487b7100000000000000000000000000000000000000000000000000000000600052603260045260246000fd5b60200201518260026008811061229c577f4e487b7100000000000000000000000000000000000000000000000000000000600052603260045260246000fd5b6020020151836003600881106122db577f4e487b7100000000000000000000000000000000000000000000000000000000600052603260045260246000fd5b60200201518460046008811061231a577f4e487b7100000000000000000000000000000000000000000000000000000000600052603260045260246000fd5b602002015185600560088110612359577f4e487b7100000000000000000000000000000000000000000000000000000000600052603260045260246000fd5b602002015186600660088110612398577f4e487b7100000000000000000000000000000000000000000000000000000000600052603260045260246000fd5b6020020151876007600881106123d7577f4e487b7100000000000000000000000000000000000000000000000000000000600052603260045260246000fd5b60200201516040516020016123f3989796959493929190614ee3565b604051602081830303815290604052975050505050505050919050565b60007f80ac58cd000000000000000000000000000000000000000000000000000000007bffffffffffffffffffffffffffffffffffffffffffffffffffffffff1916827bffffffffffffffffffffffffffffffffffffffffffffffffffffffff191614806124db57507f5b5e139f000000000000000000000000000000000000000000000000000000007bffffffffffffffffffffffffffffffffffffffffffffffffffffffff1916827bffffffffffffffffffffffffffffffffffffffffffffffffffffffff1916145b806124eb57506124ea82613199565b5b9050919050565b600033905090565b60008073ffffffffffffffffffffffffffffffffffffffff166002600084815260200190815260200160002060009054906101000a900473ffffffffffffffffffffffffffffffffffffffff1673ffffffffffffffffffffffffffffffffffffffff1614159050919050565b816004600083815260200190815260200160002060006101000a81548173ffffffffffffffffffffffffffffffffffffffff021916908373ffffffffffffffffffffffffffffffffffffffff160217905550808273ffffffffffffffffffffffffffffffffffffffff166125d983610f6d565b73ffffffffffffffffffffffffffffffffffffffff167f8c5be1e5ebec7d5bd14f71427d1e84f3dd0314c0f7b2291e5b200ac8c7c3b92560405160405180910390a45050565b600061262a826124fa565b612669576040517f08c379a000000000000000000000000000000000000000000000000000000000815260040161266090615305565b60405180910390fd5b600061267483610f6d565b90508073ffffffffffffffffffffffffffffffffffffffff168473ffffffffffffffffffffffffffffffffffffffff1614806126e357508373ffffffffffffffffffffffffffffffffffffffff166126cb846107a3565b73ffffffffffffffffffffffffffffffffffffffff16145b806126f457506126f38185611469565b5b91505092915050565b8273ffffffffffffffffffffffffffffffffffffffff1661271d82610f6d565b73ffffffffffffffffffffffffffffffffffffffff1614612773576040517f08c379a000000000000000000000000000000000000000000000000000000000815260040161276a906153e5565b60405180910390fd5b600073ffffffffffffffffffffffffffffffffffffffff168273ffffffffffffffffffffffffffffffffffffffff1614156127e3576040517f08c379a00000000000000000000000000000000000000000000000000000000081526004016127da906152c5565b60405180910390fd5b6127ee838383613203565b6127f9600082612566565b6001600360008573ffffffffffffffffffffffffffffffffffffffff1673ffffffffffffffffffffffffffffffffffffffff16815260200190815260200160002060008282546128499190615773565b925050819055506001600360008473ffffffffffffffffffffffffffffffffffffffff1673ffffffffffffffffffffffffffffffffffffffff16815260200190815260200160002060008282546128a09190615692565b92505081905550816002600083815260200190815260200160002060006101000a81548173ffffffffffffffffffffffffffffffffffffffff021916908373ffffffffffffffffffffffffffffffffffffffff160217905550808273ffffffffffffffffffffffffffffffffffffffff168473ffffffffffffffffffffffffffffffffffffffff167fddf252ad1be2c89b69c2b068fc378daa952ba7f163c4a11628f55a4df523b3ef60405160405180910390a4505050565b606060008290506000815114156129e657600067ffffffffffffffff8111156129ab577f4e487b7100000000000000000000000000000000000000000000000000000000600052604160045260246000fd5b6040519080825280601f01601f1916602001820160405280156129dd5781602001600182028036833780820191505090505b50915050612b9b565b6000600482516129f691906159bd565b14612a36576040517f08c379a0000000000000000000000000000000000000000000000000000000008152600401612a2d90615445565b60405180910390fd5b60006040518060a0016040528060808152602001615ce36080913990506000600360048451612a6591906156e8565b612a6f9190615719565b90506000602082612a809190615692565b67ffffffffffffffff811115612abf577f4e487b7100000000000000000000000000000000000000000000000000000000600052604160045260246000fd5b6040519080825280601f01601f191660200182016040528015612af15781602001600182028036833780820191505090505b5090508351840151603d60ff82161415612b2157600183039250613d3d61ffff82161415612b20576001830392505b5b828252600184018586518101602085015b81831015612b8e57600483019250825160ff8082168601511660ff808360081c168701511660061b0160ff808360101c1687015116600c1b60ff808460181c168801511660121b01018060e81b83526003830192505050612b32565b5050505050809450505050505b919050565b6000600860009054906101000a900473ffffffffffffffffffffffffffffffffffffffff16905081600860006101000a81548173ffffffffffffffffffffffffffffffffffffffff021916908373ffffffffffffffffffffffffffffffffffffffff1602179055508173ffffffffffffffffffffffffffffffffffffffff168173ffffffffffffffffffffffffffffffffffffffff167f8be0079c531659141344cd1fd0a4f28419497f9722a3daafe3b4186f6b6457e060405160405180910390a35050565b8173ffffffffffffffffffffffffffffffffffffffff168373ffffffffffffffffffffffffffffffffffffffff161415612cd5576040517f08c379a0000000000000000000000000000000000000000000000000000000008152600401612ccc906152e5565b60405180910390fd5b80600560008573ffffffffffffffffffffffffffffffffffffffff1673ffffffffffffffffffffffffffffffffffffffff16815260200190815260200160002060008473ffffffffffffffffffffffffffffffffffffffff1673ffffffffffffffffffffffffffffffffffffffff16815260200190815260200160002060006101000a81548160ff0219169083151502179055508173ffffffffffffffffffffffffffffffffffffffff168373ffffffffffffffffffffffffffffffffffffffff167f17307eab39ab6107e8899845ad3d59bd9653f200f220920489ca2b5937696c3183604051612dc69190615112565b60405180910390a3505050565b612dde8484846126fd565b612dea84848484613508565b612e29576040517f08c379a0000000000000000000000000000000000000000000000000000000008152600401612e2090615265565b60405180910390fd5b50505050565b60606000821415612e77576040518060400160405280600181526020017f30000000000000000000000000000000000000000000000000000000000000008152509050612fd7565b600082905060005b60008214612ea9578080612e9290615974565b915050600a82612ea291906156e8565b9150612e7f565b60008167ffffffffffffffff811115612eeb577f4e487b7100000000000000000000000000000000000000000000000000000000600052604160045260246000fd5b6040519080825280601f01601f191660200182016040528015612f1d5781602001600182028036833780820191505090505b5090505b60008514612fd057600182612f369190615773565b9150600a85612f4591906159bd565b6030612f519190615692565b60f81b818381518110612f8d577f4e487b7100000000000000000000000000000000000000000000000000000000600052603260045260246000fd5b60200101907effffffffffffffffffffffffffffffffffffffffffffffffffffffffffffff1916908160001a905350600a85612fc991906156e8565b9450612f21565b8093505050505b919050565b6060600082511415612fff57604051806020016040528060008152509050613176565b6000604051806060016040528060408152602001615bd5604091399050600060036002855161302e9190615692565b61303891906156e8565b60046130449190615719565b905060006020826130559190615692565b67ffffffffffffffff811115613094577f4e487b7100000000000000000000000000000000000000000000000000000000600052604160045260246000fd5b6040519080825280601f01601f1916602001820160405280156130c65781602001600182028036833780820191505090505b509050818152600183018586518101602084015b81831015613135576003830192508251603f8160121c168501518253600182019150603f81600c1c168501518253600182019150603f8160061c168501518253600182019150603f81168501518253600182019150506130da565b60038951066001811461314f576002811461315f5761316a565b613d3d60f01b600283035261316a565b603d60f81b60018303525b50505050508093505050505b919050565b61319582826040518060200160405280600081525061369f565b5050565b60007f01ffc9a7000000000000000000000000000000000000000000000000000000007bffffffffffffffffffffffffffffffffffffffffffffffffffffffff1916827bffffffffffffffffffffffffffffffffffffffffffffffffffffffff1916149050919050565b60008073ffffffffffffffffffffffffffffffffffffffff168473ffffffffffffffffffffffffffffffffffffffff1614905060008073ffffffffffffffffffffffffffffffffffffffff168473ffffffffffffffffffffffffffffffffffffffff16148061329f575061dead73ffffffffffffffffffffffffffffffffffffffff168473ffffffffffffffffffffffffffffffffffffffff16145b905081613452576000600660008773ffffffffffffffffffffffffffffffffffffffff1673ffffffffffffffffffffffffffffffffffffffff168152602001908152602001600020905060005b81805490508161ffff16101561344f5784828261ffff168154811061333a577f4e487b7100000000000000000000000000000000000000000000000000000000600052603260045260246000fd5b9060005260206000200154141561343c57816001838054905061335d9190615773565b81548110613394577f4e487b7100000000000000000000000000000000000000000000000000000000600052603260045260246000fd5b9060005260206000200154828261ffff16815481106133dc577f4e487b7100000000000000000000000000000000000000000000000000000000600052603260045260246000fd5b906000526020600020018190555081805480613421577f4e487b7100000000000000000000000000000000000000000000000000000000600052603160045260246000fd5b6001900381819060005260206000200160009055905561344f565b808061344790615949565b9150506132ec565b50505b806134be57600660008573ffffffffffffffffffffffffffffffffffffffff1673ffffffffffffffffffffffffffffffffffffffff1681526020019081526020016000208390806001815401808255809150506001900390600052602060002001600090919091909150555b81156134e157600760008154809291906134d790615974565b9190505550613501565b801561350057600760008154809291906134fa906158d3565b91905055505b5b5050505050565b60006135298473ffffffffffffffffffffffffffffffffffffffff166136fa565b15613692578373ffffffffffffffffffffffffffffffffffffffff1663150b7a026135526124f2565b8786866040518563ffffffff1660e01b815260040161357494939291906150a4565b602060405180830381600087803b15801561358e57600080fd5b505af19250505080156135bf57506040513d601f19601f820116820180604052508101906135bc9190613f69565b60015b613642573d80600081146135ef576040519150601f19603f3d011682016040523d82523d6000602084013e6135f4565b606091505b5060008151141561363a576040517f08c379a000000000000000000000000000000000000000000000000000000000815260040161363190615265565b60405180910390fd5b805181602001fd5b63150b7a0260e01b7bffffffffffffffffffffffffffffffffffffffffffffffffffffffff1916817bffffffffffffffffffffffffffffffffffffffffffffffffffffffff191614915050613697565b600190505b949350505050565b6136a9838361370d565b6136b66000848484613508565b6136f5576040517f08c379a00000000000000000000000000000000000000000000000000000000081526004016136ec90615265565b60405180910390fd5b505050565b600080823b905060008111915050919050565b600073ffffffffffffffffffffffffffffffffffffffff168273ffffffffffffffffffffffffffffffffffffffff16141561377d576040517f08c379a000000000000000000000000000000000000000000000000000000000815260040161377490615385565b60405180910390fd5b613786816124fa565b156137c6576040517f08c379a00000000000000000000000000000000000000000000000000000000081526004016137bd906152a5565b60405180910390fd5b6137d260008383613203565b6001600360008473ffffffffffffffffffffffffffffffffffffffff1673ffffffffffffffffffffffffffffffffffffffff16815260200190815260200160002060008282546138229190615692565b92505081905550816002600083815260200190815260200160002060006101000a81548173ffffffffffffffffffffffffffffffffffffffff021916908373ffffffffffffffffffffffffffffffffffffffff160217905550808273ffffffffffffffffffffffffffffffffffffffff16600073ffffffffffffffffffffffffffffffffffffffff167fddf252ad1be2c89b69c2b068fc378daa952ba7f163c4a11628f55a4df523b3ef60405160405180910390a45050565b8280546138e7906158fd565b90600052602060002090601f0160209004810192826139095760008555613950565b82601f1061392257805160ff1916838001178555613950565b82800160010185558215613950579182015b8281111561394f578251825591602001919060010190613934565b5b50905061395d91906139aa565b5090565b508054600082559060005260206000209081019061397f91906139aa565b50565b6040518061010001604052806008905b60608152602001906001900390816139925790505090565b5b808211156139c35760008160009055506001016139ab565b5090565b60006139da6139d58461554c565b61551b565b905080838252602082019050828560208602820111156139f957600080fd5b60005b85811015613a295781613a0f8882613c54565b8452602084019350602083019250506001810190506139fc565b5050509392505050565b6000613a46613a4184615578565b61551b565b905082815260208101848484011115613a5e57600080fd5b613a69848285615891565b509392505050565b6000613a84613a7f846155a8565b61551b565b905082815260208101848484011115613a9c57600080fd5b613aa78482856158a0565b509392505050565b600081359050613abe81615adb565b92915050565b600081519050613ad381615adb565b92915050565b60008083601f840112613aeb57600080fd5b8235905067ffffffffffffffff811115613b0457600080fd5b602083019150836020820283011115613b1c57600080fd5b9250929050565b600082601f830112613b3457600080fd5b8151613b448482602086016139c7565b91505092915050565b600081359050613b5c81615af2565b92915050565b600081359050613b7181615b09565b92915050565b600081519050613b8681615b09565b92915050565b600082601f830112613b9d57600080fd5b8135613bad848260208601613a33565b91505092915050565b60008083601f840112613bc857600080fd5b8235905067ffffffffffffffff811115613be157600080fd5b602083019150836001820283011115613bf957600080fd5b9250929050565b600082601f830112613c1157600080fd5b8151613c21848260208601613a71565b91505092915050565b600081359050613c3981615b20565b92915050565b600081359050613c4e81615b37565b92915050565b600081519050613c6381615b37565b92915050565b600060208284031215613c7b57600080fd5b6000613c8984828501613aaf565b91505092915050565b600060208284031215613ca457600080fd5b6000613cb284828501613ac4565b91505092915050565b60008060408385031215613cce57600080fd5b6000613cdc85828601613aaf565b9250506020613ced85828601613aaf565b9150509250929050565b600080600060608486031215613d0c57600080fd5b6000613d1a86828701613aaf565b9350506020613d2b86828701613aaf565b9250506040613d3c86828701613c3f565b9150509250925092565b60008060008060808587031215613d5c57600080fd5b6000613d6a87828801613aaf565b9450506020613d7b87828801613aaf565b9350506040613d8c87828801613c3f565b925050606085013567ffffffffffffffff811115613da957600080fd5b613db587828801613b8c565b91505092959194509250565b60008060408385031215613dd457600080fd5b6000613de285828601613aaf565b9250506020613df385828601613b4d565b9150509250929050565b600080600060408486031215613e1257600080fd5b6000613e2086828701613aaf565b935050602084013567ffffffffffffffff811115613e3d57600080fd5b613e4986828701613bb6565b92509250509250925092565b60008060408385031215613e6857600080fd5b6000613e7685828601613aaf565b9250506020613e8785828601613c3f565b9150509250929050565b60008060208385031215613ea457600080fd5b600083013567ffffffffffffffff811115613ebe57600080fd5b613eca85828601613ad9565b92509250509250929050565b600060208284031215613ee857600080fd5b600082015167ffffffffffffffff811115613f0257600080fd5b613f0e84828501613b23565b91505092915050565b600060208284031215613f2957600080fd5b6000613f3784828501613b4d565b91505092915050565b600060208284031215613f5257600080fd5b6000613f6084828501613b62565b91505092915050565b600060208284031215613f7b57600080fd5b6000613f8984828501613b77565b91505092915050565b600060208284031215613fa457600080fd5b600082015167ffffffffffffffff811115613fbe57600080fd5b613fca84828501613c00565b91505092915050565b60008060008060808587031215613fe957600080fd5b600085015167ffffffffffffffff81111561400357600080fd5b61400f87828801613c00565b945050602085015167ffffffffffffffff81111561402c57600080fd5b61403887828801613c00565b935050604085015167ffffffffffffffff81111561405557600080fd5b61406187828801613c00565b925050606085015167ffffffffffffffff81111561407e57600080fd5b61408a87828801613c00565b91505092959194509250565b6000602082840312156140a857600080fd5b60006140b684828501613c2a565b91505092915050565b600080604083850312156140d257600080fd5b60006140e085828601613c2a565b92505060206140f185828601613c3f565b9150509250929050565b60006020828403121561410d57600080fd5b600061411b84828501613c3f565b91505092915050565b60006141308383614172565b60208301905092915050565b60006141488383614eb6565b60208301905092915050565b61415d816157c7565b82525050565b61416c816157c7565b82525050565b61417b816157c7565b82525050565b600061418c826155fd565b6141968185615643565b93506141a1836155d8565b8060005b838110156141d9576141b682615aaa565b6141c08882614124565b97506141cb83615629565b9250506001810190506141a5565b5085935050505092915050565b60006141f182615608565b6141fb8185615654565b9350614206836155ed565b8060005b8381101561423757815161421e888261413c565b975061422983615636565b92505060018101905061420a565b5085935050505092915050565b61424d816157d9565b82525050565b600061425e82615613565b6142688185615665565b93506142788185602086016158a0565b61428181615abd565b840191505092915050565b61429581615849565b82525050565b6142a48161586d565b82525050565b6142b38161587f565b82525050565b60006142c48261561e565b6142ce8185615676565b93506142de8185602086016158a0565b6142e781615abd565b840191505092915050565b60006142fd8261561e565b6143078185615687565b93506143178185602086016158a0565b80840191505092915050565b6000614330601483615676565b91507f43616e2774206d696e7420746f6b656e207965740000000000000000000000006000830152602082019050919050565b6000614370601683615687565b91507f222c20226465736372697074696f6e223a202222202c000000000000000000006000830152601682019050919050565b60006143b0602b83615676565b91507f455243373231456e756d657261626c653a206f776e657220696e646578206f7560008301527f74206f6620626f756e64730000000000000000000000000000000000000000006020830152604082019050919050565b6000614416603283615676565b91507f4552433732313a207472616e7366657220746f206e6f6e20455243373231526560008301527f63656976657220696d706c656d656e74657200000000000000000000000000006020830152604082019050919050565b600061447c602683615676565b91507f4f776e61626c653a206e6577206f776e657220697320746865207a65726f206160008301527f64647265737300000000000000000000000000000000000000000000000000006020830152604082019050919050565b60006144e2601c83615676565b91507f4552433732313a20746f6b656e20616c7265616479206d696e746564000000006000830152602082019050919050565b6000614522600883615687565b91507f676f74746f6b656e0000000000000000000000000000000000000000000000006000830152600882019050919050565b6000614562602483615676565b91507f4552433732313a207472616e7366657220746f20746865207a65726f2061646460008301527f72657373000000000000000000000000000000000000000000000000000000006020830152604082019050919050565b60006145c8601983615676565b91507f4552433732313a20617070726f766520746f2063616c6c6572000000000000006000830152602082019050919050565b6000614608602583615687565b91507f2022696d616765223a2022646174613a696d6167652f7376672b786d6c3b626160008301527f736536342c0000000000000000000000000000000000000000000000000000006020830152602582019050919050565b600061466e602c83615676565b91507f4552433732313a206f70657261746f7220717565727920666f72206e6f6e657860008301527f697374656e7420746f6b656e00000000000000000000000000000000000000006020830152604082019050919050565b60006146d4600783615687565b91507f6f67636f6c6f72000000000000000000000000000000000000000000000000006000830152600782019050919050565b6000614714603883615676565b91507f4552433732313a20617070726f76652063616c6c6572206973206e6f74206f7760008301527f6e6572206e6f7220617070726f76656420666f7220616c6c00000000000000006020830152604082019050919050565b600061477a602a83615676565b91507f4552433732313a2062616c616e636520717565727920666f7220746865207a6560008301527f726f2061646472657373000000000000000000000000000000000000000000006020830152604082019050919050565b60006147e0602983615676565b91507f4552433732313a206f776e657220717565727920666f72206e6f6e657869737460008301527f656e7420746f6b656e00000000000000000000000000000000000000000000006020830152604082019050919050565b6000614846600283615687565b91507f227d0000000000000000000000000000000000000000000000000000000000006000830152600282019050919050565b6000614886602083615676565b91507f4552433732313a206d696e7420746f20746865207a65726f20616464726573736000830152602082019050919050565b60006148c6602c83615676565b91507f4552433732313a20617070726f76656420717565727920666f72206e6f6e657860008301527f697374656e7420746f6b656e00000000000000000000000000000000000000006020830152604082019050919050565b600061492c602083615676565b91507f4f776e61626c653a2063616c6c6572206973206e6f7420746865206f776e65726000830152602082019050919050565b600061496c602983615676565b91507f4552433732313a207472616e73666572206f6620746f6b656e2074686174206960008301527f73206e6f74206f776e00000000000000000000000000000000000000000000006020830152604082019050919050565b60006149d2601083615676565b91507f546f6b656e20496420696e76616c6964000000000000000000000000000000006000830152602082019050919050565b6000614a12602183615676565b91507f4552433732313a20617070726f76616c20746f2063757272656e74206f776e6560008301527f72000000000000000000000000000000000000000000000000000000000000006020830152604082019050919050565b6000614a78601c83615676565b91507f696e76616c696420626173653634206465636f64657220696e707574000000006000830152602082019050919050565b6000614ab8600283615687565b91507f2c200000000000000000000000000000000000000000000000000000000000006000830152600282019050919050565b6000614af8601d83615687565b91507f646174613a6170706c69636174696f6e2f6a736f6e3b6261736536342c0000006000830152601d82019050919050565b6000614b38600783615687565b91507f3c2f646566733e000000000000000000000000000000000000000000000000006000830152600782019050919050565b6000614b7860ff83615687565b91507f3c636972636c652063783d27353030272063793d273530302720723d2734353060008301527f272066696c6c3d272346464646464627207374726f6b653d276e6f6e6527202f60208301527f3e3c2f6d61736b3e3c636972636c652063783d27353030272063793d2735303060408301527f2720723d27343530272066696c6c3d2775726c28236261636b2927206d61736b60608301527f3d2775726c28235f6d61736b2927207374726f6b652d77696474683d2731333060808301527f27207374726f6b653d2775726c28236672616d652927207374726f6b652d6c6960a08301527f6e656a6f696e3d276d6974657227207374726f6b652d6c696e656361703d277360c08301527f717561726527207374726f6b652d6d697465726c696d69743d273327202f3e0060e083015260ff82019050919050565b6000614cc2603183615676565b91507f4552433732313a207472616e736665722063616c6c6572206973206e6f74206f60008301527f776e6572206e6f7220617070726f7665640000000000000000000000000000006020830152604082019050919050565b6000614d28601183615676565b91507f4d696e74696e67206973207061757365640000000000000000000000000000006000830152602082019050919050565b6000614d68600683615687565b91507f3c646566733e00000000000000000000000000000000000000000000000000006000830152600682019050919050565b6000614da8602c83615676565b91507f455243373231456e756d657261626c653a20676c6f62616c20696e646578206f60008301527f7574206f6620626f756e647300000000000000000000000000000000000000006020830152604082019050919050565b6000614e0e602883615676565b91507f4d696e74696e67206973206c696d6974656420746f206d61782e20313020706560008301527f722077616c6c65740000000000000000000000000000000000000000000000006020830152604082019050919050565b6000614e74600e83615687565b91507f7b226e616d65223a20224f4720230000000000000000000000000000000000006000830152600e82019050919050565b614eb081615811565b82525050565b614ebf8161583f565b82525050565b614ece8161583f565b82525050565b614edd8161583f565b82525050565b6000614eef828b6142f2565b9150614efb828a6142f2565b9150614f0782896142f2565b9150614f1382886142f2565b9150614f1f82876142f2565b9150614f2b82866142f2565b9150614f3782856142f2565b9150614f4382846142f2565b91508190509998505050505050505050565b6000614f6182846142f2565b9150614f6c82614aab565b915081905092915050565b6000614f8282614515565b9150819050919050565b6000614f97826146c7565b9150819050919050565b6000614fac82614aeb565b9150614fb882846142f2565b915081905092915050565b6000614fce82614b6b565b9150819050919050565b6000614fe382614d5b565b9150614fef82876142f2565b9150614ffb82866142f2565b915061500782856142f2565b915061501382846142f2565b915061501e82614b2b565b915081905095945050505050565b600061503782614e67565b915061504382866142f2565b915061504e82614363565b915061505a82856142f2565b9150615065826145fb565b915061507182846142f2565b915061507c82614839565b9150819050949350505050565b600060208201905061509e6000830184614154565b92915050565b60006080820190506150b96000830187614154565b6150c66020830186614154565b6150d36040830185614ec5565b81810360608301526150e58184614253565b905095945050505050565b6000602082019050818103600083015261510a81846141e6565b905092915050565b60006020820190506151276000830184614244565b92915050565b6000608082019050615142600083018761428c565b61514f6020830186614163565b81810360408301526151618185614181565b90506151706060830184614ed4565b95945050505050565b600060608201905061518e600083018661428c565b61519b6020830185614163565b6151a86040830184614ed4565b949350505050565b600060a0820190506151c5600083018861428c565b6151d26020830187614ea7565b6151df60408301866142aa565b6151ec606083018561429b565b6151f96080830184614ed4565b9695505050505050565b6000602082019050818103600083015261521d81846142b9565b905092915050565b6000602082019050818103600083015261523e81614323565b9050919050565b6000602082019050818103600083015261525e816143a3565b9050919050565b6000602082019050818103600083015261527e81614409565b9050919050565b6000602082019050818103600083015261529e8161446f565b9050919050565b600060208201905081810360008301526152be816144d5565b9050919050565b600060208201905081810360008301526152de81614555565b9050919050565b600060208201905081810360008301526152fe816145bb565b9050919050565b6000602082019050818103600083015261531e81614661565b9050919050565b6000602082019050818103600083015261533e81614707565b9050919050565b6000602082019050818103600083015261535e8161476d565b9050919050565b6000602082019050818103600083015261537e816147d3565b9050919050565b6000602082019050818103600083015261539e81614879565b9050919050565b600060208201905081810360008301526153be816148b9565b9050919050565b600060208201905081810360008301526153de8161491f565b9050919050565b600060208201905081810360008301526153fe8161495f565b9050919050565b6000602082019050818103600083015261541e816149c5565b9050919050565b6000602082019050818103600083015261543e81614a05565b9050919050565b6000602082019050818103600083015261545e81614a6b565b9050919050565b6000602082019050818103600083015261547e81614cb5565b9050919050565b6000602082019050818103600083015261549e81614d1b565b9050919050565b600060208201905081810360008301526154be81614d9b565b9050919050565b600060208201905081810360008301526154de81614e01565b9050919050565b60006020820190506154fa6000830184614ed4565b92915050565b60006020820190506155156000830184614ec5565b92915050565b6000604051905081810181811067ffffffffffffffff8211171561554257615541615a7b565b5b8060405250919050565b600067ffffffffffffffff82111561556757615566615a7b565b5b602082029050602081019050919050565b600067ffffffffffffffff82111561559357615592615a7b565b5b601f19601f8301169050602081019050919050565b600067ffffffffffffffff8211156155c3576155c2615a7b565b5b601f19601f8301169050602081019050919050565b60008190508160005260206000209050919050565b6000819050602082019050919050565b600081549050919050565b600081519050919050565b600081519050919050565b600081519050919050565b6000600182019050919050565b6000602082019050919050565b600082825260208201905092915050565b600082825260208201905092915050565b600082825260208201905092915050565b600082825260208201905092915050565b600081905092915050565b600061569d8261583f565b91506156a88361583f565b9250827fffffffffffffffffffffffffffffffffffffffffffffffffffffffffffffffff038211156156dd576156dc6159ee565b5b828201905092915050565b60006156f38261583f565b91506156fe8361583f565b92508261570e5761570d615a1d565b5b828204905092915050565b60006157248261583f565b915061572f8361583f565b9250817fffffffffffffffffffffffffffffffffffffffffffffffffffffffffffffffff0483118215151615615768576157676159ee565b5b828202905092915050565b600061577e8261583f565b91506157898361583f565b92508282101561579c5761579b6159ee565b5b828203905092915050565b600073ffffffffffffffffffffffffffffffffffffffff82169050919050565b60006157d28261581f565b9050919050565b60008115159050919050565b60007fffffffff0000000000000000000000000000000000000000000000000000000082169050919050565b600061ffff82169050919050565b600073ffffffffffffffffffffffffffffffffffffffff82169050919050565b6000819050919050565b60006158548261585b565b9050919050565b60006158668261581f565b9050919050565b60006158788261583f565b9050919050565b600061588a8261583f565b9050919050565b82818337600083830152505050565b60005b838110156158be5780820151818401526020810190506158a3565b838111156158cd576000848401525b50505050565b60006158de8261583f565b915060008214156158f2576158f16159ee565b5b600182039050919050565b6000600282049050600182168061591557607f821691505b6020821081141561592957615928615a4c565b5b50919050565b600061594261593d83615ace565b6157a7565b9050919050565b600061595482615811565b915061ffff821415615969576159686159ee565b5b600182019050919050565b600061597f8261583f565b91507fffffffffffffffffffffffffffffffffffffffffffffffffffffffffffffffff8214156159b2576159b16159ee565b5b600182019050919050565b60006159c88261583f565b91506159d38361583f565b9250826159e3576159e2615a1d565b5b828206905092915050565b7f4e487b7100000000000000000000000000000000000000000000000000000000600052601160045260246000fd5b7f4e487b7100000000000000000000000000000000000000000000000000000000600052601260045260246000fd5b7f4e487b7100000000000000000000000000000000000000000000000000000000600052602260045260246000fd5b7f4e487b7100000000000000000000000000000000000000000000000000000000600052604160045260246000fd5b6000615ab6825461592f565b9050919050565b6000601f19601f8301169050919050565b60008160001c9050919050565b615ae4816157c7565b8114615aef57600080fd5b50565b615afb816157d9565b8114615b0657600080fd5b50565b615b12816157e5565b8114615b1d57600080fd5b50565b615b2981615811565b8114615b3457600080fd5b50565b615b408161583f565b8114615b4b57600080fd5b5056fe3c73766720786d6c6e733d27687474703a2f2f7777772e77332e6f72672f323030302f7376672720786d6c6e733a786c696e6b3d27687474703a2f2f7777772e77332e6f72672f313939392f786c696e6b272077696474683d273130303027206865696768743d2731303030272076696577426f783d2730203020313030302031303030273e4142434445464748494a4b4c4d4e4f505152535455565758595a6162636465666768696a6b6c6d6e6f707172737475767778797a303132333435363738392b2f3c706174682069643d27706174682d302720643d274d203530342e3238203130352e3631342043203830342e313435203130352e353431203939312e363339203433302e313131203834312e373638203638392e3833362043203639312e383938203934392e353633203331372e303637203934392e363535203136372e3037322036393020432032362e383035203434372e313835203138312e333234203134302e313639203435392e393037203130382e3136205a27207374796c653d2766696c6c3a206e6f6e653b272f3e000000000000000000000000000000000000000000000000000000000000000000000000000000000000003e0000003f3435363738393a3b3c3d00000000000000000102030405060708090a0b0c0d0e0f101112131415161718190000000000001a1b1c1d1e1f202122232425262728292a2b2c2d2e2f303132330000000000a26469706673582212202a18c86911fa08fd81e6ef1526abd3d67cbe87fe1eaad73ba122cb8eb988813b64736f6c63430008000033",
  "immutableReferences": {},
  "source": "/*\r\n\r\n     OOOOOOOOO                  GGGGGGGGGGGGG\r\n   OO:::::::::OO             GGG::::::::::::G\r\n OO:::::::::::::OO         GG:::::::::::::::G\r\nO:::::::OOO:::::::O       G:::::GGGGGGGG::::G\r\nO::::::O   O::::::O      G:::::G       GGGGGG\r\nO:::::O     O:::::O     G:::::G              \r\nO:::::O     O:::::O     G:::::G              \r\nO:::::O     O:::::O     G:::::G    GGGGGGGGGG\r\nO:::::O     O:::::O     G:::::G    G::::::::G\r\nO:::::O     O:::::O     G:::::G    GGGGG::::G\r\nO:::::O     O:::::O     G:::::G        G::::G\r\nO::::::O   O::::::O      G:::::G       G::::G\r\nO:::::::OOO:::::::O       G:::::GGGGGGGG::::G\r\n OO:::::::::::::OO         GG:::::::::::::::G\r\n   OO:::::::::OO             GGG::::::GGG:::G\r\n     OOOOOOOOO                  GGGGGG   GGGG\r\n     \r\n*/\r\n\r\n// SPDX-License-Identifier: MIT\r\n\r\npragma solidity 0.8.0;\r\n\r\nimport \"@openzeppelin/contracts/token/ERC721/ERC721.sol\";\r\nimport \"@openzeppelin/contracts/token/ERC721/extensions/ERC721Enumerable.sol\";\r\nimport '@openzeppelin/contracts/token/ERC20/ERC20.sol';\r\nimport '@openzeppelin/contracts/access/Ownable.sol';\r\nimport '@openzeppelin/contracts/utils/Strings.sol';\r\nimport 'base64-sol/base64.sol';\r\nimport './interfaces/GotTokenInterface.sol';\r\nimport './interfaces/OGColorInterface.sol';\r\nimport './libs/Customizer.sol';\r\nimport './libs/Digits.sol';\r\nimport './ERC/HumbleERC721Enumerable.sol';\r\n\r\n/**\r\n * @title OG\r\n * @author nfttank.eth\r\n */\r\ncontract OG is HumbleERC721Enumerable, Ownable {\r\n\r\n    mapping(address => string) private _supportedSlugs;\r\n    mapping(string => address) private _trustedContracts;\r\n    address[] private _supportedCollections;\r\n    bool private _paused;\r\n    uint16 private _unlockSupply;\r\n\r\n    constructor() ERC721(\"OG\", \"OG\") Ownable() {\r\n        _trustedContracts[\"gottoken\"] = address(0);\r\n        _trustedContracts[\"ogcolor\"] = address(0);\r\n        _paused = true;\r\n        _unlockSupply = 5000;\r\n    }\r\n\r\n    function setPaused(bool paused) external onlyOwner {\r\n        _paused = paused;\r\n    }\r\n\r\n    function setUnlockSupply(uint16 unlockSupply) external onlyOwner {\r\n         _unlockSupply = unlockSupply;\r\n    }\r\n\r\n    function addSupportedCollection(address contractAddress) external onlyOwner {\r\n         _supportedCollections.push(contractAddress);\r\n    }\r\n\r\n    function clearSupportedCollections() external onlyOwner {\r\n         delete _supportedCollections;\r\n    }\r\n    \r\n    function setSupportedCollectionSlug(address contractAddress, string calldata base64EncodedSvgSlug) external onlyOwner {\r\n        _supportedSlugs[contractAddress] = string(Base64.decode(base64EncodedSvgSlug));\r\n    }\r\n\r\n    function setTrustedContractAddresses(address gotTokenAddress, address ogColorAddress) external onlyOwner {\r\n        _trustedContracts[\"gottoken\"] = gotTokenAddress;\r\n        _trustedContracts[\"ogcolor\"] = ogColorAddress;\r\n    }\r\n    \r\n    function renderSvg(uint256 tokenId) public virtual view returns (string memory) {\r\n        require(tokenId >= 0 && tokenId <= 9999, \"Token Id invalid\");\r\n        \r\n        (string memory back, string memory frame, string memory digit, string memory slug)\r\n            = Customizer.getColors(this, _trustedContracts[\"ogcolor\"], tokenId);\r\n        \r\n        address supportedCollection = Customizer.getOwnedSupportedCollection(this, _trustedContracts[\"gottoken\"], _supportedCollections, tokenId);\r\n        bool hasCollection = supportedCollection != address(0);\r\n\r\n        string[8] memory parts;\r\n\r\n        parts[0] = \"<svg xmlns='http://www.w3.org/2000/svg' xmlns:xlink='http://www.w3.org/1999/xlink' width='1000' height='1000' viewBox='0 0 1000 1000'>\";\r\n        \r\n        // OGColor delivers whole definitions like <linearGradient id='back'><stop stop-color='#FFAAFF'/></linearGradient>\r\n        parts[1] = string(abi.encodePacked(\"<defs>\", back, frame, digit, slug, \"</defs>\"));\r\n        parts[2] = \"<mask id='_mask'>\";\r\n        \r\n        if (hasCollection)\r\n            parts[3] = \"<path id='path-0' d='M 504.28 105.614 C 804.145 105.541 991.639 430.111 841.768 689.836 C 691.898 949.563 317.067 949.655 167.072 690 C 26.805 447.185 181.324 140.169 459.907 108.16 Z' style='fill: none;'/>\";\r\n        else\r\n           parts[3] = \"\";\r\n            \r\n        // don't apply colors on this string, this should be kept white\r\n        parts[4] = string(abi.encodePacked(\"<circle cx='500' cy='500' r='450' fill='#FFFFFF' stroke='none' /></mask><circle cx='500' cy='500' r='450' fill='url(#back)' mask='url(#_mask)' stroke-width='130' stroke='url(#frame)' stroke-linejoin='miter' stroke-linecap='square' stroke-miterlimit='3' />\"));\r\n\r\n        parts[5] = Digits.generateDigits(tokenId);\r\n          \r\n        if (hasCollection)  \r\n            parts[6] = _supportedSlugs[supportedCollection];\r\n        else\r\n            parts[6] = \"\";\r\n            \r\n        parts[7] = \"</svg>\";\r\n        \r\n        return string(abi.encodePacked(parts[0], parts[1], parts[2], parts[3], parts[4], parts[5], parts[6], parts[7]));\r\n    }\r\n    \r\n    function tokenURI(uint256 tokenId) override public view returns (string memory) {\r\n        require(tokenId >= 0 && tokenId <= 9999, \"Token Id invalid\");\r\n    \r\n        string memory attributes = Customizer.getColorAttributes(this, _trustedContracts[\"ogcolor\"], tokenId);\r\n        attributes = bytes(attributes).length > 0 ? string(abi.encodePacked(attributes, \", \")) : \"\";\r\n        string memory json = Base64.encode(bytes(string(abi.encodePacked('{\"name\": \"OG #', Strings.toString(tokenId), '\", \"description\": \"\" ,', attributes, ' \"image\": \"data:image/svg+xml;base64,', Base64.encode(bytes(renderSvg(tokenId))), '\"}'))));\r\n        return string(abi.encodePacked('data:application/json;base64,', json));\r\n    }\r\n\r\n    function mint(uint256[] calldata tokenIds) public {\r\n        require(!_paused, \"Minting is paused\");\r\n\r\n        address sender = _msgSender();\r\n        \r\n        if (sender != owner())\r\n            require(balanceOf(sender) + tokenIds.length <= 10, \"Minting is limited to max. 10 per wallet\");\r\n\r\n        for (uint16 i = 0; i < tokenIds.length; i++) {\r\n            require(tokenIds[i] >= 0 && tokenIds[i] <= 9999, \"Token Id invalid\");\r\n            require(canMint(tokenIds[i]), \"Can't mint token yet\");\r\n        }\r\n\r\n        for (uint16 i = 0; i < tokenIds.length; i++) {\r\n            _safeMint(sender, tokenIds[i]);\r\n        }\r\n    }\r\n\r\n    function canMint(uint256 tokenId) public view returns (bool) {\r\n\r\n        if (tokenId > 12) {\r\n            return true;\r\n        }\r\n        else if (tokenId <= 12 && tokenId > 1) {\r\n            return totalSupply() >= _unlockSupply;\r\n        } else if (tokenId == 1) {\r\n            return  _exists(2) &&\r\n                    _exists(3) &&\r\n                    _exists(4) &&\r\n                    _exists(5) &&\r\n                    _exists(6) &&\r\n                    _exists(7) &&\r\n                    _exists(8) &&\r\n                    _exists(9) &&\r\n                    _exists(10) &&\r\n                    _exists(11) &&\r\n                    _exists(12);\r\n        } else {\r\n            return _exists(1);\r\n        }\r\n    }\r\n\r\n    function suggestFreeIds(uint16 desiredCount, uint256 seed) public view returns (uint256[] memory) {\r\n        return Customizer.suggestFreeIds(this, desiredCount, 13, 10000, seed);\r\n    }\r\n\r\n    function exists(uint256 tokenId) external view returns (bool) {\r\n        return _exists(tokenId);\r\n    }\r\n}",
  "sourcePath": "D:\\Develop\\GitHub\\OG+\\src\\contracts\\OG.sol",
  "compiler": {
    "name": "solc",
    "version": "0.8.0+commit.c7dfd78e.Emscripten.clang"
  },
  "schemaVersion": "3.4.3",
  "updatedAt": "2022-01-24T22:52:45.806Z",
  "networkType": "ethereum",
  "devdoc": {
    "author": "nfttank.eth",
    "kind": "dev",
    "methods": {
      "approve(address,uint256)": {
        "details": "See {IERC721-approve}."
      },
      "balanceOf(address)": {
        "details": "See {IERC721-balanceOf}."
      },
      "getApproved(uint256)": {
        "details": "See {IERC721-getApproved}."
      },
      "isApprovedForAll(address,address)": {
        "details": "See {IERC721-isApprovedForAll}."
      },
      "name()": {
        "details": "See {IERC721Metadata-name}."
      },
      "owner()": {
        "details": "Returns the address of the current owner."
      },
      "ownerOf(uint256)": {
        "details": "See {IERC721-ownerOf}."
      },
      "renounceOwnership()": {
        "details": "Leaves the contract without owner. It will not be possible to call `onlyOwner` functions anymore. Can only be called by the current owner. NOTE: Renouncing ownership will leave the contract without an owner, thereby removing any functionality that is only available to the owner."
      },
      "safeTransferFrom(address,address,uint256)": {
        "details": "See {IERC721-safeTransferFrom}."
      },
      "safeTransferFrom(address,address,uint256,bytes)": {
        "details": "See {IERC721-safeTransferFrom}."
      },
      "setApprovalForAll(address,bool)": {
        "details": "See {IERC721-setApprovalForAll}."
      },
      "supportsInterface(bytes4)": {
        "details": "See {IERC165-supportsInterface}."
      },
      "symbol()": {
        "details": "See {IERC721Metadata-symbol}."
      },
      "tokenByIndex(uint256)": {
        "details": "See {IERC721Enumerable-tokenByIndex}."
      },
      "tokenOfOwnerByIndex(address,uint256)": {
        "details": "See {IERC721Enumerable-tokenOfOwnerByIndex}."
      },
      "tokenURI(uint256)": {
        "details": "See {IERC721Metadata-tokenURI}."
      },
      "totalSupply()": {
        "details": "See {IERC721Enumerable-totalSupply}."
      },
      "transferFrom(address,address,uint256)": {
        "details": "See {IERC721-transferFrom}."
      },
      "transferOwnership(address)": {
        "details": "Transfers ownership of the contract to a new account (`newOwner`). Can only be called by the current owner."
      }
    },
    "title": "OG",
    "version": 1
  },
  "userdoc": {
    "kind": "user",
    "methods": {},
    "version": 1
  }
}