{
  "contractName": "OGColor",
  "abi": [
    {
      "inputs": [],
      "stateMutability": "nonpayable",
      "type": "constructor"
    },
    {
      "anonymous": false,
      "inputs": [
        {
          "indexed": true,
          "internalType": "address",
          "name": "owner",
          "type": "address"
        },
        {
          "indexed": true,
          "internalType": "address",
          "name": "approved",
          "type": "address"
        },
        {
          "indexed": true,
          "internalType": "uint256",
          "name": "tokenId",
          "type": "uint256"
        }
      ],
      "name": "Approval",
      "type": "event"
    },
    {
      "anonymous": false,
      "inputs": [
        {
          "indexed": true,
          "internalType": "address",
          "name": "owner",
          "type": "address"
        },
        {
          "indexed": true,
          "internalType": "address",
          "name": "operator",
          "type": "address"
        },
        {
          "indexed": false,
          "internalType": "bool",
          "name": "approved",
          "type": "bool"
        }
      ],
      "name": "ApprovalForAll",
      "type": "event"
    },
    {
      "anonymous": false,
      "inputs": [
        {
          "indexed": true,
          "internalType": "address",
          "name": "previousOwner",
          "type": "address"
        },
        {
          "indexed": true,
          "internalType": "address",
          "name": "newOwner",
          "type": "address"
        }
      ],
      "name": "OwnershipTransferred",
      "type": "event"
    },
    {
      "anonymous": false,
      "inputs": [
        {
          "indexed": true,
          "internalType": "address",
          "name": "from",
          "type": "address"
        },
        {
          "indexed": true,
          "internalType": "address",
          "name": "to",
          "type": "address"
        },
        {
          "indexed": true,
          "internalType": "uint256",
          "name": "tokenId",
          "type": "uint256"
        }
      ],
      "name": "Transfer",
      "type": "event"
    },
    {
      "inputs": [
        {
          "internalType": "address",
          "name": "to",
          "type": "address"
        },
        {
          "internalType": "uint256",
          "name": "tokenId",
          "type": "uint256"
        }
      ],
      "name": "approve",
      "outputs": [],
      "stateMutability": "nonpayable",
      "type": "function"
    },
    {
      "inputs": [
        {
          "internalType": "address",
          "name": "owner",
          "type": "address"
        }
      ],
      "name": "balanceOf",
      "outputs": [
        {
          "internalType": "uint256",
          "name": "",
          "type": "uint256"
        }
      ],
      "stateMutability": "view",
      "type": "function",
      "constant": true
    },
    {
      "inputs": [
        {
          "internalType": "uint256",
          "name": "tokenId",
          "type": "uint256"
        }
      ],
      "name": "getApproved",
      "outputs": [
        {
          "internalType": "address",
          "name": "",
          "type": "address"
        }
      ],
      "stateMutability": "view",
      "type": "function",
      "constant": true
    },
    {
      "inputs": [
        {
          "internalType": "address",
          "name": "owner",
          "type": "address"
        },
        {
          "internalType": "address",
          "name": "operator",
          "type": "address"
        }
      ],
      "name": "isApprovedForAll",
      "outputs": [
        {
          "internalType": "bool",
          "name": "",
          "type": "bool"
        }
      ],
      "stateMutability": "view",
      "type": "function",
      "constant": true
    },
    {
      "inputs": [],
      "name": "name",
      "outputs": [
        {
          "internalType": "string",
          "name": "",
          "type": "string"
        }
      ],
      "stateMutability": "view",
      "type": "function",
      "constant": true
    },
    {
      "inputs": [],
      "name": "owner",
      "outputs": [
        {
          "internalType": "address",
          "name": "",
          "type": "address"
        }
      ],
      "stateMutability": "view",
      "type": "function",
      "constant": true
    },
    {
      "inputs": [
        {
          "internalType": "uint256",
          "name": "tokenId",
          "type": "uint256"
        }
      ],
      "name": "ownerOf",
      "outputs": [
        {
          "internalType": "address",
          "name": "",
          "type": "address"
        }
      ],
      "stateMutability": "view",
      "type": "function",
      "constant": true
    },
    {
      "inputs": [],
      "name": "renounceOwnership",
      "outputs": [],
      "stateMutability": "nonpayable",
      "type": "function"
    },
    {
      "inputs": [
        {
          "internalType": "address",
          "name": "from",
          "type": "address"
        },
        {
          "internalType": "address",
          "name": "to",
          "type": "address"
        },
        {
          "internalType": "uint256",
          "name": "tokenId",
          "type": "uint256"
        }
      ],
      "name": "safeTransferFrom",
      "outputs": [],
      "stateMutability": "nonpayable",
      "type": "function"
    },
    {
      "inputs": [
        {
          "internalType": "address",
          "name": "from",
          "type": "address"
        },
        {
          "internalType": "address",
          "name": "to",
          "type": "address"
        },
        {
          "internalType": "uint256",
          "name": "tokenId",
          "type": "uint256"
        },
        {
          "internalType": "bytes",
          "name": "_data",
          "type": "bytes"
        }
      ],
      "name": "safeTransferFrom",
      "outputs": [],
      "stateMutability": "nonpayable",
      "type": "function"
    },
    {
      "inputs": [
        {
          "internalType": "address",
          "name": "operator",
          "type": "address"
        },
        {
          "internalType": "bool",
          "name": "approved",
          "type": "bool"
        }
      ],
      "name": "setApprovalForAll",
      "outputs": [],
      "stateMutability": "nonpayable",
      "type": "function"
    },
    {
      "inputs": [
        {
          "internalType": "bytes4",
          "name": "interfaceId",
          "type": "bytes4"
        }
      ],
      "name": "supportsInterface",
      "outputs": [
        {
          "internalType": "bool",
          "name": "",
          "type": "bool"
        }
      ],
      "stateMutability": "view",
      "type": "function",
      "constant": true
    },
    {
      "inputs": [],
      "name": "symbol",
      "outputs": [
        {
          "internalType": "string",
          "name": "",
          "type": "string"
        }
      ],
      "stateMutability": "view",
      "type": "function",
      "constant": true
    },
    {
      "inputs": [
        {
          "internalType": "address",
          "name": "from",
          "type": "address"
        },
        {
          "internalType": "address",
          "name": "to",
          "type": "address"
        },
        {
          "internalType": "uint256",
          "name": "tokenId",
          "type": "uint256"
        }
      ],
      "name": "transferFrom",
      "outputs": [],
      "stateMutability": "nonpayable",
      "type": "function"
    },
    {
      "inputs": [
        {
          "internalType": "address",
          "name": "newOwner",
          "type": "address"
        }
      ],
      "name": "transferOwnership",
      "outputs": [],
      "stateMutability": "nonpayable",
      "type": "function"
    },
    {
      "inputs": [
        {
          "internalType": "string",
          "name": "application",
          "type": "string"
        },
        {
          "internalType": "string",
          "name": "color",
          "type": "string"
        }
      ],
      "name": "mint",
      "outputs": [],
      "stateMutability": "nonpayable",
      "type": "function"
    },
    {
      "inputs": [],
      "name": "totalSupply",
      "outputs": [
        {
          "internalType": "uint256",
          "name": "",
          "type": "uint256"
        }
      ],
      "stateMutability": "view",
      "type": "function",
      "constant": true
    },
    {
      "inputs": [
        {
          "internalType": "uint256",
          "name": "tokenId",
          "type": "uint256"
        }
      ],
      "name": "renderSvg",
      "outputs": [
        {
          "internalType": "string",
          "name": "",
          "type": "string"
        }
      ],
      "stateMutability": "view",
      "type": "function",
      "constant": true
    },
    {
      "inputs": [
        {
          "internalType": "uint256",
          "name": "tokenId",
          "type": "uint256"
        }
      ],
      "name": "tokenURI",
      "outputs": [
        {
          "internalType": "string",
          "name": "",
          "type": "string"
        }
      ],
      "stateMutability": "view",
      "type": "function",
      "constant": true
    },
    {
      "inputs": [
        {
          "internalType": "address",
          "name": "forAddress",
          "type": "address"
        },
        {
          "internalType": "uint256",
          "name": "tokenId",
          "type": "uint256"
        }
      ],
      "name": "getOgAttributes",
      "outputs": [
        {
          "internalType": "string",
          "name": "",
          "type": "string"
        }
      ],
      "stateMutability": "view",
      "type": "function",
      "constant": true
    },
    {
      "inputs": [
        {
          "internalType": "address",
          "name": "forAddress",
          "type": "address"
        },
        {
          "internalType": "uint256",
          "name": "tokenId",
          "type": "uint256"
        }
      ],
      "name": "getColors",
      "outputs": [
        {
          "internalType": "string",
          "name": "backColor",
          "type": "string"
        },
        {
          "internalType": "string",
          "name": "frameColor",
          "type": "string"
        },
        {
          "internalType": "string",
          "name": "digitColor",
          "type": "string"
        },
        {
          "internalType": "string",
          "name": "slugColor",
          "type": "string"
        }
      ],
      "stateMutability": "view",
      "type": "function",
      "constant": true
    }
  ],
  "bytecode": "0x60806040523480156200001157600080fd5b506040518060400160405280600781526020017f4f47436f6c6f72000000000000000000000000000000000000000000000000008152506040518060400160405280600781526020017f4f47434f4c4f5200000000000000000000000000000000000000000000000000815250816000908051906020019062000096929190620001a6565b508060019080519060200190620000af929190620001a6565b505050620000d2620000c6620000d860201b60201c565b620000e060201b60201c565b620002bb565b600033905090565b6000600660009054906101000a900473ffffffffffffffffffffffffffffffffffffffff16905081600660006101000a81548173ffffffffffffffffffffffffffffffffffffffff021916908373ffffffffffffffffffffffffffffffffffffffff1602179055508173ffffffffffffffffffffffffffffffffffffffff168173ffffffffffffffffffffffffffffffffffffffff167f8be0079c531659141344cd1fd0a4f28419497f9722a3daafe3b4186f6b6457e060405160405180910390a35050565b828054620001b49062000256565b90600052602060002090601f016020900481019282620001d8576000855562000224565b82601f10620001f357805160ff191683800117855562000224565b8280016001018555821562000224579182015b828111156200022357825182559160200191906001019062000206565b5b50905062000233919062000237565b5090565b5b808211156200025257600081600090555060010162000238565b5090565b600060028204905060018216806200026f57607f821691505b602082108114156200028657620002856200028c565b5b50919050565b7f4e487b7100000000000000000000000000000000000000000000000000000000600052602260045260246000fd5b615a7d80620002cb6000396000f3fe608060405234801561001057600080fd5b50600436106101375760003560e01c8063715018a6116100b8578063a22cb4651161007c578063a22cb46514610351578063b88d4fde1461036d578063c87b56dd14610389578063e985e9c5146103b9578063f2fde38b146103e9578063fd5ad3191461040557610137565b8063715018a6146102bf5780638aa0fdad146102c95780638da5cb5b146102e557806395d89b41146103035780639f55f8d11461032157610137565b806318160ddd116100ff57806318160ddd1461020957806323b872dd1461022757806342842e0e146102435780636352211e1461025f57806370a082311461028f57610137565b806301ffc9a71461013c57806306fdde031461016c578063081812fc1461018a578063095ea7b3146101ba578063116e85bf146101d6575b600080fd5b61015660048036038101906101519190613edc565b610435565b60405161016391906150e0565b60405180910390f35b610174610517565b60405161018191906150fb565b60405180910390f35b6101a4600480360381019061019f9190614066565b6105a9565b6040516101b19190615050565b60405180910390f35b6101d460048036038101906101cf9190613ea0565b61062e565b005b6101f060048036038101906101eb9190613ea0565b610746565b604051610200949392919061511d565b60405180910390f35b610211610e15565b60405161021e91906153de565b60405180910390f35b610241600480360381019061023c9190613d9a565b610e1f565b005b61025d60048036038101906102589190613d9a565b610e7f565b005b61027960048036038101906102749190614066565b610e9f565b6040516102869190615050565b60405180910390f35b6102a960048036038101906102a49190613d35565b610f51565b6040516102b691906153de565b60405180910390f35b6102c7611009565b005b6102e360048036038101906102de9190613f2e565b611091565b005b6102ed6111a9565b6040516102fa9190615050565b60405180910390f35b61030b6111d3565b60405161031891906150fb565b60405180910390f35b61033b60048036038101906103369190613ea0565b611265565b60405161034891906150fb565b60405180910390f35b61036b60048036038101906103669190613e64565b611532565b005b61038760048036038101906103829190613de9565b611548565b005b6103a3600480360381019061039e9190614066565b6115aa565b6040516103b091906150fb565b60405180910390f35b6103d360048036038101906103ce9190613d5e565b6116b4565b6040516103e091906150e0565b60405180910390f35b61040360048036038101906103fe9190613d35565b611748565b005b61041f600480360381019061041a9190614066565b611840565b60405161042c91906150fb565b60405180910390f35b60007f80ac58cd000000000000000000000000000000000000000000000000000000007bffffffffffffffffffffffffffffffffffffffffffffffffffffffff1916827bffffffffffffffffffffffffffffffffffffffffffffffffffffffff1916148061050057507f5b5e139f000000000000000000000000000000000000000000000000000000007bffffffffffffffffffffffffffffffffffffffffffffffffffffffff1916827bffffffffffffffffffffffffffffffffffffffffffffffffffffffff1916145b80610510575061050f82611f98565b5b9050919050565b606060008054610526906156f7565b80601f0160208091040260200160405190810160405280929190818152602001828054610552906156f7565b801561059f5780601f106105745761010080835404028352916020019161059f565b820191906000526020600020905b81548152906001019060200180831161058257829003601f168201915b5050505050905090565b60006105b482612002565b6105f3576040517f08c379a00000000000000000000000000000000000000000000000000000000081526004016105ea9061531e565b60405180910390fd5b6004600083815260200190815260200160002060009054906101000a900473ffffffffffffffffffffffffffffffffffffffff169050919050565b600061063982610e9f565b90508073ffffffffffffffffffffffffffffffffffffffff168373ffffffffffffffffffffffffffffffffffffffff1614156106aa576040517f08c379a00000000000000000000000000000000000000000000000000000000081526004016106a19061539e565b60405180910390fd5b8073ffffffffffffffffffffffffffffffffffffffff166106c961206e565b73ffffffffffffffffffffffffffffffffffffffff1614806106f857506106f7816106f261206e565b6116b4565b5b610737576040517f08c379a000000000000000000000000000000000000000000000000000000000815260040161072e9061529e565b60405180910390fd5b6107418383612076565b505050565b60608060608060006201869f86106107d257600067ffffffffffffffff811115610799577f4e487b7100000000000000000000000000000000000000000000000000000000600052604160045260246000fd5b6040519080825280602002602001820160405280156107cc57816020015b60608152602001906001900390816107b75790505b506108e2565b600a60008873ffffffffffffffffffffffffffffffffffffffff1673ffffffffffffffffffffffffffffffffffffffff168152602001908152602001600020805480602002602001604051908101604052809291908181526020016000905b828210156108dd578382906000526020600020018054610850906156f7565b80601f016020809104026020016040519081016040528092919081815260200182805461087c906156f7565b80156108c95780601f1061089e576101008083540402835291602001916108c9565b820191906000526020600020905b8154815290600101906020018083116108ac57829003601f168201915b505050505081526020019060010190610831565b505050505b9050600061095b826040518060400160405280600781526020017f23464646464646000000000000000000000000000000000000000000000000008152506040518060400160405280600481526020017f6261636b0000000000000000000000000000000000000000000000000000000081525061212f565b9050600b60008973ffffffffffffffffffffffffffffffffffffffff1673ffffffffffffffffffffffffffffffffffffffff168152602001908152602001600020805480602002602001604051908101604052809291908181526020016000905b82821015610a685783829060005260206000200180546109db906156f7565b80601f0160208091040260200160405190810160405280929190818152602001828054610a07906156f7565b8015610a545780601f10610a2957610100808354040283529160200191610a54565b820191906000526020600020905b815481529060010190602001808311610a3757829003601f168201915b5050505050815260200190600101906109bc565b5050505091506000610ae5836040518060400160405280600781526020017f23303030303030000000000000000000000000000000000000000000000000008152506040518060400160405280600581526020017f6672616d6500000000000000000000000000000000000000000000000000000081525061212f565b9050600c60008a73ffffffffffffffffffffffffffffffffffffffff1673ffffffffffffffffffffffffffffffffffffffff168152602001908152602001600020805480602002602001604051908101604052809291908181526020016000905b82821015610bf2578382906000526020600020018054610b65906156f7565b80601f0160208091040260200160405190810160405280929190818152602001828054610b91906156f7565b8015610bde5780601f10610bb357610100808354040283529160200191610bde565b820191906000526020600020905b815481529060010190602001808311610bc157829003601f168201915b505050505081526020019060010190610b46565b5050505092506000610c6f846040518060400160405280600781526020017f23303030303030000000000000000000000000000000000000000000000000008152506040518060400160405280600581526020017f646967697400000000000000000000000000000000000000000000000000000081525061212f565b9050600d60008b73ffffffffffffffffffffffffffffffffffffffff1673ffffffffffffffffffffffffffffffffffffffff168152602001908152602001600020805480602002602001604051908101604052809291908181526020016000905b82821015610d7c578382906000526020600020018054610cef906156f7565b80601f0160208091040260200160405190810160405280929190818152602001828054610d1b906156f7565b8015610d685780601f10610d3d57610100808354040283529160200191610d68565b820191906000526020600020905b815481529060010190602001808311610d4b57829003601f168201915b505050505081526020019060010190610cd0565b5050505093506000610df9856040518060400160405280600781526020017f23464646464646000000000000000000000000000000000000000000000000008152506040518060400160405280600481526020017f736c75670000000000000000000000000000000000000000000000000000000081525061212f565b9050838383839850985098509850505050505092959194509250565b6000600754905090565b610e30610e2a61206e565b82612222565b610e6f576040517f08c379a0000000000000000000000000000000000000000000000000000000008152600401610e66906153be565b60405180910390fd5b610e7a838383612300565b505050565b610e9a83838360405180602001604052806000815250611548565b505050565b6000806002600084815260200190815260200160002060009054906101000a900473ffffffffffffffffffffffffffffffffffffffff169050600073ffffffffffffffffffffffffffffffffffffffff168173ffffffffffffffffffffffffffffffffffffffff161415610f48576040517f08c379a0000000000000000000000000000000000000000000000000000000008152600401610f3f906152de565b60405180910390fd5b80915050919050565b60008073ffffffffffffffffffffffffffffffffffffffff168273ffffffffffffffffffffffffffffffffffffffff161415610fc2576040517f08c379a0000000000000000000000000000000000000000000000000000000008152600401610fb9906152be565b60405180910390fd5b600360008373ffffffffffffffffffffffffffffffffffffffff1673ffffffffffffffffffffffffffffffffffffffff168152602001908152602001600020549050919050565b61101161206e565b73ffffffffffffffffffffffffffffffffffffffff1661102f6111a9565b73ffffffffffffffffffffffffffffffffffffffff1614611085576040517f08c379a000000000000000000000000000000000000000000000000000000000815260040161107c9061533e565b60405180910390fd5b61108f600061255c565b565b61270f60016007546110a39190615502565b106110e3576040517f08c379a00000000000000000000000000000000000000000000000000000000081526004016110da906151de565b60405180910390fd5b6110ed8484612622565b61112c576040517f08c379a00000000000000000000000000000000000000000000000000000000081526004016111239061527e565b60405180910390fd5b600060075490508282600860008481526020019081526020016000209190611155929190613a49565b508484600960008481526020019081526020016000209190611178929190613a49565b5061118a61118461206e565b826126e9565b6007600081548092919061119d90615729565b91905055505050505050565b6000600660009054906101000a900473ffffffffffffffffffffffffffffffffffffffff16905090565b6060600180546111e2906156f7565b80601f016020809104026020016040519081016040528092919081815260200182805461120e906156f7565b801561125b5780601f106112305761010080835404028352916020019161125b565b820191906000526020600020905b81548152906001019060200180831161123e57829003601f168201915b5050505050905090565b60606000806000803073ffffffffffffffffffffffffffffffffffffffff1663116e85bf88886040518363ffffffff1660e01b81526004016112a89291906150b7565b60006040518083038186803b1580156112c057600080fd5b505afa1580156112d4573d6000803e3d6000fd5b505050506040513d6000823e3d601f19601f820116820180604052508101906112fd9190613fa3565b9350935093509350600084905060008490506000849050600084905060006040518060400160405280600781526020017f2363386662666200000000000000000000000000000000000000000000000000815250905060006040518060400160405280600781526020017f2338353666353600000000000000000000000000000000000000000000000000815250905060006040518060400160405280600781526020017f233764613236390000000000000000000000000000000000000000000000000081525090506113d18784612707565b806113e257506113e18684612707565b5b806113f357506113f28584612707565b5b8061140457506114038484612707565b5b15611434576040518060600160405280602b8152602001615a1d602b91399b50505050505050505050505061152c565b61143e8783612707565b8061144f575061144e8683612707565b5b80611460575061145f8583612707565b5b8061147157506114708483612707565b5b156114a1576040518060600160405280602981526020016159f4602991399b50505050505050505050505061152c565b6114ab8782612707565b806114bc57506114bb8682612707565b5b806114cd57506114cc8582612707565b5b806114de57506114dd8482612707565b5b1561150e576040518060600160405280602c81526020016159c8602c91399b50505050505050505050505061152c565b604051806020016040528060008152509b5050505050505050505050505b92915050565b61154461153d61206e565b838361286a565b5050565b61155961155361206e565b83612222565b611598576040517f08c379a000000000000000000000000000000000000000000000000000000000815260040161158f906153be565b60405180910390fd5b6115a4848484846129d7565b50505050565b6060600082101580156115bf575061270f8211155b6115fe576040517f08c379a00000000000000000000000000000000000000000000000000000000081526004016115f59061537e565b60405180910390fd5b61160782612002565b611646576040517f08c379a000000000000000000000000000000000000000000000000000000000815260040161163d9061523e565b60405180910390fd5b600061168a61165484612a33565b61166561166086611840565b612d4f565b60405160200161167692919061500b565b604051602081830303815290604052612d4f565b90508060405160200161169d9190614fbc565b604051602081830303815290604052915050919050565b6000600560008473ffffffffffffffffffffffffffffffffffffffff1673ffffffffffffffffffffffffffffffffffffffff16815260200190815260200160002060008373ffffffffffffffffffffffffffffffffffffffff1673ffffffffffffffffffffffffffffffffffffffff16815260200190815260200160002060009054906101000a900460ff16905092915050565b61175061206e565b73ffffffffffffffffffffffffffffffffffffffff1661176e6111a9565b73ffffffffffffffffffffffffffffffffffffffff16146117c4576040517f08c379a00000000000000000000000000000000000000000000000000000000081526004016117bb9061533e565b60405180910390fd5b600073ffffffffffffffffffffffffffffffffffffffff168173ffffffffffffffffffffffffffffffffffffffff161415611834576040517f08c379a000000000000000000000000000000000000000000000000000000000815260040161182b9061519e565b60405180910390fd5b61183d8161255c565b50565b606060008210158015611855575061270f8211155b611894576040517f08c379a000000000000000000000000000000000000000000000000000000000815260040161188b9061537e565b60405180910390fd5b61189d82612002565b6118dc576040517f08c379a00000000000000000000000000000000000000000000000000000000081526004016118d39061523e565b60405180910390fd5b6000600767ffffffffffffffff81111561191f577f4e487b7100000000000000000000000000000000000000000000000000000000600052604160045260246000fd5b60405190808252806020026020018201604052801561195257816020015b606081526020019060019003908161193d5790505b5090506040518060c001604052806086815260200161589c60869139816000815181106119a8577f4e487b7100000000000000000000000000000000000000000000000000000000600052603260045260246000fd5b6020026020010181905250611af36008600085815260200190815260200160002080546119d4906156f7565b80601f0160208091040260200160405190810160405280929190818152602001828054611a00906156f7565b8015611a4d5780601f10611a2257610100808354040283529160200191611a4d565b820191906000526020600020905b815481529060010190602001808311611a3057829003601f168201915b5050505050600960008681526020019081526020016000208054611a70906156f7565b80601f0160208091040260200160405190810160405280929190818152602001828054611a9c906156f7565b8015611ae95780601f10611abe57610100808354040283529160200191611ae9565b820191906000526020600020905b815481529060010190602001808311611acc57829003601f168201915b5050505050612eee565b604051602001611b039190614fde565b60405160208183030381529060405281600181518110611b4c577f4e487b7100000000000000000000000000000000000000000000000000000000600052603260045260246000fd5b60200260200101819052506040518060400160405280601181526020017f3c6d61736b2069643d275f6d61736b273e00000000000000000000000000000081525081600281518110611bc7577f4e487b7100000000000000000000000000000000000000000000000000000000600052603260045260246000fd5b60200260200101819052506040518060a00160405280606681526020016159226066913981600381518110611c25577f4e487b7100000000000000000000000000000000000000000000000000000000600052603260045260246000fd5b60200260200101819052506040518060400160405280600781526020017f3c2f6d61736b3e0000000000000000000000000000000000000000000000000081525081600481518110611ca0577f4e487b7100000000000000000000000000000000000000000000000000000000600052603260045260246000fd5b602002602001018190525060096000848152602001908152602001600020604051602001611cce9190614ef0565b60405160208183030381529060405281600581518110611d17577f4e487b7100000000000000000000000000000000000000000000000000000000600052603260045260246000fd5b60200260200101819052506040518060400160405280600681526020017f3c2f7376673e000000000000000000000000000000000000000000000000000081525081600681518110611d92577f4e487b7100000000000000000000000000000000000000000000000000000000600052603260045260246000fd5b602002602001018190525080600081518110611dd7577f4e487b7100000000000000000000000000000000000000000000000000000000600052603260045260246000fd5b602002602001015181600181518110611e19577f4e487b7100000000000000000000000000000000000000000000000000000000600052603260045260246000fd5b602002602001015182600281518110611e5b577f4e487b7100000000000000000000000000000000000000000000000000000000600052603260045260246000fd5b602002602001015183600381518110611e9d577f4e487b7100000000000000000000000000000000000000000000000000000000600052603260045260246000fd5b602002602001015184600481518110611edf577f4e487b7100000000000000000000000000000000000000000000000000000000600052603260045260246000fd5b602002602001015185600581518110611f21577f4e487b7100000000000000000000000000000000000000000000000000000000600052603260045260246000fd5b602002602001015186600681518110611f63577f4e487b7100000000000000000000000000000000000000000000000000000000600052603260045260246000fd5b6020026020010151604051602001611f819796959493929190614e44565b604051602081830303815290604052915050919050565b60007f01ffc9a7000000000000000000000000000000000000000000000000000000007bffffffffffffffffffffffffffffffffffffffffffffffffffffffff1916827bffffffffffffffffffffffffffffffffffffffffffffffffffffffff1916149050919050565b60008073ffffffffffffffffffffffffffffffffffffffff166002600084815260200190815260200160002060009054906101000a900473ffffffffffffffffffffffffffffffffffffffff1673ffffffffffffffffffffffffffffffffffffffff1614159050919050565b600033905090565b816004600083815260200190815260200160002060006101000a81548173ffffffffffffffffffffffffffffffffffffffff021916908373ffffffffffffffffffffffffffffffffffffffff160217905550808273ffffffffffffffffffffffffffffffffffffffff166120e983610e9f565b73ffffffffffffffffffffffffffffffffffffffff167f8c5be1e5ebec7d5bd14f71427d1e84f3dd0314c0f7b2291e5b200ac8c7c3b92560405160405180910390a45050565b6060806000855190505b60008111156121ff5760008660018361215291906155e3565b81518110612189577f4e487b7100000000000000000000000000000000000000000000000000000000600052603260045260246000fd5b60200260200101515111156121ec57856001826121a691906155e3565b815181106121dd577f4e487b7100000000000000000000000000000000000000000000000000000000600052603260045260246000fd5b602002602001015191506121ff565b80806121f7906156cd565b915050612139565b5060008151141561220e578390505b6122188184612eee565b9150509392505050565b600061222d82612002565b61226c576040517f08c379a00000000000000000000000000000000000000000000000000000000081526004016122639061525e565b60405180910390fd5b600061227783610e9f565b90508073ffffffffffffffffffffffffffffffffffffffff168473ffffffffffffffffffffffffffffffffffffffff1614806122e657508373ffffffffffffffffffffffffffffffffffffffff166122ce846105a9565b73ffffffffffffffffffffffffffffffffffffffff16145b806122f757506122f681856116b4565b5b91505092915050565b8273ffffffffffffffffffffffffffffffffffffffff1661232082610e9f565b73ffffffffffffffffffffffffffffffffffffffff1614612376576040517f08c379a000000000000000000000000000000000000000000000000000000000815260040161236d9061535e565b60405180910390fd5b600073ffffffffffffffffffffffffffffffffffffffff168273ffffffffffffffffffffffffffffffffffffffff1614156123e6576040517f08c379a00000000000000000000000000000000000000000000000000000000081526004016123dd906151fe565b60405180910390fd5b6123f1838383612f2c565b6123fc600082612076565b6001600360008573ffffffffffffffffffffffffffffffffffffffff1673ffffffffffffffffffffffffffffffffffffffff168152602001908152602001600020600082825461244c91906155e3565b925050819055506001600360008473ffffffffffffffffffffffffffffffffffffffff1673ffffffffffffffffffffffffffffffffffffffff16815260200190815260200160002060008282546124a39190615502565b92505081905550816002600083815260200190815260200160002060006101000a81548173ffffffffffffffffffffffffffffffffffffffff021916908373ffffffffffffffffffffffffffffffffffffffff160217905550808273ffffffffffffffffffffffffffffffffffffffff168473ffffffffffffffffffffffffffffffffffffffff167fddf252ad1be2c89b69c2b068fc378daa952ba7f163c4a11628f55a4df523b3ef60405160405180910390a4505050565b6000600660009054906101000a900473ffffffffffffffffffffffffffffffffffffffff16905081600660006101000a81548173ffffffffffffffffffffffffffffffffffffffff021916908373ffffffffffffffffffffffffffffffffffffffff1602179055508173ffffffffffffffffffffffffffffffffffffffff168173ffffffffffffffffffffffffffffffffffffffff167f8be0079c531659141344cd1fd0a4f28419497f9722a3daafe3b4186f6b6457e060405160405180910390a35050565b6000808383604051612635929190614e14565b604051809103902090507ff99975b1b7d766d47f24055dcf9d239a44d26bc887197da89a6e1cb7acbd0a9d81148061268c57507f2aa1b44d53ecaef3818686a0e39502ef57e254136370bf94dbea962d9c1d211581145b806126b657507f54b0769b5f3f2b3325755b96837f908e4f387f2ffbfb36e43a599d683c584e0181145b806126e057507fad031b8dd7bd2be2fd611ae08d0f6eefaff2358a70428446315d94a57c654ddb81145b91505092915050565b6127038282604051806020016040528060008152506134cf565b5050565b600081518351101561271857600080fd5b6000805b8351855161272a91906155e3565b811161285f5760006001905060005b855181101561283a5785818151811061277b577f4e487b7100000000000000000000000000000000000000000000000000000000600052603260045260246000fd5b602001015160f81c60f81b7effffffffffffffffffffffffffffffffffffffffffffffffffffffffffffff19168782856127b59190615502565b815181106127ec577f4e487b7100000000000000000000000000000000000000000000000000000000600052603260045260246000fd5b602001015160f81c60f81b7effffffffffffffffffffffffffffffffffffffffffffffffffffffffffffff191614612827576000915061283a565b808061283290615729565b915050612739565b50801561284b57600192505061285f565b50808061285790615729565b91505061271c565b508091505092915050565b8173ffffffffffffffffffffffffffffffffffffffff168373ffffffffffffffffffffffffffffffffffffffff1614156128d9576040517f08c379a00000000000000000000000000000000000000000000000000000000081526004016128d09061521e565b60405180910390fd5b80600560008573ffffffffffffffffffffffffffffffffffffffff1673ffffffffffffffffffffffffffffffffffffffff16815260200190815260200160002060008473ffffffffffffffffffffffffffffffffffffffff1673ffffffffffffffffffffffffffffffffffffffff16815260200190815260200160002060006101000a81548160ff0219169083151502179055508173ffffffffffffffffffffffffffffffffffffffff168373ffffffffffffffffffffffffffffffffffffffff167f17307eab39ab6107e8899845ad3d59bd9653f200f220920489ca2b5937696c31836040516129ca91906150e0565b60405180910390a3505050565b6129e2848484612300565b6129ee8484848461352a565b612a2d576040517f08c379a0000000000000000000000000000000000000000000000000000000008152600401612a249061517e565b60405180910390fd5b50505050565b606060006040518060400160405280600781526020017f2363386662666200000000000000000000000000000000000000000000000000815250905060006040518060400160405280600781526020017f2338353666353600000000000000000000000000000000000000000000000000815250905060006040518060400160405280600781526020017f23376461323639000000000000000000000000000000000000000000000000008152509050600060096000878152602001908152602001600020604051602001612b089190614f1d565b60405160208183030381529060405290506000600860008881526020019081526020016000208054612b39906156f7565b80601f0160208091040260200160405190810160405280929190818152602001828054612b65906156f7565b8015612bb25780601f10612b8757610100808354040283529160200191612bb2565b820191906000526020600020905b815481529060010190602001808311612b9557829003601f168201915b505050505090506060612bc58287612707565b15612c07576040518060400160405280600581526020017f416c69656e0000000000000000000000000000000000000000000000000000008152509050612c9d565b612c118286612707565b15612c53576040518060400160405280600381526020017f41706500000000000000000000000000000000000000000000000000000000008152509050612c9c565b612c5d8285612707565b15612c9b576040518060400160405280600681526020017f5a6f6d626965000000000000000000000000000000000000000000000000000081525090505b5b5b600081511115612d2257826000845111612cc65760405180602001604052806000815250612cfd565b6040518060400160405280600281526020017f2c200000000000000000000000000000000000000000000000000000000000008152505b82604051602001612d1093929190614ea9565b60405160208183030381529060405292505b82604051602001612d339190614f8f565b6040516020818303038152906040529650505050505050919050565b6060600082511415612d7257604051806020016040528060008152509050612ee9565b60006040518060600160405280604081526020016159886040913990506000600360028551612da19190615502565b612dab9190615558565b6004612db79190615589565b90506000602082612dc89190615502565b67ffffffffffffffff811115612e07577f4e487b7100000000000000000000000000000000000000000000000000000000600052604160045260246000fd5b6040519080825280601f01601f191660200182016040528015612e395781602001600182028036833780820191505090505b509050818152600183018586518101602084015b81831015612ea8576003830192508251603f8160121c168501518253600182019150603f81600c1c168501518253600182019150603f8160061c168501518253600182019150603f8116850151825360018201915050612e4d565b600389510660018114612ec25760028114612ed257612edd565b613d3d60f01b6002830352612edd565b603d60f81b60018303525b50505050508093505050505b919050565b60606007835111612f22578183604051602001612f0c929190614f4a565b6040516020818303038152906040529050612f26565b8290505b92915050565b612f378383836136c1565b8173ffffffffffffffffffffffffffffffffffffffff168373ffffffffffffffffffffffffffffffffffffffff161415612f70576134ca565b6000600860008381526020019081526020016000208054612f90906156f7565b80601f0160208091040260200160405190810160405280929190818152602001828054612fbc906156f7565b80156130095780601f10612fde57610100808354040283529160200191613009565b820191906000526020600020905b815481529060010190602001808311612fec57829003601f168201915b505050505090506000600960008481526020019081526020016000206040516130329190614e2d565b604051809103902090507ff99975b1b7d766d47f24055dcf9d239a44d26bc887197da89a6e1cb7acbd0a9d81141561315f57600073ffffffffffffffffffffffffffffffffffffffff168573ffffffffffffffffffffffffffffffffffffffff16146130e1576130e0600a60008773ffffffffffffffffffffffffffffffffffffffff1673ffffffffffffffffffffffffffffffffffffffff168152602001908152602001600020836136c6565b5b600a60008573ffffffffffffffffffffffffffffffffffffffff1673ffffffffffffffffffffffffffffffffffffffff16815260200190815260200160002082908060018154018082558091505060019003906000526020600020016000909190919091509080519060200190613159929190613acf565b506134c7565b7f2aa1b44d53ecaef3818686a0e39502ef57e254136370bf94dbea962d9c1d211581141561328257600073ffffffffffffffffffffffffffffffffffffffff168573ffffffffffffffffffffffffffffffffffffffff161461320457613203600b60008773ffffffffffffffffffffffffffffffffffffffff1673ffffffffffffffffffffffffffffffffffffffff168152602001908152602001600020836136c6565b5b600b60008573ffffffffffffffffffffffffffffffffffffffff1673ffffffffffffffffffffffffffffffffffffffff1681526020019081526020016000208290806001815401808255809150506001900390600052602060002001600090919091909150908051906020019061327c929190613acf565b506134c6565b7f54b0769b5f3f2b3325755b96837f908e4f387f2ffbfb36e43a599d683c584e018114156133a557600073ffffffffffffffffffffffffffffffffffffffff168573ffffffffffffffffffffffffffffffffffffffff161461332757613326600c60008773ffffffffffffffffffffffffffffffffffffffff1673ffffffffffffffffffffffffffffffffffffffff168152602001908152602001600020836136c6565b5b600c60008573ffffffffffffffffffffffffffffffffffffffff1673ffffffffffffffffffffffffffffffffffffffff1681526020019081526020016000208290806001815401808255809150506001900390600052602060002001600090919091909150908051906020019061339f929190613acf565b506134c5565b7fad031b8dd7bd2be2fd611ae08d0f6eefaff2358a70428446315d94a57c654ddb8114156134c457600073ffffffffffffffffffffffffffffffffffffffff168573ffffffffffffffffffffffffffffffffffffffff161461344a57613449600d60008773ffffffffffffffffffffffffffffffffffffffff1673ffffffffffffffffffffffffffffffffffffffff168152602001908152602001600020836136c6565b5b600d60008573ffffffffffffffffffffffffffffffffffffffff1673ffffffffffffffffffffffffffffffffffffffff168152602001908152602001600020829080600181540180825580915050600190039060005260206000200160009091909190915090805190602001906134c2929190613acf565b505b5b5b5b50505b505050565b6134d98383613840565b6134e6600084848461352a565b613525576040517f08c379a000000000000000000000000000000000000000000000000000000000815260040161351c9061517e565b60405180910390fd5b505050565b600061354b8473ffffffffffffffffffffffffffffffffffffffff16613a0e565b156136b4578373ffffffffffffffffffffffffffffffffffffffff1663150b7a0261357461206e565b8786866040518563ffffffff1660e01b8152600401613596949392919061506b565b602060405180830381600087803b1580156135b057600080fd5b505af19250505080156135e157506040513d601f19601f820116820180604052508101906135de9190613f05565b60015b613664573d8060008114613611576040519150601f19603f3d011682016040523d82523d6000602084013e613616565b606091505b5060008151141561365c576040517f08c379a00000000000000000000000000000000000000000000000000000000081526004016136539061517e565b60405180910390fd5b805181602001fd5b63150b7a0260e01b7bffffffffffffffffffffffffffffffffffffffffffffffffffffffff1916817bffffffffffffffffffffffffffffffffffffffffffffffffffffffff1916149150506136b9565b600190505b949350505050565b505050565b60008190506000838054905090505b6000811115613839576137bf846001836136ef91906155e3565b81548110613726577f4e487b7100000000000000000000000000000000000000000000000000000000600052603260045260246000fd5b90600052602060002001805461373b906156f7565b80601f0160208091040260200160405190810160405280929190818152602001828054613767906156f7565b80156137b45780601f10613789576101008083540402835291602001916137b4565b820191906000526020600020905b81548152906001019060200180831161379757829003601f168201915b505050505083613a21565b1561382657836001826137d291906155e3565b81548110613809577f4e487b7100000000000000000000000000000000000000000000000000000000600052603260045260246000fd5b90600052602060002001600061381f9190613b55565b505061383c565b8080613831906156cd565b9150506136d5565b50505b5050565b600073ffffffffffffffffffffffffffffffffffffffff168273ffffffffffffffffffffffffffffffffffffffff1614156138b0576040517f08c379a00000000000000000000000000000000000000000000000000000000081526004016138a7906152fe565b60405180910390fd5b6138b981612002565b156138f9576040517f08c379a00000000000000000000000000000000000000000000000000000000081526004016138f0906151be565b60405180910390fd5b61390560008383612f2c565b6001600360008473ffffffffffffffffffffffffffffffffffffffff1673ffffffffffffffffffffffffffffffffffffffff16815260200190815260200160002060008282546139559190615502565b92505081905550816002600083815260200190815260200160002060006101000a81548173ffffffffffffffffffffffffffffffffffffffff021916908373ffffffffffffffffffffffffffffffffffffffff160217905550808273ffffffffffffffffffffffffffffffffffffffff16600073ffffffffffffffffffffffffffffffffffffffff167fddf252ad1be2c89b69c2b068fc378daa952ba7f163c4a11628f55a4df523b3ef60405160405180910390a45050565b600080823b905060008111915050919050565b600081518351148015613a41575081805190602001208380519060200120145b905092915050565b828054613a55906156f7565b90600052602060002090601f016020900481019282613a775760008555613abe565b82601f10613a9057803560ff1916838001178555613abe565b82800160010185558215613abe579182015b82811115613abd578235825591602001919060010190613aa2565b5b509050613acb9190613b95565b5090565b828054613adb906156f7565b90600052602060002090601f016020900481019282613afd5760008555613b44565b82601f10613b1657805160ff1916838001178555613b44565b82800160010185558215613b44579182015b82811115613b43578251825591602001919060010190613b28565b5b509050613b519190613b95565b5090565b508054613b61906156f7565b6000825580601f10613b735750613b92565b601f016020900490600052602060002090810190613b919190613b95565b5b50565b5b80821115613bae576000816000905550600101613b96565b5090565b6000613bc5613bc08461542a565b6153f9565b905082815260208101848484011115613bdd57600080fd5b613be884828561568b565b509392505050565b6000613c03613bfe8461545a565b6153f9565b905082815260208101848484011115613c1b57600080fd5b613c2684828561569a565b509392505050565b600081359050613c3d8161583f565b92915050565b600081359050613c5281615856565b92915050565b600081359050613c678161586d565b92915050565b600081519050613c7c8161586d565b92915050565b600082601f830112613c9357600080fd5b8135613ca3848260208601613bb2565b91505092915050565b60008083601f840112613cbe57600080fd5b8235905067ffffffffffffffff811115613cd757600080fd5b602083019150836001820283011115613cef57600080fd5b9250929050565b600082601f830112613d0757600080fd5b8151613d17848260208601613bf0565b91505092915050565b600081359050613d2f81615884565b92915050565b600060208284031215613d4757600080fd5b6000613d5584828501613c2e565b91505092915050565b60008060408385031215613d7157600080fd5b6000613d7f85828601613c2e565b9250506020613d9085828601613c2e565b9150509250929050565b600080600060608486031215613daf57600080fd5b6000613dbd86828701613c2e565b9350506020613dce86828701613c2e565b9250506040613ddf86828701613d20565b9150509250925092565b60008060008060808587031215613dff57600080fd5b6000613e0d87828801613c2e565b9450506020613e1e87828801613c2e565b9350506040613e2f87828801613d20565b925050606085013567ffffffffffffffff811115613e4c57600080fd5b613e5887828801613c82565b91505092959194509250565b60008060408385031215613e7757600080fd5b6000613e8585828601613c2e565b9250506020613e9685828601613c43565b9150509250929050565b60008060408385031215613eb357600080fd5b6000613ec185828601613c2e565b9250506020613ed285828601613d20565b9150509250929050565b600060208284031215613eee57600080fd5b6000613efc84828501613c58565b91505092915050565b600060208284031215613f1757600080fd5b6000613f2584828501613c6d565b91505092915050565b60008060008060408587031215613f4457600080fd5b600085013567ffffffffffffffff811115613f5e57600080fd5b613f6a87828801613cac565b9450945050602085013567ffffffffffffffff811115613f8957600080fd5b613f9587828801613cac565b925092505092959194509250565b60008060008060808587031215613fb957600080fd5b600085015167ffffffffffffffff811115613fd357600080fd5b613fdf87828801613cf6565b945050602085015167ffffffffffffffff811115613ffc57600080fd5b61400887828801613cf6565b935050604085015167ffffffffffffffff81111561402557600080fd5b61403187828801613cf6565b925050606085015167ffffffffffffffff81111561404e57600080fd5b61405a87828801613cf6565b91505092959194509250565b60006020828403121561407857600080fd5b600061408684828501613d20565b91505092915050565b61409881615617565b82525050565b6140a781615629565b82525050565b60006140b983856154db565b93506140c683858461568b565b82840190509392505050565b60006140dd826154b4565b6140e781856154ca565b93506140f781856020860161569a565b6141008161582e565b840191505092915050565b60008154614118816156f7565b61412281866154db565b9450600182166000811461413d576001811461414e57614181565b60ff19831686528186019350614181565b6141578561548a565b60005b838110156141795781548189015260018201915060208101905061415a565b838801955050505b50505092915050565b6000614195826154bf565b61419f81856154e6565b93506141af81856020860161569a565b6141b88161582e565b840191505092915050565b60006141ce826154bf565b6141d881856154f7565b93506141e881856020860161569a565b80840191505092915050565b60008154614201816156f7565b61420b81866154f7565b9450600182166000811461422657600181146142375761426a565b60ff1983168652818601935061426a565b6142408561549f565b60005b8381101561426257815481890152600182019150602081019050614243565b838801955050505b50505092915050565b60006142806050836154f7565b91507f3c636972636c6520766563746f722d6566666563743d276e6f6e2d7363616c6960008301527f6e672d7374726f6b65272063783d27353030272063793d273530302720723d2760208301527f343530272066696c6c3d2775726c2823000000000000000000000000000000006040830152605082019050919050565b600061430c6032836154e6565b91507f4552433732313a207472616e7366657220746f206e6f6e20455243373231526560008301527f63656976657220696d706c656d656e74657200000000000000000000000000006020830152604082019050919050565b60006143726026836154e6565b91507f4f776e61626c653a206e6577206f776e657220697320746865207a65726f206160008301527f64647265737300000000000000000000000000000000000000000000000000006020830152604082019050919050565b60006143d8601c836154e6565b91507f4552433732313a20746f6b656e20616c7265616479206d696e746564000000006000830152602082019050919050565b60006144186019836154e6565b91507f4e6f206672656520746f6b656e7320617661696c61626c652e000000000000006000830152602082019050919050565b60006144586029836154f7565b91507f7b202274726169745f74797065223a20224170706c69636174696f6e222c202260008301527f76616c7565223a202200000000000000000000000000000000000000000000006020830152602982019050919050565b60006144be6014836154f7565b91507f3c6c696e6561724772616469656e742069643d270000000000000000000000006000830152601482019050919050565b60006144fe6024836154e6565b91507f4552433732313a207472616e7366657220746f20746865207a65726f2061646460008301527f72657373000000000000000000000000000000000000000000000000000000006020830152604082019050919050565b60006145646019836154e6565b91507f4552433732313a20617070726f766520746f2063616c6c6572000000000000006000830152602082019050919050565b60006145a46003836154f7565b91507f22207d00000000000000000000000000000000000000000000000000000000006000830152600382019050919050565b60006145e46014836154e6565b91507f546f6b656e20646f6573206e6f742065786973740000000000000000000000006000830152602082019050919050565b6000614624602c836154e6565b91507f4552433732313a206f70657261746f7220717565727920666f72206e6f6e657860008301527f697374656e7420746f6b656e00000000000000000000000000000000000000006020830152604082019050919050565b600061468a6045836154e6565b91507f4170706c69636174696f6e20696e76616c69642c20616c6c6f7765642061726560008301527f20276261636b272c20276672616d65272c202764696769742720616e6420277360208301527f6c7567272e0000000000000000000000000000000000000000000000000000006040830152606082019050919050565b60006147166014836154f7565b91507f272f3e3c2f6c696e6561724772616469656e743e0000000000000000000000006000830152601482019050919050565b60006147566014836154f7565b91507f273e3c73746f702073746f702d636f6c6f723d270000000000000000000000006000830152601482019050919050565b60006147966038836154e6565b91507f4552433732313a20617070726f76652063616c6c6572206973206e6f74206f7760008301527f6e6572206e6f7220617070726f76656420666f7220616c6c00000000000000006020830152604082019050919050565b60006147fc602a836154e6565b91507f4552433732313a2062616c616e636520717565727920666f7220746865207a6560008301527f726f2061646472657373000000000000000000000000000000000000000000006020830152604082019050919050565b60006148626029836154e6565b91507f4552433732313a206f776e657220717565727920666f72206e6f6e657869737460008301527f656e7420746f6b656e00000000000000000000000000000000000000000000006020830152604082019050919050565b60006148c86002836154f7565b91507f227d0000000000000000000000000000000000000000000000000000000000006000830152600282019050919050565b60006149086020836154e6565b91507f4552433732313a206d696e7420746f20746865207a65726f20616464726573736000830152602082019050919050565b6000614948602c836154e6565b91507f4552433732313a20617070726f76656420717565727920666f72206e6f6e657860008301527f697374656e7420746f6b656e00000000000000000000000000000000000000006020830152604082019050919050565b60006149ae6020836154e6565b91507f4f776e61626c653a2063616c6c6572206973206e6f7420746865206f776e65726000830152602082019050919050565b60006149ee6029836154e6565b91507f4552433732313a207472616e73666572206f6620746f6b656e2074686174206960008301527f73206e6f74206f776e00000000000000000000000000000000000000000000006020830152604082019050919050565b6000614a546010836154e6565b91507f546f6b656e20496420696e76616c6964000000000000000000000000000000006000830152602082019050919050565b6000614a94600f836154f7565b91507f2261747472696275746573223a205b00000000000000000000000000000000006000830152600f82019050919050565b6000614ad46001836154f7565b91507f5d000000000000000000000000000000000000000000000000000000000000006000830152600182019050919050565b6000614b146021836154e6565b91507f4552433732313a20617070726f76616c20746f2063757272656e74206f776e6560008301527f72000000000000000000000000000000000000000000000000000000000000006020830152604082019050919050565b6000614b7a601d836154f7565b91507f646174613a6170706c69636174696f6e2f6a736f6e3b6261736536342c0000006000830152601d82019050919050565b6000614bba6007836154f7565b91507f3c2f646566733e000000000000000000000000000000000000000000000000006000830152600782019050919050565b6000614bfa6031836154e6565b91507f4552433732313a207472616e736665722063616c6c6572206973206e6f74206f60008301527f776e6572206e6f7220617070726f7665640000000000000000000000000000006020830152604082019050919050565b6000614c606006836154f7565b91507f3c646566733e00000000000000000000000000000000000000000000000000006000830152600682019050919050565b6000614ca06022836154f7565b91507f7b202274726169745f74797065223a202254797065222c202276616c7565223a60008301527f20220000000000000000000000000000000000000000000000000000000000006020830152602282019050919050565b6000614d066028836154f7565b91507f7b226e616d65223a20224f4720436f6c6f72222c20226465736372697074696f60008301527f6e223a2022222c200000000000000000000000000000000000000000000000006020830152602882019050919050565b6000614d6c6026836154f7565b91507f2c2022696d616765223a2022646174613a696d6167652f7376672b786d6c3b6260008301527f61736536342c00000000000000000000000000000000000000000000000000006020830152602682019050919050565b6000614dd26018836154f7565b91507f2927206d61736b3d2775726c28235f6d61736b2927202f3e00000000000000006000830152601882019050919050565b614e0e81615681565b82525050565b6000614e218284866140ad565b91508190509392505050565b6000614e39828461410b565b915081905092915050565b6000614e50828a6141c3565b9150614e5c82896141c3565b9150614e6882886141c3565b9150614e7482876141c3565b9150614e8082866141c3565b9150614e8c82856141c3565b9150614e9882846141c3565b915081905098975050505050505050565b6000614eb582866141c3565b9150614ec182856141c3565b9150614ecc82614c93565b9150614ed882846141c3565b9150614ee382614597565b9150819050949350505050565b6000614efb82614273565b9150614f0782846141f4565b9150614f1282614dc5565b915081905092915050565b6000614f288261444b565b9150614f3482846141f4565b9150614f3f82614597565b915081905092915050565b6000614f55826144b1565b9150614f6182856141c3565b9150614f6c82614749565b9150614f7882846141c3565b9150614f8382614709565b91508190509392505050565b6000614f9a82614a87565b9150614fa682846141c3565b9150614fb182614ac7565b915081905092915050565b6000614fc782614b6d565b9150614fd382846141c3565b915081905092915050565b6000614fe982614c53565b9150614ff582846141c3565b915061500082614bad565b915081905092915050565b600061501682614cf9565b915061502282856141c3565b915061502d82614d5f565b915061503982846141c3565b9150615044826148bb565b91508190509392505050565b6000602082019050615065600083018461408f565b92915050565b6000608082019050615080600083018761408f565b61508d602083018661408f565b61509a6040830185614e05565b81810360608301526150ac81846140d2565b905095945050505050565b60006040820190506150cc600083018561408f565b6150d96020830184614e05565b9392505050565b60006020820190506150f5600083018461409e565b92915050565b60006020820190508181036000830152615115818461418a565b905092915050565b60006080820190508181036000830152615137818761418a565b9050818103602083015261514b818661418a565b9050818103604083015261515f818561418a565b90508181036060830152615173818461418a565b905095945050505050565b60006020820190508181036000830152615197816142ff565b9050919050565b600060208201905081810360008301526151b781614365565b9050919050565b600060208201905081810360008301526151d7816143cb565b9050919050565b600060208201905081810360008301526151f78161440b565b9050919050565b60006020820190508181036000830152615217816144f1565b9050919050565b6000602082019050818103600083015261523781614557565b9050919050565b60006020820190508181036000830152615257816145d7565b9050919050565b6000602082019050818103600083015261527781614617565b9050919050565b600060208201905081810360008301526152978161467d565b9050919050565b600060208201905081810360008301526152b781614789565b9050919050565b600060208201905081810360008301526152d7816147ef565b9050919050565b600060208201905081810360008301526152f781614855565b9050919050565b60006020820190508181036000830152615317816148fb565b9050919050565b600060208201905081810360008301526153378161493b565b9050919050565b60006020820190508181036000830152615357816149a1565b9050919050565b60006020820190508181036000830152615377816149e1565b9050919050565b6000602082019050818103600083015261539781614a47565b9050919050565b600060208201905081810360008301526153b781614b07565b9050919050565b600060208201905081810360008301526153d781614bed565b9050919050565b60006020820190506153f36000830184614e05565b92915050565b6000604051905081810181811067ffffffffffffffff821117156154205761541f6157ff565b5b8060405250919050565b600067ffffffffffffffff821115615445576154446157ff565b5b601f19601f8301169050602081019050919050565b600067ffffffffffffffff821115615475576154746157ff565b5b601f19601f8301169050602081019050919050565b60008190508160005260206000209050919050565b60008190508160005260206000209050919050565b600081519050919050565b600081519050919050565b600082825260208201905092915050565b600081905092915050565b600082825260208201905092915050565b600081905092915050565b600061550d82615681565b915061551883615681565b9250827fffffffffffffffffffffffffffffffffffffffffffffffffffffffffffffffff0382111561554d5761554c615772565b5b828201905092915050565b600061556382615681565b915061556e83615681565b92508261557e5761557d6157a1565b5b828204905092915050565b600061559482615681565b915061559f83615681565b9250817fffffffffffffffffffffffffffffffffffffffffffffffffffffffffffffffff04831182151516156155d8576155d7615772565b5b828202905092915050565b60006155ee82615681565b91506155f983615681565b92508282101561560c5761560b615772565b5b828203905092915050565b600061562282615661565b9050919050565b60008115159050919050565b60007fffffffff0000000000000000000000000000000000000000000000000000000082169050919050565b600073ffffffffffffffffffffffffffffffffffffffff82169050919050565b6000819050919050565b82818337600083830152505050565b60005b838110156156b857808201518184015260208101905061569d565b838111156156c7576000848401525b50505050565b60006156d882615681565b915060008214156156ec576156eb615772565b5b600182039050919050565b6000600282049050600182168061570f57607f821691505b60208210811415615723576157226157d0565b5b50919050565b600061573482615681565b91507fffffffffffffffffffffffffffffffffffffffffffffffffffffffffffffffff82141561576757615766615772565b5b600182019050919050565b7f4e487b7100000000000000000000000000000000000000000000000000000000600052601160045260246000fd5b7f4e487b7100000000000000000000000000000000000000000000000000000000600052601260045260246000fd5b7f4e487b7100000000000000000000000000000000000000000000000000000000600052602260045260246000fd5b7f4e487b7100000000000000000000000000000000000000000000000000000000600052604160045260246000fd5b6000601f19601f8301169050919050565b61584881615617565b811461585357600080fd5b50565b61585f81615629565b811461586a57600080fd5b50565b61587681615635565b811461588157600080fd5b50565b61588d81615681565b811461589857600080fd5b5056fe3c73766720786d6c6e733d27687474703a2f2f7777772e77332e6f72672f323030302f7376672720786d6c6e733a786c696e6b3d27687474703a2f2f7777772e77332e6f72672f313939392f786c696e6b272077696474683d273130303027206865696768743d2731303030272076696577426f783d2730203020313030302031303030273e202020203c636972636c6520766563746f722d6566666563743d276e6f6e2d7363616c696e672d7374726f6b65272063783d27353030272063793d273530302720723d27343530272066696c6c3d27776869746527207374726f6b653d276e6f6e6527202f3e4142434445464748494a4b4c4d4e4f505152535455565758595a6162636465666768696a6b6c6d6e6f707172737475767778797a303132333435363738392b2f7b202274726169745f74797065223a2022436f6c6f72222c202276616c7565223a20225a6f6d62696522207d7b202274726169745f74797065223a2022436f6c6f72222c202276616c7565223a202241706522207d7b202274726169745f74797065223a2022436f6c6f72222c202276616c7565223a2022416c69656e22207da2646970667358221220ca9c430f8e0d360333c02ac8aa243c6df1b564d3ec21a6a1e5ded8fdb9e9075464736f6c63430008000033",
  "immutableReferences": {},
  "source": "// SPDX-License-Identifier: MIT\r\n\r\npragma solidity 0.8.0;\r\n\r\nimport \"@openzeppelin/contracts/token/ERC721/ERC721.sol\";\r\nimport \"@openzeppelin/contracts/access/Ownable.sol\";\r\nimport \"base64-sol/base64.sol\";\r\n\r\n/**\r\n * @title Defines colors for OG NFTs. When minting, a color and an application (which part of the OG NFT to colorize) has to be defined.\r\n * There are four different applications (back, frame, digit, slug), but only a few colors to mint.\r\n * @author nfttank.eth\r\n */\r\ncontract OGColor is ERC721, Ownable {\r\n    \r\n    uint256 private _totalSupply;\r\n\r\n    mapping(uint256 => string) private _colors;\r\n    mapping(uint256 => string) private _applications;\r\n    \r\n    mapping(address => string[]) private _backColorsForAddress;\r\n    mapping(address => string[]) private _frameColorsForAddress;\r\n    mapping(address => string[]) private _digitColorsForAddress;\r\n    mapping(address => string[]) private _slugColorsForAddress;\r\n    \r\n    constructor() ERC721(\"OGColor\", \"OGCOLOR\") Ownable() {\r\n    }\r\n\r\n    /**\r\n    * @dev It's recommended to use lower case color strings like #ffffff instead of #FFFFFF\r\n    */\r\n    function mint(string calldata application, string calldata color) public {\r\n\r\n        require(_totalSupply + 1 < 9999, \"No free tokens available.\");\r\n        require(isValidApplication(application), \"Application invalid, allowed are 'back', 'frame', 'digit' and 'slug'.\");\r\n\r\n        uint256 newId = _totalSupply;\r\n\r\n        _colors[newId] = color;\r\n        _applications[newId] = application;\r\n        \r\n        _safeMint(_msgSender(), newId);\r\n\r\n        _totalSupply++;\r\n    }\r\n\r\n    function totalSupply() public view virtual returns (uint256) {\r\n        return _totalSupply;\r\n    }\r\n\r\n    function renderSvg(uint256 tokenId) public virtual view returns (string memory) {\r\n        require(tokenId >= 0 && tokenId <= 9999, \"Token Id invalid\");\r\n        require(_exists(tokenId), \"Token does not exist\");\r\n        \r\n        string[] memory parts = new string[](7);\r\n\r\n        parts[0] = \"<svg xmlns='http://www.w3.org/2000/svg' xmlns:xlink='http://www.w3.org/1999/xlink' width='1000' height='1000' viewBox='0 0 1000 1000'>\";\r\n        parts[1] = string(abi.encodePacked(\"<defs>\", formatColor(_colors[tokenId], _applications[tokenId]), \"</defs>\"));\r\n        parts[2] = \"<mask id='_mask'>\";\r\n        parts[3] = \"    <circle vector-effect='non-scaling-stroke' cx='500' cy='500' r='450' fill='white' stroke='none' />\";\r\n        parts[4] = \"</mask>\";\r\n        parts[5] = string(abi.encodePacked(\"<circle vector-effect='non-scaling-stroke' cx='500' cy='500' r='450' fill='url(#\", _applications[tokenId], \")' mask='url(#_mask)' />\"));\r\n        parts[6] = \"</svg>\";\r\n        \r\n        return string(abi.encodePacked(parts[0], parts[1], parts[2], parts[3], parts[4], parts[5], parts[6]));\r\n    }\r\n\r\n    function tokenURI(uint256 tokenId) override public view returns (string memory) {\r\n        require(tokenId >= 0 && tokenId <= 9999, \"Token Id invalid\");\r\n        require(_exists(tokenId), \"Token does not exist\");\r\n    \r\n        string memory json = Base64.encode(bytes(string(abi.encodePacked('{\"name\": \"OG Color\", \"description\": \"\", ', getAttributesForColor(tokenId), ', \"image\": \"data:image/svg+xml;base64,', Base64.encode(bytes(renderSvg(tokenId))), '\"}'))));\r\n        return string(abi.encodePacked('data:application/json;base64,', json));\r\n    }\r\n\r\n    function getAttributesForColor(uint256 tokenId) private view returns (string memory) {\r\n\r\n        bytes memory ax = '#c8fbfb';\r\n        bytes memory ap = '#856f56';\r\n        bytes memory zz = '#7da269';\r\n\r\n        string memory traits = string(abi.encodePacked('{ \"trait_type\": \"Application\", \"value\": \"', _applications[tokenId], '\" }'));\r\n\r\n        bytes memory color = bytes(_colors[tokenId]);\r\n        string memory type_;\r\n\r\n        if (stringContains(color, ax)) {\r\n            type_ = 'Alien';\r\n        } else if (stringContains(color, ap)) {\r\n            type_ = 'Ape';\r\n        } else if (stringContains(color, zz)) {\r\n            type_ = 'Zombie';\r\n        }\r\n\r\n        if (bytes(type_).length > 0) {\r\n            traits = string(abi.encodePacked(traits, (bytes(traits).length > 0 ? ', ' : ''), '{ \"trait_type\": \"Type\", \"value\": \"', type_, '\" }'));\r\n        }\r\n\r\n        return string(abi.encodePacked('\"attributes\": [', traits, ']'));\r\n    }\r\n\r\n    function getOgAttributes(address forAddress, uint256 tokenId) external view returns (string memory) {\r\n        \r\n        (string memory back, string memory frame, string memory digit, string memory slug) = this.getColors(forAddress, tokenId);\r\n\r\n        bytes memory b = bytes(back);\r\n        bytes memory f = bytes(frame);\r\n        bytes memory d = bytes(digit);\r\n        bytes memory s = bytes(slug);\r\n\r\n        bytes memory ax = '#c8fbfb';\r\n        bytes memory ap = '#856f56';\r\n        bytes memory zz = '#7da269';\r\n\r\n        if (stringContains(b, ax) || stringContains(f, ax) || stringContains(d, ax) || stringContains(s, ax)) {\r\n            return '{ \"trait_type\": \"Color\", \"value\": \"Alien\" }';\r\n        }\r\n\r\n        if (stringContains(b, ap) || stringContains(f, ap) || stringContains(d, ap) || stringContains(s, ap)) {\r\n            return '{ \"trait_type\": \"Color\", \"value\": \"Ape\" }';\r\n        }\r\n\r\n        if (stringContains(b, zz) || stringContains(f, zz) || stringContains(d, zz) || stringContains(s, zz)) {\r\n           return '{ \"trait_type\": \"Color\", \"value\": \"Zombie\" }';\r\n        }\r\n\r\n        return '';\r\n    }\r\n\r\n\r\n    function isValidApplication(string calldata application) private pure returns (bool) {\r\n        bytes32 k = keccak256(bytes(application));\r\n        return k == keccak256(\"back\") \r\n            || k == keccak256(\"frame\")\r\n            || k == keccak256(\"digit\") \r\n            || k == keccak256(\"slug\");\r\n    }\r\n    \r\n    function _beforeTokenTransfer(address from, address to, uint256 tokenId) internal override {\r\n        \r\n        super._beforeTokenTransfer(from, to, tokenId);\r\n\r\n        if (from == to) // pseudo use of from-variable to prevent warnings while keeping the overridden method signature\r\n            return;\r\n\r\n        string memory color = _colors[tokenId];\r\n        bytes32 application = keccak256(bytes(_applications[tokenId]));\r\n        \r\n        if (application == keccak256(\"back\")) {\r\n            if (from != address(0))\r\n               removeColor(_backColorsForAddress[from], color);\r\n            _backColorsForAddress[to].push(color);\r\n        }\r\n        else if (application == keccak256(\"frame\")) {\r\n            if (from != address(0))\r\n                removeColor(_frameColorsForAddress[from], color);\r\n            _frameColorsForAddress[to].push(color);\r\n        }\r\n        else if (application == keccak256(\"digit\")) {\r\n            if (from != address(0))\r\n                removeColor(_digitColorsForAddress[from], color);\r\n            _digitColorsForAddress[to].push(color);\r\n        }\r\n        else if (application == keccak256(\"slug\")) {\r\n            if (from != address(0))\r\n                removeColor(_slugColorsForAddress[from], color);\r\n            _slugColorsForAddress[to].push(color);\r\n        }\r\n    }\r\n\r\n    function removeColor(string[] storage colors, string memory exceptColor) private {\r\n\r\n        bytes memory except = bytes(exceptColor);\r\n\r\n        // https://ethereum.stackexchange.com/questions/63653/why-i-cannot-loop-through-array-backwards-in-solidity/63654\r\n        for (uint256 i = colors.length; i > 0; i--) {\r\n            if (bytesEquals(bytes(colors[i - 1]), except)) {\r\n                delete colors[i - 1];\r\n                return;\r\n            }\r\n        }\r\n    }\r\n\r\n    \r\n    function bytesEquals(bytes memory a, bytes memory b) internal pure returns(bool) {\r\n        return (a.length == b.length) && (keccak256(a) == keccak256(b));\r\n    }\r\n\r\n    function stringContains(bytes memory where, bytes memory what) internal pure returns (bool) {\r\n\r\n        require(where.length >= what.length);\r\n\r\n        bool found = false;\r\n        for (uint i = 0; i <= where.length - what.length; i++) {\r\n            bool flag = true;\r\n            for (uint j = 0; j < what.length; j++)\r\n                if (where [i + j] != what [j]) {\r\n                    flag = false;\r\n                    break;\r\n                }\r\n            if (flag) {\r\n                found = true;\r\n                break;\r\n            }\r\n        }\r\n\r\n        return found;\r\n    }\r\n\r\n    function getColors(address forAddress, uint256 tokenId) external view returns (string memory backColor, string memory frameColor, string memory digitColor, string memory slugColor) {\r\n\r\n        string[] memory colors = tokenId < 99999 ? _backColorsForAddress[forAddress] : new string[](0); // pseudo use of tokenId to prevent warnings. We still want the tokenId in the method arguments to be able to modify colors by the tokenId in the future.\r\n        string memory back = getColorFromArray(colors, \"#FFFFFF\", \"back\");\r\n        \r\n        colors = _frameColorsForAddress[forAddress];\r\n        string memory frame = getColorFromArray(colors, \"#000000\", \"frame\");\r\n        \r\n        colors = _digitColorsForAddress[forAddress];\r\n        string memory digit = getColorFromArray(colors, \"#000000\", \"digit\");\r\n        \r\n        colors = _slugColorsForAddress[forAddress];\r\n        string memory slug = getColorFromArray(colors, \"#FFFFFF\", \"slug\");\r\n        \r\n        return (back, frame, digit, slug);\r\n    }\r\n\r\n    function getColorFromArray(string[] memory colors, string memory fallbackValue, string memory application) internal pure returns (string memory) {\r\n\r\n        string memory color;\r\n\r\n        // https://ethereum.stackexchange.com/questions/63653/why-i-cannot-loop-through-array-backwards-in-solidity/63654\r\n        for (uint256 i = colors.length; i > 0; i--) {\r\n            if (bytes(colors[i - 1]).length > 0) {\r\n                color = colors[i - 1];\r\n                break;\r\n            }\r\n        }\r\n\r\n        if (bytes(color).length == 0) {\r\n            color = fallbackValue;\r\n        }\r\n\r\n        return formatColor(color, application);\r\n    }\r\n\r\n    function formatColor(string memory color, string memory application) internal pure returns (string memory) {\r\n\r\n        // turn hex colors like #527862 into a linear gradient\r\n        if (bytes(color).length <= 7) {\r\n            return string(abi.encodePacked(\"<linearGradient id='\", application, \"'><stop stop-color='\", color, \"'/></linearGradient>\"));\r\n        }\r\n\r\n        return color;\r\n    }\r\n}",
  "sourcePath": "D:\\Develop\\GitHub\\OG+\\src\\contracts\\OGColor.sol",
  "compiler": {
    "name": "solc",
    "version": "0.8.0+commit.c7dfd78e.Emscripten.clang"
  },
  "schemaVersion": "3.4.3",
  "updatedAt": "2022-02-01T23:39:07.333Z",
  "networkType": "ethereum",
  "devdoc": {
    "author": "nfttank.eth",
    "kind": "dev",
    "methods": {
      "approve(address,uint256)": {
        "details": "See {IERC721-approve}."
      },
      "balanceOf(address)": {
        "details": "See {IERC721-balanceOf}."
      },
      "getApproved(uint256)": {
        "details": "See {IERC721-getApproved}."
      },
      "isApprovedForAll(address,address)": {
        "details": "See {IERC721-isApprovedForAll}."
      },
      "mint(string,string)": {
        "details": "It's recommended to use lower case color strings like #ffffff instead of #FFFFFF"
      },
      "name()": {
        "details": "See {IERC721Metadata-name}."
      },
      "owner()": {
        "details": "Returns the address of the current owner."
      },
      "ownerOf(uint256)": {
        "details": "See {IERC721-ownerOf}."
      },
      "renounceOwnership()": {
        "details": "Leaves the contract without owner. It will not be possible to call `onlyOwner` functions anymore. Can only be called by the current owner. NOTE: Renouncing ownership will leave the contract without an owner, thereby removing any functionality that is only available to the owner."
      },
      "safeTransferFrom(address,address,uint256)": {
        "details": "See {IERC721-safeTransferFrom}."
      },
      "safeTransferFrom(address,address,uint256,bytes)": {
        "details": "See {IERC721-safeTransferFrom}."
      },
      "setApprovalForAll(address,bool)": {
        "details": "See {IERC721-setApprovalForAll}."
      },
      "supportsInterface(bytes4)": {
        "details": "See {IERC165-supportsInterface}."
      },
      "symbol()": {
        "details": "See {IERC721Metadata-symbol}."
      },
      "tokenURI(uint256)": {
        "details": "See {IERC721Metadata-tokenURI}."
      },
      "transferFrom(address,address,uint256)": {
        "details": "See {IERC721-transferFrom}."
      },
      "transferOwnership(address)": {
        "details": "Transfers ownership of the contract to a new account (`newOwner`). Can only be called by the current owner."
      }
    },
    "title": "Defines colors for OG NFTs. When minting, a color and an application (which part of the OG NFT to colorize) has to be defined. There are four different applications (back, frame, digit, slug), but only a few colors to mint.",
    "version": 1
  },
  "userdoc": {
    "kind": "user",
    "methods": {},
    "version": 1
  }
}