{
  "contractName": "OGColor",
  "abi": [
    {
      "inputs": [],
      "stateMutability": "nonpayable",
      "type": "constructor"
    },
    {
      "anonymous": false,
      "inputs": [
        {
          "indexed": true,
          "internalType": "address",
          "name": "owner",
          "type": "address"
        },
        {
          "indexed": true,
          "internalType": "address",
          "name": "approved",
          "type": "address"
        },
        {
          "indexed": true,
          "internalType": "uint256",
          "name": "tokenId",
          "type": "uint256"
        }
      ],
      "name": "Approval",
      "type": "event"
    },
    {
      "anonymous": false,
      "inputs": [
        {
          "indexed": true,
          "internalType": "address",
          "name": "owner",
          "type": "address"
        },
        {
          "indexed": true,
          "internalType": "address",
          "name": "operator",
          "type": "address"
        },
        {
          "indexed": false,
          "internalType": "bool",
          "name": "approved",
          "type": "bool"
        }
      ],
      "name": "ApprovalForAll",
      "type": "event"
    },
    {
      "anonymous": false,
      "inputs": [
        {
          "indexed": true,
          "internalType": "address",
          "name": "previousOwner",
          "type": "address"
        },
        {
          "indexed": true,
          "internalType": "address",
          "name": "newOwner",
          "type": "address"
        }
      ],
      "name": "OwnershipTransferred",
      "type": "event"
    },
    {
      "anonymous": false,
      "inputs": [
        {
          "indexed": true,
          "internalType": "address",
          "name": "from",
          "type": "address"
        },
        {
          "indexed": true,
          "internalType": "address",
          "name": "to",
          "type": "address"
        },
        {
          "indexed": true,
          "internalType": "uint256",
          "name": "tokenId",
          "type": "uint256"
        }
      ],
      "name": "Transfer",
      "type": "event"
    },
    {
      "inputs": [
        {
          "internalType": "address",
          "name": "to",
          "type": "address"
        },
        {
          "internalType": "uint256",
          "name": "tokenId",
          "type": "uint256"
        }
      ],
      "name": "approve",
      "outputs": [],
      "stateMutability": "nonpayable",
      "type": "function"
    },
    {
      "inputs": [
        {
          "internalType": "address",
          "name": "owner",
          "type": "address"
        }
      ],
      "name": "balanceOf",
      "outputs": [
        {
          "internalType": "uint256",
          "name": "",
          "type": "uint256"
        }
      ],
      "stateMutability": "view",
      "type": "function",
      "constant": true
    },
    {
      "inputs": [
        {
          "internalType": "uint256",
          "name": "tokenId",
          "type": "uint256"
        }
      ],
      "name": "getApproved",
      "outputs": [
        {
          "internalType": "address",
          "name": "",
          "type": "address"
        }
      ],
      "stateMutability": "view",
      "type": "function",
      "constant": true
    },
    {
      "inputs": [
        {
          "internalType": "address",
          "name": "owner",
          "type": "address"
        },
        {
          "internalType": "address",
          "name": "operator",
          "type": "address"
        }
      ],
      "name": "isApprovedForAll",
      "outputs": [
        {
          "internalType": "bool",
          "name": "",
          "type": "bool"
        }
      ],
      "stateMutability": "view",
      "type": "function",
      "constant": true
    },
    {
      "inputs": [],
      "name": "name",
      "outputs": [
        {
          "internalType": "string",
          "name": "",
          "type": "string"
        }
      ],
      "stateMutability": "view",
      "type": "function",
      "constant": true
    },
    {
      "inputs": [],
      "name": "owner",
      "outputs": [
        {
          "internalType": "address",
          "name": "",
          "type": "address"
        }
      ],
      "stateMutability": "view",
      "type": "function",
      "constant": true
    },
    {
      "inputs": [
        {
          "internalType": "uint256",
          "name": "tokenId",
          "type": "uint256"
        }
      ],
      "name": "ownerOf",
      "outputs": [
        {
          "internalType": "address",
          "name": "",
          "type": "address"
        }
      ],
      "stateMutability": "view",
      "type": "function",
      "constant": true
    },
    {
      "inputs": [],
      "name": "renounceOwnership",
      "outputs": [],
      "stateMutability": "nonpayable",
      "type": "function"
    },
    {
      "inputs": [
        {
          "internalType": "address",
          "name": "from",
          "type": "address"
        },
        {
          "internalType": "address",
          "name": "to",
          "type": "address"
        },
        {
          "internalType": "uint256",
          "name": "tokenId",
          "type": "uint256"
        }
      ],
      "name": "safeTransferFrom",
      "outputs": [],
      "stateMutability": "nonpayable",
      "type": "function"
    },
    {
      "inputs": [
        {
          "internalType": "address",
          "name": "from",
          "type": "address"
        },
        {
          "internalType": "address",
          "name": "to",
          "type": "address"
        },
        {
          "internalType": "uint256",
          "name": "tokenId",
          "type": "uint256"
        },
        {
          "internalType": "bytes",
          "name": "_data",
          "type": "bytes"
        }
      ],
      "name": "safeTransferFrom",
      "outputs": [],
      "stateMutability": "nonpayable",
      "type": "function"
    },
    {
      "inputs": [
        {
          "internalType": "address",
          "name": "operator",
          "type": "address"
        },
        {
          "internalType": "bool",
          "name": "approved",
          "type": "bool"
        }
      ],
      "name": "setApprovalForAll",
      "outputs": [],
      "stateMutability": "nonpayable",
      "type": "function"
    },
    {
      "inputs": [
        {
          "internalType": "bytes4",
          "name": "interfaceId",
          "type": "bytes4"
        }
      ],
      "name": "supportsInterface",
      "outputs": [
        {
          "internalType": "bool",
          "name": "",
          "type": "bool"
        }
      ],
      "stateMutability": "view",
      "type": "function",
      "constant": true
    },
    {
      "inputs": [],
      "name": "symbol",
      "outputs": [
        {
          "internalType": "string",
          "name": "",
          "type": "string"
        }
      ],
      "stateMutability": "view",
      "type": "function",
      "constant": true
    },
    {
      "inputs": [
        {
          "internalType": "address",
          "name": "from",
          "type": "address"
        },
        {
          "internalType": "address",
          "name": "to",
          "type": "address"
        },
        {
          "internalType": "uint256",
          "name": "tokenId",
          "type": "uint256"
        }
      ],
      "name": "transferFrom",
      "outputs": [],
      "stateMutability": "nonpayable",
      "type": "function"
    },
    {
      "inputs": [
        {
          "internalType": "address",
          "name": "newOwner",
          "type": "address"
        }
      ],
      "name": "transferOwnership",
      "outputs": [],
      "stateMutability": "nonpayable",
      "type": "function"
    },
    {
      "inputs": [
        {
          "internalType": "string",
          "name": "application",
          "type": "string"
        },
        {
          "internalType": "string",
          "name": "color",
          "type": "string"
        }
      ],
      "name": "mint",
      "outputs": [],
      "stateMutability": "nonpayable",
      "type": "function"
    },
    {
      "inputs": [],
      "name": "totalSupply",
      "outputs": [
        {
          "internalType": "uint256",
          "name": "",
          "type": "uint256"
        }
      ],
      "stateMutability": "view",
      "type": "function",
      "constant": true
    },
    {
      "inputs": [
        {
          "internalType": "uint256",
          "name": "tokenId",
          "type": "uint256"
        }
      ],
      "name": "renderSvg",
      "outputs": [
        {
          "internalType": "string",
          "name": "",
          "type": "string"
        }
      ],
      "stateMutability": "view",
      "type": "function",
      "constant": true
    },
    {
      "inputs": [
        {
          "internalType": "uint256",
          "name": "tokenId",
          "type": "uint256"
        }
      ],
      "name": "tokenURI",
      "outputs": [
        {
          "internalType": "string",
          "name": "",
          "type": "string"
        }
      ],
      "stateMutability": "view",
      "type": "function",
      "constant": true
    },
    {
      "inputs": [
        {
          "internalType": "address",
          "name": "forAddress",
          "type": "address"
        },
        {
          "internalType": "uint256",
          "name": "tokenId",
          "type": "uint256"
        }
      ],
      "name": "getOgAttributes",
      "outputs": [
        {
          "internalType": "string",
          "name": "",
          "type": "string"
        }
      ],
      "stateMutability": "view",
      "type": "function",
      "constant": true
    },
    {
      "inputs": [
        {
          "internalType": "address",
          "name": "forAddress",
          "type": "address"
        },
        {
          "internalType": "uint256",
          "name": "tokenId",
          "type": "uint256"
        }
      ],
      "name": "getColors",
      "outputs": [
        {
          "internalType": "string",
          "name": "backColor",
          "type": "string"
        },
        {
          "internalType": "string",
          "name": "frameColor",
          "type": "string"
        },
        {
          "internalType": "string",
          "name": "digitColor",
          "type": "string"
        },
        {
          "internalType": "string",
          "name": "slugColor",
          "type": "string"
        }
      ],
      "stateMutability": "view",
      "type": "function",
      "constant": true
    }
  ],
  "bytecode": "0x60806040523480156200001157600080fd5b506040518060400160405280600781526020017f4f47436f6c6f72000000000000000000000000000000000000000000000000008152506040518060400160405280600781526020017f4f47434f4c4f5200000000000000000000000000000000000000000000000000815250816000908051906020019062000096929190620001a6565b508060019080519060200190620000af929190620001a6565b505050620000d2620000c6620000d860201b60201c565b620000e060201b60201c565b620002bb565b600033905090565b6000600660009054906101000a900473ffffffffffffffffffffffffffffffffffffffff16905081600660006101000a81548173ffffffffffffffffffffffffffffffffffffffff021916908373ffffffffffffffffffffffffffffffffffffffff1602179055508173ffffffffffffffffffffffffffffffffffffffff168173ffffffffffffffffffffffffffffffffffffffff167f8be0079c531659141344cd1fd0a4f28419497f9722a3daafe3b4186f6b6457e060405160405180910390a35050565b828054620001b49062000256565b90600052602060002090601f016020900481019282620001d8576000855562000224565b82601f10620001f357805160ff191683800117855562000224565b8280016001018555821562000224579182015b828111156200022357825182559160200191906001019062000206565b5b50905062000233919062000237565b5090565b5b808211156200025257600081600090555060010162000238565b5090565b600060028204905060018216806200026f57607f821691505b602082108114156200028657620002856200028c565b5b50919050565b7f4e487b7100000000000000000000000000000000000000000000000000000000600052602260045260246000fd5b615b4e80620002cb6000396000f3fe608060405234801561001057600080fd5b50600436106101375760003560e01c8063715018a6116100b8578063a22cb4651161007c578063a22cb46514610351578063b88d4fde1461036d578063c87b56dd14610389578063e985e9c5146103b9578063f2fde38b146103e9578063fd5ad3191461040557610137565b8063715018a6146102bf5780638aa0fdad146102c95780638da5cb5b146102e557806395d89b41146103035780639f55f8d11461032157610137565b806318160ddd116100ff57806318160ddd1461020957806323b872dd1461022757806342842e0e146102435780636352211e1461025f57806370a082311461028f57610137565b806301ffc9a71461013c57806306fdde031461016c578063081812fc1461018a578063095ea7b3146101ba578063116e85bf146101d6575b600080fd5b61015660048036038101906101519190613eeb565b610435565b6040516101639190615260565b60405180910390f35b610174610517565b604051610181919061527b565b60405180910390f35b6101a4600480360381019061019f9190614075565b6105a9565b6040516101b191906151d0565b60405180910390f35b6101d460048036038101906101cf9190613eaf565b61062e565b005b6101f060048036038101906101eb9190613eaf565b610746565b604051610200949392919061529d565b60405180910390f35b610211610e15565b60405161021e919061555e565b60405180910390f35b610241600480360381019061023c9190613da9565b610e1f565b005b61025d60048036038101906102589190613da9565b610e7f565b005b61027960048036038101906102749190614075565b610e9f565b60405161028691906151d0565b60405180910390f35b6102a960048036038101906102a49190613d44565b610f51565b6040516102b6919061555e565b60405180910390f35b6102c7611009565b005b6102e360048036038101906102de9190613f3d565b611091565b005b6102ed6111a9565b6040516102fa91906151d0565b60405180910390f35b61030b6111d3565b604051610318919061527b565b60405180910390f35b61033b60048036038101906103369190613eaf565b611265565b604051610348919061527b565b60405180910390f35b61036b60048036038101906103669190613e73565b611541565b005b61038760048036038101906103829190613df8565b611557565b005b6103a3600480360381019061039e9190614075565b6115b9565b6040516103b0919061527b565b60405180910390f35b6103d360048036038101906103ce9190613d6d565b6116c3565b6040516103e09190615260565b60405180910390f35b61040360048036038101906103fe9190613d44565b611757565b005b61041f600480360381019061041a9190614075565b61184f565b60405161042c919061527b565b60405180910390f35b60007f80ac58cd000000000000000000000000000000000000000000000000000000007bffffffffffffffffffffffffffffffffffffffffffffffffffffffff1916827bffffffffffffffffffffffffffffffffffffffffffffffffffffffff1916148061050057507f5b5e139f000000000000000000000000000000000000000000000000000000007bffffffffffffffffffffffffffffffffffffffffffffffffffffffff1916827bffffffffffffffffffffffffffffffffffffffffffffffffffffffff1916145b80610510575061050f82611fa7565b5b9050919050565b60606000805461052690615877565b80601f016020809104026020016040519081016040528092919081815260200182805461055290615877565b801561059f5780601f106105745761010080835404028352916020019161059f565b820191906000526020600020905b81548152906001019060200180831161058257829003601f168201915b5050505050905090565b60006105b482612011565b6105f3576040517f08c379a00000000000000000000000000000000000000000000000000000000081526004016105ea9061549e565b60405180910390fd5b6004600083815260200190815260200160002060009054906101000a900473ffffffffffffffffffffffffffffffffffffffff169050919050565b600061063982610e9f565b90508073ffffffffffffffffffffffffffffffffffffffff168373ffffffffffffffffffffffffffffffffffffffff1614156106aa576040517f08c379a00000000000000000000000000000000000000000000000000000000081526004016106a19061551e565b60405180910390fd5b8073ffffffffffffffffffffffffffffffffffffffff166106c961207d565b73ffffffffffffffffffffffffffffffffffffffff1614806106f857506106f7816106f261207d565b6116c3565b5b610737576040517f08c379a000000000000000000000000000000000000000000000000000000000815260040161072e9061541e565b60405180910390fd5b6107418383612085565b505050565b60608060608060006201869f86106107d257600067ffffffffffffffff811115610799577f4e487b7100000000000000000000000000000000000000000000000000000000600052604160045260246000fd5b6040519080825280602002602001820160405280156107cc57816020015b60608152602001906001900390816107b75790505b506108e2565b600a60008873ffffffffffffffffffffffffffffffffffffffff1673ffffffffffffffffffffffffffffffffffffffff168152602001908152602001600020805480602002602001604051908101604052809291908181526020016000905b828210156108dd57838290600052602060002001805461085090615877565b80601f016020809104026020016040519081016040528092919081815260200182805461087c90615877565b80156108c95780601f1061089e576101008083540402835291602001916108c9565b820191906000526020600020905b8154815290600101906020018083116108ac57829003601f168201915b505050505081526020019060010190610831565b505050505b9050600061095b826040518060400160405280600781526020017f23464646464646000000000000000000000000000000000000000000000000008152506040518060400160405280600481526020017f6261636b0000000000000000000000000000000000000000000000000000000081525061213e565b9050600b60008973ffffffffffffffffffffffffffffffffffffffff1673ffffffffffffffffffffffffffffffffffffffff168152602001908152602001600020805480602002602001604051908101604052809291908181526020016000905b82821015610a685783829060005260206000200180546109db90615877565b80601f0160208091040260200160405190810160405280929190818152602001828054610a0790615877565b8015610a545780601f10610a2957610100808354040283529160200191610a54565b820191906000526020600020905b815481529060010190602001808311610a3757829003601f168201915b5050505050815260200190600101906109bc565b5050505091506000610ae5836040518060400160405280600781526020017f23303030303030000000000000000000000000000000000000000000000000008152506040518060400160405280600581526020017f6672616d6500000000000000000000000000000000000000000000000000000081525061213e565b9050600c60008a73ffffffffffffffffffffffffffffffffffffffff1673ffffffffffffffffffffffffffffffffffffffff168152602001908152602001600020805480602002602001604051908101604052809291908181526020016000905b82821015610bf2578382906000526020600020018054610b6590615877565b80601f0160208091040260200160405190810160405280929190818152602001828054610b9190615877565b8015610bde5780601f10610bb357610100808354040283529160200191610bde565b820191906000526020600020905b815481529060010190602001808311610bc157829003601f168201915b505050505081526020019060010190610b46565b5050505092506000610c6f846040518060400160405280600781526020017f23303030303030000000000000000000000000000000000000000000000000008152506040518060400160405280600581526020017f646967697400000000000000000000000000000000000000000000000000000081525061213e565b9050600d60008b73ffffffffffffffffffffffffffffffffffffffff1673ffffffffffffffffffffffffffffffffffffffff168152602001908152602001600020805480602002602001604051908101604052809291908181526020016000905b82821015610d7c578382906000526020600020018054610cef90615877565b80601f0160208091040260200160405190810160405280929190818152602001828054610d1b90615877565b8015610d685780601f10610d3d57610100808354040283529160200191610d68565b820191906000526020600020905b815481529060010190602001808311610d4b57829003601f168201915b505050505081526020019060010190610cd0565b5050505093506000610df9856040518060400160405280600781526020017f23464646464646000000000000000000000000000000000000000000000000008152506040518060400160405280600481526020017f736c75670000000000000000000000000000000000000000000000000000000081525061213e565b9050838383839850985098509850505050505092959194509250565b6000600754905090565b610e30610e2a61207d565b82612231565b610e6f576040517f08c379a0000000000000000000000000000000000000000000000000000000008152600401610e669061553e565b60405180910390fd5b610e7a83838361230f565b505050565b610e9a83838360405180602001604052806000815250611557565b505050565b6000806002600084815260200190815260200160002060009054906101000a900473ffffffffffffffffffffffffffffffffffffffff169050600073ffffffffffffffffffffffffffffffffffffffff168173ffffffffffffffffffffffffffffffffffffffff161415610f48576040517f08c379a0000000000000000000000000000000000000000000000000000000008152600401610f3f9061545e565b60405180910390fd5b80915050919050565b60008073ffffffffffffffffffffffffffffffffffffffff168273ffffffffffffffffffffffffffffffffffffffff161415610fc2576040517f08c379a0000000000000000000000000000000000000000000000000000000008152600401610fb99061543e565b60405180910390fd5b600360008373ffffffffffffffffffffffffffffffffffffffff1673ffffffffffffffffffffffffffffffffffffffff168152602001908152602001600020549050919050565b61101161207d565b73ffffffffffffffffffffffffffffffffffffffff1661102f6111a9565b73ffffffffffffffffffffffffffffffffffffffff1614611085576040517f08c379a000000000000000000000000000000000000000000000000000000000815260040161107c906154be565b60405180910390fd5b61108f600061256b565b565b61270f60016007546110a39190615682565b106110e3576040517f08c379a00000000000000000000000000000000000000000000000000000000081526004016110da9061535e565b60405180910390fd5b6110ed8484612631565b61112c576040517f08c379a0000000000000000000000000000000000000000000000000000000008152600401611123906153fe565b60405180910390fd5b600060075490508282600860008481526020019081526020016000209190611155929190613a58565b508484600960008481526020019081526020016000209190611178929190613a58565b5061118a61118461207d565b826126f8565b6007600081548092919061119d906158a9565b91905055505050505050565b6000600660009054906101000a900473ffffffffffffffffffffffffffffffffffffffff16905090565b6060600180546111e290615877565b80601f016020809104026020016040519081016040528092919081815260200182805461120e90615877565b801561125b5780601f106112305761010080835404028352916020019161125b565b820191906000526020600020905b81548152906001019060200180831161123e57829003601f168201915b5050505050905090565b60606000806000803073ffffffffffffffffffffffffffffffffffffffff1663116e85bf88886040518363ffffffff1660e01b81526004016112a8929190615237565b60006040518083038186803b1580156112c057600080fd5b505afa1580156112d4573d6000803e3d6000fd5b505050506040513d6000823e3d601f19601f820116820180604052508101906112fd9190613fb2565b9350935093509350600084905060008490506000849050600084905060006040518060400160405280600781526020017f2363386662666200000000000000000000000000000000000000000000000000815250905060006040518060400160405280600781526020017f2338353666353600000000000000000000000000000000000000000000000000815250905060006040518060400160405280600781526020017f233764613236390000000000000000000000000000000000000000000000000081525090506113d18784612716565b806113e257506113e18684612716565b5b806113f357506113f28584612716565b5b8061140457506114038484612716565b5b1561143957604051602001611418906150b8565b6040516020818303038152906040529b50505050505050505050505061153b565b6114438783612716565b8061145457506114538683612716565b5b8061146557506114648583612716565b5b8061147657506114758483612716565b5b156114ab5760405160200161148a90615176565b6040516020818303038152906040529b50505050505050505050505061153b565b6114b58782612716565b806114c657506114c58682612716565b5b806114d757506114d68582612716565b5b806114e857506114e78482612716565b5b1561151d576040516020016114fc90615031565b6040516020818303038152906040529b50505050505050505050505061153b565b604051806020016040528060008152509b5050505050505050505050505b92915050565b61155361154c61207d565b8383612879565b5050565b61156861156261207d565b83612231565b6115a7576040517f08c379a000000000000000000000000000000000000000000000000000000000815260040161159e9061553e565b60405180910390fd5b6115b3848484846129e6565b50505050565b6060600082101580156115ce575061270f8211155b61160d576040517f08c379a0000000000000000000000000000000000000000000000000000000008152600401611604906154fe565b60405180910390fd5b61161682612011565b611655576040517f08c379a000000000000000000000000000000000000000000000000000000000815260040161164c906153be565b60405180910390fd5b600061169961166384612a42565b61167461166f8661184f565b612d5e565b60405160200161168592919061518b565b604051602081830303815290604052612d5e565b9050806040516020016116ac9190615127565b604051602081830303815290604052915050919050565b6000600560008473ffffffffffffffffffffffffffffffffffffffff1673ffffffffffffffffffffffffffffffffffffffff16815260200190815260200160002060008373ffffffffffffffffffffffffffffffffffffffff1673ffffffffffffffffffffffffffffffffffffffff16815260200190815260200160002060009054906101000a900460ff16905092915050565b61175f61207d565b73ffffffffffffffffffffffffffffffffffffffff1661177d6111a9565b73ffffffffffffffffffffffffffffffffffffffff16146117d3576040517f08c379a00000000000000000000000000000000000000000000000000000000081526004016117ca906154be565b60405180910390fd5b600073ffffffffffffffffffffffffffffffffffffffff168173ffffffffffffffffffffffffffffffffffffffff161415611843576040517f08c379a000000000000000000000000000000000000000000000000000000000815260040161183a9061531e565b60405180910390fd5b61184c8161256b565b50565b606060008210158015611864575061270f8211155b6118a3576040517f08c379a000000000000000000000000000000000000000000000000000000000815260040161189a906154fe565b60405180910390fd5b6118ac82612011565b6118eb576040517f08c379a00000000000000000000000000000000000000000000000000000000081526004016118e2906153be565b60405180910390fd5b6000600767ffffffffffffffff81111561192e577f4e487b7100000000000000000000000000000000000000000000000000000000600052604160045260246000fd5b60405190808252806020026020018201604052801561196157816020015b606081526020019060019003908161194c5790505b509050604051806080016040528060578152602001615a8260579139816000815181106119b7577f4e487b7100000000000000000000000000000000000000000000000000000000600052603260045260246000fd5b6020026020010181905250611b026008600085815260200190815260200160002080546119e390615877565b80601f0160208091040260200160405190810160405280929190818152602001828054611a0f90615877565b8015611a5c5780601f10611a3157610100808354040283529160200191611a5c565b820191906000526020600020905b815481529060010190602001808311611a3f57829003601f168201915b5050505050600960008681526020019081526020016000208054611a7f90615877565b80601f0160208091040260200160405190810160405280929190818152602001828054611aab90615877565b8015611af85780601f10611acd57610100808354040283529160200191611af8565b820191906000526020600020905b815481529060010190602001808311611adb57829003601f168201915b5050505050612efd565b604051602001611b129190615149565b60405160208183030381529060405281600181518110611b5b577f4e487b7100000000000000000000000000000000000000000000000000000000600052603260045260246000fd5b60200260200101819052506040518060400160405280601181526020017f3c6d61736b2069643d275f6d61736b273e00000000000000000000000000000081525081600281518110611bd6577f4e487b7100000000000000000000000000000000000000000000000000000000600052603260045260246000fd5b60200260200101819052506040518060a0016040528060668152602001615a1c6066913981600381518110611c34577f4e487b7100000000000000000000000000000000000000000000000000000000600052603260045260246000fd5b60200260200101819052506040518060400160405280600781526020017f3c2f6d61736b3e0000000000000000000000000000000000000000000000000081525081600481518110611caf577f4e487b7100000000000000000000000000000000000000000000000000000000600052603260045260246000fd5b602002602001018190525060096000848152602001908152602001600020604051602001611cdd91906150cd565b60405160208183030381529060405281600581518110611d26577f4e487b7100000000000000000000000000000000000000000000000000000000600052603260045260246000fd5b60200260200101819052506040518060400160405280600681526020017f3c2f7376673e000000000000000000000000000000000000000000000000000081525081600681518110611da1577f4e487b7100000000000000000000000000000000000000000000000000000000600052603260045260246000fd5b602002602001018190525080600081518110611de6577f4e487b7100000000000000000000000000000000000000000000000000000000600052603260045260246000fd5b602002602001015181600181518110611e28577f4e487b7100000000000000000000000000000000000000000000000000000000600052603260045260246000fd5b602002602001015182600281518110611e6a577f4e487b7100000000000000000000000000000000000000000000000000000000600052603260045260246000fd5b602002602001015183600381518110611eac577f4e487b7100000000000000000000000000000000000000000000000000000000600052603260045260246000fd5b602002602001015184600481518110611eee577f4e487b7100000000000000000000000000000000000000000000000000000000600052603260045260246000fd5b602002602001015185600581518110611f30577f4e487b7100000000000000000000000000000000000000000000000000000000600052603260045260246000fd5b602002602001015186600681518110611f72577f4e487b7100000000000000000000000000000000000000000000000000000000600052603260045260246000fd5b6020026020010151604051602001611f909796959493929190614f85565b604051602081830303815290604052915050919050565b60007f01ffc9a7000000000000000000000000000000000000000000000000000000007bffffffffffffffffffffffffffffffffffffffffffffffffffffffff1916827bffffffffffffffffffffffffffffffffffffffffffffffffffffffff1916149050919050565b60008073ffffffffffffffffffffffffffffffffffffffff166002600084815260200190815260200160002060009054906101000a900473ffffffffffffffffffffffffffffffffffffffff1673ffffffffffffffffffffffffffffffffffffffff1614159050919050565b600033905090565b816004600083815260200190815260200160002060006101000a81548173ffffffffffffffffffffffffffffffffffffffff021916908373ffffffffffffffffffffffffffffffffffffffff160217905550808273ffffffffffffffffffffffffffffffffffffffff166120f883610e9f565b73ffffffffffffffffffffffffffffffffffffffff167f8c5be1e5ebec7d5bd14f71427d1e84f3dd0314c0f7b2291e5b200ac8c7c3b92560405160405180910390a45050565b6060806000855190505b600081111561220e576000866001836121619190615763565b81518110612198577f4e487b7100000000000000000000000000000000000000000000000000000000600052603260045260246000fd5b60200260200101515111156121fb57856001826121b59190615763565b815181106121ec577f4e487b7100000000000000000000000000000000000000000000000000000000600052603260045260246000fd5b6020026020010151915061220e565b80806122069061584d565b915050612148565b5060008151141561221d578390505b6122278184612efd565b9150509392505050565b600061223c82612011565b61227b576040517f08c379a0000000000000000000000000000000000000000000000000000000008152600401612272906153de565b60405180910390fd5b600061228683610e9f565b90508073ffffffffffffffffffffffffffffffffffffffff168473ffffffffffffffffffffffffffffffffffffffff1614806122f557508373ffffffffffffffffffffffffffffffffffffffff166122dd846105a9565b73ffffffffffffffffffffffffffffffffffffffff16145b80612306575061230581856116c3565b5b91505092915050565b8273ffffffffffffffffffffffffffffffffffffffff1661232f82610e9f565b73ffffffffffffffffffffffffffffffffffffffff1614612385576040517f08c379a000000000000000000000000000000000000000000000000000000000815260040161237c906154de565b60405180910390fd5b600073ffffffffffffffffffffffffffffffffffffffff168273ffffffffffffffffffffffffffffffffffffffff1614156123f5576040517f08c379a00000000000000000000000000000000000000000000000000000000081526004016123ec9061537e565b60405180910390fd5b612400838383612f3b565b61240b600082612085565b6001600360008573ffffffffffffffffffffffffffffffffffffffff1673ffffffffffffffffffffffffffffffffffffffff168152602001908152602001600020600082825461245b9190615763565b925050819055506001600360008473ffffffffffffffffffffffffffffffffffffffff1673ffffffffffffffffffffffffffffffffffffffff16815260200190815260200160002060008282546124b29190615682565b92505081905550816002600083815260200190815260200160002060006101000a81548173ffffffffffffffffffffffffffffffffffffffff021916908373ffffffffffffffffffffffffffffffffffffffff160217905550808273ffffffffffffffffffffffffffffffffffffffff168473ffffffffffffffffffffffffffffffffffffffff167fddf252ad1be2c89b69c2b068fc378daa952ba7f163c4a11628f55a4df523b3ef60405160405180910390a4505050565b6000600660009054906101000a900473ffffffffffffffffffffffffffffffffffffffff16905081600660006101000a81548173ffffffffffffffffffffffffffffffffffffffff021916908373ffffffffffffffffffffffffffffffffffffffff1602179055508173ffffffffffffffffffffffffffffffffffffffff168173ffffffffffffffffffffffffffffffffffffffff167f8be0079c531659141344cd1fd0a4f28419497f9722a3daafe3b4186f6b6457e060405160405180910390a35050565b6000808383604051612644929190614f55565b604051809103902090507ff99975b1b7d766d47f24055dcf9d239a44d26bc887197da89a6e1cb7acbd0a9d81148061269b57507f2aa1b44d53ecaef3818686a0e39502ef57e254136370bf94dbea962d9c1d211581145b806126c557507f54b0769b5f3f2b3325755b96837f908e4f387f2ffbfb36e43a599d683c584e0181145b806126ef57507fad031b8dd7bd2be2fd611ae08d0f6eefaff2358a70428446315d94a57c654ddb81145b91505092915050565b6127128282604051806020016040528060008152506134de565b5050565b600081518351101561272757600080fd5b6000805b835185516127399190615763565b811161286e5760006001905060005b85518110156128495785818151811061278a577f4e487b7100000000000000000000000000000000000000000000000000000000600052603260045260246000fd5b602001015160f81c60f81b7effffffffffffffffffffffffffffffffffffffffffffffffffffffffffffff19168782856127c49190615682565b815181106127fb577f4e487b7100000000000000000000000000000000000000000000000000000000600052603260045260246000fd5b602001015160f81c60f81b7effffffffffffffffffffffffffffffffffffffffffffffffffffffffffffff1916146128365760009150612849565b8080612841906158a9565b915050612748565b50801561285a57600192505061286e565b508080612866906158a9565b91505061272b565b508091505092915050565b8173ffffffffffffffffffffffffffffffffffffffff168373ffffffffffffffffffffffffffffffffffffffff1614156128e8576040517f08c379a00000000000000000000000000000000000000000000000000000000081526004016128df9061539e565b60405180910390fd5b80600560008573ffffffffffffffffffffffffffffffffffffffff1673ffffffffffffffffffffffffffffffffffffffff16815260200190815260200160002060008473ffffffffffffffffffffffffffffffffffffffff1673ffffffffffffffffffffffffffffffffffffffff16815260200190815260200160002060006101000a81548160ff0219169083151502179055508173ffffffffffffffffffffffffffffffffffffffff168373ffffffffffffffffffffffffffffffffffffffff167f17307eab39ab6107e8899845ad3d59bd9653f200f220920489ca2b5937696c31836040516129d99190615260565b60405180910390a3505050565b6129f184848461230f565b6129fd84848484613539565b612a3c576040517f08c379a0000000000000000000000000000000000000000000000000000000008152600401612a33906152fe565b60405180910390fd5b50505050565b606060006040518060400160405280600781526020017f2363386662666200000000000000000000000000000000000000000000000000815250905060006040518060400160405280600781526020017f2338353666353600000000000000000000000000000000000000000000000000815250905060006040518060400160405280600781526020017f23376461323639000000000000000000000000000000000000000000000000008152509050600060096000878152602001908152602001600020604051602001612b179190615046565b60405160208183030381529060405290506000600860008881526020019081526020016000208054612b4890615877565b80601f0160208091040260200160405190810160405280929190818152602001828054612b7490615877565b8015612bc15780601f10612b9657610100808354040283529160200191612bc1565b820191906000526020600020905b815481529060010190602001808311612ba457829003601f168201915b505050505090506060612bd48287612716565b15612c16576040518060400160405280600581526020017f416c69656e0000000000000000000000000000000000000000000000000000008152509050612cac565b612c208286612716565b15612c62576040518060400160405280600381526020017f41706500000000000000000000000000000000000000000000000000000000008152509050612cab565b612c6c8285612716565b15612caa576040518060400160405280600681526020017f5a6f6d626965000000000000000000000000000000000000000000000000000081525090505b5b5b600081511115612d3157826000845111612cd55760405180602001604052806000815250612d0c565b6040518060400160405280600281526020017f2c200000000000000000000000000000000000000000000000000000000000008152505b82604051602001612d1f93929190614fea565b60405160208183030381529060405292505b82604051602001612d4291906150fa565b6040516020818303038152906040529650505050505050919050565b6060600082511415612d8157604051806020016040528060008152509050612ef8565b6000604051806060016040528060408152602001615ad96040913990506000600360028551612db09190615682565b612dba91906156d8565b6004612dc69190615709565b90506000602082612dd79190615682565b67ffffffffffffffff811115612e16577f4e487b7100000000000000000000000000000000000000000000000000000000600052604160045260246000fd5b6040519080825280601f01601f191660200182016040528015612e485781602001600182028036833780820191505090505b509050818152600183018586518101602084015b81831015612eb7576003830192508251603f8160121c168501518253600182019150603f81600c1c168501518253600182019150603f8160061c168501518253600182019150603f8116850151825360018201915050612e5c565b600389510660018114612ed15760028114612ee157612eec565b613d3d60f01b6002830352612eec565b603d60f81b60018303525b50505050508093505050505b919050565b60606007835111612f31578183604051602001612f1b929190615073565b6040516020818303038152906040529050612f35565b8290505b92915050565b612f468383836136d0565b8173ffffffffffffffffffffffffffffffffffffffff168373ffffffffffffffffffffffffffffffffffffffff161415612f7f576134d9565b6000600860008381526020019081526020016000208054612f9f90615877565b80601f0160208091040260200160405190810160405280929190818152602001828054612fcb90615877565b80156130185780601f10612fed57610100808354040283529160200191613018565b820191906000526020600020905b815481529060010190602001808311612ffb57829003601f168201915b505050505090506000600960008481526020019081526020016000206040516130419190614f6e565b604051809103902090507ff99975b1b7d766d47f24055dcf9d239a44d26bc887197da89a6e1cb7acbd0a9d81141561316e57600073ffffffffffffffffffffffffffffffffffffffff168573ffffffffffffffffffffffffffffffffffffffff16146130f0576130ef600a60008773ffffffffffffffffffffffffffffffffffffffff1673ffffffffffffffffffffffffffffffffffffffff168152602001908152602001600020836136d5565b5b600a60008573ffffffffffffffffffffffffffffffffffffffff1673ffffffffffffffffffffffffffffffffffffffff16815260200190815260200160002082908060018154018082558091505060019003906000526020600020016000909190919091509080519060200190613168929190613ade565b506134d6565b7f2aa1b44d53ecaef3818686a0e39502ef57e254136370bf94dbea962d9c1d211581141561329157600073ffffffffffffffffffffffffffffffffffffffff168573ffffffffffffffffffffffffffffffffffffffff161461321357613212600b60008773ffffffffffffffffffffffffffffffffffffffff1673ffffffffffffffffffffffffffffffffffffffff168152602001908152602001600020836136d5565b5b600b60008573ffffffffffffffffffffffffffffffffffffffff1673ffffffffffffffffffffffffffffffffffffffff1681526020019081526020016000208290806001815401808255809150506001900390600052602060002001600090919091909150908051906020019061328b929190613ade565b506134d5565b7f54b0769b5f3f2b3325755b96837f908e4f387f2ffbfb36e43a599d683c584e018114156133b457600073ffffffffffffffffffffffffffffffffffffffff168573ffffffffffffffffffffffffffffffffffffffff161461333657613335600c60008773ffffffffffffffffffffffffffffffffffffffff1673ffffffffffffffffffffffffffffffffffffffff168152602001908152602001600020836136d5565b5b600c60008573ffffffffffffffffffffffffffffffffffffffff1673ffffffffffffffffffffffffffffffffffffffff168152602001908152602001600020829080600181540180825580915050600190039060005260206000200160009091909190915090805190602001906133ae929190613ade565b506134d4565b7fad031b8dd7bd2be2fd611ae08d0f6eefaff2358a70428446315d94a57c654ddb8114156134d357600073ffffffffffffffffffffffffffffffffffffffff168573ffffffffffffffffffffffffffffffffffffffff161461345957613458600d60008773ffffffffffffffffffffffffffffffffffffffff1673ffffffffffffffffffffffffffffffffffffffff168152602001908152602001600020836136d5565b5b600d60008573ffffffffffffffffffffffffffffffffffffffff1673ffffffffffffffffffffffffffffffffffffffff168152602001908152602001600020829080600181540180825580915050600190039060005260206000200160009091909190915090805190602001906134d1929190613ade565b505b5b5b5b50505b505050565b6134e8838361384f565b6134f56000848484613539565b613534576040517f08c379a000000000000000000000000000000000000000000000000000000000815260040161352b906152fe565b60405180910390fd5b505050565b600061355a8473ffffffffffffffffffffffffffffffffffffffff16613a1d565b156136c3578373ffffffffffffffffffffffffffffffffffffffff1663150b7a0261358361207d565b8786866040518563ffffffff1660e01b81526004016135a594939291906151eb565b602060405180830381600087803b1580156135bf57600080fd5b505af19250505080156135f057506040513d601f19601f820116820180604052508101906135ed9190613f14565b60015b613673573d8060008114613620576040519150601f19603f3d011682016040523d82523d6000602084013e613625565b606091505b5060008151141561366b576040517f08c379a0000000000000000000000000000000000000000000000000000000008152600401613662906152fe565b60405180910390fd5b805181602001fd5b63150b7a0260e01b7bffffffffffffffffffffffffffffffffffffffffffffffffffffffff1916817bffffffffffffffffffffffffffffffffffffffffffffffffffffffff1916149150506136c8565b600190505b949350505050565b505050565b60008190506000838054905090505b6000811115613848576137ce846001836136fe9190615763565b81548110613735577f4e487b7100000000000000000000000000000000000000000000000000000000600052603260045260246000fd5b90600052602060002001805461374a90615877565b80601f016020809104026020016040519081016040528092919081815260200182805461377690615877565b80156137c35780601f10613798576101008083540402835291602001916137c3565b820191906000526020600020905b8154815290600101906020018083116137a657829003601f168201915b505050505083613a30565b1561383557836001826137e19190615763565b81548110613818577f4e487b7100000000000000000000000000000000000000000000000000000000600052603260045260246000fd5b90600052602060002001600061382e9190613b64565b505061384b565b80806138409061584d565b9150506136e4565b50505b5050565b600073ffffffffffffffffffffffffffffffffffffffff168273ffffffffffffffffffffffffffffffffffffffff1614156138bf576040517f08c379a00000000000000000000000000000000000000000000000000000000081526004016138b69061547e565b60405180910390fd5b6138c881612011565b15613908576040517f08c379a00000000000000000000000000000000000000000000000000000000081526004016138ff9061533e565b60405180910390fd5b61391460008383612f3b565b6001600360008473ffffffffffffffffffffffffffffffffffffffff1673ffffffffffffffffffffffffffffffffffffffff16815260200190815260200160002060008282546139649190615682565b92505081905550816002600083815260200190815260200160002060006101000a81548173ffffffffffffffffffffffffffffffffffffffff021916908373ffffffffffffffffffffffffffffffffffffffff160217905550808273ffffffffffffffffffffffffffffffffffffffff16600073ffffffffffffffffffffffffffffffffffffffff167fddf252ad1be2c89b69c2b068fc378daa952ba7f163c4a11628f55a4df523b3ef60405160405180910390a45050565b600080823b905060008111915050919050565b600081518351148015613a50575081805190602001208380519060200120145b905092915050565b828054613a6490615877565b90600052602060002090601f016020900481019282613a865760008555613acd565b82601f10613a9f57803560ff1916838001178555613acd565b82800160010185558215613acd579182015b82811115613acc578235825591602001919060010190613ab1565b5b509050613ada9190613ba4565b5090565b828054613aea90615877565b90600052602060002090601f016020900481019282613b0c5760008555613b53565b82601f10613b2557805160ff1916838001178555613b53565b82800160010185558215613b53579182015b82811115613b52578251825591602001919060010190613b37565b5b509050613b609190613ba4565b5090565b508054613b7090615877565b6000825580601f10613b825750613ba1565b601f016020900490600052602060002090810190613ba09190613ba4565b5b50565b5b80821115613bbd576000816000905550600101613ba5565b5090565b6000613bd4613bcf846155aa565b615579565b905082815260208101848484011115613bec57600080fd5b613bf784828561580b565b509392505050565b6000613c12613c0d846155da565b615579565b905082815260208101848484011115613c2a57600080fd5b613c3584828561581a565b509392505050565b600081359050613c4c816159bf565b92915050565b600081359050613c61816159d6565b92915050565b600081359050613c76816159ed565b92915050565b600081519050613c8b816159ed565b92915050565b600082601f830112613ca257600080fd5b8135613cb2848260208601613bc1565b91505092915050565b60008083601f840112613ccd57600080fd5b8235905067ffffffffffffffff811115613ce657600080fd5b602083019150836001820283011115613cfe57600080fd5b9250929050565b600082601f830112613d1657600080fd5b8151613d26848260208601613bff565b91505092915050565b600081359050613d3e81615a04565b92915050565b600060208284031215613d5657600080fd5b6000613d6484828501613c3d565b91505092915050565b60008060408385031215613d8057600080fd5b6000613d8e85828601613c3d565b9250506020613d9f85828601613c3d565b9150509250929050565b600080600060608486031215613dbe57600080fd5b6000613dcc86828701613c3d565b9350506020613ddd86828701613c3d565b9250506040613dee86828701613d2f565b9150509250925092565b60008060008060808587031215613e0e57600080fd5b6000613e1c87828801613c3d565b9450506020613e2d87828801613c3d565b9350506040613e3e87828801613d2f565b925050606085013567ffffffffffffffff811115613e5b57600080fd5b613e6787828801613c91565b91505092959194509250565b60008060408385031215613e8657600080fd5b6000613e9485828601613c3d565b9250506020613ea585828601613c52565b9150509250929050565b60008060408385031215613ec257600080fd5b6000613ed085828601613c3d565b9250506020613ee185828601613d2f565b9150509250929050565b600060208284031215613efd57600080fd5b6000613f0b84828501613c67565b91505092915050565b600060208284031215613f2657600080fd5b6000613f3484828501613c7c565b91505092915050565b60008060008060408587031215613f5357600080fd5b600085013567ffffffffffffffff811115613f6d57600080fd5b613f7987828801613cbb565b9450945050602085013567ffffffffffffffff811115613f9857600080fd5b613fa487828801613cbb565b925092505092959194509250565b60008060008060808587031215613fc857600080fd5b600085015167ffffffffffffffff811115613fe257600080fd5b613fee87828801613d05565b945050602085015167ffffffffffffffff81111561400b57600080fd5b61401787828801613d05565b935050604085015167ffffffffffffffff81111561403457600080fd5b61404087828801613d05565b925050606085015167ffffffffffffffff81111561405d57600080fd5b61406987828801613d05565b91505092959194509250565b60006020828403121561408757600080fd5b600061409584828501613d2f565b91505092915050565b6140a781615797565b82525050565b6140b6816157a9565b82525050565b60006140c8838561565b565b93506140d583858461580b565b82840190509392505050565b60006140ec82615634565b6140f6818561564a565b935061410681856020860161581a565b61410f816159ae565b840191505092915050565b6000815461412781615877565b614131818661565b565b9450600182166000811461414c576001811461415d57614190565b60ff19831686528186019350614190565b6141668561560a565b60005b8381101561418857815481890152600182019150602081019050614169565b838801955050505b50505092915050565b60006141a48261563f565b6141ae8185615666565b93506141be81856020860161581a565b6141c7816159ae565b840191505092915050565b60006141dd8261563f565b6141e78185615677565b93506141f781856020860161581a565b80840191505092915050565b6000815461421081615877565b61421a8186615677565b94506001821660008114614235576001811461424657614279565b60ff19831686528186019350614279565b61424f8561561f565b60005b8381101561427157815481890152600182019150602081019050614252565b838801955050505b50505092915050565b600061428f603283615666565b91507f4552433732313a207472616e7366657220746f206e6f6e20455243373231526560008301527f63656976657220696d706c656d656e74657200000000000000000000000000006020830152604082019050919050565b60006142f5602683615666565b91507f4f776e61626c653a206e6577206f776e657220697320746865207a65726f206160008301527f64647265737300000000000000000000000000000000000000000000000000006020830152604082019050919050565b600061435b603b83615677565b91507f2261747472696275746573223a205b7b202274726169745f74797065223a202260008301527f54797065222c202276616c7565223a20225a6f6d62696522207d5d00000000006020830152603b82019050919050565b60006143c1601c83615666565b91507f4552433732313a20746f6b656e20616c7265616479206d696e746564000000006000830152602082019050919050565b6000614401601983615666565b91507f4e6f206672656520746f6b656e7320617661696c61626c652e000000000000006000830152602082019050919050565b6000614441602983615677565b91507f7b202274726169745f74797065223a20224170706c69636174696f6e222c202260008301527f76616c7565223a202200000000000000000000000000000000000000000000006020830152602982019050919050565b60006144a7601483615677565b91507f3c6c696e6561724772616469656e742069643d270000000000000000000000006000830152601482019050919050565b60006144e7602483615666565b91507f4552433732313a207472616e7366657220746f20746865207a65726f2061646460008301527f72657373000000000000000000000000000000000000000000000000000000006020830152604082019050919050565b600061454d601983615666565b91507f4552433732313a20617070726f766520746f2063616c6c6572000000000000006000830152602082019050919050565b600061458d600383615677565b91507f22207d00000000000000000000000000000000000000000000000000000000006000830152600382019050919050565b60006145cd601483615666565b91507f546f6b656e20646f6573206e6f742065786973740000000000000000000000006000830152602082019050919050565b600061460d602c83615666565b91507f4552433732313a206f70657261746f7220717565727920666f72206e6f6e657860008301527f697374656e7420746f6b656e00000000000000000000000000000000000000006020830152604082019050919050565b6000614673604583615666565b91507f4170706c69636174696f6e20696e76616c69642c20616c6c6f7765642061726560008301527f20276261636b272c20276672616d65272c202764696769742720616e6420277360208301527f6c7567272e0000000000000000000000000000000000000000000000000000006040830152606082019050919050565b60006146ff601483615677565b91507f272f3e3c2f6c696e6561724772616469656e743e0000000000000000000000006000830152601482019050919050565b600061473f601483615677565b91507f273e3c73746f702073746f702d636f6c6f723d270000000000000000000000006000830152601482019050919050565b600061477f603883615666565b91507f4552433732313a20617070726f76652063616c6c6572206973206e6f74206f7760008301527f6e6572206e6f7220617070726f76656420666f7220616c6c00000000000000006020830152604082019050919050565b60006147e5602a83615666565b91507f4552433732313a2062616c616e636520717565727920666f7220746865207a6560008301527f726f2061646472657373000000000000000000000000000000000000000000006020830152604082019050919050565b600061484b602983615666565b91507f4552433732313a206f776e657220717565727920666f72206e6f6e657869737460008301527f656e7420746f6b656e00000000000000000000000000000000000000000000006020830152604082019050919050565b60006148b1603a83615677565b91507f2261747472696275746573223a205b7b202274726169745f74797065223a202260008301527f54797065222c202276616c7565223a2022416c69656e22207d5d0000000000006020830152603a82019050919050565b6000614917600283615677565b91507f227d0000000000000000000000000000000000000000000000000000000000006000830152600282019050919050565b6000614957602083615666565b91507f4552433732313a206d696e7420746f20746865207a65726f20616464726573736000830152602082019050919050565b6000614997602c83615666565b91507f4552433732313a20617070726f76656420717565727920666f72206e6f6e657860008301527f697374656e7420746f6b656e00000000000000000000000000000000000000006020830152604082019050919050565b60006149fd602083615666565b91507f4f776e61626c653a2063616c6c6572206973206e6f7420746865206f776e65726000830152602082019050919050565b6000614a3d602983615666565b91507f4552433732313a207472616e73666572206f6620746f6b656e2074686174206960008301527f73206e6f74206f776e00000000000000000000000000000000000000000000006020830152604082019050919050565b6000614aa3605083615677565b91507f3c636972636c6520766563746f722d6566666563743d276e6f6e2d7363616c6960008301527f6e672d7374726f6b65272063783d27313530272063793d273135302720723d2760208301527f313235272066696c6c3d2775726c2823000000000000000000000000000000006040830152605082019050919050565b6000614b2f601083615666565b91507f546f6b656e20496420696e76616c6964000000000000000000000000000000006000830152602082019050919050565b6000614b6f600f83615677565b91507f2261747472696275746573223a205b00000000000000000000000000000000006000830152600f82019050919050565b6000614baf600183615677565b91507f5d000000000000000000000000000000000000000000000000000000000000006000830152600182019050919050565b6000614bef602183615666565b91507f4552433732313a20617070726f76616c20746f2063757272656e74206f776e6560008301527f72000000000000000000000000000000000000000000000000000000000000006020830152604082019050919050565b6000614c55601d83615677565b91507f646174613a6170706c69636174696f6e2f6a736f6e3b6261736536342c0000006000830152601d82019050919050565b6000614c95600783615677565b91507f3c2f646566733e000000000000000000000000000000000000000000000000006000830152600782019050919050565b6000614cd5603183615666565b91507f4552433732313a207472616e736665722063616c6c6572206973206e6f74206f60008301527f776e6572206e6f7220617070726f7665640000000000000000000000000000006020830152604082019050919050565b6000614d3b600683615677565b91507f3c646566733e00000000000000000000000000000000000000000000000000006000830152600682019050919050565b6000614d7b602283615677565b91507f7b202274726169745f74797065223a202254797065222c202276616c7565223a60008301527f20220000000000000000000000000000000000000000000000000000000000006020830152602282019050919050565b6000614de1603883615677565b91507f2261747472696275746573223a205b7b202274726169745f74797065223a202260008301527f54797065222c202276616c7565223a202241706522207d5d00000000000000006020830152603882019050919050565b6000614e47602883615677565b91507f7b226e616d65223a20224f4720436f6c6f72222c20226465736372697074696f60008301527f6e223a2022222c200000000000000000000000000000000000000000000000006020830152602882019050919050565b6000614ead602683615677565b91507f2c2022696d616765223a2022646174613a696d6167652f7376672b786d6c3b6260008301527f61736536342c00000000000000000000000000000000000000000000000000006020830152602682019050919050565b6000614f13601883615677565b91507f2927206d61736b3d2775726c28235f6d61736b2927202f3e00000000000000006000830152601882019050919050565b614f4f81615801565b82525050565b6000614f628284866140bc565b91508190509392505050565b6000614f7a828461411a565b915081905092915050565b6000614f91828a6141d2565b9150614f9d82896141d2565b9150614fa982886141d2565b9150614fb582876141d2565b9150614fc182866141d2565b9150614fcd82856141d2565b9150614fd982846141d2565b915081905098975050505050505050565b6000614ff682866141d2565b915061500282856141d2565b915061500d82614d6e565b915061501982846141d2565b915061502482614580565b9150819050949350505050565b600061503c8261434e565b9150819050919050565b600061505182614434565b915061505d8284614203565b915061506882614580565b915081905092915050565b600061507e8261449a565b915061508a82856141d2565b915061509582614732565b91506150a182846141d2565b91506150ac826146f2565b91508190509392505050565b60006150c3826148a4565b9150819050919050565b60006150d882614a96565b91506150e48284614203565b91506150ef82614f06565b915081905092915050565b600061510582614b62565b915061511182846141d2565b915061511c82614ba2565b915081905092915050565b600061513282614c48565b915061513e82846141d2565b915081905092915050565b600061515482614d2e565b915061516082846141d2565b915061516b82614c88565b915081905092915050565b600061518182614dd4565b9150819050919050565b600061519682614e3a565b91506151a282856141d2565b91506151ad82614ea0565b91506151b982846141d2565b91506151c48261490a565b91508190509392505050565b60006020820190506151e5600083018461409e565b92915050565b6000608082019050615200600083018761409e565b61520d602083018661409e565b61521a6040830185614f46565b818103606083015261522c81846140e1565b905095945050505050565b600060408201905061524c600083018561409e565b6152596020830184614f46565b9392505050565b600060208201905061527560008301846140ad565b92915050565b600060208201905081810360008301526152958184614199565b905092915050565b600060808201905081810360008301526152b78187614199565b905081810360208301526152cb8186614199565b905081810360408301526152df8185614199565b905081810360608301526152f38184614199565b905095945050505050565b6000602082019050818103600083015261531781614282565b9050919050565b60006020820190508181036000830152615337816142e8565b9050919050565b60006020820190508181036000830152615357816143b4565b9050919050565b60006020820190508181036000830152615377816143f4565b9050919050565b60006020820190508181036000830152615397816144da565b9050919050565b600060208201905081810360008301526153b781614540565b9050919050565b600060208201905081810360008301526153d7816145c0565b9050919050565b600060208201905081810360008301526153f781614600565b9050919050565b6000602082019050818103600083015261541781614666565b9050919050565b6000602082019050818103600083015261543781614772565b9050919050565b60006020820190508181036000830152615457816147d8565b9050919050565b600060208201905081810360008301526154778161483e565b9050919050565b600060208201905081810360008301526154978161494a565b9050919050565b600060208201905081810360008301526154b78161498a565b9050919050565b600060208201905081810360008301526154d7816149f0565b9050919050565b600060208201905081810360008301526154f781614a30565b9050919050565b6000602082019050818103600083015261551781614b22565b9050919050565b6000602082019050818103600083015261553781614be2565b9050919050565b6000602082019050818103600083015261555781614cc8565b9050919050565b60006020820190506155736000830184614f46565b92915050565b6000604051905081810181811067ffffffffffffffff821117156155a05761559f61597f565b5b8060405250919050565b600067ffffffffffffffff8211156155c5576155c461597f565b5b601f19601f8301169050602081019050919050565b600067ffffffffffffffff8211156155f5576155f461597f565b5b601f19601f8301169050602081019050919050565b60008190508160005260206000209050919050565b60008190508160005260206000209050919050565b600081519050919050565b600081519050919050565b600082825260208201905092915050565b600081905092915050565b600082825260208201905092915050565b600081905092915050565b600061568d82615801565b915061569883615801565b9250827fffffffffffffffffffffffffffffffffffffffffffffffffffffffffffffffff038211156156cd576156cc6158f2565b5b828201905092915050565b60006156e382615801565b91506156ee83615801565b9250826156fe576156fd615921565b5b828204905092915050565b600061571482615801565b915061571f83615801565b9250817fffffffffffffffffffffffffffffffffffffffffffffffffffffffffffffffff0483118215151615615758576157576158f2565b5b828202905092915050565b600061576e82615801565b915061577983615801565b92508282101561578c5761578b6158f2565b5b828203905092915050565b60006157a2826157e1565b9050919050565b60008115159050919050565b60007fffffffff0000000000000000000000000000000000000000000000000000000082169050919050565b600073ffffffffffffffffffffffffffffffffffffffff82169050919050565b6000819050919050565b82818337600083830152505050565b60005b8381101561583857808201518184015260208101905061581d565b83811115615847576000848401525b50505050565b600061585882615801565b9150600082141561586c5761586b6158f2565b5b600182039050919050565b6000600282049050600182168061588f57607f821691505b602082108114156158a3576158a2615950565b5b50919050565b60006158b482615801565b91507fffffffffffffffffffffffffffffffffffffffffffffffffffffffffffffffff8214156158e7576158e66158f2565b5b600182019050919050565b7f4e487b7100000000000000000000000000000000000000000000000000000000600052601160045260246000fd5b7f4e487b7100000000000000000000000000000000000000000000000000000000600052601260045260246000fd5b7f4e487b7100000000000000000000000000000000000000000000000000000000600052602260045260246000fd5b7f4e487b7100000000000000000000000000000000000000000000000000000000600052604160045260246000fd5b6000601f19601f8301169050919050565b6159c881615797565b81146159d357600080fd5b50565b6159df816157a9565b81146159ea57600080fd5b50565b6159f6816157b5565b8114615a0157600080fd5b50565b615a0d81615801565b8114615a1857600080fd5b5056fe202020203c636972636c6520766563746f722d6566666563743d276e6f6e2d7363616c696e672d7374726f6b65272063783d27313530272063793d273135302720723d27313235272066696c6c3d27776869746527207374726f6b653d276e6f6e6527202f3e3c73766720786d6c6e733d27687474703a2f2f7777772e77332e6f72672f323030302f737667272077696474683d2733303027206865696768743d27333030272076696577426f783d273020302033303020333030273e4142434445464748494a4b4c4d4e4f505152535455565758595a6162636465666768696a6b6c6d6e6f707172737475767778797a303132333435363738392b2fa2646970667358221220afa2f3d2b5f8601f87f22c507c7709cf90bc96a3920be49e39b24e7f6e72b40064736f6c63430008000033",
  "immutableReferences": {},
  "source": "// SPDX-License-Identifier: MIT\r\n\r\npragma solidity 0.8.0;\r\n\r\nimport \"@openzeppelin/contracts/token/ERC721/ERC721.sol\";\r\nimport \"@openzeppelin/contracts/access/Ownable.sol\";\r\nimport \"base64-sol/base64.sol\";\r\n\r\n/**\r\n * @title Defines colors for OG NFTs. When minting, a color and an application (which part of the OG NFT to colorize) has to be defined.\r\n * There are four different applications (back, frame, digit, slug), but only a few colors to mint.\r\n * @author nfttank.eth\r\n */\r\ncontract OGColor is ERC721, Ownable {\r\n    \r\n    uint256 private _totalSupply;\r\n\r\n    mapping(uint256 => string) private _colors;\r\n    mapping(uint256 => string) private _applications;\r\n    \r\n    mapping(address => string[]) private _backColorsForAddress;\r\n    mapping(address => string[]) private _frameColorsForAddress;\r\n    mapping(address => string[]) private _digitColorsForAddress;\r\n    mapping(address => string[]) private _slugColorsForAddress;\r\n    \r\n    constructor() ERC721(\"OGColor\", \"OGCOLOR\") Ownable() {\r\n    }\r\n\r\n    /**\r\n    * @dev It's recommended to use lower case color strings like #ffffff instead of #FFFFFF\r\n    */\r\n    function mint(string calldata application, string calldata color) public {\r\n\r\n        require(_totalSupply + 1 < 9999, \"No free tokens available.\");\r\n        require(isValidApplication(application), \"Application invalid, allowed are 'back', 'frame', 'digit' and 'slug'.\");\r\n\r\n        uint256 newId = _totalSupply;\r\n\r\n        _colors[newId] = color;\r\n        _applications[newId] = application;\r\n        \r\n        _safeMint(_msgSender(), newId);\r\n\r\n        _totalSupply++;\r\n    }\r\n\r\n    function totalSupply() public view virtual returns (uint256) {\r\n        return _totalSupply;\r\n    }\r\n\r\n    function renderSvg(uint256 tokenId) public virtual view returns (string memory) {\r\n        require(tokenId >= 0 && tokenId <= 9999, \"Token Id invalid\");\r\n        require(_exists(tokenId), \"Token does not exist\");\r\n        \r\n        string[] memory parts = new string[](7);\r\n\r\n        parts[0] = \"<svg xmlns='http://www.w3.org/2000/svg' width='300' height='300' viewBox='0 0 300 300'>\";\r\n        parts[1] = string(abi.encodePacked(\"<defs>\", formatColor(_colors[tokenId], _applications[tokenId]), \"</defs>\"));\r\n        parts[2] = \"<mask id='_mask'>\";\r\n        parts[3] = \"    <circle vector-effect='non-scaling-stroke' cx='150' cy='150' r='125' fill='white' stroke='none' />\";\r\n        parts[4] = \"</mask>\";\r\n        parts[5] = string(abi.encodePacked(\"<circle vector-effect='non-scaling-stroke' cx='150' cy='150' r='125' fill='url(#\", _applications[tokenId], \")' mask='url(#_mask)' />\"));\r\n        parts[6] = \"</svg>\";\r\n        \r\n        return string(abi.encodePacked(parts[0], parts[1], parts[2], parts[3], parts[4], parts[5], parts[6]));\r\n    }\r\n\r\n    function tokenURI(uint256 tokenId) override public view returns (string memory) {\r\n        require(tokenId >= 0 && tokenId <= 9999, \"Token Id invalid\");\r\n        require(_exists(tokenId), \"Token does not exist\");\r\n    \r\n        string memory json = Base64.encode(bytes(string(abi.encodePacked('{\"name\": \"OG Color\", \"description\": \"\", ', getAttributesForColor(tokenId), ', \"image\": \"data:image/svg+xml;base64,', Base64.encode(bytes(renderSvg(tokenId))), '\"}'))));\r\n        return string(abi.encodePacked('data:application/json;base64,', json));\r\n    }\r\n\r\n    function getAttributesForColor(uint256 tokenId) private view returns (string memory) {\r\n\r\n        bytes memory ax = '#c8fbfb';\r\n        bytes memory ap = '#856f56';\r\n        bytes memory zz = '#7da269';\r\n\r\n        string memory traits = string(abi.encodePacked('{ \"trait_type\": \"Application\", \"value\": \"', _applications[tokenId], '\" }'));\r\n\r\n        bytes memory color = bytes(_colors[tokenId]);\r\n        string memory type_;\r\n\r\n        if (stringContains(color, ax)) {\r\n            type_ = 'Alien';\r\n        } else if (stringContains(color, ap)) {\r\n            type_ = 'Ape';\r\n        } else if (stringContains(color, zz)) {\r\n            type_ = 'Zombie';\r\n        }\r\n\r\n        if (bytes(type_).length > 0) {\r\n            traits = string(abi.encodePacked(traits, (bytes(traits).length > 0 ? ', ' : ''), '{ \"trait_type\": \"Type\", \"value\": \"', type_, '\" }'));\r\n        }\r\n\r\n        return string(abi.encodePacked('\"attributes\": [', traits, ']'));\r\n    }\r\n\r\n    function getOgAttributes(address forAddress, uint256 tokenId) external view returns (string memory) {\r\n        \r\n        (string memory back, string memory frame, string memory digit, string memory slug) = this.getColors(forAddress, tokenId);\r\n\r\n        bytes memory b = bytes(back);\r\n        bytes memory f = bytes(frame);\r\n        bytes memory d = bytes(digit);\r\n        bytes memory s = bytes(slug);\r\n\r\n        bytes memory ax = '#c8fbfb';\r\n        bytes memory ap = '#856f56';\r\n        bytes memory zz = '#7da269';\r\n\r\n        if (stringContains(b, ax) || stringContains(f, ax) || stringContains(d, ax) || stringContains(s, ax)) {\r\n            return string(abi.encodePacked('\"attributes\": [{ \"trait_type\": \"Type\", \"value\": \"Alien\" }]'));\r\n        }\r\n\r\n        if (stringContains(b, ap) || stringContains(f, ap) || stringContains(d, ap) || stringContains(s, ap)) {\r\n            return string(abi.encodePacked('\"attributes\": [{ \"trait_type\": \"Type\", \"value\": \"Ape\" }]'));\r\n        }\r\n\r\n        if (stringContains(b, zz) || stringContains(f, zz) || stringContains(d, zz) || stringContains(s, zz)) {\r\n           return string(abi.encodePacked('\"attributes\": [{ \"trait_type\": \"Type\", \"value\": \"Zombie\" }]'));\r\n        }\r\n\r\n        return '';\r\n    }\r\n\r\n\r\n    function isValidApplication(string calldata application) private pure returns (bool) {\r\n        bytes32 k = keccak256(bytes(application));\r\n        return k == keccak256(\"back\") \r\n            || k == keccak256(\"frame\")\r\n            || k == keccak256(\"digit\") \r\n            || k == keccak256(\"slug\");\r\n    }\r\n    \r\n    function _beforeTokenTransfer(address from, address to, uint256 tokenId) internal override {\r\n        \r\n        super._beforeTokenTransfer(from, to, tokenId);\r\n\r\n        if (from == to) // pseudo use of from-variable to prevent warnings while keeping the overridden method signature\r\n            return;\r\n\r\n        string memory color = _colors[tokenId];\r\n        bytes32 application = keccak256(bytes(_applications[tokenId]));\r\n        \r\n        if (application == keccak256(\"back\")) {\r\n            if (from != address(0))\r\n               removeColor(_backColorsForAddress[from], color);\r\n            _backColorsForAddress[to].push(color);\r\n        }\r\n        else if (application == keccak256(\"frame\")) {\r\n            if (from != address(0))\r\n                removeColor(_frameColorsForAddress[from], color);\r\n            _frameColorsForAddress[to].push(color);\r\n        }\r\n        else if (application == keccak256(\"digit\")) {\r\n            if (from != address(0))\r\n                removeColor(_digitColorsForAddress[from], color);\r\n            _digitColorsForAddress[to].push(color);\r\n        }\r\n        else if (application == keccak256(\"slug\")) {\r\n            if (from != address(0))\r\n                removeColor(_slugColorsForAddress[from], color);\r\n            _slugColorsForAddress[to].push(color);\r\n        }\r\n    }\r\n\r\n    function removeColor(string[] storage colors, string memory exceptColor) private {\r\n\r\n        bytes memory except = bytes(exceptColor);\r\n\r\n        // https://ethereum.stackexchange.com/questions/63653/why-i-cannot-loop-through-array-backwards-in-solidity/63654\r\n        for (uint256 i = colors.length; i > 0; i--) {\r\n            if (bytesEquals(bytes(colors[i - 1]), except)) {\r\n                delete colors[i - 1];\r\n                return;\r\n            }\r\n        }\r\n    }\r\n\r\n    \r\n    function bytesEquals(bytes memory a, bytes memory b) internal pure returns(bool) {\r\n        return (a.length == b.length) && (keccak256(a) == keccak256(b));\r\n    }\r\n\r\n    function stringContains(bytes memory where, bytes memory what) internal pure returns (bool) {\r\n\r\n        require(where.length >= what.length);\r\n\r\n        bool found = false;\r\n        for (uint i = 0; i <= where.length - what.length; i++) {\r\n            bool flag = true;\r\n            for (uint j = 0; j < what.length; j++)\r\n                if (where [i + j] != what [j]) {\r\n                    flag = false;\r\n                    break;\r\n                }\r\n            if (flag) {\r\n                found = true;\r\n                break;\r\n            }\r\n        }\r\n\r\n        return found;\r\n    }\r\n\r\n    function getColors(address forAddress, uint256 tokenId) external view returns (string memory backColor, string memory frameColor, string memory digitColor, string memory slugColor) {\r\n\r\n        string[] memory colors = tokenId < 99999 ? _backColorsForAddress[forAddress] : new string[](0); // pseudo use of tokenId to prevent warnings. We still want the tokenId in the method arguments to be able to modify colors by the tokenId in the future.\r\n        string memory back = getColorFromArray(colors, \"#FFFFFF\", \"back\");\r\n        \r\n        colors = _frameColorsForAddress[forAddress];\r\n        string memory frame = getColorFromArray(colors, \"#000000\", \"frame\");\r\n        \r\n        colors = _digitColorsForAddress[forAddress];\r\n        string memory digit = getColorFromArray(colors, \"#000000\", \"digit\");\r\n        \r\n        colors = _slugColorsForAddress[forAddress];\r\n        string memory slug = getColorFromArray(colors, \"#FFFFFF\", \"slug\");\r\n        \r\n        return (back, frame, digit, slug);\r\n    }\r\n\r\n    function getColorFromArray(string[] memory colors, string memory fallbackValue, string memory application) internal pure returns (string memory) {\r\n\r\n        string memory color;\r\n\r\n        // https://ethereum.stackexchange.com/questions/63653/why-i-cannot-loop-through-array-backwards-in-solidity/63654\r\n        for (uint256 i = colors.length; i > 0; i--) {\r\n            if (bytes(colors[i - 1]).length > 0) {\r\n                color = colors[i - 1];\r\n                break;\r\n            }\r\n        }\r\n\r\n        if (bytes(color).length == 0) {\r\n            color = fallbackValue;\r\n        }\r\n\r\n        return formatColor(color, application);\r\n    }\r\n\r\n    function formatColor(string memory color, string memory application) internal pure returns (string memory) {\r\n\r\n        // turn hex colors like #527862 into a linear gradient\r\n        if (bytes(color).length <= 7) {\r\n            return string(abi.encodePacked(\"<linearGradient id='\", application, \"'><stop stop-color='\", color, \"'/></linearGradient>\"));\r\n        }\r\n\r\n        return color;\r\n    }\r\n}",
  "sourcePath": "D:\\Develop\\GitHub\\OG+\\src\\contracts\\OGColor.sol",
  "compiler": {
    "name": "solc",
    "version": "0.8.0+commit.c7dfd78e.Emscripten.clang"
  },
  "schemaVersion": "3.4.3",
  "updatedAt": "2022-01-09T22:43:04.247Z",
  "networkType": "ethereum",
  "devdoc": {
    "author": "nfttank.eth",
    "kind": "dev",
    "methods": {
      "approve(address,uint256)": {
        "details": "See {IERC721-approve}."
      },
      "balanceOf(address)": {
        "details": "See {IERC721-balanceOf}."
      },
      "getApproved(uint256)": {
        "details": "See {IERC721-getApproved}."
      },
      "isApprovedForAll(address,address)": {
        "details": "See {IERC721-isApprovedForAll}."
      },
      "mint(string,string)": {
        "details": "It's recommended to use lower case color strings like #ffffff instead of #FFFFFF"
      },
      "name()": {
        "details": "See {IERC721Metadata-name}."
      },
      "owner()": {
        "details": "Returns the address of the current owner."
      },
      "ownerOf(uint256)": {
        "details": "See {IERC721-ownerOf}."
      },
      "renounceOwnership()": {
        "details": "Leaves the contract without owner. It will not be possible to call `onlyOwner` functions anymore. Can only be called by the current owner. NOTE: Renouncing ownership will leave the contract without an owner, thereby removing any functionality that is only available to the owner."
      },
      "safeTransferFrom(address,address,uint256)": {
        "details": "See {IERC721-safeTransferFrom}."
      },
      "safeTransferFrom(address,address,uint256,bytes)": {
        "details": "See {IERC721-safeTransferFrom}."
      },
      "setApprovalForAll(address,bool)": {
        "details": "See {IERC721-setApprovalForAll}."
      },
      "supportsInterface(bytes4)": {
        "details": "See {IERC165-supportsInterface}."
      },
      "symbol()": {
        "details": "See {IERC721Metadata-symbol}."
      },
      "tokenURI(uint256)": {
        "details": "See {IERC721Metadata-tokenURI}."
      },
      "transferFrom(address,address,uint256)": {
        "details": "See {IERC721-transferFrom}."
      },
      "transferOwnership(address)": {
        "details": "Transfers ownership of the contract to a new account (`newOwner`). Can only be called by the current owner."
      }
    },
    "title": "Defines colors for OG NFTs. When minting, a color and an application (which part of the OG NFT to colorize) has to be defined. There are four different applications (back, frame, digit, slug), but only a few colors to mint.",
    "version": 1
  },
  "userdoc": {
    "kind": "user",
    "methods": {},
    "version": 1
  }
}