{
  "contractName": "OGColor",
  "abi": [
    {
      "inputs": [],
      "stateMutability": "nonpayable",
      "type": "constructor"
    },
    {
      "anonymous": false,
      "inputs": [
        {
          "indexed": true,
          "internalType": "address",
          "name": "owner",
          "type": "address"
        },
        {
          "indexed": true,
          "internalType": "address",
          "name": "approved",
          "type": "address"
        },
        {
          "indexed": true,
          "internalType": "uint256",
          "name": "tokenId",
          "type": "uint256"
        }
      ],
      "name": "Approval",
      "type": "event"
    },
    {
      "anonymous": false,
      "inputs": [
        {
          "indexed": true,
          "internalType": "address",
          "name": "owner",
          "type": "address"
        },
        {
          "indexed": true,
          "internalType": "address",
          "name": "operator",
          "type": "address"
        },
        {
          "indexed": false,
          "internalType": "bool",
          "name": "approved",
          "type": "bool"
        }
      ],
      "name": "ApprovalForAll",
      "type": "event"
    },
    {
      "anonymous": false,
      "inputs": [
        {
          "indexed": true,
          "internalType": "address",
          "name": "previousOwner",
          "type": "address"
        },
        {
          "indexed": true,
          "internalType": "address",
          "name": "newOwner",
          "type": "address"
        }
      ],
      "name": "OwnershipTransferred",
      "type": "event"
    },
    {
      "anonymous": false,
      "inputs": [
        {
          "indexed": true,
          "internalType": "address",
          "name": "from",
          "type": "address"
        },
        {
          "indexed": true,
          "internalType": "address",
          "name": "to",
          "type": "address"
        },
        {
          "indexed": true,
          "internalType": "uint256",
          "name": "tokenId",
          "type": "uint256"
        }
      ],
      "name": "Transfer",
      "type": "event"
    },
    {
      "inputs": [
        {
          "internalType": "address",
          "name": "to",
          "type": "address"
        },
        {
          "internalType": "uint256",
          "name": "tokenId",
          "type": "uint256"
        }
      ],
      "name": "approve",
      "outputs": [],
      "stateMutability": "nonpayable",
      "type": "function"
    },
    {
      "inputs": [
        {
          "internalType": "address",
          "name": "owner",
          "type": "address"
        }
      ],
      "name": "balanceOf",
      "outputs": [
        {
          "internalType": "uint256",
          "name": "",
          "type": "uint256"
        }
      ],
      "stateMutability": "view",
      "type": "function",
      "constant": true
    },
    {
      "inputs": [
        {
          "internalType": "uint256",
          "name": "tokenId",
          "type": "uint256"
        }
      ],
      "name": "getApproved",
      "outputs": [
        {
          "internalType": "address",
          "name": "",
          "type": "address"
        }
      ],
      "stateMutability": "view",
      "type": "function",
      "constant": true
    },
    {
      "inputs": [
        {
          "internalType": "address",
          "name": "owner",
          "type": "address"
        },
        {
          "internalType": "address",
          "name": "operator",
          "type": "address"
        }
      ],
      "name": "isApprovedForAll",
      "outputs": [
        {
          "internalType": "bool",
          "name": "",
          "type": "bool"
        }
      ],
      "stateMutability": "view",
      "type": "function",
      "constant": true
    },
    {
      "inputs": [],
      "name": "name",
      "outputs": [
        {
          "internalType": "string",
          "name": "",
          "type": "string"
        }
      ],
      "stateMutability": "view",
      "type": "function",
      "constant": true
    },
    {
      "inputs": [],
      "name": "owner",
      "outputs": [
        {
          "internalType": "address",
          "name": "",
          "type": "address"
        }
      ],
      "stateMutability": "view",
      "type": "function",
      "constant": true
    },
    {
      "inputs": [
        {
          "internalType": "uint256",
          "name": "tokenId",
          "type": "uint256"
        }
      ],
      "name": "ownerOf",
      "outputs": [
        {
          "internalType": "address",
          "name": "",
          "type": "address"
        }
      ],
      "stateMutability": "view",
      "type": "function",
      "constant": true
    },
    {
      "inputs": [],
      "name": "renounceOwnership",
      "outputs": [],
      "stateMutability": "nonpayable",
      "type": "function"
    },
    {
      "inputs": [
        {
          "internalType": "address",
          "name": "from",
          "type": "address"
        },
        {
          "internalType": "address",
          "name": "to",
          "type": "address"
        },
        {
          "internalType": "uint256",
          "name": "tokenId",
          "type": "uint256"
        }
      ],
      "name": "safeTransferFrom",
      "outputs": [],
      "stateMutability": "nonpayable",
      "type": "function"
    },
    {
      "inputs": [
        {
          "internalType": "address",
          "name": "from",
          "type": "address"
        },
        {
          "internalType": "address",
          "name": "to",
          "type": "address"
        },
        {
          "internalType": "uint256",
          "name": "tokenId",
          "type": "uint256"
        },
        {
          "internalType": "bytes",
          "name": "_data",
          "type": "bytes"
        }
      ],
      "name": "safeTransferFrom",
      "outputs": [],
      "stateMutability": "nonpayable",
      "type": "function"
    },
    {
      "inputs": [
        {
          "internalType": "address",
          "name": "operator",
          "type": "address"
        },
        {
          "internalType": "bool",
          "name": "approved",
          "type": "bool"
        }
      ],
      "name": "setApprovalForAll",
      "outputs": [],
      "stateMutability": "nonpayable",
      "type": "function"
    },
    {
      "inputs": [
        {
          "internalType": "bytes4",
          "name": "interfaceId",
          "type": "bytes4"
        }
      ],
      "name": "supportsInterface",
      "outputs": [
        {
          "internalType": "bool",
          "name": "",
          "type": "bool"
        }
      ],
      "stateMutability": "view",
      "type": "function",
      "constant": true
    },
    {
      "inputs": [],
      "name": "symbol",
      "outputs": [
        {
          "internalType": "string",
          "name": "",
          "type": "string"
        }
      ],
      "stateMutability": "view",
      "type": "function",
      "constant": true
    },
    {
      "inputs": [
        {
          "internalType": "uint256",
          "name": "index",
          "type": "uint256"
        }
      ],
      "name": "tokenByIndex",
      "outputs": [
        {
          "internalType": "uint256",
          "name": "",
          "type": "uint256"
        }
      ],
      "stateMutability": "view",
      "type": "function",
      "constant": true
    },
    {
      "inputs": [
        {
          "internalType": "address",
          "name": "owner",
          "type": "address"
        },
        {
          "internalType": "uint256",
          "name": "index",
          "type": "uint256"
        }
      ],
      "name": "tokenOfOwnerByIndex",
      "outputs": [
        {
          "internalType": "uint256",
          "name": "",
          "type": "uint256"
        }
      ],
      "stateMutability": "view",
      "type": "function",
      "constant": true
    },
    {
      "inputs": [
        {
          "internalType": "uint256",
          "name": "tokenId",
          "type": "uint256"
        }
      ],
      "name": "tokenURI",
      "outputs": [
        {
          "internalType": "string",
          "name": "",
          "type": "string"
        }
      ],
      "stateMutability": "view",
      "type": "function",
      "constant": true
    },
    {
      "inputs": [],
      "name": "totalSupply",
      "outputs": [
        {
          "internalType": "uint256",
          "name": "",
          "type": "uint256"
        }
      ],
      "stateMutability": "view",
      "type": "function",
      "constant": true
    },
    {
      "inputs": [
        {
          "internalType": "address",
          "name": "from",
          "type": "address"
        },
        {
          "internalType": "address",
          "name": "to",
          "type": "address"
        },
        {
          "internalType": "uint256",
          "name": "tokenId",
          "type": "uint256"
        }
      ],
      "name": "transferFrom",
      "outputs": [],
      "stateMutability": "nonpayable",
      "type": "function"
    },
    {
      "inputs": [
        {
          "internalType": "address",
          "name": "newOwner",
          "type": "address"
        }
      ],
      "name": "transferOwnership",
      "outputs": [],
      "stateMutability": "nonpayable",
      "type": "function"
    },
    {
      "inputs": [
        {
          "internalType": "string",
          "name": "application",
          "type": "string"
        },
        {
          "internalType": "string",
          "name": "hexColor",
          "type": "string"
        }
      ],
      "name": "claim",
      "outputs": [],
      "stateMutability": "nonpayable",
      "type": "function"
    },
    {
      "inputs": [
        {
          "internalType": "string",
          "name": "hexColor",
          "type": "string"
        }
      ],
      "name": "isValidHexColor",
      "outputs": [
        {
          "internalType": "bool",
          "name": "",
          "type": "bool"
        }
      ],
      "stateMutability": "pure",
      "type": "function",
      "constant": true
    },
    {
      "inputs": [
        {
          "internalType": "address",
          "name": "forAddress",
          "type": "address"
        },
        {
          "internalType": "uint256",
          "name": "tokenId",
          "type": "uint256"
        }
      ],
      "name": "getColors",
      "outputs": [
        {
          "internalType": "string",
          "name": "backColor",
          "type": "string"
        },
        {
          "internalType": "string",
          "name": "frameColor",
          "type": "string"
        },
        {
          "internalType": "string",
          "name": "digitColor",
          "type": "string"
        },
        {
          "internalType": "string",
          "name": "slugColor",
          "type": "string"
        }
      ],
      "stateMutability": "view",
      "type": "function",
      "constant": true
    }
  ],
  "bytecode": "0x60806040523480156200001157600080fd5b506040518060400160405280600781526020017f4f47436f6c6f72000000000000000000000000000000000000000000000000008152506040518060400160405280600781526020017f4f47434f4c4f5200000000000000000000000000000000000000000000000000815250816000908051906020019062000096929190620001ae565b508060019080519060200190620000af929190620001ae565b5050506001600a81905550620000da620000ce620000e060201b60201c565b620000e860201b60201c565b620002c3565b600033905090565b6000600b60009054906101000a900473ffffffffffffffffffffffffffffffffffffffff16905081600b60006101000a81548173ffffffffffffffffffffffffffffffffffffffff021916908373ffffffffffffffffffffffffffffffffffffffff1602179055508173ffffffffffffffffffffffffffffffffffffffff168173ffffffffffffffffffffffffffffffffffffffff167f8be0079c531659141344cd1fd0a4f28419497f9722a3daafe3b4186f6b6457e060405160405180910390a35050565b828054620001bc906200025e565b90600052602060002090601f016020900481019282620001e057600085556200022c565b82601f10620001fb57805160ff19168380011785556200022c565b828001600101855582156200022c579182015b828111156200022b5782518255916020019190600101906200020e565b5b5090506200023b91906200023f565b5090565b5b808211156200025a57600081600090555060010162000240565b5090565b600060028204905060018216806200027757607f821691505b602082108114156200028e576200028d62000294565b5b50919050565b7f4e487b7100000000000000000000000000000000000000000000000000000000600052602260045260246000fd5b614fd480620002d36000396000f3fe608060405234801561001057600080fd5b50600436106101425760003560e01c80636352211e116100b8578063a22cb4651161007c578063a22cb465146103a0578063b88d4fde146103bc578063c87b56dd146103d8578063cb6ab5d814610408578063e985e9c514610424578063f2fde38b1461045457610142565b80636352211e146102fa57806370a082311461032a578063715018a61461035a5780638da5cb5b1461036457806395d89b411461038257610142565b8063116e85bf1161010a578063116e85bf1461021157806318160ddd1461024457806323b872dd146102625780632f745c591461027e57806342842e0e146102ae5780634f6ccce7146102ca57610142565b806301ffc9a71461014757806306adaa6c1461017757806306fdde03146101a7578063081812fc146101c5578063095ea7b3146101f5575b600080fd5b610161600480360381019061015c9190613bcb565b610470565b60405161016e9190614735565b60405180910390f35b610191600480360381019061018c9190613c1d565b6104ea565b60405161019e9190614735565b60405180910390f35b6101af610699565b6040516101bc9190614750565b60405180910390f35b6101df60048036038101906101da9190613cd7565b61072b565b6040516101ec91906146ce565b60405180910390f35b61020f600480360381019061020a9190613b8f565b6107b0565b005b61022b60048036038101906102269190613b8f565b6108c8565b60405161023b9493929190614772565b60405180910390f35b61024c610ebf565b6040516102599190614a93565b60405180910390f35b61027c60048036038101906102779190613a89565b610ecc565b005b61029860048036038101906102939190613b8f565b610f2c565b6040516102a59190614a93565b60405180910390f35b6102c860048036038101906102c39190613a89565b610fd1565b005b6102e460048036038101906102df9190613cd7565b610ff1565b6040516102f19190614a93565b60405180910390f35b610314600480360381019061030f9190613cd7565b611088565b60405161032191906146ce565b60405180910390f35b610344600480360381019061033f9190613a24565b61113a565b6040516103519190614a93565b60405180910390f35b6103626111f2565b005b61036c61127a565b60405161037991906146ce565b60405180910390f35b61038a6112a4565b6040516103979190614750565b60405180910390f35b6103ba60048036038101906103b59190613b53565b611336565b005b6103d660048036038101906103d19190613ad8565b61134c565b005b6103f260048036038101906103ed9190613cd7565b6113ae565b6040516103ff9190614750565b60405180910390f35b610422600480360381019061041d9190613c62565b611455565b005b61043e60048036038101906104399190613a4d565b6115ea565b60405161044b9190614735565b60405180910390f35b61046e60048036038101906104699190613a24565b61167e565b005b60007f780e9d63000000000000000000000000000000000000000000000000000000007bffffffffffffffffffffffffffffffffffffffffffffffffffffffff1916827bffffffffffffffffffffffffffffffffffffffffffffffffffffffff191614806104e357506104e282611776565b5b9050919050565b60008083838080601f016020809104026020016040519081016040528093929190818152602001838380828437600081840152601f19601f8201169050808301925050505050505090506007815114610547576000915050610693565b60005b81518161ffff16101561068c576000828261ffff1681518110610596577f4e487b7100000000000000000000000000000000000000000000000000000000600052603260045260246000fd5b602001015160f81c60f81b60f81c60ff16905060008261ffff1614156105d25760238160010b146105cd5760009350505050610693565b610678565b60006030826105e19190614bf9565b905060006041836105f29190614bf9565b905060006061846106039190614bf9565b90506000808460010b1215801561061e575060098460010b13155b8061063d575060008360010b1215801561063c575060058360010b13155b5b8061065c575060008260010b1215801561065b575060058260010b13155b5b905080610673576000975050505050505050610693565b505050505b50808061068490614dd0565b91505061054a565b5060019150505b92915050565b6060600080546106a890614d9e565b80601f01602080910402602001604051908101604052809291908181526020018280546106d490614d9e565b80156107215780601f106106f657610100808354040283529160200191610721565b820191906000526020600020905b81548152906001019060200180831161070457829003601f168201915b5050505050905090565b600061073682611858565b610775576040517f08c379a000000000000000000000000000000000000000000000000000000000815260040161076c90614973565b60405180910390fd5b6004600083815260200190815260200160002060009054906101000a900473ffffffffffffffffffffffffffffffffffffffff169050919050565b60006107bb82611088565b90508073ffffffffffffffffffffffffffffffffffffffff168373ffffffffffffffffffffffffffffffffffffffff16141561082c576040517f08c379a000000000000000000000000000000000000000000000000000000000815260040161082390614a13565b60405180910390fd5b8073ffffffffffffffffffffffffffffffffffffffff1661084b6118c4565b73ffffffffffffffffffffffffffffffffffffffff16148061087a5750610879816108746118c4565b6115ea565b5b6108b9576040517f08c379a00000000000000000000000000000000000000000000000000000000081526004016108b0906148f3565b60405180910390fd5b6108c383836118cc565b505050565b60608060608060006201869f861061095457600067ffffffffffffffff81111561091b577f4e487b7100000000000000000000000000000000000000000000000000000000600052604160045260246000fd5b60405190808252806020026020018201604052801561094e57816020015b60608152602001906001900390816109395790505b50610a64565b600e60008873ffffffffffffffffffffffffffffffffffffffff1673ffffffffffffffffffffffffffffffffffffffff168152602001908152602001600020805480602002602001604051908101604052809291908181526020016000905b82821015610a5f5783829060005260206000200180546109d290614d9e565b80601f01602080910402602001604051908101604052809291908181526020018280546109fe90614d9e565b8015610a4b5780601f10610a2057610100808354040283529160200191610a4b565b820191906000526020600020905b815481529060010190602001808311610a2e57829003601f168201915b5050505050815260200190600101906109b3565b505050505b90506000610aa7826040518060400160405280600781526020017f2346464646464600000000000000000000000000000000000000000000000000815250611985565b9050600f60008973ffffffffffffffffffffffffffffffffffffffff1673ffffffffffffffffffffffffffffffffffffffff168152602001908152602001600020805480602002602001604051908101604052809291908181526020016000905b82821015610bb4578382906000526020600020018054610b2790614d9e565b80601f0160208091040260200160405190810160405280929190818152602001828054610b5390614d9e565b8015610ba05780601f10610b7557610100808354040283529160200191610ba0565b820191906000526020600020905b815481529060010190602001808311610b8357829003601f168201915b505050505081526020019060010190610b08565b5050505091506000610bfb836040518060400160405280600781526020017f2330303030303000000000000000000000000000000000000000000000000000815250611985565b9050601060008a73ffffffffffffffffffffffffffffffffffffffff1673ffffffffffffffffffffffffffffffffffffffff168152602001908152602001600020805480602002602001604051908101604052809291908181526020016000905b82821015610d08578382906000526020600020018054610c7b90614d9e565b80601f0160208091040260200160405190810160405280929190818152602001828054610ca790614d9e565b8015610cf45780601f10610cc957610100808354040283529160200191610cf4565b820191906000526020600020905b815481529060010190602001808311610cd757829003601f168201915b505050505081526020019060010190610c5c565b5050505092506000610d4f846040518060400160405280600781526020017f2330303030303000000000000000000000000000000000000000000000000000815250611985565b9050601160008b73ffffffffffffffffffffffffffffffffffffffff1673ffffffffffffffffffffffffffffffffffffffff168152602001908152602001600020805480602002602001604051908101604052809291908181526020016000905b82821015610e5c578382906000526020600020018054610dcf90614d9e565b80601f0160208091040260200160405190810160405280929190818152602001828054610dfb90614d9e565b8015610e485780601f10610e1d57610100808354040283529160200191610e48565b820191906000526020600020905b815481529060010190602001808311610e2b57829003601f168201915b505050505081526020019060010190610db0565b5050505093506000610ea3856040518060400160405280600781526020017f2346464646464600000000000000000000000000000000000000000000000000815250611985565b9050838383839850985098509850505050505092959194509250565b6000600880549050905090565b610edd610ed76118c4565b82611a53565b610f1c576040517f08c379a0000000000000000000000000000000000000000000000000000000008152600401610f1390614a33565b60405180910390fd5b610f27838383611b31565b505050565b6000610f378361113a565b8210610f78576040517f08c379a0000000000000000000000000000000000000000000000000000000008152600401610f6f906147d3565b60405180910390fd5b600660008473ffffffffffffffffffffffffffffffffffffffff1673ffffffffffffffffffffffffffffffffffffffff168152602001908152602001600020600083815260200190815260200160002054905092915050565b610fec8383836040518060200160405280600081525061134c565b505050565b6000610ffb610ebf565b821061103c576040517f08c379a000000000000000000000000000000000000000000000000000000000815260040161103390614a53565b60405180910390fd5b60088281548110611076577f4e487b7100000000000000000000000000000000000000000000000000000000600052603260045260246000fd5b90600052602060002001549050919050565b6000806002600084815260200190815260200160002060009054906101000a900473ffffffffffffffffffffffffffffffffffffffff169050600073ffffffffffffffffffffffffffffffffffffffff168173ffffffffffffffffffffffffffffffffffffffff161415611131576040517f08c379a000000000000000000000000000000000000000000000000000000000815260040161112890614933565b60405180910390fd5b80915050919050565b60008073ffffffffffffffffffffffffffffffffffffffff168273ffffffffffffffffffffffffffffffffffffffff1614156111ab576040517f08c379a00000000000000000000000000000000000000000000000000000000081526004016111a290614913565b60405180910390fd5b600360008373ffffffffffffffffffffffffffffffffffffffff1673ffffffffffffffffffffffffffffffffffffffff168152602001908152602001600020549050919050565b6111fa6118c4565b73ffffffffffffffffffffffffffffffffffffffff1661121861127a565b73ffffffffffffffffffffffffffffffffffffffff161461126e576040517f08c379a000000000000000000000000000000000000000000000000000000000815260040161126590614993565b60405180910390fd5b6112786000611d8d565b565b6000600b60009054906101000a900473ffffffffffffffffffffffffffffffffffffffff16905090565b6060600180546112b390614d9e565b80601f01602080910402602001604051908101604052809291908181526020018280546112df90614d9e565b801561132c5780601f106113015761010080835404028352916020019161132c565b820191906000526020600020905b81548152906001019060200180831161130f57829003601f168201915b5050505050905090565b6113486113416118c4565b8383611e53565b5050565b61135d6113576118c4565b83611a53565b61139c576040517f08c379a000000000000000000000000000000000000000000000000000000000815260040161139390614a33565b60405180910390fd5b6113a884848484611fc0565b50505050565b60606113b982611858565b6113f8576040517f08c379a00000000000000000000000000000000000000000000000000000000081526004016113ef906149f3565b60405180910390fd5b600061140261201c565b90506000815111611422576040518060200160405280600081525061144d565b8061142c84612033565b60405160200161143d9291906146aa565b6040516020818303038152906040525b915050919050565b6002600a54141561149b576040517f08c379a000000000000000000000000000000000000000000000000000000000815260040161149290614a73565b60405180910390fd5b6002600a8190555060006114ad610ebf565b905060ff81106114f2576040517f08c379a00000000000000000000000000000000000000000000000000000000081526004016114e990614853565b60405180910390fd5b6114fc85856121e0565b61153b576040517f08c379a0000000000000000000000000000000000000000000000000000000008152600401611532906148d3565b60405180910390fd5b61154583836104ea565b611584576040517f08c379a000000000000000000000000000000000000000000000000000000000815260040161157b906149b3565b60405180910390fd5b8282600c600084815260200190815260200160002091906115a692919061371c565b508484600d600084815260200190815260200160002091906115c992919061371c565b506115db6115d56118c4565b826122a7565b506001600a8190555050505050565b6000600560008473ffffffffffffffffffffffffffffffffffffffff1673ffffffffffffffffffffffffffffffffffffffff16815260200190815260200160002060008373ffffffffffffffffffffffffffffffffffffffff1673ffffffffffffffffffffffffffffffffffffffff16815260200190815260200160002060009054906101000a900460ff16905092915050565b6116866118c4565b73ffffffffffffffffffffffffffffffffffffffff166116a461127a565b73ffffffffffffffffffffffffffffffffffffffff16146116fa576040517f08c379a00000000000000000000000000000000000000000000000000000000081526004016116f190614993565b60405180910390fd5b600073ffffffffffffffffffffffffffffffffffffffff168173ffffffffffffffffffffffffffffffffffffffff16141561176a576040517f08c379a000000000000000000000000000000000000000000000000000000000815260040161176190614813565b60405180910390fd5b61177381611d8d565b50565b60007f80ac58cd000000000000000000000000000000000000000000000000000000007bffffffffffffffffffffffffffffffffffffffffffffffffffffffff1916827bffffffffffffffffffffffffffffffffffffffffffffffffffffffff1916148061184157507f5b5e139f000000000000000000000000000000000000000000000000000000007bffffffffffffffffffffffffffffffffffffffffffffffffffffffff1916827bffffffffffffffffffffffffffffffffffffffffffffffffffffffff1916145b806118515750611850826122c5565b5b9050919050565b60008073ffffffffffffffffffffffffffffffffffffffff166002600084815260200190815260200160002060009054906101000a900473ffffffffffffffffffffffffffffffffffffffff1673ffffffffffffffffffffffffffffffffffffffff1614159050919050565b600033905090565b816004600083815260200190815260200160002060006101000a81548173ffffffffffffffffffffffffffffffffffffffff021916908373ffffffffffffffffffffffffffffffffffffffff160217905550808273ffffffffffffffffffffffffffffffffffffffff1661193f83611088565b73ffffffffffffffffffffffffffffffffffffffff167f8c5be1e5ebec7d5bd14f71427d1e84f3dd0314c0f7b2291e5b200ac8c7c3b92560405160405180910390a45050565b60606000600184516119979190614c6f565b90505b60008111611a485760008482815181106119dd577f4e487b7100000000000000000000000000000000000000000000000000000000600052603260045260246000fd5b6020026020010151511115611a3557838181518110611a25577f4e487b7100000000000000000000000000000000000000000000000000000000600052603260045260246000fd5b6020026020010151915050611a4d565b8080611a4090614d74565b91505061199a565b508190505b92915050565b6000611a5e82611858565b611a9d576040517f08c379a0000000000000000000000000000000000000000000000000000000008152600401611a94906148b3565b60405180910390fd5b6000611aa883611088565b90508073ffffffffffffffffffffffffffffffffffffffff168473ffffffffffffffffffffffffffffffffffffffff161480611b1757508373ffffffffffffffffffffffffffffffffffffffff16611aff8461072b565b73ffffffffffffffffffffffffffffffffffffffff16145b80611b285750611b2781856115ea565b5b91505092915050565b8273ffffffffffffffffffffffffffffffffffffffff16611b5182611088565b73ffffffffffffffffffffffffffffffffffffffff1614611ba7576040517f08c379a0000000000000000000000000000000000000000000000000000000008152600401611b9e906149d3565b60405180910390fd5b600073ffffffffffffffffffffffffffffffffffffffff168273ffffffffffffffffffffffffffffffffffffffff161415611c17576040517f08c379a0000000000000000000000000000000000000000000000000000000008152600401611c0e90614873565b60405180910390fd5b611c2283838361232f565b611c2d6000826118cc565b6001600360008573ffffffffffffffffffffffffffffffffffffffff1673ffffffffffffffffffffffffffffffffffffffff1681526020019081526020016000206000828254611c7d9190614c6f565b925050819055506001600360008473ffffffffffffffffffffffffffffffffffffffff1673ffffffffffffffffffffffffffffffffffffffff1681526020019081526020016000206000828254611cd49190614b72565b92505081905550816002600083815260200190815260200160002060006101000a81548173ffffffffffffffffffffffffffffffffffffffff021916908373ffffffffffffffffffffffffffffffffffffffff160217905550808273ffffffffffffffffffffffffffffffffffffffff168473ffffffffffffffffffffffffffffffffffffffff167fddf252ad1be2c89b69c2b068fc378daa952ba7f163c4a11628f55a4df523b3ef60405160405180910390a4505050565b6000600b60009054906101000a900473ffffffffffffffffffffffffffffffffffffffff16905081600b60006101000a81548173ffffffffffffffffffffffffffffffffffffffff021916908373ffffffffffffffffffffffffffffffffffffffff1602179055508173ffffffffffffffffffffffffffffffffffffffff168173ffffffffffffffffffffffffffffffffffffffff167f8be0079c531659141344cd1fd0a4f28419497f9722a3daafe3b4186f6b6457e060405160405180910390a35050565b8173ffffffffffffffffffffffffffffffffffffffff168373ffffffffffffffffffffffffffffffffffffffff161415611ec2576040517f08c379a0000000000000000000000000000000000000000000000000000000008152600401611eb990614893565b60405180910390fd5b80600560008573ffffffffffffffffffffffffffffffffffffffff1673ffffffffffffffffffffffffffffffffffffffff16815260200190815260200160002060008473ffffffffffffffffffffffffffffffffffffffff1673ffffffffffffffffffffffffffffffffffffffff16815260200190815260200160002060006101000a81548160ff0219169083151502179055508173ffffffffffffffffffffffffffffffffffffffff168373ffffffffffffffffffffffffffffffffffffffff167f17307eab39ab6107e8899845ad3d59bd9653f200f220920489ca2b5937696c3183604051611fb39190614735565b60405180910390a3505050565b611fcb848484611b31565b611fd784848484612c8a565b612016576040517f08c379a000000000000000000000000000000000000000000000000000000000815260040161200d906147f3565b60405180910390fd5b50505050565b606060405180602001604052806000815250905090565b6060600082141561207b576040518060400160405280600181526020017f300000000000000000000000000000000000000000000000000000000000000081525090506121db565b600082905060005b600082146120ad57808061209690614dfb565b915050600a826120a69190614bc8565b9150612083565b60008167ffffffffffffffff8111156120ef577f4e487b7100000000000000000000000000000000000000000000000000000000600052604160045260246000fd5b6040519080825280601f01601f1916602001820160405280156121215781602001600182028036833780820191505090505b5090505b600085146121d45760018261213a9190614c6f565b9150600a856121499190614e44565b60306121559190614b72565b60f81b818381518110612191577f4e487b7100000000000000000000000000000000000000000000000000000000600052603260045260246000fd5b60200101907effffffffffffffffffffffffffffffffffffffffffffffffffffffffffffff1916908160001a905350600a856121cd9190614bc8565b9450612125565b8093505050505b919050565b60008083836040516121f392919061467a565b604051809103902090507ff99975b1b7d766d47f24055dcf9d239a44d26bc887197da89a6e1cb7acbd0a9d81148061224a57507f2aa1b44d53ecaef3818686a0e39502ef57e254136370bf94dbea962d9c1d211581145b8061227457507f54b0769b5f3f2b3325755b96837f908e4f387f2ffbfb36e43a599d683c584e0181145b8061229e57507fad031b8dd7bd2be2fd611ae08d0f6eefaff2358a70428446315d94a57c654ddb81145b91505092915050565b6122c1828260405180602001604052806000815250612e21565b5050565b60007f01ffc9a7000000000000000000000000000000000000000000000000000000007bffffffffffffffffffffffffffffffffffffffffffffffffffffffff1916827bffffffffffffffffffffffffffffffffffffffffffffffffffffffff1916149050919050565b61233a838383612e7c565b8173ffffffffffffffffffffffffffffffffffffffff168373ffffffffffffffffffffffffffffffffffffffff16141561237357612c85565b6000600c6000838152602001908152602001600020805461239390614d9e565b80601f01602080910402602001604051908101604052809291908181526020018280546123bf90614d9e565b801561240c5780601f106123e15761010080835404028352916020019161240c565b820191906000526020600020905b8154815290600101906020018083116123ef57829003601f168201915b505050505090506000600d60008481526020019081526020016000206040516124359190614693565b604051809103902090507ff99975b1b7d766d47f24055dcf9d239a44d26bc887197da89a6e1cb7acbd0a9d8114156126505761257f600e60008773ffffffffffffffffffffffffffffffffffffffff1673ffffffffffffffffffffffffffffffffffffffff168152602001908152602001600020805480602002602001604051908101604052809291908181526020016000905b828210156125755783829060005260206000200180546124e890614d9e565b80601f016020809104026020016040519081016040528092919081815260200182805461251490614d9e565b80156125615780601f1061253657610100808354040283529160200191612561565b820191906000526020600020905b81548152906001019060200180831161254457829003601f168201915b5050505050815260200190600101906124c9565b5050505083612f90565b600e60008773ffffffffffffffffffffffffffffffffffffffff1673ffffffffffffffffffffffffffffffffffffffff16815260200190815260200160002090805190602001906125d19291906137a2565b50600e60008573ffffffffffffffffffffffffffffffffffffffff1673ffffffffffffffffffffffffffffffffffffffff1681526020019081526020016000208290806001815401808255809150506001900390600052602060002001600090919091909150908051906020019061264a929190613802565b50612c82565b7f2aa1b44d53ecaef3818686a0e39502ef57e254136370bf94dbea962d9c1d211581141561286157612790600f60008773ffffffffffffffffffffffffffffffffffffffff1673ffffffffffffffffffffffffffffffffffffffff168152602001908152602001600020805480602002602001604051908101604052809291908181526020016000905b828210156127865783829060005260206000200180546126f990614d9e565b80601f016020809104026020016040519081016040528092919081815260200182805461272590614d9e565b80156127725780601f1061274757610100808354040283529160200191612772565b820191906000526020600020905b81548152906001019060200180831161275557829003601f168201915b5050505050815260200190600101906126da565b5050505083612f90565b600f60008773ffffffffffffffffffffffffffffffffffffffff1673ffffffffffffffffffffffffffffffffffffffff16815260200190815260200160002090805190602001906127e29291906137a2565b50600f60008573ffffffffffffffffffffffffffffffffffffffff1673ffffffffffffffffffffffffffffffffffffffff1681526020019081526020016000208290806001815401808255809150506001900390600052602060002001600090919091909150908051906020019061285b929190613802565b50612c81565b7f54b0769b5f3f2b3325755b96837f908e4f387f2ffbfb36e43a599d683c584e01811415612a72576129a1601060008773ffffffffffffffffffffffffffffffffffffffff1673ffffffffffffffffffffffffffffffffffffffff168152602001908152602001600020805480602002602001604051908101604052809291908181526020016000905b8282101561299757838290600052602060002001805461290a90614d9e565b80601f016020809104026020016040519081016040528092919081815260200182805461293690614d9e565b80156129835780601f1061295857610100808354040283529160200191612983565b820191906000526020600020905b81548152906001019060200180831161296657829003601f168201915b5050505050815260200190600101906128eb565b5050505083612f90565b601060008773ffffffffffffffffffffffffffffffffffffffff1673ffffffffffffffffffffffffffffffffffffffff16815260200190815260200160002090805190602001906129f39291906137a2565b50601060008573ffffffffffffffffffffffffffffffffffffffff1673ffffffffffffffffffffffffffffffffffffffff16815260200190815260200160002082908060018154018082558091505060019003906000526020600020016000909190919091509080519060200190612a6c929190613802565b50612c80565b7fad031b8dd7bd2be2fd611ae08d0f6eefaff2358a70428446315d94a57c654ddb811415612c7f57612bb2601160008773ffffffffffffffffffffffffffffffffffffffff1673ffffffffffffffffffffffffffffffffffffffff168152602001908152602001600020805480602002602001604051908101604052809291908181526020016000905b82821015612ba8578382906000526020600020018054612b1b90614d9e565b80601f0160208091040260200160405190810160405280929190818152602001828054612b4790614d9e565b8015612b945780601f10612b6957610100808354040283529160200191612b94565b820191906000526020600020905b815481529060010190602001808311612b7757829003601f168201915b505050505081526020019060010190612afc565b5050505083612f90565b601160008773ffffffffffffffffffffffffffffffffffffffff1673ffffffffffffffffffffffffffffffffffffffff1681526020019081526020016000209080519060200190612c049291906137a2565b50601160008573ffffffffffffffffffffffffffffffffffffffff1673ffffffffffffffffffffffffffffffffffffffff16815260200190815260200160002082908060018154018082558091505060019003906000526020600020016000909190919091509080519060200190612c7d929190613802565b505b5b5b5b50505b505050565b6000612cab8473ffffffffffffffffffffffffffffffffffffffff16613182565b15612e14578373ffffffffffffffffffffffffffffffffffffffff1663150b7a02612cd46118c4565b8786866040518563ffffffff1660e01b8152600401612cf694939291906146e9565b602060405180830381600087803b158015612d1057600080fd5b505af1925050508015612d4157506040513d601f19601f82011682018060405250810190612d3e9190613bf4565b60015b612dc4573d8060008114612d71576040519150601f19603f3d011682016040523d82523d6000602084013e612d76565b606091505b50600081511415612dbc576040517f08c379a0000000000000000000000000000000000000000000000000000000008152600401612db3906147f3565b60405180910390fd5b805181602001fd5b63150b7a0260e01b7bffffffffffffffffffffffffffffffffffffffffffffffffffffffff1916817bffffffffffffffffffffffffffffffffffffffffffffffffffffffff191614915050612e19565b600190505b949350505050565b612e2b8383613195565b612e386000848484612c8a565b612e77576040517f08c379a0000000000000000000000000000000000000000000000000000000008152600401612e6e906147f3565b60405180910390fd5b505050565b612e87838383613363565b600073ffffffffffffffffffffffffffffffffffffffff168373ffffffffffffffffffffffffffffffffffffffff161415612eca57612ec581613368565b612f09565b8173ffffffffffffffffffffffffffffffffffffffff168373ffffffffffffffffffffffffffffffffffffffff1614612f0857612f0783826133b1565b5b5b600073ffffffffffffffffffffffffffffffffffffffff168273ffffffffffffffffffffffffffffffffffffffff161415612f4c57612f478161351e565b612f8b565b8273ffffffffffffffffffffffffffffffffffffffff168273ffffffffffffffffffffffffffffffffffffffff1614612f8a57612f898282613661565b5b5b505050565b60606000835167ffffffffffffffff811115612fd5577f4e487b7100000000000000000000000000000000000000000000000000000000600052604160045260246000fd5b60405190808252806020026020018201604052801561300857816020015b6060815260200190600190039081612ff35790505b5090506000806001835161301c9190614c6f565b90505b60008111613176578115801561307b575061307a86828151811061306c577f4e487b7100000000000000000000000000000000000000000000000000000000600052603260045260246000fd5b6020026020010151866136e0565b5b156130dd57604051806020016040528060008152508382815181106130c9577f4e487b7100000000000000000000000000000000000000000000000000000000600052603260045260246000fd5b602002602001018190525060019150613163565b858181518110613116577f4e487b7100000000000000000000000000000000000000000000000000000000600052603260045260246000fd5b6020026020010151838281518110613157577f4e487b7100000000000000000000000000000000000000000000000000000000600052603260045260246000fd5b60200260200101819052505b808061316e90614d74565b91505061301f565b50819250505092915050565b600080823b905060008111915050919050565b600073ffffffffffffffffffffffffffffffffffffffff168273ffffffffffffffffffffffffffffffffffffffff161415613205576040517f08c379a00000000000000000000000000000000000000000000000000000000081526004016131fc90614953565b60405180910390fd5b61320e81611858565b1561324e576040517f08c379a000000000000000000000000000000000000000000000000000000000815260040161324590614833565b60405180910390fd5b61325a6000838361232f565b6001600360008473ffffffffffffffffffffffffffffffffffffffff1673ffffffffffffffffffffffffffffffffffffffff16815260200190815260200160002060008282546132aa9190614b72565b92505081905550816002600083815260200190815260200160002060006101000a81548173ffffffffffffffffffffffffffffffffffffffff021916908373ffffffffffffffffffffffffffffffffffffffff160217905550808273ffffffffffffffffffffffffffffffffffffffff16600073ffffffffffffffffffffffffffffffffffffffff167fddf252ad1be2c89b69c2b068fc378daa952ba7f163c4a11628f55a4df523b3ef60405160405180910390a45050565b505050565b6008805490506009600083815260200190815260200160002081905550600881908060018154018082558091505060019003906000526020600020016000909190919091505550565b600060016133be8461113a565b6133c89190614c6f565b90506000600760008481526020019081526020016000205490508181146134ad576000600660008673ffffffffffffffffffffffffffffffffffffffff1673ffffffffffffffffffffffffffffffffffffffff168152602001908152602001600020600084815260200190815260200160002054905080600660008773ffffffffffffffffffffffffffffffffffffffff1673ffffffffffffffffffffffffffffffffffffffff168152602001908152602001600020600084815260200190815260200160002081905550816007600083815260200190815260200160002081905550505b6007600084815260200190815260200160002060009055600660008573ffffffffffffffffffffffffffffffffffffffff1673ffffffffffffffffffffffffffffffffffffffff16815260200190815260200160002060008381526020019081526020016000206000905550505050565b600060016008805490506135329190614c6f565b9050600060096000848152602001908152602001600020549050600060088381548110613588577f4e487b7100000000000000000000000000000000000000000000000000000000600052603260045260246000fd5b9060005260206000200154905080600883815481106135d0577f4e487b7100000000000000000000000000000000000000000000000000000000600052603260045260246000fd5b906000526020600020018190555081600960008381526020019081526020016000208190555060096000858152602001908152602001600020600090556008805480613645577f4e487b7100000000000000000000000000000000000000000000000000000000600052603160045260246000fd5b6001900381819060005260206000200160009055905550505050565b600061366c8361113a565b905081600660008573ffffffffffffffffffffffffffffffffffffffff1673ffffffffffffffffffffffffffffffffffffffff168152602001908152602001600020600083815260200190815260200160002081905550806007600084815260200190815260200160002081905550505050565b60006136ec83836136f4565b905092915050565b600081518351148015613714575081805190602001208380519060200120145b905092915050565b82805461372890614d9e565b90600052602060002090601f01602090048101928261374a5760008555613791565b82601f1061376357803560ff1916838001178555613791565b82800160010185558215613791579182015b82811115613790578235825591602001919060010190613775565b5b50905061379e9190613888565b5090565b8280548282559060005260206000209081019282156137f1579160200282015b828111156137f05782518290805190602001906137e0929190613802565b50916020019190600101906137c2565b5b5090506137fe91906138a5565b5090565b82805461380e90614d9e565b90600052602060002090601f0160209004810192826138305760008555613877565b82601f1061384957805160ff1916838001178555613877565b82800160010185558215613877579182015b8281111561387657825182559160200191906001019061385b565b5b5090506138849190613888565b5090565b5b808211156138a1576000816000905550600101613889565b5090565b5b808211156138c557600081816138bc91906138c9565b506001016138a6565b5090565b5080546138d590614d9e565b6000825580601f106138e75750613906565b601f0160209004906000526020600020908101906139059190613888565b5b50565b600061391c61391784614adf565b614aae565b90508281526020810184848401111561393457600080fd5b61393f848285614d32565b509392505050565b60008135905061395681614f42565b92915050565b60008135905061396b81614f59565b92915050565b60008135905061398081614f70565b92915050565b60008151905061399581614f70565b92915050565b600082601f8301126139ac57600080fd5b81356139bc848260208601613909565b91505092915050565b60008083601f8401126139d757600080fd5b8235905067ffffffffffffffff8111156139f057600080fd5b602083019150836001820283011115613a0857600080fd5b9250929050565b600081359050613a1e81614f87565b92915050565b600060208284031215613a3657600080fd5b6000613a4484828501613947565b91505092915050565b60008060408385031215613a6057600080fd5b6000613a6e85828601613947565b9250506020613a7f85828601613947565b9150509250929050565b600080600060608486031215613a9e57600080fd5b6000613aac86828701613947565b9350506020613abd86828701613947565b9250506040613ace86828701613a0f565b9150509250925092565b60008060008060808587031215613aee57600080fd5b6000613afc87828801613947565b9450506020613b0d87828801613947565b9350506040613b1e87828801613a0f565b925050606085013567ffffffffffffffff811115613b3b57600080fd5b613b478782880161399b565b91505092959194509250565b60008060408385031215613b6657600080fd5b6000613b7485828601613947565b9250506020613b858582860161395c565b9150509250929050565b60008060408385031215613ba257600080fd5b6000613bb085828601613947565b9250506020613bc185828601613a0f565b9150509250929050565b600060208284031215613bdd57600080fd5b6000613beb84828501613971565b91505092915050565b600060208284031215613c0657600080fd5b6000613c1484828501613986565b91505092915050565b60008060208385031215613c3057600080fd5b600083013567ffffffffffffffff811115613c4a57600080fd5b613c56858286016139c5565b92509250509250929050565b60008060008060408587031215613c7857600080fd5b600085013567ffffffffffffffff811115613c9257600080fd5b613c9e878288016139c5565b9450945050602085013567ffffffffffffffff811115613cbd57600080fd5b613cc9878288016139c5565b925092505092959194509250565b600060208284031215613ce957600080fd5b6000613cf784828501613a0f565b91505092915050565b613d0981614ca3565b82525050565b613d1881614cb5565b82525050565b6000613d2a8385614b4b565b9350613d37838584614d32565b82840190509392505050565b6000613d4e82614b24565b613d588185614b3a565b9350613d68818560208601614d41565b613d7181614f31565b840191505092915050565b60008154613d8981614d9e565b613d938186614b4b565b94506001821660008114613dae5760018114613dbf57613df2565b60ff19831686528186019350613df2565b613dc885614b0f565b60005b83811015613dea57815481890152600182019150602081019050613dcb565b838801955050505b50505092915050565b6000613e0682614b2f565b613e108185614b56565b9350613e20818560208601614d41565b613e2981614f31565b840191505092915050565b6000613e3f82614b2f565b613e498185614b67565b9350613e59818560208601614d41565b80840191505092915050565b6000613e72602b83614b56565b91507f455243373231456e756d657261626c653a206f776e657220696e646578206f7560008301527f74206f6620626f756e64730000000000000000000000000000000000000000006020830152604082019050919050565b6000613ed8603283614b56565b91507f4552433732313a207472616e7366657220746f206e6f6e20455243373231526560008301527f63656976657220696d706c656d656e74657200000000000000000000000000006020830152604082019050919050565b6000613f3e602683614b56565b91507f4f776e61626c653a206e6577206f776e657220697320746865207a65726f206160008301527f64647265737300000000000000000000000000000000000000000000000000006020830152604082019050919050565b6000613fa4601c83614b56565b91507f4552433732313a20746f6b656e20616c7265616479206d696e746564000000006000830152602082019050919050565b6000613fe4601983614b56565b91507f4e6f206672656520746f6b656e7320617661696c61626c652e000000000000006000830152602082019050919050565b6000614024602483614b56565b91507f4552433732313a207472616e7366657220746f20746865207a65726f2061646460008301527f72657373000000000000000000000000000000000000000000000000000000006020830152604082019050919050565b600061408a601983614b56565b91507f4552433732313a20617070726f766520746f2063616c6c6572000000000000006000830152602082019050919050565b60006140ca602c83614b56565b91507f4552433732313a206f70657261746f7220717565727920666f72206e6f6e657860008301527f697374656e7420746f6b656e00000000000000000000000000000000000000006020830152604082019050919050565b6000614130604583614b56565b91507f4170706c69636174696f6e20696e76616c69642c20616c6c6f7765642061726560008301527f20276261636b272c20276672616d65272c202764696769742720616e6420277360208301527f6c7567272e0000000000000000000000000000000000000000000000000000006040830152606082019050919050565b60006141bc603883614b56565b91507f4552433732313a20617070726f76652063616c6c6572206973206e6f74206f7760008301527f6e6572206e6f7220617070726f76656420666f7220616c6c00000000000000006020830152604082019050919050565b6000614222602a83614b56565b91507f4552433732313a2062616c616e636520717565727920666f7220746865207a6560008301527f726f2061646472657373000000000000000000000000000000000000000000006020830152604082019050919050565b6000614288602983614b56565b91507f4552433732313a206f776e657220717565727920666f72206e6f6e657869737460008301527f656e7420746f6b656e00000000000000000000000000000000000000000000006020830152604082019050919050565b60006142ee602083614b56565b91507f4552433732313a206d696e7420746f20746865207a65726f20616464726573736000830152602082019050919050565b600061432e602c83614b56565b91507f4552433732313a20617070726f76656420717565727920666f72206e6f6e657860008301527f697374656e7420746f6b656e00000000000000000000000000000000000000006020830152604082019050919050565b6000614394602083614b56565b91507f4f776e61626c653a2063616c6c6572206973206e6f7420746865206f776e65726000830152602082019050919050565b60006143d4602d83614b56565b91507f436f6c6f7220696e76616c69642c207573652068657820666f726d6174206c6960008301527f6b65202723323234343636272e000000000000000000000000000000000000006020830152604082019050919050565b600061443a602983614b56565b91507f4552433732313a207472616e73666572206f6620746f6b656e2074686174206960008301527f73206e6f74206f776e00000000000000000000000000000000000000000000006020830152604082019050919050565b60006144a0602f83614b56565b91507f4552433732314d657461646174613a2055524920717565727920666f72206e6f60008301527f6e6578697374656e7420746f6b656e00000000000000000000000000000000006020830152604082019050919050565b6000614506602183614b56565b91507f4552433732313a20617070726f76616c20746f2063757272656e74206f776e6560008301527f72000000000000000000000000000000000000000000000000000000000000006020830152604082019050919050565b600061456c603183614b56565b91507f4552433732313a207472616e736665722063616c6c6572206973206e6f74206f60008301527f776e6572206e6f7220617070726f7665640000000000000000000000000000006020830152604082019050919050565b60006145d2602c83614b56565b91507f455243373231456e756d657261626c653a20676c6f62616c20696e646578206f60008301527f7574206f6620626f756e647300000000000000000000000000000000000000006020830152604082019050919050565b6000614638601f83614b56565b91507f5265656e7472616e637947756172643a207265656e7472616e742063616c6c006000830152602082019050919050565b61467481614d28565b82525050565b6000614687828486613d1e565b91508190509392505050565b600061469f8284613d7c565b915081905092915050565b60006146b68285613e34565b91506146c28284613e34565b91508190509392505050565b60006020820190506146e36000830184613d00565b92915050565b60006080820190506146fe6000830187613d00565b61470b6020830186613d00565b614718604083018561466b565b818103606083015261472a8184613d43565b905095945050505050565b600060208201905061474a6000830184613d0f565b92915050565b6000602082019050818103600083015261476a8184613dfb565b905092915050565b6000608082019050818103600083015261478c8187613dfb565b905081810360208301526147a08186613dfb565b905081810360408301526147b48185613dfb565b905081810360608301526147c88184613dfb565b905095945050505050565b600060208201905081810360008301526147ec81613e65565b9050919050565b6000602082019050818103600083015261480c81613ecb565b9050919050565b6000602082019050818103600083015261482c81613f31565b9050919050565b6000602082019050818103600083015261484c81613f97565b9050919050565b6000602082019050818103600083015261486c81613fd7565b9050919050565b6000602082019050818103600083015261488c81614017565b9050919050565b600060208201905081810360008301526148ac8161407d565b9050919050565b600060208201905081810360008301526148cc816140bd565b9050919050565b600060208201905081810360008301526148ec81614123565b9050919050565b6000602082019050818103600083015261490c816141af565b9050919050565b6000602082019050818103600083015261492c81614215565b9050919050565b6000602082019050818103600083015261494c8161427b565b9050919050565b6000602082019050818103600083015261496c816142e1565b9050919050565b6000602082019050818103600083015261498c81614321565b9050919050565b600060208201905081810360008301526149ac81614387565b9050919050565b600060208201905081810360008301526149cc816143c7565b9050919050565b600060208201905081810360008301526149ec8161442d565b9050919050565b60006020820190508181036000830152614a0c81614493565b9050919050565b60006020820190508181036000830152614a2c816144f9565b9050919050565b60006020820190508181036000830152614a4c8161455f565b9050919050565b60006020820190508181036000830152614a6c816145c5565b9050919050565b60006020820190508181036000830152614a8c8161462b565b9050919050565b6000602082019050614aa8600083018461466b565b92915050565b6000604051905081810181811067ffffffffffffffff82111715614ad557614ad4614f02565b5b8060405250919050565b600067ffffffffffffffff821115614afa57614af9614f02565b5b601f19601f8301169050602081019050919050565b60008190508160005260206000209050919050565b600081519050919050565b600081519050919050565b600082825260208201905092915050565b600081905092915050565b600082825260208201905092915050565b600081905092915050565b6000614b7d82614d28565b9150614b8883614d28565b9250827fffffffffffffffffffffffffffffffffffffffffffffffffffffffffffffffff03821115614bbd57614bbc614e75565b5b828201905092915050565b6000614bd382614d28565b9150614bde83614d28565b925082614bee57614bed614ea4565b5b828204905092915050565b6000614c0482614ced565b9150614c0f83614ced565b9250827fffffffffffffffffffffffffffffffffffffffffffffffffffffffffffff800001821260008412151615614c4a57614c49614e75565b5b82617fff018213600084121615614c6457614c63614e75565b5b828203905092915050565b6000614c7a82614d28565b9150614c8583614d28565b925082821015614c9857614c97614e75565b5b828203905092915050565b6000614cae82614d08565b9050919050565b60008115159050919050565b60007fffffffff0000000000000000000000000000000000000000000000000000000082169050919050565b60008160010b9050919050565b600061ffff82169050919050565b600073ffffffffffffffffffffffffffffffffffffffff82169050919050565b6000819050919050565b82818337600083830152505050565b60005b83811015614d5f578082015181840152602081019050614d44565b83811115614d6e576000848401525b50505050565b6000614d7f82614d28565b91506000821415614d9357614d92614e75565b5b600182039050919050565b60006002820490506001821680614db657607f821691505b60208210811415614dca57614dc9614ed3565b5b50919050565b6000614ddb82614cfa565b915061ffff821415614df057614def614e75565b5b600182019050919050565b6000614e0682614d28565b91507fffffffffffffffffffffffffffffffffffffffffffffffffffffffffffffffff821415614e3957614e38614e75565b5b600182019050919050565b6000614e4f82614d28565b9150614e5a83614d28565b925082614e6a57614e69614ea4565b5b828206905092915050565b7f4e487b7100000000000000000000000000000000000000000000000000000000600052601160045260246000fd5b7f4e487b7100000000000000000000000000000000000000000000000000000000600052601260045260246000fd5b7f4e487b7100000000000000000000000000000000000000000000000000000000600052602260045260246000fd5b7f4e487b7100000000000000000000000000000000000000000000000000000000600052604160045260246000fd5b6000601f19601f8301169050919050565b614f4b81614ca3565b8114614f5657600080fd5b50565b614f6281614cb5565b8114614f6d57600080fd5b50565b614f7981614cc1565b8114614f8457600080fd5b50565b614f9081614d28565b8114614f9b57600080fd5b5056fea2646970667358221220d26c8daf67d1c2a998b871eba8dce271944294e9b43ff86abadd69d21cf9ebcb64736f6c63430008000033",
  "immutableReferences": {},
  "source": "// SPDX-License-Identifier: MIT\r\n\r\npragma solidity ^0.8.0;\r\n\r\nimport \"@openzeppelin/contracts/token/ERC721/ERC721.sol\";\r\nimport \"@openzeppelin/contracts/token/ERC721/extensions/ERC721Enumerable.sol\";\r\nimport \"@openzeppelin/contracts/security/ReentrancyGuard.sol\";\r\nimport \"@openzeppelin/contracts/access/Ownable.sol\";\r\n\r\n/**\r\n * @title Defines colors for OG NFTs. When claiming, a color and an application (which part of the OG NFT to colorize) has to be defined.\r\n * There are four different applications (back, frame, digit, slug), but only a few colors to mint.\r\n * @author nfttank.eth\r\n */\r\ncontract OGColor is ERC721Enumerable, ReentrancyGuard, Ownable {\r\n    \r\n    mapping(uint256 => string) private _colors;\r\n    mapping(uint256 => string) private _applications;\r\n    \r\n    mapping(address => string[]) private _backColorsForAddress;\r\n    mapping(address => string[]) private _frameColorsForAddress;\r\n    mapping(address => string[]) private _digitColorsForAddress;\r\n    mapping(address => string[]) private _slugColorsForAddress;\r\n    \r\n    constructor() ERC721(\"OGColor\", \"OGCOLOR\") Ownable() {\r\n    }\r\n\r\n    function claim(string calldata application, string calldata hexColor) public nonReentrant {\r\n\r\n        // take the next free token index, no need to define it externally\r\n        uint256 tokenId = totalSupply();\r\n\r\n        require(tokenId < 255, \"No free tokens available.\");\r\n        require(isValidApplication(application), \"Application invalid, allowed are 'back', 'frame', 'digit' and 'slug'.\");\r\n        require(isValidHexColor(hexColor), \"Color invalid, use hex format like '#224466'.\");\r\n\r\n        _colors[tokenId] = hexColor;\r\n        _applications[tokenId] = application;\r\n        \r\n        _safeMint(_msgSender(), tokenId);\r\n    }\r\n\r\n    function isValidApplication(string calldata hexColor) private pure returns (bool) {\r\n        bytes32 k = keccak256(bytes(hexColor));\r\n        return k == keccak256(\"back\") \r\n            || k == keccak256(\"frame\")\r\n            || k == keccak256(\"digit\") \r\n            || k == keccak256(\"slug\");\r\n    }\r\n    \r\n    function isValidHexColor(string calldata hexColor) public pure returns (bool) {\r\n        \r\n        bytes memory hexColorBytes = bytes(hexColor);\r\n        \r\n        if (hexColorBytes.length != 7) // #ffffff\r\n            return false;\r\n        \r\n        for (uint16 i = 0; i < hexColorBytes.length; i++) {\r\n            \r\n            int16 char = int16(uint16(uint8(hexColorBytes[i])));\r\n            \r\n            if (i == 0) {\r\n                if (char != 35) // #\r\n                    return false;\r\n            }\r\n            else {\r\n                int16 num1 = char - 48; // charIndex - 48 is the numeric value\r\n                int16 num2 = char - 65; // charIndex - 65 uppercase letters\r\n                int16 num3 = char - 97; // charIndex - 97 lowercase letters\r\n                bool isHex = (num1 >= 0 && num1 <= 9) || (num2 >= 0 && num2 <= 5) || (num3 >= 0 && num3 <= 5); // 0-9 or A-H or a-h\r\n                if (!isHex)\r\n                     return false;\r\n            }\r\n        }\r\n        \r\n        return true;\r\n    }\r\n    \r\n    function _beforeTokenTransfer(address from, address to, uint256 tokenId) internal override {\r\n        \r\n        super._beforeTokenTransfer(from, to, tokenId);\r\n\r\n        if (from == to) // pseudo use of from-variable to prevent warnings while keeping the overridden method signature\r\n            return;\r\n\r\n        string memory color = _colors[tokenId];\r\n        bytes32 application = keccak256(bytes(_applications[tokenId]));\r\n        \r\n        if (application == keccak256(\"back\")) {\r\n            _backColorsForAddress[from] = getColorsExcept(_backColorsForAddress[from], color);\r\n            _backColorsForAddress[to].push(color);\r\n        }\r\n        else if (application == keccak256(\"frame\")) {\r\n            _frameColorsForAddress[from] = getColorsExcept(_frameColorsForAddress[from], color);\r\n            _frameColorsForAddress[to].push(color);\r\n        }\r\n        else if (application == keccak256(\"digit\")) {\r\n            _digitColorsForAddress[from] = getColorsExcept(_digitColorsForAddress[from], color);\r\n            _digitColorsForAddress[to].push(color);\r\n        }\r\n        else if (application == keccak256(\"slug\")) {\r\n            _slugColorsForAddress[from] = getColorsExcept(_slugColorsForAddress[from], color);\r\n            _slugColorsForAddress[to].push(color);\r\n        }\r\n    }\r\n\r\n    function getColorsExcept(string[] memory colors, string memory exceptColor) private pure returns (string[] memory) {\r\n\r\n        string[] memory result = new string[](colors.length);\r\n        bool found = false;\r\n\r\n        for (uint256 i = result.length - 1; i <= 0; i--) {\r\n            if (!found && stringEquals(colors[i], exceptColor)) {\r\n                result[i] = \"\";\r\n                found = true;\r\n            }\r\n            else {\r\n                result[i] = colors[i];\r\n            }\r\n        }\r\n\r\n        return result;\r\n    }\r\n\r\n    function stringEquals(string memory a, string memory b) internal pure returns(bool) {\r\n        return bytesEquals(bytes(a), bytes(b));\r\n    }\r\n    \r\n    function bytesEquals(bytes memory a, bytes memory b) internal pure returns(bool) {\r\n        return (a.length == b.length) && (keccak256(a) == keccak256(b));\r\n    }\r\n\r\n    function getColors(address forAddress, uint256 tokenId) external view returns (string memory backColor, string memory frameColor, string memory digitColor, string memory slugColor) {\r\n\r\n        string[] memory colors = tokenId < 99999 ? _backColorsForAddress[forAddress] : new string[](0); // pseudo use of tokenId to prevent warnings. We still want the tokenId in the method arguments to be able to modify colors by the tokenId in the future.\r\n        string memory back = getColorFromArray(colors, \"#FFFFFF\");\r\n        \r\n        colors = _frameColorsForAddress[forAddress];\r\n        string memory frame = getColorFromArray(colors, \"#000000\");\r\n        \r\n        colors = _digitColorsForAddress[forAddress];\r\n        string memory digit = getColorFromArray(colors, \"#000000\");\r\n        \r\n        colors = _slugColorsForAddress[forAddress];\r\n        string memory slug = getColorFromArray(colors, \"#FFFFFF\");\r\n        \r\n        return (back, frame, digit, slug);\r\n    }\r\n\r\n    function getColorFromArray(string[] memory colors, string memory fallbackValue) internal pure returns (string memory) {\r\n\r\n        for (uint256 i = colors.length - 1; i <= 0; i--) {\r\n            if (bytes(colors[i]).length > 0)\r\n                return colors[i];\r\n        }\r\n\r\n        return fallbackValue;\r\n    }\r\n}",
  "sourcePath": "D:\\Develop\\GitHub\\OG+\\src\\contracts\\OGColor.sol",
  "compiler": {
    "name": "solc",
    "version": "0.8.0+commit.c7dfd78e.Emscripten.clang"
  },
  "schemaVersion": "3.4.3",
  "updatedAt": "2021-11-30T23:32:47.002Z",
  "networkType": "ethereum",
  "devdoc": {
    "author": "nfttank.eth",
    "kind": "dev",
    "methods": {
      "approve(address,uint256)": {
        "details": "See {IERC721-approve}."
      },
      "balanceOf(address)": {
        "details": "See {IERC721-balanceOf}."
      },
      "getApproved(uint256)": {
        "details": "See {IERC721-getApproved}."
      },
      "isApprovedForAll(address,address)": {
        "details": "See {IERC721-isApprovedForAll}."
      },
      "name()": {
        "details": "See {IERC721Metadata-name}."
      },
      "owner()": {
        "details": "Returns the address of the current owner."
      },
      "ownerOf(uint256)": {
        "details": "See {IERC721-ownerOf}."
      },
      "renounceOwnership()": {
        "details": "Leaves the contract without owner. It will not be possible to call `onlyOwner` functions anymore. Can only be called by the current owner. NOTE: Renouncing ownership will leave the contract without an owner, thereby removing any functionality that is only available to the owner."
      },
      "safeTransferFrom(address,address,uint256)": {
        "details": "See {IERC721-safeTransferFrom}."
      },
      "safeTransferFrom(address,address,uint256,bytes)": {
        "details": "See {IERC721-safeTransferFrom}."
      },
      "setApprovalForAll(address,bool)": {
        "details": "See {IERC721-setApprovalForAll}."
      },
      "supportsInterface(bytes4)": {
        "details": "See {IERC165-supportsInterface}."
      },
      "symbol()": {
        "details": "See {IERC721Metadata-symbol}."
      },
      "tokenByIndex(uint256)": {
        "details": "See {IERC721Enumerable-tokenByIndex}."
      },
      "tokenOfOwnerByIndex(address,uint256)": {
        "details": "See {IERC721Enumerable-tokenOfOwnerByIndex}."
      },
      "tokenURI(uint256)": {
        "details": "See {IERC721Metadata-tokenURI}."
      },
      "totalSupply()": {
        "details": "See {IERC721Enumerable-totalSupply}."
      },
      "transferFrom(address,address,uint256)": {
        "details": "See {IERC721-transferFrom}."
      },
      "transferOwnership(address)": {
        "details": "Transfers ownership of the contract to a new account (`newOwner`). Can only be called by the current owner."
      }
    },
    "title": "Defines colors for OG NFTs. When claiming, a color and an application (which part of the OG NFT to colorize) has to be defined. There are four different applications (back, frame, digit, slug), but only a few colors to mint.",
    "version": 1
  },
  "userdoc": {
    "kind": "user",
    "methods": {},
    "version": 1
  }
}