{
  "contractName": "OGColor",
  "abi": [
    {
      "inputs": [],
      "stateMutability": "nonpayable",
      "type": "constructor"
    },
    {
      "anonymous": false,
      "inputs": [
        {
          "indexed": true,
          "internalType": "address",
          "name": "owner",
          "type": "address"
        },
        {
          "indexed": true,
          "internalType": "address",
          "name": "approved",
          "type": "address"
        },
        {
          "indexed": true,
          "internalType": "uint256",
          "name": "tokenId",
          "type": "uint256"
        }
      ],
      "name": "Approval",
      "type": "event"
    },
    {
      "anonymous": false,
      "inputs": [
        {
          "indexed": true,
          "internalType": "address",
          "name": "owner",
          "type": "address"
        },
        {
          "indexed": true,
          "internalType": "address",
          "name": "operator",
          "type": "address"
        },
        {
          "indexed": false,
          "internalType": "bool",
          "name": "approved",
          "type": "bool"
        }
      ],
      "name": "ApprovalForAll",
      "type": "event"
    },
    {
      "anonymous": false,
      "inputs": [
        {
          "indexed": true,
          "internalType": "address",
          "name": "previousOwner",
          "type": "address"
        },
        {
          "indexed": true,
          "internalType": "address",
          "name": "newOwner",
          "type": "address"
        }
      ],
      "name": "OwnershipTransferred",
      "type": "event"
    },
    {
      "anonymous": false,
      "inputs": [
        {
          "indexed": true,
          "internalType": "address",
          "name": "from",
          "type": "address"
        },
        {
          "indexed": true,
          "internalType": "address",
          "name": "to",
          "type": "address"
        },
        {
          "indexed": true,
          "internalType": "uint256",
          "name": "tokenId",
          "type": "uint256"
        }
      ],
      "name": "Transfer",
      "type": "event"
    },
    {
      "inputs": [
        {
          "internalType": "address",
          "name": "to",
          "type": "address"
        },
        {
          "internalType": "uint256",
          "name": "tokenId",
          "type": "uint256"
        }
      ],
      "name": "approve",
      "outputs": [],
      "stateMutability": "nonpayable",
      "type": "function"
    },
    {
      "inputs": [
        {
          "internalType": "address",
          "name": "owner",
          "type": "address"
        }
      ],
      "name": "balanceOf",
      "outputs": [
        {
          "internalType": "uint256",
          "name": "",
          "type": "uint256"
        }
      ],
      "stateMutability": "view",
      "type": "function"
    },
    {
      "inputs": [
        {
          "internalType": "uint256",
          "name": "tokenId",
          "type": "uint256"
        }
      ],
      "name": "getApproved",
      "outputs": [
        {
          "internalType": "address",
          "name": "",
          "type": "address"
        }
      ],
      "stateMutability": "view",
      "type": "function"
    },
    {
      "inputs": [
        {
          "internalType": "address",
          "name": "owner",
          "type": "address"
        },
        {
          "internalType": "address",
          "name": "operator",
          "type": "address"
        }
      ],
      "name": "isApprovedForAll",
      "outputs": [
        {
          "internalType": "bool",
          "name": "",
          "type": "bool"
        }
      ],
      "stateMutability": "view",
      "type": "function"
    },
    {
      "inputs": [],
      "name": "name",
      "outputs": [
        {
          "internalType": "string",
          "name": "",
          "type": "string"
        }
      ],
      "stateMutability": "view",
      "type": "function"
    },
    {
      "inputs": [],
      "name": "owner",
      "outputs": [
        {
          "internalType": "address",
          "name": "",
          "type": "address"
        }
      ],
      "stateMutability": "view",
      "type": "function"
    },
    {
      "inputs": [
        {
          "internalType": "uint256",
          "name": "tokenId",
          "type": "uint256"
        }
      ],
      "name": "ownerOf",
      "outputs": [
        {
          "internalType": "address",
          "name": "",
          "type": "address"
        }
      ],
      "stateMutability": "view",
      "type": "function"
    },
    {
      "inputs": [],
      "name": "renounceOwnership",
      "outputs": [],
      "stateMutability": "nonpayable",
      "type": "function"
    },
    {
      "inputs": [
        {
          "internalType": "address",
          "name": "from",
          "type": "address"
        },
        {
          "internalType": "address",
          "name": "to",
          "type": "address"
        },
        {
          "internalType": "uint256",
          "name": "tokenId",
          "type": "uint256"
        }
      ],
      "name": "safeTransferFrom",
      "outputs": [],
      "stateMutability": "nonpayable",
      "type": "function"
    },
    {
      "inputs": [
        {
          "internalType": "address",
          "name": "from",
          "type": "address"
        },
        {
          "internalType": "address",
          "name": "to",
          "type": "address"
        },
        {
          "internalType": "uint256",
          "name": "tokenId",
          "type": "uint256"
        },
        {
          "internalType": "bytes",
          "name": "_data",
          "type": "bytes"
        }
      ],
      "name": "safeTransferFrom",
      "outputs": [],
      "stateMutability": "nonpayable",
      "type": "function"
    },
    {
      "inputs": [
        {
          "internalType": "address",
          "name": "operator",
          "type": "address"
        },
        {
          "internalType": "bool",
          "name": "approved",
          "type": "bool"
        }
      ],
      "name": "setApprovalForAll",
      "outputs": [],
      "stateMutability": "nonpayable",
      "type": "function"
    },
    {
      "inputs": [
        {
          "internalType": "bytes4",
          "name": "interfaceId",
          "type": "bytes4"
        }
      ],
      "name": "supportsInterface",
      "outputs": [
        {
          "internalType": "bool",
          "name": "",
          "type": "bool"
        }
      ],
      "stateMutability": "view",
      "type": "function"
    },
    {
      "inputs": [],
      "name": "symbol",
      "outputs": [
        {
          "internalType": "string",
          "name": "",
          "type": "string"
        }
      ],
      "stateMutability": "view",
      "type": "function"
    },
    {
      "inputs": [
        {
          "internalType": "uint256",
          "name": "index",
          "type": "uint256"
        }
      ],
      "name": "tokenByIndex",
      "outputs": [
        {
          "internalType": "uint256",
          "name": "",
          "type": "uint256"
        }
      ],
      "stateMutability": "view",
      "type": "function"
    },
    {
      "inputs": [
        {
          "internalType": "address",
          "name": "owner",
          "type": "address"
        },
        {
          "internalType": "uint256",
          "name": "index",
          "type": "uint256"
        }
      ],
      "name": "tokenOfOwnerByIndex",
      "outputs": [
        {
          "internalType": "uint256",
          "name": "",
          "type": "uint256"
        }
      ],
      "stateMutability": "view",
      "type": "function"
    },
    {
      "inputs": [
        {
          "internalType": "uint256",
          "name": "tokenId",
          "type": "uint256"
        }
      ],
      "name": "tokenURI",
      "outputs": [
        {
          "internalType": "string",
          "name": "",
          "type": "string"
        }
      ],
      "stateMutability": "view",
      "type": "function"
    },
    {
      "inputs": [],
      "name": "totalSupply",
      "outputs": [
        {
          "internalType": "uint256",
          "name": "",
          "type": "uint256"
        }
      ],
      "stateMutability": "view",
      "type": "function"
    },
    {
      "inputs": [
        {
          "internalType": "address",
          "name": "from",
          "type": "address"
        },
        {
          "internalType": "address",
          "name": "to",
          "type": "address"
        },
        {
          "internalType": "uint256",
          "name": "tokenId",
          "type": "uint256"
        }
      ],
      "name": "transferFrom",
      "outputs": [],
      "stateMutability": "nonpayable",
      "type": "function"
    },
    {
      "inputs": [
        {
          "internalType": "address",
          "name": "newOwner",
          "type": "address"
        }
      ],
      "name": "transferOwnership",
      "outputs": [],
      "stateMutability": "nonpayable",
      "type": "function"
    },
    {
      "inputs": [
        {
          "internalType": "string",
          "name": "application",
          "type": "string"
        },
        {
          "internalType": "string",
          "name": "hexColor",
          "type": "string"
        }
      ],
      "name": "mint",
      "outputs": [],
      "stateMutability": "nonpayable",
      "type": "function"
    },
    {
      "inputs": [
        {
          "internalType": "string",
          "name": "hexColor",
          "type": "string"
        }
      ],
      "name": "isValidHexColor",
      "outputs": [
        {
          "internalType": "bool",
          "name": "",
          "type": "bool"
        }
      ],
      "stateMutability": "pure",
      "type": "function"
    },
    {
      "inputs": [
        {
          "internalType": "address",
          "name": "forAddress",
          "type": "address"
        },
        {
          "internalType": "uint256",
          "name": "tokenId",
          "type": "uint256"
        }
      ],
      "name": "getColors",
      "outputs": [
        {
          "internalType": "string",
          "name": "backColor",
          "type": "string"
        },
        {
          "internalType": "string",
          "name": "frameColor",
          "type": "string"
        },
        {
          "internalType": "string",
          "name": "digitColor",
          "type": "string"
        },
        {
          "internalType": "string",
          "name": "slugColor",
          "type": "string"
        }
      ],
      "stateMutability": "view",
      "type": "function"
    }
  ],
  "bytecode": "0x60806040523480156200001157600080fd5b506040518060400160405280600781526020017f4f47436f6c6f72000000000000000000000000000000000000000000000000008152506040518060400160405280600781526020017f4f47434f4c4f5200000000000000000000000000000000000000000000000000815250816000908051906020019062000096929190620001ae565b508060019080519060200190620000af929190620001ae565b5050506001600a81905550620000da620000ce620000e060201b60201c565b620000e860201b60201c565b620002c3565b600033905090565b6000600b60009054906101000a900473ffffffffffffffffffffffffffffffffffffffff16905081600b60006101000a81548173ffffffffffffffffffffffffffffffffffffffff021916908373ffffffffffffffffffffffffffffffffffffffff1602179055508173ffffffffffffffffffffffffffffffffffffffff168173ffffffffffffffffffffffffffffffffffffffff167f8be0079c531659141344cd1fd0a4f28419497f9722a3daafe3b4186f6b6457e060405160405180910390a35050565b828054620001bc906200025e565b90600052602060002090601f016020900481019282620001e057600085556200022c565b82601f10620001fb57805160ff19168380011785556200022c565b828001600101855582156200022c579182015b828111156200022b5782518255916020019190600101906200020e565b5b5090506200023b91906200023f565b5090565b5b808211156200025a57600081600090555060010162000240565b5090565b600060028204905060018216806200027757607f821691505b602082108114156200028e576200028d62000294565b5b50919050565b7f4e487b7100000000000000000000000000000000000000000000000000000000600052602260045260246000fd5b614b2680620002d36000396000f3fe608060405234801561001057600080fd5b50600436106101425760003560e01c80636352211e116100b857806395d89b411161007c57806395d89b411461039e578063a22cb465146103bc578063b88d4fde146103d8578063c87b56dd146103f4578063e985e9c514610424578063f2fde38b1461045457610142565b80636352211e146102fa57806370a082311461032a578063715018a61461035a5780638aa0fdad146103645780638da5cb5b1461038057610142565b8063116e85bf1161010a578063116e85bf1461021157806318160ddd1461024457806323b872dd146102625780632f745c591461027e57806342842e0e146102ae5780634f6ccce7146102ca57610142565b806301ffc9a71461014757806306adaa6c1461017757806306fdde03146101a7578063081812fc146101c5578063095ea7b3146101f5575b600080fd5b610161600480360381019061015c919061371d565b610470565b60405161016e9190614287565b60405180910390f35b610191600480360381019061018c919061376f565b6104ea565b60405161019e9190614287565b60405180910390f35b6101af610699565b6040516101bc91906142a2565b60405180910390f35b6101df60048036038101906101da9190613829565b61072b565b6040516101ec9190614220565b60405180910390f35b61020f600480360381019061020a91906136e1565b6107b0565b005b61022b600480360381019061022691906136e1565b6108c8565b60405161023b94939291906142c4565b60405180910390f35b61024c610ebf565b60405161025991906145e5565b60405180910390f35b61027c600480360381019061027791906135db565b610ecc565b005b610298600480360381019061029391906136e1565b610f2c565b6040516102a591906145e5565b60405180910390f35b6102c860048036038101906102c391906135db565b610fd1565b005b6102e460048036038101906102df9190613829565b610ff1565b6040516102f191906145e5565b60405180910390f35b610314600480360381019061030f9190613829565b611088565b6040516103219190614220565b60405180910390f35b610344600480360381019061033f9190613576565b61113a565b60405161035191906145e5565b60405180910390f35b6103626111f2565b005b61037e600480360381019061037991906137b4565b61127a565b005b61038861140f565b6040516103959190614220565b60405180910390f35b6103a6611439565b6040516103b391906142a2565b60405180910390f35b6103d660048036038101906103d191906136a5565b6114cb565b005b6103f260048036038101906103ed919061362a565b6114e1565b005b61040e60048036038101906104099190613829565b611543565b60405161041b91906142a2565b60405180910390f35b61043e6004803603810190610439919061359f565b6115ea565b60405161044b9190614287565b60405180910390f35b61046e60048036038101906104699190613576565b61167e565b005b60007f780e9d63000000000000000000000000000000000000000000000000000000007bffffffffffffffffffffffffffffffffffffffffffffffffffffffff1916827bffffffffffffffffffffffffffffffffffffffffffffffffffffffff191614806104e357506104e282611776565b5b9050919050565b60008083838080601f016020809104026020016040519081016040528093929190818152602001838380828437600081840152601f19601f8201169050808301925050505050505090506007815114610547576000915050610693565b60005b81518161ffff16101561068c576000828261ffff1681518110610596577f4e487b7100000000000000000000000000000000000000000000000000000000600052603260045260246000fd5b602001015160f81c60f81b60f81c60ff16905060008261ffff1614156105d25760238160010b146105cd5760009350505050610693565b610678565b60006030826105e1919061474b565b905060006041836105f2919061474b565b90506000606184610603919061474b565b90506000808460010b1215801561061e575060098460010b13155b8061063d575060008360010b1215801561063c575060058360010b13155b5b8061065c575060008260010b1215801561065b575060058260010b13155b5b905080610673576000975050505050505050610693565b505050505b50808061068490614922565b91505061054a565b5060019150505b92915050565b6060600080546106a8906148f0565b80601f01602080910402602001604051908101604052809291908181526020018280546106d4906148f0565b80156107215780601f106106f657610100808354040283529160200191610721565b820191906000526020600020905b81548152906001019060200180831161070457829003601f168201915b5050505050905090565b600061073682611858565b610775576040517f08c379a000000000000000000000000000000000000000000000000000000000815260040161076c906144c5565b60405180910390fd5b6004600083815260200190815260200160002060009054906101000a900473ffffffffffffffffffffffffffffffffffffffff169050919050565b60006107bb82611088565b90508073ffffffffffffffffffffffffffffffffffffffff168373ffffffffffffffffffffffffffffffffffffffff16141561082c576040517f08c379a000000000000000000000000000000000000000000000000000000000815260040161082390614565565b60405180910390fd5b8073ffffffffffffffffffffffffffffffffffffffff1661084b6118c4565b73ffffffffffffffffffffffffffffffffffffffff16148061087a5750610879816108746118c4565b6115ea565b5b6108b9576040517f08c379a00000000000000000000000000000000000000000000000000000000081526004016108b090614445565b60405180910390fd5b6108c383836118cc565b505050565b60608060608060006201869f861061095457600067ffffffffffffffff81111561091b577f4e487b7100000000000000000000000000000000000000000000000000000000600052604160045260246000fd5b60405190808252806020026020018201604052801561094e57816020015b60608152602001906001900390816109395790505b50610a64565b600e60008873ffffffffffffffffffffffffffffffffffffffff1673ffffffffffffffffffffffffffffffffffffffff168152602001908152602001600020805480602002602001604051908101604052809291908181526020016000905b82821015610a5f5783829060005260206000200180546109d2906148f0565b80601f01602080910402602001604051908101604052809291908181526020018280546109fe906148f0565b8015610a4b5780601f10610a2057610100808354040283529160200191610a4b565b820191906000526020600020905b815481529060010190602001808311610a2e57829003601f168201915b5050505050815260200190600101906109b3565b505050505b90506000610aa7826040518060400160405280600781526020017f2346464646464600000000000000000000000000000000000000000000000000815250611985565b9050600f60008973ffffffffffffffffffffffffffffffffffffffff1673ffffffffffffffffffffffffffffffffffffffff168152602001908152602001600020805480602002602001604051908101604052809291908181526020016000905b82821015610bb4578382906000526020600020018054610b27906148f0565b80601f0160208091040260200160405190810160405280929190818152602001828054610b53906148f0565b8015610ba05780601f10610b7557610100808354040283529160200191610ba0565b820191906000526020600020905b815481529060010190602001808311610b8357829003601f168201915b505050505081526020019060010190610b08565b5050505091506000610bfb836040518060400160405280600781526020017f2330303030303000000000000000000000000000000000000000000000000000815250611985565b9050601060008a73ffffffffffffffffffffffffffffffffffffffff1673ffffffffffffffffffffffffffffffffffffffff168152602001908152602001600020805480602002602001604051908101604052809291908181526020016000905b82821015610d08578382906000526020600020018054610c7b906148f0565b80601f0160208091040260200160405190810160405280929190818152602001828054610ca7906148f0565b8015610cf45780601f10610cc957610100808354040283529160200191610cf4565b820191906000526020600020905b815481529060010190602001808311610cd757829003601f168201915b505050505081526020019060010190610c5c565b5050505092506000610d4f846040518060400160405280600781526020017f2330303030303000000000000000000000000000000000000000000000000000815250611985565b9050601160008b73ffffffffffffffffffffffffffffffffffffffff1673ffffffffffffffffffffffffffffffffffffffff168152602001908152602001600020805480602002602001604051908101604052809291908181526020016000905b82821015610e5c578382906000526020600020018054610dcf906148f0565b80601f0160208091040260200160405190810160405280929190818152602001828054610dfb906148f0565b8015610e485780601f10610e1d57610100808354040283529160200191610e48565b820191906000526020600020905b815481529060010190602001808311610e2b57829003601f168201915b505050505081526020019060010190610db0565b5050505093506000610ea3856040518060400160405280600781526020017f2346464646464600000000000000000000000000000000000000000000000000815250611985565b9050838383839850985098509850505050505092959194509250565b6000600880549050905090565b610edd610ed76118c4565b82611a60565b610f1c576040517f08c379a0000000000000000000000000000000000000000000000000000000008152600401610f1390614585565b60405180910390fd5b610f27838383611b3e565b505050565b6000610f378361113a565b8210610f78576040517f08c379a0000000000000000000000000000000000000000000000000000000008152600401610f6f90614325565b60405180910390fd5b600660008473ffffffffffffffffffffffffffffffffffffffff1673ffffffffffffffffffffffffffffffffffffffff168152602001908152602001600020600083815260200190815260200160002054905092915050565b610fec838383604051806020016040528060008152506114e1565b505050565b6000610ffb610ebf565b821061103c576040517f08c379a0000000000000000000000000000000000000000000000000000000008152600401611033906145a5565b60405180910390fd5b60088281548110611076577f4e487b7100000000000000000000000000000000000000000000000000000000600052603260045260246000fd5b90600052602060002001549050919050565b6000806002600084815260200190815260200160002060009054906101000a900473ffffffffffffffffffffffffffffffffffffffff169050600073ffffffffffffffffffffffffffffffffffffffff168173ffffffffffffffffffffffffffffffffffffffff161415611131576040517f08c379a000000000000000000000000000000000000000000000000000000000815260040161112890614485565b60405180910390fd5b80915050919050565b60008073ffffffffffffffffffffffffffffffffffffffff168273ffffffffffffffffffffffffffffffffffffffff1614156111ab576040517f08c379a00000000000000000000000000000000000000000000000000000000081526004016111a290614465565b60405180910390fd5b600360008373ffffffffffffffffffffffffffffffffffffffff1673ffffffffffffffffffffffffffffffffffffffff168152602001908152602001600020549050919050565b6111fa6118c4565b73ffffffffffffffffffffffffffffffffffffffff1661121861140f565b73ffffffffffffffffffffffffffffffffffffffff161461126e576040517f08c379a0000000000000000000000000000000000000000000000000000000008152600401611265906144e5565b60405180910390fd5b6112786000611d9a565b565b6002600a5414156112c0576040517f08c379a00000000000000000000000000000000000000000000000000000000081526004016112b7906145c5565b60405180910390fd5b6002600a8190555060006112d2610ebf565b905060ff8110611317576040517f08c379a000000000000000000000000000000000000000000000000000000000815260040161130e906143a5565b60405180910390fd5b6113218585611e60565b611360576040517f08c379a000000000000000000000000000000000000000000000000000000000815260040161135790614425565b60405180910390fd5b61136a83836104ea565b6113a9576040517f08c379a00000000000000000000000000000000000000000000000000000000081526004016113a090614505565b60405180910390fd5b8282600c600084815260200190815260200160002091906113cb9291906132f2565b508484600d600084815260200190815260200160002091906113ee9291906132f2565b506114006113fa6118c4565b82611f27565b506001600a8190555050505050565b6000600b60009054906101000a900473ffffffffffffffffffffffffffffffffffffffff16905090565b606060018054611448906148f0565b80601f0160208091040260200160405190810160405280929190818152602001828054611474906148f0565b80156114c15780601f10611496576101008083540402835291602001916114c1565b820191906000526020600020905b8154815290600101906020018083116114a457829003601f168201915b5050505050905090565b6114dd6114d66118c4565b8383611f45565b5050565b6114f26114ec6118c4565b83611a60565b611531576040517f08c379a000000000000000000000000000000000000000000000000000000000815260040161152890614585565b60405180910390fd5b61153d848484846120b2565b50505050565b606061154e82611858565b61158d576040517f08c379a000000000000000000000000000000000000000000000000000000000815260040161158490614545565b60405180910390fd5b600061159761210e565b905060008151116115b757604051806020016040528060008152506115e2565b806115c184612125565b6040516020016115d29291906141fc565b6040516020818303038152906040525b915050919050565b6000600560008473ffffffffffffffffffffffffffffffffffffffff1673ffffffffffffffffffffffffffffffffffffffff16815260200190815260200160002060008373ffffffffffffffffffffffffffffffffffffffff1673ffffffffffffffffffffffffffffffffffffffff16815260200190815260200160002060009054906101000a900460ff16905092915050565b6116866118c4565b73ffffffffffffffffffffffffffffffffffffffff166116a461140f565b73ffffffffffffffffffffffffffffffffffffffff16146116fa576040517f08c379a00000000000000000000000000000000000000000000000000000000081526004016116f1906144e5565b60405180910390fd5b600073ffffffffffffffffffffffffffffffffffffffff168173ffffffffffffffffffffffffffffffffffffffff16141561176a576040517f08c379a000000000000000000000000000000000000000000000000000000000815260040161176190614365565b60405180910390fd5b61177381611d9a565b50565b60007f80ac58cd000000000000000000000000000000000000000000000000000000007bffffffffffffffffffffffffffffffffffffffffffffffffffffffff1916827bffffffffffffffffffffffffffffffffffffffffffffffffffffffff1916148061184157507f5b5e139f000000000000000000000000000000000000000000000000000000007bffffffffffffffffffffffffffffffffffffffffffffffffffffffff1916827bffffffffffffffffffffffffffffffffffffffffffffffffffffffff1916145b806118515750611850826122d2565b5b9050919050565b60008073ffffffffffffffffffffffffffffffffffffffff166002600084815260200190815260200160002060009054906101000a900473ffffffffffffffffffffffffffffffffffffffff1673ffffffffffffffffffffffffffffffffffffffff1614159050919050565b600033905090565b816004600083815260200190815260200160002060006101000a81548173ffffffffffffffffffffffffffffffffffffffff021916908373ffffffffffffffffffffffffffffffffffffffff160217905550808273ffffffffffffffffffffffffffffffffffffffff1661193f83611088565b73ffffffffffffffffffffffffffffffffffffffff167f8c5be1e5ebec7d5bd14f71427d1e84f3dd0314c0f7b2291e5b200ac8c7c3b92560405160405180910390a45050565b60606000835190505b6000811115611a55576000846001836119a791906147c1565b815181106119de577f4e487b7100000000000000000000000000000000000000000000000000000000600052603260045260246000fd5b6020026020010151511115611a4257836001826119fb91906147c1565b81518110611a32577f4e487b7100000000000000000000000000000000000000000000000000000000600052603260045260246000fd5b6020026020010151915050611a5a565b8080611a4d906148c6565b91505061198e565b508190505b92915050565b6000611a6b82611858565b611aaa576040517f08c379a0000000000000000000000000000000000000000000000000000000008152600401611aa190614405565b60405180910390fd5b6000611ab583611088565b90508073ffffffffffffffffffffffffffffffffffffffff168473ffffffffffffffffffffffffffffffffffffffff161480611b2457508373ffffffffffffffffffffffffffffffffffffffff16611b0c8461072b565b73ffffffffffffffffffffffffffffffffffffffff16145b80611b355750611b3481856115ea565b5b91505092915050565b8273ffffffffffffffffffffffffffffffffffffffff16611b5e82611088565b73ffffffffffffffffffffffffffffffffffffffff1614611bb4576040517f08c379a0000000000000000000000000000000000000000000000000000000008152600401611bab90614525565b60405180910390fd5b600073ffffffffffffffffffffffffffffffffffffffff168273ffffffffffffffffffffffffffffffffffffffff161415611c24576040517f08c379a0000000000000000000000000000000000000000000000000000000008152600401611c1b906143c5565b60405180910390fd5b611c2f83838361233c565b611c3a6000826118cc565b6001600360008573ffffffffffffffffffffffffffffffffffffffff1673ffffffffffffffffffffffffffffffffffffffff1681526020019081526020016000206000828254611c8a91906147c1565b925050819055506001600360008473ffffffffffffffffffffffffffffffffffffffff1673ffffffffffffffffffffffffffffffffffffffff1681526020019081526020016000206000828254611ce191906146c4565b92505081905550816002600083815260200190815260200160002060006101000a81548173ffffffffffffffffffffffffffffffffffffffff021916908373ffffffffffffffffffffffffffffffffffffffff160217905550808273ffffffffffffffffffffffffffffffffffffffff168473ffffffffffffffffffffffffffffffffffffffff167fddf252ad1be2c89b69c2b068fc378daa952ba7f163c4a11628f55a4df523b3ef60405160405180910390a4505050565b6000600b60009054906101000a900473ffffffffffffffffffffffffffffffffffffffff16905081600b60006101000a81548173ffffffffffffffffffffffffffffffffffffffff021916908373ffffffffffffffffffffffffffffffffffffffff1602179055508173ffffffffffffffffffffffffffffffffffffffff168173ffffffffffffffffffffffffffffffffffffffff167f8be0079c531659141344cd1fd0a4f28419497f9722a3daafe3b4186f6b6457e060405160405180910390a35050565b6000808383604051611e739291906141cc565b604051809103902090507ff99975b1b7d766d47f24055dcf9d239a44d26bc887197da89a6e1cb7acbd0a9d811480611eca57507f2aa1b44d53ecaef3818686a0e39502ef57e254136370bf94dbea962d9c1d211581145b80611ef457507f54b0769b5f3f2b3325755b96837f908e4f387f2ffbfb36e43a599d683c584e0181145b80611f1e57507fad031b8dd7bd2be2fd611ae08d0f6eefaff2358a70428446315d94a57c654ddb81145b91505092915050565b611f418282604051806020016040528060008152506128df565b5050565b8173ffffffffffffffffffffffffffffffffffffffff168373ffffffffffffffffffffffffffffffffffffffff161415611fb4576040517f08c379a0000000000000000000000000000000000000000000000000000000008152600401611fab906143e5565b60405180910390fd5b80600560008573ffffffffffffffffffffffffffffffffffffffff1673ffffffffffffffffffffffffffffffffffffffff16815260200190815260200160002060008473ffffffffffffffffffffffffffffffffffffffff1673ffffffffffffffffffffffffffffffffffffffff16815260200190815260200160002060006101000a81548160ff0219169083151502179055508173ffffffffffffffffffffffffffffffffffffffff168373ffffffffffffffffffffffffffffffffffffffff167f17307eab39ab6107e8899845ad3d59bd9653f200f220920489ca2b5937696c31836040516120a59190614287565b60405180910390a3505050565b6120bd848484611b3e565b6120c98484848461293a565b612108576040517f08c379a00000000000000000000000000000000000000000000000000000000081526004016120ff90614345565b60405180910390fd5b50505050565b606060405180602001604052806000815250905090565b6060600082141561216d576040518060400160405280600181526020017f300000000000000000000000000000000000000000000000000000000000000081525090506122cd565b600082905060005b6000821461219f5780806121889061494d565b915050600a82612198919061471a565b9150612175565b60008167ffffffffffffffff8111156121e1577f4e487b7100000000000000000000000000000000000000000000000000000000600052604160045260246000fd5b6040519080825280601f01601f1916602001820160405280156122135781602001600182028036833780820191505090505b5090505b600085146122c65760018261222c91906147c1565b9150600a8561223b9190614996565b603061224791906146c4565b60f81b818381518110612283577f4e487b7100000000000000000000000000000000000000000000000000000000600052603260045260246000fd5b60200101907effffffffffffffffffffffffffffffffffffffffffffffffffffffffffffff1916908160001a905350600a856122bf919061471a565b9450612217565b8093505050505b919050565b60007f01ffc9a7000000000000000000000000000000000000000000000000000000007bffffffffffffffffffffffffffffffffffffffffffffffffffffffff1916827bffffffffffffffffffffffffffffffffffffffffffffffffffffffff1916149050919050565b612347838383612ad1565b8173ffffffffffffffffffffffffffffffffffffffff168373ffffffffffffffffffffffffffffffffffffffff161415612380576128da565b6000600c600083815260200190815260200160002080546123a0906148f0565b80601f01602080910402602001604051908101604052809291908181526020018280546123cc906148f0565b80156124195780601f106123ee57610100808354040283529160200191612419565b820191906000526020600020905b8154815290600101906020018083116123fc57829003601f168201915b505050505090506000600d600084815260200190815260200160002060405161244291906141e5565b604051809103902090507ff99975b1b7d766d47f24055dcf9d239a44d26bc887197da89a6e1cb7acbd0a9d81141561256f57600073ffffffffffffffffffffffffffffffffffffffff168573ffffffffffffffffffffffffffffffffffffffff16146124f1576124f0600e60008773ffffffffffffffffffffffffffffffffffffffff1673ffffffffffffffffffffffffffffffffffffffff16815260200190815260200160002083612be5565b5b600e60008573ffffffffffffffffffffffffffffffffffffffff1673ffffffffffffffffffffffffffffffffffffffff16815260200190815260200160002082908060018154018082558091505060019003906000526020600020016000909190919091509080519060200190612569929190613378565b506128d7565b7f2aa1b44d53ecaef3818686a0e39502ef57e254136370bf94dbea962d9c1d211581141561269257600073ffffffffffffffffffffffffffffffffffffffff168573ffffffffffffffffffffffffffffffffffffffff161461261457612613600f60008773ffffffffffffffffffffffffffffffffffffffff1673ffffffffffffffffffffffffffffffffffffffff16815260200190815260200160002083612be5565b5b600f60008573ffffffffffffffffffffffffffffffffffffffff1673ffffffffffffffffffffffffffffffffffffffff1681526020019081526020016000208290806001815401808255809150506001900390600052602060002001600090919091909150908051906020019061268c929190613378565b506128d6565b7f54b0769b5f3f2b3325755b96837f908e4f387f2ffbfb36e43a599d683c584e018114156127b557600073ffffffffffffffffffffffffffffffffffffffff168573ffffffffffffffffffffffffffffffffffffffff161461273757612736601060008773ffffffffffffffffffffffffffffffffffffffff1673ffffffffffffffffffffffffffffffffffffffff16815260200190815260200160002083612be5565b5b601060008573ffffffffffffffffffffffffffffffffffffffff1673ffffffffffffffffffffffffffffffffffffffff168152602001908152602001600020829080600181540180825580915050600190039060005260206000200160009091909190915090805190602001906127af929190613378565b506128d5565b7fad031b8dd7bd2be2fd611ae08d0f6eefaff2358a70428446315d94a57c654ddb8114156128d457600073ffffffffffffffffffffffffffffffffffffffff168573ffffffffffffffffffffffffffffffffffffffff161461285a57612859601160008773ffffffffffffffffffffffffffffffffffffffff1673ffffffffffffffffffffffffffffffffffffffff16815260200190815260200160002083612be5565b5b601160008573ffffffffffffffffffffffffffffffffffffffff1673ffffffffffffffffffffffffffffffffffffffff168152602001908152602001600020829080600181540180825580915050600190039060005260206000200160009091909190915090805190602001906128d2929190613378565b505b5b5b5b50505b505050565b6128e98383612d58565b6128f6600084848461293a565b612935576040517f08c379a000000000000000000000000000000000000000000000000000000000815260040161292c90614345565b60405180910390fd5b505050565b600061295b8473ffffffffffffffffffffffffffffffffffffffff16612f26565b15612ac4578373ffffffffffffffffffffffffffffffffffffffff1663150b7a026129846118c4565b8786866040518563ffffffff1660e01b81526004016129a6949392919061423b565b602060405180830381600087803b1580156129c057600080fd5b505af19250505080156129f157506040513d601f19601f820116820180604052508101906129ee9190613746565b60015b612a74573d8060008114612a21576040519150601f19603f3d011682016040523d82523d6000602084013e612a26565b606091505b50600081511415612a6c576040517f08c379a0000000000000000000000000000000000000000000000000000000008152600401612a6390614345565b60405180910390fd5b805181602001fd5b63150b7a0260e01b7bffffffffffffffffffffffffffffffffffffffffffffffffffffffff1916817bffffffffffffffffffffffffffffffffffffffffffffffffffffffff191614915050612ac9565b600190505b949350505050565b612adc838383612f39565b600073ffffffffffffffffffffffffffffffffffffffff168373ffffffffffffffffffffffffffffffffffffffff161415612b1f57612b1a81612f3e565b612b5e565b8173ffffffffffffffffffffffffffffffffffffffff168373ffffffffffffffffffffffffffffffffffffffff1614612b5d57612b5c8382612f87565b5b5b600073ffffffffffffffffffffffffffffffffffffffff168273ffffffffffffffffffffffffffffffffffffffff161415612ba157612b9c816130f4565b612be0565b8273ffffffffffffffffffffffffffffffffffffffff168273ffffffffffffffffffffffffffffffffffffffff1614612bdf57612bde8282613237565b5b5b505050565b6000828054905090505b6000811115612d5257612cd983600183612c0991906147c1565b81548110612c40577f4e487b7100000000000000000000000000000000000000000000000000000000600052603260045260246000fd5b906000526020600020018054612c55906148f0565b80601f0160208091040260200160405190810160405280929190818152602001828054612c81906148f0565b8015612cce5780601f10612ca357610100808354040283529160200191612cce565b820191906000526020600020905b815481529060010190602001808311612cb157829003601f168201915b5050505050836132b6565b15612d3f5782600182612cec91906147c1565b81548110612d23577f4e487b7100000000000000000000000000000000000000000000000000000000600052603260045260246000fd5b906000526020600020016000612d3991906133fe565b50612d54565b8080612d4a906148c6565b915050612bef565b505b5050565b600073ffffffffffffffffffffffffffffffffffffffff168273ffffffffffffffffffffffffffffffffffffffff161415612dc8576040517f08c379a0000000000000000000000000000000000000000000000000000000008152600401612dbf906144a5565b60405180910390fd5b612dd181611858565b15612e11576040517f08c379a0000000000000000000000000000000000000000000000000000000008152600401612e0890614385565b60405180910390fd5b612e1d6000838361233c565b6001600360008473ffffffffffffffffffffffffffffffffffffffff1673ffffffffffffffffffffffffffffffffffffffff1681526020019081526020016000206000828254612e6d91906146c4565b92505081905550816002600083815260200190815260200160002060006101000a81548173ffffffffffffffffffffffffffffffffffffffff021916908373ffffffffffffffffffffffffffffffffffffffff160217905550808273ffffffffffffffffffffffffffffffffffffffff16600073ffffffffffffffffffffffffffffffffffffffff167fddf252ad1be2c89b69c2b068fc378daa952ba7f163c4a11628f55a4df523b3ef60405160405180910390a45050565b600080823b905060008111915050919050565b505050565b6008805490506009600083815260200190815260200160002081905550600881908060018154018082558091505060019003906000526020600020016000909190919091505550565b60006001612f948461113a565b612f9e91906147c1565b9050600060076000848152602001908152602001600020549050818114613083576000600660008673ffffffffffffffffffffffffffffffffffffffff1673ffffffffffffffffffffffffffffffffffffffff168152602001908152602001600020600084815260200190815260200160002054905080600660008773ffffffffffffffffffffffffffffffffffffffff1673ffffffffffffffffffffffffffffffffffffffff168152602001908152602001600020600084815260200190815260200160002081905550816007600083815260200190815260200160002081905550505b6007600084815260200190815260200160002060009055600660008573ffffffffffffffffffffffffffffffffffffffff1673ffffffffffffffffffffffffffffffffffffffff16815260200190815260200160002060008381526020019081526020016000206000905550505050565b6000600160088054905061310891906147c1565b905060006009600084815260200190815260200160002054905060006008838154811061315e577f4e487b7100000000000000000000000000000000000000000000000000000000600052603260045260246000fd5b9060005260206000200154905080600883815481106131a6577f4e487b7100000000000000000000000000000000000000000000000000000000600052603260045260246000fd5b90600052602060002001819055508160096000838152602001908152602001600020819055506009600085815260200190815260200160002060009055600880548061321b577f4e487b7100000000000000000000000000000000000000000000000000000000600052603160045260246000fd5b6001900381819060005260206000200160009055905550505050565b60006132428361113a565b905081600660008573ffffffffffffffffffffffffffffffffffffffff1673ffffffffffffffffffffffffffffffffffffffff168152602001908152602001600020600083815260200190815260200160002081905550806007600084815260200190815260200160002081905550505050565b60006132c283836132ca565b905092915050565b6000815183511480156132ea575081805190602001208380519060200120145b905092915050565b8280546132fe906148f0565b90600052602060002090601f0160209004810192826133205760008555613367565b82601f1061333957803560ff1916838001178555613367565b82800160010185558215613367579182015b8281111561336657823582559160200191906001019061334b565b5b509050613374919061343e565b5090565b828054613384906148f0565b90600052602060002090601f0160209004810192826133a657600085556133ed565b82601f106133bf57805160ff19168380011785556133ed565b828001600101855582156133ed579182015b828111156133ec5782518255916020019190600101906133d1565b5b5090506133fa919061343e565b5090565b50805461340a906148f0565b6000825580601f1061341c575061343b565b601f01602090049060005260206000209081019061343a919061343e565b5b50565b5b8082111561345757600081600090555060010161343f565b5090565b600061346e61346984614631565b614600565b90508281526020810184848401111561348657600080fd5b613491848285614884565b509392505050565b6000813590506134a881614a94565b92915050565b6000813590506134bd81614aab565b92915050565b6000813590506134d281614ac2565b92915050565b6000815190506134e781614ac2565b92915050565b600082601f8301126134fe57600080fd5b813561350e84826020860161345b565b91505092915050565b60008083601f84011261352957600080fd5b8235905067ffffffffffffffff81111561354257600080fd5b60208301915083600182028301111561355a57600080fd5b9250929050565b60008135905061357081614ad9565b92915050565b60006020828403121561358857600080fd5b600061359684828501613499565b91505092915050565b600080604083850312156135b257600080fd5b60006135c085828601613499565b92505060206135d185828601613499565b9150509250929050565b6000806000606084860312156135f057600080fd5b60006135fe86828701613499565b935050602061360f86828701613499565b925050604061362086828701613561565b9150509250925092565b6000806000806080858703121561364057600080fd5b600061364e87828801613499565b945050602061365f87828801613499565b935050604061367087828801613561565b925050606085013567ffffffffffffffff81111561368d57600080fd5b613699878288016134ed565b91505092959194509250565b600080604083850312156136b857600080fd5b60006136c685828601613499565b92505060206136d7858286016134ae565b9150509250929050565b600080604083850312156136f457600080fd5b600061370285828601613499565b925050602061371385828601613561565b9150509250929050565b60006020828403121561372f57600080fd5b600061373d848285016134c3565b91505092915050565b60006020828403121561375857600080fd5b6000613766848285016134d8565b91505092915050565b6000806020838503121561378257600080fd5b600083013567ffffffffffffffff81111561379c57600080fd5b6137a885828601613517565b92509250509250929050565b600080600080604085870312156137ca57600080fd5b600085013567ffffffffffffffff8111156137e457600080fd5b6137f087828801613517565b9450945050602085013567ffffffffffffffff81111561380f57600080fd5b61381b87828801613517565b925092505092959194509250565b60006020828403121561383b57600080fd5b600061384984828501613561565b91505092915050565b61385b816147f5565b82525050565b61386a81614807565b82525050565b600061387c838561469d565b9350613889838584614884565b82840190509392505050565b60006138a082614676565b6138aa818561468c565b93506138ba818560208601614893565b6138c381614a83565b840191505092915050565b600081546138db816148f0565b6138e5818661469d565b94506001821660008114613900576001811461391157613944565b60ff19831686528186019350613944565b61391a85614661565b60005b8381101561393c5781548189015260018201915060208101905061391d565b838801955050505b50505092915050565b600061395882614681565b61396281856146a8565b9350613972818560208601614893565b61397b81614a83565b840191505092915050565b600061399182614681565b61399b81856146b9565b93506139ab818560208601614893565b80840191505092915050565b60006139c4602b836146a8565b91507f455243373231456e756d657261626c653a206f776e657220696e646578206f7560008301527f74206f6620626f756e64730000000000000000000000000000000000000000006020830152604082019050919050565b6000613a2a6032836146a8565b91507f4552433732313a207472616e7366657220746f206e6f6e20455243373231526560008301527f63656976657220696d706c656d656e74657200000000000000000000000000006020830152604082019050919050565b6000613a906026836146a8565b91507f4f776e61626c653a206e6577206f776e657220697320746865207a65726f206160008301527f64647265737300000000000000000000000000000000000000000000000000006020830152604082019050919050565b6000613af6601c836146a8565b91507f4552433732313a20746f6b656e20616c7265616479206d696e746564000000006000830152602082019050919050565b6000613b366019836146a8565b91507f4e6f206672656520746f6b656e7320617661696c61626c652e000000000000006000830152602082019050919050565b6000613b766024836146a8565b91507f4552433732313a207472616e7366657220746f20746865207a65726f2061646460008301527f72657373000000000000000000000000000000000000000000000000000000006020830152604082019050919050565b6000613bdc6019836146a8565b91507f4552433732313a20617070726f766520746f2063616c6c6572000000000000006000830152602082019050919050565b6000613c1c602c836146a8565b91507f4552433732313a206f70657261746f7220717565727920666f72206e6f6e657860008301527f697374656e7420746f6b656e00000000000000000000000000000000000000006020830152604082019050919050565b6000613c826045836146a8565b91507f4170706c69636174696f6e20696e76616c69642c20616c6c6f7765642061726560008301527f20276261636b272c20276672616d65272c202764696769742720616e6420277360208301527f6c7567272e0000000000000000000000000000000000000000000000000000006040830152606082019050919050565b6000613d0e6038836146a8565b91507f4552433732313a20617070726f76652063616c6c6572206973206e6f74206f7760008301527f6e6572206e6f7220617070726f76656420666f7220616c6c00000000000000006020830152604082019050919050565b6000613d74602a836146a8565b91507f4552433732313a2062616c616e636520717565727920666f7220746865207a6560008301527f726f2061646472657373000000000000000000000000000000000000000000006020830152604082019050919050565b6000613dda6029836146a8565b91507f4552433732313a206f776e657220717565727920666f72206e6f6e657869737460008301527f656e7420746f6b656e00000000000000000000000000000000000000000000006020830152604082019050919050565b6000613e406020836146a8565b91507f4552433732313a206d696e7420746f20746865207a65726f20616464726573736000830152602082019050919050565b6000613e80602c836146a8565b91507f4552433732313a20617070726f76656420717565727920666f72206e6f6e657860008301527f697374656e7420746f6b656e00000000000000000000000000000000000000006020830152604082019050919050565b6000613ee66020836146a8565b91507f4f776e61626c653a2063616c6c6572206973206e6f7420746865206f776e65726000830152602082019050919050565b6000613f26602d836146a8565b91507f436f6c6f7220696e76616c69642c207573652068657820666f726d6174206c6960008301527f6b65202723323234343636272e000000000000000000000000000000000000006020830152604082019050919050565b6000613f8c6029836146a8565b91507f4552433732313a207472616e73666572206f6620746f6b656e2074686174206960008301527f73206e6f74206f776e00000000000000000000000000000000000000000000006020830152604082019050919050565b6000613ff2602f836146a8565b91507f4552433732314d657461646174613a2055524920717565727920666f72206e6f60008301527f6e6578697374656e7420746f6b656e00000000000000000000000000000000006020830152604082019050919050565b60006140586021836146a8565b91507f4552433732313a20617070726f76616c20746f2063757272656e74206f776e6560008301527f72000000000000000000000000000000000000000000000000000000000000006020830152604082019050919050565b60006140be6031836146a8565b91507f4552433732313a207472616e736665722063616c6c6572206973206e6f74206f60008301527f776e6572206e6f7220617070726f7665640000000000000000000000000000006020830152604082019050919050565b6000614124602c836146a8565b91507f455243373231456e756d657261626c653a20676c6f62616c20696e646578206f60008301527f7574206f6620626f756e647300000000000000000000000000000000000000006020830152604082019050919050565b600061418a601f836146a8565b91507f5265656e7472616e637947756172643a207265656e7472616e742063616c6c006000830152602082019050919050565b6141c68161487a565b82525050565b60006141d9828486613870565b91508190509392505050565b60006141f182846138ce565b915081905092915050565b60006142088285613986565b91506142148284613986565b91508190509392505050565b60006020820190506142356000830184613852565b92915050565b60006080820190506142506000830187613852565b61425d6020830186613852565b61426a60408301856141bd565b818103606083015261427c8184613895565b905095945050505050565b600060208201905061429c6000830184613861565b92915050565b600060208201905081810360008301526142bc818461394d565b905092915050565b600060808201905081810360008301526142de818761394d565b905081810360208301526142f2818661394d565b90508181036040830152614306818561394d565b9050818103606083015261431a818461394d565b905095945050505050565b6000602082019050818103600083015261433e816139b7565b9050919050565b6000602082019050818103600083015261435e81613a1d565b9050919050565b6000602082019050818103600083015261437e81613a83565b9050919050565b6000602082019050818103600083015261439e81613ae9565b9050919050565b600060208201905081810360008301526143be81613b29565b9050919050565b600060208201905081810360008301526143de81613b69565b9050919050565b600060208201905081810360008301526143fe81613bcf565b9050919050565b6000602082019050818103600083015261441e81613c0f565b9050919050565b6000602082019050818103600083015261443e81613c75565b9050919050565b6000602082019050818103600083015261445e81613d01565b9050919050565b6000602082019050818103600083015261447e81613d67565b9050919050565b6000602082019050818103600083015261449e81613dcd565b9050919050565b600060208201905081810360008301526144be81613e33565b9050919050565b600060208201905081810360008301526144de81613e73565b9050919050565b600060208201905081810360008301526144fe81613ed9565b9050919050565b6000602082019050818103600083015261451e81613f19565b9050919050565b6000602082019050818103600083015261453e81613f7f565b9050919050565b6000602082019050818103600083015261455e81613fe5565b9050919050565b6000602082019050818103600083015261457e8161404b565b9050919050565b6000602082019050818103600083015261459e816140b1565b9050919050565b600060208201905081810360008301526145be81614117565b9050919050565b600060208201905081810360008301526145de8161417d565b9050919050565b60006020820190506145fa60008301846141bd565b92915050565b6000604051905081810181811067ffffffffffffffff8211171561462757614626614a54565b5b8060405250919050565b600067ffffffffffffffff82111561464c5761464b614a54565b5b601f19601f8301169050602081019050919050565b60008190508160005260206000209050919050565b600081519050919050565b600081519050919050565b600082825260208201905092915050565b600081905092915050565b600082825260208201905092915050565b600081905092915050565b60006146cf8261487a565b91506146da8361487a565b9250827fffffffffffffffffffffffffffffffffffffffffffffffffffffffffffffffff0382111561470f5761470e6149c7565b5b828201905092915050565b60006147258261487a565b91506147308361487a565b9250826147405761473f6149f6565b5b828204905092915050565b60006147568261483f565b91506147618361483f565b9250827fffffffffffffffffffffffffffffffffffffffffffffffffffffffffffff80000182126000841215161561479c5761479b6149c7565b5b82617fff0182136000841216156147b6576147b56149c7565b5b828203905092915050565b60006147cc8261487a565b91506147d78361487a565b9250828210156147ea576147e96149c7565b5b828203905092915050565b60006148008261485a565b9050919050565b60008115159050919050565b60007fffffffff0000000000000000000000000000000000000000000000000000000082169050919050565b60008160010b9050919050565b600061ffff82169050919050565b600073ffffffffffffffffffffffffffffffffffffffff82169050919050565b6000819050919050565b82818337600083830152505050565b60005b838110156148b1578082015181840152602081019050614896565b838111156148c0576000848401525b50505050565b60006148d18261487a565b915060008214156148e5576148e46149c7565b5b600182039050919050565b6000600282049050600182168061490857607f821691505b6020821081141561491c5761491b614a25565b5b50919050565b600061492d8261484c565b915061ffff821415614942576149416149c7565b5b600182019050919050565b60006149588261487a565b91507fffffffffffffffffffffffffffffffffffffffffffffffffffffffffffffffff82141561498b5761498a6149c7565b5b600182019050919050565b60006149a18261487a565b91506149ac8361487a565b9250826149bc576149bb6149f6565b5b828206905092915050565b7f4e487b7100000000000000000000000000000000000000000000000000000000600052601160045260246000fd5b7f4e487b7100000000000000000000000000000000000000000000000000000000600052601260045260246000fd5b7f4e487b7100000000000000000000000000000000000000000000000000000000600052602260045260246000fd5b7f4e487b7100000000000000000000000000000000000000000000000000000000600052604160045260246000fd5b6000601f19601f8301169050919050565b614a9d816147f5565b8114614aa857600080fd5b50565b614ab481614807565b8114614abf57600080fd5b50565b614acb81614813565b8114614ad657600080fd5b50565b614ae28161487a565b8114614aed57600080fd5b5056fea2646970667358221220392b54dcbf3f17cbc3a855a2af620cc6da9f943fd6fc34b86f6aa2f43398cb7764736f6c63430008000033",
  "immutableReferences": {},
  "source": "// SPDX-License-Identifier: MIT\r\n\r\npragma solidity 0.8.0;\r\n\r\nimport \"@openzeppelin/contracts/token/ERC721/ERC721.sol\";\r\nimport \"@openzeppelin/contracts/token/ERC721/extensions/ERC721Enumerable.sol\";\r\nimport \"@openzeppelin/contracts/security/ReentrancyGuard.sol\";\r\nimport \"@openzeppelin/contracts/access/Ownable.sol\";\r\n\r\n/**\r\n * @title Defines colors for OG NFTs. When minting, a color and an application (which part of the OG NFT to colorize) has to be defined.\r\n * There are four different applications (back, frame, digit, slug), but only a few colors to mint.\r\n * @author nfttank.eth\r\n */\r\ncontract OGColor is ERC721Enumerable, ReentrancyGuard, Ownable {\r\n    \r\n    mapping(uint256 => string) private _colors;\r\n    mapping(uint256 => string) private _applications;\r\n    \r\n    mapping(address => string[]) private _backColorsForAddress;\r\n    mapping(address => string[]) private _frameColorsForAddress;\r\n    mapping(address => string[]) private _digitColorsForAddress;\r\n    mapping(address => string[]) private _slugColorsForAddress;\r\n    \r\n    constructor() ERC721(\"OGColor\", \"OGCOLOR\") Ownable() {\r\n    }\r\n\r\n    function mint(string calldata application, string calldata hexColor) public nonReentrant {\r\n\r\n        // take the next free token index, no need to define it externally\r\n        uint256 tokenId = totalSupply();\r\n\r\n        require(tokenId < 255, \"No free tokens available.\");\r\n        require(isValidApplication(application), \"Application invalid, allowed are 'back', 'frame', 'digit' and 'slug'.\");\r\n        require(isValidHexColor(hexColor), \"Color invalid, use hex format like '#224466'.\");\r\n\r\n        _colors[tokenId] = hexColor;\r\n        _applications[tokenId] = application;\r\n        \r\n        _safeMint(_msgSender(), tokenId);\r\n    }\r\n\r\n    function isValidApplication(string calldata hexColor) private pure returns (bool) {\r\n        bytes32 k = keccak256(bytes(hexColor));\r\n        return k == keccak256(\"back\") \r\n            || k == keccak256(\"frame\")\r\n            || k == keccak256(\"digit\") \r\n            || k == keccak256(\"slug\");\r\n    }\r\n    \r\n    function isValidHexColor(string calldata hexColor) public pure returns (bool) {\r\n        \r\n        bytes memory hexColorBytes = bytes(hexColor);\r\n        \r\n        if (hexColorBytes.length != 7) // #ffffff\r\n            return false;\r\n        \r\n        for (uint16 i = 0; i < hexColorBytes.length; i++) {\r\n            \r\n            int16 char = int16(uint16(uint8(hexColorBytes[i])));\r\n            \r\n            if (i == 0) {\r\n                if (char != 35) // #\r\n                    return false;\r\n            }\r\n            else {\r\n                int16 num1 = char - 48; // charIndex - 48 is the numeric value\r\n                int16 num2 = char - 65; // charIndex - 65 uppercase letters\r\n                int16 num3 = char - 97; // charIndex - 97 lowercase letters\r\n                bool isHex = (num1 >= 0 && num1 <= 9) || (num2 >= 0 && num2 <= 5) || (num3 >= 0 && num3 <= 5); // 0-9 or A-H or a-h\r\n                if (!isHex)\r\n                     return false;\r\n            }\r\n        }\r\n        \r\n        return true;\r\n    }\r\n    \r\n    function _beforeTokenTransfer(address from, address to, uint256 tokenId) internal override {\r\n        \r\n        super._beforeTokenTransfer(from, to, tokenId);\r\n\r\n        if (from == to) // pseudo use of from-variable to prevent warnings while keeping the overridden method signature\r\n            return;\r\n\r\n        string memory color = _colors[tokenId];\r\n        bytes32 application = keccak256(bytes(_applications[tokenId]));\r\n        \r\n        if (application == keccak256(\"back\")) {\r\n            if (from != address(0))\r\n               removeColor(_backColorsForAddress[from], color);\r\n            _backColorsForAddress[to].push(color);\r\n        }\r\n        else if (application == keccak256(\"frame\")) {\r\n            if (from != address(0))\r\n                removeColor(_frameColorsForAddress[from], color);\r\n            _frameColorsForAddress[to].push(color);\r\n        }\r\n        else if (application == keccak256(\"digit\")) {\r\n            if (from != address(0))\r\n                removeColor(_digitColorsForAddress[from], color);\r\n            _digitColorsForAddress[to].push(color);\r\n        }\r\n        else if (application == keccak256(\"slug\")) {\r\n            if (from != address(0))\r\n                removeColor(_slugColorsForAddress[from], color);\r\n            _slugColorsForAddress[to].push(color);\r\n        }\r\n    }\r\n\r\n    function removeColor(string[] storage colors, string memory exceptColor) private {\r\n\r\n        // https://ethereum.stackexchange.com/questions/63653/why-i-cannot-loop-through-array-backwards-in-solidity/63654\r\n        for (uint256 i = colors.length; i > 0; i--) {\r\n            if (stringEquals(colors[i - 1], exceptColor)) {\r\n                delete colors[i - 1];\r\n                return;\r\n            }\r\n        }\r\n    }\r\n\r\n    function stringEquals(string memory a, string memory b) internal pure returns(bool) {\r\n        return bytesEquals(bytes(a), bytes(b));\r\n    }\r\n    \r\n    function bytesEquals(bytes memory a, bytes memory b) internal pure returns(bool) {\r\n        return (a.length == b.length) && (keccak256(a) == keccak256(b));\r\n    }\r\n\r\n    function getColors(address forAddress, uint256 tokenId) external view returns (string memory backColor, string memory frameColor, string memory digitColor, string memory slugColor) {\r\n\r\n        string[] memory colors = tokenId < 99999 ? _backColorsForAddress[forAddress] : new string[](0); // pseudo use of tokenId to prevent warnings. We still want the tokenId in the method arguments to be able to modify colors by the tokenId in the future.\r\n        string memory back = getColorFromArray(colors, \"#FFFFFF\");\r\n        \r\n        colors = _frameColorsForAddress[forAddress];\r\n        string memory frame = getColorFromArray(colors, \"#000000\");\r\n        \r\n        colors = _digitColorsForAddress[forAddress];\r\n        string memory digit = getColorFromArray(colors, \"#000000\");\r\n        \r\n        colors = _slugColorsForAddress[forAddress];\r\n        string memory slug = getColorFromArray(colors, \"#FFFFFF\");\r\n        \r\n        return (back, frame, digit, slug);\r\n    }\r\n\r\n    function getColorFromArray(string[] memory colors, string memory fallbackValue) internal pure returns (string memory) {\r\n\r\n        // https://ethereum.stackexchange.com/questions/63653/why-i-cannot-loop-through-array-backwards-in-solidity/63654\r\n        for (uint256 i = colors.length; i > 0; i--) {\r\n            if (bytes(colors[i - 1]).length > 0)\r\n                return colors[i - 1];\r\n        }\r\n\r\n        return fallbackValue;\r\n    }\r\n}",
  "sourcePath": "D:\\Develop\\GitHub\\OG+\\src\\contracts\\OGColor.sol",
  "compiler": {
    "name": "solc",
    "version": "0.8.0+commit.c7dfd78e.Emscripten.clang"
  },
  "schemaVersion": "3.4.3",
  "updatedAt": "2021-12-20T20:14:07.664Z",
  "devdoc": {
    "author": "nfttank.eth",
    "kind": "dev",
    "methods": {
      "approve(address,uint256)": {
        "details": "See {IERC721-approve}."
      },
      "balanceOf(address)": {
        "details": "See {IERC721-balanceOf}."
      },
      "getApproved(uint256)": {
        "details": "See {IERC721-getApproved}."
      },
      "isApprovedForAll(address,address)": {
        "details": "See {IERC721-isApprovedForAll}."
      },
      "name()": {
        "details": "See {IERC721Metadata-name}."
      },
      "owner()": {
        "details": "Returns the address of the current owner."
      },
      "ownerOf(uint256)": {
        "details": "See {IERC721-ownerOf}."
      },
      "renounceOwnership()": {
        "details": "Leaves the contract without owner. It will not be possible to call `onlyOwner` functions anymore. Can only be called by the current owner. NOTE: Renouncing ownership will leave the contract without an owner, thereby removing any functionality that is only available to the owner."
      },
      "safeTransferFrom(address,address,uint256)": {
        "details": "See {IERC721-safeTransferFrom}."
      },
      "safeTransferFrom(address,address,uint256,bytes)": {
        "details": "See {IERC721-safeTransferFrom}."
      },
      "setApprovalForAll(address,bool)": {
        "details": "See {IERC721-setApprovalForAll}."
      },
      "supportsInterface(bytes4)": {
        "details": "See {IERC165-supportsInterface}."
      },
      "symbol()": {
        "details": "See {IERC721Metadata-symbol}."
      },
      "tokenByIndex(uint256)": {
        "details": "See {IERC721Enumerable-tokenByIndex}."
      },
      "tokenOfOwnerByIndex(address,uint256)": {
        "details": "See {IERC721Enumerable-tokenOfOwnerByIndex}."
      },
      "tokenURI(uint256)": {
        "details": "See {IERC721Metadata-tokenURI}."
      },
      "totalSupply()": {
        "details": "See {IERC721Enumerable-totalSupply}."
      },
      "transferFrom(address,address,uint256)": {
        "details": "See {IERC721-transferFrom}."
      },
      "transferOwnership(address)": {
        "details": "Transfers ownership of the contract to a new account (`newOwner`). Can only be called by the current owner."
      }
    },
    "title": "Defines colors for OG NFTs. When minting, a color and an application (which part of the OG NFT to colorize) has to be defined. There are four different applications (back, frame, digit, slug), but only a few colors to mint.",
    "version": 1
  },
  "userdoc": {
    "kind": "user",
    "methods": {},
    "version": 1
  }
}