{
  "contractName": "OGColor",
  "abi": [
    {
      "inputs": [],
      "stateMutability": "nonpayable",
      "type": "constructor"
    },
    {
      "anonymous": false,
      "inputs": [
        {
          "indexed": true,
          "internalType": "address",
          "name": "owner",
          "type": "address"
        },
        {
          "indexed": true,
          "internalType": "address",
          "name": "approved",
          "type": "address"
        },
        {
          "indexed": true,
          "internalType": "uint256",
          "name": "tokenId",
          "type": "uint256"
        }
      ],
      "name": "Approval",
      "type": "event"
    },
    {
      "anonymous": false,
      "inputs": [
        {
          "indexed": true,
          "internalType": "address",
          "name": "owner",
          "type": "address"
        },
        {
          "indexed": true,
          "internalType": "address",
          "name": "operator",
          "type": "address"
        },
        {
          "indexed": false,
          "internalType": "bool",
          "name": "approved",
          "type": "bool"
        }
      ],
      "name": "ApprovalForAll",
      "type": "event"
    },
    {
      "anonymous": false,
      "inputs": [
        {
          "indexed": true,
          "internalType": "address",
          "name": "previousOwner",
          "type": "address"
        },
        {
          "indexed": true,
          "internalType": "address",
          "name": "newOwner",
          "type": "address"
        }
      ],
      "name": "OwnershipTransferred",
      "type": "event"
    },
    {
      "anonymous": false,
      "inputs": [
        {
          "indexed": true,
          "internalType": "address",
          "name": "from",
          "type": "address"
        },
        {
          "indexed": true,
          "internalType": "address",
          "name": "to",
          "type": "address"
        },
        {
          "indexed": true,
          "internalType": "uint256",
          "name": "tokenId",
          "type": "uint256"
        }
      ],
      "name": "Transfer",
      "type": "event"
    },
    {
      "inputs": [
        {
          "internalType": "address",
          "name": "to",
          "type": "address"
        },
        {
          "internalType": "uint256",
          "name": "tokenId",
          "type": "uint256"
        }
      ],
      "name": "approve",
      "outputs": [],
      "stateMutability": "nonpayable",
      "type": "function"
    },
    {
      "inputs": [
        {
          "internalType": "address",
          "name": "owner",
          "type": "address"
        }
      ],
      "name": "balanceOf",
      "outputs": [
        {
          "internalType": "uint256",
          "name": "",
          "type": "uint256"
        }
      ],
      "stateMutability": "view",
      "type": "function",
      "constant": true
    },
    {
      "inputs": [
        {
          "internalType": "uint256",
          "name": "tokenId",
          "type": "uint256"
        }
      ],
      "name": "getApproved",
      "outputs": [
        {
          "internalType": "address",
          "name": "",
          "type": "address"
        }
      ],
      "stateMutability": "view",
      "type": "function",
      "constant": true
    },
    {
      "inputs": [
        {
          "internalType": "address",
          "name": "owner",
          "type": "address"
        },
        {
          "internalType": "address",
          "name": "operator",
          "type": "address"
        }
      ],
      "name": "isApprovedForAll",
      "outputs": [
        {
          "internalType": "bool",
          "name": "",
          "type": "bool"
        }
      ],
      "stateMutability": "view",
      "type": "function",
      "constant": true
    },
    {
      "inputs": [],
      "name": "name",
      "outputs": [
        {
          "internalType": "string",
          "name": "",
          "type": "string"
        }
      ],
      "stateMutability": "view",
      "type": "function",
      "constant": true
    },
    {
      "inputs": [],
      "name": "owner",
      "outputs": [
        {
          "internalType": "address",
          "name": "",
          "type": "address"
        }
      ],
      "stateMutability": "view",
      "type": "function",
      "constant": true
    },
    {
      "inputs": [
        {
          "internalType": "uint256",
          "name": "tokenId",
          "type": "uint256"
        }
      ],
      "name": "ownerOf",
      "outputs": [
        {
          "internalType": "address",
          "name": "",
          "type": "address"
        }
      ],
      "stateMutability": "view",
      "type": "function",
      "constant": true
    },
    {
      "inputs": [],
      "name": "renounceOwnership",
      "outputs": [],
      "stateMutability": "nonpayable",
      "type": "function"
    },
    {
      "inputs": [
        {
          "internalType": "address",
          "name": "from",
          "type": "address"
        },
        {
          "internalType": "address",
          "name": "to",
          "type": "address"
        },
        {
          "internalType": "uint256",
          "name": "tokenId",
          "type": "uint256"
        }
      ],
      "name": "safeTransferFrom",
      "outputs": [],
      "stateMutability": "nonpayable",
      "type": "function"
    },
    {
      "inputs": [
        {
          "internalType": "address",
          "name": "from",
          "type": "address"
        },
        {
          "internalType": "address",
          "name": "to",
          "type": "address"
        },
        {
          "internalType": "uint256",
          "name": "tokenId",
          "type": "uint256"
        },
        {
          "internalType": "bytes",
          "name": "_data",
          "type": "bytes"
        }
      ],
      "name": "safeTransferFrom",
      "outputs": [],
      "stateMutability": "nonpayable",
      "type": "function"
    },
    {
      "inputs": [
        {
          "internalType": "address",
          "name": "operator",
          "type": "address"
        },
        {
          "internalType": "bool",
          "name": "approved",
          "type": "bool"
        }
      ],
      "name": "setApprovalForAll",
      "outputs": [],
      "stateMutability": "nonpayable",
      "type": "function"
    },
    {
      "inputs": [
        {
          "internalType": "bytes4",
          "name": "interfaceId",
          "type": "bytes4"
        }
      ],
      "name": "supportsInterface",
      "outputs": [
        {
          "internalType": "bool",
          "name": "",
          "type": "bool"
        }
      ],
      "stateMutability": "view",
      "type": "function",
      "constant": true
    },
    {
      "inputs": [],
      "name": "symbol",
      "outputs": [
        {
          "internalType": "string",
          "name": "",
          "type": "string"
        }
      ],
      "stateMutability": "view",
      "type": "function",
      "constant": true
    },
    {
      "inputs": [
        {
          "internalType": "uint256",
          "name": "index",
          "type": "uint256"
        }
      ],
      "name": "tokenByIndex",
      "outputs": [
        {
          "internalType": "uint256",
          "name": "",
          "type": "uint256"
        }
      ],
      "stateMutability": "view",
      "type": "function",
      "constant": true
    },
    {
      "inputs": [
        {
          "internalType": "address",
          "name": "owner",
          "type": "address"
        },
        {
          "internalType": "uint256",
          "name": "index",
          "type": "uint256"
        }
      ],
      "name": "tokenOfOwnerByIndex",
      "outputs": [
        {
          "internalType": "uint256",
          "name": "",
          "type": "uint256"
        }
      ],
      "stateMutability": "view",
      "type": "function",
      "constant": true
    },
    {
      "inputs": [
        {
          "internalType": "uint256",
          "name": "tokenId",
          "type": "uint256"
        }
      ],
      "name": "tokenURI",
      "outputs": [
        {
          "internalType": "string",
          "name": "",
          "type": "string"
        }
      ],
      "stateMutability": "view",
      "type": "function",
      "constant": true
    },
    {
      "inputs": [],
      "name": "totalSupply",
      "outputs": [
        {
          "internalType": "uint256",
          "name": "",
          "type": "uint256"
        }
      ],
      "stateMutability": "view",
      "type": "function",
      "constant": true
    },
    {
      "inputs": [
        {
          "internalType": "address",
          "name": "from",
          "type": "address"
        },
        {
          "internalType": "address",
          "name": "to",
          "type": "address"
        },
        {
          "internalType": "uint256",
          "name": "tokenId",
          "type": "uint256"
        }
      ],
      "name": "transferFrom",
      "outputs": [],
      "stateMutability": "nonpayable",
      "type": "function"
    },
    {
      "inputs": [
        {
          "internalType": "address",
          "name": "newOwner",
          "type": "address"
        }
      ],
      "name": "transferOwnership",
      "outputs": [],
      "stateMutability": "nonpayable",
      "type": "function"
    },
    {
      "inputs": [
        {
          "internalType": "string",
          "name": "application",
          "type": "string"
        },
        {
          "internalType": "string",
          "name": "hexColor",
          "type": "string"
        }
      ],
      "name": "claim",
      "outputs": [],
      "stateMutability": "nonpayable",
      "type": "function"
    },
    {
      "inputs": [
        {
          "internalType": "string",
          "name": "hexColor",
          "type": "string"
        }
      ],
      "name": "isValidHexColor",
      "outputs": [
        {
          "internalType": "bool",
          "name": "",
          "type": "bool"
        }
      ],
      "stateMutability": "pure",
      "type": "function",
      "constant": true
    },
    {
      "inputs": [
        {
          "internalType": "address",
          "name": "forAddress",
          "type": "address"
        },
        {
          "internalType": "uint256",
          "name": "tokenId",
          "type": "uint256"
        }
      ],
      "name": "getColors",
      "outputs": [
        {
          "internalType": "string",
          "name": "backColor",
          "type": "string"
        },
        {
          "internalType": "string",
          "name": "frameColor",
          "type": "string"
        },
        {
          "internalType": "string",
          "name": "digitColor",
          "type": "string"
        },
        {
          "internalType": "string",
          "name": "slugColor",
          "type": "string"
        }
      ],
      "stateMutability": "view",
      "type": "function",
      "constant": true
    }
  ],
  "bytecode": "0x60806040523480156200001157600080fd5b506040518060400160405280600781526020017f4f47436f6c6f72000000000000000000000000000000000000000000000000008152506040518060400160405280600781526020017f4f47434f4c4f5200000000000000000000000000000000000000000000000000815250816000908051906020019062000096929190620001ae565b508060019080519060200190620000af929190620001ae565b5050506001600a81905550620000da620000ce620000e060201b60201c565b620000e860201b60201c565b620002c3565b600033905090565b6000600b60009054906101000a900473ffffffffffffffffffffffffffffffffffffffff16905081600b60006101000a81548173ffffffffffffffffffffffffffffffffffffffff021916908373ffffffffffffffffffffffffffffffffffffffff1602179055508173ffffffffffffffffffffffffffffffffffffffff168173ffffffffffffffffffffffffffffffffffffffff167f8be0079c531659141344cd1fd0a4f28419497f9722a3daafe3b4186f6b6457e060405160405180910390a35050565b828054620001bc906200025e565b90600052602060002090601f016020900481019282620001e057600085556200022c565b82601f10620001fb57805160ff19168380011785556200022c565b828001600101855582156200022c579182015b828111156200022b5782518255916020019190600101906200020e565b5b5090506200023b91906200023f565b5090565b5b808211156200025a57600081600090555060010162000240565b5090565b600060028204905060018216806200027757607f821691505b602082108114156200028e576200028d62000294565b5b50919050565b7f4e487b7100000000000000000000000000000000000000000000000000000000600052602260045260246000fd5b61444f80620002d36000396000f3fe608060405234801561001057600080fd5b50600436106101425760003560e01c80636352211e116100b8578063a22cb4651161007c578063a22cb465146103a0578063b88d4fde146103bc578063c87b56dd146103d8578063cb6ab5d814610408578063e985e9c514610424578063f2fde38b1461045457610142565b80636352211e146102fa57806370a082311461032a578063715018a61461035a5780638da5cb5b1461036457806395d89b411461038257610142565b8063116e85bf1161010a578063116e85bf1461021157806318160ddd1461024457806323b872dd146102625780632f745c591461027e57806342842e0e146102ae5780634f6ccce7146102ca57610142565b806301ffc9a71461014757806306adaa6c1461017757806306fdde03146101a7578063081812fc146101c5578063095ea7b3146101f5575b600080fd5b610161600480360381019061015c9190613070565b610470565b60405161016e9190613bda565b60405180910390f35b610191600480360381019061018c91906130c2565b6104ea565b60405161019e9190613bda565b60405180910390f35b6101af610699565b6040516101bc9190613bf5565b60405180910390f35b6101df60048036038101906101da919061317c565b61072b565b6040516101ec9190613b73565b60405180910390f35b61020f600480360381019061020a9190613034565b6107b0565b005b61022b60048036038101906102269190613034565b6108c8565b60405161023b9493929190613c17565b60405180910390f35b61024c610d56565b6040516102599190613f38565b60405180910390f35b61027c60048036038101906102779190612f2e565b610d63565b005b61029860048036038101906102939190613034565b610dc3565b6040516102a59190613f38565b60405180910390f35b6102c860048036038101906102c39190612f2e565b610e68565b005b6102e460048036038101906102df919061317c565b610e88565b6040516102f19190613f38565b60405180910390f35b610314600480360381019061030f919061317c565b610f1f565b6040516103219190613b73565b60405180910390f35b610344600480360381019061033f9190612ec9565b610fd1565b6040516103519190613f38565b60405180910390f35b610362611089565b005b61036c611111565b6040516103799190613b73565b60405180910390f35b61038a61113b565b6040516103979190613bf5565b60405180910390f35b6103ba60048036038101906103b59190612ff8565b6111cd565b005b6103d660048036038101906103d19190612f7d565b6111e3565b005b6103f260048036038101906103ed919061317c565b611245565b6040516103ff9190613bf5565b60405180910390f35b610422600480360381019061041d9190613107565b6112ec565b005b61043e60048036038101906104399190612ef2565b61148f565b60405161044b9190613bda565b60405180910390f35b61046e60048036038101906104699190612ec9565b611523565b005b60007f780e9d63000000000000000000000000000000000000000000000000000000007bffffffffffffffffffffffffffffffffffffffffffffffffffffffff1916827bffffffffffffffffffffffffffffffffffffffffffffffffffffffff191614806104e357506104e28261161b565b5b9050919050565b60008083838080601f016020809104026020016040519081016040528093929190818152602001838380828437600081840152601f19601f8201169050808301925050505050505090506007815114610547576000915050610693565b60005b81518161ffff16101561068c576000828261ffff1681518110610596577f4e487b7100000000000000000000000000000000000000000000000000000000600052603260045260246000fd5b602001015160f81c60f81b60f81c60ff16905060008261ffff1614156105d25760238160010b146105cd5760009350505050610693565b610678565b60006030826105e1919061409e565b905060006041836105f2919061409e565b90506000606184610603919061409e565b90506000808460010b1215801561061e575060098460010b13155b8061063d575060008360010b1215801561063c575060058360010b13155b5b8061065c575060008260010b1215801561065b575060058260010b13155b5b905080610673576000975050505050505050610693565b505050505b5080806106849061424b565b91505061054a565b5060019150505b92915050565b6060600080546106a890614219565b80601f01602080910402602001604051908101604052809291908181526020018280546106d490614219565b80156107215780601f106106f657610100808354040283529160200191610721565b820191906000526020600020905b81548152906001019060200180831161070457829003601f168201915b5050505050905090565b6000610736826116fd565b610775576040517f08c379a000000000000000000000000000000000000000000000000000000000815260040161076c90613df8565b60405180910390fd5b6004600083815260200190815260200160002060009054906101000a900473ffffffffffffffffffffffffffffffffffffffff169050919050565b60006107bb82610f1f565b90508073ffffffffffffffffffffffffffffffffffffffff168373ffffffffffffffffffffffffffffffffffffffff16141561082c576040517f08c379a000000000000000000000000000000000000000000000000000000000815260040161082390613e98565b60405180910390fd5b8073ffffffffffffffffffffffffffffffffffffffff1661084b611769565b73ffffffffffffffffffffffffffffffffffffffff16148061087a575061087981610874611769565b61148f565b5b6108b9576040517f08c379a00000000000000000000000000000000000000000000000000000000081526004016108b090613d78565b60405180910390fd5b6108c38383611771565b505050565b60608060608060006201869f86106108ef57604051806020016040528060008152506109b8565b600e60008873ffffffffffffffffffffffffffffffffffffffff1673ffffffffffffffffffffffffffffffffffffffff168152602001908152602001600020805461093990614219565b80601f016020809104026020016040519081016040528092919081815260200182805461096590614219565b80156109b25780601f10610987576101008083540402835291602001916109b2565b820191906000526020600020905b81548152906001019060200180831161099557829003601f168201915b50505050505b90506000808251146109ca5781610a01565b6040518060400160405280600781526020017f23464646464646000000000000000000000000000000000000000000000000008152505b9050600f60008973ffffffffffffffffffffffffffffffffffffffff1673ffffffffffffffffffffffffffffffffffffffff1681526020019081526020016000208054610a4d90614219565b80601f0160208091040260200160405190810160405280929190818152602001828054610a7990614219565b8015610ac65780601f10610a9b57610100808354040283529160200191610ac6565b820191906000526020600020905b815481529060010190602001808311610aa957829003601f168201915b50505050509150600080835114610add5782610b14565b6040518060400160405280600781526020017f23303030303030000000000000000000000000000000000000000000000000008152505b9050601060008a73ffffffffffffffffffffffffffffffffffffffff1673ffffffffffffffffffffffffffffffffffffffff1681526020019081526020016000208054610b6090614219565b80601f0160208091040260200160405190810160405280929190818152602001828054610b8c90614219565b8015610bd95780601f10610bae57610100808354040283529160200191610bd9565b820191906000526020600020905b815481529060010190602001808311610bbc57829003601f168201915b50505050509250600080845114610bf05783610c27565b6040518060400160405280600781526020017f23303030303030000000000000000000000000000000000000000000000000008152505b9050601160008b73ffffffffffffffffffffffffffffffffffffffff1673ffffffffffffffffffffffffffffffffffffffff1681526020019081526020016000208054610c7390614219565b80601f0160208091040260200160405190810160405280929190818152602001828054610c9f90614219565b8015610cec5780601f10610cc157610100808354040283529160200191610cec565b820191906000526020600020905b815481529060010190602001808311610ccf57829003601f168201915b50505050509350600080855114610d035784610d3a565b6040518060400160405280600781526020017f23464646464646000000000000000000000000000000000000000000000000008152505b9050838383839850985098509850505050505092959194509250565b6000600880549050905090565b610d74610d6e611769565b8261182a565b610db3576040517f08c379a0000000000000000000000000000000000000000000000000000000008152600401610daa90613eb8565b60405180910390fd5b610dbe838383611908565b505050565b6000610dce83610fd1565b8210610e0f576040517f08c379a0000000000000000000000000000000000000000000000000000000008152600401610e0690613c78565b60405180910390fd5b600660008473ffffffffffffffffffffffffffffffffffffffff1673ffffffffffffffffffffffffffffffffffffffff168152602001908152602001600020600083815260200190815260200160002054905092915050565b610e83838383604051806020016040528060008152506111e3565b505050565b6000610e92610d56565b8210610ed3576040517f08c379a0000000000000000000000000000000000000000000000000000000008152600401610eca90613ed8565b60405180910390fd5b60088281548110610f0d577f4e487b7100000000000000000000000000000000000000000000000000000000600052603260045260246000fd5b90600052602060002001549050919050565b6000806002600084815260200190815260200160002060009054906101000a900473ffffffffffffffffffffffffffffffffffffffff169050600073ffffffffffffffffffffffffffffffffffffffff168173ffffffffffffffffffffffffffffffffffffffff161415610fc8576040517f08c379a0000000000000000000000000000000000000000000000000000000008152600401610fbf90613db8565b60405180910390fd5b80915050919050565b60008073ffffffffffffffffffffffffffffffffffffffff168273ffffffffffffffffffffffffffffffffffffffff161415611042576040517f08c379a000000000000000000000000000000000000000000000000000000000815260040161103990613d98565b60405180910390fd5b600360008373ffffffffffffffffffffffffffffffffffffffff1673ffffffffffffffffffffffffffffffffffffffff168152602001908152602001600020549050919050565b611091611769565b73ffffffffffffffffffffffffffffffffffffffff166110af611111565b73ffffffffffffffffffffffffffffffffffffffff1614611105576040517f08c379a00000000000000000000000000000000000000000000000000000000081526004016110fc90613e18565b60405180910390fd5b61110f6000611b64565b565b6000600b60009054906101000a900473ffffffffffffffffffffffffffffffffffffffff16905090565b60606001805461114a90614219565b80601f016020809104026020016040519081016040528092919081815260200182805461117690614219565b80156111c35780601f10611198576101008083540402835291602001916111c3565b820191906000526020600020905b8154815290600101906020018083116111a657829003601f168201915b5050505050905090565b6111df6111d8611769565b8383611c2a565b5050565b6111f46111ee611769565b8361182a565b611233576040517f08c379a000000000000000000000000000000000000000000000000000000000815260040161122a90613eb8565b60405180910390fd5b61123f84848484611d97565b50505050565b6060611250826116fd565b61128f576040517f08c379a000000000000000000000000000000000000000000000000000000000815260040161128690613e58565b60405180910390fd5b6000611299611df3565b905060008151116112b957604051806020016040528060008152506112e4565b806112c384611e0a565b6040516020016112d4929190613b4f565b6040516020818303038152906040525b915050919050565b6002600a541415611332576040517f08c379a000000000000000000000000000000000000000000000000000000000815260040161132990613f18565b60405180910390fd5b6002600a819055506000611344610d56565b905060008110158015611358575060ff8111155b611397576040517f08c379a000000000000000000000000000000000000000000000000000000000815260040161138e90613e78565b60405180910390fd5b6113a18585611fb7565b6113e0576040517f08c379a00000000000000000000000000000000000000000000000000000000081526004016113d790613d58565b60405180910390fd5b6113ea83836104ea565b611429576040517f08c379a000000000000000000000000000000000000000000000000000000000815260040161142090613ef8565b60405180910390fd5b8282600c6000848152602001908152602001600020919061144b929190612c85565b508484600d6000848152602001908152602001600020919061146e929190612c85565b5061148061147a611769565b8261207e565b506001600a8190555050505050565b6000600560008473ffffffffffffffffffffffffffffffffffffffff1673ffffffffffffffffffffffffffffffffffffffff16815260200190815260200160002060008373ffffffffffffffffffffffffffffffffffffffff1673ffffffffffffffffffffffffffffffffffffffff16815260200190815260200160002060009054906101000a900460ff16905092915050565b61152b611769565b73ffffffffffffffffffffffffffffffffffffffff16611549611111565b73ffffffffffffffffffffffffffffffffffffffff161461159f576040517f08c379a000000000000000000000000000000000000000000000000000000000815260040161159690613e18565b60405180910390fd5b600073ffffffffffffffffffffffffffffffffffffffff168173ffffffffffffffffffffffffffffffffffffffff16141561160f576040517f08c379a000000000000000000000000000000000000000000000000000000000815260040161160690613cb8565b60405180910390fd5b61161881611b64565b50565b60007f80ac58cd000000000000000000000000000000000000000000000000000000007bffffffffffffffffffffffffffffffffffffffffffffffffffffffff1916827bffffffffffffffffffffffffffffffffffffffffffffffffffffffff191614806116e657507f5b5e139f000000000000000000000000000000000000000000000000000000007bffffffffffffffffffffffffffffffffffffffffffffffffffffffff1916827bffffffffffffffffffffffffffffffffffffffffffffffffffffffff1916145b806116f657506116f58261209c565b5b9050919050565b60008073ffffffffffffffffffffffffffffffffffffffff166002600084815260200190815260200160002060009054906101000a900473ffffffffffffffffffffffffffffffffffffffff1673ffffffffffffffffffffffffffffffffffffffff1614159050919050565b600033905090565b816004600083815260200190815260200160002060006101000a81548173ffffffffffffffffffffffffffffffffffffffff021916908373ffffffffffffffffffffffffffffffffffffffff160217905550808273ffffffffffffffffffffffffffffffffffffffff166117e483610f1f565b73ffffffffffffffffffffffffffffffffffffffff167f8c5be1e5ebec7d5bd14f71427d1e84f3dd0314c0f7b2291e5b200ac8c7c3b92560405160405180910390a45050565b6000611835826116fd565b611874576040517f08c379a000000000000000000000000000000000000000000000000000000000815260040161186b90613d38565b60405180910390fd5b600061187f83610f1f565b90508073ffffffffffffffffffffffffffffffffffffffff168473ffffffffffffffffffffffffffffffffffffffff1614806118ee57508373ffffffffffffffffffffffffffffffffffffffff166118d68461072b565b73ffffffffffffffffffffffffffffffffffffffff16145b806118ff57506118fe818561148f565b5b91505092915050565b8273ffffffffffffffffffffffffffffffffffffffff1661192882610f1f565b73ffffffffffffffffffffffffffffffffffffffff161461197e576040517f08c379a000000000000000000000000000000000000000000000000000000000815260040161197590613e38565b60405180910390fd5b600073ffffffffffffffffffffffffffffffffffffffff168273ffffffffffffffffffffffffffffffffffffffff1614156119ee576040517f08c379a00000000000000000000000000000000000000000000000000000000081526004016119e590613cf8565b60405180910390fd5b6119f9838383612106565b611a04600082611771565b6001600360008573ffffffffffffffffffffffffffffffffffffffff1673ffffffffffffffffffffffffffffffffffffffff1681526020019081526020016000206000828254611a549190614114565b925050819055506001600360008473ffffffffffffffffffffffffffffffffffffffff1673ffffffffffffffffffffffffffffffffffffffff1681526020019081526020016000206000828254611aab9190614017565b92505081905550816002600083815260200190815260200160002060006101000a81548173ffffffffffffffffffffffffffffffffffffffff021916908373ffffffffffffffffffffffffffffffffffffffff160217905550808273ffffffffffffffffffffffffffffffffffffffff168473ffffffffffffffffffffffffffffffffffffffff167fddf252ad1be2c89b69c2b068fc378daa952ba7f163c4a11628f55a4df523b3ef60405160405180910390a4505050565b6000600b60009054906101000a900473ffffffffffffffffffffffffffffffffffffffff16905081600b60006101000a81548173ffffffffffffffffffffffffffffffffffffffff021916908373ffffffffffffffffffffffffffffffffffffffff1602179055508173ffffffffffffffffffffffffffffffffffffffff168173ffffffffffffffffffffffffffffffffffffffff167f8be0079c531659141344cd1fd0a4f28419497f9722a3daafe3b4186f6b6457e060405160405180910390a35050565b8173ffffffffffffffffffffffffffffffffffffffff168373ffffffffffffffffffffffffffffffffffffffff161415611c99576040517f08c379a0000000000000000000000000000000000000000000000000000000008152600401611c9090613d18565b60405180910390fd5b80600560008573ffffffffffffffffffffffffffffffffffffffff1673ffffffffffffffffffffffffffffffffffffffff16815260200190815260200160002060008473ffffffffffffffffffffffffffffffffffffffff1673ffffffffffffffffffffffffffffffffffffffff16815260200190815260200160002060006101000a81548160ff0219169083151502179055508173ffffffffffffffffffffffffffffffffffffffff168373ffffffffffffffffffffffffffffffffffffffff167f17307eab39ab6107e8899845ad3d59bd9653f200f220920489ca2b5937696c3183604051611d8a9190613bda565b60405180910390a3505050565b611da2848484611908565b611dae84848484612421565b611ded576040517f08c379a0000000000000000000000000000000000000000000000000000000008152600401611de490613c98565b60405180910390fd5b50505050565b606060405180602001604052806000815250905090565b60606000821415611e52576040518060400160405280600181526020017f30000000000000000000000000000000000000000000000000000000000000008152509050611fb2565b600082905060005b60008214611e84578080611e6d90614276565b915050600a82611e7d919061406d565b9150611e5a565b60008167ffffffffffffffff811115611ec6577f4e487b7100000000000000000000000000000000000000000000000000000000600052604160045260246000fd5b6040519080825280601f01601f191660200182016040528015611ef85781602001600182028036833780820191505090505b5090505b60008514611fab57600182611f119190614114565b9150600a85611f2091906142bf565b6030611f2c9190614017565b60f81b818381518110611f68577f4e487b7100000000000000000000000000000000000000000000000000000000600052603260045260246000fd5b60200101907effffffffffffffffffffffffffffffffffffffffffffffffffffffffffffff1916908160001a905350600a85611fa4919061406d565b9450611efc565b8093505050505b919050565b6000808383604051611fca929190613b1f565b604051809103902090507ff99975b1b7d766d47f24055dcf9d239a44d26bc887197da89a6e1cb7acbd0a9d81148061202157507f2aa1b44d53ecaef3818686a0e39502ef57e254136370bf94dbea962d9c1d211581145b8061204b57507f54b0769b5f3f2b3325755b96837f908e4f387f2ffbfb36e43a599d683c584e0181145b8061207557507fad031b8dd7bd2be2fd611ae08d0f6eefaff2358a70428446315d94a57c654ddb81145b91505092915050565b6120988282604051806020016040528060008152506125b8565b5050565b60007f01ffc9a7000000000000000000000000000000000000000000000000000000007bffffffffffffffffffffffffffffffffffffffffffffffffffffffff1916827bffffffffffffffffffffffffffffffffffffffffffffffffffffffff1916149050919050565b612111838383612613565b8173ffffffffffffffffffffffffffffffffffffffff168373ffffffffffffffffffffffffffffffffffffffff16141561214a5761241c565b6000600c6000838152602001908152602001600020805461216a90614219565b80601f016020809104026020016040519081016040528092919081815260200182805461219690614219565b80156121e35780601f106121b8576101008083540402835291602001916121e3565b820191906000526020600020905b8154815290600101906020018083116121c657829003601f168201915b505050505090506000600d600084815260200190815260200160002060405161220c9190613b38565b604051809103902090507ff99975b1b7d766d47f24055dcf9d239a44d26bc887197da89a6e1cb7acbd0a9d8114156122975781600e60008673ffffffffffffffffffffffffffffffffffffffff1673ffffffffffffffffffffffffffffffffffffffff1681526020019081526020016000209080519060200190612291929190612d0b565b50612419565b7f2aa1b44d53ecaef3818686a0e39502ef57e254136370bf94dbea962d9c1d21158114156123185781600f60008673ffffffffffffffffffffffffffffffffffffffff1673ffffffffffffffffffffffffffffffffffffffff1681526020019081526020016000209080519060200190612312929190612d0b565b50612418565b7f54b0769b5f3f2b3325755b96837f908e4f387f2ffbfb36e43a599d683c584e018114156123995781601060008673ffffffffffffffffffffffffffffffffffffffff1673ffffffffffffffffffffffffffffffffffffffff1681526020019081526020016000209080519060200190612393929190612d0b565b50612417565b7fad031b8dd7bd2be2fd611ae08d0f6eefaff2358a70428446315d94a57c654ddb8114156124165781601160008673ffffffffffffffffffffffffffffffffffffffff1673ffffffffffffffffffffffffffffffffffffffff1681526020019081526020016000209080519060200190612414929190612d0b565b505b5b5b5b50505b505050565b60006124428473ffffffffffffffffffffffffffffffffffffffff16612727565b156125ab578373ffffffffffffffffffffffffffffffffffffffff1663150b7a0261246b611769565b8786866040518563ffffffff1660e01b815260040161248d9493929190613b8e565b602060405180830381600087803b1580156124a757600080fd5b505af19250505080156124d857506040513d601f19601f820116820180604052508101906124d59190613099565b60015b61255b573d8060008114612508576040519150601f19603f3d011682016040523d82523d6000602084013e61250d565b606091505b50600081511415612553576040517f08c379a000000000000000000000000000000000000000000000000000000000815260040161254a90613c98565b60405180910390fd5b805181602001fd5b63150b7a0260e01b7bffffffffffffffffffffffffffffffffffffffffffffffffffffffff1916817bffffffffffffffffffffffffffffffffffffffffffffffffffffffff1916149150506125b0565b600190505b949350505050565b6125c2838361273a565b6125cf6000848484612421565b61260e576040517f08c379a000000000000000000000000000000000000000000000000000000000815260040161260590613c98565b60405180910390fd5b505050565b61261e838383612908565b600073ffffffffffffffffffffffffffffffffffffffff168373ffffffffffffffffffffffffffffffffffffffff1614156126615761265c8161290d565b6126a0565b8173ffffffffffffffffffffffffffffffffffffffff168373ffffffffffffffffffffffffffffffffffffffff161461269f5761269e8382612956565b5b5b600073ffffffffffffffffffffffffffffffffffffffff168273ffffffffffffffffffffffffffffffffffffffff1614156126e3576126de81612ac3565b612722565b8273ffffffffffffffffffffffffffffffffffffffff168273ffffffffffffffffffffffffffffffffffffffff1614612721576127208282612c06565b5b5b505050565b600080823b905060008111915050919050565b600073ffffffffffffffffffffffffffffffffffffffff168273ffffffffffffffffffffffffffffffffffffffff1614156127aa576040517f08c379a00000000000000000000000000000000000000000000000000000000081526004016127a190613dd8565b60405180910390fd5b6127b3816116fd565b156127f3576040517f08c379a00000000000000000000000000000000000000000000000000000000081526004016127ea90613cd8565b60405180910390fd5b6127ff60008383612106565b6001600360008473ffffffffffffffffffffffffffffffffffffffff1673ffffffffffffffffffffffffffffffffffffffff168152602001908152602001600020600082825461284f9190614017565b92505081905550816002600083815260200190815260200160002060006101000a81548173ffffffffffffffffffffffffffffffffffffffff021916908373ffffffffffffffffffffffffffffffffffffffff160217905550808273ffffffffffffffffffffffffffffffffffffffff16600073ffffffffffffffffffffffffffffffffffffffff167fddf252ad1be2c89b69c2b068fc378daa952ba7f163c4a11628f55a4df523b3ef60405160405180910390a45050565b505050565b6008805490506009600083815260200190815260200160002081905550600881908060018154018082558091505060019003906000526020600020016000909190919091505550565b6000600161296384610fd1565b61296d9190614114565b9050600060076000848152602001908152602001600020549050818114612a52576000600660008673ffffffffffffffffffffffffffffffffffffffff1673ffffffffffffffffffffffffffffffffffffffff168152602001908152602001600020600084815260200190815260200160002054905080600660008773ffffffffffffffffffffffffffffffffffffffff1673ffffffffffffffffffffffffffffffffffffffff168152602001908152602001600020600084815260200190815260200160002081905550816007600083815260200190815260200160002081905550505b6007600084815260200190815260200160002060009055600660008573ffffffffffffffffffffffffffffffffffffffff1673ffffffffffffffffffffffffffffffffffffffff16815260200190815260200160002060008381526020019081526020016000206000905550505050565b60006001600880549050612ad79190614114565b9050600060096000848152602001908152602001600020549050600060088381548110612b2d577f4e487b7100000000000000000000000000000000000000000000000000000000600052603260045260246000fd5b906000526020600020015490508060088381548110612b75577f4e487b7100000000000000000000000000000000000000000000000000000000600052603260045260246000fd5b906000526020600020018190555081600960008381526020019081526020016000208190555060096000858152602001908152602001600020600090556008805480612bea577f4e487b7100000000000000000000000000000000000000000000000000000000600052603160045260246000fd5b6001900381819060005260206000200160009055905550505050565b6000612c1183610fd1565b905081600660008573ffffffffffffffffffffffffffffffffffffffff1673ffffffffffffffffffffffffffffffffffffffff168152602001908152602001600020600083815260200190815260200160002081905550806007600084815260200190815260200160002081905550505050565b828054612c9190614219565b90600052602060002090601f016020900481019282612cb35760008555612cfa565b82601f10612ccc57803560ff1916838001178555612cfa565b82800160010185558215612cfa579182015b82811115612cf9578235825591602001919060010190612cde565b5b509050612d079190612d91565b5090565b828054612d1790614219565b90600052602060002090601f016020900481019282612d395760008555612d80565b82601f10612d5257805160ff1916838001178555612d80565b82800160010185558215612d80579182015b82811115612d7f578251825591602001919060010190612d64565b5b509050612d8d9190612d91565b5090565b5b80821115612daa576000816000905550600101612d92565b5090565b6000612dc1612dbc84613f84565b613f53565b905082815260208101848484011115612dd957600080fd5b612de48482856141d7565b509392505050565b600081359050612dfb816143bd565b92915050565b600081359050612e10816143d4565b92915050565b600081359050612e25816143eb565b92915050565b600081519050612e3a816143eb565b92915050565b600082601f830112612e5157600080fd5b8135612e61848260208601612dae565b91505092915050565b60008083601f840112612e7c57600080fd5b8235905067ffffffffffffffff811115612e9557600080fd5b602083019150836001820283011115612ead57600080fd5b9250929050565b600081359050612ec381614402565b92915050565b600060208284031215612edb57600080fd5b6000612ee984828501612dec565b91505092915050565b60008060408385031215612f0557600080fd5b6000612f1385828601612dec565b9250506020612f2485828601612dec565b9150509250929050565b600080600060608486031215612f4357600080fd5b6000612f5186828701612dec565b9350506020612f6286828701612dec565b9250506040612f7386828701612eb4565b9150509250925092565b60008060008060808587031215612f9357600080fd5b6000612fa187828801612dec565b9450506020612fb287828801612dec565b9350506040612fc387828801612eb4565b925050606085013567ffffffffffffffff811115612fe057600080fd5b612fec87828801612e40565b91505092959194509250565b6000806040838503121561300b57600080fd5b600061301985828601612dec565b925050602061302a85828601612e01565b9150509250929050565b6000806040838503121561304757600080fd5b600061305585828601612dec565b925050602061306685828601612eb4565b9150509250929050565b60006020828403121561308257600080fd5b600061309084828501612e16565b91505092915050565b6000602082840312156130ab57600080fd5b60006130b984828501612e2b565b91505092915050565b600080602083850312156130d557600080fd5b600083013567ffffffffffffffff8111156130ef57600080fd5b6130fb85828601612e6a565b92509250509250929050565b6000806000806040858703121561311d57600080fd5b600085013567ffffffffffffffff81111561313757600080fd5b61314387828801612e6a565b9450945050602085013567ffffffffffffffff81111561316257600080fd5b61316e87828801612e6a565b925092505092959194509250565b60006020828403121561318e57600080fd5b600061319c84828501612eb4565b91505092915050565b6131ae81614148565b82525050565b6131bd8161415a565b82525050565b60006131cf8385613ff0565b93506131dc8385846141d7565b82840190509392505050565b60006131f382613fc9565b6131fd8185613fdf565b935061320d8185602086016141e6565b613216816143ac565b840191505092915050565b6000815461322e81614219565b6132388186613ff0565b94506001821660008114613253576001811461326457613297565b60ff19831686528186019350613297565b61326d85613fb4565b60005b8381101561328f57815481890152600182019150602081019050613270565b838801955050505b50505092915050565b60006132ab82613fd4565b6132b58185613ffb565b93506132c58185602086016141e6565b6132ce816143ac565b840191505092915050565b60006132e482613fd4565b6132ee818561400c565b93506132fe8185602086016141e6565b80840191505092915050565b6000613317602b83613ffb565b91507f455243373231456e756d657261626c653a206f776e657220696e646578206f7560008301527f74206f6620626f756e64730000000000000000000000000000000000000000006020830152604082019050919050565b600061337d603283613ffb565b91507f4552433732313a207472616e7366657220746f206e6f6e20455243373231526560008301527f63656976657220696d706c656d656e74657200000000000000000000000000006020830152604082019050919050565b60006133e3602683613ffb565b91507f4f776e61626c653a206e6577206f776e657220697320746865207a65726f206160008301527f64647265737300000000000000000000000000000000000000000000000000006020830152604082019050919050565b6000613449601c83613ffb565b91507f4552433732313a20746f6b656e20616c7265616479206d696e746564000000006000830152602082019050919050565b6000613489602483613ffb565b91507f4552433732313a207472616e7366657220746f20746865207a65726f2061646460008301527f72657373000000000000000000000000000000000000000000000000000000006020830152604082019050919050565b60006134ef601983613ffb565b91507f4552433732313a20617070726f766520746f2063616c6c6572000000000000006000830152602082019050919050565b600061352f602c83613ffb565b91507f4552433732313a206f70657261746f7220717565727920666f72206e6f6e657860008301527f697374656e7420746f6b656e00000000000000000000000000000000000000006020830152604082019050919050565b6000613595604583613ffb565b91507f4170706c69636174696f6e20696e76616c69642c20616c6c6f7765642061726560008301527f20276261636b272c20276672616d65272c202764696769742720616e6420277360208301527f6c7567272e0000000000000000000000000000000000000000000000000000006040830152606082019050919050565b6000613621603883613ffb565b91507f4552433732313a20617070726f76652063616c6c6572206973206e6f74206f7760008301527f6e6572206e6f7220617070726f76656420666f7220616c6c00000000000000006020830152604082019050919050565b6000613687602a83613ffb565b91507f4552433732313a2062616c616e636520717565727920666f7220746865207a6560008301527f726f2061646472657373000000000000000000000000000000000000000000006020830152604082019050919050565b60006136ed602983613ffb565b91507f4552433732313a206f776e657220717565727920666f72206e6f6e657869737460008301527f656e7420746f6b656e00000000000000000000000000000000000000000000006020830152604082019050919050565b6000613753602083613ffb565b91507f4552433732313a206d696e7420746f20746865207a65726f20616464726573736000830152602082019050919050565b6000613793602c83613ffb565b91507f4552433732313a20617070726f76656420717565727920666f72206e6f6e657860008301527f697374656e7420746f6b656e00000000000000000000000000000000000000006020830152604082019050919050565b60006137f9602083613ffb565b91507f4f776e61626c653a2063616c6c6572206973206e6f7420746865206f776e65726000830152602082019050919050565b6000613839602983613ffb565b91507f4552433732313a207472616e73666572206f6620746f6b656e2074686174206960008301527f73206e6f74206f776e00000000000000000000000000000000000000000000006020830152604082019050919050565b600061389f602f83613ffb565b91507f4552433732314d657461646174613a2055524920717565727920666f72206e6f60008301527f6e6578697374656e7420746f6b656e00000000000000000000000000000000006020830152604082019050919050565b6000613905601083613ffb565b91507f546f6b656e20496420696e76616c6964000000000000000000000000000000006000830152602082019050919050565b6000613945602183613ffb565b91507f4552433732313a20617070726f76616c20746f2063757272656e74206f776e6560008301527f72000000000000000000000000000000000000000000000000000000000000006020830152604082019050919050565b60006139ab603183613ffb565b91507f4552433732313a207472616e736665722063616c6c6572206973206e6f74206f60008301527f776e6572206e6f7220617070726f7665640000000000000000000000000000006020830152604082019050919050565b6000613a11602c83613ffb565b91507f455243373231456e756d657261626c653a20676c6f62616c20696e646578206f60008301527f7574206f6620626f756e647300000000000000000000000000000000000000006020830152604082019050919050565b6000613a77602883613ffb565b91507f436f6c6f7220696e76616c69642c207573652068657820666f726d617420272360008301527f323234343636272e0000000000000000000000000000000000000000000000006020830152604082019050919050565b6000613add601f83613ffb565b91507f5265656e7472616e637947756172643a207265656e7472616e742063616c6c006000830152602082019050919050565b613b19816141cd565b82525050565b6000613b2c8284866131c3565b91508190509392505050565b6000613b448284613221565b915081905092915050565b6000613b5b82856132d9565b9150613b6782846132d9565b91508190509392505050565b6000602082019050613b8860008301846131a5565b92915050565b6000608082019050613ba360008301876131a5565b613bb060208301866131a5565b613bbd6040830185613b10565b8181036060830152613bcf81846131e8565b905095945050505050565b6000602082019050613bef60008301846131b4565b92915050565b60006020820190508181036000830152613c0f81846132a0565b905092915050565b60006080820190508181036000830152613c3181876132a0565b90508181036020830152613c4581866132a0565b90508181036040830152613c5981856132a0565b90508181036060830152613c6d81846132a0565b905095945050505050565b60006020820190508181036000830152613c918161330a565b9050919050565b60006020820190508181036000830152613cb181613370565b9050919050565b60006020820190508181036000830152613cd1816133d6565b9050919050565b60006020820190508181036000830152613cf18161343c565b9050919050565b60006020820190508181036000830152613d118161347c565b9050919050565b60006020820190508181036000830152613d31816134e2565b9050919050565b60006020820190508181036000830152613d5181613522565b9050919050565b60006020820190508181036000830152613d7181613588565b9050919050565b60006020820190508181036000830152613d9181613614565b9050919050565b60006020820190508181036000830152613db18161367a565b9050919050565b60006020820190508181036000830152613dd1816136e0565b9050919050565b60006020820190508181036000830152613df181613746565b9050919050565b60006020820190508181036000830152613e1181613786565b9050919050565b60006020820190508181036000830152613e31816137ec565b9050919050565b60006020820190508181036000830152613e518161382c565b9050919050565b60006020820190508181036000830152613e7181613892565b9050919050565b60006020820190508181036000830152613e91816138f8565b9050919050565b60006020820190508181036000830152613eb181613938565b9050919050565b60006020820190508181036000830152613ed18161399e565b9050919050565b60006020820190508181036000830152613ef181613a04565b9050919050565b60006020820190508181036000830152613f1181613a6a565b9050919050565b60006020820190508181036000830152613f3181613ad0565b9050919050565b6000602082019050613f4d6000830184613b10565b92915050565b6000604051905081810181811067ffffffffffffffff82111715613f7a57613f7961437d565b5b8060405250919050565b600067ffffffffffffffff821115613f9f57613f9e61437d565b5b601f19601f8301169050602081019050919050565b60008190508160005260206000209050919050565b600081519050919050565b600081519050919050565b600082825260208201905092915050565b600081905092915050565b600082825260208201905092915050565b600081905092915050565b6000614022826141cd565b915061402d836141cd565b9250827fffffffffffffffffffffffffffffffffffffffffffffffffffffffffffffffff03821115614062576140616142f0565b5b828201905092915050565b6000614078826141cd565b9150614083836141cd565b9250826140935761409261431f565b5b828204905092915050565b60006140a982614192565b91506140b483614192565b9250827fffffffffffffffffffffffffffffffffffffffffffffffffffffffffffff8000018212600084121516156140ef576140ee6142f0565b5b82617fff018213600084121615614109576141086142f0565b5b828203905092915050565b600061411f826141cd565b915061412a836141cd565b92508282101561413d5761413c6142f0565b5b828203905092915050565b6000614153826141ad565b9050919050565b60008115159050919050565b60007fffffffff0000000000000000000000000000000000000000000000000000000082169050919050565b60008160010b9050919050565b600061ffff82169050919050565b600073ffffffffffffffffffffffffffffffffffffffff82169050919050565b6000819050919050565b82818337600083830152505050565b60005b838110156142045780820151818401526020810190506141e9565b83811115614213576000848401525b50505050565b6000600282049050600182168061423157607f821691505b602082108114156142455761424461434e565b5b50919050565b60006142568261419f565b915061ffff82141561426b5761426a6142f0565b5b600182019050919050565b6000614281826141cd565b91507fffffffffffffffffffffffffffffffffffffffffffffffffffffffffffffffff8214156142b4576142b36142f0565b5b600182019050919050565b60006142ca826141cd565b91506142d5836141cd565b9250826142e5576142e461431f565b5b828206905092915050565b7f4e487b7100000000000000000000000000000000000000000000000000000000600052601160045260246000fd5b7f4e487b7100000000000000000000000000000000000000000000000000000000600052601260045260246000fd5b7f4e487b7100000000000000000000000000000000000000000000000000000000600052602260045260246000fd5b7f4e487b7100000000000000000000000000000000000000000000000000000000600052604160045260246000fd5b6000601f19601f8301169050919050565b6143c681614148565b81146143d157600080fd5b50565b6143dd8161415a565b81146143e857600080fd5b50565b6143f481614166565b81146143ff57600080fd5b50565b61440b816141cd565b811461441657600080fd5b5056fea264697066735822122077e3c92464717540ccc6acbbd56543914fabc2cdda993d13bc5bb98422734f9964736f6c63430008000033",
  "immutableReferences": {},
  "source": "// SPDX-License-Identifier: MIT\r\n\r\npragma solidity ^0.8.0;\r\n\r\nimport \"@openzeppelin/contracts/token/ERC721/ERC721.sol\";\r\nimport \"@openzeppelin/contracts/token/ERC721/extensions/ERC721Enumerable.sol\";\r\nimport \"@openzeppelin/contracts/security/ReentrancyGuard.sol\";\r\nimport \"@openzeppelin/contracts/access/Ownable.sol\";\r\n\r\n/**\r\n * @title Defines colors for OG NFTs. When claiming, a color and an application (which part of the OG NFT to colorize) has to be defined.\r\n * There are four different applications (back, frame, digit, slug), but only a few colors to mint.\r\n * @author nfttank.eth\r\n */\r\ncontract OGColor is ERC721Enumerable, ReentrancyGuard, Ownable {\r\n    \r\n    mapping(uint256 => string) private _colors;\r\n    mapping(uint256 => string) private _applications;\r\n    \r\n    mapping(address => string) private _backColorsForAddress;\r\n    mapping(address => string) private _frameColorsForAddress;\r\n    mapping(address => string) private _digitColorsForAddress;\r\n    mapping(address => string) private _slugColorsForAddress;\r\n    \r\n    constructor() ERC721(\"OGColor\", \"OGCOLOR\") Ownable() {\r\n    }\r\n\r\n    function claim(string calldata application, string calldata hexColor) public nonReentrant {\r\n\r\n        // take the next free token index, no need to define it externally\r\n        uint256 tokenId = totalSupply();\r\n\r\n        require(tokenId >= 0 && tokenId <= 255, \"Token Id invalid\");\r\n        require(isValidApplication(application), \"Application invalid, allowed are 'back', 'frame', 'digit' and 'slug'.\");\r\n        require(isValidHexColor(hexColor), \"Color invalid, use hex format '#224466'.\");\r\n\r\n        _colors[tokenId] = hexColor;\r\n        _applications[tokenId] = application;\r\n        \r\n        _safeMint(_msgSender(), tokenId);\r\n    }\r\n\r\n    function isValidApplication(string calldata hexColor) private pure returns (bool) {\r\n        bytes32 k = keccak256(bytes(hexColor));\r\n        return k == keccak256(\"back\") \r\n            || k == keccak256(\"frame\")\r\n            || k == keccak256(\"digit\") \r\n            || k == keccak256(\"slug\");\r\n    }\r\n    \r\n    function isValidHexColor(string calldata hexColor) public pure returns (bool) {\r\n        \r\n        bytes memory hexColorBytes = bytes(hexColor);\r\n        \r\n        if (hexColorBytes.length != 7) // #ffffff\r\n            return false;\r\n        \r\n        for (uint16 i = 0; i < hexColorBytes.length; i++) {\r\n            \r\n            int16 char = int16(uint16(uint8(hexColorBytes[i])));\r\n            \r\n            if (i == 0) {\r\n                if (char != 35) // #\r\n                    return false;\r\n            }\r\n            else {\r\n                int16 num1 = char - 48; // charIndex - 48 is the numeric value\r\n                int16 num2 = char - 65; // charIndex - 65 uppercase letters\r\n                int16 num3 = char - 97; // charIndex - 97 lowercase letters\r\n                bool isHex = (num1 >= 0 && num1 <= 9) || (num2 >= 0 && num2 <= 5) || (num3 >= 0 && num3 <= 5); // 0-9 or A-H or a-h\r\n                if (!isHex)\r\n                     return false;\r\n            }\r\n        }\r\n        \r\n        return true;\r\n    }\r\n    \r\n    function _beforeTokenTransfer(address from, address to, uint256 tokenId) internal override {\r\n        \r\n        super._beforeTokenTransfer(from, to, tokenId);\r\n\r\n        if (from == to) // pseudo use of from-variable to prevent warnings while keeping the overridden method signature\r\n            return;\r\n\r\n        string memory color = _colors[tokenId];\r\n        bytes32 application = keccak256(bytes(_applications[tokenId]));\r\n        \r\n        if (application == keccak256(\"back\"))\r\n            _backColorsForAddress[to] = color;\r\n        else if (application == keccak256(\"frame\"))\r\n            _frameColorsForAddress[to] = color;\r\n        else if (application == keccak256(\"digit\"))\r\n            _digitColorsForAddress[to] = color;\r\n        else if (application == keccak256(\"slug\"))\r\n            _slugColorsForAddress[to] = color;\r\n    }\r\n    \r\n    function getColors(address forAddress, uint256 tokenId) external view returns (string memory backColor, string memory frameColor, string memory digitColor, string memory slugColor) {\r\n\r\n        string memory color = tokenId < 99999 ? _backColorsForAddress[forAddress] : \"\"; // pseudo use of tokenId to prevent warnings. We still want the tokenId in the method arguments to be able to modify colors by the tokenId in the future.\r\n        string memory back = bytes(color).length == 0 ? \"#FFFFFF\" : color;\r\n        \r\n        color = _frameColorsForAddress[forAddress];\r\n        string memory frame = bytes(color).length == 0 ? \"#000000\" : color;\r\n        \r\n        color = _digitColorsForAddress[forAddress];\r\n        string memory digit = bytes(color).length == 0 ? \"#000000\" : color;\r\n        \r\n        color = _slugColorsForAddress[forAddress];\r\n        string memory slug = bytes(color).length == 0 ? \"#FFFFFF\" : color;\r\n        \r\n        return (back, frame, digit, slug);\r\n    }\r\n}",
  "sourcePath": "D:\\Develop\\GitHub\\dappuniversity_nft\\src\\contracts\\OGColor.sol",
  "compiler": {
    "name": "solc",
    "version": "0.8.0+commit.c7dfd78e.Emscripten.clang"
  },
  "schemaVersion": "3.4.3",
  "updatedAt": "2021-11-26T23:16:08.327Z",
  "networkType": "ethereum",
  "devdoc": {
    "author": "nfttank.eth",
    "kind": "dev",
    "methods": {
      "approve(address,uint256)": {
        "details": "See {IERC721-approve}."
      },
      "balanceOf(address)": {
        "details": "See {IERC721-balanceOf}."
      },
      "getApproved(uint256)": {
        "details": "See {IERC721-getApproved}."
      },
      "isApprovedForAll(address,address)": {
        "details": "See {IERC721-isApprovedForAll}."
      },
      "name()": {
        "details": "See {IERC721Metadata-name}."
      },
      "owner()": {
        "details": "Returns the address of the current owner."
      },
      "ownerOf(uint256)": {
        "details": "See {IERC721-ownerOf}."
      },
      "renounceOwnership()": {
        "details": "Leaves the contract without owner. It will not be possible to call `onlyOwner` functions anymore. Can only be called by the current owner. NOTE: Renouncing ownership will leave the contract without an owner, thereby removing any functionality that is only available to the owner."
      },
      "safeTransferFrom(address,address,uint256)": {
        "details": "See {IERC721-safeTransferFrom}."
      },
      "safeTransferFrom(address,address,uint256,bytes)": {
        "details": "See {IERC721-safeTransferFrom}."
      },
      "setApprovalForAll(address,bool)": {
        "details": "See {IERC721-setApprovalForAll}."
      },
      "supportsInterface(bytes4)": {
        "details": "See {IERC165-supportsInterface}."
      },
      "symbol()": {
        "details": "See {IERC721Metadata-symbol}."
      },
      "tokenByIndex(uint256)": {
        "details": "See {IERC721Enumerable-tokenByIndex}."
      },
      "tokenOfOwnerByIndex(address,uint256)": {
        "details": "See {IERC721Enumerable-tokenOfOwnerByIndex}."
      },
      "tokenURI(uint256)": {
        "details": "See {IERC721Metadata-tokenURI}."
      },
      "totalSupply()": {
        "details": "See {IERC721Enumerable-totalSupply}."
      },
      "transferFrom(address,address,uint256)": {
        "details": "See {IERC721-transferFrom}."
      },
      "transferOwnership(address)": {
        "details": "Transfers ownership of the contract to a new account (`newOwner`). Can only be called by the current owner."
      }
    },
    "title": "Defines colors for OG NFTs. When claiming, a color and an application (which part of the OG NFT to colorize) has to be defined. There are four different applications (back, frame, digit, slug), but only a few colors to mint.",
    "version": 1
  },
  "userdoc": {
    "kind": "user",
    "methods": {},
    "version": 1
  }
}