{
  "contractName": "OGColor",
  "abi": [
    {
      "inputs": [],
      "stateMutability": "nonpayable",
      "type": "constructor"
    },
    {
      "anonymous": false,
      "inputs": [
        {
          "indexed": true,
          "internalType": "address",
          "name": "owner",
          "type": "address"
        },
        {
          "indexed": true,
          "internalType": "address",
          "name": "approved",
          "type": "address"
        },
        {
          "indexed": true,
          "internalType": "uint256",
          "name": "tokenId",
          "type": "uint256"
        }
      ],
      "name": "Approval",
      "type": "event"
    },
    {
      "anonymous": false,
      "inputs": [
        {
          "indexed": true,
          "internalType": "address",
          "name": "owner",
          "type": "address"
        },
        {
          "indexed": true,
          "internalType": "address",
          "name": "operator",
          "type": "address"
        },
        {
          "indexed": false,
          "internalType": "bool",
          "name": "approved",
          "type": "bool"
        }
      ],
      "name": "ApprovalForAll",
      "type": "event"
    },
    {
      "anonymous": false,
      "inputs": [
        {
          "indexed": true,
          "internalType": "address",
          "name": "previousOwner",
          "type": "address"
        },
        {
          "indexed": true,
          "internalType": "address",
          "name": "newOwner",
          "type": "address"
        }
      ],
      "name": "OwnershipTransferred",
      "type": "event"
    },
    {
      "anonymous": false,
      "inputs": [
        {
          "indexed": true,
          "internalType": "address",
          "name": "from",
          "type": "address"
        },
        {
          "indexed": true,
          "internalType": "address",
          "name": "to",
          "type": "address"
        },
        {
          "indexed": true,
          "internalType": "uint256",
          "name": "tokenId",
          "type": "uint256"
        }
      ],
      "name": "Transfer",
      "type": "event"
    },
    {
      "inputs": [],
      "name": "_colorPrice",
      "outputs": [
        {
          "internalType": "uint256",
          "name": "",
          "type": "uint256"
        }
      ],
      "stateMutability": "view",
      "type": "function",
      "constant": true
    },
    {
      "inputs": [],
      "name": "_extPrice",
      "outputs": [
        {
          "internalType": "uint256",
          "name": "",
          "type": "uint256"
        }
      ],
      "stateMutability": "view",
      "type": "function",
      "constant": true
    },
    {
      "inputs": [
        {
          "internalType": "address",
          "name": "to",
          "type": "address"
        },
        {
          "internalType": "uint256",
          "name": "tokenId",
          "type": "uint256"
        }
      ],
      "name": "approve",
      "outputs": [],
      "stateMutability": "nonpayable",
      "type": "function"
    },
    {
      "inputs": [
        {
          "internalType": "address",
          "name": "owner",
          "type": "address"
        }
      ],
      "name": "balanceOf",
      "outputs": [
        {
          "internalType": "uint256",
          "name": "",
          "type": "uint256"
        }
      ],
      "stateMutability": "view",
      "type": "function",
      "constant": true
    },
    {
      "inputs": [
        {
          "internalType": "uint256",
          "name": "tokenId",
          "type": "uint256"
        }
      ],
      "name": "getApproved",
      "outputs": [
        {
          "internalType": "address",
          "name": "",
          "type": "address"
        }
      ],
      "stateMutability": "view",
      "type": "function",
      "constant": true
    },
    {
      "inputs": [
        {
          "internalType": "address",
          "name": "owner",
          "type": "address"
        },
        {
          "internalType": "address",
          "name": "operator",
          "type": "address"
        }
      ],
      "name": "isApprovedForAll",
      "outputs": [
        {
          "internalType": "bool",
          "name": "",
          "type": "bool"
        }
      ],
      "stateMutability": "view",
      "type": "function",
      "constant": true
    },
    {
      "inputs": [],
      "name": "name",
      "outputs": [
        {
          "internalType": "string",
          "name": "",
          "type": "string"
        }
      ],
      "stateMutability": "view",
      "type": "function",
      "constant": true
    },
    {
      "inputs": [],
      "name": "owner",
      "outputs": [
        {
          "internalType": "address",
          "name": "",
          "type": "address"
        }
      ],
      "stateMutability": "view",
      "type": "function",
      "constant": true
    },
    {
      "inputs": [
        {
          "internalType": "uint256",
          "name": "tokenId",
          "type": "uint256"
        }
      ],
      "name": "ownerOf",
      "outputs": [
        {
          "internalType": "address",
          "name": "",
          "type": "address"
        }
      ],
      "stateMutability": "view",
      "type": "function",
      "constant": true
    },
    {
      "inputs": [],
      "name": "renounceOwnership",
      "outputs": [],
      "stateMutability": "nonpayable",
      "type": "function"
    },
    {
      "inputs": [
        {
          "internalType": "address",
          "name": "from",
          "type": "address"
        },
        {
          "internalType": "address",
          "name": "to",
          "type": "address"
        },
        {
          "internalType": "uint256",
          "name": "tokenId",
          "type": "uint256"
        }
      ],
      "name": "safeTransferFrom",
      "outputs": [],
      "stateMutability": "nonpayable",
      "type": "function"
    },
    {
      "inputs": [
        {
          "internalType": "address",
          "name": "from",
          "type": "address"
        },
        {
          "internalType": "address",
          "name": "to",
          "type": "address"
        },
        {
          "internalType": "uint256",
          "name": "tokenId",
          "type": "uint256"
        },
        {
          "internalType": "bytes",
          "name": "_data",
          "type": "bytes"
        }
      ],
      "name": "safeTransferFrom",
      "outputs": [],
      "stateMutability": "nonpayable",
      "type": "function"
    },
    {
      "inputs": [
        {
          "internalType": "address",
          "name": "operator",
          "type": "address"
        },
        {
          "internalType": "bool",
          "name": "approved",
          "type": "bool"
        }
      ],
      "name": "setApprovalForAll",
      "outputs": [],
      "stateMutability": "nonpayable",
      "type": "function"
    },
    {
      "inputs": [
        {
          "internalType": "bytes4",
          "name": "interfaceId",
          "type": "bytes4"
        }
      ],
      "name": "supportsInterface",
      "outputs": [
        {
          "internalType": "bool",
          "name": "",
          "type": "bool"
        }
      ],
      "stateMutability": "view",
      "type": "function",
      "constant": true
    },
    {
      "inputs": [],
      "name": "symbol",
      "outputs": [
        {
          "internalType": "string",
          "name": "",
          "type": "string"
        }
      ],
      "stateMutability": "view",
      "type": "function",
      "constant": true
    },
    {
      "inputs": [
        {
          "internalType": "address",
          "name": "from",
          "type": "address"
        },
        {
          "internalType": "address",
          "name": "to",
          "type": "address"
        },
        {
          "internalType": "uint256",
          "name": "tokenId",
          "type": "uint256"
        }
      ],
      "name": "transferFrom",
      "outputs": [],
      "stateMutability": "nonpayable",
      "type": "function"
    },
    {
      "inputs": [
        {
          "internalType": "address",
          "name": "newOwner",
          "type": "address"
        }
      ],
      "name": "transferOwnership",
      "outputs": [],
      "stateMutability": "nonpayable",
      "type": "function"
    },
    {
      "inputs": [
        {
          "internalType": "string",
          "name": "application",
          "type": "string"
        },
        {
          "internalType": "string",
          "name": "color",
          "type": "string"
        }
      ],
      "name": "mint",
      "outputs": [],
      "stateMutability": "payable",
      "type": "function",
      "payable": true
    },
    {
      "inputs": [
        {
          "internalType": "uint256",
          "name": "forColor",
          "type": "uint256"
        },
        {
          "internalType": "uint256",
          "name": "forExt",
          "type": "uint256"
        }
      ],
      "name": "setPrice",
      "outputs": [],
      "stateMutability": "nonpayable",
      "type": "function"
    },
    {
      "inputs": [],
      "name": "withdraw",
      "outputs": [],
      "stateMutability": "nonpayable",
      "type": "function"
    },
    {
      "inputs": [],
      "name": "totalSupply",
      "outputs": [
        {
          "internalType": "uint256",
          "name": "",
          "type": "uint256"
        }
      ],
      "stateMutability": "view",
      "type": "function",
      "constant": true
    },
    {
      "inputs": [
        {
          "internalType": "uint256",
          "name": "tokenId",
          "type": "uint256"
        }
      ],
      "name": "renderSvg",
      "outputs": [
        {
          "internalType": "string",
          "name": "",
          "type": "string"
        }
      ],
      "stateMutability": "view",
      "type": "function",
      "constant": true
    },
    {
      "inputs": [
        {
          "internalType": "uint256",
          "name": "tokenId",
          "type": "uint256"
        }
      ],
      "name": "tokenURI",
      "outputs": [
        {
          "internalType": "string",
          "name": "",
          "type": "string"
        }
      ],
      "stateMutability": "view",
      "type": "function",
      "constant": true
    },
    {
      "inputs": [
        {
          "internalType": "address",
          "name": "forAddress",
          "type": "address"
        },
        {
          "internalType": "uint256",
          "name": "tokenId",
          "type": "uint256"
        }
      ],
      "name": "getOgAttributes",
      "outputs": [
        {
          "internalType": "string",
          "name": "",
          "type": "string"
        }
      ],
      "stateMutability": "view",
      "type": "function",
      "constant": true
    },
    {
      "inputs": [
        {
          "internalType": "address",
          "name": "forAddress",
          "type": "address"
        },
        {
          "internalType": "uint256",
          "name": "tokenId",
          "type": "uint256"
        }
      ],
      "name": "getColors",
      "outputs": [
        {
          "internalType": "string",
          "name": "backColor",
          "type": "string"
        },
        {
          "internalType": "string",
          "name": "frameColor",
          "type": "string"
        },
        {
          "internalType": "string",
          "name": "digitColor",
          "type": "string"
        },
        {
          "internalType": "string",
          "name": "slugColor",
          "type": "string"
        }
      ],
      "stateMutability": "view",
      "type": "function",
      "constant": true
    }
  ],
  "bytecode": "0x6080604052668e1bc9bf040000600e5567016345785d8a0000600f553480156200002857600080fd5b506040518060400160405280600781526020017f4f47436f6c6f72000000000000000000000000000000000000000000000000008152506040518060400160405280600781526020017f4f47434f4c4f52000000000000000000000000000000000000000000000000008152508160009080519060200190620000ad929190620001bd565b508060019080519060200190620000c6929190620001bd565b505050620000e9620000dd620000ef60201b60201c565b620000f760201b60201c565b620002d2565b600033905090565b6000600660009054906101000a900473ffffffffffffffffffffffffffffffffffffffff16905081600660006101000a81548173ffffffffffffffffffffffffffffffffffffffff021916908373ffffffffffffffffffffffffffffffffffffffff1602179055508173ffffffffffffffffffffffffffffffffffffffff168173ffffffffffffffffffffffffffffffffffffffff167f8be0079c531659141344cd1fd0a4f28419497f9722a3daafe3b4186f6b6457e060405160405180910390a35050565b828054620001cb906200026d565b90600052602060002090601f016020900481019282620001ef57600085556200023b565b82601f106200020a57805160ff19168380011785556200023b565b828001600101855582156200023b579182015b828111156200023a5782518255916020019190600101906200021d565b5b5090506200024a91906200024e565b5090565b5b80821115620002695760008160009055506001016200024f565b5090565b600060028204905060018216806200028657607f821691505b602082108114156200029d576200029c620002a3565b5b50919050565b7f4e487b7100000000000000000000000000000000000000000000000000000000600052602260045260246000fd5b615f1280620002e26000396000f3fe6080604052600436106101665760003560e01c806370a08231116100d1578063a22cb4651161008a578063e985e9c511610064578063e985e9c514610532578063f2fde38b1461056f578063f7d9757714610598578063fd5ad319146105c157610166565b8063a22cb465146104a3578063b88d4fde146104cc578063c87b56dd146104f557610166565b806370a08231146103a0578063715018a6146103dd5780638aa0fdad146103f45780638da5cb5b1461041057806395d89b411461043b5780639f55f8d11461046657610166565b806318160ddd1161012357806318160ddd146102a457806323b872dd146102cf5780633ccfd60b146102f857806342842e0e1461030f5780636352211e146103385780636f5d592a1461037557610166565b806301c445b71461016b57806301ffc9a71461019657806306fdde03146101d3578063081812fc146101fe578063095ea7b31461023b578063116e85bf14610264575b600080fd5b34801561017757600080fd5b506101806105fe565b60405161018d9190615873565b60405180910390f35b3480156101a257600080fd5b506101bd60048036038101906101b891906142d5565b610604565b6040516101ca9190615555565b60405180910390f35b3480156101df57600080fd5b506101e86106e6565b6040516101f59190615570565b60405180910390f35b34801561020a57600080fd5b506102256004803603810190610220919061445f565b610778565b60405161023291906154c5565b60405180910390f35b34801561024757600080fd5b50610262600480360381019061025d9190614299565b6107fd565b005b34801561027057600080fd5b5061028b60048036038101906102869190614299565b610915565b60405161029b9493929190615592565b60405180910390f35b3480156102b057600080fd5b506102b9610fe4565b6040516102c69190615873565b60405180910390f35b3480156102db57600080fd5b506102f660048036038101906102f19190614193565b610fee565b005b34801561030457600080fd5b5061030d61104e565b005b34801561031b57600080fd5b5061033660048036038101906103319190614193565b611119565b005b34801561034457600080fd5b5061035f600480360381019061035a919061445f565b611139565b60405161036c91906154c5565b60405180910390f35b34801561038157600080fd5b5061038a6111eb565b6040516103979190615873565b60405180910390f35b3480156103ac57600080fd5b506103c760048036038101906103c2919061412e565b6111f1565b6040516103d49190615873565b60405180910390f35b3480156103e957600080fd5b506103f26112a9565b005b61040e60048036038101906104099190614327565b611331565b005b34801561041c57600080fd5b50610425611516565b60405161043291906154c5565b60405180910390f35b34801561044757600080fd5b50610450611540565b60405161045d9190615570565b60405180910390f35b34801561047257600080fd5b5061048d60048036038101906104889190614299565b6115d2565b60405161049a9190615570565b60405180910390f35b3480156104af57600080fd5b506104ca60048036038101906104c5919061425d565b61189f565b005b3480156104d857600080fd5b506104f360048036038101906104ee91906141e2565b6118b5565b005b34801561050157600080fd5b5061051c6004803603810190610517919061445f565b611917565b6040516105299190615570565b60405180910390f35b34801561053e57600080fd5b5061055960048036038101906105549190614157565b611a20565b6040516105669190615555565b60405180910390f35b34801561057b57600080fd5b506105966004803603810190610591919061412e565b611ab4565b005b3480156105a457600080fd5b506105bf60048036038101906105ba9190614488565b611bac565b005b3480156105cd57600080fd5b506105e860048036038101906105e3919061445f565b611c3a565b6040516105f59190615570565b60405180910390f35b600e5481565b60007f80ac58cd000000000000000000000000000000000000000000000000000000007bffffffffffffffffffffffffffffffffffffffffffffffffffffffff1916827bffffffffffffffffffffffffffffffffffffffffffffffffffffffff191614806106cf57507f5b5e139f000000000000000000000000000000000000000000000000000000007bffffffffffffffffffffffffffffffffffffffffffffffffffffffff1916827bffffffffffffffffffffffffffffffffffffffffffffffffffffffff1916145b806106df57506106de82612391565b5b9050919050565b6060600080546106f590615b8c565b80601f016020809104026020016040519081016040528092919081815260200182805461072190615b8c565b801561076e5780601f106107435761010080835404028352916020019161076e565b820191906000526020600020905b81548152906001019060200180831161075157829003601f168201915b5050505050905090565b6000610783826123fb565b6107c2576040517f08c379a00000000000000000000000000000000000000000000000000000000081526004016107b9906157b3565b60405180910390fd5b6004600083815260200190815260200160002060009054906101000a900473ffffffffffffffffffffffffffffffffffffffff169050919050565b600061080882611139565b90508073ffffffffffffffffffffffffffffffffffffffff168373ffffffffffffffffffffffffffffffffffffffff161415610879576040517f08c379a000000000000000000000000000000000000000000000000000000000815260040161087090615833565b60405180910390fd5b8073ffffffffffffffffffffffffffffffffffffffff16610898612467565b73ffffffffffffffffffffffffffffffffffffffff1614806108c757506108c6816108c1612467565b611a20565b5b610906576040517f08c379a00000000000000000000000000000000000000000000000000000000081526004016108fd90615713565b60405180910390fd5b610910838361246f565b505050565b60608060608060006201869f86106109a157600067ffffffffffffffff811115610968577f4e487b7100000000000000000000000000000000000000000000000000000000600052604160045260246000fd5b60405190808252806020026020018201604052801561099b57816020015b60608152602001906001900390816109865790505b50610ab1565b600a60008873ffffffffffffffffffffffffffffffffffffffff1673ffffffffffffffffffffffffffffffffffffffff168152602001908152602001600020805480602002602001604051908101604052809291908181526020016000905b82821015610aac578382906000526020600020018054610a1f90615b8c565b80601f0160208091040260200160405190810160405280929190818152602001828054610a4b90615b8c565b8015610a985780601f10610a6d57610100808354040283529160200191610a98565b820191906000526020600020905b815481529060010190602001808311610a7b57829003601f168201915b505050505081526020019060010190610a00565b505050505b90506000610b2a826040518060400160405280600781526020017f23464646464646000000000000000000000000000000000000000000000000008152506040518060400160405280600481526020017f6261636b00000000000000000000000000000000000000000000000000000000815250612528565b9050600b60008973ffffffffffffffffffffffffffffffffffffffff1673ffffffffffffffffffffffffffffffffffffffff168152602001908152602001600020805480602002602001604051908101604052809291908181526020016000905b82821015610c37578382906000526020600020018054610baa90615b8c565b80601f0160208091040260200160405190810160405280929190818152602001828054610bd690615b8c565b8015610c235780601f10610bf857610100808354040283529160200191610c23565b820191906000526020600020905b815481529060010190602001808311610c0657829003601f168201915b505050505081526020019060010190610b8b565b5050505091506000610cb4836040518060400160405280600781526020017f23303030303030000000000000000000000000000000000000000000000000008152506040518060400160405280600581526020017f6672616d65000000000000000000000000000000000000000000000000000000815250612528565b9050600c60008a73ffffffffffffffffffffffffffffffffffffffff1673ffffffffffffffffffffffffffffffffffffffff168152602001908152602001600020805480602002602001604051908101604052809291908181526020016000905b82821015610dc1578382906000526020600020018054610d3490615b8c565b80601f0160208091040260200160405190810160405280929190818152602001828054610d6090615b8c565b8015610dad5780601f10610d8257610100808354040283529160200191610dad565b820191906000526020600020905b815481529060010190602001808311610d9057829003601f168201915b505050505081526020019060010190610d15565b5050505092506000610e3e846040518060400160405280600781526020017f23303030303030000000000000000000000000000000000000000000000000008152506040518060400160405280600581526020017f6469676974000000000000000000000000000000000000000000000000000000815250612528565b9050600d60008b73ffffffffffffffffffffffffffffffffffffffff1673ffffffffffffffffffffffffffffffffffffffff168152602001908152602001600020805480602002602001604051908101604052809291908181526020016000905b82821015610f4b578382906000526020600020018054610ebe90615b8c565b80601f0160208091040260200160405190810160405280929190818152602001828054610eea90615b8c565b8015610f375780601f10610f0c57610100808354040283529160200191610f37565b820191906000526020600020905b815481529060010190602001808311610f1a57829003601f168201915b505050505081526020019060010190610e9f565b5050505093506000610fc8856040518060400160405280600781526020017f23464646464646000000000000000000000000000000000000000000000000008152506040518060400160405280600481526020017f736c756700000000000000000000000000000000000000000000000000000000815250612528565b9050838383839850985098509850505050505092959194509250565b6000600754905090565b610fff610ff9612467565b8261261b565b61103e576040517f08c379a000000000000000000000000000000000000000000000000000000000815260040161103590615853565b60405180910390fd5b6110498383836126f9565b505050565b611056612467565b73ffffffffffffffffffffffffffffffffffffffff16611074611516565b73ffffffffffffffffffffffffffffffffffffffff16146110ca576040517f08c379a00000000000000000000000000000000000000000000000000000000081526004016110c1906157d3565b60405180910390fd5b60004790503373ffffffffffffffffffffffffffffffffffffffff166108fc829081150290604051600060405180830381858888f19350505050158015611115573d6000803e3d6000fd5b5050565b611134838383604051806020016040528060008152506118b5565b505050565b6000806002600084815260200190815260200160002060009054906101000a900473ffffffffffffffffffffffffffffffffffffffff169050600073ffffffffffffffffffffffffffffffffffffffff168173ffffffffffffffffffffffffffffffffffffffff1614156111e2576040517f08c379a00000000000000000000000000000000000000000000000000000000081526004016111d990615753565b60405180910390fd5b80915050919050565b600f5481565b60008073ffffffffffffffffffffffffffffffffffffffff168273ffffffffffffffffffffffffffffffffffffffff161415611262576040517f08c379a000000000000000000000000000000000000000000000000000000000815260040161125990615733565b60405180910390fd5b600360008373ffffffffffffffffffffffffffffffffffffffff1673ffffffffffffffffffffffffffffffffffffffff168152602001908152602001600020549050919050565b6112b1612467565b73ffffffffffffffffffffffffffffffffffffffff166112cf611516565b73ffffffffffffffffffffffffffffffffffffffff1614611325576040517f08c379a000000000000000000000000000000000000000000000000000000000815260040161131c906157d3565b60405180910390fd5b61132f6000612955565b565b6109c460075410611377576040517f08c379a000000000000000000000000000000000000000000000000000000000815260040161136e90615773565b60405180910390fd5b6113818484612a1b565b6113c0576040517f08c379a00000000000000000000000000000000000000000000000000000000081526004016113b7906156f3565b60405180910390fd5b6113c8611516565b73ffffffffffffffffffffffffffffffffffffffff166113e6612467565b73ffffffffffffffffffffffffffffffffffffffff161461149d57600782829050116114565734600e541115611451576040517f08c379a000000000000000000000000000000000000000000000000000000000815260040161144890615693565b60405180910390fd5b61149c565b34600f54111561149b576040517f08c379a000000000000000000000000000000000000000000000000000000000815260040161149290615693565b60405180910390fd5b5b5b6000600760008154809291906114b290615bbe565b91905055905082826008600084815260200190815260200160002091906114da929190613e42565b5084846009600084815260200190815260200160002091906114fd929190613e42565b5061150f611509612467565b82612ae2565b5050505050565b6000600660009054906101000a900473ffffffffffffffffffffffffffffffffffffffff16905090565b60606001805461154f90615b8c565b80601f016020809104026020016040519081016040528092919081815260200182805461157b90615b8c565b80156115c85780601f1061159d576101008083540402835291602001916115c8565b820191906000526020600020905b8154815290600101906020018083116115ab57829003601f168201915b5050505050905090565b60606000806000803073ffffffffffffffffffffffffffffffffffffffff1663116e85bf88886040518363ffffffff1660e01b815260040161161592919061552c565b60006040518083038186803b15801561162d57600080fd5b505afa158015611641573d6000803e3d6000fd5b505050506040513d6000823e3d601f19601f8201168201806040525081019061166a919061439c565b9350935093509350600084905060008490506000849050600084905060006040518060400160405280600781526020017f2363386662666200000000000000000000000000000000000000000000000000815250905060006040518060400160405280600781526020017f2338353666353600000000000000000000000000000000000000000000000000815250905060006040518060400160405280600781526020017f2337646132363900000000000000000000000000000000000000000000000000815250905061173e8784612b00565b8061174f575061174e8684612b00565b5b80611760575061175f8584612b00565b5b8061177157506117708484612b00565b5b156117a1576040518060600160405280602b8152602001615eb2602b91399b505050505050505050505050611899565b6117ab8783612b00565b806117bc57506117bb8683612b00565b5b806117cd57506117cc8583612b00565b5b806117de57506117dd8483612b00565b5b1561180e57604051806060016040528060298152602001615e89602991399b505050505050505050505050611899565b6118188782612b00565b8061182957506118288682612b00565b5b8061183a57506118398582612b00565b5b8061184b575061184a8482612b00565b5b1561187b576040518060600160405280602c8152602001615e5d602c91399b505050505050505050505050611899565b604051806020016040528060008152509b5050505050505050505050505b92915050565b6118b16118aa612467565b8383612c63565b5050565b6118c66118c0612467565b8361261b565b611905576040517f08c379a00000000000000000000000000000000000000000000000000000000081526004016118fc90615853565b60405180910390fd5b61191184848484612dd0565b50505050565b606060008211801561192b57506109c48211155b61196a576040517f08c379a000000000000000000000000000000000000000000000000000000000815260040161196190615813565b60405180910390fd5b611973826123fb565b6119b2576040517f08c379a00000000000000000000000000000000000000000000000000000000081526004016119a9906156b3565b60405180910390fd5b60006119f66119c084612e2c565b6119d16119cc86611c3a565b613148565b6040516020016119e2929190615480565b604051602081830303815290604052613148565b905080604051602001611a099190615431565b604051602081830303815290604052915050919050565b6000600560008473ffffffffffffffffffffffffffffffffffffffff1673ffffffffffffffffffffffffffffffffffffffff16815260200190815260200160002060008373ffffffffffffffffffffffffffffffffffffffff1673ffffffffffffffffffffffffffffffffffffffff16815260200190815260200160002060009054906101000a900460ff16905092915050565b611abc612467565b73ffffffffffffffffffffffffffffffffffffffff16611ada611516565b73ffffffffffffffffffffffffffffffffffffffff1614611b30576040517f08c379a0000000000000000000000000000000000000000000000000000000008152600401611b27906157d3565b60405180910390fd5b600073ffffffffffffffffffffffffffffffffffffffff168173ffffffffffffffffffffffffffffffffffffffff161415611ba0576040517f08c379a0000000000000000000000000000000000000000000000000000000008152600401611b9790615613565b60405180910390fd5b611ba981612955565b50565b611bb4612467565b73ffffffffffffffffffffffffffffffffffffffff16611bd2611516565b73ffffffffffffffffffffffffffffffffffffffff1614611c28576040517f08c379a0000000000000000000000000000000000000000000000000000000008152600401611c1f906157d3565b60405180910390fd5b81600e8190555080600f819055505050565b6060600082118015611c4e57506109c48211155b611c8d576040517f08c379a0000000000000000000000000000000000000000000000000000000008152600401611c8490615813565b60405180910390fd5b611c96826123fb565b611cd5576040517f08c379a0000000000000000000000000000000000000000000000000000000008152600401611ccc906156b3565b60405180910390fd5b6000600767ffffffffffffffff811115611d18577f4e487b7100000000000000000000000000000000000000000000000000000000600052604160045260246000fd5b604051908082528060200260200182016040528015611d4b57816020015b6060815260200190600190039081611d365790505b5090506040518060c0016040528060868152602001615d316086913981600081518110611da1577f4e487b7100000000000000000000000000000000000000000000000000000000600052603260045260246000fd5b6020026020010181905250611eec600860008581526020019081526020016000208054611dcd90615b8c565b80601f0160208091040260200160405190810160405280929190818152602001828054611df990615b8c565b8015611e465780601f10611e1b57610100808354040283529160200191611e46565b820191906000526020600020905b815481529060010190602001808311611e2957829003601f168201915b5050505050600960008681526020019081526020016000208054611e6990615b8c565b80601f0160208091040260200160405190810160405280929190818152602001828054611e9590615b8c565b8015611ee25780601f10611eb757610100808354040283529160200191611ee2565b820191906000526020600020905b815481529060010190602001808311611ec557829003601f168201915b50505050506132e7565b604051602001611efc9190615453565b60405160208183030381529060405281600181518110611f45577f4e487b7100000000000000000000000000000000000000000000000000000000600052603260045260246000fd5b60200260200101819052506040518060400160405280601181526020017f3c6d61736b2069643d275f6d61736b273e00000000000000000000000000000081525081600281518110611fc0577f4e487b7100000000000000000000000000000000000000000000000000000000600052603260045260246000fd5b60200260200101819052506040518060a0016040528060668152602001615db7606691398160038151811061201e577f4e487b7100000000000000000000000000000000000000000000000000000000600052603260045260246000fd5b60200260200101819052506040518060400160405280600781526020017f3c2f6d61736b3e0000000000000000000000000000000000000000000000000081525081600481518110612099577f4e487b7100000000000000000000000000000000000000000000000000000000600052603260045260246000fd5b6020026020010181905250600960008481526020019081526020016000206040516020016120c79190615365565b60405160208183030381529060405281600581518110612110577f4e487b7100000000000000000000000000000000000000000000000000000000600052603260045260246000fd5b60200260200101819052506040518060400160405280600681526020017f3c2f7376673e00000000000000000000000000000000000000000000000000008152508160068151811061218b577f4e487b7100000000000000000000000000000000000000000000000000000000600052603260045260246000fd5b6020026020010181905250806000815181106121d0577f4e487b7100000000000000000000000000000000000000000000000000000000600052603260045260246000fd5b602002602001015181600181518110612212577f4e487b7100000000000000000000000000000000000000000000000000000000600052603260045260246000fd5b602002602001015182600281518110612254577f4e487b7100000000000000000000000000000000000000000000000000000000600052603260045260246000fd5b602002602001015183600381518110612296577f4e487b7100000000000000000000000000000000000000000000000000000000600052603260045260246000fd5b6020026020010151846004815181106122d8577f4e487b7100000000000000000000000000000000000000000000000000000000600052603260045260246000fd5b60200260200101518560058151811061231a577f4e487b7100000000000000000000000000000000000000000000000000000000600052603260045260246000fd5b60200260200101518660068151811061235c577f4e487b7100000000000000000000000000000000000000000000000000000000600052603260045260246000fd5b602002602001015160405160200161237a97969594939291906152b9565b604051602081830303815290604052915050919050565b60007f01ffc9a7000000000000000000000000000000000000000000000000000000007bffffffffffffffffffffffffffffffffffffffffffffffffffffffff1916827bffffffffffffffffffffffffffffffffffffffffffffffffffffffff1916149050919050565b60008073ffffffffffffffffffffffffffffffffffffffff166002600084815260200190815260200160002060009054906101000a900473ffffffffffffffffffffffffffffffffffffffff1673ffffffffffffffffffffffffffffffffffffffff1614159050919050565b600033905090565b816004600083815260200190815260200160002060006101000a81548173ffffffffffffffffffffffffffffffffffffffff021916908373ffffffffffffffffffffffffffffffffffffffff160217905550808273ffffffffffffffffffffffffffffffffffffffff166124e283611139565b73ffffffffffffffffffffffffffffffffffffffff167f8c5be1e5ebec7d5bd14f71427d1e84f3dd0314c0f7b2291e5b200ac8c7c3b92560405160405180910390a45050565b6060806000855190505b60008111156125f85760008660018361254b9190615a78565b81518110612582577f4e487b7100000000000000000000000000000000000000000000000000000000600052603260045260246000fd5b60200260200101515111156125e5578560018261259f9190615a78565b815181106125d6577f4e487b7100000000000000000000000000000000000000000000000000000000600052603260045260246000fd5b602002602001015191506125f8565b80806125f090615b62565b915050612532565b50600081511415612607578390505b61261181846132e7565b9150509392505050565b6000612626826123fb565b612665576040517f08c379a000000000000000000000000000000000000000000000000000000000815260040161265c906156d3565b60405180910390fd5b600061267083611139565b90508073ffffffffffffffffffffffffffffffffffffffff168473ffffffffffffffffffffffffffffffffffffffff1614806126df57508373ffffffffffffffffffffffffffffffffffffffff166126c784610778565b73ffffffffffffffffffffffffffffffffffffffff16145b806126f057506126ef8185611a20565b5b91505092915050565b8273ffffffffffffffffffffffffffffffffffffffff1661271982611139565b73ffffffffffffffffffffffffffffffffffffffff161461276f576040517f08c379a0000000000000000000000000000000000000000000000000000000008152600401612766906157f3565b60405180910390fd5b600073ffffffffffffffffffffffffffffffffffffffff168273ffffffffffffffffffffffffffffffffffffffff1614156127df576040517f08c379a00000000000000000000000000000000000000000000000000000000081526004016127d690615653565b60405180910390fd5b6127ea838383613325565b6127f560008261246f565b6001600360008573ffffffffffffffffffffffffffffffffffffffff1673ffffffffffffffffffffffffffffffffffffffff16815260200190815260200160002060008282546128459190615a78565b925050819055506001600360008473ffffffffffffffffffffffffffffffffffffffff1673ffffffffffffffffffffffffffffffffffffffff168152602001908152602001600020600082825461289c9190615997565b92505081905550816002600083815260200190815260200160002060006101000a81548173ffffffffffffffffffffffffffffffffffffffff021916908373ffffffffffffffffffffffffffffffffffffffff160217905550808273ffffffffffffffffffffffffffffffffffffffff168473ffffffffffffffffffffffffffffffffffffffff167fddf252ad1be2c89b69c2b068fc378daa952ba7f163c4a11628f55a4df523b3ef60405160405180910390a4505050565b6000600660009054906101000a900473ffffffffffffffffffffffffffffffffffffffff16905081600660006101000a81548173ffffffffffffffffffffffffffffffffffffffff021916908373ffffffffffffffffffffffffffffffffffffffff1602179055508173ffffffffffffffffffffffffffffffffffffffff168173ffffffffffffffffffffffffffffffffffffffff167f8be0079c531659141344cd1fd0a4f28419497f9722a3daafe3b4186f6b6457e060405160405180910390a35050565b6000808383604051612a2e929190615289565b604051809103902090507ff99975b1b7d766d47f24055dcf9d239a44d26bc887197da89a6e1cb7acbd0a9d811480612a8557507f2aa1b44d53ecaef3818686a0e39502ef57e254136370bf94dbea962d9c1d211581145b80612aaf57507f54b0769b5f3f2b3325755b96837f908e4f387f2ffbfb36e43a599d683c584e0181145b80612ad957507fad031b8dd7bd2be2fd611ae08d0f6eefaff2358a70428446315d94a57c654ddb81145b91505092915050565b612afc8282604051806020016040528060008152506138c8565b5050565b6000815183511015612b1157600080fd5b6000805b83518551612b239190615a78565b8111612c585760006001905060005b8551811015612c3357858181518110612b74577f4e487b7100000000000000000000000000000000000000000000000000000000600052603260045260246000fd5b602001015160f81c60f81b7effffffffffffffffffffffffffffffffffffffffffffffffffffffffffffff1916878285612bae9190615997565b81518110612be5577f4e487b7100000000000000000000000000000000000000000000000000000000600052603260045260246000fd5b602001015160f81c60f81b7effffffffffffffffffffffffffffffffffffffffffffffffffffffffffffff191614612c205760009150612c33565b8080612c2b90615bbe565b915050612b32565b508015612c44576001925050612c58565b508080612c5090615bbe565b915050612b15565b508091505092915050565b8173ffffffffffffffffffffffffffffffffffffffff168373ffffffffffffffffffffffffffffffffffffffff161415612cd2576040517f08c379a0000000000000000000000000000000000000000000000000000000008152600401612cc990615673565b60405180910390fd5b80600560008573ffffffffffffffffffffffffffffffffffffffff1673ffffffffffffffffffffffffffffffffffffffff16815260200190815260200160002060008473ffffffffffffffffffffffffffffffffffffffff1673ffffffffffffffffffffffffffffffffffffffff16815260200190815260200160002060006101000a81548160ff0219169083151502179055508173ffffffffffffffffffffffffffffffffffffffff168373ffffffffffffffffffffffffffffffffffffffff167f17307eab39ab6107e8899845ad3d59bd9653f200f220920489ca2b5937696c3183604051612dc39190615555565b60405180910390a3505050565b612ddb8484846126f9565b612de784848484613923565b612e26576040517f08c379a0000000000000000000000000000000000000000000000000000000008152600401612e1d906155f3565b60405180910390fd5b50505050565b606060006040518060400160405280600781526020017f2363386662666200000000000000000000000000000000000000000000000000815250905060006040518060400160405280600781526020017f2338353666353600000000000000000000000000000000000000000000000000815250905060006040518060400160405280600781526020017f23376461323639000000000000000000000000000000000000000000000000008152509050600060096000878152602001908152602001600020604051602001612f019190615392565b60405160208183030381529060405290506000600860008881526020019081526020016000208054612f3290615b8c565b80601f0160208091040260200160405190810160405280929190818152602001828054612f5e90615b8c565b8015612fab5780601f10612f8057610100808354040283529160200191612fab565b820191906000526020600020905b815481529060010190602001808311612f8e57829003601f168201915b505050505090506060612fbe8287612b00565b15613000576040518060400160405280600581526020017f416c69656e0000000000000000000000000000000000000000000000000000008152509050613096565b61300a8286612b00565b1561304c576040518060400160405280600381526020017f41706500000000000000000000000000000000000000000000000000000000008152509050613095565b6130568285612b00565b15613094576040518060400160405280600681526020017f5a6f6d626965000000000000000000000000000000000000000000000000000081525090505b5b5b60008151111561311b578260008451116130bf57604051806020016040528060008152506130f6565b6040518060400160405280600281526020017f2c200000000000000000000000000000000000000000000000000000000000008152505b826040516020016131099392919061531e565b60405160208183030381529060405292505b8260405160200161312c9190615404565b6040516020818303038152906040529650505050505050919050565b606060008251141561316b576040518060200160405280600081525090506132e2565b6000604051806060016040528060408152602001615e1d604091399050600060036002855161319a9190615997565b6131a491906159ed565b60046131b09190615a1e565b905060006020826131c19190615997565b67ffffffffffffffff811115613200577f4e487b7100000000000000000000000000000000000000000000000000000000600052604160045260246000fd5b6040519080825280601f01601f1916602001820160405280156132325781602001600182028036833780820191505090505b509050818152600183018586518101602084015b818310156132a1576003830192508251603f8160121c168501518253600182019150603f81600c1c168501518253600182019150603f8160061c168501518253600182019150603f8116850151825360018201915050613246565b6003895106600181146132bb57600281146132cb576132d6565b613d3d60f01b60028303526132d6565b603d60f81b60018303525b50505050508093505050505b919050565b6060600783511161331b5781836040516020016133059291906153bf565b604051602081830303815290604052905061331f565b8290505b92915050565b613330838383613aba565b8173ffffffffffffffffffffffffffffffffffffffff168373ffffffffffffffffffffffffffffffffffffffff161415613369576138c3565b600060086000838152602001908152602001600020805461338990615b8c565b80601f01602080910402602001604051908101604052809291908181526020018280546133b590615b8c565b80156134025780601f106133d757610100808354040283529160200191613402565b820191906000526020600020905b8154815290600101906020018083116133e557829003601f168201915b5050505050905060006009600084815260200190815260200160002060405161342b91906152a2565b604051809103902090507ff99975b1b7d766d47f24055dcf9d239a44d26bc887197da89a6e1cb7acbd0a9d81141561355857600073ffffffffffffffffffffffffffffffffffffffff168573ffffffffffffffffffffffffffffffffffffffff16146134da576134d9600a60008773ffffffffffffffffffffffffffffffffffffffff1673ffffffffffffffffffffffffffffffffffffffff16815260200190815260200160002083613abf565b5b600a60008573ffffffffffffffffffffffffffffffffffffffff1673ffffffffffffffffffffffffffffffffffffffff16815260200190815260200160002082908060018154018082558091505060019003906000526020600020016000909190919091509080519060200190613552929190613ec8565b506138c0565b7f2aa1b44d53ecaef3818686a0e39502ef57e254136370bf94dbea962d9c1d211581141561367b57600073ffffffffffffffffffffffffffffffffffffffff168573ffffffffffffffffffffffffffffffffffffffff16146135fd576135fc600b60008773ffffffffffffffffffffffffffffffffffffffff1673ffffffffffffffffffffffffffffffffffffffff16815260200190815260200160002083613abf565b5b600b60008573ffffffffffffffffffffffffffffffffffffffff1673ffffffffffffffffffffffffffffffffffffffff16815260200190815260200160002082908060018154018082558091505060019003906000526020600020016000909190919091509080519060200190613675929190613ec8565b506138bf565b7f54b0769b5f3f2b3325755b96837f908e4f387f2ffbfb36e43a599d683c584e0181141561379e57600073ffffffffffffffffffffffffffffffffffffffff168573ffffffffffffffffffffffffffffffffffffffff16146137205761371f600c60008773ffffffffffffffffffffffffffffffffffffffff1673ffffffffffffffffffffffffffffffffffffffff16815260200190815260200160002083613abf565b5b600c60008573ffffffffffffffffffffffffffffffffffffffff1673ffffffffffffffffffffffffffffffffffffffff16815260200190815260200160002082908060018154018082558091505060019003906000526020600020016000909190919091509080519060200190613798929190613ec8565b506138be565b7fad031b8dd7bd2be2fd611ae08d0f6eefaff2358a70428446315d94a57c654ddb8114156138bd57600073ffffffffffffffffffffffffffffffffffffffff168573ffffffffffffffffffffffffffffffffffffffff161461384357613842600d60008773ffffffffffffffffffffffffffffffffffffffff1673ffffffffffffffffffffffffffffffffffffffff16815260200190815260200160002083613abf565b5b600d60008573ffffffffffffffffffffffffffffffffffffffff1673ffffffffffffffffffffffffffffffffffffffff168152602001908152602001600020829080600181540180825580915050600190039060005260206000200160009091909190915090805190602001906138bb929190613ec8565b505b5b5b5b50505b505050565b6138d28383613c39565b6138df6000848484613923565b61391e576040517f08c379a0000000000000000000000000000000000000000000000000000000008152600401613915906155f3565b60405180910390fd5b505050565b60006139448473ffffffffffffffffffffffffffffffffffffffff16613e07565b15613aad578373ffffffffffffffffffffffffffffffffffffffff1663150b7a0261396d612467565b8786866040518563ffffffff1660e01b815260040161398f94939291906154e0565b602060405180830381600087803b1580156139a957600080fd5b505af19250505080156139da57506040513d601f19601f820116820180604052508101906139d791906142fe565b60015b613a5d573d8060008114613a0a576040519150601f19603f3d011682016040523d82523d6000602084013e613a0f565b606091505b50600081511415613a55576040517f08c379a0000000000000000000000000000000000000000000000000000000008152600401613a4c906155f3565b60405180910390fd5b805181602001fd5b63150b7a0260e01b7bffffffffffffffffffffffffffffffffffffffffffffffffffffffff1916817bffffffffffffffffffffffffffffffffffffffffffffffffffffffff191614915050613ab2565b600190505b949350505050565b505050565b60008190506000838054905090505b6000811115613c3257613bb884600183613ae89190615a78565b81548110613b1f577f4e487b7100000000000000000000000000000000000000000000000000000000600052603260045260246000fd5b906000526020600020018054613b3490615b8c565b80601f0160208091040260200160405190810160405280929190818152602001828054613b6090615b8c565b8015613bad5780601f10613b8257610100808354040283529160200191613bad565b820191906000526020600020905b815481529060010190602001808311613b9057829003601f168201915b505050505083613e1a565b15613c1f5783600182613bcb9190615a78565b81548110613c02577f4e487b7100000000000000000000000000000000000000000000000000000000600052603260045260246000fd5b906000526020600020016000613c189190613f4e565b5050613c35565b8080613c2a90615b62565b915050613ace565b50505b5050565b600073ffffffffffffffffffffffffffffffffffffffff168273ffffffffffffffffffffffffffffffffffffffff161415613ca9576040517f08c379a0000000000000000000000000000000000000000000000000000000008152600401613ca090615793565b60405180910390fd5b613cb2816123fb565b15613cf2576040517f08c379a0000000000000000000000000000000000000000000000000000000008152600401613ce990615633565b60405180910390fd5b613cfe60008383613325565b6001600360008473ffffffffffffffffffffffffffffffffffffffff1673ffffffffffffffffffffffffffffffffffffffff1681526020019081526020016000206000828254613d4e9190615997565b92505081905550816002600083815260200190815260200160002060006101000a81548173ffffffffffffffffffffffffffffffffffffffff021916908373ffffffffffffffffffffffffffffffffffffffff160217905550808273ffffffffffffffffffffffffffffffffffffffff16600073ffffffffffffffffffffffffffffffffffffffff167fddf252ad1be2c89b69c2b068fc378daa952ba7f163c4a11628f55a4df523b3ef60405160405180910390a45050565b600080823b905060008111915050919050565b600081518351148015613e3a575081805190602001208380519060200120145b905092915050565b828054613e4e90615b8c565b90600052602060002090601f016020900481019282613e705760008555613eb7565b82601f10613e8957803560ff1916838001178555613eb7565b82800160010185558215613eb7579182015b82811115613eb6578235825591602001919060010190613e9b565b5b509050613ec49190613f8e565b5090565b828054613ed490615b8c565b90600052602060002090601f016020900481019282613ef65760008555613f3d565b82601f10613f0f57805160ff1916838001178555613f3d565b82800160010185558215613f3d579182015b82811115613f3c578251825591602001919060010190613f21565b5b509050613f4a9190613f8e565b5090565b508054613f5a90615b8c565b6000825580601f10613f6c5750613f8b565b601f016020900490600052602060002090810190613f8a9190613f8e565b5b50565b5b80821115613fa7576000816000905550600101613f8f565b5090565b6000613fbe613fb9846158bf565b61588e565b905082815260208101848484011115613fd657600080fd5b613fe1848285615b20565b509392505050565b6000613ffc613ff7846158ef565b61588e565b90508281526020810184848401111561401457600080fd5b61401f848285615b2f565b509392505050565b60008135905061403681615cd4565b92915050565b60008135905061404b81615ceb565b92915050565b60008135905061406081615d02565b92915050565b60008151905061407581615d02565b92915050565b600082601f83011261408c57600080fd5b813561409c848260208601613fab565b91505092915050565b60008083601f8401126140b757600080fd5b8235905067ffffffffffffffff8111156140d057600080fd5b6020830191508360018202830111156140e857600080fd5b9250929050565b600082601f83011261410057600080fd5b8151614110848260208601613fe9565b91505092915050565b60008135905061412881615d19565b92915050565b60006020828403121561414057600080fd5b600061414e84828501614027565b91505092915050565b6000806040838503121561416a57600080fd5b600061417885828601614027565b925050602061418985828601614027565b9150509250929050565b6000806000606084860312156141a857600080fd5b60006141b686828701614027565b93505060206141c786828701614027565b92505060406141d886828701614119565b9150509250925092565b600080600080608085870312156141f857600080fd5b600061420687828801614027565b945050602061421787828801614027565b935050604061422887828801614119565b925050606085013567ffffffffffffffff81111561424557600080fd5b6142518782880161407b565b91505092959194509250565b6000806040838503121561427057600080fd5b600061427e85828601614027565b925050602061428f8582860161403c565b9150509250929050565b600080604083850312156142ac57600080fd5b60006142ba85828601614027565b92505060206142cb85828601614119565b9150509250929050565b6000602082840312156142e757600080fd5b60006142f584828501614051565b91505092915050565b60006020828403121561431057600080fd5b600061431e84828501614066565b91505092915050565b6000806000806040858703121561433d57600080fd5b600085013567ffffffffffffffff81111561435757600080fd5b614363878288016140a5565b9450945050602085013567ffffffffffffffff81111561438257600080fd5b61438e878288016140a5565b925092505092959194509250565b600080600080608085870312156143b257600080fd5b600085015167ffffffffffffffff8111156143cc57600080fd5b6143d8878288016140ef565b945050602085015167ffffffffffffffff8111156143f557600080fd5b614401878288016140ef565b935050604085015167ffffffffffffffff81111561441e57600080fd5b61442a878288016140ef565b925050606085015167ffffffffffffffff81111561444757600080fd5b614453878288016140ef565b91505092959194509250565b60006020828403121561447157600080fd5b600061447f84828501614119565b91505092915050565b6000806040838503121561449b57600080fd5b60006144a985828601614119565b92505060206144ba85828601614119565b9150509250929050565b6144cd81615aac565b82525050565b6144dc81615abe565b82525050565b60006144ee8385615970565b93506144fb838584615b20565b82840190509392505050565b600061451282615949565b61451c818561595f565b935061452c818560208601615b2f565b61453581615cc3565b840191505092915050565b6000815461454d81615b8c565b6145578186615970565b945060018216600081146145725760018114614583576145b6565b60ff198316865281860193506145b6565b61458c8561591f565b60005b838110156145ae5781548189015260018201915060208101905061458f565b838801955050505b50505092915050565b60006145ca82615954565b6145d4818561597b565b93506145e4818560208601615b2f565b6145ed81615cc3565b840191505092915050565b600061460382615954565b61460d818561598c565b935061461d818560208601615b2f565b80840191505092915050565b6000815461463681615b8c565b614640818661598c565b9450600182166000811461465b576001811461466c5761469f565b60ff1983168652818601935061469f565b61467585615934565b60005b8381101561469757815481890152600182019150602081019050614678565b838801955050505b50505092915050565b60006146b560508361598c565b91507f3c636972636c6520766563746f722d6566666563743d276e6f6e2d7363616c6960008301527f6e672d7374726f6b65272063783d27353030272063793d273530302720723d2760208301527f343530272066696c6c3d2775726c2823000000000000000000000000000000006040830152605082019050919050565b600061474160328361597b565b91507f4552433732313a207472616e7366657220746f206e6f6e20455243373231526560008301527f63656976657220696d706c656d656e74657200000000000000000000000000006020830152604082019050919050565b60006147a760268361597b565b91507f4f776e61626c653a206e6577206f776e657220697320746865207a65726f206160008301527f64647265737300000000000000000000000000000000000000000000000000006020830152604082019050919050565b600061480d601c8361597b565b91507f4552433732313a20746f6b656e20616c7265616479206d696e746564000000006000830152602082019050919050565b600061484d60298361598c565b91507f7b202274726169745f74797065223a20224170706c69636174696f6e222c202260008301527f76616c7565223a202200000000000000000000000000000000000000000000006020830152602982019050919050565b60006148b360148361598c565b91507f3c6c696e6561724772616469656e742069643d270000000000000000000000006000830152601482019050919050565b60006148f360248361597b565b91507f4552433732313a207472616e7366657220746f20746865207a65726f2061646460008301527f72657373000000000000000000000000000000000000000000000000000000006020830152604082019050919050565b600061495960198361597b565b91507f4552433732313a20617070726f766520746f2063616c6c6572000000000000006000830152602082019050919050565b600061499960038361598c565b91507f22207d00000000000000000000000000000000000000000000000000000000006000830152600382019050919050565b60006149d9601f8361597b565b91507f45746865722076616c75652073656e74206973206e6f7420636f7272656374006000830152602082019050919050565b6000614a1960148361597b565b91507f546f6b656e20646f6573206e6f742065786973740000000000000000000000006000830152602082019050919050565b6000614a59602c8361597b565b91507f4552433732313a206f70657261746f7220717565727920666f72206e6f6e657860008301527f697374656e7420746f6b656e00000000000000000000000000000000000000006020830152604082019050919050565b6000614abf60458361597b565b91507f4170706c69636174696f6e20696e76616c69642c20616c6c6f7765642061726560008301527f20276261636b272c20276672616d65272c202764696769742720616e6420277360208301527f6c7567272e0000000000000000000000000000000000000000000000000000006040830152606082019050919050565b6000614b4b60148361598c565b91507f272f3e3c2f6c696e6561724772616469656e743e0000000000000000000000006000830152601482019050919050565b6000614b8b60148361598c565b91507f273e3c73746f702073746f702d636f6c6f723d270000000000000000000000006000830152601482019050919050565b6000614bcb60388361597b565b91507f4552433732313a20617070726f76652063616c6c6572206973206e6f74206f7760008301527f6e6572206e6f7220617070726f76656420666f7220616c6c00000000000000006020830152604082019050919050565b6000614c31602a8361597b565b91507f4552433732313a2062616c616e636520717565727920666f7220746865207a6560008301527f726f2061646472657373000000000000000000000000000000000000000000006020830152604082019050919050565b6000614c9760298361597b565b91507f4552433732313a206f776e657220717565727920666f72206e6f6e657869737460008301527f656e7420746f6b656e00000000000000000000000000000000000000000000006020830152604082019050919050565b6000614cfd601c8361597b565b91507f4e6f20746f6b656e7320617661696c61626c6520616e796d6f72652e000000006000830152602082019050919050565b6000614d3d60028361598c565b91507f227d0000000000000000000000000000000000000000000000000000000000006000830152600282019050919050565b6000614d7d60208361597b565b91507f4552433732313a206d696e7420746f20746865207a65726f20616464726573736000830152602082019050919050565b6000614dbd602c8361597b565b91507f4552433732313a20617070726f76656420717565727920666f72206e6f6e657860008301527f697374656e7420746f6b656e00000000000000000000000000000000000000006020830152604082019050919050565b6000614e2360208361597b565b91507f4f776e61626c653a2063616c6c6572206973206e6f7420746865206f776e65726000830152602082019050919050565b6000614e6360298361597b565b91507f4552433732313a207472616e73666572206f6620746f6b656e2074686174206960008301527f73206e6f74206f776e00000000000000000000000000000000000000000000006020830152604082019050919050565b6000614ec960108361597b565b91507f546f6b656e20496420696e76616c6964000000000000000000000000000000006000830152602082019050919050565b6000614f09600f8361598c565b91507f2261747472696275746573223a205b00000000000000000000000000000000006000830152600f82019050919050565b6000614f4960018361598c565b91507f5d000000000000000000000000000000000000000000000000000000000000006000830152600182019050919050565b6000614f8960218361597b565b91507f4552433732313a20617070726f76616c20746f2063757272656e74206f776e6560008301527f72000000000000000000000000000000000000000000000000000000000000006020830152604082019050919050565b6000614fef601d8361598c565b91507f646174613a6170706c69636174696f6e2f6a736f6e3b6261736536342c0000006000830152601d82019050919050565b600061502f60078361598c565b91507f3c2f646566733e000000000000000000000000000000000000000000000000006000830152600782019050919050565b600061506f60318361597b565b91507f4552433732313a207472616e736665722063616c6c6572206973206e6f74206f60008301527f776e6572206e6f7220617070726f7665640000000000000000000000000000006020830152604082019050919050565b60006150d560068361598c565b91507f3c646566733e00000000000000000000000000000000000000000000000000006000830152600682019050919050565b600061511560228361598c565b91507f7b202274726169745f74797065223a202254797065222c202276616c7565223a60008301527f20220000000000000000000000000000000000000000000000000000000000006020830152602282019050919050565b600061517b60288361598c565b91507f7b226e616d65223a20224f4720436f6c6f72222c20226465736372697074696f60008301527f6e223a2022222c200000000000000000000000000000000000000000000000006020830152602882019050919050565b60006151e160268361598c565b91507f2c2022696d616765223a2022646174613a696d6167652f7376672b786d6c3b6260008301527f61736536342c00000000000000000000000000000000000000000000000000006020830152602682019050919050565b600061524760188361598c565b91507f2927206d61736b3d2775726c28235f6d61736b2927202f3e00000000000000006000830152601882019050919050565b61528381615b16565b82525050565b60006152968284866144e2565b91508190509392505050565b60006152ae8284614540565b915081905092915050565b60006152c5828a6145f8565b91506152d182896145f8565b91506152dd82886145f8565b91506152e982876145f8565b91506152f582866145f8565b915061530182856145f8565b915061530d82846145f8565b915081905098975050505050505050565b600061532a82866145f8565b915061533682856145f8565b915061534182615108565b915061534d82846145f8565b91506153588261498c565b9150819050949350505050565b6000615370826146a8565b915061537c8284614629565b91506153878261523a565b915081905092915050565b600061539d82614840565b91506153a98284614629565b91506153b48261498c565b915081905092915050565b60006153ca826148a6565b91506153d682856145f8565b91506153e182614b7e565b91506153ed82846145f8565b91506153f882614b3e565b91508190509392505050565b600061540f82614efc565b915061541b82846145f8565b915061542682614f3c565b915081905092915050565b600061543c82614fe2565b915061544882846145f8565b915081905092915050565b600061545e826150c8565b915061546a82846145f8565b915061547582615022565b915081905092915050565b600061548b8261516e565b915061549782856145f8565b91506154a2826151d4565b91506154ae82846145f8565b91506154b982614d30565b91508190509392505050565b60006020820190506154da60008301846144c4565b92915050565b60006080820190506154f560008301876144c4565b61550260208301866144c4565b61550f604083018561527a565b81810360608301526155218184614507565b905095945050505050565b600060408201905061554160008301856144c4565b61554e602083018461527a565b9392505050565b600060208201905061556a60008301846144d3565b92915050565b6000602082019050818103600083015261558a81846145bf565b905092915050565b600060808201905081810360008301526155ac81876145bf565b905081810360208301526155c081866145bf565b905081810360408301526155d481856145bf565b905081810360608301526155e881846145bf565b905095945050505050565b6000602082019050818103600083015261560c81614734565b9050919050565b6000602082019050818103600083015261562c8161479a565b9050919050565b6000602082019050818103600083015261564c81614800565b9050919050565b6000602082019050818103600083015261566c816148e6565b9050919050565b6000602082019050818103600083015261568c8161494c565b9050919050565b600060208201905081810360008301526156ac816149cc565b9050919050565b600060208201905081810360008301526156cc81614a0c565b9050919050565b600060208201905081810360008301526156ec81614a4c565b9050919050565b6000602082019050818103600083015261570c81614ab2565b9050919050565b6000602082019050818103600083015261572c81614bbe565b9050919050565b6000602082019050818103600083015261574c81614c24565b9050919050565b6000602082019050818103600083015261576c81614c8a565b9050919050565b6000602082019050818103600083015261578c81614cf0565b9050919050565b600060208201905081810360008301526157ac81614d70565b9050919050565b600060208201905081810360008301526157cc81614db0565b9050919050565b600060208201905081810360008301526157ec81614e16565b9050919050565b6000602082019050818103600083015261580c81614e56565b9050919050565b6000602082019050818103600083015261582c81614ebc565b9050919050565b6000602082019050818103600083015261584c81614f7c565b9050919050565b6000602082019050818103600083015261586c81615062565b9050919050565b6000602082019050615888600083018461527a565b92915050565b6000604051905081810181811067ffffffffffffffff821117156158b5576158b4615c94565b5b8060405250919050565b600067ffffffffffffffff8211156158da576158d9615c94565b5b601f19601f8301169050602081019050919050565b600067ffffffffffffffff82111561590a57615909615c94565b5b601f19601f8301169050602081019050919050565b60008190508160005260206000209050919050565b60008190508160005260206000209050919050565b600081519050919050565b600081519050919050565b600082825260208201905092915050565b600081905092915050565b600082825260208201905092915050565b600081905092915050565b60006159a282615b16565b91506159ad83615b16565b9250827fffffffffffffffffffffffffffffffffffffffffffffffffffffffffffffffff038211156159e2576159e1615c07565b5b828201905092915050565b60006159f882615b16565b9150615a0383615b16565b925082615a1357615a12615c36565b5b828204905092915050565b6000615a2982615b16565b9150615a3483615b16565b9250817fffffffffffffffffffffffffffffffffffffffffffffffffffffffffffffffff0483118215151615615a6d57615a6c615c07565b5b828202905092915050565b6000615a8382615b16565b9150615a8e83615b16565b925082821015615aa157615aa0615c07565b5b828203905092915050565b6000615ab782615af6565b9050919050565b60008115159050919050565b60007fffffffff0000000000000000000000000000000000000000000000000000000082169050919050565b600073ffffffffffffffffffffffffffffffffffffffff82169050919050565b6000819050919050565b82818337600083830152505050565b60005b83811015615b4d578082015181840152602081019050615b32565b83811115615b5c576000848401525b50505050565b6000615b6d82615b16565b91506000821415615b8157615b80615c07565b5b600182039050919050565b60006002820490506001821680615ba457607f821691505b60208210811415615bb857615bb7615c65565b5b50919050565b6000615bc982615b16565b91507fffffffffffffffffffffffffffffffffffffffffffffffffffffffffffffffff821415615bfc57615bfb615c07565b5b600182019050919050565b7f4e487b7100000000000000000000000000000000000000000000000000000000600052601160045260246000fd5b7f4e487b7100000000000000000000000000000000000000000000000000000000600052601260045260246000fd5b7f4e487b7100000000000000000000000000000000000000000000000000000000600052602260045260246000fd5b7f4e487b7100000000000000000000000000000000000000000000000000000000600052604160045260246000fd5b6000601f19601f8301169050919050565b615cdd81615aac565b8114615ce857600080fd5b50565b615cf481615abe565b8114615cff57600080fd5b50565b615d0b81615aca565b8114615d1657600080fd5b50565b615d2281615b16565b8114615d2d57600080fd5b5056fe3c73766720786d6c6e733d27687474703a2f2f7777772e77332e6f72672f323030302f7376672720786d6c6e733a786c696e6b3d27687474703a2f2f7777772e77332e6f72672f313939392f786c696e6b272077696474683d273130303027206865696768743d2731303030272076696577426f783d2730203020313030302031303030273e202020203c636972636c6520766563746f722d6566666563743d276e6f6e2d7363616c696e672d7374726f6b65272063783d27353030272063793d273530302720723d27343530272066696c6c3d27776869746527207374726f6b653d276e6f6e6527202f3e4142434445464748494a4b4c4d4e4f505152535455565758595a6162636465666768696a6b6c6d6e6f707172737475767778797a303132333435363738392b2f7b202274726169745f74797065223a2022436f6c6f72222c202276616c7565223a20225a6f6d62696522207d7b202274726169745f74797065223a2022436f6c6f72222c202276616c7565223a202241706522207d7b202274726169745f74797065223a2022436f6c6f72222c202276616c7565223a2022416c69656e22207da2646970667358221220174f6a0e7b9a5428bacd01bc4c827eb50eddf1b647c65f92957b838af5afbe3664736f6c63430008000033",
  "immutableReferences": {},
  "source": "// SPDX-License-Identifier: MIT\r\n\r\npragma solidity 0.8.0;\r\n\r\nimport \"@openzeppelin/contracts/token/ERC721/ERC721.sol\";\r\nimport \"@openzeppelin/contracts/access/Ownable.sol\";\r\nimport \"base64-sol/base64.sol\";\r\n\r\n/**\r\n * @title Defines colors for OG NFTs. When minting, a color and an application (which part of the OG NFT to colorize) has to be defined.\r\n * There are four different applications (back, frame, digit, slug).\r\n * @author nfttank.eth\r\n */\r\ncontract OGColor is ERC721, Ownable {\r\n    \r\n    uint256 private _totalSupply;\r\n\r\n    uint256 private constant MAX_SUPPLY = 2500;\r\n\r\n    mapping(uint256 => string) private _colors;\r\n    mapping(uint256 => string) private _applications;\r\n    \r\n    mapping(address => string[]) private _backColorsForAddress;\r\n    mapping(address => string[]) private _frameColorsForAddress;\r\n    mapping(address => string[]) private _digitColorsForAddress;\r\n    mapping(address => string[]) private _slugColorsForAddress;\r\n\r\n    uint256 public _colorPrice = 40000000000000000; //0.04 ETH\r\n    uint256 public _extPrice =  100000000000000000; //0.10 ETH;\r\n    \r\n    constructor() ERC721(\"OGColor\", \"OGCOLOR\") Ownable() {\r\n    }\r\n\r\n    /**\r\n    * @dev Mint a color for a specific application for all your OG tokens you hold in the same wallet.\r\n    * Applications are back, frame, digit & slug.\r\n    * It's recommended to use lower case color strings like #ffffff instead of #FFFFFF.\r\n    */\r\n    function mint(string calldata application, string calldata color) public payable {\r\n\r\n        require(_totalSupply < MAX_SUPPLY, \"No tokens available anymore.\");\r\n        require(isValidApplication(application), \"Application invalid, allowed are 'back', 'frame', 'digit' and 'slug'.\");\r\n\r\n        if (_msgSender() != owner()) {\r\n            if (bytes(color).length <= 7) { // like #527862 or #fff\r\n                require(_colorPrice <= msg.value, \"Ether value sent is not correct\");\r\n            } else {\r\n                require(_extPrice <= msg.value, \"Ether value sent is not correct\");\r\n            }\r\n        }\r\n\r\n        uint256 newId = _totalSupply++;\r\n\r\n        _colors[newId] = color;\r\n        _applications[newId] = application;\r\n        \r\n        _safeMint(_msgSender(), newId);\r\n    }\r\n\r\n    function setPrice(uint256 forColor, uint256 forExt) external onlyOwner {\r\n        _colorPrice = forColor;\r\n        _extPrice = forExt;\r\n    }\r\n\r\n    function withdraw() public onlyOwner {\r\n        uint balance = address(this).balance;\r\n        payable(msg.sender).transfer(balance);\r\n    }\r\n\r\n    function totalSupply() public view virtual returns (uint256) {\r\n        return _totalSupply;\r\n    }\r\n\r\n    function renderSvg(uint256 tokenId) public virtual view returns (string memory) {\r\n        require(tokenId > 0 && tokenId <= MAX_SUPPLY, \"Token Id invalid\");\r\n        require(_exists(tokenId), \"Token does not exist\");\r\n        \r\n        string[] memory parts = new string[](7);\r\n\r\n        parts[0] = \"<svg xmlns='http://www.w3.org/2000/svg' xmlns:xlink='http://www.w3.org/1999/xlink' width='1000' height='1000' viewBox='0 0 1000 1000'>\";\r\n        parts[1] = string(abi.encodePacked(\"<defs>\", formatColor(_colors[tokenId], _applications[tokenId]), \"</defs>\"));\r\n        parts[2] = \"<mask id='_mask'>\";\r\n        parts[3] = \"    <circle vector-effect='non-scaling-stroke' cx='500' cy='500' r='450' fill='white' stroke='none' />\";\r\n        parts[4] = \"</mask>\";\r\n        parts[5] = string(abi.encodePacked(\"<circle vector-effect='non-scaling-stroke' cx='500' cy='500' r='450' fill='url(#\", _applications[tokenId], \")' mask='url(#_mask)' />\"));\r\n        parts[6] = \"</svg>\";\r\n        \r\n        return string(abi.encodePacked(parts[0], parts[1], parts[2], parts[3], parts[4], parts[5], parts[6]));\r\n    }\r\n\r\n    function tokenURI(uint256 tokenId) override public view returns (string memory) {\r\n        require(tokenId > 0 && tokenId <= MAX_SUPPLY, \"Token Id invalid\");\r\n        require(_exists(tokenId), \"Token does not exist\");\r\n    \r\n        string memory json = Base64.encode(bytes(string(abi.encodePacked('{\"name\": \"OG Color\", \"description\": \"\", ', getAttributesForColor(tokenId), ', \"image\": \"data:image/svg+xml;base64,', Base64.encode(bytes(renderSvg(tokenId))), '\"}'))));\r\n        return string(abi.encodePacked('data:application/json;base64,', json));\r\n    }\r\n\r\n    function getAttributesForColor(uint256 tokenId) private view returns (string memory) {\r\n\r\n        bytes memory ax = '#c8fbfb';\r\n        bytes memory ap = '#856f56';\r\n        bytes memory zz = '#7da269';\r\n\r\n        string memory traits = string(abi.encodePacked('{ \"trait_type\": \"Application\", \"value\": \"', _applications[tokenId], '\" }'));\r\n\r\n        bytes memory color = bytes(_colors[tokenId]);\r\n        string memory type_;\r\n\r\n        if (stringContains(color, ax)) {\r\n            type_ = 'Alien';\r\n        } else if (stringContains(color, ap)) {\r\n            type_ = 'Ape';\r\n        } else if (stringContains(color, zz)) {\r\n            type_ = 'Zombie';\r\n        }\r\n\r\n        if (bytes(type_).length > 0) {\r\n            traits = string(abi.encodePacked(traits, (bytes(traits).length > 0 ? ', ' : ''), '{ \"trait_type\": \"Type\", \"value\": \"', type_, '\" }'));\r\n        }\r\n\r\n        return string(abi.encodePacked('\"attributes\": [', traits, ']'));\r\n    }\r\n\r\n    function getOgAttributes(address forAddress, uint256 tokenId) external view returns (string memory) {\r\n        \r\n        (string memory back, string memory frame, string memory digit, string memory slug) = this.getColors(forAddress, tokenId);\r\n\r\n        bytes memory b = bytes(back);\r\n        bytes memory f = bytes(frame);\r\n        bytes memory d = bytes(digit);\r\n        bytes memory s = bytes(slug);\r\n\r\n        bytes memory ax = '#c8fbfb';\r\n        bytes memory ap = '#856f56';\r\n        bytes memory zz = '#7da269';\r\n\r\n        if (stringContains(b, ax) || stringContains(f, ax) || stringContains(d, ax) || stringContains(s, ax)) {\r\n            return '{ \"trait_type\": \"Color\", \"value\": \"Alien\" }';\r\n        }\r\n\r\n        if (stringContains(b, ap) || stringContains(f, ap) || stringContains(d, ap) || stringContains(s, ap)) {\r\n            return '{ \"trait_type\": \"Color\", \"value\": \"Ape\" }';\r\n        }\r\n\r\n        if (stringContains(b, zz) || stringContains(f, zz) || stringContains(d, zz) || stringContains(s, zz)) {\r\n           return '{ \"trait_type\": \"Color\", \"value\": \"Zombie\" }';\r\n        }\r\n\r\n        return '';\r\n    }\r\n\r\n\r\n    function isValidApplication(string calldata application) private pure returns (bool) {\r\n        bytes32 k = keccak256(bytes(application));\r\n        return k == keccak256(\"back\") \r\n            || k == keccak256(\"frame\")\r\n            || k == keccak256(\"digit\") \r\n            || k == keccak256(\"slug\");\r\n    }\r\n    \r\n    function _beforeTokenTransfer(address from, address to, uint256 tokenId) internal override {\r\n        \r\n        super._beforeTokenTransfer(from, to, tokenId);\r\n\r\n        if (from == to) // pseudo use of from-variable to prevent warnings while keeping the overridden method signature\r\n            return;\r\n\r\n        string memory color = _colors[tokenId];\r\n        bytes32 application = keccak256(bytes(_applications[tokenId]));\r\n        \r\n        if (application == keccak256(\"back\")) {\r\n            if (from != address(0))\r\n               removeColor(_backColorsForAddress[from], color);\r\n            _backColorsForAddress[to].push(color);\r\n        }\r\n        else if (application == keccak256(\"frame\")) {\r\n            if (from != address(0))\r\n                removeColor(_frameColorsForAddress[from], color);\r\n            _frameColorsForAddress[to].push(color);\r\n        }\r\n        else if (application == keccak256(\"digit\")) {\r\n            if (from != address(0))\r\n                removeColor(_digitColorsForAddress[from], color);\r\n            _digitColorsForAddress[to].push(color);\r\n        }\r\n        else if (application == keccak256(\"slug\")) {\r\n            if (from != address(0))\r\n                removeColor(_slugColorsForAddress[from], color);\r\n            _slugColorsForAddress[to].push(color);\r\n        }\r\n    }\r\n\r\n    function removeColor(string[] storage colors, string memory exceptColor) private {\r\n\r\n        bytes memory except = bytes(exceptColor);\r\n\r\n        // https://ethereum.stackexchange.com/questions/63653/why-i-cannot-loop-through-array-backwards-in-solidity/63654\r\n        for (uint256 i = colors.length; i > 0; i--) {\r\n            if (bytesEquals(bytes(colors[i - 1]), except)) {\r\n                delete colors[i - 1];\r\n                return;\r\n            }\r\n        }\r\n    }\r\n\r\n    function bytesEquals(bytes memory a, bytes memory b) internal pure returns(bool) {\r\n        return (a.length == b.length) && (keccak256(a) == keccak256(b));\r\n    }\r\n\r\n    function stringContains(bytes memory where, bytes memory what) internal pure returns (bool) {\r\n\r\n        require(where.length >= what.length);\r\n\r\n        bool found = false;\r\n        for (uint i = 0; i <= where.length - what.length; i++) {\r\n            bool flag = true;\r\n            for (uint j = 0; j < what.length; j++)\r\n                if (where [i + j] != what [j]) {\r\n                    flag = false;\r\n                    break;\r\n                }\r\n            if (flag) {\r\n                found = true;\r\n                break;\r\n            }\r\n        }\r\n\r\n        return found;\r\n    }\r\n\r\n    function getColors(address forAddress, uint256 tokenId) external view returns (string memory backColor, string memory frameColor, string memory digitColor, string memory slugColor) {\r\n\r\n        string[] memory colors = tokenId < 99999 ? _backColorsForAddress[forAddress] : new string[](0); // pseudo use of tokenId to prevent warnings. We still want the tokenId in the method arguments to be able to modify colors by the tokenId in the future.\r\n        string memory back = getColorFromArray(colors, \"#FFFFFF\", \"back\");\r\n        \r\n        colors = _frameColorsForAddress[forAddress];\r\n        string memory frame = getColorFromArray(colors, \"#000000\", \"frame\");\r\n        \r\n        colors = _digitColorsForAddress[forAddress];\r\n        string memory digit = getColorFromArray(colors, \"#000000\", \"digit\");\r\n        \r\n        colors = _slugColorsForAddress[forAddress];\r\n        string memory slug = getColorFromArray(colors, \"#FFFFFF\", \"slug\");\r\n        \r\n        return (back, frame, digit, slug);\r\n    }\r\n\r\n    function getColorFromArray(string[] memory colors, string memory fallbackValue, string memory application) internal pure returns (string memory) {\r\n\r\n        string memory color;\r\n\r\n        // https://ethereum.stackexchange.com/questions/63653/why-i-cannot-loop-through-array-backwards-in-solidity/63654\r\n        for (uint256 i = colors.length; i > 0; i--) {\r\n            if (bytes(colors[i - 1]).length > 0) {\r\n                color = colors[i - 1];\r\n                break;\r\n            }\r\n        }\r\n\r\n        if (bytes(color).length == 0) {\r\n            color = fallbackValue;\r\n        }\r\n\r\n        return formatColor(color, application);\r\n    }\r\n\r\n    function formatColor(string memory color, string memory application) internal pure returns (string memory) {\r\n\r\n        // turn hex colors like #527862 into a linear gradient\r\n        if (bytes(color).length <= 7) {\r\n            return string(abi.encodePacked(\"<linearGradient id='\", application, \"'><stop stop-color='\", color, \"'/></linearGradient>\"));\r\n        }\r\n\r\n        return color;\r\n    }\r\n}",
  "sourcePath": "D:\\Develop\\GitHub\\OG+\\src\\contracts\\OGColor.sol",
  "compiler": {
    "name": "solc",
    "version": "0.8.0+commit.c7dfd78e.Emscripten.clang"
  },
  "schemaVersion": "3.4.3",
  "updatedAt": "2022-02-02T23:16:42.549Z",
  "networkType": "ethereum",
  "devdoc": {
    "author": "nfttank.eth",
    "kind": "dev",
    "methods": {
      "approve(address,uint256)": {
        "details": "See {IERC721-approve}."
      },
      "balanceOf(address)": {
        "details": "See {IERC721-balanceOf}."
      },
      "getApproved(uint256)": {
        "details": "See {IERC721-getApproved}."
      },
      "isApprovedForAll(address,address)": {
        "details": "See {IERC721-isApprovedForAll}."
      },
      "mint(string,string)": {
        "details": "Mint a color for a specific application for all your OG tokens you hold in the same wallet. Applications are back, frame, digit & slug. It's recommended to use lower case color strings like #ffffff instead of #FFFFFF."
      },
      "name()": {
        "details": "See {IERC721Metadata-name}."
      },
      "owner()": {
        "details": "Returns the address of the current owner."
      },
      "ownerOf(uint256)": {
        "details": "See {IERC721-ownerOf}."
      },
      "renounceOwnership()": {
        "details": "Leaves the contract without owner. It will not be possible to call `onlyOwner` functions anymore. Can only be called by the current owner. NOTE: Renouncing ownership will leave the contract without an owner, thereby removing any functionality that is only available to the owner."
      },
      "safeTransferFrom(address,address,uint256)": {
        "details": "See {IERC721-safeTransferFrom}."
      },
      "safeTransferFrom(address,address,uint256,bytes)": {
        "details": "See {IERC721-safeTransferFrom}."
      },
      "setApprovalForAll(address,bool)": {
        "details": "See {IERC721-setApprovalForAll}."
      },
      "supportsInterface(bytes4)": {
        "details": "See {IERC165-supportsInterface}."
      },
      "symbol()": {
        "details": "See {IERC721Metadata-symbol}."
      },
      "tokenURI(uint256)": {
        "details": "See {IERC721Metadata-tokenURI}."
      },
      "transferFrom(address,address,uint256)": {
        "details": "See {IERC721-transferFrom}."
      },
      "transferOwnership(address)": {
        "details": "Transfers ownership of the contract to a new account (`newOwner`). Can only be called by the current owner."
      }
    },
    "title": "Defines colors for OG NFTs. When minting, a color and an application (which part of the OG NFT to colorize) has to be defined. There are four different applications (back, frame, digit, slug).",
    "version": 1
  },
  "userdoc": {
    "kind": "user",
    "methods": {},
    "version": 1
  }
}