{
  "contractName": "OGColor",
  "abi": [
    {
      "inputs": [],
      "stateMutability": "nonpayable",
      "type": "constructor"
    },
    {
      "anonymous": false,
      "inputs": [
        {
          "indexed": true,
          "internalType": "address",
          "name": "owner",
          "type": "address"
        },
        {
          "indexed": true,
          "internalType": "address",
          "name": "approved",
          "type": "address"
        },
        {
          "indexed": true,
          "internalType": "uint256",
          "name": "tokenId",
          "type": "uint256"
        }
      ],
      "name": "Approval",
      "type": "event"
    },
    {
      "anonymous": false,
      "inputs": [
        {
          "indexed": true,
          "internalType": "address",
          "name": "owner",
          "type": "address"
        },
        {
          "indexed": true,
          "internalType": "address",
          "name": "operator",
          "type": "address"
        },
        {
          "indexed": false,
          "internalType": "bool",
          "name": "approved",
          "type": "bool"
        }
      ],
      "name": "ApprovalForAll",
      "type": "event"
    },
    {
      "anonymous": false,
      "inputs": [
        {
          "indexed": true,
          "internalType": "address",
          "name": "previousOwner",
          "type": "address"
        },
        {
          "indexed": true,
          "internalType": "address",
          "name": "newOwner",
          "type": "address"
        }
      ],
      "name": "OwnershipTransferred",
      "type": "event"
    },
    {
      "anonymous": false,
      "inputs": [
        {
          "indexed": true,
          "internalType": "address",
          "name": "from",
          "type": "address"
        },
        {
          "indexed": true,
          "internalType": "address",
          "name": "to",
          "type": "address"
        },
        {
          "indexed": true,
          "internalType": "uint256",
          "name": "tokenId",
          "type": "uint256"
        }
      ],
      "name": "Transfer",
      "type": "event"
    },
    {
      "inputs": [
        {
          "internalType": "address",
          "name": "to",
          "type": "address"
        },
        {
          "internalType": "uint256",
          "name": "tokenId",
          "type": "uint256"
        }
      ],
      "name": "approve",
      "outputs": [],
      "stateMutability": "nonpayable",
      "type": "function"
    },
    {
      "inputs": [
        {
          "internalType": "address",
          "name": "owner",
          "type": "address"
        }
      ],
      "name": "balanceOf",
      "outputs": [
        {
          "internalType": "uint256",
          "name": "",
          "type": "uint256"
        }
      ],
      "stateMutability": "view",
      "type": "function",
      "constant": true
    },
    {
      "inputs": [
        {
          "internalType": "uint256",
          "name": "tokenId",
          "type": "uint256"
        }
      ],
      "name": "getApproved",
      "outputs": [
        {
          "internalType": "address",
          "name": "",
          "type": "address"
        }
      ],
      "stateMutability": "view",
      "type": "function",
      "constant": true
    },
    {
      "inputs": [
        {
          "internalType": "address",
          "name": "owner",
          "type": "address"
        },
        {
          "internalType": "address",
          "name": "operator",
          "type": "address"
        }
      ],
      "name": "isApprovedForAll",
      "outputs": [
        {
          "internalType": "bool",
          "name": "",
          "type": "bool"
        }
      ],
      "stateMutability": "view",
      "type": "function",
      "constant": true
    },
    {
      "inputs": [],
      "name": "name",
      "outputs": [
        {
          "internalType": "string",
          "name": "",
          "type": "string"
        }
      ],
      "stateMutability": "view",
      "type": "function",
      "constant": true
    },
    {
      "inputs": [],
      "name": "owner",
      "outputs": [
        {
          "internalType": "address",
          "name": "",
          "type": "address"
        }
      ],
      "stateMutability": "view",
      "type": "function",
      "constant": true
    },
    {
      "inputs": [
        {
          "internalType": "uint256",
          "name": "tokenId",
          "type": "uint256"
        }
      ],
      "name": "ownerOf",
      "outputs": [
        {
          "internalType": "address",
          "name": "",
          "type": "address"
        }
      ],
      "stateMutability": "view",
      "type": "function",
      "constant": true
    },
    {
      "inputs": [],
      "name": "renounceOwnership",
      "outputs": [],
      "stateMutability": "nonpayable",
      "type": "function"
    },
    {
      "inputs": [
        {
          "internalType": "address",
          "name": "from",
          "type": "address"
        },
        {
          "internalType": "address",
          "name": "to",
          "type": "address"
        },
        {
          "internalType": "uint256",
          "name": "tokenId",
          "type": "uint256"
        }
      ],
      "name": "safeTransferFrom",
      "outputs": [],
      "stateMutability": "nonpayable",
      "type": "function"
    },
    {
      "inputs": [
        {
          "internalType": "address",
          "name": "from",
          "type": "address"
        },
        {
          "internalType": "address",
          "name": "to",
          "type": "address"
        },
        {
          "internalType": "uint256",
          "name": "tokenId",
          "type": "uint256"
        },
        {
          "internalType": "bytes",
          "name": "_data",
          "type": "bytes"
        }
      ],
      "name": "safeTransferFrom",
      "outputs": [],
      "stateMutability": "nonpayable",
      "type": "function"
    },
    {
      "inputs": [
        {
          "internalType": "address",
          "name": "operator",
          "type": "address"
        },
        {
          "internalType": "bool",
          "name": "approved",
          "type": "bool"
        }
      ],
      "name": "setApprovalForAll",
      "outputs": [],
      "stateMutability": "nonpayable",
      "type": "function"
    },
    {
      "inputs": [
        {
          "internalType": "bytes4",
          "name": "interfaceId",
          "type": "bytes4"
        }
      ],
      "name": "supportsInterface",
      "outputs": [
        {
          "internalType": "bool",
          "name": "",
          "type": "bool"
        }
      ],
      "stateMutability": "view",
      "type": "function",
      "constant": true
    },
    {
      "inputs": [],
      "name": "symbol",
      "outputs": [
        {
          "internalType": "string",
          "name": "",
          "type": "string"
        }
      ],
      "stateMutability": "view",
      "type": "function",
      "constant": true
    },
    {
      "inputs": [
        {
          "internalType": "uint256",
          "name": "tokenId",
          "type": "uint256"
        }
      ],
      "name": "tokenURI",
      "outputs": [
        {
          "internalType": "string",
          "name": "",
          "type": "string"
        }
      ],
      "stateMutability": "view",
      "type": "function",
      "constant": true
    },
    {
      "inputs": [
        {
          "internalType": "address",
          "name": "from",
          "type": "address"
        },
        {
          "internalType": "address",
          "name": "to",
          "type": "address"
        },
        {
          "internalType": "uint256",
          "name": "tokenId",
          "type": "uint256"
        }
      ],
      "name": "transferFrom",
      "outputs": [],
      "stateMutability": "nonpayable",
      "type": "function"
    },
    {
      "inputs": [
        {
          "internalType": "address",
          "name": "newOwner",
          "type": "address"
        }
      ],
      "name": "transferOwnership",
      "outputs": [],
      "stateMutability": "nonpayable",
      "type": "function"
    },
    {
      "inputs": [
        {
          "internalType": "string",
          "name": "application",
          "type": "string"
        },
        {
          "internalType": "string",
          "name": "hexColor",
          "type": "string"
        }
      ],
      "name": "mint",
      "outputs": [],
      "stateMutability": "nonpayable",
      "type": "function"
    },
    {
      "inputs": [
        {
          "internalType": "string",
          "name": "hexColor",
          "type": "string"
        }
      ],
      "name": "isValidHexColor",
      "outputs": [
        {
          "internalType": "bool",
          "name": "",
          "type": "bool"
        }
      ],
      "stateMutability": "pure",
      "type": "function",
      "constant": true
    },
    {
      "inputs": [
        {
          "internalType": "address",
          "name": "forAddress",
          "type": "address"
        },
        {
          "internalType": "uint256",
          "name": "tokenId",
          "type": "uint256"
        }
      ],
      "name": "getColors",
      "outputs": [
        {
          "internalType": "string",
          "name": "backColor",
          "type": "string"
        },
        {
          "internalType": "string",
          "name": "frameColor",
          "type": "string"
        },
        {
          "internalType": "string",
          "name": "digitColor",
          "type": "string"
        },
        {
          "internalType": "string",
          "name": "slugColor",
          "type": "string"
        }
      ],
      "stateMutability": "view",
      "type": "function",
      "constant": true
    }
  ],
  "bytecode": "0x60806040523480156200001157600080fd5b506040518060400160405280600781526020017f4f47436f6c6f72000000000000000000000000000000000000000000000000008152506040518060400160405280600781526020017f4f47434f4c4f5200000000000000000000000000000000000000000000000000815250816000908051906020019062000096929190620001ae565b508060019080519060200190620000af929190620001ae565b5050506001600681905550620000da620000ce620000e060201b60201c565b620000e860201b60201c565b620002c3565b600033905090565b6000600760009054906101000a900473ffffffffffffffffffffffffffffffffffffffff16905081600760006101000a81548173ffffffffffffffffffffffffffffffffffffffff021916908373ffffffffffffffffffffffffffffffffffffffff1602179055508173ffffffffffffffffffffffffffffffffffffffff168173ffffffffffffffffffffffffffffffffffffffff167f8be0079c531659141344cd1fd0a4f28419497f9722a3daafe3b4186f6b6457e060405160405180910390a35050565b828054620001bc906200025e565b90600052602060002090601f016020900481019282620001e057600085556200022c565b82601f10620001fb57805160ff19168380011785556200022c565b828001600101855582156200022c579182015b828111156200022b5782518255916020019190600101906200020e565b5b5090506200023b91906200023f565b5090565b5b808211156200025a57600081600090555060010162000240565b5090565b600060028204905060018216806200027757607f821691505b602082108114156200028e576200028d62000294565b5b50919050565b7f4e487b7100000000000000000000000000000000000000000000000000000000600052602260045260246000fd5b61434b80620002d36000396000f3fe608060405234801561001057600080fd5b50600436106101215760003560e01c806370a08231116100ad578063a22cb46511610071578063a22cb4651461031d578063b88d4fde14610339578063c87b56dd14610355578063e985e9c514610385578063f2fde38b146103b557610121565b806370a082311461028b578063715018a6146102bb5780638aa0fdad146102c55780638da5cb5b146102e157806395d89b41146102ff57610121565b8063095ea7b3116100f4578063095ea7b3146101d4578063116e85bf146101f057806323b872dd1461022357806342842e0e1461023f5780636352211e1461025b57610121565b806301ffc9a71461012657806306adaa6c1461015657806306fdde0314610186578063081812fc146101a4575b600080fd5b610140600480360381019061013b919061304e565b6103d1565b60405161014d9190613aec565b60405180910390f35b610170600480360381019061016b91906130a0565b6104b3565b60405161017d9190613aec565b60405180910390f35b61018e610662565b60405161019b9190613b07565b60405180910390f35b6101be60048036038101906101b9919061315a565b6106f4565b6040516101cb9190613a85565b60405180910390f35b6101ee60048036038101906101e99190613012565b610779565b005b61020a60048036038101906102059190613012565b610891565b60405161021a9493929190613b29565b60405180910390f35b61023d60048036038101906102389190612f0c565b610e88565b005b61025960048036038101906102549190612f0c565b610ee8565b005b6102756004803603810190610270919061315a565b610f08565b6040516102829190613a85565b60405180910390f35b6102a560048036038101906102a09190612ea7565b610fba565b6040516102b29190613e0a565b60405180910390f35b6102c3611072565b005b6102df60048036038101906102da91906130e5565b6110fa565b005b6102e96112ae565b6040516102f69190613a85565b60405180910390f35b6103076112d8565b6040516103149190613b07565b60405180910390f35b61033760048036038101906103329190612fd6565b61136a565b005b610353600480360381019061034e9190612f5b565b611380565b005b61036f600480360381019061036a919061315a565b6113e2565b60405161037c9190613b07565b60405180910390f35b61039f600480360381019061039a9190612ed0565b611489565b6040516103ac9190613aec565b60405180910390f35b6103cf60048036038101906103ca9190612ea7565b61151d565b005b60007f80ac58cd000000000000000000000000000000000000000000000000000000007bffffffffffffffffffffffffffffffffffffffffffffffffffffffff1916827bffffffffffffffffffffffffffffffffffffffffffffffffffffffff1916148061049c57507f5b5e139f000000000000000000000000000000000000000000000000000000007bffffffffffffffffffffffffffffffffffffffffffffffffffffffff1916827bffffffffffffffffffffffffffffffffffffffffffffffffffffffff1916145b806104ac57506104ab82611615565b5b9050919050565b60008083838080601f016020809104026020016040519081016040528093929190818152602001838380828437600081840152601f19601f820116905080830192505050505050509050600781511461051057600091505061065c565b60005b81518161ffff161015610655576000828261ffff168151811061055f577f4e487b7100000000000000000000000000000000000000000000000000000000600052603260045260246000fd5b602001015160f81c60f81b60f81c60ff16905060008261ffff16141561059b5760238160010b14610596576000935050505061065c565b610641565b60006030826105aa9190613f70565b905060006041836105bb9190613f70565b905060006061846105cc9190613f70565b90506000808460010b121580156105e7575060098460010b13155b80610606575060008360010b12158015610605575060058360010b13155b5b80610625575060008260010b12158015610624575060058260010b13155b5b90508061063c57600097505050505050505061065c565b505050505b50808061064d90614147565b915050610513565b5060019150505b92915050565b60606000805461067190614115565b80601f016020809104026020016040519081016040528092919081815260200182805461069d90614115565b80156106ea5780601f106106bf576101008083540402835291602001916106ea565b820191906000526020600020905b8154815290600101906020018083116106cd57829003601f168201915b5050505050905090565b60006106ff8261167f565b61073e576040517f08c379a000000000000000000000000000000000000000000000000000000000815260040161073590613d0a565b60405180910390fd5b6004600083815260200190815260200160002060009054906101000a900473ffffffffffffffffffffffffffffffffffffffff169050919050565b600061078482610f08565b90508073ffffffffffffffffffffffffffffffffffffffff168373ffffffffffffffffffffffffffffffffffffffff1614156107f5576040517f08c379a00000000000000000000000000000000000000000000000000000000081526004016107ec90613daa565b60405180910390fd5b8073ffffffffffffffffffffffffffffffffffffffff166108146116eb565b73ffffffffffffffffffffffffffffffffffffffff16148061084357506108428161083d6116eb565b611489565b5b610882576040517f08c379a000000000000000000000000000000000000000000000000000000000815260040161087990613c8a565b60405180910390fd5b61088c83836116f3565b505050565b60608060608060006201869f861061091d57600067ffffffffffffffff8111156108e4577f4e487b7100000000000000000000000000000000000000000000000000000000600052604160045260246000fd5b60405190808252806020026020018201604052801561091757816020015b60608152602001906001900390816109025790505b50610a2d565b600b60008873ffffffffffffffffffffffffffffffffffffffff1673ffffffffffffffffffffffffffffffffffffffff168152602001908152602001600020805480602002602001604051908101604052809291908181526020016000905b82821015610a2857838290600052602060002001805461099b90614115565b80601f01602080910402602001604051908101604052809291908181526020018280546109c790614115565b8015610a145780601f106109e957610100808354040283529160200191610a14565b820191906000526020600020905b8154815290600101906020018083116109f757829003601f168201915b50505050508152602001906001019061097c565b505050505b90506000610a70826040518060400160405280600781526020017f23464646464646000000000000000000000000000000000000000000000000008152506117ac565b9050600c60008973ffffffffffffffffffffffffffffffffffffffff1673ffffffffffffffffffffffffffffffffffffffff168152602001908152602001600020805480602002602001604051908101604052809291908181526020016000905b82821015610b7d578382906000526020600020018054610af090614115565b80601f0160208091040260200160405190810160405280929190818152602001828054610b1c90614115565b8015610b695780601f10610b3e57610100808354040283529160200191610b69565b820191906000526020600020905b815481529060010190602001808311610b4c57829003601f168201915b505050505081526020019060010190610ad1565b5050505091506000610bc4836040518060400160405280600781526020017f23303030303030000000000000000000000000000000000000000000000000008152506117ac565b9050600d60008a73ffffffffffffffffffffffffffffffffffffffff1673ffffffffffffffffffffffffffffffffffffffff168152602001908152602001600020805480602002602001604051908101604052809291908181526020016000905b82821015610cd1578382906000526020600020018054610c4490614115565b80601f0160208091040260200160405190810160405280929190818152602001828054610c7090614115565b8015610cbd5780601f10610c9257610100808354040283529160200191610cbd565b820191906000526020600020905b815481529060010190602001808311610ca057829003601f168201915b505050505081526020019060010190610c25565b5050505092506000610d18846040518060400160405280600781526020017f23303030303030000000000000000000000000000000000000000000000000008152506117ac565b9050600e60008b73ffffffffffffffffffffffffffffffffffffffff1673ffffffffffffffffffffffffffffffffffffffff168152602001908152602001600020805480602002602001604051908101604052809291908181526020016000905b82821015610e25578382906000526020600020018054610d9890614115565b80601f0160208091040260200160405190810160405280929190818152602001828054610dc490614115565b8015610e115780601f10610de657610100808354040283529160200191610e11565b820191906000526020600020905b815481529060010190602001808311610df457829003601f168201915b505050505081526020019060010190610d79565b5050505093506000610e6c856040518060400160405280600781526020017f23464646464646000000000000000000000000000000000000000000000000008152506117ac565b9050838383839850985098509850505050505092959194509250565b610e99610e936116eb565b82611887565b610ed8576040517f08c379a0000000000000000000000000000000000000000000000000000000008152600401610ecf90613dca565b60405180910390fd5b610ee3838383611965565b505050565b610f0383838360405180602001604052806000815250611380565b505050565b6000806002600084815260200190815260200160002060009054906101000a900473ffffffffffffffffffffffffffffffffffffffff169050600073ffffffffffffffffffffffffffffffffffffffff168173ffffffffffffffffffffffffffffffffffffffff161415610fb1576040517f08c379a0000000000000000000000000000000000000000000000000000000008152600401610fa890613cca565b60405180910390fd5b80915050919050565b60008073ffffffffffffffffffffffffffffffffffffffff168273ffffffffffffffffffffffffffffffffffffffff16141561102b576040517f08c379a000000000000000000000000000000000000000000000000000000000815260040161102290613caa565b60405180910390fd5b600360008373ffffffffffffffffffffffffffffffffffffffff1673ffffffffffffffffffffffffffffffffffffffff168152602001908152602001600020549050919050565b61107a6116eb565b73ffffffffffffffffffffffffffffffffffffffff166110986112ae565b73ffffffffffffffffffffffffffffffffffffffff16146110ee576040517f08c379a00000000000000000000000000000000000000000000000000000000081526004016110e590613d2a565b60405180910390fd5b6110f86000611bc1565b565b60026006541415611140576040517f08c379a000000000000000000000000000000000000000000000000000000000815260040161113790613dea565b60405180910390fd5b600260068190555060ff60016008546111599190613ee9565b10611199576040517f08c379a000000000000000000000000000000000000000000000000000000000815260040161119090613bea565b60405180910390fd5b6111a38484611c87565b6111e2576040517f08c379a00000000000000000000000000000000000000000000000000000000081526004016111d990613c6a565b60405180910390fd5b6111ec82826104b3565b61122b576040517f08c379a000000000000000000000000000000000000000000000000000000000815260040161122290613d4a565b60405180910390fd5b6008600081548092919061123e90614172565b919050555081816009600060085481526020019081526020016000209190611267929190612c23565b508383600a60006008548152602001908152602001600020919061128c929190612c23565b506112a06112986116eb565b600854611d4e565b600160068190555050505050565b6000600760009054906101000a900473ffffffffffffffffffffffffffffffffffffffff16905090565b6060600180546112e790614115565b80601f016020809104026020016040519081016040528092919081815260200182805461131390614115565b80156113605780601f1061133557610100808354040283529160200191611360565b820191906000526020600020905b81548152906001019060200180831161134357829003601f168201915b5050505050905090565b61137c6113756116eb565b8383611d6c565b5050565b61139161138b6116eb565b83611887565b6113d0576040517f08c379a00000000000000000000000000000000000000000000000000000000081526004016113c790613dca565b60405180910390fd5b6113dc84848484611ed9565b50505050565b60606113ed8261167f565b61142c576040517f08c379a000000000000000000000000000000000000000000000000000000000815260040161142390613d8a565b60405180910390fd5b6000611436611f35565b905060008151116114565760405180602001604052806000815250611481565b8061146084611f4c565b604051602001611471929190613a61565b6040516020818303038152906040525b915050919050565b6000600560008473ffffffffffffffffffffffffffffffffffffffff1673ffffffffffffffffffffffffffffffffffffffff16815260200190815260200160002060008373ffffffffffffffffffffffffffffffffffffffff1673ffffffffffffffffffffffffffffffffffffffff16815260200190815260200160002060009054906101000a900460ff16905092915050565b6115256116eb565b73ffffffffffffffffffffffffffffffffffffffff166115436112ae565b73ffffffffffffffffffffffffffffffffffffffff1614611599576040517f08c379a000000000000000000000000000000000000000000000000000000000815260040161159090613d2a565b60405180910390fd5b600073ffffffffffffffffffffffffffffffffffffffff168173ffffffffffffffffffffffffffffffffffffffff161415611609576040517f08c379a000000000000000000000000000000000000000000000000000000000815260040161160090613baa565b60405180910390fd5b61161281611bc1565b50565b60007f01ffc9a7000000000000000000000000000000000000000000000000000000007bffffffffffffffffffffffffffffffffffffffffffffffffffffffff1916827bffffffffffffffffffffffffffffffffffffffffffffffffffffffff1916149050919050565b60008073ffffffffffffffffffffffffffffffffffffffff166002600084815260200190815260200160002060009054906101000a900473ffffffffffffffffffffffffffffffffffffffff1673ffffffffffffffffffffffffffffffffffffffff1614159050919050565b600033905090565b816004600083815260200190815260200160002060006101000a81548173ffffffffffffffffffffffffffffffffffffffff021916908373ffffffffffffffffffffffffffffffffffffffff160217905550808273ffffffffffffffffffffffffffffffffffffffff1661176683610f08565b73ffffffffffffffffffffffffffffffffffffffff167f8c5be1e5ebec7d5bd14f71427d1e84f3dd0314c0f7b2291e5b200ac8c7c3b92560405160405180910390a45050565b60606000835190505b600081111561187c576000846001836117ce9190613fe6565b81518110611805577f4e487b7100000000000000000000000000000000000000000000000000000000600052603260045260246000fd5b602002602001015151111561186957836001826118229190613fe6565b81518110611859577f4e487b7100000000000000000000000000000000000000000000000000000000600052603260045260246000fd5b6020026020010151915050611881565b8080611874906140eb565b9150506117b5565b508190505b92915050565b60006118928261167f565b6118d1576040517f08c379a00000000000000000000000000000000000000000000000000000000081526004016118c890613c4a565b60405180910390fd5b60006118dc83610f08565b90508073ffffffffffffffffffffffffffffffffffffffff168473ffffffffffffffffffffffffffffffffffffffff16148061194b57508373ffffffffffffffffffffffffffffffffffffffff16611933846106f4565b73ffffffffffffffffffffffffffffffffffffffff16145b8061195c575061195b8185611489565b5b91505092915050565b8273ffffffffffffffffffffffffffffffffffffffff1661198582610f08565b73ffffffffffffffffffffffffffffffffffffffff16146119db576040517f08c379a00000000000000000000000000000000000000000000000000000000081526004016119d290613d6a565b60405180910390fd5b600073ffffffffffffffffffffffffffffffffffffffff168273ffffffffffffffffffffffffffffffffffffffff161415611a4b576040517f08c379a0000000000000000000000000000000000000000000000000000000008152600401611a4290613c0a565b60405180910390fd5b611a568383836120f9565b611a616000826116f3565b6001600360008573ffffffffffffffffffffffffffffffffffffffff1673ffffffffffffffffffffffffffffffffffffffff1681526020019081526020016000206000828254611ab19190613fe6565b925050819055506001600360008473ffffffffffffffffffffffffffffffffffffffff1673ffffffffffffffffffffffffffffffffffffffff1681526020019081526020016000206000828254611b089190613ee9565b92505081905550816002600083815260200190815260200160002060006101000a81548173ffffffffffffffffffffffffffffffffffffffff021916908373ffffffffffffffffffffffffffffffffffffffff160217905550808273ffffffffffffffffffffffffffffffffffffffff168473ffffffffffffffffffffffffffffffffffffffff167fddf252ad1be2c89b69c2b068fc378daa952ba7f163c4a11628f55a4df523b3ef60405160405180910390a4505050565b6000600760009054906101000a900473ffffffffffffffffffffffffffffffffffffffff16905081600760006101000a81548173ffffffffffffffffffffffffffffffffffffffff021916908373ffffffffffffffffffffffffffffffffffffffff1602179055508173ffffffffffffffffffffffffffffffffffffffff168173ffffffffffffffffffffffffffffffffffffffff167f8be0079c531659141344cd1fd0a4f28419497f9722a3daafe3b4186f6b6457e060405160405180910390a35050565b6000808383604051611c9a929190613a31565b604051809103902090507ff99975b1b7d766d47f24055dcf9d239a44d26bc887197da89a6e1cb7acbd0a9d811480611cf157507f2aa1b44d53ecaef3818686a0e39502ef57e254136370bf94dbea962d9c1d211581145b80611d1b57507f54b0769b5f3f2b3325755b96837f908e4f387f2ffbfb36e43a599d683c584e0181145b80611d4557507fad031b8dd7bd2be2fd611ae08d0f6eefaff2358a70428446315d94a57c654ddb81145b91505092915050565b611d6882826040518060200160405280600081525061269c565b5050565b8173ffffffffffffffffffffffffffffffffffffffff168373ffffffffffffffffffffffffffffffffffffffff161415611ddb576040517f08c379a0000000000000000000000000000000000000000000000000000000008152600401611dd290613c2a565b60405180910390fd5b80600560008573ffffffffffffffffffffffffffffffffffffffff1673ffffffffffffffffffffffffffffffffffffffff16815260200190815260200160002060008473ffffffffffffffffffffffffffffffffffffffff1673ffffffffffffffffffffffffffffffffffffffff16815260200190815260200160002060006101000a81548160ff0219169083151502179055508173ffffffffffffffffffffffffffffffffffffffff168373ffffffffffffffffffffffffffffffffffffffff167f17307eab39ab6107e8899845ad3d59bd9653f200f220920489ca2b5937696c3183604051611ecc9190613aec565b60405180910390a3505050565b611ee4848484611965565b611ef0848484846126f7565b611f2f576040517f08c379a0000000000000000000000000000000000000000000000000000000008152600401611f2690613b8a565b60405180910390fd5b50505050565b606060405180602001604052806000815250905090565b60606000821415611f94576040518060400160405280600181526020017f300000000000000000000000000000000000000000000000000000000000000081525090506120f4565b600082905060005b60008214611fc6578080611faf90614172565b915050600a82611fbf9190613f3f565b9150611f9c565b60008167ffffffffffffffff811115612008577f4e487b7100000000000000000000000000000000000000000000000000000000600052604160045260246000fd5b6040519080825280601f01601f19166020018201604052801561203a5781602001600182028036833780820191505090505b5090505b600085146120ed576001826120539190613fe6565b9150600a8561206291906141bb565b603061206e9190613ee9565b60f81b8183815181106120aa577f4e487b7100000000000000000000000000000000000000000000000000000000600052603260045260246000fd5b60200101907effffffffffffffffffffffffffffffffffffffffffffffffffffffffffffff1916908160001a905350600a856120e69190613f3f565b945061203e565b8093505050505b919050565b61210483838361288e565b8173ffffffffffffffffffffffffffffffffffffffff168373ffffffffffffffffffffffffffffffffffffffff16141561213d57612697565b600060096000838152602001908152602001600020805461215d90614115565b80601f016020809104026020016040519081016040528092919081815260200182805461218990614115565b80156121d65780601f106121ab576101008083540402835291602001916121d6565b820191906000526020600020905b8154815290600101906020018083116121b957829003601f168201915b505050505090506000600a60008481526020019081526020016000206040516121ff9190613a4a565b604051809103902090507ff99975b1b7d766d47f24055dcf9d239a44d26bc887197da89a6e1cb7acbd0a9d81141561232c57600073ffffffffffffffffffffffffffffffffffffffff168573ffffffffffffffffffffffffffffffffffffffff16146122ae576122ad600b60008773ffffffffffffffffffffffffffffffffffffffff1673ffffffffffffffffffffffffffffffffffffffff16815260200190815260200160002083612893565b5b600b60008573ffffffffffffffffffffffffffffffffffffffff1673ffffffffffffffffffffffffffffffffffffffff16815260200190815260200160002082908060018154018082558091505060019003906000526020600020016000909190919091509080519060200190612326929190612ca9565b50612694565b7f2aa1b44d53ecaef3818686a0e39502ef57e254136370bf94dbea962d9c1d211581141561244f57600073ffffffffffffffffffffffffffffffffffffffff168573ffffffffffffffffffffffffffffffffffffffff16146123d1576123d0600c60008773ffffffffffffffffffffffffffffffffffffffff1673ffffffffffffffffffffffffffffffffffffffff16815260200190815260200160002083612893565b5b600c60008573ffffffffffffffffffffffffffffffffffffffff1673ffffffffffffffffffffffffffffffffffffffff16815260200190815260200160002082908060018154018082558091505060019003906000526020600020016000909190919091509080519060200190612449929190612ca9565b50612693565b7f54b0769b5f3f2b3325755b96837f908e4f387f2ffbfb36e43a599d683c584e0181141561257257600073ffffffffffffffffffffffffffffffffffffffff168573ffffffffffffffffffffffffffffffffffffffff16146124f4576124f3600d60008773ffffffffffffffffffffffffffffffffffffffff1673ffffffffffffffffffffffffffffffffffffffff16815260200190815260200160002083612893565b5b600d60008573ffffffffffffffffffffffffffffffffffffffff1673ffffffffffffffffffffffffffffffffffffffff1681526020019081526020016000208290806001815401808255809150506001900390600052602060002001600090919091909150908051906020019061256c929190612ca9565b50612692565b7fad031b8dd7bd2be2fd611ae08d0f6eefaff2358a70428446315d94a57c654ddb81141561269157600073ffffffffffffffffffffffffffffffffffffffff168573ffffffffffffffffffffffffffffffffffffffff161461261757612616600e60008773ffffffffffffffffffffffffffffffffffffffff1673ffffffffffffffffffffffffffffffffffffffff16815260200190815260200160002083612893565b5b600e60008573ffffffffffffffffffffffffffffffffffffffff1673ffffffffffffffffffffffffffffffffffffffff1681526020019081526020016000208290806001815401808255809150506001900390600052602060002001600090919091909150908051906020019061268f929190612ca9565b505b5b5b5b50505b505050565b6126a68383612a06565b6126b360008484846126f7565b6126f2576040517f08c379a00000000000000000000000000000000000000000000000000000000081526004016126e990613b8a565b60405180910390fd5b505050565b60006127188473ffffffffffffffffffffffffffffffffffffffff16612bd4565b15612881578373ffffffffffffffffffffffffffffffffffffffff1663150b7a026127416116eb565b8786866040518563ffffffff1660e01b81526004016127639493929190613aa0565b602060405180830381600087803b15801561277d57600080fd5b505af19250505080156127ae57506040513d601f19601f820116820180604052508101906127ab9190613077565b60015b612831573d80600081146127de576040519150601f19603f3d011682016040523d82523d6000602084013e6127e3565b606091505b50600081511415612829576040517f08c379a000000000000000000000000000000000000000000000000000000000815260040161282090613b8a565b60405180910390fd5b805181602001fd5b63150b7a0260e01b7bffffffffffffffffffffffffffffffffffffffffffffffffffffffff1916817bffffffffffffffffffffffffffffffffffffffffffffffffffffffff191614915050612886565b600190505b949350505050565b505050565b6000828054905090505b6000811115612a0057612987836001836128b79190613fe6565b815481106128ee577f4e487b7100000000000000000000000000000000000000000000000000000000600052603260045260246000fd5b90600052602060002001805461290390614115565b80601f016020809104026020016040519081016040528092919081815260200182805461292f90614115565b801561297c5780601f106129515761010080835404028352916020019161297c565b820191906000526020600020905b81548152906001019060200180831161295f57829003601f168201915b505050505083612be7565b156129ed578260018261299a9190613fe6565b815481106129d1577f4e487b7100000000000000000000000000000000000000000000000000000000600052603260045260246000fd5b9060005260206000200160006129e79190612d2f565b50612a02565b80806129f8906140eb565b91505061289d565b505b5050565b600073ffffffffffffffffffffffffffffffffffffffff168273ffffffffffffffffffffffffffffffffffffffff161415612a76576040517f08c379a0000000000000000000000000000000000000000000000000000000008152600401612a6d90613cea565b60405180910390fd5b612a7f8161167f565b15612abf576040517f08c379a0000000000000000000000000000000000000000000000000000000008152600401612ab690613bca565b60405180910390fd5b612acb600083836120f9565b6001600360008473ffffffffffffffffffffffffffffffffffffffff1673ffffffffffffffffffffffffffffffffffffffff1681526020019081526020016000206000828254612b1b9190613ee9565b92505081905550816002600083815260200190815260200160002060006101000a81548173ffffffffffffffffffffffffffffffffffffffff021916908373ffffffffffffffffffffffffffffffffffffffff160217905550808273ffffffffffffffffffffffffffffffffffffffff16600073ffffffffffffffffffffffffffffffffffffffff167fddf252ad1be2c89b69c2b068fc378daa952ba7f163c4a11628f55a4df523b3ef60405160405180910390a45050565b600080823b905060008111915050919050565b6000612bf38383612bfb565b905092915050565b600081518351148015612c1b575081805190602001208380519060200120145b905092915050565b828054612c2f90614115565b90600052602060002090601f016020900481019282612c515760008555612c98565b82601f10612c6a57803560ff1916838001178555612c98565b82800160010185558215612c98579182015b82811115612c97578235825591602001919060010190612c7c565b5b509050612ca59190612d6f565b5090565b828054612cb590614115565b90600052602060002090601f016020900481019282612cd75760008555612d1e565b82601f10612cf057805160ff1916838001178555612d1e565b82800160010185558215612d1e579182015b82811115612d1d578251825591602001919060010190612d02565b5b509050612d2b9190612d6f565b5090565b508054612d3b90614115565b6000825580601f10612d4d5750612d6c565b601f016020900490600052602060002090810190612d6b9190612d6f565b5b50565b5b80821115612d88576000816000905550600101612d70565b5090565b6000612d9f612d9a84613e56565b613e25565b905082815260208101848484011115612db757600080fd5b612dc28482856140a9565b509392505050565b600081359050612dd9816142b9565b92915050565b600081359050612dee816142d0565b92915050565b600081359050612e03816142e7565b92915050565b600081519050612e18816142e7565b92915050565b600082601f830112612e2f57600080fd5b8135612e3f848260208601612d8c565b91505092915050565b60008083601f840112612e5a57600080fd5b8235905067ffffffffffffffff811115612e7357600080fd5b602083019150836001820283011115612e8b57600080fd5b9250929050565b600081359050612ea1816142fe565b92915050565b600060208284031215612eb957600080fd5b6000612ec784828501612dca565b91505092915050565b60008060408385031215612ee357600080fd5b6000612ef185828601612dca565b9250506020612f0285828601612dca565b9150509250929050565b600080600060608486031215612f2157600080fd5b6000612f2f86828701612dca565b9350506020612f4086828701612dca565b9250506040612f5186828701612e92565b9150509250925092565b60008060008060808587031215612f7157600080fd5b6000612f7f87828801612dca565b9450506020612f9087828801612dca565b9350506040612fa187828801612e92565b925050606085013567ffffffffffffffff811115612fbe57600080fd5b612fca87828801612e1e565b91505092959194509250565b60008060408385031215612fe957600080fd5b6000612ff785828601612dca565b925050602061300885828601612ddf565b9150509250929050565b6000806040838503121561302557600080fd5b600061303385828601612dca565b925050602061304485828601612e92565b9150509250929050565b60006020828403121561306057600080fd5b600061306e84828501612df4565b91505092915050565b60006020828403121561308957600080fd5b600061309784828501612e09565b91505092915050565b600080602083850312156130b357600080fd5b600083013567ffffffffffffffff8111156130cd57600080fd5b6130d985828601612e48565b92509250509250929050565b600080600080604085870312156130fb57600080fd5b600085013567ffffffffffffffff81111561311557600080fd5b61312187828801612e48565b9450945050602085013567ffffffffffffffff81111561314057600080fd5b61314c87828801612e48565b925092505092959194509250565b60006020828403121561316c57600080fd5b600061317a84828501612e92565b91505092915050565b61318c8161401a565b82525050565b61319b8161402c565b82525050565b60006131ad8385613ec2565b93506131ba8385846140a9565b82840190509392505050565b60006131d182613e9b565b6131db8185613eb1565b93506131eb8185602086016140b8565b6131f4816142a8565b840191505092915050565b6000815461320c81614115565b6132168186613ec2565b94506001821660008114613231576001811461324257613275565b60ff19831686528186019350613275565b61324b85613e86565b60005b8381101561326d5781548189015260018201915060208101905061324e565b838801955050505b50505092915050565b600061328982613ea6565b6132938185613ecd565b93506132a38185602086016140b8565b6132ac816142a8565b840191505092915050565b60006132c282613ea6565b6132cc8185613ede565b93506132dc8185602086016140b8565b80840191505092915050565b60006132f5603283613ecd565b91507f4552433732313a207472616e7366657220746f206e6f6e20455243373231526560008301527f63656976657220696d706c656d656e74657200000000000000000000000000006020830152604082019050919050565b600061335b602683613ecd565b91507f4f776e61626c653a206e6577206f776e657220697320746865207a65726f206160008301527f64647265737300000000000000000000000000000000000000000000000000006020830152604082019050919050565b60006133c1601c83613ecd565b91507f4552433732313a20746f6b656e20616c7265616479206d696e746564000000006000830152602082019050919050565b6000613401601983613ecd565b91507f4e6f206672656520746f6b656e7320617661696c61626c652e000000000000006000830152602082019050919050565b6000613441602483613ecd565b91507f4552433732313a207472616e7366657220746f20746865207a65726f2061646460008301527f72657373000000000000000000000000000000000000000000000000000000006020830152604082019050919050565b60006134a7601983613ecd565b91507f4552433732313a20617070726f766520746f2063616c6c6572000000000000006000830152602082019050919050565b60006134e7602c83613ecd565b91507f4552433732313a206f70657261746f7220717565727920666f72206e6f6e657860008301527f697374656e7420746f6b656e00000000000000000000000000000000000000006020830152604082019050919050565b600061354d604583613ecd565b91507f4170706c69636174696f6e20696e76616c69642c20616c6c6f7765642061726560008301527f20276261636b272c20276672616d65272c202764696769742720616e6420277360208301527f6c7567272e0000000000000000000000000000000000000000000000000000006040830152606082019050919050565b60006135d9603883613ecd565b91507f4552433732313a20617070726f76652063616c6c6572206973206e6f74206f7760008301527f6e6572206e6f7220617070726f76656420666f7220616c6c00000000000000006020830152604082019050919050565b600061363f602a83613ecd565b91507f4552433732313a2062616c616e636520717565727920666f7220746865207a6560008301527f726f2061646472657373000000000000000000000000000000000000000000006020830152604082019050919050565b60006136a5602983613ecd565b91507f4552433732313a206f776e657220717565727920666f72206e6f6e657869737460008301527f656e7420746f6b656e00000000000000000000000000000000000000000000006020830152604082019050919050565b600061370b602083613ecd565b91507f4552433732313a206d696e7420746f20746865207a65726f20616464726573736000830152602082019050919050565b600061374b602c83613ecd565b91507f4552433732313a20617070726f76656420717565727920666f72206e6f6e657860008301527f697374656e7420746f6b656e00000000000000000000000000000000000000006020830152604082019050919050565b60006137b1602083613ecd565b91507f4f776e61626c653a2063616c6c6572206973206e6f7420746865206f776e65726000830152602082019050919050565b60006137f1602d83613ecd565b91507f436f6c6f7220696e76616c69642c207573652068657820666f726d6174206c6960008301527f6b65202723323234343636272e000000000000000000000000000000000000006020830152604082019050919050565b6000613857602983613ecd565b91507f4552433732313a207472616e73666572206f6620746f6b656e2074686174206960008301527f73206e6f74206f776e00000000000000000000000000000000000000000000006020830152604082019050919050565b60006138bd602f83613ecd565b91507f4552433732314d657461646174613a2055524920717565727920666f72206e6f60008301527f6e6578697374656e7420746f6b656e00000000000000000000000000000000006020830152604082019050919050565b6000613923602183613ecd565b91507f4552433732313a20617070726f76616c20746f2063757272656e74206f776e6560008301527f72000000000000000000000000000000000000000000000000000000000000006020830152604082019050919050565b6000613989603183613ecd565b91507f4552433732313a207472616e736665722063616c6c6572206973206e6f74206f60008301527f776e6572206e6f7220617070726f7665640000000000000000000000000000006020830152604082019050919050565b60006139ef601f83613ecd565b91507f5265656e7472616e637947756172643a207265656e7472616e742063616c6c006000830152602082019050919050565b613a2b8161409f565b82525050565b6000613a3e8284866131a1565b91508190509392505050565b6000613a5682846131ff565b915081905092915050565b6000613a6d82856132b7565b9150613a7982846132b7565b91508190509392505050565b6000602082019050613a9a6000830184613183565b92915050565b6000608082019050613ab56000830187613183565b613ac26020830186613183565b613acf6040830185613a22565b8181036060830152613ae181846131c6565b905095945050505050565b6000602082019050613b016000830184613192565b92915050565b60006020820190508181036000830152613b21818461327e565b905092915050565b60006080820190508181036000830152613b43818761327e565b90508181036020830152613b57818661327e565b90508181036040830152613b6b818561327e565b90508181036060830152613b7f818461327e565b905095945050505050565b60006020820190508181036000830152613ba3816132e8565b9050919050565b60006020820190508181036000830152613bc38161334e565b9050919050565b60006020820190508181036000830152613be3816133b4565b9050919050565b60006020820190508181036000830152613c03816133f4565b9050919050565b60006020820190508181036000830152613c2381613434565b9050919050565b60006020820190508181036000830152613c438161349a565b9050919050565b60006020820190508181036000830152613c63816134da565b9050919050565b60006020820190508181036000830152613c8381613540565b9050919050565b60006020820190508181036000830152613ca3816135cc565b9050919050565b60006020820190508181036000830152613cc381613632565b9050919050565b60006020820190508181036000830152613ce381613698565b9050919050565b60006020820190508181036000830152613d03816136fe565b9050919050565b60006020820190508181036000830152613d238161373e565b9050919050565b60006020820190508181036000830152613d43816137a4565b9050919050565b60006020820190508181036000830152613d63816137e4565b9050919050565b60006020820190508181036000830152613d838161384a565b9050919050565b60006020820190508181036000830152613da3816138b0565b9050919050565b60006020820190508181036000830152613dc381613916565b9050919050565b60006020820190508181036000830152613de38161397c565b9050919050565b60006020820190508181036000830152613e03816139e2565b9050919050565b6000602082019050613e1f6000830184613a22565b92915050565b6000604051905081810181811067ffffffffffffffff82111715613e4c57613e4b614279565b5b8060405250919050565b600067ffffffffffffffff821115613e7157613e70614279565b5b601f19601f8301169050602081019050919050565b60008190508160005260206000209050919050565b600081519050919050565b600081519050919050565b600082825260208201905092915050565b600081905092915050565b600082825260208201905092915050565b600081905092915050565b6000613ef48261409f565b9150613eff8361409f565b9250827fffffffffffffffffffffffffffffffffffffffffffffffffffffffffffffffff03821115613f3457613f336141ec565b5b828201905092915050565b6000613f4a8261409f565b9150613f558361409f565b925082613f6557613f6461421b565b5b828204905092915050565b6000613f7b82614064565b9150613f8683614064565b9250827fffffffffffffffffffffffffffffffffffffffffffffffffffffffffffff800001821260008412151615613fc157613fc06141ec565b5b82617fff018213600084121615613fdb57613fda6141ec565b5b828203905092915050565b6000613ff18261409f565b9150613ffc8361409f565b92508282101561400f5761400e6141ec565b5b828203905092915050565b60006140258261407f565b9050919050565b60008115159050919050565b60007fffffffff0000000000000000000000000000000000000000000000000000000082169050919050565b60008160010b9050919050565b600061ffff82169050919050565b600073ffffffffffffffffffffffffffffffffffffffff82169050919050565b6000819050919050565b82818337600083830152505050565b60005b838110156140d65780820151818401526020810190506140bb565b838111156140e5576000848401525b50505050565b60006140f68261409f565b9150600082141561410a576141096141ec565b5b600182039050919050565b6000600282049050600182168061412d57607f821691505b602082108114156141415761414061424a565b5b50919050565b600061415282614071565b915061ffff821415614167576141666141ec565b5b600182019050919050565b600061417d8261409f565b91507fffffffffffffffffffffffffffffffffffffffffffffffffffffffffffffffff8214156141b0576141af6141ec565b5b600182019050919050565b60006141c68261409f565b91506141d18361409f565b9250826141e1576141e061421b565b5b828206905092915050565b7f4e487b7100000000000000000000000000000000000000000000000000000000600052601160045260246000fd5b7f4e487b7100000000000000000000000000000000000000000000000000000000600052601260045260246000fd5b7f4e487b7100000000000000000000000000000000000000000000000000000000600052602260045260246000fd5b7f4e487b7100000000000000000000000000000000000000000000000000000000600052604160045260246000fd5b6000601f19601f8301169050919050565b6142c28161401a565b81146142cd57600080fd5b50565b6142d98161402c565b81146142e457600080fd5b50565b6142f081614038565b81146142fb57600080fd5b50565b6143078161409f565b811461431257600080fd5b5056fea26469706673582212206f387d4b3c9ecfcf6f0aeed0dc6dcc8d058c599d2f1428fc91610ad1ae6a57a164736f6c63430008000033",
  "immutableReferences": {},
  "source": "// SPDX-License-Identifier: MIT\r\n\r\npragma solidity 0.8.0;\r\n\r\nimport \"@openzeppelin/contracts/token/ERC721/ERC721.sol\";\r\nimport \"@openzeppelin/contracts/security/ReentrancyGuard.sol\";\r\nimport \"@openzeppelin/contracts/access/Ownable.sol\";\r\n\r\n/**\r\n * @title Defines colors for OG NFTs. When minting, a color and an application (which part of the OG NFT to colorize) has to be defined.\r\n * There are four different applications (back, frame, digit, slug), but only a few colors to mint.\r\n * @author nfttank.eth\r\n */\r\ncontract OGColor is ERC721, ReentrancyGuard, Ownable {\r\n    \r\n    uint256 private _tokenId;\r\n\r\n    mapping(uint256 => string) private _colors;\r\n    mapping(uint256 => string) private _applications;\r\n    \r\n    mapping(address => string[]) private _backColorsForAddress;\r\n    mapping(address => string[]) private _frameColorsForAddress;\r\n    mapping(address => string[]) private _digitColorsForAddress;\r\n    mapping(address => string[]) private _slugColorsForAddress;\r\n    \r\n    constructor() ERC721(\"OGColor\", \"OGCOLOR\") Ownable() {\r\n    }\r\n\r\n    function mint(string calldata application, string calldata hexColor) public nonReentrant {\r\n\r\n        require(_tokenId + 1 < 255, \"No free tokens available.\");\r\n        require(isValidApplication(application), \"Application invalid, allowed are 'back', 'frame', 'digit' and 'slug'.\");\r\n        require(isValidHexColor(hexColor), \"Color invalid, use hex format like '#224466'.\");\r\n\r\n        _tokenId++;\r\n\r\n        _colors[_tokenId] = hexColor;\r\n        _applications[_tokenId] = application;\r\n        \r\n        _safeMint(_msgSender(), _tokenId);\r\n    }\r\n\r\n    function isValidApplication(string calldata hexColor) private pure returns (bool) {\r\n        bytes32 k = keccak256(bytes(hexColor));\r\n        return k == keccak256(\"back\") \r\n            || k == keccak256(\"frame\")\r\n            || k == keccak256(\"digit\") \r\n            || k == keccak256(\"slug\");\r\n    }\r\n    \r\n    function isValidHexColor(string calldata hexColor) public pure returns (bool) {\r\n        \r\n        bytes memory hexColorBytes = bytes(hexColor);\r\n        \r\n        if (hexColorBytes.length != 7) // #ffffff\r\n            return false;\r\n        \r\n        for (uint16 i = 0; i < hexColorBytes.length; i++) {\r\n            \r\n            int16 char = int16(uint16(uint8(hexColorBytes[i])));\r\n            \r\n            if (i == 0) {\r\n                if (char != 35) // #\r\n                    return false;\r\n            }\r\n            else {\r\n                int16 num1 = char - 48; // charIndex - 48 is the numeric value\r\n                int16 num2 = char - 65; // charIndex - 65 uppercase letters\r\n                int16 num3 = char - 97; // charIndex - 97 lowercase letters\r\n                bool isHex = (num1 >= 0 && num1 <= 9) || (num2 >= 0 && num2 <= 5) || (num3 >= 0 && num3 <= 5); // 0-9 or A-H or a-h\r\n                if (!isHex)\r\n                     return false;\r\n            }\r\n        }\r\n        \r\n        return true;\r\n    }\r\n    \r\n    function _beforeTokenTransfer(address from, address to, uint256 tokenId) internal override {\r\n        \r\n        super._beforeTokenTransfer(from, to, tokenId);\r\n\r\n        if (from == to) // pseudo use of from-variable to prevent warnings while keeping the overridden method signature\r\n            return;\r\n\r\n        string memory color = _colors[tokenId];\r\n        bytes32 application = keccak256(bytes(_applications[tokenId]));\r\n        \r\n        if (application == keccak256(\"back\")) {\r\n            if (from != address(0))\r\n               removeColor(_backColorsForAddress[from], color);\r\n            _backColorsForAddress[to].push(color);\r\n        }\r\n        else if (application == keccak256(\"frame\")) {\r\n            if (from != address(0))\r\n                removeColor(_frameColorsForAddress[from], color);\r\n            _frameColorsForAddress[to].push(color);\r\n        }\r\n        else if (application == keccak256(\"digit\")) {\r\n            if (from != address(0))\r\n                removeColor(_digitColorsForAddress[from], color);\r\n            _digitColorsForAddress[to].push(color);\r\n        }\r\n        else if (application == keccak256(\"slug\")) {\r\n            if (from != address(0))\r\n                removeColor(_slugColorsForAddress[from], color);\r\n            _slugColorsForAddress[to].push(color);\r\n        }\r\n    }\r\n\r\n    function removeColor(string[] storage colors, string memory exceptColor) private {\r\n\r\n        // https://ethereum.stackexchange.com/questions/63653/why-i-cannot-loop-through-array-backwards-in-solidity/63654\r\n        for (uint256 i = colors.length; i > 0; i--) {\r\n            if (stringEquals(colors[i - 1], exceptColor)) {\r\n                delete colors[i - 1];\r\n                return;\r\n            }\r\n        }\r\n    }\r\n\r\n    function stringEquals(string memory a, string memory b) internal pure returns(bool) {\r\n        return bytesEquals(bytes(a), bytes(b));\r\n    }\r\n    \r\n    function bytesEquals(bytes memory a, bytes memory b) internal pure returns(bool) {\r\n        return (a.length == b.length) && (keccak256(a) == keccak256(b));\r\n    }\r\n\r\n    function getColors(address forAddress, uint256 tokenId) external view returns (string memory backColor, string memory frameColor, string memory digitColor, string memory slugColor) {\r\n\r\n        string[] memory colors = tokenId < 99999 ? _backColorsForAddress[forAddress] : new string[](0); // pseudo use of tokenId to prevent warnings. We still want the tokenId in the method arguments to be able to modify colors by the tokenId in the future.\r\n        string memory back = getColorFromArray(colors, \"#FFFFFF\");\r\n        \r\n        colors = _frameColorsForAddress[forAddress];\r\n        string memory frame = getColorFromArray(colors, \"#000000\");\r\n        \r\n        colors = _digitColorsForAddress[forAddress];\r\n        string memory digit = getColorFromArray(colors, \"#000000\");\r\n        \r\n        colors = _slugColorsForAddress[forAddress];\r\n        string memory slug = getColorFromArray(colors, \"#FFFFFF\");\r\n        \r\n        return (back, frame, digit, slug);\r\n    }\r\n\r\n    function getColorFromArray(string[] memory colors, string memory fallbackValue) internal pure returns (string memory) {\r\n\r\n        // https://ethereum.stackexchange.com/questions/63653/why-i-cannot-loop-through-array-backwards-in-solidity/63654\r\n        for (uint256 i = colors.length; i > 0; i--) {\r\n            if (bytes(colors[i - 1]).length > 0)\r\n                return colors[i - 1];\r\n        }\r\n\r\n        return fallbackValue;\r\n    }\r\n}\r\n\r\n// ATTRIBUTERS Application=back, COKOR#00342",
  "sourcePath": "D:\\Develop\\GitHub\\OG+\\src\\contracts\\OGColor.sol",
  "compiler": {
    "name": "solc",
    "version": "0.8.0+commit.c7dfd78e.Emscripten.clang"
  },
  "schemaVersion": "3.4.3",
  "updatedAt": "2022-01-03T18:10:29.207Z",
  "networkType": "ethereum",
  "devdoc": {
    "author": "nfttank.eth",
    "kind": "dev",
    "methods": {
      "approve(address,uint256)": {
        "details": "See {IERC721-approve}."
      },
      "balanceOf(address)": {
        "details": "See {IERC721-balanceOf}."
      },
      "getApproved(uint256)": {
        "details": "See {IERC721-getApproved}."
      },
      "isApprovedForAll(address,address)": {
        "details": "See {IERC721-isApprovedForAll}."
      },
      "name()": {
        "details": "See {IERC721Metadata-name}."
      },
      "owner()": {
        "details": "Returns the address of the current owner."
      },
      "ownerOf(uint256)": {
        "details": "See {IERC721-ownerOf}."
      },
      "renounceOwnership()": {
        "details": "Leaves the contract without owner. It will not be possible to call `onlyOwner` functions anymore. Can only be called by the current owner. NOTE: Renouncing ownership will leave the contract without an owner, thereby removing any functionality that is only available to the owner."
      },
      "safeTransferFrom(address,address,uint256)": {
        "details": "See {IERC721-safeTransferFrom}."
      },
      "safeTransferFrom(address,address,uint256,bytes)": {
        "details": "See {IERC721-safeTransferFrom}."
      },
      "setApprovalForAll(address,bool)": {
        "details": "See {IERC721-setApprovalForAll}."
      },
      "supportsInterface(bytes4)": {
        "details": "See {IERC165-supportsInterface}."
      },
      "symbol()": {
        "details": "See {IERC721Metadata-symbol}."
      },
      "tokenURI(uint256)": {
        "details": "See {IERC721Metadata-tokenURI}."
      },
      "transferFrom(address,address,uint256)": {
        "details": "See {IERC721-transferFrom}."
      },
      "transferOwnership(address)": {
        "details": "Transfers ownership of the contract to a new account (`newOwner`). Can only be called by the current owner."
      }
    },
    "title": "Defines colors for OG NFTs. When minting, a color and an application (which part of the OG NFT to colorize) has to be defined. There are four different applications (back, frame, digit, slug), but only a few colors to mint.",
    "version": 1
  },
  "userdoc": {
    "kind": "user",
    "methods": {},
    "version": 1
  }
}